{
	"contracts/Voting.sol": {
		"Voting": {
			"abi": [
				{
					"inputs": [],
					"stateMutability": "nonpayable",
					"type": "constructor"
				},
				{
					"inputs": [
						{
							"internalType": "address",
							"name": "owner",
							"type": "address"
						}
					],
					"name": "OwnableInvalidOwner",
					"type": "error"
				},
				{
					"inputs": [
						{
							"internalType": "address",
							"name": "account",
							"type": "address"
						}
					],
					"name": "OwnableUnauthorizedAccount",
					"type": "error"
				},
				{
					"anonymous": false,
					"inputs": [
						{
							"indexed": true,
							"internalType": "address",
							"name": "previousOwner",
							"type": "address"
						},
						{
							"indexed": true,
							"internalType": "address",
							"name": "newOwner",
							"type": "address"
						}
					],
					"name": "OwnershipTransferred",
					"type": "event"
				},
				{
					"anonymous": false,
					"inputs": [
						{
							"indexed": false,
							"internalType": "uint256",
							"name": "proposalId",
							"type": "uint256"
						}
					],
					"name": "ProposalRegistered",
					"type": "event"
				},
				{
					"anonymous": false,
					"inputs": [
						{
							"indexed": false,
							"internalType": "address",
							"name": "voter",
							"type": "address"
						},
						{
							"indexed": false,
							"internalType": "uint256",
							"name": "proposalId",
							"type": "uint256"
						}
					],
					"name": "Voted",
					"type": "event"
				},
				{
					"anonymous": false,
					"inputs": [
						{
							"indexed": false,
							"internalType": "address",
							"name": "voterAddress",
							"type": "address"
						}
					],
					"name": "VoterRegistered",
					"type": "event"
				},
				{
					"anonymous": false,
					"inputs": [
						{
							"indexed": false,
							"internalType": "enum Voting.WorkflowStatus",
							"name": "previousStatus",
							"type": "uint8"
						},
						{
							"indexed": false,
							"internalType": "enum Voting.WorkflowStatus",
							"name": "newStatus",
							"type": "uint8"
						}
					],
					"name": "WorkflowStatusChange",
					"type": "event"
				},
				{
					"inputs": [
						{
							"internalType": "uint256",
							"name": "_choice",
							"type": "uint256"
						}
					],
					"name": "Vote",
					"outputs": [],
					"stateMutability": "nonpayable",
					"type": "function"
				},
				{
					"inputs": [
						{
							"internalType": "string",
							"name": "_description",
							"type": "string"
						}
					],
					"name": "_addProposal",
					"outputs": [],
					"stateMutability": "nonpayable",
					"type": "function"
				},
				{
					"inputs": [
						{
							"internalType": "address",
							"name": "_address",
							"type": "address"
						}
					],
					"name": "_whitelist",
					"outputs": [],
					"stateMutability": "nonpayable",
					"type": "function"
				},
				{
					"inputs": [],
					"name": "checkWinner",
					"outputs": [
						{
							"components": [
								{
									"internalType": "string",
									"name": "description",
									"type": "string"
								},
								{
									"internalType": "uint256",
									"name": "voteCount",
									"type": "uint256"
								}
							],
							"internalType": "struct Voting.Proposal[]",
							"name": "",
							"type": "tuple[]"
						}
					],
					"stateMutability": "view",
					"type": "function"
				},
				{
					"inputs": [],
					"name": "getAllProposal",
					"outputs": [
						{
							"components": [
								{
									"internalType": "string",
									"name": "description",
									"type": "string"
								},
								{
									"internalType": "uint256",
									"name": "voteCount",
									"type": "uint256"
								}
							],
							"internalType": "struct Voting.Proposal[]",
							"name": "",
							"type": "tuple[]"
						}
					],
					"stateMutability": "view",
					"type": "function"
				},
				{
					"inputs": [],
					"name": "getProposalCount",
					"outputs": [
						{
							"internalType": "uint256",
							"name": "",
							"type": "uint256"
						}
					],
					"stateMutability": "view",
					"type": "function"
				},
				{
					"inputs": [],
					"name": "getWinner",
					"outputs": [],
					"stateMutability": "nonpayable",
					"type": "function"
				},
				{
					"inputs": [],
					"name": "nextVotingStatus",
					"outputs": [],
					"stateMutability": "nonpayable",
					"type": "function"
				},
				{
					"inputs": [],
					"name": "owner",
					"outputs": [
						{
							"internalType": "address",
							"name": "",
							"type": "address"
						}
					],
					"stateMutability": "view",
					"type": "function"
				},
				{
					"inputs": [],
					"name": "renounceOwnership",
					"outputs": [],
					"stateMutability": "nonpayable",
					"type": "function"
				},
				{
					"inputs": [
						{
							"internalType": "address",
							"name": "newOwner",
							"type": "address"
						}
					],
					"name": "transferOwnership",
					"outputs": [],
					"stateMutability": "nonpayable",
					"type": "function"
				}
			],
			"devdoc": {
				"errors": {
					"OwnableInvalidOwner(address)": [
						{
							"details": "The owner is not a valid owner account. (eg. `address(0)`)"
						}
					],
					"OwnableUnauthorizedAccount(address)": [
						{
							"details": "The caller account is not authorized to perform an operation."
						}
					]
				},
				"kind": "dev",
				"methods": {
					"owner()": {
						"details": "Returns the address of the current owner."
					},
					"renounceOwnership()": {
						"details": "Leaves the contract without owner. It will not be possible to call `onlyOwner` functions. Can only be called by the current owner. NOTE: Renouncing ownership will leave the contract without an owner, thereby disabling any functionality that is only available to the owner."
					},
					"transferOwnership(address)": {
						"details": "Transfers ownership of the contract to a new account (`newOwner`). Can only be called by the current owner."
					}
				},
				"version": 1
			},
			"evm": {
				"assembly": "    /* \"contracts/Voting.sol\":170:6098  contract Voting is Ownable{... */\n  mstore(0x40, 0x80)\n    /* \"contracts/Voting.sol\":451:539  constructor() Ownable(msg.sender){ ... */\n  callvalue\n  dup1\n  iszero\n  tag_1\n  jumpi\n  revert(0x00, 0x00)\ntag_1:\n  pop\n    /* \"contracts/Voting.sol\":473:483  msg.sender */\n  caller\n    /* \"https://github.com/OpenZeppelin/openzeppelin-contracts/blob/master/contracts/access/Ownable.sol\":1297:1298  0 */\n  0x00\n    /* \"https://github.com/OpenZeppelin/openzeppelin-contracts/blob/master/contracts/access/Ownable.sol\":1273:1299  initialOwner == address(0) */\n  0xffffffffffffffffffffffffffffffffffffffff\n  and\n    /* \"https://github.com/OpenZeppelin/openzeppelin-contracts/blob/master/contracts/access/Ownable.sol\":1273:1285  initialOwner */\n  dup2\n    /* \"https://github.com/OpenZeppelin/openzeppelin-contracts/blob/master/contracts/access/Ownable.sol\":1273:1299  initialOwner == address(0) */\n  0xffffffffffffffffffffffffffffffffffffffff\n  and\n  sub\n    /* \"https://github.com/OpenZeppelin/openzeppelin-contracts/blob/master/contracts/access/Ownable.sol\":1269:1364  if (initialOwner == address(0)) {... */\n  tag_5\n  jumpi\n    /* \"https://github.com/OpenZeppelin/openzeppelin-contracts/blob/master/contracts/access/Ownable.sol\":1350:1351  0 */\n  0x00\n    /* \"https://github.com/OpenZeppelin/openzeppelin-contracts/blob/master/contracts/access/Ownable.sol\":1322:1353  OwnableInvalidOwner(address(0)) */\n  mload(0x40)\n  0x1e4fbdf700000000000000000000000000000000000000000000000000000000\n  dup2\n  mstore\n  0x04\n  add\n  tag_6\n  swap2\n  swap1\n  tag_7\n  jump\t// in\ntag_6:\n  mload(0x40)\n  dup1\n  swap2\n  sub\n  swap1\n  revert\n    /* \"https://github.com/OpenZeppelin/openzeppelin-contracts/blob/master/contracts/access/Ownable.sol\":1269:1364  if (initialOwner == address(0)) {... */\ntag_5:\n    /* \"https://github.com/OpenZeppelin/openzeppelin-contracts/blob/master/contracts/access/Ownable.sol\":1373:1405  _transferOwnership(initialOwner) */\n  tag_8\n    /* \"https://github.com/OpenZeppelin/openzeppelin-contracts/blob/master/contracts/access/Ownable.sol\":1392:1404  initialOwner */\n  dup2\n    /* \"https://github.com/OpenZeppelin/openzeppelin-contracts/blob/master/contracts/access/Ownable.sol\":1373:1391  _transferOwnership */\n  shl(0x20, tag_9)\n    /* \"https://github.com/OpenZeppelin/openzeppelin-contracts/blob/master/contracts/access/Ownable.sol\":1373:1405  _transferOwnership(initialOwner) */\n  0x20\n  shr\n  jump\t// in\ntag_8:\n    /* \"https://github.com/OpenZeppelin/openzeppelin-contracts/blob/master/contracts/access/Ownable.sol\":1225:1412  constructor(address initialOwner) {... */\n  pop\n    /* \"contracts/Voting.sol\":503:530  WorkflowStatus.VotesTallied */\n  0x05\n    /* \"contracts/Voting.sol\":495:500  state */\n  0x00\n  0x14\n    /* \"contracts/Voting.sol\":495:530  state = WorkflowStatus.VotesTallied */\n  0x0100\n  exp\n  dup2\n  sload\n  dup2\n  0xff\n  mul\n  not\n  and\n  swap1\n  dup4\n  0x05\n  dup2\n  gt\n  iszero\n  tag_11\n  jumpi\n  tag_12\n  tag_13\n  jump\t// in\ntag_12:\ntag_11:\n  mul\n  or\n  swap1\n  sstore\n  pop\n    /* \"contracts/Voting.sol\":170:6098  contract Voting is Ownable{... */\n  jump(tag_14)\n    /* \"https://github.com/OpenZeppelin/openzeppelin-contracts/blob/master/contracts/access/Ownable.sol\":2912:3099  function _transferOwnership(address newOwner) internal virtual {... */\ntag_9:\n    /* \"https://github.com/OpenZeppelin/openzeppelin-contracts/blob/master/contracts/access/Ownable.sol\":2985:3001  address oldOwner */\n  0x00\n    /* \"https://github.com/OpenZeppelin/openzeppelin-contracts/blob/master/contracts/access/Ownable.sol\":3004:3010  _owner */\n  0x00\n  0x00\n  swap1\n  sload\n  swap1\n  0x0100\n  exp\n  swap1\n  div\n  0xffffffffffffffffffffffffffffffffffffffff\n  and\n    /* \"https://github.com/OpenZeppelin/openzeppelin-contracts/blob/master/contracts/access/Ownable.sol\":2985:3010  address oldOwner = _owner */\n  swap1\n  pop\n    /* \"https://github.com/OpenZeppelin/openzeppelin-contracts/blob/master/contracts/access/Ownable.sol\":3029:3037  newOwner */\n  dup2\n    /* \"https://github.com/OpenZeppelin/openzeppelin-contracts/blob/master/contracts/access/Ownable.sol\":3020:3026  _owner */\n  0x00\n  0x00\n    /* \"https://github.com/OpenZeppelin/openzeppelin-contracts/blob/master/contracts/access/Ownable.sol\":3020:3037  _owner = newOwner */\n  0x0100\n  exp\n  dup2\n  sload\n  dup2\n  0xffffffffffffffffffffffffffffffffffffffff\n  mul\n  not\n  and\n  swap1\n  dup4\n  0xffffffffffffffffffffffffffffffffffffffff\n  and\n  mul\n  or\n  swap1\n  sstore\n  pop\n    /* \"https://github.com/OpenZeppelin/openzeppelin-contracts/blob/master/contracts/access/Ownable.sol\":3083:3091  newOwner */\n  dup2\n    /* \"https://github.com/OpenZeppelin/openzeppelin-contracts/blob/master/contracts/access/Ownable.sol\":3052:3092  OwnershipTransferred(oldOwner, newOwner) */\n  0xffffffffffffffffffffffffffffffffffffffff\n  and\n    /* \"https://github.com/OpenZeppelin/openzeppelin-contracts/blob/master/contracts/access/Ownable.sol\":3073:3081  oldOwner */\n  dup2\n    /* \"https://github.com/OpenZeppelin/openzeppelin-contracts/blob/master/contracts/access/Ownable.sol\":3052:3092  OwnershipTransferred(oldOwner, newOwner) */\n  0xffffffffffffffffffffffffffffffffffffffff\n  and\n  0x8be0079c531659141344cd1fd0a4f28419497f9722a3daafe3b4186f6b6457e0\n  mload(0x40)\n  mload(0x40)\n  dup1\n  swap2\n  sub\n  swap1\n  log3\n    /* \"https://github.com/OpenZeppelin/openzeppelin-contracts/blob/master/contracts/access/Ownable.sol\":2975:3099  {... */\n  pop\n    /* \"https://github.com/OpenZeppelin/openzeppelin-contracts/blob/master/contracts/access/Ownable.sol\":2912:3099  function _transferOwnership(address newOwner) internal virtual {... */\n  pop\n  jump\t// out\n    /* \"#utility.yul\":7:133   */\ntag_16:\n    /* \"#utility.yul\":44:51   */\n  0x00\n    /* \"#utility.yul\":84:126   */\n  0xffffffffffffffffffffffffffffffffffffffff\n    /* \"#utility.yul\":77:82   */\n  dup3\n    /* \"#utility.yul\":73:127   */\n  and\n    /* \"#utility.yul\":62:127   */\n  swap1\n  pop\n    /* \"#utility.yul\":7:133   */\n  swap2\n  swap1\n  pop\n  jump\t// out\n    /* \"#utility.yul\":139:235   */\ntag_17:\n    /* \"#utility.yul\":176:183   */\n  0x00\n    /* \"#utility.yul\":205:229   */\n  tag_22\n    /* \"#utility.yul\":223:228   */\n  dup3\n    /* \"#utility.yul\":205:229   */\n  tag_16\n  jump\t// in\ntag_22:\n    /* \"#utility.yul\":194:229   */\n  swap1\n  pop\n    /* \"#utility.yul\":139:235   */\n  swap2\n  swap1\n  pop\n  jump\t// out\n    /* \"#utility.yul\":241:359   */\ntag_18:\n    /* \"#utility.yul\":328:352   */\n  tag_24\n    /* \"#utility.yul\":346:351   */\n  dup2\n    /* \"#utility.yul\":328:352   */\n  tag_17\n  jump\t// in\ntag_24:\n    /* \"#utility.yul\":323:326   */\n  dup3\n    /* \"#utility.yul\":316:353   */\n  mstore\n    /* \"#utility.yul\":241:359   */\n  pop\n  pop\n  jump\t// out\n    /* \"#utility.yul\":365:587   */\ntag_7:\n    /* \"#utility.yul\":458:462   */\n  0x00\n    /* \"#utility.yul\":496:498   */\n  0x20\n    /* \"#utility.yul\":485:494   */\n  dup3\n    /* \"#utility.yul\":481:499   */\n  add\n    /* \"#utility.yul\":473:499   */\n  swap1\n  pop\n    /* \"#utility.yul\":509:580   */\n  tag_26\n    /* \"#utility.yul\":577:578   */\n  0x00\n    /* \"#utility.yul\":566:575   */\n  dup4\n    /* \"#utility.yul\":562:579   */\n  add\n    /* \"#utility.yul\":553:559   */\n  dup5\n    /* \"#utility.yul\":509:580   */\n  tag_18\n  jump\t// in\ntag_26:\n    /* \"#utility.yul\":365:587   */\n  swap3\n  swap2\n  pop\n  pop\n  jump\t// out\n    /* \"#utility.yul\":593:773   */\ntag_13:\n    /* \"#utility.yul\":641:718   */\n  0x4e487b7100000000000000000000000000000000000000000000000000000000\n    /* \"#utility.yul\":638:639   */\n  0x00\n    /* \"#utility.yul\":631:719   */\n  mstore\n    /* \"#utility.yul\":738:742   */\n  0x21\n    /* \"#utility.yul\":735:736   */\n  0x04\n    /* \"#utility.yul\":728:743   */\n  mstore\n    /* \"#utility.yul\":762:766   */\n  0x24\n    /* \"#utility.yul\":759:760   */\n  0x00\n    /* \"#utility.yul\":752:767   */\n  revert\n    /* \"contracts/Voting.sol\":170:6098  contract Voting is Ownable{... */\ntag_14:\n  dataSize(sub_0)\n  dup1\n  dataOffset(sub_0)\n  0x00\n  codecopy\n  0x00\n  return\nstop\n\nsub_0: assembly {\n        /* \"contracts/Voting.sol\":170:6098  contract Voting is Ownable{... */\n      mstore(0x40, 0x80)\n      callvalue\n      dup1\n      iszero\n      tag_1\n      jumpi\n      revert(0x00, 0x00)\n    tag_1:\n      pop\n      jumpi(tag_2, lt(calldatasize, 0x04))\n      shr(0xe0, calldataload(0x00))\n      dup1\n      0xad38867e\n      gt\n      tag_14\n      jumpi\n      dup1\n      0xad38867e\n      eq\n      tag_8\n      jumpi\n      dup1\n      0xc08cc02d\n      eq\n      tag_9\n      jumpi\n      dup1\n      0xcfdb63ac\n      eq\n      tag_10\n      jumpi\n      dup1\n      0xdcd6a5cd\n      eq\n      tag_11\n      jumpi\n      dup1\n      0xe6adaecc\n      eq\n      tag_12\n      jumpi\n      dup1\n      0xf2fde38b\n      eq\n      tag_13\n      jumpi\n      jump(tag_2)\n    tag_14:\n      dup1\n      0x43344983\n      eq\n      tag_3\n      jumpi\n      dup1\n      0x4ea49925\n      eq\n      tag_4\n      jumpi\n      dup1\n      0x715018a6\n      eq\n      tag_5\n      jumpi\n      dup1\n      0x8da5cb5b\n      eq\n      tag_6\n      jumpi\n      dup1\n      0x8e7ea5b2\n      eq\n      tag_7\n      jumpi\n    tag_2:\n      revert(0x00, 0x00)\n        /* \"contracts/Voting.sol\":3527:3625  function getAllProposal()external view returns(Proposal[] memory){... */\n    tag_3:\n      tag_15\n      tag_16\n      jump\t// in\n    tag_15:\n      mload(0x40)\n      tag_17\n      swap2\n      swap1\n      tag_18\n      jump\t// in\n    tag_17:\n      mload(0x40)\n      dup1\n      swap2\n      sub\n      swap1\n      return\n        /* \"contracts/Voting.sol\":1303:1782  function nextVotingStatus() public onlyOwner{ //Definis le status à l'etape suivante... */\n    tag_4:\n      tag_19\n      tag_20\n      jump\t// in\n    tag_19:\n      stop\n        /* \"https://github.com/OpenZeppelin/openzeppelin-contracts/blob/master/contracts/access/Ownable.sol\":2293:2394  function renounceOwnership() public virtual onlyOwner {... */\n    tag_5:\n      tag_21\n      tag_22\n      jump\t// in\n    tag_21:\n      stop\n        /* \"https://github.com/OpenZeppelin/openzeppelin-contracts/blob/master/contracts/access/Ownable.sol\":1638:1723  function owner() public view virtual returns (address) {... */\n    tag_6:\n      tag_23\n      tag_24\n      jump\t// in\n    tag_23:\n      mload(0x40)\n      tag_25\n      swap2\n      swap1\n      tag_26\n      jump\t// in\n    tag_25:\n      mload(0x40)\n      dup1\n      swap2\n      sub\n      swap1\n      return\n        /* \"contracts/Voting.sol\":4380:5541  function getWinner () external onlyOwner{... */\n    tag_7:\n      tag_27\n      tag_28\n      jump\t// in\n    tag_27:\n      stop\n        /* \"contracts/Voting.sol\":5547:5693  function checkWinner()external view returns(Proposal[] memory){... */\n    tag_8:\n      tag_29\n      tag_30\n      jump\t// in\n    tag_29:\n      mload(0x40)\n      tag_31\n      swap2\n      swap1\n      tag_18\n      jump\t// in\n    tag_31:\n      mload(0x40)\n      dup1\n      swap2\n      sub\n      swap1\n      return\n        /* \"contracts/Voting.sol\":3425:3521  function getProposalCount() external view returns (uint){... */\n    tag_9:\n      tag_32\n      tag_33\n      jump\t// in\n    tag_32:\n      mload(0x40)\n      tag_34\n      swap2\n      swap1\n      tag_35\n      jump\t// in\n    tag_34:\n      mload(0x40)\n      dup1\n      swap2\n      sub\n      swap1\n      return\n        /* \"contracts/Voting.sol\":1864:2640  function _whitelist(address _address) public onlyOwner{... */\n    tag_10:\n      tag_36\n      0x04\n      dup1\n      calldatasize\n      sub\n      dup2\n      add\n      swap1\n      tag_37\n      swap2\n      swap1\n      tag_38\n      jump\t// in\n    tag_37:\n      tag_39\n      jump\t// in\n    tag_36:\n      stop\n        /* \"contracts/Voting.sol\":3636:4375  function Vote(uint _choice ) external {... */\n    tag_11:\n      tag_40\n      0x04\n      dup1\n      calldatasize\n      sub\n      dup2\n      add\n      swap1\n      tag_41\n      swap2\n      swap1\n      tag_42\n      jump\t// in\n    tag_41:\n      tag_43\n      jump\t// in\n    tag_40:\n      stop\n        /* \"contracts/Voting.sol\":2789:3420  function _addProposal (string memory _description) external {... */\n    tag_12:\n      tag_44\n      0x04\n      dup1\n      calldatasize\n      sub\n      dup2\n      add\n      swap1\n      tag_45\n      swap2\n      swap1\n      tag_46\n      jump\t// in\n    tag_45:\n      tag_47\n      jump\t// in\n    tag_44:\n      stop\n        /* \"https://github.com/OpenZeppelin/openzeppelin-contracts/blob/master/contracts/access/Ownable.sol\":2543:2758  function transferOwnership(address newOwner) public virtual onlyOwner {... */\n    tag_13:\n      tag_48\n      0x04\n      dup1\n      calldatasize\n      sub\n      dup2\n      add\n      swap1\n      tag_49\n      swap2\n      swap1\n      tag_38\n      jump\t// in\n    tag_49:\n      tag_50\n      jump\t// in\n    tag_48:\n      stop\n        /* \"contracts/Voting.sol\":3527:3625  function getAllProposal()external view returns(Proposal[] memory){... */\n    tag_16:\n        /* \"contracts/Voting.sol\":3574:3591  Proposal[] memory */\n      0x60\n        /* \"contracts/Voting.sol\":3609:3618  proposals */\n      0x03\n        /* \"contracts/Voting.sol\":3602:3618  return proposals */\n      dup1\n      sload\n      dup1\n      0x20\n      mul\n      0x20\n      add\n      mload(0x40)\n      swap1\n      dup2\n      add\n      0x40\n      mstore\n      dup1\n      swap3\n      swap2\n      swap1\n      dup2\n      dup2\n      mstore\n      0x20\n      add\n      0x00\n      swap1\n    tag_52:\n      dup3\n      dup3\n      lt\n      iszero\n      tag_53\n      jumpi\n      dup4\n      dup3\n      swap1\n      0x00\n      mstore\n      keccak256(0x00, 0x20)\n      swap1\n      0x02\n      mul\n      add\n      mload(0x40)\n      dup1\n      0x40\n      add\n      0x40\n      mstore\n      swap1\n      dup2\n      0x00\n      dup3\n      add\n      dup1\n      sload\n      tag_55\n      swap1\n      tag_56\n      jump\t// in\n    tag_55:\n      dup1\n      0x1f\n      add\n      0x20\n      dup1\n      swap2\n      div\n      mul\n      0x20\n      add\n      mload(0x40)\n      swap1\n      dup2\n      add\n      0x40\n      mstore\n      dup1\n      swap3\n      swap2\n      swap1\n      dup2\n      dup2\n      mstore\n      0x20\n      add\n      dup3\n      dup1\n      sload\n      tag_57\n      swap1\n      tag_56\n      jump\t// in\n    tag_57:\n      dup1\n      iszero\n      tag_58\n      jumpi\n      dup1\n      0x1f\n      lt\n      tag_59\n      jumpi\n      0x0100\n      dup1\n      dup4\n      sload\n      div\n      mul\n      dup4\n      mstore\n      swap2\n      0x20\n      add\n      swap2\n      jump(tag_58)\n    tag_59:\n      dup3\n      add\n      swap2\n      swap1\n      0x00\n      mstore\n      keccak256(0x00, 0x20)\n      swap1\n    tag_60:\n      dup2\n      sload\n      dup2\n      mstore\n      swap1\n      0x01\n      add\n      swap1\n      0x20\n      add\n      dup1\n      dup4\n      gt\n      tag_60\n      jumpi\n      dup3\n      swap1\n      sub\n      0x1f\n      and\n      dup3\n      add\n      swap2\n    tag_58:\n      pop\n      pop\n      pop\n      pop\n      pop\n      dup2\n      mstore\n      0x20\n      add\n      0x01\n      dup3\n      add\n      sload\n      dup2\n      mstore\n      pop\n      pop\n      dup2\n      mstore\n      0x20\n      add\n      swap1\n      0x01\n      add\n      swap1\n      jump(tag_52)\n    tag_53:\n      pop\n      pop\n      pop\n      pop\n      swap1\n      pop\n        /* \"contracts/Voting.sol\":3527:3625  function getAllProposal()external view returns(Proposal[] memory){... */\n      swap1\n      jump\t// out\n        /* \"contracts/Voting.sol\":1303:1782  function nextVotingStatus() public onlyOwner{ //Definis le status à l'etape suivante... */\n    tag_20:\n        /* \"https://github.com/OpenZeppelin/openzeppelin-contracts/blob/master/contracts/access/Ownable.sol\":1531:1544  _checkOwner() */\n      tag_62\n        /* \"https://github.com/OpenZeppelin/openzeppelin-contracts/blob/master/contracts/access/Ownable.sol\":1531:1542  _checkOwner */\n      tag_63\n        /* \"https://github.com/OpenZeppelin/openzeppelin-contracts/blob/master/contracts/access/Ownable.sol\":1531:1544  _checkOwner() */\n      jump\t// in\n    tag_62:\n        /* \"contracts/Voting.sol\":1397:1426  WorkflowStatus previousStatus */\n      0x00\n        /* \"contracts/Voting.sol\":1427:1432  state */\n      0x00\n      0x14\n      swap1\n      sload\n      swap1\n      0x0100\n      exp\n      swap1\n      div\n      0xff\n      and\n        /* \"contracts/Voting.sol\":1397:1432  WorkflowStatus previousStatus=state */\n      swap1\n      pop\n        /* \"contracts/Voting.sol\":1455:1482  WorkflowStatus.VotesTallied */\n      0x05\n        /* \"contracts/Voting.sol\":1447:1482  state== WorkflowStatus.VotesTallied */\n      dup1\n      dup2\n      gt\n      iszero\n      tag_65\n      jumpi\n      tag_66\n      tag_67\n      jump\t// in\n    tag_66:\n    tag_65:\n        /* \"contracts/Voting.sol\":1447:1452  state */\n      0x00\n      0x14\n      swap1\n      sload\n      swap1\n      0x0100\n      exp\n      swap1\n      div\n      0xff\n      and\n        /* \"contracts/Voting.sol\":1447:1482  state== WorkflowStatus.VotesTallied */\n      0x05\n      dup2\n      gt\n      iszero\n      tag_68\n      jumpi\n      tag_69\n      tag_67\n      jump\t// in\n    tag_69:\n    tag_68:\n      sub\n        /* \"contracts/Voting.sol\":1443:1672  if (state== WorkflowStatus.VotesTallied){... */\n      tag_70\n      jumpi\n        /* \"contracts/Voting.sol\":1505:1537  WorkflowStatus.RegisteringVoters */\n      0x00\n        /* \"contracts/Voting.sol\":1497:1502  state */\n      0x00\n      0x14\n        /* \"contracts/Voting.sol\":1497:1537  state = WorkflowStatus.RegisteringVoters */\n      0x0100\n      exp\n      dup2\n      sload\n      dup2\n      0xff\n      mul\n      not\n      and\n      swap1\n      dup4\n      0x05\n      dup2\n      gt\n      iszero\n      tag_71\n      jumpi\n      tag_72\n      tag_67\n      jump\t// in\n    tag_72:\n    tag_71:\n      mul\n      or\n      swap1\n      sstore\n      pop\n        /* \"contracts/Voting.sol\":1443:1672  if (state== WorkflowStatus.VotesTallied){... */\n      jump(tag_73)\n    tag_70:\n        /* \"contracts/Voting.sol\":1659:1660  1 */\n      0x01\n        /* \"contracts/Voting.sol\":1652:1657  state */\n      0x00\n      0x14\n      swap1\n      sload\n      swap1\n      0x0100\n      exp\n      swap1\n      div\n      0xff\n      and\n        /* \"contracts/Voting.sol\":1647:1658  uint(state) */\n      0x05\n      dup2\n      gt\n      iszero\n      tag_74\n      jumpi\n      tag_75\n      tag_67\n      jump\t// in\n    tag_75:\n    tag_74:\n        /* \"contracts/Voting.sol\":1647:1660  uint(state)+1 */\n      tag_76\n      swap2\n      swap1\n      tag_77\n      jump\t// in\n    tag_76:\n        /* \"contracts/Voting.sol\":1632:1661  WorkflowStatus(uint(state)+1) */\n      0x05\n      dup2\n      gt\n      iszero\n      tag_78\n      jumpi\n      tag_79\n      tag_67\n      jump\t// in\n    tag_79:\n    tag_78:\n        /* \"contracts/Voting.sol\":1624:1629  state */\n      0x00\n      0x14\n        /* \"contracts/Voting.sol\":1624:1661  state = WorkflowStatus(uint(state)+1) */\n      0x0100\n      exp\n      dup2\n      sload\n      dup2\n      0xff\n      mul\n      not\n      and\n      swap1\n      dup4\n      0x05\n      dup2\n      gt\n      iszero\n      tag_80\n      jumpi\n      tag_81\n      tag_67\n      jump\t// in\n    tag_81:\n    tag_80:\n      mul\n      or\n      swap1\n      sstore\n      pop\n        /* \"contracts/Voting.sol\":1443:1672  if (state== WorkflowStatus.VotesTallied){... */\n    tag_73:\n        /* \"contracts/Voting.sol\":1681:1705  WorkflowStatus newStatus */\n      0x00\n        /* \"contracts/Voting.sol\":1706:1711  state */\n      0x00\n      0x14\n      swap1\n      sload\n      swap1\n      0x0100\n      exp\n      swap1\n      div\n      0xff\n      and\n        /* \"contracts/Voting.sol\":1681:1711  WorkflowStatus newStatus=state */\n      swap1\n      pop\n        /* \"contracts/Voting.sol\":1727:1774  WorkflowStatusChange(previousStatus, newStatus) */\n      0x0a97a4ee45751e2abf3e4fc8946939630b11b371ea8ae39ccdc3056e98f5cc3f\n        /* \"contracts/Voting.sol\":1748:1762  previousStatus */\n      dup3\n        /* \"contracts/Voting.sol\":1764:1773  newStatus */\n      dup3\n        /* \"contracts/Voting.sol\":1727:1774  WorkflowStatusChange(previousStatus, newStatus) */\n      mload(0x40)\n      tag_82\n      swap3\n      swap2\n      swap1\n      tag_83\n      jump\t// in\n    tag_82:\n      mload(0x40)\n      dup1\n      swap2\n      sub\n      swap1\n      log1\n        /* \"contracts/Voting.sol\":1347:1782  { //Definis le status à l'etape suivante... */\n      pop\n      pop\n        /* \"contracts/Voting.sol\":1303:1782  function nextVotingStatus() public onlyOwner{ //Definis le status à l'etape suivante... */\n      jump\t// out\n        /* \"https://github.com/OpenZeppelin/openzeppelin-contracts/blob/master/contracts/access/Ownable.sol\":2293:2394  function renounceOwnership() public virtual onlyOwner {... */\n    tag_22:\n        /* \"https://github.com/OpenZeppelin/openzeppelin-contracts/blob/master/contracts/access/Ownable.sol\":1531:1544  _checkOwner() */\n      tag_85\n        /* \"https://github.com/OpenZeppelin/openzeppelin-contracts/blob/master/contracts/access/Ownable.sol\":1531:1542  _checkOwner */\n      tag_63\n        /* \"https://github.com/OpenZeppelin/openzeppelin-contracts/blob/master/contracts/access/Ownable.sol\":1531:1544  _checkOwner() */\n      jump\t// in\n    tag_85:\n        /* \"https://github.com/OpenZeppelin/openzeppelin-contracts/blob/master/contracts/access/Ownable.sol\":2357:2387  _transferOwnership(address(0)) */\n      tag_87\n        /* \"https://github.com/OpenZeppelin/openzeppelin-contracts/blob/master/contracts/access/Ownable.sol\":2384:2385  0 */\n      0x00\n        /* \"https://github.com/OpenZeppelin/openzeppelin-contracts/blob/master/contracts/access/Ownable.sol\":2357:2375  _transferOwnership */\n      tag_88\n        /* \"https://github.com/OpenZeppelin/openzeppelin-contracts/blob/master/contracts/access/Ownable.sol\":2357:2387  _transferOwnership(address(0)) */\n      jump\t// in\n    tag_87:\n        /* \"https://github.com/OpenZeppelin/openzeppelin-contracts/blob/master/contracts/access/Ownable.sol\":2293:2394  function renounceOwnership() public virtual onlyOwner {... */\n      jump\t// out\n        /* \"https://github.com/OpenZeppelin/openzeppelin-contracts/blob/master/contracts/access/Ownable.sol\":1638:1723  function owner() public view virtual returns (address) {... */\n    tag_24:\n        /* \"https://github.com/OpenZeppelin/openzeppelin-contracts/blob/master/contracts/access/Ownable.sol\":1684:1691  address */\n      0x00\n        /* \"https://github.com/OpenZeppelin/openzeppelin-contracts/blob/master/contracts/access/Ownable.sol\":1710:1716  _owner */\n      0x00\n      0x00\n      swap1\n      sload\n      swap1\n      0x0100\n      exp\n      swap1\n      div\n      0xffffffffffffffffffffffffffffffffffffffff\n      and\n        /* \"https://github.com/OpenZeppelin/openzeppelin-contracts/blob/master/contracts/access/Ownable.sol\":1703:1716  return _owner */\n      swap1\n      pop\n        /* \"https://github.com/OpenZeppelin/openzeppelin-contracts/blob/master/contracts/access/Ownable.sol\":1638:1723  function owner() public view virtual returns (address) {... */\n      swap1\n      jump\t// out\n        /* \"contracts/Voting.sol\":4380:5541  function getWinner () external onlyOwner{... */\n    tag_28:\n        /* \"https://github.com/OpenZeppelin/openzeppelin-contracts/blob/master/contracts/access/Ownable.sol\":1531:1544  _checkOwner() */\n      tag_91\n        /* \"https://github.com/OpenZeppelin/openzeppelin-contracts/blob/master/contracts/access/Ownable.sol\":1531:1542  _checkOwner */\n      tag_63\n        /* \"https://github.com/OpenZeppelin/openzeppelin-contracts/blob/master/contracts/access/Ownable.sol\":1531:1544  _checkOwner() */\n      jump\t// in\n    tag_91:\n        /* \"contracts/Voting.sol\":4446:4473  WorkflowStatus.VotesTallied */\n      0x05\n        /* \"contracts/Voting.sol\":4438:4473  state ==WorkflowStatus.VotesTallied */\n      dup1\n      dup2\n      gt\n      iszero\n      tag_93\n      jumpi\n      tag_94\n      tag_67\n      jump\t// in\n    tag_94:\n    tag_93:\n        /* \"contracts/Voting.sol\":4438:4443  state */\n      0x00\n      0x14\n      swap1\n      sload\n      swap1\n      0x0100\n      exp\n      swap1\n      div\n      0xff\n      and\n        /* \"contracts/Voting.sol\":4438:4473  state ==WorkflowStatus.VotesTallied */\n      0x05\n      dup2\n      gt\n      iszero\n      tag_95\n      jumpi\n      tag_96\n      tag_67\n      jump\t// in\n    tag_96:\n    tag_95:\n      eq\n        /* \"contracts/Voting.sol\":4430:4525  require(state ==WorkflowStatus.VotesTallied,\"Votes must be tailed before annoncing the winner\") */\n      tag_97\n      jumpi\n      mload(0x40)\n      0x08c379a000000000000000000000000000000000000000000000000000000000\n      dup2\n      mstore\n      0x04\n      add\n      tag_98\n      swap1\n      tag_99\n      jump\t// in\n    tag_98:\n      mload(0x40)\n      dup1\n      swap2\n      sub\n      swap1\n      revert\n    tag_97:\n        /* \"contracts/Voting.sol\":4560:4561  0 */\n      0x00\n        /* \"contracts/Voting.sol\":4543:4552  proposals */\n      0x03\n        /* \"contracts/Voting.sol\":4543:4559  proposals.length */\n      dup1\n      sload\n      swap1\n      pop\n        /* \"contracts/Voting.sol\":4543:4561  proposals.length>0 */\n      gt\n        /* \"contracts/Voting.sol\":4535:4587  require(proposals.length>0,\"No proposals available\") */\n      tag_100\n      jumpi\n      mload(0x40)\n      0x08c379a000000000000000000000000000000000000000000000000000000000\n      dup2\n      mstore\n      0x04\n      add\n      tag_101\n      swap1\n      tag_102\n      jump\t// in\n    tag_101:\n      mload(0x40)\n      dup1\n      swap2\n      sub\n      swap1\n      revert\n    tag_100:\n        /* \"contracts/Voting.sol\":4598:4619  uint winningVoteCount */\n      0x00\n        /* \"contracts/Voting.sol\":4622:4623  0 */\n      0x00\n        /* \"contracts/Voting.sol\":4598:4623  uint winningVoteCount = 0 */\n      swap1\n      pop\n        /* \"contracts/Voting.sol\":4640:4647  winners */\n      0x05\n      0x00\n        /* \"contracts/Voting.sol\":4633:4647  delete winners */\n      tag_103\n      swap2\n      swap1\n      tag_104\n      jump\t// in\n    tag_103:\n        /* \"contracts/Voting.sol\":4708:4714  uint i */\n      0x00\n        /* \"contracts/Voting.sol\":4715:4716  0 */\n      0x00\n        /* \"contracts/Voting.sol\":4708:4716  uint i=0 */\n      swap1\n      pop\n        /* \"contracts/Voting.sol\":4703:4926  for (uint i=0;i<proposals.length;i++){ //cherche la valeur de votes la plus hautes.... */\n    tag_105:\n        /* \"contracts/Voting.sol\":4719:4728  proposals */\n      0x03\n        /* \"contracts/Voting.sol\":4719:4735  proposals.length */\n      dup1\n      sload\n      swap1\n      pop\n        /* \"contracts/Voting.sol\":4717:4718  i */\n      dup2\n        /* \"contracts/Voting.sol\":4717:4735  i<proposals.length */\n      lt\n        /* \"contracts/Voting.sol\":4703:4926  for (uint i=0;i<proposals.length;i++){ //cherche la valeur de votes la plus hautes.... */\n      iszero\n      tag_106\n      jumpi\n        /* \"contracts/Voting.sol\":4825:4841  winningVoteCount */\n      dup2\n        /* \"contracts/Voting.sol\":4802:4811  proposals */\n      0x03\n        /* \"contracts/Voting.sol\":4812:4813  i */\n      dup3\n        /* \"contracts/Voting.sol\":4802:4814  proposals[i] */\n      dup2\n      sload\n      dup2\n      lt\n      tag_108\n      jumpi\n      tag_109\n      tag_110\n      jump\t// in\n    tag_109:\n    tag_108:\n      swap1\n      0x00\n      mstore\n      keccak256(0x00, 0x20)\n      swap1\n      0x02\n      mul\n      add\n        /* \"contracts/Voting.sol\":4802:4824  proposals[i].voteCount */\n      0x01\n      add\n      sload\n        /* \"contracts/Voting.sol\":4802:4841  proposals[i].voteCount>winningVoteCount */\n      gt\n        /* \"contracts/Voting.sol\":4799:4916  if(proposals[i].voteCount>winningVoteCount){... */\n      iszero\n      tag_112\n      jumpi\n        /* \"contracts/Voting.sol\":4879:4888  proposals */\n      0x03\n        /* \"contracts/Voting.sol\":4889:4890  i */\n      dup2\n        /* \"contracts/Voting.sol\":4879:4891  proposals[i] */\n      dup2\n      sload\n      dup2\n      lt\n      tag_113\n      jumpi\n      tag_114\n      tag_110\n      jump\t// in\n    tag_114:\n    tag_113:\n      swap1\n      0x00\n      mstore\n      keccak256(0x00, 0x20)\n      swap1\n      0x02\n      mul\n      add\n        /* \"contracts/Voting.sol\":4879:4901  proposals[i].voteCount */\n      0x01\n      add\n      sload\n        /* \"contracts/Voting.sol\":4860:4901  winningVoteCount = proposals[i].voteCount */\n      swap2\n      pop\n        /* \"contracts/Voting.sol\":4799:4916  if(proposals[i].voteCount>winningVoteCount){... */\n    tag_112:\n        /* \"contracts/Voting.sol\":4736:4739  i++ */\n      dup1\n      dup1\n      0x01\n      add\n      swap2\n      pop\n      pop\n        /* \"contracts/Voting.sol\":4703:4926  for (uint i=0;i<proposals.length;i++){ //cherche la valeur de votes la plus hautes.... */\n      jump(tag_105)\n    tag_106:\n      pop\n        /* \"contracts/Voting.sol\":4978:4984  uint i */\n      0x00\n        /* \"contracts/Voting.sol\":4985:4986  0 */\n      0x00\n        /* \"contracts/Voting.sol\":4978:4986  uint i=0 */\n      swap1\n      pop\n        /* \"contracts/Voting.sol\":4973:5213  for (uint i=0; i<proposals.length; i++){ //Compte le nombre de proposition avec la valeur de vote les plus haute... */\n    tag_116:\n        /* \"contracts/Voting.sol\":4990:4999  proposals */\n      0x03\n        /* \"contracts/Voting.sol\":4990:5006  proposals.length */\n      dup1\n      sload\n      swap1\n      pop\n        /* \"contracts/Voting.sol\":4988:4989  i */\n      dup2\n        /* \"contracts/Voting.sol\":4988:5006  i<proposals.length */\n      lt\n        /* \"contracts/Voting.sol\":4973:5213  for (uint i=0; i<proposals.length; i++){ //Compte le nombre de proposition avec la valeur de vote les plus haute... */\n      iszero\n      tag_117\n      jumpi\n        /* \"contracts/Voting.sol\":5127:5143  winningVoteCount */\n      dup2\n        /* \"contracts/Voting.sol\":5101:5110  proposals */\n      0x03\n        /* \"contracts/Voting.sol\":5111:5112  i */\n      dup3\n        /* \"contracts/Voting.sol\":5101:5113  proposals[i] */\n      dup2\n      sload\n      dup2\n      lt\n      tag_119\n      jumpi\n      tag_120\n      tag_110\n      jump\t// in\n    tag_120:\n    tag_119:\n      swap1\n      0x00\n      mstore\n      keccak256(0x00, 0x20)\n      swap1\n      0x02\n      mul\n      add\n        /* \"contracts/Voting.sol\":5101:5123  proposals[i].voteCount */\n      0x01\n      add\n      sload\n        /* \"contracts/Voting.sol\":5101:5143  proposals[i].voteCount == winningVoteCount */\n      sub\n        /* \"contracts/Voting.sol\":5098:5203  if(proposals[i].voteCount == winningVoteCount){... */\n      tag_122\n      jumpi\n        /* \"contracts/Voting.sol\":5162:5169  winners */\n      0x05\n        /* \"contracts/Voting.sol\":5175:5184  proposals */\n      0x03\n        /* \"contracts/Voting.sol\":5185:5186  i */\n      dup3\n        /* \"contracts/Voting.sol\":5175:5187  proposals[i] */\n      dup2\n      sload\n      dup2\n      lt\n      tag_123\n      jumpi\n      tag_124\n      tag_110\n      jump\t// in\n    tag_124:\n    tag_123:\n      swap1\n      0x00\n      mstore\n      keccak256(0x00, 0x20)\n      swap1\n      0x02\n      mul\n      add\n        /* \"contracts/Voting.sol\":5162:5188  winners.push(proposals[i]) */\n      swap1\n      dup1\n      0x01\n      dup2\n      sload\n      add\n      dup1\n      dup3\n      sstore\n      dup1\n      swap2\n      pop\n      pop\n      0x01\n      swap1\n      sub\n      swap1\n      0x00\n      mstore\n      keccak256(0x00, 0x20)\n      swap1\n      0x02\n      mul\n      add\n      0x00\n      swap1\n      swap2\n      swap1\n      swap2\n      swap1\n      swap2\n      pop\n      0x00\n      dup3\n      add\n      dup2\n      0x00\n      add\n      swap1\n      dup2\n      tag_127\n      swap2\n      swap1\n      tag_128\n      jump\t// in\n    tag_127:\n      pop\n      0x01\n      dup3\n      add\n      sload\n      dup2\n      0x01\n      add\n      sstore\n      pop\n      pop\n        /* \"contracts/Voting.sol\":5098:5203  if(proposals[i].voteCount == winningVoteCount){... */\n    tag_122:\n        /* \"contracts/Voting.sol\":5008:5011  i++ */\n      dup1\n      dup1\n      0x01\n      add\n      swap2\n      pop\n      pop\n        /* \"contracts/Voting.sol\":4973:5213  for (uint i=0; i<proposals.length; i++){ //Compte le nombre de proposition avec la valeur de vote les plus haute... */\n      jump(tag_116)\n    tag_117:\n      pop\n        /* \"contracts/Voting.sol\":4420:5541  {... */\n      pop\n        /* \"contracts/Voting.sol\":4380:5541  function getWinner () external onlyOwner{... */\n      jump\t// out\n        /* \"contracts/Voting.sol\":5547:5693  function checkWinner()external view returns(Proposal[] memory){... */\n    tag_30:\n        /* \"contracts/Voting.sol\":5591:5608  Proposal[] memory */\n      0x60\n        /* \"contracts/Voting.sol\":5644:5645  0 */\n      0x00\n        /* \"contracts/Voting.sol\":5627:5636  proposals */\n      0x03\n        /* \"contracts/Voting.sol\":5627:5643  proposals.length */\n      dup1\n      sload\n      swap1\n      pop\n        /* \"contracts/Voting.sol\":5627:5645  proposals.length>0 */\n      gt\n        /* \"contracts/Voting.sol\":5619:5662  require(proposals.length>0,\"No winner yet\") */\n      tag_130\n      jumpi\n      mload(0x40)\n      0x08c379a000000000000000000000000000000000000000000000000000000000\n      dup2\n      mstore\n      0x04\n      add\n      tag_131\n      swap1\n      tag_132\n      jump\t// in\n    tag_131:\n      mload(0x40)\n      dup1\n      swap2\n      sub\n      swap1\n      revert\n    tag_130:\n        /* \"contracts/Voting.sol\":5679:5686  winners */\n      0x05\n        /* \"contracts/Voting.sol\":5672:5686  return winners */\n      dup1\n      sload\n      dup1\n      0x20\n      mul\n      0x20\n      add\n      mload(0x40)\n      swap1\n      dup2\n      add\n      0x40\n      mstore\n      dup1\n      swap3\n      swap2\n      swap1\n      dup2\n      dup2\n      mstore\n      0x20\n      add\n      0x00\n      swap1\n    tag_133:\n      dup3\n      dup3\n      lt\n      iszero\n      tag_134\n      jumpi\n      dup4\n      dup3\n      swap1\n      0x00\n      mstore\n      keccak256(0x00, 0x20)\n      swap1\n      0x02\n      mul\n      add\n      mload(0x40)\n      dup1\n      0x40\n      add\n      0x40\n      mstore\n      swap1\n      dup2\n      0x00\n      dup3\n      add\n      dup1\n      sload\n      tag_136\n      swap1\n      tag_56\n      jump\t// in\n    tag_136:\n      dup1\n      0x1f\n      add\n      0x20\n      dup1\n      swap2\n      div\n      mul\n      0x20\n      add\n      mload(0x40)\n      swap1\n      dup2\n      add\n      0x40\n      mstore\n      dup1\n      swap3\n      swap2\n      swap1\n      dup2\n      dup2\n      mstore\n      0x20\n      add\n      dup3\n      dup1\n      sload\n      tag_137\n      swap1\n      tag_56\n      jump\t// in\n    tag_137:\n      dup1\n      iszero\n      tag_138\n      jumpi\n      dup1\n      0x1f\n      lt\n      tag_139\n      jumpi\n      0x0100\n      dup1\n      dup4\n      sload\n      div\n      mul\n      dup4\n      mstore\n      swap2\n      0x20\n      add\n      swap2\n      jump(tag_138)\n    tag_139:\n      dup3\n      add\n      swap2\n      swap1\n      0x00\n      mstore\n      keccak256(0x00, 0x20)\n      swap1\n    tag_140:\n      dup2\n      sload\n      dup2\n      mstore\n      swap1\n      0x01\n      add\n      swap1\n      0x20\n      add\n      dup1\n      dup4\n      gt\n      tag_140\n      jumpi\n      dup3\n      swap1\n      sub\n      0x1f\n      and\n      dup3\n      add\n      swap2\n    tag_138:\n      pop\n      pop\n      pop\n      pop\n      pop\n      dup2\n      mstore\n      0x20\n      add\n      0x01\n      dup3\n      add\n      sload\n      dup2\n      mstore\n      pop\n      pop\n      dup2\n      mstore\n      0x20\n      add\n      swap1\n      0x01\n      add\n      swap1\n      jump(tag_133)\n    tag_134:\n      pop\n      pop\n      pop\n      pop\n      swap1\n      pop\n        /* \"contracts/Voting.sol\":5547:5693  function checkWinner()external view returns(Proposal[] memory){... */\n      swap1\n      jump\t// out\n        /* \"contracts/Voting.sol\":3425:3521  function getProposalCount() external view returns (uint){... */\n    tag_33:\n        /* \"contracts/Voting.sol\":3476:3480  uint */\n      0x00\n        /* \"contracts/Voting.sol\":3498:3507  proposals */\n      0x03\n        /* \"contracts/Voting.sol\":3498:3514  proposals.length */\n      dup1\n      sload\n      swap1\n      pop\n        /* \"contracts/Voting.sol\":3491:3514  return proposals.length */\n      swap1\n      pop\n        /* \"contracts/Voting.sol\":3425:3521  function getProposalCount() external view returns (uint){... */\n      swap1\n      jump\t// out\n        /* \"contracts/Voting.sol\":1864:2640  function _whitelist(address _address) public onlyOwner{... */\n    tag_39:\n        /* \"https://github.com/OpenZeppelin/openzeppelin-contracts/blob/master/contracts/access/Ownable.sol\":1531:1544  _checkOwner() */\n      tag_143\n        /* \"https://github.com/OpenZeppelin/openzeppelin-contracts/blob/master/contracts/access/Ownable.sol\":1531:1542  _checkOwner */\n      tag_63\n        /* \"https://github.com/OpenZeppelin/openzeppelin-contracts/blob/master/contracts/access/Ownable.sol\":1531:1544  _checkOwner() */\n      jump\t// in\n    tag_143:\n        /* \"contracts/Voting.sol\":1945:1977  WorkflowStatus.RegisteringVoters */\n      0x00\n        /* \"contracts/Voting.sol\":1936:1977  state == WorkflowStatus.RegisteringVoters */\n      0x05\n      dup2\n      gt\n      iszero\n      tag_145\n      jumpi\n      tag_146\n      tag_67\n      jump\t// in\n    tag_146:\n    tag_145:\n        /* \"contracts/Voting.sol\":1936:1941  state */\n      0x00\n      0x14\n      swap1\n      sload\n      swap1\n      0x0100\n      exp\n      swap1\n      div\n      0xff\n      and\n        /* \"contracts/Voting.sol\":1936:1977  state == WorkflowStatus.RegisteringVoters */\n      0x05\n      dup2\n      gt\n      iszero\n      tag_147\n      jumpi\n      tag_148\n      tag_67\n      jump\t// in\n    tag_148:\n    tag_147:\n      eq\n        /* \"contracts/Voting.sol\":1928:2030  require(state == WorkflowStatus.RegisteringVoters,\"Address can be added only in Registration phase:0\") */\n      tag_149\n      jumpi\n      mload(0x40)\n      0x08c379a000000000000000000000000000000000000000000000000000000000\n      dup2\n      mstore\n      0x04\n      add\n      tag_150\n      swap1\n      tag_151\n      jump\t// in\n    tag_150:\n      mload(0x40)\n      dup1\n      swap2\n      sub\n      swap1\n      revert\n    tag_149:\n        /* \"contracts/Voting.sol\":2122:2131  whitelist */\n      0x01\n        /* \"contracts/Voting.sol\":2122:2141  whitelist[_address] */\n      0x00\n        /* \"contracts/Voting.sol\":2132:2140  _address */\n      dup3\n        /* \"contracts/Voting.sol\":2122:2141  whitelist[_address] */\n      0xffffffffffffffffffffffffffffffffffffffff\n      and\n      0xffffffffffffffffffffffffffffffffffffffff\n      and\n      dup2\n      mstore\n      0x20\n      add\n      swap1\n      dup2\n      mstore\n      0x20\n      add\n      0x00\n      keccak256\n      0x00\n      swap1\n      sload\n      swap1\n      0x0100\n      exp\n      swap1\n      div\n      0xff\n      and\n        /* \"contracts/Voting.sol\":2121:2141  !whitelist[_address] */\n      iszero\n        /* \"contracts/Voting.sol\":2113:2171  require(!whitelist[_address],\"Address already registered\") */\n      tag_152\n      jumpi\n      mload(0x40)\n      0x08c379a000000000000000000000000000000000000000000000000000000000\n      dup2\n      mstore\n      0x04\n      add\n      tag_153\n      swap1\n      tag_154\n      jump\t// in\n    tag_153:\n      mload(0x40)\n      dup1\n      swap2\n      sub\n      swap1\n      revert\n    tag_152:\n        /* \"contracts/Voting.sol\":2256:2365  Voter({... */\n      mload(0x40)\n      dup1\n      0x60\n      add\n      0x40\n      mstore\n      dup1\n        /* \"contracts/Voting.sol\":2289:2293  true */\n      0x01\n        /* \"contracts/Voting.sol\":2256:2365  Voter({... */\n      iszero\n      iszero\n      dup2\n      mstore\n      0x20\n      add\n        /* \"contracts/Voting.sol\":2317:2322  false */\n      0x00\n        /* \"contracts/Voting.sol\":2256:2365  Voter({... */\n      iszero\n      iszero\n      dup2\n      mstore\n      0x20\n      add\n        /* \"contracts/Voting.sol\":2353:2354  0 */\n      0x00\n        /* \"contracts/Voting.sol\":2256:2365  Voter({... */\n      dup2\n      mstore\n      pop\n        /* \"contracts/Voting.sol\":2238:2244  voters */\n      0x02\n        /* \"contracts/Voting.sol\":2238:2254  voters[_address] */\n      0x00\n        /* \"contracts/Voting.sol\":2245:2253  _address */\n      dup4\n        /* \"contracts/Voting.sol\":2238:2254  voters[_address] */\n      0xffffffffffffffffffffffffffffffffffffffff\n      and\n      0xffffffffffffffffffffffffffffffffffffffff\n      and\n      dup2\n      mstore\n      0x20\n      add\n      swap1\n      dup2\n      mstore\n      0x20\n      add\n      0x00\n      keccak256\n        /* \"contracts/Voting.sol\":2238:2365  voters[_address]= Voter({... */\n      0x00\n      dup3\n      add\n      mload\n      dup2\n      0x00\n      add\n      exp(0x0100, 0x00)\n      dup2\n      sload\n      dup2\n      0xff\n      mul\n      not\n      and\n      swap1\n      dup4\n      iszero\n      iszero\n      mul\n      or\n      swap1\n      sstore\n      pop\n      0x20\n      dup3\n      add\n      mload\n      dup2\n      0x00\n      add\n      exp(0x0100, 0x01)\n      dup2\n      sload\n      dup2\n      0xff\n      mul\n      not\n      and\n      swap1\n      dup4\n      iszero\n      iszero\n      mul\n      or\n      swap1\n      sstore\n      pop\n      0x40\n      dup3\n      add\n      mload\n      dup2\n      0x01\n      add\n      sstore\n      swap1\n      pop\n      pop\n        /* \"contracts/Voting.sol\":2395:2399  true */\n      0x01\n        /* \"contracts/Voting.sol\":2375:2384  whitelist */\n      dup1\n        /* \"contracts/Voting.sol\":2375:2394  whitelist[_address] */\n      0x00\n        /* \"contracts/Voting.sol\":2385:2393  _address */\n      dup4\n        /* \"contracts/Voting.sol\":2375:2394  whitelist[_address] */\n      0xffffffffffffffffffffffffffffffffffffffff\n      and\n      0xffffffffffffffffffffffffffffffffffffffff\n      and\n      dup2\n      mstore\n      0x20\n      add\n      swap1\n      dup2\n      mstore\n      0x20\n      add\n      0x00\n      keccak256\n      0x00\n        /* \"contracts/Voting.sol\":2375:2399  whitelist[_address]=true */\n      0x0100\n      exp\n      dup2\n      sload\n      dup2\n      0xff\n      mul\n      not\n      and\n      swap1\n      dup4\n      iszero\n      iszero\n      mul\n      or\n      swap1\n      sstore\n      pop\n        /* \"contracts/Voting.sol\":2462:2476  whitelistCount */\n      0x04\n      0x00\n        /* \"contracts/Voting.sol\":2462:2478  whitelistCount++ */\n      dup2\n      sload\n      dup1\n      swap3\n      swap2\n      swap1\n      tag_155\n      swap1\n      tag_156\n      jump\t// in\n    tag_155:\n      swap2\n      swap1\n      pop\n      sstore\n      pop\n        /* \"contracts/Voting.sol\":2561:2586  VoterRegistered(_address) */\n      0xb6be2187d059cc2a55fe29e0e503b566e1e0f8c8780096e185429350acffd3dd\n        /* \"contracts/Voting.sol\":2577:2585  _address */\n      dup2\n        /* \"contracts/Voting.sol\":2561:2586  VoterRegistered(_address) */\n      mload(0x40)\n      tag_157\n      swap2\n      swap1\n      tag_26\n      jump\t// in\n    tag_157:\n      mload(0x40)\n      dup1\n      swap2\n      sub\n      swap1\n      log1\n        /* \"contracts/Voting.sol\":1864:2640  function _whitelist(address _address) public onlyOwner{... */\n      pop\n      jump\t// out\n        /* \"contracts/Voting.sol\":3636:4375  function Vote(uint _choice ) external {... */\n    tag_43:\n        /* \"contracts/Voting.sol\":3701:3736  WorkflowStatus.VotingSessionStarted */\n      0x03\n        /* \"contracts/Voting.sol\":3692:3736  state == WorkflowStatus.VotingSessionStarted */\n      0x05\n      dup2\n      gt\n      iszero\n      tag_159\n      jumpi\n      tag_160\n      tag_67\n      jump\t// in\n    tag_160:\n    tag_159:\n        /* \"contracts/Voting.sol\":3692:3697  state */\n      0x00\n      0x14\n      swap1\n      sload\n      swap1\n      0x0100\n      exp\n      swap1\n      div\n      0xff\n      and\n        /* \"contracts/Voting.sol\":3692:3736  state == WorkflowStatus.VotingSessionStarted */\n      0x05\n      dup2\n      gt\n      iszero\n      tag_161\n      jumpi\n      tag_162\n      tag_67\n      jump\t// in\n    tag_162:\n    tag_161:\n      eq\n        /* \"contracts/Voting.sol\":3684:3780  require(state == WorkflowStatus.VotingSessionStarted,\"Votes can be done only in voting phase:3\") */\n      tag_163\n      jumpi\n      mload(0x40)\n      0x08c379a000000000000000000000000000000000000000000000000000000000\n      dup2\n      mstore\n      0x04\n      add\n      tag_164\n      swap1\n      tag_165\n      jump\t// in\n    tag_164:\n      mload(0x40)\n      dup1\n      swap2\n      sub\n      swap1\n      revert\n    tag_163:\n        /* \"contracts/Voting.sol\":3879:3880  0 */\n      0x00\n        /* \"contracts/Voting.sol\":3862:3871  proposals */\n      0x03\n        /* \"contracts/Voting.sol\":3862:3878  proposals.length */\n      dup1\n      sload\n      swap1\n      pop\n        /* \"contracts/Voting.sol\":3862:3880  proposals.length>0 */\n      gt\n        /* \"contracts/Voting.sol\":3854:3955  require(proposals.length>0,\"You have to get at leat one proposal in order to proceed a voting phase\") */\n      tag_166\n      jumpi\n      mload(0x40)\n      0x08c379a000000000000000000000000000000000000000000000000000000000\n      dup2\n      mstore\n      0x04\n      add\n      tag_167\n      swap1\n      tag_168\n      jump\t// in\n    tag_167:\n      mload(0x40)\n      dup1\n      swap2\n      sub\n      swap1\n      revert\n    tag_166:\n        /* \"contracts/Voting.sol\":3973:3979  voters */\n      0x02\n        /* \"contracts/Voting.sol\":3973:3991  voters[msg.sender] */\n      0x00\n        /* \"contracts/Voting.sol\":3980:3990  msg.sender */\n      caller\n        /* \"contracts/Voting.sol\":3973:3991  voters[msg.sender] */\n      0xffffffffffffffffffffffffffffffffffffffff\n      and\n      0xffffffffffffffffffffffffffffffffffffffff\n      and\n      dup2\n      mstore\n      0x20\n      add\n      swap1\n      dup2\n      mstore\n      0x20\n      add\n      0x00\n      keccak256\n        /* \"contracts/Voting.sol\":3973:4004  voters[msg.sender].isRegistered */\n      0x00\n      add\n      0x00\n      swap1\n      sload\n      swap1\n      0x0100\n      exp\n      swap1\n      div\n      0xff\n      and\n        /* \"contracts/Voting.sol\":3965:4041  require(voters[msg.sender].isRegistered, \"You ar not registered as a voter\") */\n      tag_169\n      jumpi\n      mload(0x40)\n      0x08c379a000000000000000000000000000000000000000000000000000000000\n      dup2\n      mstore\n      0x04\n      add\n      tag_170\n      swap1\n      tag_171\n      jump\t// in\n    tag_170:\n      mload(0x40)\n      dup1\n      swap2\n      sub\n      swap1\n      revert\n    tag_169:\n        /* \"contracts/Voting.sol\":4060:4066  voters */\n      0x02\n        /* \"contracts/Voting.sol\":4060:4078  voters[msg.sender] */\n      0x00\n        /* \"contracts/Voting.sol\":4067:4077  msg.sender */\n      caller\n        /* \"contracts/Voting.sol\":4060:4078  voters[msg.sender] */\n      0xffffffffffffffffffffffffffffffffffffffff\n      and\n      0xffffffffffffffffffffffffffffffffffffffff\n      and\n      dup2\n      mstore\n      0x20\n      add\n      swap1\n      dup2\n      mstore\n      0x20\n      add\n      0x00\n      keccak256\n        /* \"contracts/Voting.sol\":4060:4087  voters[msg.sender].hasVoted */\n      0x00\n      add\n      0x01\n      swap1\n      sload\n      swap1\n      0x0100\n      exp\n      swap1\n      div\n      0xff\n      and\n        /* \"contracts/Voting.sol\":4059:4087  !voters[msg.sender].hasVoted */\n      iszero\n        /* \"contracts/Voting.sol\":4051:4113  require(!voters[msg.sender].hasVoted,\"You have already voted\") */\n      tag_172\n      jumpi\n      mload(0x40)\n      0x08c379a000000000000000000000000000000000000000000000000000000000\n      dup2\n      mstore\n      0x04\n      add\n      tag_173\n      swap1\n      tag_174\n      jump\t// in\n    tag_173:\n      mload(0x40)\n      dup1\n      swap2\n      sub\n      swap1\n      revert\n    tag_172:\n        /* \"contracts/Voting.sol\":4141:4150  proposals */\n      0x03\n        /* \"contracts/Voting.sol\":4141:4157  proposals.length */\n      dup1\n      sload\n      swap1\n      pop\n        /* \"contracts/Voting.sol\":4131:4138  _choice */\n      dup2\n        /* \"contracts/Voting.sol\":4131:4157  _choice < proposals.length */\n      lt\n        /* \"contracts/Voting.sol\":4123:4184  require(_choice < proposals.length,\"Invalid proposal choice\") */\n      tag_175\n      jumpi\n      mload(0x40)\n      0x08c379a000000000000000000000000000000000000000000000000000000000\n      dup2\n      mstore\n      0x04\n      add\n      tag_176\n      swap1\n      tag_177\n      jump\t// in\n    tag_176:\n      mload(0x40)\n      dup1\n      swap2\n      sub\n      swap1\n      revert\n    tag_175:\n        /* \"contracts/Voting.sol\":4223:4227  true */\n      0x01\n        /* \"contracts/Voting.sol\":4195:4201  voters */\n      0x02\n        /* \"contracts/Voting.sol\":4195:4213  voters[msg.sender] */\n      0x00\n        /* \"contracts/Voting.sol\":4202:4212  msg.sender */\n      caller\n        /* \"contracts/Voting.sol\":4195:4213  voters[msg.sender] */\n      0xffffffffffffffffffffffffffffffffffffffff\n      and\n      0xffffffffffffffffffffffffffffffffffffffff\n      and\n      dup2\n      mstore\n      0x20\n      add\n      swap1\n      dup2\n      mstore\n      0x20\n      add\n      0x00\n      keccak256\n        /* \"contracts/Voting.sol\":4195:4222  voters[msg.sender].hasVoted */\n      0x00\n      add\n      0x01\n        /* \"contracts/Voting.sol\":4195:4227  voters[msg.sender].hasVoted=true */\n      0x0100\n      exp\n      dup2\n      sload\n      dup2\n      0xff\n      mul\n      not\n      and\n      swap1\n      dup4\n      iszero\n      iszero\n      mul\n      or\n      swap1\n      sstore\n      pop\n        /* \"contracts/Voting.sol\":4272:4279  _choice */\n      dup1\n        /* \"contracts/Voting.sol\":4237:4243  voters */\n      0x02\n        /* \"contracts/Voting.sol\":4237:4255  voters[msg.sender] */\n      0x00\n        /* \"contracts/Voting.sol\":4244:4254  msg.sender */\n      caller\n        /* \"contracts/Voting.sol\":4237:4255  voters[msg.sender] */\n      0xffffffffffffffffffffffffffffffffffffffff\n      and\n      0xffffffffffffffffffffffffffffffffffffffff\n      and\n      dup2\n      mstore\n      0x20\n      add\n      swap1\n      dup2\n      mstore\n      0x20\n      add\n      0x00\n      keccak256\n        /* \"contracts/Voting.sol\":4237:4271  voters[msg.sender].votedProposalId */\n      0x01\n      add\n        /* \"contracts/Voting.sol\":4237:4279  voters[msg.sender].votedProposalId=_choice */\n      dup2\n      swap1\n      sstore\n      pop\n        /* \"contracts/Voting.sol\":4289:4298  proposals */\n      0x03\n        /* \"contracts/Voting.sol\":4299:4306  _choice */\n      dup2\n        /* \"contracts/Voting.sol\":4289:4307  proposals[_choice] */\n      dup2\n      sload\n      dup2\n      lt\n      tag_178\n      jumpi\n      tag_179\n      tag_110\n      jump\t// in\n    tag_179:\n    tag_178:\n      swap1\n      0x00\n      mstore\n      keccak256(0x00, 0x20)\n      swap1\n      0x02\n      mul\n      add\n        /* \"contracts/Voting.sol\":4289:4317  proposals[_choice].voteCount */\n      0x01\n      add\n      0x00\n        /* \"contracts/Voting.sol\":4289:4319  proposals[_choice].voteCount++ */\n      dup2\n      sload\n      dup1\n      swap3\n      swap2\n      swap1\n      tag_181\n      swap1\n      tag_156\n      jump\t// in\n    tag_181:\n      swap2\n      swap1\n      pop\n      sstore\n      pop\n        /* \"contracts/Voting.sol\":4335:4360  Voted(msg.sender,_choice) */\n      0x4d99b957a2bc29a30ebd96a7be8e68fe50a3c701db28a91436490b7d53870ca4\n        /* \"contracts/Voting.sol\":4341:4351  msg.sender */\n      caller\n        /* \"contracts/Voting.sol\":4352:4359  _choice */\n      dup3\n        /* \"contracts/Voting.sol\":4335:4360  Voted(msg.sender,_choice) */\n      mload(0x40)\n      tag_182\n      swap3\n      swap2\n      swap1\n      tag_183\n      jump\t// in\n    tag_182:\n      mload(0x40)\n      dup1\n      swap2\n      sub\n      swap1\n      log1\n        /* \"contracts/Voting.sol\":3636:4375  function Vote(uint _choice ) external {... */\n      pop\n      jump\t// out\n        /* \"contracts/Voting.sol\":2789:3420  function _addProposal (string memory _description) external {... */\n    tag_47:\n        /* \"contracts/Voting.sol\":2876:2919  WorkflowStatus.ProposalsRegistrationStarted */\n      0x01\n        /* \"contracts/Voting.sol\":2867:2919  state == WorkflowStatus.ProposalsRegistrationStarted */\n      0x05\n      dup2\n      gt\n      iszero\n      tag_185\n      jumpi\n      tag_186\n      tag_67\n      jump\t// in\n    tag_186:\n    tag_185:\n        /* \"contracts/Voting.sol\":2867:2872  state */\n      0x00\n      0x14\n      swap1\n      sload\n      swap1\n      0x0100\n      exp\n      swap1\n      div\n      0xff\n      and\n        /* \"contracts/Voting.sol\":2867:2919  state == WorkflowStatus.ProposalsRegistrationStarted */\n      0x05\n      dup2\n      gt\n      iszero\n      tag_187\n      jumpi\n      tag_188\n      tag_67\n      jump\t// in\n    tag_188:\n    tag_187:\n      eq\n        /* \"contracts/Voting.sol\":2859:2982  require(state == WorkflowStatus.ProposalsRegistrationStarted,\"Proposal can be addes only in Proposal Registration phase:1\") */\n      tag_189\n      jumpi\n      mload(0x40)\n      0x08c379a000000000000000000000000000000000000000000000000000000000\n      dup2\n      mstore\n      0x04\n      add\n      tag_190\n      swap1\n      tag_191\n      jump\t// in\n    tag_190:\n      mload(0x40)\n      dup1\n      swap2\n      sub\n      swap1\n      revert\n    tag_189:\n        /* \"contracts/Voting.sol\":3088:3089  0 */\n      0x00\n        /* \"contracts/Voting.sol\":3073:3087  whitelistCount */\n      sload(0x04)\n        /* \"contracts/Voting.sol\":3073:3089  whitelistCount>0 */\n      gt\n        /* \"contracts/Voting.sol\":3065:3136  require(whitelistCount>0,\"Whitelist must contain at least one address\") */\n      tag_192\n      jumpi\n      mload(0x40)\n      0x08c379a000000000000000000000000000000000000000000000000000000000\n      dup2\n      mstore\n      0x04\n      add\n      tag_193\n      swap1\n      tag_194\n      jump\t// in\n    tag_193:\n      mload(0x40)\n      dup1\n      swap2\n      sub\n      swap1\n      revert\n    tag_192:\n        /* \"contracts/Voting.sol\":3154:3163  whitelist */\n      0x01\n        /* \"contracts/Voting.sol\":3154:3175  whitelist[msg.sender] */\n      0x00\n        /* \"contracts/Voting.sol\":3164:3174  msg.sender */\n      caller\n        /* \"contracts/Voting.sol\":3154:3175  whitelist[msg.sender] */\n      0xffffffffffffffffffffffffffffffffffffffff\n      and\n      0xffffffffffffffffffffffffffffffffffffffff\n      and\n      dup2\n      mstore\n      0x20\n      add\n      swap1\n      dup2\n      mstore\n      0x20\n      add\n      0x00\n      keccak256\n      0x00\n      swap1\n      sload\n      swap1\n      0x0100\n      exp\n      swap1\n      div\n      0xff\n      and\n        /* \"contracts/Voting.sol\":3146:3209  require(whitelist[msg.sender],\"Your adress is not whitelisted\") */\n      tag_195\n      jumpi\n      mload(0x40)\n      0x08c379a000000000000000000000000000000000000000000000000000000000\n      dup2\n      mstore\n      0x04\n      add\n      tag_196\n      swap1\n      tag_197\n      jump\t// in\n    tag_196:\n      mload(0x40)\n      dup1\n      swap2\n      sub\n      swap1\n      revert\n    tag_195:\n        /* \"contracts/Voting.sol\":3220:3229  proposals */\n      0x03\n        /* \"contracts/Voting.sol\":3235:3320  Proposal({... */\n      mload(0x40)\n      dup1\n      0x40\n      add\n      0x40\n      mstore\n      dup1\n        /* \"contracts/Voting.sol\":3271:3283  _description */\n      dup4\n        /* \"contracts/Voting.sol\":3235:3320  Proposal({... */\n      dup2\n      mstore\n      0x20\n      add\n        /* \"contracts/Voting.sol\":3307:3308  0 */\n      0x00\n        /* \"contracts/Voting.sol\":3235:3320  Proposal({... */\n      dup2\n      mstore\n      pop\n        /* \"contracts/Voting.sol\":3220:3321  proposals.push(Proposal({... */\n      swap1\n      dup1\n      0x01\n      dup2\n      sload\n      add\n      dup1\n      dup3\n      sstore\n      dup1\n      swap2\n      pop\n      pop\n      0x01\n      swap1\n      sub\n      swap1\n      0x00\n      mstore\n      keccak256(0x00, 0x20)\n      swap1\n      0x02\n      mul\n      add\n      0x00\n      swap1\n      swap2\n      swap1\n      swap2\n      swap1\n      swap2\n      pop\n      0x00\n      dup3\n      add\n      mload\n      dup2\n      0x00\n      add\n      swap1\n      dup2\n      tag_199\n      swap2\n      swap1\n      tag_200\n      jump\t// in\n    tag_199:\n      pop\n      0x20\n      dup3\n      add\n      mload\n      dup2\n      0x01\n      add\n      sstore\n      pop\n      pop\n        /* \"contracts/Voting.sol\":3331:3346  uint proposalId */\n      0x00\n        /* \"contracts/Voting.sol\":3366:3367  1 */\n      0x01\n        /* \"contracts/Voting.sol\":3349:3358  proposals */\n      0x03\n        /* \"contracts/Voting.sol\":3349:3365  proposals.length */\n      dup1\n      sload\n      swap1\n      pop\n        /* \"contracts/Voting.sol\":3349:3367  proposals.length-1 */\n      tag_201\n      swap2\n      swap1\n      tag_202\n      jump\t// in\n    tag_201:\n        /* \"contracts/Voting.sol\":3331:3367  uint proposalId = proposals.length-1 */\n      swap1\n      pop\n        /* \"contracts/Voting.sol\":3382:3412  ProposalRegistered(proposalId) */\n      0x92e393e9b54e2f801d3ea4beb0c5e71a21cc34a5d34b77d0fb8a3aa1650dc18f\n        /* \"contracts/Voting.sol\":3401:3411  proposalId */\n      dup2\n        /* \"contracts/Voting.sol\":3382:3412  ProposalRegistered(proposalId) */\n      mload(0x40)\n      tag_203\n      swap2\n      swap1\n      tag_35\n      jump\t// in\n    tag_203:\n      mload(0x40)\n      dup1\n      swap2\n      sub\n      swap1\n      log1\n        /* \"contracts/Voting.sol\":2849:3420  {... */\n      pop\n        /* \"contracts/Voting.sol\":2789:3420  function _addProposal (string memory _description) external {... */\n      pop\n      jump\t// out\n        /* \"https://github.com/OpenZeppelin/openzeppelin-contracts/blob/master/contracts/access/Ownable.sol\":2543:2758  function transferOwnership(address newOwner) public virtual onlyOwner {... */\n    tag_50:\n        /* \"https://github.com/OpenZeppelin/openzeppelin-contracts/blob/master/contracts/access/Ownable.sol\":1531:1544  _checkOwner() */\n      tag_205\n        /* \"https://github.com/OpenZeppelin/openzeppelin-contracts/blob/master/contracts/access/Ownable.sol\":1531:1542  _checkOwner */\n      tag_63\n        /* \"https://github.com/OpenZeppelin/openzeppelin-contracts/blob/master/contracts/access/Ownable.sol\":1531:1544  _checkOwner() */\n      jump\t// in\n    tag_205:\n        /* \"https://github.com/OpenZeppelin/openzeppelin-contracts/blob/master/contracts/access/Ownable.sol\":2647:2648  0 */\n      0x00\n        /* \"https://github.com/OpenZeppelin/openzeppelin-contracts/blob/master/contracts/access/Ownable.sol\":2627:2649  newOwner == address(0) */\n      0xffffffffffffffffffffffffffffffffffffffff\n      and\n        /* \"https://github.com/OpenZeppelin/openzeppelin-contracts/blob/master/contracts/access/Ownable.sol\":2627:2635  newOwner */\n      dup2\n        /* \"https://github.com/OpenZeppelin/openzeppelin-contracts/blob/master/contracts/access/Ownable.sol\":2627:2649  newOwner == address(0) */\n      0xffffffffffffffffffffffffffffffffffffffff\n      and\n      sub\n        /* \"https://github.com/OpenZeppelin/openzeppelin-contracts/blob/master/contracts/access/Ownable.sol\":2623:2714  if (newOwner == address(0)) {... */\n      tag_207\n      jumpi\n        /* \"https://github.com/OpenZeppelin/openzeppelin-contracts/blob/master/contracts/access/Ownable.sol\":2700:2701  0 */\n      0x00\n        /* \"https://github.com/OpenZeppelin/openzeppelin-contracts/blob/master/contracts/access/Ownable.sol\":2672:2703  OwnableInvalidOwner(address(0)) */\n      mload(0x40)\n      0x1e4fbdf700000000000000000000000000000000000000000000000000000000\n      dup2\n      mstore\n      0x04\n      add\n      tag_208\n      swap2\n      swap1\n      tag_26\n      jump\t// in\n    tag_208:\n      mload(0x40)\n      dup1\n      swap2\n      sub\n      swap1\n      revert\n        /* \"https://github.com/OpenZeppelin/openzeppelin-contracts/blob/master/contracts/access/Ownable.sol\":2623:2714  if (newOwner == address(0)) {... */\n    tag_207:\n        /* \"https://github.com/OpenZeppelin/openzeppelin-contracts/blob/master/contracts/access/Ownable.sol\":2723:2751  _transferOwnership(newOwner) */\n      tag_209\n        /* \"https://github.com/OpenZeppelin/openzeppelin-contracts/blob/master/contracts/access/Ownable.sol\":2742:2750  newOwner */\n      dup2\n        /* \"https://github.com/OpenZeppelin/openzeppelin-contracts/blob/master/contracts/access/Ownable.sol\":2723:2741  _transferOwnership */\n      tag_88\n        /* \"https://github.com/OpenZeppelin/openzeppelin-contracts/blob/master/contracts/access/Ownable.sol\":2723:2751  _transferOwnership(newOwner) */\n      jump\t// in\n    tag_209:\n        /* \"https://github.com/OpenZeppelin/openzeppelin-contracts/blob/master/contracts/access/Ownable.sol\":2543:2758  function transferOwnership(address newOwner) public virtual onlyOwner {... */\n      pop\n      jump\t// out\n        /* \"https://github.com/OpenZeppelin/openzeppelin-contracts/blob/master/contracts/access/Ownable.sol\":1796:1958  function _checkOwner() internal view virtual {... */\n    tag_63:\n        /* \"https://github.com/OpenZeppelin/openzeppelin-contracts/blob/master/contracts/access/Ownable.sol\":1866:1878  _msgSender() */\n      tag_211\n        /* \"https://github.com/OpenZeppelin/openzeppelin-contracts/blob/master/contracts/access/Ownable.sol\":1866:1876  _msgSender */\n      tag_212\n        /* \"https://github.com/OpenZeppelin/openzeppelin-contracts/blob/master/contracts/access/Ownable.sol\":1866:1878  _msgSender() */\n      jump\t// in\n    tag_211:\n        /* \"https://github.com/OpenZeppelin/openzeppelin-contracts/blob/master/contracts/access/Ownable.sol\":1855:1878  owner() != _msgSender() */\n      0xffffffffffffffffffffffffffffffffffffffff\n      and\n        /* \"https://github.com/OpenZeppelin/openzeppelin-contracts/blob/master/contracts/access/Ownable.sol\":1855:1862  owner() */\n      tag_213\n        /* \"https://github.com/OpenZeppelin/openzeppelin-contracts/blob/master/contracts/access/Ownable.sol\":1855:1860  owner */\n      tag_24\n        /* \"https://github.com/OpenZeppelin/openzeppelin-contracts/blob/master/contracts/access/Ownable.sol\":1855:1862  owner() */\n      jump\t// in\n    tag_213:\n        /* \"https://github.com/OpenZeppelin/openzeppelin-contracts/blob/master/contracts/access/Ownable.sol\":1855:1878  owner() != _msgSender() */\n      0xffffffffffffffffffffffffffffffffffffffff\n      and\n      eq\n        /* \"https://github.com/OpenZeppelin/openzeppelin-contracts/blob/master/contracts/access/Ownable.sol\":1851:1952  if (owner() != _msgSender()) {... */\n      tag_214\n      jumpi\n        /* \"https://github.com/OpenZeppelin/openzeppelin-contracts/blob/master/contracts/access/Ownable.sol\":1928:1940  _msgSender() */\n      tag_215\n        /* \"https://github.com/OpenZeppelin/openzeppelin-contracts/blob/master/contracts/access/Ownable.sol\":1928:1938  _msgSender */\n      tag_212\n        /* \"https://github.com/OpenZeppelin/openzeppelin-contracts/blob/master/contracts/access/Ownable.sol\":1928:1940  _msgSender() */\n      jump\t// in\n    tag_215:\n        /* \"https://github.com/OpenZeppelin/openzeppelin-contracts/blob/master/contracts/access/Ownable.sol\":1901:1941  OwnableUnauthorizedAccount(_msgSender()) */\n      mload(0x40)\n      0x118cdaa700000000000000000000000000000000000000000000000000000000\n      dup2\n      mstore\n      0x04\n      add\n      tag_216\n      swap2\n      swap1\n      tag_26\n      jump\t// in\n    tag_216:\n      mload(0x40)\n      dup1\n      swap2\n      sub\n      swap1\n      revert\n        /* \"https://github.com/OpenZeppelin/openzeppelin-contracts/blob/master/contracts/access/Ownable.sol\":1851:1952  if (owner() != _msgSender()) {... */\n    tag_214:\n        /* \"https://github.com/OpenZeppelin/openzeppelin-contracts/blob/master/contracts/access/Ownable.sol\":1796:1958  function _checkOwner() internal view virtual {... */\n      jump\t// out\n        /* \"https://github.com/OpenZeppelin/openzeppelin-contracts/blob/master/contracts/access/Ownable.sol\":2912:3099  function _transferOwnership(address newOwner) internal virtual {... */\n    tag_88:\n        /* \"https://github.com/OpenZeppelin/openzeppelin-contracts/blob/master/contracts/access/Ownable.sol\":2985:3001  address oldOwner */\n      0x00\n        /* \"https://github.com/OpenZeppelin/openzeppelin-contracts/blob/master/contracts/access/Ownable.sol\":3004:3010  _owner */\n      0x00\n      0x00\n      swap1\n      sload\n      swap1\n      0x0100\n      exp\n      swap1\n      div\n      0xffffffffffffffffffffffffffffffffffffffff\n      and\n        /* \"https://github.com/OpenZeppelin/openzeppelin-contracts/blob/master/contracts/access/Ownable.sol\":2985:3010  address oldOwner = _owner */\n      swap1\n      pop\n        /* \"https://github.com/OpenZeppelin/openzeppelin-contracts/blob/master/contracts/access/Ownable.sol\":3029:3037  newOwner */\n      dup2\n        /* \"https://github.com/OpenZeppelin/openzeppelin-contracts/blob/master/contracts/access/Ownable.sol\":3020:3026  _owner */\n      0x00\n      0x00\n        /* \"https://github.com/OpenZeppelin/openzeppelin-contracts/blob/master/contracts/access/Ownable.sol\":3020:3037  _owner = newOwner */\n      0x0100\n      exp\n      dup2\n      sload\n      dup2\n      0xffffffffffffffffffffffffffffffffffffffff\n      mul\n      not\n      and\n      swap1\n      dup4\n      0xffffffffffffffffffffffffffffffffffffffff\n      and\n      mul\n      or\n      swap1\n      sstore\n      pop\n        /* \"https://github.com/OpenZeppelin/openzeppelin-contracts/blob/master/contracts/access/Ownable.sol\":3083:3091  newOwner */\n      dup2\n        /* \"https://github.com/OpenZeppelin/openzeppelin-contracts/blob/master/contracts/access/Ownable.sol\":3052:3092  OwnershipTransferred(oldOwner, newOwner) */\n      0xffffffffffffffffffffffffffffffffffffffff\n      and\n        /* \"https://github.com/OpenZeppelin/openzeppelin-contracts/blob/master/contracts/access/Ownable.sol\":3073:3081  oldOwner */\n      dup2\n        /* \"https://github.com/OpenZeppelin/openzeppelin-contracts/blob/master/contracts/access/Ownable.sol\":3052:3092  OwnershipTransferred(oldOwner, newOwner) */\n      0xffffffffffffffffffffffffffffffffffffffff\n      and\n      0x8be0079c531659141344cd1fd0a4f28419497f9722a3daafe3b4186f6b6457e0\n      mload(0x40)\n      mload(0x40)\n      dup1\n      swap2\n      sub\n      swap1\n      log3\n        /* \"https://github.com/OpenZeppelin/openzeppelin-contracts/blob/master/contracts/access/Ownable.sol\":2975:3099  {... */\n      pop\n        /* \"https://github.com/OpenZeppelin/openzeppelin-contracts/blob/master/contracts/access/Ownable.sol\":2912:3099  function _transferOwnership(address newOwner) internal virtual {... */\n      pop\n      jump\t// out\n        /* \"https://github.com/OpenZeppelin/openzeppelin-contracts/blob/master/contracts/utils/Context.sol\":656:752  function _msgSender() internal view virtual returns (address) {... */\n    tag_212:\n        /* \"https://github.com/OpenZeppelin/openzeppelin-contracts/blob/master/contracts/utils/Context.sol\":709:716  address */\n      0x00\n        /* \"https://github.com/OpenZeppelin/openzeppelin-contracts/blob/master/contracts/utils/Context.sol\":735:745  msg.sender */\n      caller\n        /* \"https://github.com/OpenZeppelin/openzeppelin-contracts/blob/master/contracts/utils/Context.sol\":728:745  return msg.sender */\n      swap1\n      pop\n        /* \"https://github.com/OpenZeppelin/openzeppelin-contracts/blob/master/contracts/utils/Context.sol\":656:752  function _msgSender() internal view virtual returns (address) {... */\n      swap1\n      jump\t// out\n    tag_104:\n      pop\n      dup1\n      sload\n      0x00\n      dup3\n      sstore\n      0x02\n      mul\n      swap1\n      0x00\n      mstore\n      keccak256(0x00, 0x20)\n      swap1\n      dup2\n      add\n      swap1\n      tag_220\n      swap2\n      swap1\n      tag_221\n      jump\t// in\n    tag_220:\n      pop\n      jump\t// out\n    tag_221:\n    tag_222:\n      dup1\n      dup3\n      gt\n      iszero\n      tag_223\n      jumpi\n      0x00\n      0x00\n      dup3\n      add\n      0x00\n      tag_224\n      swap2\n      swap1\n      tag_225\n      jump\t// in\n    tag_224:\n      0x01\n      dup3\n      add\n      0x00\n      swap1\n      sstore\n      pop\n      0x02\n      add\n      jump(tag_222)\n    tag_223:\n      pop\n      swap1\n      jump\t// out\n    tag_225:\n      pop\n      dup1\n      sload\n      tag_226\n      swap1\n      tag_56\n      jump\t// in\n    tag_226:\n      0x00\n      dup3\n      sstore\n      dup1\n      0x1f\n      lt\n      tag_228\n      jumpi\n      pop\n      jump(tag_227)\n    tag_228:\n      0x1f\n      add\n      0x20\n      swap1\n      div\n      swap1\n      0x00\n      mstore\n      keccak256(0x00, 0x20)\n      swap1\n      dup2\n      add\n      swap1\n      tag_229\n      swap2\n      swap1\n      tag_230\n      jump\t// in\n    tag_229:\n    tag_227:\n      pop\n      jump\t// out\n    tag_230:\n    tag_231:\n      dup1\n      dup3\n      gt\n      iszero\n      tag_232\n      jumpi\n      0x00\n      dup2\n      0x00\n      swap1\n      sstore\n      pop\n      0x01\n      add\n      jump(tag_231)\n    tag_232:\n      pop\n      swap1\n      jump\t// out\n        /* \"#utility.yul\":7:145   */\n    tag_233:\n        /* \"#utility.yul\":98:104   */\n      0x00\n        /* \"#utility.yul\":132:137   */\n      dup2\n        /* \"#utility.yul\":126:138   */\n      mload\n        /* \"#utility.yul\":116:138   */\n      swap1\n      pop\n        /* \"#utility.yul\":7:145   */\n      swap2\n      swap1\n      pop\n      jump\t// out\n        /* \"#utility.yul\":151:359   */\n    tag_234:\n        /* \"#utility.yul\":274:285   */\n      0x00\n        /* \"#utility.yul\":308:314   */\n      dup3\n        /* \"#utility.yul\":303:306   */\n      dup3\n        /* \"#utility.yul\":296:315   */\n      mstore\n        /* \"#utility.yul\":348:352   */\n      0x20\n        /* \"#utility.yul\":343:346   */\n      dup3\n        /* \"#utility.yul\":339:353   */\n      add\n        /* \"#utility.yul\":324:353   */\n      swap1\n      pop\n        /* \"#utility.yul\":151:359   */\n      swap3\n      swap2\n      pop\n      pop\n      jump\t// out\n        /* \"#utility.yul\":365:521   */\n    tag_235:\n        /* \"#utility.yul\":456:460   */\n      0x00\n        /* \"#utility.yul\":479:482   */\n      dup2\n        /* \"#utility.yul\":471:482   */\n      swap1\n      pop\n        /* \"#utility.yul\":509:513   */\n      0x20\n        /* \"#utility.yul\":504:507   */\n      dup3\n        /* \"#utility.yul\":500:514   */\n      add\n        /* \"#utility.yul\":492:514   */\n      swap1\n      pop\n        /* \"#utility.yul\":365:521   */\n      swap2\n      swap1\n      pop\n      jump\t// out\n        /* \"#utility.yul\":527:626   */\n    tag_236:\n        /* \"#utility.yul\":579:585   */\n      0x00\n        /* \"#utility.yul\":613:618   */\n      dup2\n        /* \"#utility.yul\":607:619   */\n      mload\n        /* \"#utility.yul\":597:619   */\n      swap1\n      pop\n        /* \"#utility.yul\":527:626   */\n      swap2\n      swap1\n      pop\n      jump\t// out\n        /* \"#utility.yul\":632:791   */\n    tag_237:\n        /* \"#utility.yul\":706:717   */\n      0x00\n        /* \"#utility.yul\":740:746   */\n      dup3\n        /* \"#utility.yul\":735:738   */\n      dup3\n        /* \"#utility.yul\":728:747   */\n      mstore\n        /* \"#utility.yul\":780:784   */\n      0x20\n        /* \"#utility.yul\":775:778   */\n      dup3\n        /* \"#utility.yul\":771:785   */\n      add\n        /* \"#utility.yul\":756:785   */\n      swap1\n      pop\n        /* \"#utility.yul\":632:791   */\n      swap3\n      swap2\n      pop\n      pop\n      jump\t// out\n        /* \"#utility.yul\":797:936   */\n    tag_238:\n        /* \"#utility.yul\":886:892   */\n      dup3\n        /* \"#utility.yul\":881:884   */\n      dup2\n        /* \"#utility.yul\":876:879   */\n      dup4\n        /* \"#utility.yul\":870:893   */\n      mcopy\n        /* \"#utility.yul\":927:928   */\n      0x00\n        /* \"#utility.yul\":918:924   */\n      dup4\n        /* \"#utility.yul\":913:916   */\n      dup4\n        /* \"#utility.yul\":909:925   */\n      add\n        /* \"#utility.yul\":902:929   */\n      mstore\n        /* \"#utility.yul\":797:936   */\n      pop\n      pop\n      pop\n      jump\t// out\n        /* \"#utility.yul\":942:1044   */\n    tag_239:\n        /* \"#utility.yul\":983:989   */\n      0x00\n        /* \"#utility.yul\":1034:1036   */\n      0x1f\n        /* \"#utility.yul\":1030:1037   */\n      not\n        /* \"#utility.yul\":1025:1027   */\n      0x1f\n        /* \"#utility.yul\":1018:1023   */\n      dup4\n        /* \"#utility.yul\":1014:1028   */\n      add\n        /* \"#utility.yul\":1010:1038   */\n      and\n        /* \"#utility.yul\":1000:1038   */\n      swap1\n      pop\n        /* \"#utility.yul\":942:1044   */\n      swap2\n      swap1\n      pop\n      jump\t// out\n        /* \"#utility.yul\":1050:1407   */\n    tag_240:\n        /* \"#utility.yul\":1128:1131   */\n      0x00\n        /* \"#utility.yul\":1156:1195   */\n      tag_325\n        /* \"#utility.yul\":1189:1194   */\n      dup3\n        /* \"#utility.yul\":1156:1195   */\n      tag_236\n      jump\t// in\n    tag_325:\n        /* \"#utility.yul\":1211:1272   */\n      tag_326\n        /* \"#utility.yul\":1265:1271   */\n      dup2\n        /* \"#utility.yul\":1260:1263   */\n      dup6\n        /* \"#utility.yul\":1211:1272   */\n      tag_237\n      jump\t// in\n    tag_326:\n        /* \"#utility.yul\":1204:1272   */\n      swap4\n      pop\n        /* \"#utility.yul\":1281:1346   */\n      tag_327\n        /* \"#utility.yul\":1339:1345   */\n      dup2\n        /* \"#utility.yul\":1334:1337   */\n      dup6\n        /* \"#utility.yul\":1327:1331   */\n      0x20\n        /* \"#utility.yul\":1320:1325   */\n      dup7\n        /* \"#utility.yul\":1316:1332   */\n      add\n        /* \"#utility.yul\":1281:1346   */\n      tag_238\n      jump\t// in\n    tag_327:\n        /* \"#utility.yul\":1371:1400   */\n      tag_328\n        /* \"#utility.yul\":1393:1399   */\n      dup2\n        /* \"#utility.yul\":1371:1400   */\n      tag_239\n      jump\t// in\n    tag_328:\n        /* \"#utility.yul\":1366:1369   */\n      dup5\n        /* \"#utility.yul\":1362:1401   */\n      add\n        /* \"#utility.yul\":1355:1401   */\n      swap2\n      pop\n        /* \"#utility.yul\":1132:1407   */\n      pop\n        /* \"#utility.yul\":1050:1407   */\n      swap3\n      swap2\n      pop\n      pop\n      jump\t// out\n        /* \"#utility.yul\":1413:1490   */\n    tag_241:\n        /* \"#utility.yul\":1450:1457   */\n      0x00\n        /* \"#utility.yul\":1479:1484   */\n      dup2\n        /* \"#utility.yul\":1468:1484   */\n      swap1\n      pop\n        /* \"#utility.yul\":1413:1490   */\n      swap2\n      swap1\n      pop\n      jump\t// out\n        /* \"#utility.yul\":1496:1604   */\n    tag_242:\n        /* \"#utility.yul\":1573:1597   */\n      tag_331\n        /* \"#utility.yul\":1591:1596   */\n      dup2\n        /* \"#utility.yul\":1573:1597   */\n      tag_241\n      jump\t// in\n    tag_331:\n        /* \"#utility.yul\":1568:1571   */\n      dup3\n        /* \"#utility.yul\":1561:1598   */\n      mstore\n        /* \"#utility.yul\":1496:1604   */\n      pop\n      pop\n      jump\t// out\n        /* \"#utility.yul\":1666:2272   */\n    tag_243:\n        /* \"#utility.yul\":1773:1776   */\n      0x00\n        /* \"#utility.yul\":1809:1813   */\n      0x40\n        /* \"#utility.yul\":1804:1807   */\n      dup4\n        /* \"#utility.yul\":1800:1814   */\n      add\n        /* \"#utility.yul\":1903:1907   */\n      0x00\n        /* \"#utility.yul\":1896:1901   */\n      dup4\n        /* \"#utility.yul\":1892:1908   */\n      add\n        /* \"#utility.yul\":1886:1909   */\n      mload\n        /* \"#utility.yul\":1956:1959   */\n      dup5\n        /* \"#utility.yul\":1950:1954   */\n      dup3\n        /* \"#utility.yul\":1946:1960   */\n      sub\n        /* \"#utility.yul\":1939:1943   */\n      0x00\n        /* \"#utility.yul\":1934:1937   */\n      dup7\n        /* \"#utility.yul\":1930:1944   */\n      add\n        /* \"#utility.yul\":1923:1961   */\n      mstore\n        /* \"#utility.yul\":1982:2055   */\n      tag_333\n        /* \"#utility.yul\":2050:2054   */\n      dup3\n        /* \"#utility.yul\":2036:2048   */\n      dup3\n        /* \"#utility.yul\":1982:2055   */\n      tag_240\n      jump\t// in\n    tag_333:\n        /* \"#utility.yul\":1974:2055   */\n      swap2\n      pop\n        /* \"#utility.yul\":1824:2066   */\n      pop\n        /* \"#utility.yul\":2153:2157   */\n      0x20\n        /* \"#utility.yul\":2146:2151   */\n      dup4\n        /* \"#utility.yul\":2142:2158   */\n      add\n        /* \"#utility.yul\":2136:2159   */\n      mload\n        /* \"#utility.yul\":2172:2235   */\n      tag_334\n        /* \"#utility.yul\":2229:2233   */\n      0x20\n        /* \"#utility.yul\":2224:2227   */\n      dup7\n        /* \"#utility.yul\":2220:2234   */\n      add\n        /* \"#utility.yul\":2206:2218   */\n      dup3\n        /* \"#utility.yul\":2172:2235   */\n      tag_242\n      jump\t// in\n    tag_334:\n        /* \"#utility.yul\":2076:2245   */\n      pop\n        /* \"#utility.yul\":2262:2266   */\n      dup1\n        /* \"#utility.yul\":2255:2266   */\n      swap2\n      pop\n        /* \"#utility.yul\":1778:2272   */\n      pop\n        /* \"#utility.yul\":1666:2272   */\n      swap3\n      swap2\n      pop\n      pop\n      jump\t// out\n        /* \"#utility.yul\":2278:2530   */\n    tag_244:\n        /* \"#utility.yul\":2395:2405   */\n      0x00\n        /* \"#utility.yul\":2430:2524   */\n      tag_336\n        /* \"#utility.yul\":2520:2523   */\n      dup4\n        /* \"#utility.yul\":2512:2518   */\n      dup4\n        /* \"#utility.yul\":2430:2524   */\n      tag_243\n      jump\t// in\n    tag_336:\n        /* \"#utility.yul\":2416:2524   */\n      swap1\n      pop\n        /* \"#utility.yul\":2278:2530   */\n      swap3\n      swap2\n      pop\n      pop\n      jump\t// out\n        /* \"#utility.yul\":2536:2673   */\n    tag_245:\n        /* \"#utility.yul\":2630:2634   */\n      0x00\n        /* \"#utility.yul\":2662:2666   */\n      0x20\n        /* \"#utility.yul\":2657:2660   */\n      dup3\n        /* \"#utility.yul\":2653:2667   */\n      add\n        /* \"#utility.yul\":2645:2667   */\n      swap1\n      pop\n        /* \"#utility.yul\":2536:2673   */\n      swap2\n      swap1\n      pop\n      jump\t// out\n        /* \"#utility.yul\":2739:3842   */\n    tag_246:\n        /* \"#utility.yul\":2906:2909   */\n      0x00\n        /* \"#utility.yul\":2935:3013   */\n      tag_339\n        /* \"#utility.yul\":3007:3012   */\n      dup3\n        /* \"#utility.yul\":2935:3013   */\n      tag_233\n      jump\t// in\n    tag_339:\n        /* \"#utility.yul\":3029:3139   */\n      tag_340\n        /* \"#utility.yul\":3132:3138   */\n      dup2\n        /* \"#utility.yul\":3127:3130   */\n      dup6\n        /* \"#utility.yul\":3029:3139   */\n      tag_234\n      jump\t// in\n    tag_340:\n        /* \"#utility.yul\":3022:3139   */\n      swap4\n      pop\n        /* \"#utility.yul\":3165:3168   */\n      dup4\n        /* \"#utility.yul\":3210:3214   */\n      0x20\n        /* \"#utility.yul\":3202:3208   */\n      dup3\n        /* \"#utility.yul\":3198:3215   */\n      mul\n        /* \"#utility.yul\":3193:3196   */\n      dup6\n        /* \"#utility.yul\":3189:3216   */\n      add\n        /* \"#utility.yul\":3240:3320   */\n      tag_341\n        /* \"#utility.yul\":3314:3319   */\n      dup6\n        /* \"#utility.yul\":3240:3320   */\n      tag_235\n      jump\t// in\n    tag_341:\n        /* \"#utility.yul\":3343:3350   */\n      dup1\n        /* \"#utility.yul\":3374:3375   */\n      0x00\n        /* \"#utility.yul\":3359:3797   */\n    tag_342:\n        /* \"#utility.yul\":3384:3390   */\n      dup6\n        /* \"#utility.yul\":3381:3382   */\n      dup2\n        /* \"#utility.yul\":3378:3391   */\n      lt\n        /* \"#utility.yul\":3359:3797   */\n      iszero\n      tag_344\n      jumpi\n        /* \"#utility.yul\":3455:3464   */\n      dup5\n        /* \"#utility.yul\":3449:3453   */\n      dup5\n        /* \"#utility.yul\":3445:3465   */\n      sub\n        /* \"#utility.yul\":3440:3443   */\n      dup10\n        /* \"#utility.yul\":3433:3466   */\n      mstore\n        /* \"#utility.yul\":3506:3512   */\n      dup2\n        /* \"#utility.yul\":3500:3513   */\n      mload\n        /* \"#utility.yul\":3534:3646   */\n      tag_345\n        /* \"#utility.yul\":3641:3645   */\n      dup6\n        /* \"#utility.yul\":3626:3639   */\n      dup3\n        /* \"#utility.yul\":3534:3646   */\n      tag_244\n      jump\t// in\n    tag_345:\n        /* \"#utility.yul\":3526:3646   */\n      swap5\n      pop\n        /* \"#utility.yul\":3669:3753   */\n      tag_346\n        /* \"#utility.yul\":3746:3752   */\n      dup4\n        /* \"#utility.yul\":3669:3753   */\n      tag_245\n      jump\t// in\n    tag_346:\n        /* \"#utility.yul\":3659:3753   */\n      swap3\n      pop\n        /* \"#utility.yul\":3782:3786   */\n      0x20\n        /* \"#utility.yul\":3777:3780   */\n      dup11\n        /* \"#utility.yul\":3773:3787   */\n      add\n        /* \"#utility.yul\":3766:3787   */\n      swap10\n      pop\n        /* \"#utility.yul\":3419:3797   */\n      pop\n        /* \"#utility.yul\":3406:3407   */\n      0x01\n        /* \"#utility.yul\":3403:3404   */\n      dup2\n        /* \"#utility.yul\":3399:3408   */\n      add\n        /* \"#utility.yul\":3394:3408   */\n      swap1\n      pop\n        /* \"#utility.yul\":3359:3797   */\n      jump(tag_342)\n    tag_344:\n        /* \"#utility.yul\":3363:3377   */\n      pop\n        /* \"#utility.yul\":3813:3817   */\n      dup3\n        /* \"#utility.yul\":3806:3817   */\n      swap8\n      pop\n        /* \"#utility.yul\":3833:3836   */\n      dup8\n        /* \"#utility.yul\":3826:3836   */\n      swap6\n      pop\n        /* \"#utility.yul\":2911:3842   */\n      pop\n      pop\n      pop\n      pop\n      pop\n        /* \"#utility.yul\":2739:3842   */\n      swap3\n      swap2\n      pop\n      pop\n      jump\t// out\n        /* \"#utility.yul\":3848:4317   */\n    tag_18:\n        /* \"#utility.yul\":4039:4043   */\n      0x00\n        /* \"#utility.yul\":4077:4079   */\n      0x20\n        /* \"#utility.yul\":4066:4075   */\n      dup3\n        /* \"#utility.yul\":4062:4080   */\n      add\n        /* \"#utility.yul\":4054:4080   */\n      swap1\n      pop\n        /* \"#utility.yul\":4126:4135   */\n      dup2\n        /* \"#utility.yul\":4120:4124   */\n      dup2\n        /* \"#utility.yul\":4116:4136   */\n      sub\n        /* \"#utility.yul\":4112:4113   */\n      0x00\n        /* \"#utility.yul\":4101:4110   */\n      dup4\n        /* \"#utility.yul\":4097:4114   */\n      add\n        /* \"#utility.yul\":4090:4137   */\n      mstore\n        /* \"#utility.yul\":4154:4310   */\n      tag_348\n        /* \"#utility.yul\":4305:4309   */\n      dup2\n        /* \"#utility.yul\":4296:4302   */\n      dup5\n        /* \"#utility.yul\":4154:4310   */\n      tag_246\n      jump\t// in\n    tag_348:\n        /* \"#utility.yul\":4146:4310   */\n      swap1\n      pop\n        /* \"#utility.yul\":3848:4317   */\n      swap3\n      swap2\n      pop\n      pop\n      jump\t// out\n        /* \"#utility.yul\":4323:4449   */\n    tag_247:\n        /* \"#utility.yul\":4360:4367   */\n      0x00\n        /* \"#utility.yul\":4400:4442   */\n      0xffffffffffffffffffffffffffffffffffffffff\n        /* \"#utility.yul\":4393:4398   */\n      dup3\n        /* \"#utility.yul\":4389:4443   */\n      and\n        /* \"#utility.yul\":4378:4443   */\n      swap1\n      pop\n        /* \"#utility.yul\":4323:4449   */\n      swap2\n      swap1\n      pop\n      jump\t// out\n        /* \"#utility.yul\":4455:4551   */\n    tag_248:\n        /* \"#utility.yul\":4492:4499   */\n      0x00\n        /* \"#utility.yul\":4521:4545   */\n      tag_351\n        /* \"#utility.yul\":4539:4544   */\n      dup3\n        /* \"#utility.yul\":4521:4545   */\n      tag_247\n      jump\t// in\n    tag_351:\n        /* \"#utility.yul\":4510:4545   */\n      swap1\n      pop\n        /* \"#utility.yul\":4455:4551   */\n      swap2\n      swap1\n      pop\n      jump\t// out\n        /* \"#utility.yul\":4557:4675   */\n    tag_249:\n        /* \"#utility.yul\":4644:4668   */\n      tag_353\n        /* \"#utility.yul\":4662:4667   */\n      dup2\n        /* \"#utility.yul\":4644:4668   */\n      tag_248\n      jump\t// in\n    tag_353:\n        /* \"#utility.yul\":4639:4642   */\n      dup3\n        /* \"#utility.yul\":4632:4669   */\n      mstore\n        /* \"#utility.yul\":4557:4675   */\n      pop\n      pop\n      jump\t// out\n        /* \"#utility.yul\":4681:4903   */\n    tag_26:\n        /* \"#utility.yul\":4774:4778   */\n      0x00\n        /* \"#utility.yul\":4812:4814   */\n      0x20\n        /* \"#utility.yul\":4801:4810   */\n      dup3\n        /* \"#utility.yul\":4797:4815   */\n      add\n        /* \"#utility.yul\":4789:4815   */\n      swap1\n      pop\n        /* \"#utility.yul\":4825:4896   */\n      tag_355\n        /* \"#utility.yul\":4893:4894   */\n      0x00\n        /* \"#utility.yul\":4882:4891   */\n      dup4\n        /* \"#utility.yul\":4878:4895   */\n      add\n        /* \"#utility.yul\":4869:4875   */\n      dup5\n        /* \"#utility.yul\":4825:4896   */\n      tag_249\n      jump\t// in\n    tag_355:\n        /* \"#utility.yul\":4681:4903   */\n      swap3\n      swap2\n      pop\n      pop\n      jump\t// out\n        /* \"#utility.yul\":4909:5027   */\n    tag_250:\n        /* \"#utility.yul\":4996:5020   */\n      tag_357\n        /* \"#utility.yul\":5014:5019   */\n      dup2\n        /* \"#utility.yul\":4996:5020   */\n      tag_241\n      jump\t// in\n    tag_357:\n        /* \"#utility.yul\":4991:4994   */\n      dup3\n        /* \"#utility.yul\":4984:5021   */\n      mstore\n        /* \"#utility.yul\":4909:5027   */\n      pop\n      pop\n      jump\t// out\n        /* \"#utility.yul\":5033:5255   */\n    tag_35:\n        /* \"#utility.yul\":5126:5130   */\n      0x00\n        /* \"#utility.yul\":5164:5166   */\n      0x20\n        /* \"#utility.yul\":5153:5162   */\n      dup3\n        /* \"#utility.yul\":5149:5167   */\n      add\n        /* \"#utility.yul\":5141:5167   */\n      swap1\n      pop\n        /* \"#utility.yul\":5177:5248   */\n      tag_359\n        /* \"#utility.yul\":5245:5246   */\n      0x00\n        /* \"#utility.yul\":5234:5243   */\n      dup4\n        /* \"#utility.yul\":5230:5247   */\n      add\n        /* \"#utility.yul\":5221:5227   */\n      dup5\n        /* \"#utility.yul\":5177:5248   */\n      tag_250\n      jump\t// in\n    tag_359:\n        /* \"#utility.yul\":5033:5255   */\n      swap3\n      swap2\n      pop\n      pop\n      jump\t// out\n        /* \"#utility.yul\":5261:5336   */\n    tag_251:\n        /* \"#utility.yul\":5294:5300   */\n      0x00\n        /* \"#utility.yul\":5327:5329   */\n      0x40\n        /* \"#utility.yul\":5321:5330   */\n      mload\n        /* \"#utility.yul\":5311:5330   */\n      swap1\n      pop\n        /* \"#utility.yul\":5261:5336   */\n      swap1\n      jump\t// out\n        /* \"#utility.yul\":5342:5459   */\n    tag_252:\n        /* \"#utility.yul\":5451:5452   */\n      0x00\n        /* \"#utility.yul\":5448:5449   */\n      0x00\n        /* \"#utility.yul\":5441:5453   */\n      revert\n        /* \"#utility.yul\":5465:5582   */\n    tag_253:\n        /* \"#utility.yul\":5574:5575   */\n      0x00\n        /* \"#utility.yul\":5571:5572   */\n      0x00\n        /* \"#utility.yul\":5564:5576   */\n      revert\n        /* \"#utility.yul\":5588:5710   */\n    tag_254:\n        /* \"#utility.yul\":5661:5685   */\n      tag_364\n        /* \"#utility.yul\":5679:5684   */\n      dup2\n        /* \"#utility.yul\":5661:5685   */\n      tag_248\n      jump\t// in\n    tag_364:\n        /* \"#utility.yul\":5654:5659   */\n      dup2\n        /* \"#utility.yul\":5651:5686   */\n      eq\n        /* \"#utility.yul\":5641:5704   */\n      tag_365\n      jumpi\n        /* \"#utility.yul\":5700:5701   */\n      0x00\n        /* \"#utility.yul\":5697:5698   */\n      0x00\n        /* \"#utility.yul\":5690:5702   */\n      revert\n        /* \"#utility.yul\":5641:5704   */\n    tag_365:\n        /* \"#utility.yul\":5588:5710   */\n      pop\n      jump\t// out\n        /* \"#utility.yul\":5716:5855   */\n    tag_255:\n        /* \"#utility.yul\":5762:5767   */\n      0x00\n        /* \"#utility.yul\":5800:5806   */\n      dup2\n        /* \"#utility.yul\":5787:5807   */\n      calldataload\n        /* \"#utility.yul\":5778:5807   */\n      swap1\n      pop\n        /* \"#utility.yul\":5816:5849   */\n      tag_367\n        /* \"#utility.yul\":5843:5848   */\n      dup2\n        /* \"#utility.yul\":5816:5849   */\n      tag_254\n      jump\t// in\n    tag_367:\n        /* \"#utility.yul\":5716:5855   */\n      swap3\n      swap2\n      pop\n      pop\n      jump\t// out\n        /* \"#utility.yul\":5861:6190   */\n    tag_38:\n        /* \"#utility.yul\":5920:5926   */\n      0x00\n        /* \"#utility.yul\":5969:5971   */\n      0x20\n        /* \"#utility.yul\":5957:5966   */\n      dup3\n        /* \"#utility.yul\":5948:5955   */\n      dup5\n        /* \"#utility.yul\":5944:5967   */\n      sub\n        /* \"#utility.yul\":5940:5972   */\n      slt\n        /* \"#utility.yul\":5937:6056   */\n      iszero\n      tag_369\n      jumpi\n        /* \"#utility.yul\":5975:6054   */\n      tag_370\n      tag_252\n      jump\t// in\n    tag_370:\n        /* \"#utility.yul\":5937:6056   */\n    tag_369:\n        /* \"#utility.yul\":6095:6096   */\n      0x00\n        /* \"#utility.yul\":6120:6173   */\n      tag_371\n        /* \"#utility.yul\":6165:6172   */\n      dup5\n        /* \"#utility.yul\":6156:6162   */\n      dup3\n        /* \"#utility.yul\":6145:6154   */\n      dup6\n        /* \"#utility.yul\":6141:6163   */\n      add\n        /* \"#utility.yul\":6120:6173   */\n      tag_255\n      jump\t// in\n    tag_371:\n        /* \"#utility.yul\":6110:6173   */\n      swap2\n      pop\n        /* \"#utility.yul\":6066:6183   */\n      pop\n        /* \"#utility.yul\":5861:6190   */\n      swap3\n      swap2\n      pop\n      pop\n      jump\t// out\n        /* \"#utility.yul\":6196:6318   */\n    tag_256:\n        /* \"#utility.yul\":6269:6293   */\n      tag_373\n        /* \"#utility.yul\":6287:6292   */\n      dup2\n        /* \"#utility.yul\":6269:6293   */\n      tag_241\n      jump\t// in\n    tag_373:\n        /* \"#utility.yul\":6262:6267   */\n      dup2\n        /* \"#utility.yul\":6259:6294   */\n      eq\n        /* \"#utility.yul\":6249:6312   */\n      tag_374\n      jumpi\n        /* \"#utility.yul\":6308:6309   */\n      0x00\n        /* \"#utility.yul\":6305:6306   */\n      0x00\n        /* \"#utility.yul\":6298:6310   */\n      revert\n        /* \"#utility.yul\":6249:6312   */\n    tag_374:\n        /* \"#utility.yul\":6196:6318   */\n      pop\n      jump\t// out\n        /* \"#utility.yul\":6324:6463   */\n    tag_257:\n        /* \"#utility.yul\":6370:6375   */\n      0x00\n        /* \"#utility.yul\":6408:6414   */\n      dup2\n        /* \"#utility.yul\":6395:6415   */\n      calldataload\n        /* \"#utility.yul\":6386:6415   */\n      swap1\n      pop\n        /* \"#utility.yul\":6424:6457   */\n      tag_376\n        /* \"#utility.yul\":6451:6456   */\n      dup2\n        /* \"#utility.yul\":6424:6457   */\n      tag_256\n      jump\t// in\n    tag_376:\n        /* \"#utility.yul\":6324:6463   */\n      swap3\n      swap2\n      pop\n      pop\n      jump\t// out\n        /* \"#utility.yul\":6469:6798   */\n    tag_42:\n        /* \"#utility.yul\":6528:6534   */\n      0x00\n        /* \"#utility.yul\":6577:6579   */\n      0x20\n        /* \"#utility.yul\":6565:6574   */\n      dup3\n        /* \"#utility.yul\":6556:6563   */\n      dup5\n        /* \"#utility.yul\":6552:6575   */\n      sub\n        /* \"#utility.yul\":6548:6580   */\n      slt\n        /* \"#utility.yul\":6545:6664   */\n      iszero\n      tag_378\n      jumpi\n        /* \"#utility.yul\":6583:6662   */\n      tag_379\n      tag_252\n      jump\t// in\n    tag_379:\n        /* \"#utility.yul\":6545:6664   */\n    tag_378:\n        /* \"#utility.yul\":6703:6704   */\n      0x00\n        /* \"#utility.yul\":6728:6781   */\n      tag_380\n        /* \"#utility.yul\":6773:6780   */\n      dup5\n        /* \"#utility.yul\":6764:6770   */\n      dup3\n        /* \"#utility.yul\":6753:6762   */\n      dup6\n        /* \"#utility.yul\":6749:6771   */\n      add\n        /* \"#utility.yul\":6728:6781   */\n      tag_257\n      jump\t// in\n    tag_380:\n        /* \"#utility.yul\":6718:6781   */\n      swap2\n      pop\n        /* \"#utility.yul\":6674:6791   */\n      pop\n        /* \"#utility.yul\":6469:6798   */\n      swap3\n      swap2\n      pop\n      pop\n      jump\t// out\n        /* \"#utility.yul\":6804:6921   */\n    tag_258:\n        /* \"#utility.yul\":6913:6914   */\n      0x00\n        /* \"#utility.yul\":6910:6911   */\n      0x00\n        /* \"#utility.yul\":6903:6915   */\n      revert\n        /* \"#utility.yul\":6927:7044   */\n    tag_259:\n        /* \"#utility.yul\":7036:7037   */\n      0x00\n        /* \"#utility.yul\":7033:7034   */\n      0x00\n        /* \"#utility.yul\":7026:7038   */\n      revert\n        /* \"#utility.yul\":7050:7230   */\n    tag_260:\n        /* \"#utility.yul\":7098:7175   */\n      0x4e487b7100000000000000000000000000000000000000000000000000000000\n        /* \"#utility.yul\":7095:7096   */\n      0x00\n        /* \"#utility.yul\":7088:7176   */\n      mstore\n        /* \"#utility.yul\":7195:7199   */\n      0x41\n        /* \"#utility.yul\":7192:7193   */\n      0x04\n        /* \"#utility.yul\":7185:7200   */\n      mstore\n        /* \"#utility.yul\":7219:7223   */\n      0x24\n        /* \"#utility.yul\":7216:7217   */\n      0x00\n        /* \"#utility.yul\":7209:7224   */\n      revert\n        /* \"#utility.yul\":7236:7517   */\n    tag_261:\n        /* \"#utility.yul\":7319:7346   */\n      tag_385\n        /* \"#utility.yul\":7341:7345   */\n      dup3\n        /* \"#utility.yul\":7319:7346   */\n      tag_239\n      jump\t// in\n    tag_385:\n        /* \"#utility.yul\":7311:7317   */\n      dup2\n        /* \"#utility.yul\":7307:7347   */\n      add\n        /* \"#utility.yul\":7449:7455   */\n      dup2\n        /* \"#utility.yul\":7437:7447   */\n      dup2\n        /* \"#utility.yul\":7434:7456   */\n      lt\n        /* \"#utility.yul\":7413:7431   */\n      0xffffffffffffffff\n        /* \"#utility.yul\":7401:7411   */\n      dup3\n        /* \"#utility.yul\":7398:7432   */\n      gt\n        /* \"#utility.yul\":7395:7457   */\n      or\n        /* \"#utility.yul\":7392:7480   */\n      iszero\n      tag_386\n      jumpi\n        /* \"#utility.yul\":7460:7478   */\n      tag_387\n      tag_260\n      jump\t// in\n    tag_387:\n        /* \"#utility.yul\":7392:7480   */\n    tag_386:\n        /* \"#utility.yul\":7500:7510   */\n      dup1\n        /* \"#utility.yul\":7496:7498   */\n      0x40\n        /* \"#utility.yul\":7489:7511   */\n      mstore\n        /* \"#utility.yul\":7279:7517   */\n      pop\n        /* \"#utility.yul\":7236:7517   */\n      pop\n      pop\n      jump\t// out\n        /* \"#utility.yul\":7523:7652   */\n    tag_262:\n        /* \"#utility.yul\":7557:7563   */\n      0x00\n        /* \"#utility.yul\":7584:7604   */\n      tag_389\n      tag_251\n      jump\t// in\n    tag_389:\n        /* \"#utility.yul\":7574:7604   */\n      swap1\n      pop\n        /* \"#utility.yul\":7613:7646   */\n      tag_390\n        /* \"#utility.yul\":7641:7645   */\n      dup3\n        /* \"#utility.yul\":7633:7639   */\n      dup3\n        /* \"#utility.yul\":7613:7646   */\n      tag_261\n      jump\t// in\n    tag_390:\n        /* \"#utility.yul\":7523:7652   */\n      swap2\n      swap1\n      pop\n      jump\t// out\n        /* \"#utility.yul\":7658:7966   */\n    tag_263:\n        /* \"#utility.yul\":7720:7724   */\n      0x00\n        /* \"#utility.yul\":7810:7828   */\n      0xffffffffffffffff\n        /* \"#utility.yul\":7802:7808   */\n      dup3\n        /* \"#utility.yul\":7799:7829   */\n      gt\n        /* \"#utility.yul\":7796:7852   */\n      iszero\n      tag_392\n      jumpi\n        /* \"#utility.yul\":7832:7850   */\n      tag_393\n      tag_260\n      jump\t// in\n    tag_393:\n        /* \"#utility.yul\":7796:7852   */\n    tag_392:\n        /* \"#utility.yul\":7870:7899   */\n      tag_394\n        /* \"#utility.yul\":7892:7898   */\n      dup3\n        /* \"#utility.yul\":7870:7899   */\n      tag_239\n      jump\t// in\n    tag_394:\n        /* \"#utility.yul\":7862:7899   */\n      swap1\n      pop\n        /* \"#utility.yul\":7954:7958   */\n      0x20\n        /* \"#utility.yul\":7948:7952   */\n      dup2\n        /* \"#utility.yul\":7944:7959   */\n      add\n        /* \"#utility.yul\":7936:7959   */\n      swap1\n      pop\n        /* \"#utility.yul\":7658:7966   */\n      swap2\n      swap1\n      pop\n      jump\t// out\n        /* \"#utility.yul\":7972:8120   */\n    tag_264:\n        /* \"#utility.yul\":8070:8076   */\n      dup3\n        /* \"#utility.yul\":8065:8068   */\n      dup2\n        /* \"#utility.yul\":8060:8063   */\n      dup4\n        /* \"#utility.yul\":8047:8077   */\n      calldatacopy\n        /* \"#utility.yul\":8111:8112   */\n      0x00\n        /* \"#utility.yul\":8102:8108   */\n      dup4\n        /* \"#utility.yul\":8097:8100   */\n      dup4\n        /* \"#utility.yul\":8093:8109   */\n      add\n        /* \"#utility.yul\":8086:8113   */\n      mstore\n        /* \"#utility.yul\":7972:8120   */\n      pop\n      pop\n      pop\n      jump\t// out\n        /* \"#utility.yul\":8126:8551   */\n    tag_265:\n        /* \"#utility.yul\":8204:8209   */\n      0x00\n        /* \"#utility.yul\":8229:8295   */\n      tag_397\n        /* \"#utility.yul\":8245:8294   */\n      tag_398\n        /* \"#utility.yul\":8287:8293   */\n      dup5\n        /* \"#utility.yul\":8245:8294   */\n      tag_263\n      jump\t// in\n    tag_398:\n        /* \"#utility.yul\":8229:8295   */\n      tag_262\n      jump\t// in\n    tag_397:\n        /* \"#utility.yul\":8220:8295   */\n      swap1\n      pop\n        /* \"#utility.yul\":8318:8324   */\n      dup3\n        /* \"#utility.yul\":8311:8316   */\n      dup2\n        /* \"#utility.yul\":8304:8325   */\n      mstore\n        /* \"#utility.yul\":8356:8360   */\n      0x20\n        /* \"#utility.yul\":8349:8354   */\n      dup2\n        /* \"#utility.yul\":8345:8361   */\n      add\n        /* \"#utility.yul\":8394:8397   */\n      dup5\n        /* \"#utility.yul\":8385:8391   */\n      dup5\n        /* \"#utility.yul\":8380:8383   */\n      dup5\n        /* \"#utility.yul\":8376:8392   */\n      add\n        /* \"#utility.yul\":8373:8398   */\n      gt\n        /* \"#utility.yul\":8370:8482   */\n      iszero\n      tag_399\n      jumpi\n        /* \"#utility.yul\":8401:8480   */\n      tag_400\n      tag_259\n      jump\t// in\n    tag_400:\n        /* \"#utility.yul\":8370:8482   */\n    tag_399:\n        /* \"#utility.yul\":8491:8545   */\n      tag_401\n        /* \"#utility.yul\":8538:8544   */\n      dup5\n        /* \"#utility.yul\":8533:8536   */\n      dup3\n        /* \"#utility.yul\":8528:8531   */\n      dup6\n        /* \"#utility.yul\":8491:8545   */\n      tag_264\n      jump\t// in\n    tag_401:\n        /* \"#utility.yul\":8210:8551   */\n      pop\n        /* \"#utility.yul\":8126:8551   */\n      swap4\n      swap3\n      pop\n      pop\n      pop\n      jump\t// out\n        /* \"#utility.yul\":8571:8911   */\n    tag_266:\n        /* \"#utility.yul\":8627:8632   */\n      0x00\n        /* \"#utility.yul\":8676:8679   */\n      dup3\n        /* \"#utility.yul\":8669:8673   */\n      0x1f\n        /* \"#utility.yul\":8661:8667   */\n      dup4\n        /* \"#utility.yul\":8657:8674   */\n      add\n        /* \"#utility.yul\":8653:8680   */\n      slt\n        /* \"#utility.yul\":8643:8765   */\n      tag_403\n      jumpi\n        /* \"#utility.yul\":8684:8763   */\n      tag_404\n      tag_258\n      jump\t// in\n    tag_404:\n        /* \"#utility.yul\":8643:8765   */\n    tag_403:\n        /* \"#utility.yul\":8801:8807   */\n      dup2\n        /* \"#utility.yul\":8788:8808   */\n      calldataload\n        /* \"#utility.yul\":8826:8905   */\n      tag_405\n        /* \"#utility.yul\":8901:8904   */\n      dup5\n        /* \"#utility.yul\":8893:8899   */\n      dup3\n        /* \"#utility.yul\":8886:8890   */\n      0x20\n        /* \"#utility.yul\":8878:8884   */\n      dup7\n        /* \"#utility.yul\":8874:8891   */\n      add\n        /* \"#utility.yul\":8826:8905   */\n      tag_265\n      jump\t// in\n    tag_405:\n        /* \"#utility.yul\":8817:8905   */\n      swap2\n      pop\n        /* \"#utility.yul\":8633:8911   */\n      pop\n        /* \"#utility.yul\":8571:8911   */\n      swap3\n      swap2\n      pop\n      pop\n      jump\t// out\n        /* \"#utility.yul\":8917:9426   */\n    tag_46:\n        /* \"#utility.yul\":8986:8992   */\n      0x00\n        /* \"#utility.yul\":9035:9037   */\n      0x20\n        /* \"#utility.yul\":9023:9032   */\n      dup3\n        /* \"#utility.yul\":9014:9021   */\n      dup5\n        /* \"#utility.yul\":9010:9033   */\n      sub\n        /* \"#utility.yul\":9006:9038   */\n      slt\n        /* \"#utility.yul\":9003:9122   */\n      iszero\n      tag_407\n      jumpi\n        /* \"#utility.yul\":9041:9120   */\n      tag_408\n      tag_252\n      jump\t// in\n    tag_408:\n        /* \"#utility.yul\":9003:9122   */\n    tag_407:\n        /* \"#utility.yul\":9189:9190   */\n      0x00\n        /* \"#utility.yul\":9178:9187   */\n      dup3\n        /* \"#utility.yul\":9174:9191   */\n      add\n        /* \"#utility.yul\":9161:9192   */\n      calldataload\n        /* \"#utility.yul\":9219:9237   */\n      0xffffffffffffffff\n        /* \"#utility.yul\":9211:9217   */\n      dup2\n        /* \"#utility.yul\":9208:9238   */\n      gt\n        /* \"#utility.yul\":9205:9322   */\n      iszero\n      tag_409\n      jumpi\n        /* \"#utility.yul\":9241:9320   */\n      tag_410\n      tag_253\n      jump\t// in\n    tag_410:\n        /* \"#utility.yul\":9205:9322   */\n    tag_409:\n        /* \"#utility.yul\":9346:9409   */\n      tag_411\n        /* \"#utility.yul\":9401:9408   */\n      dup5\n        /* \"#utility.yul\":9392:9398   */\n      dup3\n        /* \"#utility.yul\":9381:9390   */\n      dup6\n        /* \"#utility.yul\":9377:9399   */\n      add\n        /* \"#utility.yul\":9346:9409   */\n      tag_266\n      jump\t// in\n    tag_411:\n        /* \"#utility.yul\":9336:9409   */\n      swap2\n      pop\n        /* \"#utility.yul\":9132:9419   */\n      pop\n        /* \"#utility.yul\":8917:9426   */\n      swap3\n      swap2\n      pop\n      pop\n      jump\t// out\n        /* \"#utility.yul\":9432:9612   */\n    tag_267:\n        /* \"#utility.yul\":9480:9557   */\n      0x4e487b7100000000000000000000000000000000000000000000000000000000\n        /* \"#utility.yul\":9477:9478   */\n      0x00\n        /* \"#utility.yul\":9470:9558   */\n      mstore\n        /* \"#utility.yul\":9577:9581   */\n      0x22\n        /* \"#utility.yul\":9574:9575   */\n      0x04\n        /* \"#utility.yul\":9567:9582   */\n      mstore\n        /* \"#utility.yul\":9601:9605   */\n      0x24\n        /* \"#utility.yul\":9598:9599   */\n      0x00\n        /* \"#utility.yul\":9591:9606   */\n      revert\n        /* \"#utility.yul\":9618:9938   */\n    tag_56:\n        /* \"#utility.yul\":9662:9668   */\n      0x00\n        /* \"#utility.yul\":9699:9700   */\n      0x02\n        /* \"#utility.yul\":9693:9697   */\n      dup3\n        /* \"#utility.yul\":9689:9701   */\n      div\n        /* \"#utility.yul\":9679:9701   */\n      swap1\n      pop\n        /* \"#utility.yul\":9746:9747   */\n      0x01\n        /* \"#utility.yul\":9740:9744   */\n      dup3\n        /* \"#utility.yul\":9736:9748   */\n      and\n        /* \"#utility.yul\":9767:9785   */\n      dup1\n        /* \"#utility.yul\":9757:9838   */\n      tag_414\n      jumpi\n        /* \"#utility.yul\":9823:9827   */\n      0x7f\n        /* \"#utility.yul\":9815:9821   */\n      dup3\n        /* \"#utility.yul\":9811:9828   */\n      and\n        /* \"#utility.yul\":9801:9828   */\n      swap2\n      pop\n        /* \"#utility.yul\":9757:9838   */\n    tag_414:\n        /* \"#utility.yul\":9885:9887   */\n      0x20\n        /* \"#utility.yul\":9877:9883   */\n      dup3\n        /* \"#utility.yul\":9874:9888   */\n      lt\n        /* \"#utility.yul\":9854:9872   */\n      dup2\n        /* \"#utility.yul\":9851:9889   */\n      sub\n        /* \"#utility.yul\":9848:9932   */\n      tag_415\n      jumpi\n        /* \"#utility.yul\":9904:9922   */\n      tag_416\n      tag_267\n      jump\t// in\n    tag_416:\n        /* \"#utility.yul\":9848:9932   */\n    tag_415:\n        /* \"#utility.yul\":9669:9938   */\n      pop\n        /* \"#utility.yul\":9618:9938   */\n      swap2\n      swap1\n      pop\n      jump\t// out\n        /* \"#utility.yul\":9944:10124   */\n    tag_67:\n        /* \"#utility.yul\":9992:10069   */\n      0x4e487b7100000000000000000000000000000000000000000000000000000000\n        /* \"#utility.yul\":9989:9990   */\n      0x00\n        /* \"#utility.yul\":9982:10070   */\n      mstore\n        /* \"#utility.yul\":10089:10093   */\n      0x21\n        /* \"#utility.yul\":10086:10087   */\n      0x04\n        /* \"#utility.yul\":10079:10094   */\n      mstore\n        /* \"#utility.yul\":10113:10117   */\n      0x24\n        /* \"#utility.yul\":10110:10111   */\n      0x00\n        /* \"#utility.yul\":10103:10118   */\n      revert\n        /* \"#utility.yul\":10130:10310   */\n    tag_268:\n        /* \"#utility.yul\":10178:10255   */\n      0x4e487b7100000000000000000000000000000000000000000000000000000000\n        /* \"#utility.yul\":10175:10176   */\n      0x00\n        /* \"#utility.yul\":10168:10256   */\n      mstore\n        /* \"#utility.yul\":10275:10279   */\n      0x11\n        /* \"#utility.yul\":10272:10273   */\n      0x04\n        /* \"#utility.yul\":10265:10280   */\n      mstore\n        /* \"#utility.yul\":10299:10303   */\n      0x24\n        /* \"#utility.yul\":10296:10297   */\n      0x00\n        /* \"#utility.yul\":10289:10304   */\n      revert\n        /* \"#utility.yul\":10316:10507   */\n    tag_77:\n        /* \"#utility.yul\":10356:10359   */\n      0x00\n        /* \"#utility.yul\":10375:10395   */\n      tag_420\n        /* \"#utility.yul\":10393:10394   */\n      dup3\n        /* \"#utility.yul\":10375:10395   */\n      tag_241\n      jump\t// in\n    tag_420:\n        /* \"#utility.yul\":10370:10395   */\n      swap2\n      pop\n        /* \"#utility.yul\":10409:10429   */\n      tag_421\n        /* \"#utility.yul\":10427:10428   */\n      dup4\n        /* \"#utility.yul\":10409:10429   */\n      tag_241\n      jump\t// in\n    tag_421:\n        /* \"#utility.yul\":10404:10429   */\n      swap3\n      pop\n        /* \"#utility.yul\":10452:10453   */\n      dup3\n        /* \"#utility.yul\":10449:10450   */\n      dup3\n        /* \"#utility.yul\":10445:10454   */\n      add\n        /* \"#utility.yul\":10438:10454   */\n      swap1\n      pop\n        /* \"#utility.yul\":10473:10476   */\n      dup1\n        /* \"#utility.yul\":10470:10471   */\n      dup3\n        /* \"#utility.yul\":10467:10477   */\n      gt\n        /* \"#utility.yul\":10464:10500   */\n      iszero\n      tag_422\n      jumpi\n        /* \"#utility.yul\":10480:10498   */\n      tag_423\n      tag_268\n      jump\t// in\n    tag_423:\n        /* \"#utility.yul\":10464:10500   */\n    tag_422:\n        /* \"#utility.yul\":10316:10507   */\n      swap3\n      swap2\n      pop\n      pop\n      jump\t// out\n        /* \"#utility.yul\":10513:10635   */\n    tag_269:\n        /* \"#utility.yul\":10603:10604   */\n      0x06\n        /* \"#utility.yul\":10596:10601   */\n      dup2\n        /* \"#utility.yul\":10593:10605   */\n      lt\n        /* \"#utility.yul\":10583:10629   */\n      tag_425\n      jumpi\n        /* \"#utility.yul\":10609:10627   */\n      tag_426\n      tag_67\n      jump\t// in\n    tag_426:\n        /* \"#utility.yul\":10583:10629   */\n    tag_425:\n        /* \"#utility.yul\":10513:10635   */\n      pop\n      jump\t// out\n        /* \"#utility.yul\":10641:10786   */\n    tag_270:\n        /* \"#utility.yul\":10695:10702   */\n      0x00\n        /* \"#utility.yul\":10724:10729   */\n      dup2\n        /* \"#utility.yul\":10713:10729   */\n      swap1\n      pop\n        /* \"#utility.yul\":10730:10780   */\n      tag_428\n        /* \"#utility.yul\":10774:10779   */\n      dup3\n        /* \"#utility.yul\":10730:10780   */\n      tag_269\n      jump\t// in\n    tag_428:\n        /* \"#utility.yul\":10641:10786   */\n      swap2\n      swap1\n      pop\n      jump\t// out\n        /* \"#utility.yul\":10792:10937   */\n    tag_271:\n        /* \"#utility.yul\":10857:10866   */\n      0x00\n        /* \"#utility.yul\":10890:10931   */\n      tag_430\n        /* \"#utility.yul\":10925:10930   */\n      dup3\n        /* \"#utility.yul\":10890:10931   */\n      tag_270\n      jump\t// in\n    tag_430:\n        /* \"#utility.yul\":10877:10931   */\n      swap1\n      pop\n        /* \"#utility.yul\":10792:10937   */\n      swap2\n      swap1\n      pop\n      jump\t// out\n        /* \"#utility.yul\":10943:11104   */\n    tag_272:\n        /* \"#utility.yul\":11045:11097   */\n      tag_432\n        /* \"#utility.yul\":11091:11096   */\n      dup2\n        /* \"#utility.yul\":11045:11097   */\n      tag_271\n      jump\t// in\n    tag_432:\n        /* \"#utility.yul\":11040:11043   */\n      dup3\n        /* \"#utility.yul\":11033:11098   */\n      mstore\n        /* \"#utility.yul\":10943:11104   */\n      pop\n      pop\n      jump\t// out\n        /* \"#utility.yul\":11110:11502   */\n    tag_83:\n        /* \"#utility.yul\":11261:11265   */\n      0x00\n        /* \"#utility.yul\":11299:11301   */\n      0x40\n        /* \"#utility.yul\":11288:11297   */\n      dup3\n        /* \"#utility.yul\":11284:11302   */\n      add\n        /* \"#utility.yul\":11276:11302   */\n      swap1\n      pop\n        /* \"#utility.yul\":11312:11398   */\n      tag_434\n        /* \"#utility.yul\":11395:11396   */\n      0x00\n        /* \"#utility.yul\":11384:11393   */\n      dup4\n        /* \"#utility.yul\":11380:11397   */\n      add\n        /* \"#utility.yul\":11371:11377   */\n      dup6\n        /* \"#utility.yul\":11312:11398   */\n      tag_272\n      jump\t// in\n    tag_434:\n        /* \"#utility.yul\":11408:11495   */\n      tag_435\n        /* \"#utility.yul\":11491:11493   */\n      0x20\n        /* \"#utility.yul\":11480:11489   */\n      dup4\n        /* \"#utility.yul\":11476:11494   */\n      add\n        /* \"#utility.yul\":11467:11473   */\n      dup5\n        /* \"#utility.yul\":11408:11495   */\n      tag_272\n      jump\t// in\n    tag_435:\n        /* \"#utility.yul\":11110:11502   */\n      swap4\n      swap3\n      pop\n      pop\n      pop\n      jump\t// out\n        /* \"#utility.yul\":11508:11677   */\n    tag_273:\n        /* \"#utility.yul\":11592:11603   */\n      0x00\n        /* \"#utility.yul\":11626:11632   */\n      dup3\n        /* \"#utility.yul\":11621:11624   */\n      dup3\n        /* \"#utility.yul\":11614:11633   */\n      mstore\n        /* \"#utility.yul\":11666:11670   */\n      0x20\n        /* \"#utility.yul\":11661:11664   */\n      dup3\n        /* \"#utility.yul\":11657:11671   */\n      add\n        /* \"#utility.yul\":11642:11671   */\n      swap1\n      pop\n        /* \"#utility.yul\":11508:11677   */\n      swap3\n      swap2\n      pop\n      pop\n      jump\t// out\n        /* \"#utility.yul\":11683:11918   */\n    tag_274:\n        /* \"#utility.yul\":11823:11857   */\n      0x566f746573206d757374206265207461696c6564206265666f726520616e6e6f\n        /* \"#utility.yul\":11819:11820   */\n      0x00\n        /* \"#utility.yul\":11811:11817   */\n      dup3\n        /* \"#utility.yul\":11807:11821   */\n      add\n        /* \"#utility.yul\":11800:11858   */\n      mstore\n        /* \"#utility.yul\":11892:11910   */\n      0x6e63696e67207468652077696e6e657200000000000000000000000000000000\n        /* \"#utility.yul\":11887:11889   */\n      0x20\n        /* \"#utility.yul\":11879:11885   */\n      dup3\n        /* \"#utility.yul\":11875:11890   */\n      add\n        /* \"#utility.yul\":11868:11911   */\n      mstore\n        /* \"#utility.yul\":11683:11918   */\n      pop\n      jump\t// out\n        /* \"#utility.yul\":11924:12290   */\n    tag_275:\n        /* \"#utility.yul\":12066:12069   */\n      0x00\n        /* \"#utility.yul\":12087:12154   */\n      tag_439\n        /* \"#utility.yul\":12151:12153   */\n      0x30\n        /* \"#utility.yul\":12146:12149   */\n      dup4\n        /* \"#utility.yul\":12087:12154   */\n      tag_273\n      jump\t// in\n    tag_439:\n        /* \"#utility.yul\":12080:12154   */\n      swap2\n      pop\n        /* \"#utility.yul\":12163:12256   */\n      tag_440\n        /* \"#utility.yul\":12252:12255   */\n      dup3\n        /* \"#utility.yul\":12163:12256   */\n      tag_274\n      jump\t// in\n    tag_440:\n        /* \"#utility.yul\":12281:12283   */\n      0x40\n        /* \"#utility.yul\":12276:12279   */\n      dup3\n        /* \"#utility.yul\":12272:12284   */\n      add\n        /* \"#utility.yul\":12265:12284   */\n      swap1\n      pop\n        /* \"#utility.yul\":11924:12290   */\n      swap2\n      swap1\n      pop\n      jump\t// out\n        /* \"#utility.yul\":12296:12715   */\n    tag_99:\n        /* \"#utility.yul\":12462:12466   */\n      0x00\n        /* \"#utility.yul\":12500:12502   */\n      0x20\n        /* \"#utility.yul\":12489:12498   */\n      dup3\n        /* \"#utility.yul\":12485:12503   */\n      add\n        /* \"#utility.yul\":12477:12503   */\n      swap1\n      pop\n        /* \"#utility.yul\":12549:12558   */\n      dup2\n        /* \"#utility.yul\":12543:12547   */\n      dup2\n        /* \"#utility.yul\":12539:12559   */\n      sub\n        /* \"#utility.yul\":12535:12536   */\n      0x00\n        /* \"#utility.yul\":12524:12533   */\n      dup4\n        /* \"#utility.yul\":12520:12537   */\n      add\n        /* \"#utility.yul\":12513:12560   */\n      mstore\n        /* \"#utility.yul\":12577:12708   */\n      tag_442\n        /* \"#utility.yul\":12703:12707   */\n      dup2\n        /* \"#utility.yul\":12577:12708   */\n      tag_275\n      jump\t// in\n    tag_442:\n        /* \"#utility.yul\":12569:12708   */\n      swap1\n      pop\n        /* \"#utility.yul\":12296:12715   */\n      swap2\n      swap1\n      pop\n      jump\t// out\n        /* \"#utility.yul\":12721:12893   */\n    tag_276:\n        /* \"#utility.yul\":12861:12885   */\n      0x4e6f2070726f706f73616c7320617661696c61626c6500000000000000000000\n        /* \"#utility.yul\":12857:12858   */\n      0x00\n        /* \"#utility.yul\":12849:12855   */\n      dup3\n        /* \"#utility.yul\":12845:12859   */\n      add\n        /* \"#utility.yul\":12838:12886   */\n      mstore\n        /* \"#utility.yul\":12721:12893   */\n      pop\n      jump\t// out\n        /* \"#utility.yul\":12899:13265   */\n    tag_277:\n        /* \"#utility.yul\":13041:13044   */\n      0x00\n        /* \"#utility.yul\":13062:13129   */\n      tag_445\n        /* \"#utility.yul\":13126:13128   */\n      0x16\n        /* \"#utility.yul\":13121:13124   */\n      dup4\n        /* \"#utility.yul\":13062:13129   */\n      tag_273\n      jump\t// in\n    tag_445:\n        /* \"#utility.yul\":13055:13129   */\n      swap2\n      pop\n        /* \"#utility.yul\":13138:13231   */\n      tag_446\n        /* \"#utility.yul\":13227:13230   */\n      dup3\n        /* \"#utility.yul\":13138:13231   */\n      tag_276\n      jump\t// in\n    tag_446:\n        /* \"#utility.yul\":13256:13258   */\n      0x20\n        /* \"#utility.yul\":13251:13254   */\n      dup3\n        /* \"#utility.yul\":13247:13259   */\n      add\n        /* \"#utility.yul\":13240:13259   */\n      swap1\n      pop\n        /* \"#utility.yul\":12899:13265   */\n      swap2\n      swap1\n      pop\n      jump\t// out\n        /* \"#utility.yul\":13271:13690   */\n    tag_102:\n        /* \"#utility.yul\":13437:13441   */\n      0x00\n        /* \"#utility.yul\":13475:13477   */\n      0x20\n        /* \"#utility.yul\":13464:13473   */\n      dup3\n        /* \"#utility.yul\":13460:13478   */\n      add\n        /* \"#utility.yul\":13452:13478   */\n      swap1\n      pop\n        /* \"#utility.yul\":13524:13533   */\n      dup2\n        /* \"#utility.yul\":13518:13522   */\n      dup2\n        /* \"#utility.yul\":13514:13534   */\n      sub\n        /* \"#utility.yul\":13510:13511   */\n      0x00\n        /* \"#utility.yul\":13499:13508   */\n      dup4\n        /* \"#utility.yul\":13495:13512   */\n      add\n        /* \"#utility.yul\":13488:13535   */\n      mstore\n        /* \"#utility.yul\":13552:13683   */\n      tag_448\n        /* \"#utility.yul\":13678:13682   */\n      dup2\n        /* \"#utility.yul\":13552:13683   */\n      tag_277\n      jump\t// in\n    tag_448:\n        /* \"#utility.yul\":13544:13683   */\n      swap1\n      pop\n        /* \"#utility.yul\":13271:13690   */\n      swap2\n      swap1\n      pop\n      jump\t// out\n        /* \"#utility.yul\":13696:13876   */\n    tag_110:\n        /* \"#utility.yul\":13744:13821   */\n      0x4e487b7100000000000000000000000000000000000000000000000000000000\n        /* \"#utility.yul\":13741:13742   */\n      0x00\n        /* \"#utility.yul\":13734:13822   */\n      mstore\n        /* \"#utility.yul\":13841:13845   */\n      0x32\n        /* \"#utility.yul\":13838:13839   */\n      0x04\n        /* \"#utility.yul\":13831:13846   */\n      mstore\n        /* \"#utility.yul\":13865:13869   */\n      0x24\n        /* \"#utility.yul\":13862:13863   */\n      0x00\n        /* \"#utility.yul\":13855:13870   */\n      revert\n        /* \"#utility.yul\":13882:14031   */\n    tag_278:\n        /* \"#utility.yul\":13931:13937   */\n      0x00\n        /* \"#utility.yul\":13965:13970   */\n      dup2\n        /* \"#utility.yul\":13959:13971   */\n      sload\n        /* \"#utility.yul\":13949:13971   */\n      swap1\n      pop\n        /* \"#utility.yul\":13991:14024   */\n      tag_451\n        /* \"#utility.yul\":14017:14023   */\n      dup2\n        /* \"#utility.yul\":13991:14024   */\n      tag_56\n      jump\t// in\n    tag_451:\n        /* \"#utility.yul\":13981:14024   */\n      swap1\n      pop\n        /* \"#utility.yul\":13882:14031   */\n      swap2\n      swap1\n      pop\n      jump\t// out\n        /* \"#utility.yul\":14037:14178   */\n    tag_279:\n        /* \"#utility.yul\":14086:14090   */\n      0x00\n        /* \"#utility.yul\":14109:14112   */\n      dup2\n        /* \"#utility.yul\":14101:14112   */\n      swap1\n      pop\n        /* \"#utility.yul\":14132:14135   */\n      dup2\n        /* \"#utility.yul\":14129:14130   */\n      0x00\n        /* \"#utility.yul\":14122:14136   */\n      mstore\n        /* \"#utility.yul\":14166:14170   */\n      0x20\n        /* \"#utility.yul\":14163:14164   */\n      0x00\n        /* \"#utility.yul\":14153:14171   */\n      keccak256\n        /* \"#utility.yul\":14145:14171   */\n      swap1\n      pop\n        /* \"#utility.yul\":14037:14178   */\n      swap2\n      swap1\n      pop\n      jump\t// out\n        /* \"#utility.yul\":14184:14277   */\n    tag_280:\n        /* \"#utility.yul\":14221:14227   */\n      0x00\n        /* \"#utility.yul\":14268:14270   */\n      0x20\n        /* \"#utility.yul\":14263:14265   */\n      0x1f\n        /* \"#utility.yul\":14256:14261   */\n      dup4\n        /* \"#utility.yul\":14252:14266   */\n      add\n        /* \"#utility.yul\":14248:14271   */\n      div\n        /* \"#utility.yul\":14238:14271   */\n      swap1\n      pop\n        /* \"#utility.yul\":14184:14277   */\n      swap2\n      swap1\n      pop\n      jump\t// out\n        /* \"#utility.yul\":14283:14390   */\n    tag_281:\n        /* \"#utility.yul\":14327:14335   */\n      0x00\n        /* \"#utility.yul\":14377:14382   */\n      dup3\n        /* \"#utility.yul\":14371:14375   */\n      dup3\n        /* \"#utility.yul\":14367:14383   */\n      shl\n        /* \"#utility.yul\":14346:14383   */\n      swap1\n      pop\n        /* \"#utility.yul\":14283:14390   */\n      swap3\n      swap2\n      pop\n      pop\n      jump\t// out\n        /* \"#utility.yul\":14396:14789   */\n    tag_282:\n        /* \"#utility.yul\":14465:14471   */\n      0x00\n        /* \"#utility.yul\":14515:14516   */\n      0x08\n        /* \"#utility.yul\":14503:14513   */\n      dup4\n        /* \"#utility.yul\":14499:14517   */\n      mul\n        /* \"#utility.yul\":14538:14635   */\n      tag_456\n        /* \"#utility.yul\":14568:14634   */\n      0xffffffffffffffffffffffffffffffffffffffffffffffffffffffffffffffff\n        /* \"#utility.yul\":14557:14566   */\n      dup3\n        /* \"#utility.yul\":14538:14635   */\n      tag_281\n      jump\t// in\n    tag_456:\n        /* \"#utility.yul\":14656:14695   */\n      tag_457\n        /* \"#utility.yul\":14686:14694   */\n      dup7\n        /* \"#utility.yul\":14675:14684   */\n      dup4\n        /* \"#utility.yul\":14656:14695   */\n      tag_281\n      jump\t// in\n    tag_457:\n        /* \"#utility.yul\":14644:14695   */\n      swap6\n      pop\n        /* \"#utility.yul\":14728:14732   */\n      dup1\n        /* \"#utility.yul\":14724:14733   */\n      not\n        /* \"#utility.yul\":14717:14722   */\n      dup5\n        /* \"#utility.yul\":14713:14734   */\n      and\n        /* \"#utility.yul\":14704:14734   */\n      swap4\n      pop\n        /* \"#utility.yul\":14777:14781   */\n      dup1\n        /* \"#utility.yul\":14767:14775   */\n      dup7\n        /* \"#utility.yul\":14763:14782   */\n      and\n        /* \"#utility.yul\":14756:14761   */\n      dup5\n        /* \"#utility.yul\":14753:14783   */\n      or\n        /* \"#utility.yul\":14743:14783   */\n      swap3\n      pop\n        /* \"#utility.yul\":14472:14789   */\n      pop\n      pop\n        /* \"#utility.yul\":14396:14789   */\n      swap4\n      swap3\n      pop\n      pop\n      pop\n      jump\t// out\n        /* \"#utility.yul\":14795:14855   */\n    tag_283:\n        /* \"#utility.yul\":14823:14826   */\n      0x00\n        /* \"#utility.yul\":14844:14849   */\n      dup2\n        /* \"#utility.yul\":14837:14849   */\n      swap1\n      pop\n        /* \"#utility.yul\":14795:14855   */\n      swap2\n      swap1\n      pop\n      jump\t// out\n        /* \"#utility.yul\":14861:15003   */\n    tag_284:\n        /* \"#utility.yul\":14911:14920   */\n      0x00\n        /* \"#utility.yul\":14944:14997   */\n      tag_460\n        /* \"#utility.yul\":14962:14996   */\n      tag_461\n        /* \"#utility.yul\":14971:14995   */\n      tag_462\n        /* \"#utility.yul\":14989:14994   */\n      dup5\n        /* \"#utility.yul\":14971:14995   */\n      tag_241\n      jump\t// in\n    tag_462:\n        /* \"#utility.yul\":14962:14996   */\n      tag_283\n      jump\t// in\n    tag_461:\n        /* \"#utility.yul\":14944:14997   */\n      tag_241\n      jump\t// in\n    tag_460:\n        /* \"#utility.yul\":14931:14997   */\n      swap1\n      pop\n        /* \"#utility.yul\":14861:15003   */\n      swap2\n      swap1\n      pop\n      jump\t// out\n        /* \"#utility.yul\":15009:15084   */\n    tag_285:\n        /* \"#utility.yul\":15052:15055   */\n      0x00\n        /* \"#utility.yul\":15073:15078   */\n      dup2\n        /* \"#utility.yul\":15066:15078   */\n      swap1\n      pop\n        /* \"#utility.yul\":15009:15084   */\n      swap2\n      swap1\n      pop\n      jump\t// out\n        /* \"#utility.yul\":15090:15359   */\n    tag_286:\n        /* \"#utility.yul\":15200:15239   */\n      tag_465\n        /* \"#utility.yul\":15231:15238   */\n      dup4\n        /* \"#utility.yul\":15200:15239   */\n      tag_284\n      jump\t// in\n    tag_465:\n        /* \"#utility.yul\":15261:15352   */\n      tag_466\n        /* \"#utility.yul\":15310:15351   */\n      tag_467\n        /* \"#utility.yul\":15334:15350   */\n      dup3\n        /* \"#utility.yul\":15310:15351   */\n      tag_285\n      jump\t// in\n    tag_467:\n        /* \"#utility.yul\":15302:15308   */\n      dup5\n        /* \"#utility.yul\":15295:15299   */\n      dup5\n        /* \"#utility.yul\":15289:15300   */\n      sload\n        /* \"#utility.yul\":15261:15352   */\n      tag_282\n      jump\t// in\n    tag_466:\n        /* \"#utility.yul\":15255:15259   */\n      dup3\n        /* \"#utility.yul\":15248:15353   */\n      sstore\n        /* \"#utility.yul\":15166:15359   */\n      pop\n        /* \"#utility.yul\":15090:15359   */\n      pop\n      pop\n      pop\n      jump\t// out\n        /* \"#utility.yul\":15365:15438   */\n    tag_287:\n        /* \"#utility.yul\":15410:15413   */\n      0x00\n        /* \"#utility.yul\":15431:15432   */\n      0x00\n        /* \"#utility.yul\":15424:15432   */\n      swap1\n      pop\n        /* \"#utility.yul\":15365:15438   */\n      swap1\n      jump\t// out\n        /* \"#utility.yul\":15444:15633   */\n    tag_288:\n        /* \"#utility.yul\":15521:15553   */\n      tag_470\n      tag_287\n      jump\t// in\n    tag_470:\n        /* \"#utility.yul\":15562:15627   */\n      tag_471\n        /* \"#utility.yul\":15620:15626   */\n      dup2\n        /* \"#utility.yul\":15612:15618   */\n      dup5\n        /* \"#utility.yul\":15606:15610   */\n      dup5\n        /* \"#utility.yul\":15562:15627   */\n      tag_286\n      jump\t// in\n    tag_471:\n        /* \"#utility.yul\":15497:15633   */\n      pop\n        /* \"#utility.yul\":15444:15633   */\n      pop\n      pop\n      jump\t// out\n        /* \"#utility.yul\":15639:15825   */\n    tag_289:\n        /* \"#utility.yul\":15699:15819   */\n    tag_473:\n        /* \"#utility.yul\":15716:15719   */\n      dup2\n        /* \"#utility.yul\":15709:15714   */\n      dup2\n        /* \"#utility.yul\":15706:15720   */\n      lt\n        /* \"#utility.yul\":15699:15819   */\n      iszero\n      tag_475\n      jumpi\n        /* \"#utility.yul\":15770:15809   */\n      tag_476\n        /* \"#utility.yul\":15807:15808   */\n      0x00\n        /* \"#utility.yul\":15800:15805   */\n      dup3\n        /* \"#utility.yul\":15770:15809   */\n      tag_288\n      jump\t// in\n    tag_476:\n        /* \"#utility.yul\":15743:15744   */\n      0x01\n        /* \"#utility.yul\":15736:15741   */\n      dup2\n        /* \"#utility.yul\":15732:15745   */\n      add\n        /* \"#utility.yul\":15723:15745   */\n      swap1\n      pop\n        /* \"#utility.yul\":15699:15819   */\n      jump(tag_473)\n    tag_475:\n        /* \"#utility.yul\":15639:15825   */\n      pop\n      pop\n      jump\t// out\n        /* \"#utility.yul\":15831:16374   */\n    tag_290:\n        /* \"#utility.yul\":15932:15934   */\n      0x1f\n        /* \"#utility.yul\":15927:15930   */\n      dup3\n        /* \"#utility.yul\":15924:15935   */\n      gt\n        /* \"#utility.yul\":15921:16367   */\n      iszero\n      tag_478\n      jumpi\n        /* \"#utility.yul\":15966:16004   */\n      tag_479\n        /* \"#utility.yul\":15998:16003   */\n      dup2\n        /* \"#utility.yul\":15966:16004   */\n      tag_279\n      jump\t// in\n    tag_479:\n        /* \"#utility.yul\":16050:16079   */\n      tag_480\n        /* \"#utility.yul\":16068:16078   */\n      dup5\n        /* \"#utility.yul\":16050:16079   */\n      tag_280\n      jump\t// in\n    tag_480:\n        /* \"#utility.yul\":16040:16048   */\n      dup2\n        /* \"#utility.yul\":16036:16080   */\n      add\n        /* \"#utility.yul\":16233:16235   */\n      0x20\n        /* \"#utility.yul\":16221:16231   */\n      dup6\n        /* \"#utility.yul\":16218:16236   */\n      lt\n        /* \"#utility.yul\":16215:16264   */\n      iszero\n      tag_481\n      jumpi\n        /* \"#utility.yul\":16254:16262   */\n      dup2\n        /* \"#utility.yul\":16239:16262   */\n      swap1\n      pop\n        /* \"#utility.yul\":16215:16264   */\n    tag_481:\n        /* \"#utility.yul\":16277:16357   */\n      tag_482\n        /* \"#utility.yul\":16333:16355   */\n      tag_483\n        /* \"#utility.yul\":16351:16354   */\n      dup6\n        /* \"#utility.yul\":16333:16355   */\n      tag_280\n      jump\t// in\n    tag_483:\n        /* \"#utility.yul\":16323:16331   */\n      dup4\n        /* \"#utility.yul\":16319:16356   */\n      add\n        /* \"#utility.yul\":16306:16317   */\n      dup3\n        /* \"#utility.yul\":16277:16357   */\n      tag_289\n      jump\t// in\n    tag_482:\n        /* \"#utility.yul\":15936:16367   */\n      pop\n      pop\n        /* \"#utility.yul\":15921:16367   */\n    tag_478:\n        /* \"#utility.yul\":15831:16374   */\n      pop\n      pop\n      pop\n      jump\t// out\n        /* \"#utility.yul\":16380:16497   */\n    tag_291:\n        /* \"#utility.yul\":16434:16442   */\n      0x00\n        /* \"#utility.yul\":16484:16489   */\n      dup3\n        /* \"#utility.yul\":16478:16482   */\n      dup3\n        /* \"#utility.yul\":16474:16490   */\n      shr\n        /* \"#utility.yul\":16453:16490   */\n      swap1\n      pop\n        /* \"#utility.yul\":16380:16497   */\n      swap3\n      swap2\n      pop\n      pop\n      jump\t// out\n        /* \"#utility.yul\":16503:16672   */\n    tag_292:\n        /* \"#utility.yul\":16547:16553   */\n      0x00\n        /* \"#utility.yul\":16580:16631   */\n      tag_486\n        /* \"#utility.yul\":16628:16629   */\n      0x00\n        /* \"#utility.yul\":16624:16630   */\n      not\n        /* \"#utility.yul\":16616:16621   */\n      dup5\n        /* \"#utility.yul\":16613:16614   */\n      0x08\n        /* \"#utility.yul\":16609:16622   */\n      mul\n        /* \"#utility.yul\":16580:16631   */\n      tag_291\n      jump\t// in\n    tag_486:\n        /* \"#utility.yul\":16576:16632   */\n      not\n        /* \"#utility.yul\":16661:16665   */\n      dup1\n        /* \"#utility.yul\":16655:16659   */\n      dup4\n        /* \"#utility.yul\":16651:16666   */\n      and\n        /* \"#utility.yul\":16641:16666   */\n      swap2\n      pop\n        /* \"#utility.yul\":16554:16672   */\n      pop\n        /* \"#utility.yul\":16503:16672   */\n      swap3\n      swap2\n      pop\n      pop\n      jump\t// out\n        /* \"#utility.yul\":16677:16972   */\n    tag_293:\n        /* \"#utility.yul\":16753:16757   */\n      0x00\n        /* \"#utility.yul\":16899:16928   */\n      tag_488\n        /* \"#utility.yul\":16924:16927   */\n      dup4\n        /* \"#utility.yul\":16918:16922   */\n      dup4\n        /* \"#utility.yul\":16899:16928   */\n      tag_292\n      jump\t// in\n    tag_488:\n        /* \"#utility.yul\":16891:16928   */\n      swap2\n      pop\n        /* \"#utility.yul\":16961:16964   */\n      dup3\n        /* \"#utility.yul\":16958:16959   */\n      0x02\n        /* \"#utility.yul\":16954:16965   */\n      mul\n        /* \"#utility.yul\":16948:16952   */\n      dup3\n        /* \"#utility.yul\":16945:16966   */\n      or\n        /* \"#utility.yul\":16937:16966   */\n      swap1\n      pop\n        /* \"#utility.yul\":16677:16972   */\n      swap3\n      swap2\n      pop\n      pop\n      jump\t// out\n        /* \"#utility.yul\":16977:18428   */\n    tag_128:\n        /* \"#utility.yul\":17088:17091   */\n      dup2\n        /* \"#utility.yul\":17082:17086   */\n      dup2\n        /* \"#utility.yul\":17079:17092   */\n      sub\n        /* \"#utility.yul\":17076:17102   */\n      tag_490\n      jumpi\n        /* \"#utility.yul\":17095:17100   */\n      pop\n      pop\n      jump(tag_489)\n        /* \"#utility.yul\":17076:17102   */\n    tag_490:\n        /* \"#utility.yul\":17126:17160   */\n      tag_491\n        /* \"#utility.yul\":17156:17159   */\n      dup3\n        /* \"#utility.yul\":17126:17160   */\n      tag_278\n      jump\t// in\n    tag_491:\n        /* \"#utility.yul\":17225:17243   */\n      0xffffffffffffffff\n        /* \"#utility.yul\":17217:17223   */\n      dup2\n        /* \"#utility.yul\":17214:17244   */\n      gt\n        /* \"#utility.yul\":17211:17267   */\n      iszero\n      tag_492\n      jumpi\n        /* \"#utility.yul\":17247:17265   */\n      tag_493\n      tag_260\n      jump\t// in\n    tag_493:\n        /* \"#utility.yul\":17211:17267   */\n    tag_492:\n        /* \"#utility.yul\":17291:17329   */\n      tag_494\n        /* \"#utility.yul\":17323:17327   */\n      dup3\n        /* \"#utility.yul\":17317:17328   */\n      sload\n        /* \"#utility.yul\":17291:17329   */\n      tag_56\n      jump\t// in\n    tag_494:\n        /* \"#utility.yul\":17376:17443   */\n      tag_495\n        /* \"#utility.yul\":17436:17442   */\n      dup3\n        /* \"#utility.yul\":17428:17434   */\n      dup3\n        /* \"#utility.yul\":17422:17426   */\n      dup6\n        /* \"#utility.yul\":17376:17443   */\n      tag_290\n      jump\t// in\n    tag_495:\n        /* \"#utility.yul\":17470:17471   */\n      0x00\n        /* \"#utility.yul\":17499:17501   */\n      0x1f\n        /* \"#utility.yul\":17491:17497   */\n      dup4\n        /* \"#utility.yul\":17488:17502   */\n      gt\n        /* \"#utility.yul\":17516:17517   */\n      0x01\n        /* \"#utility.yul\":17511:18183   */\n      dup2\n      eq\n      tag_497\n      jumpi\n        /* \"#utility.yul\":18227:18228   */\n      0x00\n        /* \"#utility.yul\":18244:18250   */\n      dup5\n        /* \"#utility.yul\":18241:18318   */\n      iszero\n      tag_498\n      jumpi\n        /* \"#utility.yul\":18293:18302   */\n      dup3\n        /* \"#utility.yul\":18288:18291   */\n      dup8\n        /* \"#utility.yul\":18284:18303   */\n      add\n        /* \"#utility.yul\":18278:18304   */\n      sload\n        /* \"#utility.yul\":18269:18304   */\n      swap1\n      pop\n        /* \"#utility.yul\":18241:18318   */\n    tag_498:\n        /* \"#utility.yul\":18344:18411   */\n      tag_499\n        /* \"#utility.yul\":18404:18410   */\n      dup6\n        /* \"#utility.yul\":18397:18402   */\n      dup3\n        /* \"#utility.yul\":18344:18411   */\n      tag_293\n      jump\t// in\n    tag_499:\n        /* \"#utility.yul\":18338:18342   */\n      dup7\n        /* \"#utility.yul\":18331:18412   */\n      sstore\n        /* \"#utility.yul\":18200:18422   */\n      pop\n        /* \"#utility.yul\":17481:18422   */\n      jump(tag_496)\n        /* \"#utility.yul\":17511:18183   */\n    tag_497:\n        /* \"#utility.yul\":17563:17567   */\n      0x1f\n        /* \"#utility.yul\":17559:17568   */\n      not\n        /* \"#utility.yul\":17551:17557   */\n      dup5\n        /* \"#utility.yul\":17547:17569   */\n      and\n        /* \"#utility.yul\":17589:17625   */\n      tag_500\n        /* \"#utility.yul\":17621:17624   */\n      dup8\n        /* \"#utility.yul\":17589:17625   */\n      tag_279\n      jump\t// in\n    tag_500:\n        /* \"#utility.yul\":17582:17625   */\n      swap7\n      pop\n        /* \"#utility.yul\":17652:17689   */\n      tag_501\n        /* \"#utility.yul\":17684:17688   */\n      dup7\n        /* \"#utility.yul\":17652:17689   */\n      tag_279\n      jump\t// in\n    tag_501:\n        /* \"#utility.yul\":17711:17712   */\n      0x00\n        /* \"#utility.yul\":17725:17932   */\n    tag_502:\n        /* \"#utility.yul\":17739:17746   */\n      dup3\n        /* \"#utility.yul\":17736:17737   */\n      dup2\n        /* \"#utility.yul\":17733:17747   */\n      lt\n        /* \"#utility.yul\":17725:17932   */\n      iszero\n      tag_504\n      jumpi\n        /* \"#utility.yul\":17818:17827   */\n      dup5\n        /* \"#utility.yul\":17813:17816   */\n      dup10\n        /* \"#utility.yul\":17809:17828   */\n      add\n        /* \"#utility.yul\":17803:17829   */\n      sload\n        /* \"#utility.yul\":17795:17801   */\n      dup3\n        /* \"#utility.yul\":17788:17830   */\n      sstore\n        /* \"#utility.yul\":17869:17870   */\n      0x01\n        /* \"#utility.yul\":17861:17867   */\n      dup3\n        /* \"#utility.yul\":17857:17871   */\n      add\n        /* \"#utility.yul\":17847:17871   */\n      swap2\n      pop\n        /* \"#utility.yul\":17916:17917   */\n      0x01\n        /* \"#utility.yul\":17905:17914   */\n      dup6\n        /* \"#utility.yul\":17901:17918   */\n      add\n        /* \"#utility.yul\":17888:17918   */\n      swap5\n      pop\n        /* \"#utility.yul\":17762:17766   */\n      0x20\n        /* \"#utility.yul\":17759:17760   */\n      dup2\n        /* \"#utility.yul\":17755:17767   */\n      add\n        /* \"#utility.yul\":17750:17767   */\n      swap1\n      pop\n        /* \"#utility.yul\":17725:17932   */\n      jump(tag_502)\n    tag_504:\n        /* \"#utility.yul\":17960:17966   */\n      dup7\n        /* \"#utility.yul\":17951:17958   */\n      dup4\n        /* \"#utility.yul\":17948:17967   */\n      lt\n        /* \"#utility.yul\":17945:18124   */\n      iszero\n      tag_505\n      jumpi\n        /* \"#utility.yul\":18018:18027   */\n      dup5\n        /* \"#utility.yul\":18013:18016   */\n      dup10\n        /* \"#utility.yul\":18009:18028   */\n      add\n        /* \"#utility.yul\":18003:18029   */\n      sload\n        /* \"#utility.yul\":18061:18109   */\n      tag_506\n        /* \"#utility.yul\":18103:18107   */\n      0x1f\n        /* \"#utility.yul\":18095:18101   */\n      dup10\n        /* \"#utility.yul\":18091:18108   */\n      and\n        /* \"#utility.yul\":18080:18089   */\n      dup3\n        /* \"#utility.yul\":18061:18109   */\n      tag_292\n      jump\t// in\n    tag_506:\n        /* \"#utility.yul\":18053:18059   */\n      dup4\n        /* \"#utility.yul\":18046:18110   */\n      sstore\n        /* \"#utility.yul\":17968:18124   */\n      pop\n        /* \"#utility.yul\":17945:18124   */\n    tag_505:\n        /* \"#utility.yul\":18170:18171   */\n      0x01\n        /* \"#utility.yul\":18166:18167   */\n      0x02\n        /* \"#utility.yul\":18158:18164   */\n      dup9\n        /* \"#utility.yul\":18154:18168   */\n      mul\n        /* \"#utility.yul\":18150:18172   */\n      add\n        /* \"#utility.yul\":18144:18148   */\n      dup9\n        /* \"#utility.yul\":18137:18173   */\n      sstore\n        /* \"#utility.yul\":17518:18183   */\n      pop\n      pop\n      pop\n        /* \"#utility.yul\":17481:18422   */\n    tag_496:\n      pop\n        /* \"#utility.yul\":17066:18428   */\n      pop\n      pop\n      pop\n        /* \"#utility.yul\":16977:18428   */\n      pop\n      pop\n    tag_489:\n      jump\t// out\n        /* \"#utility.yul\":18434:18597   */\n    tag_294:\n        /* \"#utility.yul\":18574:18589   */\n      0x4e6f2077696e6e65722079657400000000000000000000000000000000000000\n        /* \"#utility.yul\":18570:18571   */\n      0x00\n        /* \"#utility.yul\":18562:18568   */\n      dup3\n        /* \"#utility.yul\":18558:18572   */\n      add\n        /* \"#utility.yul\":18551:18590   */\n      mstore\n        /* \"#utility.yul\":18434:18597   */\n      pop\n      jump\t// out\n        /* \"#utility.yul\":18603:18969   */\n    tag_295:\n        /* \"#utility.yul\":18745:18748   */\n      0x00\n        /* \"#utility.yul\":18766:18833   */\n      tag_509\n        /* \"#utility.yul\":18830:18832   */\n      0x0d\n        /* \"#utility.yul\":18825:18828   */\n      dup4\n        /* \"#utility.yul\":18766:18833   */\n      tag_273\n      jump\t// in\n    tag_509:\n        /* \"#utility.yul\":18759:18833   */\n      swap2\n      pop\n        /* \"#utility.yul\":18842:18935   */\n      tag_510\n        /* \"#utility.yul\":18931:18934   */\n      dup3\n        /* \"#utility.yul\":18842:18935   */\n      tag_294\n      jump\t// in\n    tag_510:\n        /* \"#utility.yul\":18960:18962   */\n      0x20\n        /* \"#utility.yul\":18955:18958   */\n      dup3\n        /* \"#utility.yul\":18951:18963   */\n      add\n        /* \"#utility.yul\":18944:18963   */\n      swap1\n      pop\n        /* \"#utility.yul\":18603:18969   */\n      swap2\n      swap1\n      pop\n      jump\t// out\n        /* \"#utility.yul\":18975:19394   */\n    tag_132:\n        /* \"#utility.yul\":19141:19145   */\n      0x00\n        /* \"#utility.yul\":19179:19181   */\n      0x20\n        /* \"#utility.yul\":19168:19177   */\n      dup3\n        /* \"#utility.yul\":19164:19182   */\n      add\n        /* \"#utility.yul\":19156:19182   */\n      swap1\n      pop\n        /* \"#utility.yul\":19228:19237   */\n      dup2\n        /* \"#utility.yul\":19222:19226   */\n      dup2\n        /* \"#utility.yul\":19218:19238   */\n      sub\n        /* \"#utility.yul\":19214:19215   */\n      0x00\n        /* \"#utility.yul\":19203:19212   */\n      dup4\n        /* \"#utility.yul\":19199:19216   */\n      add\n        /* \"#utility.yul\":19192:19239   */\n      mstore\n        /* \"#utility.yul\":19256:19387   */\n      tag_512\n        /* \"#utility.yul\":19382:19386   */\n      dup2\n        /* \"#utility.yul\":19256:19387   */\n      tag_295\n      jump\t// in\n    tag_512:\n        /* \"#utility.yul\":19248:19387   */\n      swap1\n      pop\n        /* \"#utility.yul\":18975:19394   */\n      swap2\n      swap1\n      pop\n      jump\t// out\n        /* \"#utility.yul\":19400:19636   */\n    tag_296:\n        /* \"#utility.yul\":19540:19574   */\n      0x416464726573732063616e206265206164646564206f6e6c7920696e20526567\n        /* \"#utility.yul\":19536:19537   */\n      0x00\n        /* \"#utility.yul\":19528:19534   */\n      dup3\n        /* \"#utility.yul\":19524:19538   */\n      add\n        /* \"#utility.yul\":19517:19575   */\n      mstore\n        /* \"#utility.yul\":19609:19628   */\n      0x697374726174696f6e2070686173653a30000000000000000000000000000000\n        /* \"#utility.yul\":19604:19606   */\n      0x20\n        /* \"#utility.yul\":19596:19602   */\n      dup3\n        /* \"#utility.yul\":19592:19607   */\n      add\n        /* \"#utility.yul\":19585:19629   */\n      mstore\n        /* \"#utility.yul\":19400:19636   */\n      pop\n      jump\t// out\n        /* \"#utility.yul\":19642:20008   */\n    tag_297:\n        /* \"#utility.yul\":19784:19787   */\n      0x00\n        /* \"#utility.yul\":19805:19872   */\n      tag_515\n        /* \"#utility.yul\":19869:19871   */\n      0x31\n        /* \"#utility.yul\":19864:19867   */\n      dup4\n        /* \"#utility.yul\":19805:19872   */\n      tag_273\n      jump\t// in\n    tag_515:\n        /* \"#utility.yul\":19798:19872   */\n      swap2\n      pop\n        /* \"#utility.yul\":19881:19974   */\n      tag_516\n        /* \"#utility.yul\":19970:19973   */\n      dup3\n        /* \"#utility.yul\":19881:19974   */\n      tag_296\n      jump\t// in\n    tag_516:\n        /* \"#utility.yul\":19999:20001   */\n      0x40\n        /* \"#utility.yul\":19994:19997   */\n      dup3\n        /* \"#utility.yul\":19990:20002   */\n      add\n        /* \"#utility.yul\":19983:20002   */\n      swap1\n      pop\n        /* \"#utility.yul\":19642:20008   */\n      swap2\n      swap1\n      pop\n      jump\t// out\n        /* \"#utility.yul\":20014:20433   */\n    tag_151:\n        /* \"#utility.yul\":20180:20184   */\n      0x00\n        /* \"#utility.yul\":20218:20220   */\n      0x20\n        /* \"#utility.yul\":20207:20216   */\n      dup3\n        /* \"#utility.yul\":20203:20221   */\n      add\n        /* \"#utility.yul\":20195:20221   */\n      swap1\n      pop\n        /* \"#utility.yul\":20267:20276   */\n      dup2\n        /* \"#utility.yul\":20261:20265   */\n      dup2\n        /* \"#utility.yul\":20257:20277   */\n      sub\n        /* \"#utility.yul\":20253:20254   */\n      0x00\n        /* \"#utility.yul\":20242:20251   */\n      dup4\n        /* \"#utility.yul\":20238:20255   */\n      add\n        /* \"#utility.yul\":20231:20278   */\n      mstore\n        /* \"#utility.yul\":20295:20426   */\n      tag_518\n        /* \"#utility.yul\":20421:20425   */\n      dup2\n        /* \"#utility.yul\":20295:20426   */\n      tag_297\n      jump\t// in\n    tag_518:\n        /* \"#utility.yul\":20287:20426   */\n      swap1\n      pop\n        /* \"#utility.yul\":20014:20433   */\n      swap2\n      swap1\n      pop\n      jump\t// out\n        /* \"#utility.yul\":20439:20615   */\n    tag_298:\n        /* \"#utility.yul\":20579:20607   */\n      0x4164647265737320616c72656164792072656769737465726564000000000000\n        /* \"#utility.yul\":20575:20576   */\n      0x00\n        /* \"#utility.yul\":20567:20573   */\n      dup3\n        /* \"#utility.yul\":20563:20577   */\n      add\n        /* \"#utility.yul\":20556:20608   */\n      mstore\n        /* \"#utility.yul\":20439:20615   */\n      pop\n      jump\t// out\n        /* \"#utility.yul\":20621:20987   */\n    tag_299:\n        /* \"#utility.yul\":20763:20766   */\n      0x00\n        /* \"#utility.yul\":20784:20851   */\n      tag_521\n        /* \"#utility.yul\":20848:20850   */\n      0x1a\n        /* \"#utility.yul\":20843:20846   */\n      dup4\n        /* \"#utility.yul\":20784:20851   */\n      tag_273\n      jump\t// in\n    tag_521:\n        /* \"#utility.yul\":20777:20851   */\n      swap2\n      pop\n        /* \"#utility.yul\":20860:20953   */\n      tag_522\n        /* \"#utility.yul\":20949:20952   */\n      dup3\n        /* \"#utility.yul\":20860:20953   */\n      tag_298\n      jump\t// in\n    tag_522:\n        /* \"#utility.yul\":20978:20980   */\n      0x20\n        /* \"#utility.yul\":20973:20976   */\n      dup3\n        /* \"#utility.yul\":20969:20981   */\n      add\n        /* \"#utility.yul\":20962:20981   */\n      swap1\n      pop\n        /* \"#utility.yul\":20621:20987   */\n      swap2\n      swap1\n      pop\n      jump\t// out\n        /* \"#utility.yul\":20993:21412   */\n    tag_154:\n        /* \"#utility.yul\":21159:21163   */\n      0x00\n        /* \"#utility.yul\":21197:21199   */\n      0x20\n        /* \"#utility.yul\":21186:21195   */\n      dup3\n        /* \"#utility.yul\":21182:21200   */\n      add\n        /* \"#utility.yul\":21174:21200   */\n      swap1\n      pop\n        /* \"#utility.yul\":21246:21255   */\n      dup2\n        /* \"#utility.yul\":21240:21244   */\n      dup2\n        /* \"#utility.yul\":21236:21256   */\n      sub\n        /* \"#utility.yul\":21232:21233   */\n      0x00\n        /* \"#utility.yul\":21221:21230   */\n      dup4\n        /* \"#utility.yul\":21217:21234   */\n      add\n        /* \"#utility.yul\":21210:21257   */\n      mstore\n        /* \"#utility.yul\":21274:21405   */\n      tag_524\n        /* \"#utility.yul\":21400:21404   */\n      dup2\n        /* \"#utility.yul\":21274:21405   */\n      tag_299\n      jump\t// in\n    tag_524:\n        /* \"#utility.yul\":21266:21405   */\n      swap1\n      pop\n        /* \"#utility.yul\":20993:21412   */\n      swap2\n      swap1\n      pop\n      jump\t// out\n        /* \"#utility.yul\":21418:21651   */\n    tag_156:\n        /* \"#utility.yul\":21457:21460   */\n      0x00\n        /* \"#utility.yul\":21480:21504   */\n      tag_526\n        /* \"#utility.yul\":21498:21503   */\n      dup3\n        /* \"#utility.yul\":21480:21504   */\n      tag_241\n      jump\t// in\n    tag_526:\n        /* \"#utility.yul\":21471:21504   */\n      swap2\n      pop\n        /* \"#utility.yul\":21526:21592   */\n      0xffffffffffffffffffffffffffffffffffffffffffffffffffffffffffffffff\n        /* \"#utility.yul\":21519:21524   */\n      dup3\n        /* \"#utility.yul\":21516:21593   */\n      sub\n        /* \"#utility.yul\":21513:21616   */\n      tag_527\n      jumpi\n        /* \"#utility.yul\":21596:21614   */\n      tag_528\n      tag_268\n      jump\t// in\n    tag_528:\n        /* \"#utility.yul\":21513:21616   */\n    tag_527:\n        /* \"#utility.yul\":21643:21644   */\n      0x01\n        /* \"#utility.yul\":21636:21641   */\n      dup3\n        /* \"#utility.yul\":21632:21645   */\n      add\n        /* \"#utility.yul\":21625:21645   */\n      swap1\n      pop\n        /* \"#utility.yul\":21418:21651   */\n      swap2\n      swap1\n      pop\n      jump\t// out\n        /* \"#utility.yul\":21657:21884   */\n    tag_300:\n        /* \"#utility.yul\":21797:21831   */\n      0x566f7465732063616e20626520646f6e65206f6e6c7920696e20766f74696e67\n        /* \"#utility.yul\":21793:21794   */\n      0x00\n        /* \"#utility.yul\":21785:21791   */\n      dup3\n        /* \"#utility.yul\":21781:21795   */\n      add\n        /* \"#utility.yul\":21774:21832   */\n      mstore\n        /* \"#utility.yul\":21866:21876   */\n      0x2070686173653a33000000000000000000000000000000000000000000000000\n        /* \"#utility.yul\":21861:21863   */\n      0x20\n        /* \"#utility.yul\":21853:21859   */\n      dup3\n        /* \"#utility.yul\":21849:21864   */\n      add\n        /* \"#utility.yul\":21842:21877   */\n      mstore\n        /* \"#utility.yul\":21657:21884   */\n      pop\n      jump\t// out\n        /* \"#utility.yul\":21890:22256   */\n    tag_301:\n        /* \"#utility.yul\":22032:22035   */\n      0x00\n        /* \"#utility.yul\":22053:22120   */\n      tag_531\n        /* \"#utility.yul\":22117:22119   */\n      0x28\n        /* \"#utility.yul\":22112:22115   */\n      dup4\n        /* \"#utility.yul\":22053:22120   */\n      tag_273\n      jump\t// in\n    tag_531:\n        /* \"#utility.yul\":22046:22120   */\n      swap2\n      pop\n        /* \"#utility.yul\":22129:22222   */\n      tag_532\n        /* \"#utility.yul\":22218:22221   */\n      dup3\n        /* \"#utility.yul\":22129:22222   */\n      tag_300\n      jump\t// in\n    tag_532:\n        /* \"#utility.yul\":22247:22249   */\n      0x40\n        /* \"#utility.yul\":22242:22245   */\n      dup3\n        /* \"#utility.yul\":22238:22250   */\n      add\n        /* \"#utility.yul\":22231:22250   */\n      swap1\n      pop\n        /* \"#utility.yul\":21890:22256   */\n      swap2\n      swap1\n      pop\n      jump\t// out\n        /* \"#utility.yul\":22262:22681   */\n    tag_165:\n        /* \"#utility.yul\":22428:22432   */\n      0x00\n        /* \"#utility.yul\":22466:22468   */\n      0x20\n        /* \"#utility.yul\":22455:22464   */\n      dup3\n        /* \"#utility.yul\":22451:22469   */\n      add\n        /* \"#utility.yul\":22443:22469   */\n      swap1\n      pop\n        /* \"#utility.yul\":22515:22524   */\n      dup2\n        /* \"#utility.yul\":22509:22513   */\n      dup2\n        /* \"#utility.yul\":22505:22525   */\n      sub\n        /* \"#utility.yul\":22501:22502   */\n      0x00\n        /* \"#utility.yul\":22490:22499   */\n      dup4\n        /* \"#utility.yul\":22486:22503   */\n      add\n        /* \"#utility.yul\":22479:22526   */\n      mstore\n        /* \"#utility.yul\":22543:22674   */\n      tag_534\n        /* \"#utility.yul\":22669:22673   */\n      dup2\n        /* \"#utility.yul\":22543:22674   */\n      tag_301\n      jump\t// in\n    tag_534:\n        /* \"#utility.yul\":22535:22674   */\n      swap1\n      pop\n        /* \"#utility.yul\":22262:22681   */\n      swap2\n      swap1\n      pop\n      jump\t// out\n        /* \"#utility.yul\":22687:22982   */\n    tag_302:\n        /* \"#utility.yul\":22827:22861   */\n      0x596f75206861766520746f20676574206174206c656174206f6e652070726f70\n        /* \"#utility.yul\":22823:22824   */\n      0x00\n        /* \"#utility.yul\":22815:22821   */\n      dup3\n        /* \"#utility.yul\":22811:22825   */\n      add\n        /* \"#utility.yul\":22804:22862   */\n      mstore\n        /* \"#utility.yul\":22896:22930   */\n      0x6f73616c20696e206f7264657220746f2070726f63656564206120766f74696e\n        /* \"#utility.yul\":22891:22893   */\n      0x20\n        /* \"#utility.yul\":22883:22889   */\n      dup3\n        /* \"#utility.yul\":22879:22894   */\n      add\n        /* \"#utility.yul\":22872:22931   */\n      mstore\n        /* \"#utility.yul\":22965:22974   */\n      0x6720706861736500000000000000000000000000000000000000000000000000\n        /* \"#utility.yul\":22960:22962   */\n      0x40\n        /* \"#utility.yul\":22952:22958   */\n      dup3\n        /* \"#utility.yul\":22948:22963   */\n      add\n        /* \"#utility.yul\":22941:22975   */\n      mstore\n        /* \"#utility.yul\":22687:22982   */\n      pop\n      jump\t// out\n        /* \"#utility.yul\":22988:23354   */\n    tag_303:\n        /* \"#utility.yul\":23130:23133   */\n      0x00\n        /* \"#utility.yul\":23151:23218   */\n      tag_537\n        /* \"#utility.yul\":23215:23217   */\n      0x47\n        /* \"#utility.yul\":23210:23213   */\n      dup4\n        /* \"#utility.yul\":23151:23218   */\n      tag_273\n      jump\t// in\n    tag_537:\n        /* \"#utility.yul\":23144:23218   */\n      swap2\n      pop\n        /* \"#utility.yul\":23227:23320   */\n      tag_538\n        /* \"#utility.yul\":23316:23319   */\n      dup3\n        /* \"#utility.yul\":23227:23320   */\n      tag_302\n      jump\t// in\n    tag_538:\n        /* \"#utility.yul\":23345:23347   */\n      0x60\n        /* \"#utility.yul\":23340:23343   */\n      dup3\n        /* \"#utility.yul\":23336:23348   */\n      add\n        /* \"#utility.yul\":23329:23348   */\n      swap1\n      pop\n        /* \"#utility.yul\":22988:23354   */\n      swap2\n      swap1\n      pop\n      jump\t// out\n        /* \"#utility.yul\":23360:23779   */\n    tag_168:\n        /* \"#utility.yul\":23526:23530   */\n      0x00\n        /* \"#utility.yul\":23564:23566   */\n      0x20\n        /* \"#utility.yul\":23553:23562   */\n      dup3\n        /* \"#utility.yul\":23549:23567   */\n      add\n        /* \"#utility.yul\":23541:23567   */\n      swap1\n      pop\n        /* \"#utility.yul\":23613:23622   */\n      dup2\n        /* \"#utility.yul\":23607:23611   */\n      dup2\n        /* \"#utility.yul\":23603:23623   */\n      sub\n        /* \"#utility.yul\":23599:23600   */\n      0x00\n        /* \"#utility.yul\":23588:23597   */\n      dup4\n        /* \"#utility.yul\":23584:23601   */\n      add\n        /* \"#utility.yul\":23577:23624   */\n      mstore\n        /* \"#utility.yul\":23641:23772   */\n      tag_540\n        /* \"#utility.yul\":23767:23771   */\n      dup2\n        /* \"#utility.yul\":23641:23772   */\n      tag_303\n      jump\t// in\n    tag_540:\n        /* \"#utility.yul\":23633:23772   */\n      swap1\n      pop\n        /* \"#utility.yul\":23360:23779   */\n      swap2\n      swap1\n      pop\n      jump\t// out\n        /* \"#utility.yul\":23785:23967   */\n    tag_304:\n        /* \"#utility.yul\":23925:23959   */\n      0x596f75206172206e6f742072656769737465726564206173206120766f746572\n        /* \"#utility.yul\":23921:23922   */\n      0x00\n        /* \"#utility.yul\":23913:23919   */\n      dup3\n        /* \"#utility.yul\":23909:23923   */\n      add\n        /* \"#utility.yul\":23902:23960   */\n      mstore\n        /* \"#utility.yul\":23785:23967   */\n      pop\n      jump\t// out\n        /* \"#utility.yul\":23973:24339   */\n    tag_305:\n        /* \"#utility.yul\":24115:24118   */\n      0x00\n        /* \"#utility.yul\":24136:24203   */\n      tag_543\n        /* \"#utility.yul\":24200:24202   */\n      0x20\n        /* \"#utility.yul\":24195:24198   */\n      dup4\n        /* \"#utility.yul\":24136:24203   */\n      tag_273\n      jump\t// in\n    tag_543:\n        /* \"#utility.yul\":24129:24203   */\n      swap2\n      pop\n        /* \"#utility.yul\":24212:24305   */\n      tag_544\n        /* \"#utility.yul\":24301:24304   */\n      dup3\n        /* \"#utility.yul\":24212:24305   */\n      tag_304\n      jump\t// in\n    tag_544:\n        /* \"#utility.yul\":24330:24332   */\n      0x20\n        /* \"#utility.yul\":24325:24328   */\n      dup3\n        /* \"#utility.yul\":24321:24333   */\n      add\n        /* \"#utility.yul\":24314:24333   */\n      swap1\n      pop\n        /* \"#utility.yul\":23973:24339   */\n      swap2\n      swap1\n      pop\n      jump\t// out\n        /* \"#utility.yul\":24345:24764   */\n    tag_171:\n        /* \"#utility.yul\":24511:24515   */\n      0x00\n        /* \"#utility.yul\":24549:24551   */\n      0x20\n        /* \"#utility.yul\":24538:24547   */\n      dup3\n        /* \"#utility.yul\":24534:24552   */\n      add\n        /* \"#utility.yul\":24526:24552   */\n      swap1\n      pop\n        /* \"#utility.yul\":24598:24607   */\n      dup2\n        /* \"#utility.yul\":24592:24596   */\n      dup2\n        /* \"#utility.yul\":24588:24608   */\n      sub\n        /* \"#utility.yul\":24584:24585   */\n      0x00\n        /* \"#utility.yul\":24573:24582   */\n      dup4\n        /* \"#utility.yul\":24569:24586   */\n      add\n        /* \"#utility.yul\":24562:24609   */\n      mstore\n        /* \"#utility.yul\":24626:24757   */\n      tag_546\n        /* \"#utility.yul\":24752:24756   */\n      dup2\n        /* \"#utility.yul\":24626:24757   */\n      tag_305\n      jump\t// in\n    tag_546:\n        /* \"#utility.yul\":24618:24757   */\n      swap1\n      pop\n        /* \"#utility.yul\":24345:24764   */\n      swap2\n      swap1\n      pop\n      jump\t// out\n        /* \"#utility.yul\":24770:24942   */\n    tag_306:\n        /* \"#utility.yul\":24910:24934   */\n      0x596f75206861766520616c726561647920766f74656400000000000000000000\n        /* \"#utility.yul\":24906:24907   */\n      0x00\n        /* \"#utility.yul\":24898:24904   */\n      dup3\n        /* \"#utility.yul\":24894:24908   */\n      add\n        /* \"#utility.yul\":24887:24935   */\n      mstore\n        /* \"#utility.yul\":24770:24942   */\n      pop\n      jump\t// out\n        /* \"#utility.yul\":24948:25314   */\n    tag_307:\n        /* \"#utility.yul\":25090:25093   */\n      0x00\n        /* \"#utility.yul\":25111:25178   */\n      tag_549\n        /* \"#utility.yul\":25175:25177   */\n      0x16\n        /* \"#utility.yul\":25170:25173   */\n      dup4\n        /* \"#utility.yul\":25111:25178   */\n      tag_273\n      jump\t// in\n    tag_549:\n        /* \"#utility.yul\":25104:25178   */\n      swap2\n      pop\n        /* \"#utility.yul\":25187:25280   */\n      tag_550\n        /* \"#utility.yul\":25276:25279   */\n      dup3\n        /* \"#utility.yul\":25187:25280   */\n      tag_306\n      jump\t// in\n    tag_550:\n        /* \"#utility.yul\":25305:25307   */\n      0x20\n        /* \"#utility.yul\":25300:25303   */\n      dup3\n        /* \"#utility.yul\":25296:25308   */\n      add\n        /* \"#utility.yul\":25289:25308   */\n      swap1\n      pop\n        /* \"#utility.yul\":24948:25314   */\n      swap2\n      swap1\n      pop\n      jump\t// out\n        /* \"#utility.yul\":25320:25739   */\n    tag_174:\n        /* \"#utility.yul\":25486:25490   */\n      0x00\n        /* \"#utility.yul\":25524:25526   */\n      0x20\n        /* \"#utility.yul\":25513:25522   */\n      dup3\n        /* \"#utility.yul\":25509:25527   */\n      add\n        /* \"#utility.yul\":25501:25527   */\n      swap1\n      pop\n        /* \"#utility.yul\":25573:25582   */\n      dup2\n        /* \"#utility.yul\":25567:25571   */\n      dup2\n        /* \"#utility.yul\":25563:25583   */\n      sub\n        /* \"#utility.yul\":25559:25560   */\n      0x00\n        /* \"#utility.yul\":25548:25557   */\n      dup4\n        /* \"#utility.yul\":25544:25561   */\n      add\n        /* \"#utility.yul\":25537:25584   */\n      mstore\n        /* \"#utility.yul\":25601:25732   */\n      tag_552\n        /* \"#utility.yul\":25727:25731   */\n      dup2\n        /* \"#utility.yul\":25601:25732   */\n      tag_307\n      jump\t// in\n    tag_552:\n        /* \"#utility.yul\":25593:25732   */\n      swap1\n      pop\n        /* \"#utility.yul\":25320:25739   */\n      swap2\n      swap1\n      pop\n      jump\t// out\n        /* \"#utility.yul\":25745:25918   */\n    tag_308:\n        /* \"#utility.yul\":25885:25910   */\n      0x496e76616c69642070726f706f73616c2063686f696365000000000000000000\n        /* \"#utility.yul\":25881:25882   */\n      0x00\n        /* \"#utility.yul\":25873:25879   */\n      dup3\n        /* \"#utility.yul\":25869:25883   */\n      add\n        /* \"#utility.yul\":25862:25911   */\n      mstore\n        /* \"#utility.yul\":25745:25918   */\n      pop\n      jump\t// out\n        /* \"#utility.yul\":25924:26290   */\n    tag_309:\n        /* \"#utility.yul\":26066:26069   */\n      0x00\n        /* \"#utility.yul\":26087:26154   */\n      tag_555\n        /* \"#utility.yul\":26151:26153   */\n      0x17\n        /* \"#utility.yul\":26146:26149   */\n      dup4\n        /* \"#utility.yul\":26087:26154   */\n      tag_273\n      jump\t// in\n    tag_555:\n        /* \"#utility.yul\":26080:26154   */\n      swap2\n      pop\n        /* \"#utility.yul\":26163:26256   */\n      tag_556\n        /* \"#utility.yul\":26252:26255   */\n      dup3\n        /* \"#utility.yul\":26163:26256   */\n      tag_308\n      jump\t// in\n    tag_556:\n        /* \"#utility.yul\":26281:26283   */\n      0x20\n        /* \"#utility.yul\":26276:26279   */\n      dup3\n        /* \"#utility.yul\":26272:26284   */\n      add\n        /* \"#utility.yul\":26265:26284   */\n      swap1\n      pop\n        /* \"#utility.yul\":25924:26290   */\n      swap2\n      swap1\n      pop\n      jump\t// out\n        /* \"#utility.yul\":26296:26715   */\n    tag_177:\n        /* \"#utility.yul\":26462:26466   */\n      0x00\n        /* \"#utility.yul\":26500:26502   */\n      0x20\n        /* \"#utility.yul\":26489:26498   */\n      dup3\n        /* \"#utility.yul\":26485:26503   */\n      add\n        /* \"#utility.yul\":26477:26503   */\n      swap1\n      pop\n        /* \"#utility.yul\":26549:26558   */\n      dup2\n        /* \"#utility.yul\":26543:26547   */\n      dup2\n        /* \"#utility.yul\":26539:26559   */\n      sub\n        /* \"#utility.yul\":26535:26536   */\n      0x00\n        /* \"#utility.yul\":26524:26533   */\n      dup4\n        /* \"#utility.yul\":26520:26537   */\n      add\n        /* \"#utility.yul\":26513:26560   */\n      mstore\n        /* \"#utility.yul\":26577:26708   */\n      tag_558\n        /* \"#utility.yul\":26703:26707   */\n      dup2\n        /* \"#utility.yul\":26577:26708   */\n      tag_309\n      jump\t// in\n    tag_558:\n        /* \"#utility.yul\":26569:26708   */\n      swap1\n      pop\n        /* \"#utility.yul\":26296:26715   */\n      swap2\n      swap1\n      pop\n      jump\t// out\n        /* \"#utility.yul\":26721:27053   */\n    tag_183:\n        /* \"#utility.yul\":26842:26846   */\n      0x00\n        /* \"#utility.yul\":26880:26882   */\n      0x40\n        /* \"#utility.yul\":26869:26878   */\n      dup3\n        /* \"#utility.yul\":26865:26883   */\n      add\n        /* \"#utility.yul\":26857:26883   */\n      swap1\n      pop\n        /* \"#utility.yul\":26893:26964   */\n      tag_560\n        /* \"#utility.yul\":26961:26962   */\n      0x00\n        /* \"#utility.yul\":26950:26959   */\n      dup4\n        /* \"#utility.yul\":26946:26963   */\n      add\n        /* \"#utility.yul\":26937:26943   */\n      dup6\n        /* \"#utility.yul\":26893:26964   */\n      tag_249\n      jump\t// in\n    tag_560:\n        /* \"#utility.yul\":26974:27046   */\n      tag_561\n        /* \"#utility.yul\":27042:27044   */\n      0x20\n        /* \"#utility.yul\":27031:27040   */\n      dup4\n        /* \"#utility.yul\":27027:27045   */\n      add\n        /* \"#utility.yul\":27018:27024   */\n      dup5\n        /* \"#utility.yul\":26974:27046   */\n      tag_250\n      jump\t// in\n    tag_561:\n        /* \"#utility.yul\":26721:27053   */\n      swap4\n      swap3\n      pop\n      pop\n      pop\n      jump\t// out\n        /* \"#utility.yul\":27059:27305   */\n    tag_310:\n        /* \"#utility.yul\":27199:27233   */\n      0x50726f706f73616c2063616e206265206164646573206f6e6c7920696e205072\n        /* \"#utility.yul\":27195:27196   */\n      0x00\n        /* \"#utility.yul\":27187:27193   */\n      dup3\n        /* \"#utility.yul\":27183:27197   */\n      add\n        /* \"#utility.yul\":27176:27234   */\n      mstore\n        /* \"#utility.yul\":27268:27297   */\n      0x6f706f73616c20526567697374726174696f6e2070686173653a310000000000\n        /* \"#utility.yul\":27263:27265   */\n      0x20\n        /* \"#utility.yul\":27255:27261   */\n      dup3\n        /* \"#utility.yul\":27251:27266   */\n      add\n        /* \"#utility.yul\":27244:27298   */\n      mstore\n        /* \"#utility.yul\":27059:27305   */\n      pop\n      jump\t// out\n        /* \"#utility.yul\":27311:27677   */\n    tag_311:\n        /* \"#utility.yul\":27453:27456   */\n      0x00\n        /* \"#utility.yul\":27474:27541   */\n      tag_564\n        /* \"#utility.yul\":27538:27540   */\n      0x3b\n        /* \"#utility.yul\":27533:27536   */\n      dup4\n        /* \"#utility.yul\":27474:27541   */\n      tag_273\n      jump\t// in\n    tag_564:\n        /* \"#utility.yul\":27467:27541   */\n      swap2\n      pop\n        /* \"#utility.yul\":27550:27643   */\n      tag_565\n        /* \"#utility.yul\":27639:27642   */\n      dup3\n        /* \"#utility.yul\":27550:27643   */\n      tag_310\n      jump\t// in\n    tag_565:\n        /* \"#utility.yul\":27668:27670   */\n      0x40\n        /* \"#utility.yul\":27663:27666   */\n      dup3\n        /* \"#utility.yul\":27659:27671   */\n      add\n        /* \"#utility.yul\":27652:27671   */\n      swap1\n      pop\n        /* \"#utility.yul\":27311:27677   */\n      swap2\n      swap1\n      pop\n      jump\t// out\n        /* \"#utility.yul\":27683:28102   */\n    tag_191:\n        /* \"#utility.yul\":27849:27853   */\n      0x00\n        /* \"#utility.yul\":27887:27889   */\n      0x20\n        /* \"#utility.yul\":27876:27885   */\n      dup3\n        /* \"#utility.yul\":27872:27890   */\n      add\n        /* \"#utility.yul\":27864:27890   */\n      swap1\n      pop\n        /* \"#utility.yul\":27936:27945   */\n      dup2\n        /* \"#utility.yul\":27930:27934   */\n      dup2\n        /* \"#utility.yul\":27926:27946   */\n      sub\n        /* \"#utility.yul\":27922:27923   */\n      0x00\n        /* \"#utility.yul\":27911:27920   */\n      dup4\n        /* \"#utility.yul\":27907:27924   */\n      add\n        /* \"#utility.yul\":27900:27947   */\n      mstore\n        /* \"#utility.yul\":27964:28095   */\n      tag_567\n        /* \"#utility.yul\":28090:28094   */\n      dup2\n        /* \"#utility.yul\":27964:28095   */\n      tag_311\n      jump\t// in\n    tag_567:\n        /* \"#utility.yul\":27956:28095   */\n      swap1\n      pop\n        /* \"#utility.yul\":27683:28102   */\n      swap2\n      swap1\n      pop\n      jump\t// out\n        /* \"#utility.yul\":28108:28338   */\n    tag_312:\n        /* \"#utility.yul\":28248:28282   */\n      0x57686974656c697374206d75737420636f6e7461696e206174206c6561737420\n        /* \"#utility.yul\":28244:28245   */\n      0x00\n        /* \"#utility.yul\":28236:28242   */\n      dup3\n        /* \"#utility.yul\":28232:28246   */\n      add\n        /* \"#utility.yul\":28225:28283   */\n      mstore\n        /* \"#utility.yul\":28317:28330   */\n      0x6f6e652061646472657373000000000000000000000000000000000000000000\n        /* \"#utility.yul\":28312:28314   */\n      0x20\n        /* \"#utility.yul\":28304:28310   */\n      dup3\n        /* \"#utility.yul\":28300:28315   */\n      add\n        /* \"#utility.yul\":28293:28331   */\n      mstore\n        /* \"#utility.yul\":28108:28338   */\n      pop\n      jump\t// out\n        /* \"#utility.yul\":28344:28710   */\n    tag_313:\n        /* \"#utility.yul\":28486:28489   */\n      0x00\n        /* \"#utility.yul\":28507:28574   */\n      tag_570\n        /* \"#utility.yul\":28571:28573   */\n      0x2b\n        /* \"#utility.yul\":28566:28569   */\n      dup4\n        /* \"#utility.yul\":28507:28574   */\n      tag_273\n      jump\t// in\n    tag_570:\n        /* \"#utility.yul\":28500:28574   */\n      swap2\n      pop\n        /* \"#utility.yul\":28583:28676   */\n      tag_571\n        /* \"#utility.yul\":28672:28675   */\n      dup3\n        /* \"#utility.yul\":28583:28676   */\n      tag_312\n      jump\t// in\n    tag_571:\n        /* \"#utility.yul\":28701:28703   */\n      0x40\n        /* \"#utility.yul\":28696:28699   */\n      dup3\n        /* \"#utility.yul\":28692:28704   */\n      add\n        /* \"#utility.yul\":28685:28704   */\n      swap1\n      pop\n        /* \"#utility.yul\":28344:28710   */\n      swap2\n      swap1\n      pop\n      jump\t// out\n        /* \"#utility.yul\":28716:29135   */\n    tag_194:\n        /* \"#utility.yul\":28882:28886   */\n      0x00\n        /* \"#utility.yul\":28920:28922   */\n      0x20\n        /* \"#utility.yul\":28909:28918   */\n      dup3\n        /* \"#utility.yul\":28905:28923   */\n      add\n        /* \"#utility.yul\":28897:28923   */\n      swap1\n      pop\n        /* \"#utility.yul\":28969:28978   */\n      dup2\n        /* \"#utility.yul\":28963:28967   */\n      dup2\n        /* \"#utility.yul\":28959:28979   */\n      sub\n        /* \"#utility.yul\":28955:28956   */\n      0x00\n        /* \"#utility.yul\":28944:28953   */\n      dup4\n        /* \"#utility.yul\":28940:28957   */\n      add\n        /* \"#utility.yul\":28933:28980   */\n      mstore\n        /* \"#utility.yul\":28997:29128   */\n      tag_573\n        /* \"#utility.yul\":29123:29127   */\n      dup2\n        /* \"#utility.yul\":28997:29128   */\n      tag_313\n      jump\t// in\n    tag_573:\n        /* \"#utility.yul\":28989:29128   */\n      swap1\n      pop\n        /* \"#utility.yul\":28716:29135   */\n      swap2\n      swap1\n      pop\n      jump\t// out\n        /* \"#utility.yul\":29141:29321   */\n    tag_314:\n        /* \"#utility.yul\":29281:29313   */\n      0x596f757220616472657373206973206e6f742077686974656c69737465640000\n        /* \"#utility.yul\":29277:29278   */\n      0x00\n        /* \"#utility.yul\":29269:29275   */\n      dup3\n        /* \"#utility.yul\":29265:29279   */\n      add\n        /* \"#utility.yul\":29258:29314   */\n      mstore\n        /* \"#utility.yul\":29141:29321   */\n      pop\n      jump\t// out\n        /* \"#utility.yul\":29327:29693   */\n    tag_315:\n        /* \"#utility.yul\":29469:29472   */\n      0x00\n        /* \"#utility.yul\":29490:29557   */\n      tag_576\n        /* \"#utility.yul\":29554:29556   */\n      0x1e\n        /* \"#utility.yul\":29549:29552   */\n      dup4\n        /* \"#utility.yul\":29490:29557   */\n      tag_273\n      jump\t// in\n    tag_576:\n        /* \"#utility.yul\":29483:29557   */\n      swap2\n      pop\n        /* \"#utility.yul\":29566:29659   */\n      tag_577\n        /* \"#utility.yul\":29655:29658   */\n      dup3\n        /* \"#utility.yul\":29566:29659   */\n      tag_314\n      jump\t// in\n    tag_577:\n        /* \"#utility.yul\":29684:29686   */\n      0x20\n        /* \"#utility.yul\":29679:29682   */\n      dup3\n        /* \"#utility.yul\":29675:29687   */\n      add\n        /* \"#utility.yul\":29668:29687   */\n      swap1\n      pop\n        /* \"#utility.yul\":29327:29693   */\n      swap2\n      swap1\n      pop\n      jump\t// out\n        /* \"#utility.yul\":29699:30118   */\n    tag_197:\n        /* \"#utility.yul\":29865:29869   */\n      0x00\n        /* \"#utility.yul\":29903:29905   */\n      0x20\n        /* \"#utility.yul\":29892:29901   */\n      dup3\n        /* \"#utility.yul\":29888:29906   */\n      add\n        /* \"#utility.yul\":29880:29906   */\n      swap1\n      pop\n        /* \"#utility.yul\":29952:29961   */\n      dup2\n        /* \"#utility.yul\":29946:29950   */\n      dup2\n        /* \"#utility.yul\":29942:29962   */\n      sub\n        /* \"#utility.yul\":29938:29939   */\n      0x00\n        /* \"#utility.yul\":29927:29936   */\n      dup4\n        /* \"#utility.yul\":29923:29940   */\n      add\n        /* \"#utility.yul\":29916:29963   */\n      mstore\n        /* \"#utility.yul\":29980:30111   */\n      tag_579\n        /* \"#utility.yul\":30106:30110   */\n      dup2\n        /* \"#utility.yul\":29980:30111   */\n      tag_315\n      jump\t// in\n    tag_579:\n        /* \"#utility.yul\":29972:30111   */\n      swap1\n      pop\n        /* \"#utility.yul\":29699:30118   */\n      swap2\n      swap1\n      pop\n      jump\t// out\n        /* \"#utility.yul\":30124:31519   */\n    tag_200:\n        /* \"#utility.yul\":30241:30278   */\n      tag_581\n        /* \"#utility.yul\":30274:30277   */\n      dup3\n        /* \"#utility.yul\":30241:30278   */\n      tag_236\n      jump\t// in\n    tag_581:\n        /* \"#utility.yul\":30343:30361   */\n      0xffffffffffffffff\n        /* \"#utility.yul\":30335:30341   */\n      dup2\n        /* \"#utility.yul\":30332:30362   */\n      gt\n        /* \"#utility.yul\":30329:30385   */\n      iszero\n      tag_582\n      jumpi\n        /* \"#utility.yul\":30365:30383   */\n      tag_583\n      tag_260\n      jump\t// in\n    tag_583:\n        /* \"#utility.yul\":30329:30385   */\n    tag_582:\n        /* \"#utility.yul\":30409:30447   */\n      tag_584\n        /* \"#utility.yul\":30441:30445   */\n      dup3\n        /* \"#utility.yul\":30435:30446   */\n      sload\n        /* \"#utility.yul\":30409:30447   */\n      tag_56\n      jump\t// in\n    tag_584:\n        /* \"#utility.yul\":30494:30561   */\n      tag_585\n        /* \"#utility.yul\":30554:30560   */\n      dup3\n        /* \"#utility.yul\":30546:30552   */\n      dup3\n        /* \"#utility.yul\":30540:30544   */\n      dup6\n        /* \"#utility.yul\":30494:30561   */\n      tag_290\n      jump\t// in\n    tag_585:\n        /* \"#utility.yul\":30588:30589   */\n      0x00\n        /* \"#utility.yul\":30612:30616   */\n      0x20\n        /* \"#utility.yul\":30599:30616   */\n      swap1\n      pop\n        /* \"#utility.yul\":30644:30646   */\n      0x1f\n        /* \"#utility.yul\":30636:30642   */\n      dup4\n        /* \"#utility.yul\":30633:30647   */\n      gt\n        /* \"#utility.yul\":30661:30662   */\n      0x01\n        /* \"#utility.yul\":30656:31274   */\n      dup2\n      eq\n      tag_587\n      jumpi\n        /* \"#utility.yul\":31318:31319   */\n      0x00\n        /* \"#utility.yul\":31335:31341   */\n      dup5\n        /* \"#utility.yul\":31332:31409   */\n      iszero\n      tag_588\n      jumpi\n        /* \"#utility.yul\":31384:31393   */\n      dup3\n        /* \"#utility.yul\":31379:31382   */\n      dup8\n        /* \"#utility.yul\":31375:31394   */\n      add\n        /* \"#utility.yul\":31369:31395   */\n      mload\n        /* \"#utility.yul\":31360:31395   */\n      swap1\n      pop\n        /* \"#utility.yul\":31332:31409   */\n    tag_588:\n        /* \"#utility.yul\":31435:31502   */\n      tag_589\n        /* \"#utility.yul\":31495:31501   */\n      dup6\n        /* \"#utility.yul\":31488:31493   */\n      dup3\n        /* \"#utility.yul\":31435:31502   */\n      tag_293\n      jump\t// in\n    tag_589:\n        /* \"#utility.yul\":31429:31433   */\n      dup7\n        /* \"#utility.yul\":31422:31503   */\n      sstore\n        /* \"#utility.yul\":31291:31513   */\n      pop\n        /* \"#utility.yul\":30626:31513   */\n      jump(tag_586)\n        /* \"#utility.yul\":30656:31274   */\n    tag_587:\n        /* \"#utility.yul\":30708:30712   */\n      0x1f\n        /* \"#utility.yul\":30704:30713   */\n      not\n        /* \"#utility.yul\":30696:30702   */\n      dup5\n        /* \"#utility.yul\":30692:30714   */\n      and\n        /* \"#utility.yul\":30742:30779   */\n      tag_590\n        /* \"#utility.yul\":30774:30778   */\n      dup7\n        /* \"#utility.yul\":30742:30779   */\n      tag_279\n      jump\t// in\n    tag_590:\n        /* \"#utility.yul\":30801:30802   */\n      0x00\n        /* \"#utility.yul\":30815:31023   */\n    tag_591:\n        /* \"#utility.yul\":30829:30836   */\n      dup3\n        /* \"#utility.yul\":30826:30827   */\n      dup2\n        /* \"#utility.yul\":30823:30837   */\n      lt\n        /* \"#utility.yul\":30815:31023   */\n      iszero\n      tag_593\n      jumpi\n        /* \"#utility.yul\":30908:30917   */\n      dup5\n        /* \"#utility.yul\":30903:30906   */\n      dup10\n        /* \"#utility.yul\":30899:30918   */\n      add\n        /* \"#utility.yul\":30893:30919   */\n      mload\n        /* \"#utility.yul\":30885:30891   */\n      dup3\n        /* \"#utility.yul\":30878:30920   */\n      sstore\n        /* \"#utility.yul\":30959:30960   */\n      0x01\n        /* \"#utility.yul\":30951:30957   */\n      dup3\n        /* \"#utility.yul\":30947:30961   */\n      add\n        /* \"#utility.yul\":30937:30961   */\n      swap2\n      pop\n        /* \"#utility.yul\":31006:31008   */\n      0x20\n        /* \"#utility.yul\":30995:31004   */\n      dup6\n        /* \"#utility.yul\":30991:31009   */\n      add\n        /* \"#utility.yul\":30978:31009   */\n      swap5\n      pop\n        /* \"#utility.yul\":30852:30856   */\n      0x20\n        /* \"#utility.yul\":30849:30850   */\n      dup2\n        /* \"#utility.yul\":30845:30857   */\n      add\n        /* \"#utility.yul\":30840:30857   */\n      swap1\n      pop\n        /* \"#utility.yul\":30815:31023   */\n      jump(tag_591)\n    tag_593:\n        /* \"#utility.yul\":31051:31057   */\n      dup7\n        /* \"#utility.yul\":31042:31049   */\n      dup4\n        /* \"#utility.yul\":31039:31058   */\n      lt\n        /* \"#utility.yul\":31036:31215   */\n      iszero\n      tag_594\n      jumpi\n        /* \"#utility.yul\":31109:31118   */\n      dup5\n        /* \"#utility.yul\":31104:31107   */\n      dup10\n        /* \"#utility.yul\":31100:31119   */\n      add\n        /* \"#utility.yul\":31094:31120   */\n      mload\n        /* \"#utility.yul\":31152:31200   */\n      tag_595\n        /* \"#utility.yul\":31194:31198   */\n      0x1f\n        /* \"#utility.yul\":31186:31192   */\n      dup10\n        /* \"#utility.yul\":31182:31199   */\n      and\n        /* \"#utility.yul\":31171:31180   */\n      dup3\n        /* \"#utility.yul\":31152:31200   */\n      tag_292\n      jump\t// in\n    tag_595:\n        /* \"#utility.yul\":31144:31150   */\n      dup4\n        /* \"#utility.yul\":31137:31201   */\n      sstore\n        /* \"#utility.yul\":31059:31215   */\n      pop\n        /* \"#utility.yul\":31036:31215   */\n    tag_594:\n        /* \"#utility.yul\":31261:31262   */\n      0x01\n        /* \"#utility.yul\":31257:31258   */\n      0x02\n        /* \"#utility.yul\":31249:31255   */\n      dup9\n        /* \"#utility.yul\":31245:31259   */\n      mul\n        /* \"#utility.yul\":31241:31263   */\n      add\n        /* \"#utility.yul\":31235:31239   */\n      dup9\n        /* \"#utility.yul\":31228:31264   */\n      sstore\n        /* \"#utility.yul\":30663:31274   */\n      pop\n      pop\n      pop\n        /* \"#utility.yul\":30626:31513   */\n    tag_586:\n      pop\n        /* \"#utility.yul\":30216:31519   */\n      pop\n      pop\n      pop\n        /* \"#utility.yul\":30124:31519   */\n      pop\n      pop\n      jump\t// out\n        /* \"#utility.yul\":31525:31719   */\n    tag_202:\n        /* \"#utility.yul\":31565:31569   */\n      0x00\n        /* \"#utility.yul\":31585:31605   */\n      tag_597\n        /* \"#utility.yul\":31603:31604   */\n      dup3\n        /* \"#utility.yul\":31585:31605   */\n      tag_241\n      jump\t// in\n    tag_597:\n        /* \"#utility.yul\":31580:31605   */\n      swap2\n      pop\n        /* \"#utility.yul\":31619:31639   */\n      tag_598\n        /* \"#utility.yul\":31637:31638   */\n      dup4\n        /* \"#utility.yul\":31619:31639   */\n      tag_241\n      jump\t// in\n    tag_598:\n        /* \"#utility.yul\":31614:31639   */\n      swap3\n      pop\n        /* \"#utility.yul\":31663:31664   */\n      dup3\n        /* \"#utility.yul\":31660:31661   */\n      dup3\n        /* \"#utility.yul\":31656:31665   */\n      sub\n        /* \"#utility.yul\":31648:31665   */\n      swap1\n      pop\n        /* \"#utility.yul\":31687:31688   */\n      dup2\n        /* \"#utility.yul\":31681:31685   */\n      dup2\n        /* \"#utility.yul\":31678:31689   */\n      gt\n        /* \"#utility.yul\":31675:31712   */\n      iszero\n      tag_599\n      jumpi\n        /* \"#utility.yul\":31692:31710   */\n      tag_600\n      tag_268\n      jump\t// in\n    tag_600:\n        /* \"#utility.yul\":31675:31712   */\n    tag_599:\n        /* \"#utility.yul\":31525:31719   */\n      swap3\n      swap2\n      pop\n      pop\n      jump\t// out\n\n    auxdata: 0xa264697066735822122004db2ec4453219299e0062b18c182132f2631e28596fd2e846f2334c6e3598dc64736f6c634300081b0033\n}\n",
				"bytecode": {
					"linkReferences": {},
					"object": "608060405234801561000f575f5ffd5b50335f73ffffffffffffffffffffffffffffffffffffffff168173ffffffffffffffffffffffffffffffffffffffff1603610081575f6040517f1e4fbdf700000000000000000000000000000000000000000000000000000000815260040161007891906101c0565b60405180910390fd5b610090816100c060201b60201c565b5060055f60146101000a81548160ff021916908360058111156100b6576100b56101d9565b5b0217905550610206565b5f5f5f9054906101000a900473ffffffffffffffffffffffffffffffffffffffff169050815f5f6101000a81548173ffffffffffffffffffffffffffffffffffffffff021916908373ffffffffffffffffffffffffffffffffffffffff1602179055508173ffffffffffffffffffffffffffffffffffffffff168173ffffffffffffffffffffffffffffffffffffffff167f8be0079c531659141344cd1fd0a4f28419497f9722a3daafe3b4186f6b6457e060405160405180910390a35050565b5f73ffffffffffffffffffffffffffffffffffffffff82169050919050565b5f6101aa82610181565b9050919050565b6101ba816101a0565b82525050565b5f6020820190506101d35f8301846101b1565b92915050565b7f4e487b71000000000000000000000000000000000000000000000000000000005f52602160045260245ffd5b6121b0806102135f395ff3fe608060405234801561000f575f5ffd5b50600436106100a7575f3560e01c8063ad38867e1161006f578063ad38867e14610105578063c08cc02d14610123578063cfdb63ac14610141578063dcd6a5cd1461015d578063e6adaecc14610179578063f2fde38b14610195576100a7565b806343344983146100ab5780634ea49925146100c9578063715018a6146100d35780638da5cb5b146100dd5780638e7ea5b2146100fb575b5f5ffd5b6100b36101b1565b6040516100c091906112bc565b60405180910390f35b6100d16102a6565b005b6100db6103de565b005b6100e56103f1565b6040516100f2919061131b565b60405180910390f35b610103610418565b005b61010d610613565b60405161011a91906112bc565b60405180910390f35b61012b61074f565b6040516101389190611343565b60405180910390f35b61015b60048036038101906101569190611397565b61075b565b005b610177600480360381019061017291906113ec565b6109ac565b005b610193600480360381019061018e9190611543565b610cd8565b005b6101af60048036038101906101aa9190611397565b610ec7565b005b60606003805480602002602001604051908101604052809291908181526020015f905b8282101561029d578382905f5260205f2090600202016040518060400160405290815f82018054610204906115b7565b80601f0160208091040260200160405190810160405280929190818152602001828054610230906115b7565b801561027b5780601f106102525761010080835404028352916020019161027b565b820191905f5260205f20905b81548152906001019060200180831161025e57829003601f168201915b50505050508152602001600182015481525050815260200190600101906101d4565b50505050905090565b6102ae610f4b565b5f5f60149054906101000a900460ff1690506005808111156102d3576102d26115e7565b5b5f60149054906101000a900460ff1660058111156102f4576102f36115e7565b5b03610327575f5f60146101000a81548160ff0219169083600581111561031d5761031c6115e7565b5b021790555061038f565b60015f60149054906101000a900460ff16600581111561034a576103496115e7565b5b6103549190611641565b6005811115610366576103656115e7565b5b5f60146101000a81548160ff02191690836005811115610389576103886115e7565b5b02179055505b5f5f60149054906101000a900460ff1690507f0a97a4ee45751e2abf3e4fc8946939630b11b371ea8ae39ccdc3056e98f5cc3f82826040516103d29291906116ba565b60405180910390a15050565b6103e6610f4b565b6103ef5f610fd2565b565b5f5f5f9054906101000a900473ffffffffffffffffffffffffffffffffffffffff16905090565b610420610f4b565b600580811115610433576104326115e7565b5b5f60149054906101000a900460ff166005811115610454576104536115e7565b5b14610494576040517f08c379a000000000000000000000000000000000000000000000000000000000815260040161048b90611761565b60405180910390fd5b5f600380549050116104db576040517f08c379a00000000000000000000000000000000000000000000000000000000081526004016104d2906117c9565b60405180910390fd5b5f5f905060055f6104ec919061109a565b5f5f90505b60038054905081101561055d578160038281548110610513576105126117e7565b5b905f5260205f209060020201600101541115610550576003818154811061053d5761053c6117e7565b5b905f5260205f2090600202016001015491505b80806001019150506104f1565b505f5f90505b60038054905081101561060f578160038281548110610585576105846117e7565b5b905f5260205f2090600202016001015403610602576005600382815481106105b0576105af6117e7565b5b905f5260205f209060020201908060018154018082558091505060019003905f5260205f2090600202015f909190919091505f8201815f0190816105f491906119c9565b506001820154816001015550505b8080600101915050610563565b5050565b60605f6003805490501161065c576040517f08c379a000000000000000000000000000000000000000000000000000000000815260040161065390611af8565b60405180910390fd5b6005805480602002602001604051908101604052809291908181526020015f905b82821015610746578382905f5260205f2090600202016040518060400160405290815f820180546106ad906115b7565b80601f01602080910402602001604051908101604052809291908181526020018280546106d9906115b7565b80156107245780601f106106fb57610100808354040283529160200191610724565b820191905f5260205f20905b81548152906001019060200180831161070757829003601f168201915b505050505081526020016001820154815250508152602001906001019061067d565b50505050905090565b5f600380549050905090565b610763610f4b565b5f6005811115610776576107756115e7565b5b5f60149054906101000a900460ff166005811115610797576107966115e7565b5b146107d7576040517f08c379a00000000000000000000000000000000000000000000000000000000081526004016107ce90611b86565b60405180910390fd5b60015f8273ffffffffffffffffffffffffffffffffffffffff1673ffffffffffffffffffffffffffffffffffffffff1681526020019081526020015f205f9054906101000a900460ff1615610861576040517f08c379a000000000000000000000000000000000000000000000000000000000815260040161085890611bee565b60405180910390fd5b60405180606001604052806001151581526020015f151581526020015f81525060025f8373ffffffffffffffffffffffffffffffffffffffff1673ffffffffffffffffffffffffffffffffffffffff1681526020019081526020015f205f820151815f015f6101000a81548160ff0219169083151502179055506020820151815f0160016101000a81548160ff021916908315150217905550604082015181600101559050506001805f8373ffffffffffffffffffffffffffffffffffffffff1673ffffffffffffffffffffffffffffffffffffffff1681526020019081526020015f205f6101000a81548160ff02191690831515021790555060045f81548092919061096d90611c0c565b91905055507fb6be2187d059cc2a55fe29e0e503b566e1e0f8c8780096e185429350acffd3dd816040516109a1919061131b565b60405180910390a150565b600360058111156109c0576109bf6115e7565b5b5f60149054906101000a900460ff1660058111156109e1576109e06115e7565b5b14610a21576040517f08c379a0000000000000000000000000000000000000000000000000000000008152600401610a1890611cc3565b60405180910390fd5b5f60038054905011610a68576040517f08c379a0000000000000000000000000000000000000000000000000000000008152600401610a5f90611d77565b60405180910390fd5b60025f3373ffffffffffffffffffffffffffffffffffffffff1673ffffffffffffffffffffffffffffffffffffffff1681526020019081526020015f205f015f9054906101000a900460ff16610af3576040517f08c379a0000000000000000000000000000000000000000000000000000000008152600401610aea90611ddf565b60405180910390fd5b60025f3373ffffffffffffffffffffffffffffffffffffffff1673ffffffffffffffffffffffffffffffffffffffff1681526020019081526020015f205f0160019054906101000a900460ff1615610b80576040517f08c379a0000000000000000000000000000000000000000000000000000000008152600401610b7790611e47565b60405180910390fd5b6003805490508110610bc7576040517f08c379a0000000000000000000000000000000000000000000000000000000008152600401610bbe90611eaf565b60405180910390fd5b600160025f3373ffffffffffffffffffffffffffffffffffffffff1673ffffffffffffffffffffffffffffffffffffffff1681526020019081526020015f205f0160016101000a81548160ff0219169083151502179055508060025f3373ffffffffffffffffffffffffffffffffffffffff1673ffffffffffffffffffffffffffffffffffffffff1681526020019081526020015f206001018190555060038181548110610c7857610c776117e7565b5b905f5260205f2090600202016001015f815480929190610c9790611c0c565b91905055507f4d99b957a2bc29a30ebd96a7be8e68fe50a3c701db28a91436490b7d53870ca43382604051610ccd929190611ecd565b60405180910390a150565b60016005811115610cec57610ceb6115e7565b5b5f60149054906101000a900460ff166005811115610d0d57610d0c6115e7565b5b14610d4d576040517f08c379a0000000000000000000000000000000000000000000000000000000008152600401610d4490611f64565b60405180910390fd5b5f60045411610d91576040517f08c379a0000000000000000000000000000000000000000000000000000000008152600401610d8890611ff2565b60405180910390fd5b60015f3373ffffffffffffffffffffffffffffffffffffffff1673ffffffffffffffffffffffffffffffffffffffff1681526020019081526020015f205f9054906101000a900460ff16610e1a576040517f08c379a0000000000000000000000000000000000000000000000000000000008152600401610e119061205a565b60405180910390fd5b600360405180604001604052808381526020015f815250908060018154018082558091505060019003905f5260205f2090600202015f909190919091505f820151815f019081610e6a9190612078565b506020820151816001015550505f6001600380549050610e8a9190612147565b90507f92e393e9b54e2f801d3ea4beb0c5e71a21cc34a5d34b77d0fb8a3aa1650dc18f81604051610ebb9190611343565b60405180910390a15050565b610ecf610f4b565b5f73ffffffffffffffffffffffffffffffffffffffff168173ffffffffffffffffffffffffffffffffffffffff1603610f3f575f6040517f1e4fbdf7000000000000000000000000000000000000000000000000000000008152600401610f36919061131b565b60405180910390fd5b610f4881610fd2565b50565b610f53611093565b73ffffffffffffffffffffffffffffffffffffffff16610f716103f1565b73ffffffffffffffffffffffffffffffffffffffff1614610fd057610f94611093565b6040517f118cdaa7000000000000000000000000000000000000000000000000000000008152600401610fc7919061131b565b60405180910390fd5b565b5f5f5f9054906101000a900473ffffffffffffffffffffffffffffffffffffffff169050815f5f6101000a81548173ffffffffffffffffffffffffffffffffffffffff021916908373ffffffffffffffffffffffffffffffffffffffff1602179055508173ffffffffffffffffffffffffffffffffffffffff168173ffffffffffffffffffffffffffffffffffffffff167f8be0079c531659141344cd1fd0a4f28419497f9722a3daafe3b4186f6b6457e060405160405180910390a35050565b5f33905090565b5080545f8255600202905f5260205f20908101906110b891906110bb565b50565b5b808211156110e3575f5f82015f6110d391906110e7565b600182015f9055506002016110bc565b5090565b5080546110f3906115b7565b5f825580601f106111045750611121565b601f0160209004905f5260205f20908101906111209190611124565b5b50565b5b8082111561113b575f815f905550600101611125565b5090565b5f81519050919050565b5f82825260208201905092915050565b5f819050602082019050919050565b5f81519050919050565b5f82825260208201905092915050565b8281835e5f83830152505050565b5f601f19601f8301169050919050565b5f6111aa82611168565b6111b48185611172565b93506111c4818560208601611182565b6111cd81611190565b840191505092915050565b5f819050919050565b6111ea816111d8565b82525050565b5f604083015f8301518482035f86015261120a82826111a0565b915050602083015161121f60208601826111e1565b508091505092915050565b5f61123583836111f0565b905092915050565b5f602082019050919050565b5f6112538261113f565b61125d8185611149565b93508360208202850161126f85611159565b805f5b858110156112aa578484038952815161128b858261122a565b94506112968361123d565b925060208a01995050600181019050611272565b50829750879550505050505092915050565b5f6020820190508181035f8301526112d48184611249565b905092915050565b5f73ffffffffffffffffffffffffffffffffffffffff82169050919050565b5f611305826112dc565b9050919050565b611315816112fb565b82525050565b5f60208201905061132e5f83018461130c565b92915050565b61133d816111d8565b82525050565b5f6020820190506113565f830184611334565b92915050565b5f604051905090565b5f5ffd5b5f5ffd5b611376816112fb565b8114611380575f5ffd5b50565b5f813590506113918161136d565b92915050565b5f602082840312156113ac576113ab611365565b5b5f6113b984828501611383565b91505092915050565b6113cb816111d8565b81146113d5575f5ffd5b50565b5f813590506113e6816113c2565b92915050565b5f6020828403121561140157611400611365565b5b5f61140e848285016113d8565b91505092915050565b5f5ffd5b5f5ffd5b7f4e487b71000000000000000000000000000000000000000000000000000000005f52604160045260245ffd5b61145582611190565b810181811067ffffffffffffffff821117156114745761147361141f565b5b80604052505050565b5f61148661135c565b9050611492828261144c565b919050565b5f67ffffffffffffffff8211156114b1576114b061141f565b5b6114ba82611190565b9050602081019050919050565b828183375f83830152505050565b5f6114e76114e284611497565b61147d565b9050828152602081018484840111156115035761150261141b565b5b61150e8482856114c7565b509392505050565b5f82601f83011261152a57611529611417565b5b813561153a8482602086016114d5565b91505092915050565b5f6020828403121561155857611557611365565b5b5f82013567ffffffffffffffff81111561157557611574611369565b5b61158184828501611516565b91505092915050565b7f4e487b71000000000000000000000000000000000000000000000000000000005f52602260045260245ffd5b5f60028204905060018216806115ce57607f821691505b6020821081036115e1576115e061158a565b5b50919050565b7f4e487b71000000000000000000000000000000000000000000000000000000005f52602160045260245ffd5b7f4e487b71000000000000000000000000000000000000000000000000000000005f52601160045260245ffd5b5f61164b826111d8565b9150611656836111d8565b925082820190508082111561166e5761166d611614565b5b92915050565b60068110611685576116846115e7565b5b50565b5f81905061169582611674565b919050565b5f6116a482611688565b9050919050565b6116b48161169a565b82525050565b5f6040820190506116cd5f8301856116ab565b6116da60208301846116ab565b9392505050565b5f82825260208201905092915050565b7f566f746573206d757374206265207461696c6564206265666f726520616e6e6f5f8201527f6e63696e67207468652077696e6e657200000000000000000000000000000000602082015250565b5f61174b6030836116e1565b9150611756826116f1565b604082019050919050565b5f6020820190508181035f8301526117788161173f565b9050919050565b7f4e6f2070726f706f73616c7320617661696c61626c65000000000000000000005f82015250565b5f6117b36016836116e1565b91506117be8261177f565b602082019050919050565b5f6020820190508181035f8301526117e0816117a7565b9050919050565b7f4e487b71000000000000000000000000000000000000000000000000000000005f52603260045260245ffd5b5f81549050611822816115b7565b9050919050565b5f819050815f5260205f209050919050565b5f6020601f8301049050919050565b5f82821b905092915050565b5f600883026118857fffffffffffffffffffffffffffffffffffffffffffffffffffffffffffffffff8261184a565b61188f868361184a565b95508019841693508086168417925050509392505050565b5f819050919050565b5f6118ca6118c56118c0846111d8565b6118a7565b6111d8565b9050919050565b5f819050919050565b6118e3836118b0565b6118f76118ef826118d1565b848454611856565b825550505050565b5f5f905090565b61190e6118ff565b6119198184846118da565b505050565b5b8181101561193c576119315f82611906565b60018101905061191f565b5050565b601f8211156119815761195281611829565b61195b8461183b565b8101602085101561196a578190505b61197e6119768561183b565b83018261191e565b50505b505050565b5f82821c905092915050565b5f6119a15f1984600802611986565b1980831691505092915050565b5f6119b98383611992565b9150826002028217905092915050565b8181036119d7575050611aac565b6119e082611814565b67ffffffffffffffff8111156119f9576119f861141f565b5b611a0382546115b7565b611a0e828285611940565b5f601f831160018114611a3b575f8415611a29578287015490505b611a3385826119ae565b865550611aa5565b601f198416611a4987611829565b9650611a5486611829565b5f5b82811015611a7b57848901548255600182019150600185019450602081019050611a56565b86831015611a985784890154611a94601f891682611992565b8355505b6001600288020188555050505b5050505050505b565b7f4e6f2077696e6e657220796574000000000000000000000000000000000000005f82015250565b5f611ae2600d836116e1565b9150611aed82611aae565b602082019050919050565b5f6020820190508181035f830152611b0f81611ad6565b9050919050565b7f416464726573732063616e206265206164646564206f6e6c7920696e205265675f8201527f697374726174696f6e2070686173653a30000000000000000000000000000000602082015250565b5f611b706031836116e1565b9150611b7b82611b16565b604082019050919050565b5f6020820190508181035f830152611b9d81611b64565b9050919050565b7f4164647265737320616c726561647920726567697374657265640000000000005f82015250565b5f611bd8601a836116e1565b9150611be382611ba4565b602082019050919050565b5f6020820190508181035f830152611c0581611bcc565b9050919050565b5f611c16826111d8565b91507fffffffffffffffffffffffffffffffffffffffffffffffffffffffffffffffff8203611c4857611c47611614565b5b600182019050919050565b7f566f7465732063616e20626520646f6e65206f6e6c7920696e20766f74696e675f8201527f2070686173653a33000000000000000000000000000000000000000000000000602082015250565b5f611cad6028836116e1565b9150611cb882611c53565b604082019050919050565b5f6020820190508181035f830152611cda81611ca1565b9050919050565b7f596f75206861766520746f20676574206174206c656174206f6e652070726f705f8201527f6f73616c20696e206f7264657220746f2070726f63656564206120766f74696e60208201527f6720706861736500000000000000000000000000000000000000000000000000604082015250565b5f611d616047836116e1565b9150611d6c82611ce1565b606082019050919050565b5f6020820190508181035f830152611d8e81611d55565b9050919050565b7f596f75206172206e6f742072656769737465726564206173206120766f7465725f82015250565b5f611dc96020836116e1565b9150611dd482611d95565b602082019050919050565b5f6020820190508181035f830152611df681611dbd565b9050919050565b7f596f75206861766520616c726561647920766f746564000000000000000000005f82015250565b5f611e316016836116e1565b9150611e3c82611dfd565b602082019050919050565b5f6020820190508181035f830152611e5e81611e25565b9050919050565b7f496e76616c69642070726f706f73616c2063686f6963650000000000000000005f82015250565b5f611e996017836116e1565b9150611ea482611e65565b602082019050919050565b5f6020820190508181035f830152611ec681611e8d565b9050919050565b5f604082019050611ee05f83018561130c565b611eed6020830184611334565b9392505050565b7f50726f706f73616c2063616e206265206164646573206f6e6c7920696e2050725f8201527f6f706f73616c20526567697374726174696f6e2070686173653a310000000000602082015250565b5f611f4e603b836116e1565b9150611f5982611ef4565b604082019050919050565b5f6020820190508181035f830152611f7b81611f42565b9050919050565b7f57686974656c697374206d75737420636f6e7461696e206174206c65617374205f8201527f6f6e652061646472657373000000000000000000000000000000000000000000602082015250565b5f611fdc602b836116e1565b9150611fe782611f82565b604082019050919050565b5f6020820190508181035f83015261200981611fd0565b9050919050565b7f596f757220616472657373206973206e6f742077686974656c697374656400005f82015250565b5f612044601e836116e1565b915061204f82612010565b602082019050919050565b5f6020820190508181035f83015261207181612038565b9050919050565b61208182611168565b67ffffffffffffffff81111561209a5761209961141f565b5b6120a482546115b7565b6120af828285611940565b5f60209050601f8311600181146120e0575f84156120ce578287015190505b6120d885826119ae565b86555061213f565b601f1984166120ee86611829565b5f5b82811015612115578489015182556001820191506020850194506020810190506120f0565b86831015612132578489015161212e601f891682611992565b8355505b6001600288020188555050505b505050505050565b5f612151826111d8565b915061215c836111d8565b925082820390508181111561217457612173611614565b5b9291505056fea264697066735822122004db2ec4453219299e0062b18c182132f2631e28596fd2e846f2334c6e3598dc64736f6c634300081b0033",
					"opcodes": "PUSH1 0x80 PUSH1 0x40 MSTORE CALLVALUE DUP1 ISZERO PUSH2 0xF JUMPI PUSH0 PUSH0 REVERT JUMPDEST POP CALLER PUSH0 PUSH20 0xFFFFFFFFFFFFFFFFFFFFFFFFFFFFFFFFFFFFFFFF AND DUP2 PUSH20 0xFFFFFFFFFFFFFFFFFFFFFFFFFFFFFFFFFFFFFFFF AND SUB PUSH2 0x81 JUMPI PUSH0 PUSH1 0x40 MLOAD PUSH32 0x1E4FBDF700000000000000000000000000000000000000000000000000000000 DUP2 MSTORE PUSH1 0x4 ADD PUSH2 0x78 SWAP2 SWAP1 PUSH2 0x1C0 JUMP JUMPDEST PUSH1 0x40 MLOAD DUP1 SWAP2 SUB SWAP1 REVERT JUMPDEST PUSH2 0x90 DUP2 PUSH2 0xC0 PUSH1 0x20 SHL PUSH1 0x20 SHR JUMP JUMPDEST POP PUSH1 0x5 PUSH0 PUSH1 0x14 PUSH2 0x100 EXP DUP2 SLOAD DUP2 PUSH1 0xFF MUL NOT AND SWAP1 DUP4 PUSH1 0x5 DUP2 GT ISZERO PUSH2 0xB6 JUMPI PUSH2 0xB5 PUSH2 0x1D9 JUMP JUMPDEST JUMPDEST MUL OR SWAP1 SSTORE POP PUSH2 0x206 JUMP JUMPDEST PUSH0 PUSH0 PUSH0 SWAP1 SLOAD SWAP1 PUSH2 0x100 EXP SWAP1 DIV PUSH20 0xFFFFFFFFFFFFFFFFFFFFFFFFFFFFFFFFFFFFFFFF AND SWAP1 POP DUP2 PUSH0 PUSH0 PUSH2 0x100 EXP DUP2 SLOAD DUP2 PUSH20 0xFFFFFFFFFFFFFFFFFFFFFFFFFFFFFFFFFFFFFFFF MUL NOT AND SWAP1 DUP4 PUSH20 0xFFFFFFFFFFFFFFFFFFFFFFFFFFFFFFFFFFFFFFFF AND MUL OR SWAP1 SSTORE POP DUP2 PUSH20 0xFFFFFFFFFFFFFFFFFFFFFFFFFFFFFFFFFFFFFFFF AND DUP2 PUSH20 0xFFFFFFFFFFFFFFFFFFFFFFFFFFFFFFFFFFFFFFFF AND PUSH32 0x8BE0079C531659141344CD1FD0A4F28419497F9722A3DAAFE3B4186F6B6457E0 PUSH1 0x40 MLOAD PUSH1 0x40 MLOAD DUP1 SWAP2 SUB SWAP1 LOG3 POP POP JUMP JUMPDEST PUSH0 PUSH20 0xFFFFFFFFFFFFFFFFFFFFFFFFFFFFFFFFFFFFFFFF DUP3 AND SWAP1 POP SWAP2 SWAP1 POP JUMP JUMPDEST PUSH0 PUSH2 0x1AA DUP3 PUSH2 0x181 JUMP JUMPDEST SWAP1 POP SWAP2 SWAP1 POP JUMP JUMPDEST PUSH2 0x1BA DUP2 PUSH2 0x1A0 JUMP JUMPDEST DUP3 MSTORE POP POP JUMP JUMPDEST PUSH0 PUSH1 0x20 DUP3 ADD SWAP1 POP PUSH2 0x1D3 PUSH0 DUP4 ADD DUP5 PUSH2 0x1B1 JUMP JUMPDEST SWAP3 SWAP2 POP POP JUMP JUMPDEST PUSH32 0x4E487B7100000000000000000000000000000000000000000000000000000000 PUSH0 MSTORE PUSH1 0x21 PUSH1 0x4 MSTORE PUSH1 0x24 PUSH0 REVERT JUMPDEST PUSH2 0x21B0 DUP1 PUSH2 0x213 PUSH0 CODECOPY PUSH0 RETURN INVALID PUSH1 0x80 PUSH1 0x40 MSTORE CALLVALUE DUP1 ISZERO PUSH2 0xF JUMPI PUSH0 PUSH0 REVERT JUMPDEST POP PUSH1 0x4 CALLDATASIZE LT PUSH2 0xA7 JUMPI PUSH0 CALLDATALOAD PUSH1 0xE0 SHR DUP1 PUSH4 0xAD38867E GT PUSH2 0x6F JUMPI DUP1 PUSH4 0xAD38867E EQ PUSH2 0x105 JUMPI DUP1 PUSH4 0xC08CC02D EQ PUSH2 0x123 JUMPI DUP1 PUSH4 0xCFDB63AC EQ PUSH2 0x141 JUMPI DUP1 PUSH4 0xDCD6A5CD EQ PUSH2 0x15D JUMPI DUP1 PUSH4 0xE6ADAECC EQ PUSH2 0x179 JUMPI DUP1 PUSH4 0xF2FDE38B EQ PUSH2 0x195 JUMPI PUSH2 0xA7 JUMP JUMPDEST DUP1 PUSH4 0x43344983 EQ PUSH2 0xAB JUMPI DUP1 PUSH4 0x4EA49925 EQ PUSH2 0xC9 JUMPI DUP1 PUSH4 0x715018A6 EQ PUSH2 0xD3 JUMPI DUP1 PUSH4 0x8DA5CB5B EQ PUSH2 0xDD JUMPI DUP1 PUSH4 0x8E7EA5B2 EQ PUSH2 0xFB JUMPI JUMPDEST PUSH0 PUSH0 REVERT JUMPDEST PUSH2 0xB3 PUSH2 0x1B1 JUMP JUMPDEST PUSH1 0x40 MLOAD PUSH2 0xC0 SWAP2 SWAP1 PUSH2 0x12BC JUMP JUMPDEST PUSH1 0x40 MLOAD DUP1 SWAP2 SUB SWAP1 RETURN JUMPDEST PUSH2 0xD1 PUSH2 0x2A6 JUMP JUMPDEST STOP JUMPDEST PUSH2 0xDB PUSH2 0x3DE JUMP JUMPDEST STOP JUMPDEST PUSH2 0xE5 PUSH2 0x3F1 JUMP JUMPDEST PUSH1 0x40 MLOAD PUSH2 0xF2 SWAP2 SWAP1 PUSH2 0x131B JUMP JUMPDEST PUSH1 0x40 MLOAD DUP1 SWAP2 SUB SWAP1 RETURN JUMPDEST PUSH2 0x103 PUSH2 0x418 JUMP JUMPDEST STOP JUMPDEST PUSH2 0x10D PUSH2 0x613 JUMP JUMPDEST PUSH1 0x40 MLOAD PUSH2 0x11A SWAP2 SWAP1 PUSH2 0x12BC JUMP JUMPDEST PUSH1 0x40 MLOAD DUP1 SWAP2 SUB SWAP1 RETURN JUMPDEST PUSH2 0x12B PUSH2 0x74F JUMP JUMPDEST PUSH1 0x40 MLOAD PUSH2 0x138 SWAP2 SWAP1 PUSH2 0x1343 JUMP JUMPDEST PUSH1 0x40 MLOAD DUP1 SWAP2 SUB SWAP1 RETURN JUMPDEST PUSH2 0x15B PUSH1 0x4 DUP1 CALLDATASIZE SUB DUP2 ADD SWAP1 PUSH2 0x156 SWAP2 SWAP1 PUSH2 0x1397 JUMP JUMPDEST PUSH2 0x75B JUMP JUMPDEST STOP JUMPDEST PUSH2 0x177 PUSH1 0x4 DUP1 CALLDATASIZE SUB DUP2 ADD SWAP1 PUSH2 0x172 SWAP2 SWAP1 PUSH2 0x13EC JUMP JUMPDEST PUSH2 0x9AC JUMP JUMPDEST STOP JUMPDEST PUSH2 0x193 PUSH1 0x4 DUP1 CALLDATASIZE SUB DUP2 ADD SWAP1 PUSH2 0x18E SWAP2 SWAP1 PUSH2 0x1543 JUMP JUMPDEST PUSH2 0xCD8 JUMP JUMPDEST STOP JUMPDEST PUSH2 0x1AF PUSH1 0x4 DUP1 CALLDATASIZE SUB DUP2 ADD SWAP1 PUSH2 0x1AA SWAP2 SWAP1 PUSH2 0x1397 JUMP JUMPDEST PUSH2 0xEC7 JUMP JUMPDEST STOP JUMPDEST PUSH1 0x60 PUSH1 0x3 DUP1 SLOAD DUP1 PUSH1 0x20 MUL PUSH1 0x20 ADD PUSH1 0x40 MLOAD SWAP1 DUP2 ADD PUSH1 0x40 MSTORE DUP1 SWAP3 SWAP2 SWAP1 DUP2 DUP2 MSTORE PUSH1 0x20 ADD PUSH0 SWAP1 JUMPDEST DUP3 DUP3 LT ISZERO PUSH2 0x29D JUMPI DUP4 DUP3 SWAP1 PUSH0 MSTORE PUSH1 0x20 PUSH0 KECCAK256 SWAP1 PUSH1 0x2 MUL ADD PUSH1 0x40 MLOAD DUP1 PUSH1 0x40 ADD PUSH1 0x40 MSTORE SWAP1 DUP2 PUSH0 DUP3 ADD DUP1 SLOAD PUSH2 0x204 SWAP1 PUSH2 0x15B7 JUMP JUMPDEST DUP1 PUSH1 0x1F ADD PUSH1 0x20 DUP1 SWAP2 DIV MUL PUSH1 0x20 ADD PUSH1 0x40 MLOAD SWAP1 DUP2 ADD PUSH1 0x40 MSTORE DUP1 SWAP3 SWAP2 SWAP1 DUP2 DUP2 MSTORE PUSH1 0x20 ADD DUP3 DUP1 SLOAD PUSH2 0x230 SWAP1 PUSH2 0x15B7 JUMP JUMPDEST DUP1 ISZERO PUSH2 0x27B JUMPI DUP1 PUSH1 0x1F LT PUSH2 0x252 JUMPI PUSH2 0x100 DUP1 DUP4 SLOAD DIV MUL DUP4 MSTORE SWAP2 PUSH1 0x20 ADD SWAP2 PUSH2 0x27B JUMP JUMPDEST DUP3 ADD SWAP2 SWAP1 PUSH0 MSTORE PUSH1 0x20 PUSH0 KECCAK256 SWAP1 JUMPDEST DUP2 SLOAD DUP2 MSTORE SWAP1 PUSH1 0x1 ADD SWAP1 PUSH1 0x20 ADD DUP1 DUP4 GT PUSH2 0x25E JUMPI DUP3 SWAP1 SUB PUSH1 0x1F AND DUP3 ADD SWAP2 JUMPDEST POP POP POP POP POP DUP2 MSTORE PUSH1 0x20 ADD PUSH1 0x1 DUP3 ADD SLOAD DUP2 MSTORE POP POP DUP2 MSTORE PUSH1 0x20 ADD SWAP1 PUSH1 0x1 ADD SWAP1 PUSH2 0x1D4 JUMP JUMPDEST POP POP POP POP SWAP1 POP SWAP1 JUMP JUMPDEST PUSH2 0x2AE PUSH2 0xF4B JUMP JUMPDEST PUSH0 PUSH0 PUSH1 0x14 SWAP1 SLOAD SWAP1 PUSH2 0x100 EXP SWAP1 DIV PUSH1 0xFF AND SWAP1 POP PUSH1 0x5 DUP1 DUP2 GT ISZERO PUSH2 0x2D3 JUMPI PUSH2 0x2D2 PUSH2 0x15E7 JUMP JUMPDEST JUMPDEST PUSH0 PUSH1 0x14 SWAP1 SLOAD SWAP1 PUSH2 0x100 EXP SWAP1 DIV PUSH1 0xFF AND PUSH1 0x5 DUP2 GT ISZERO PUSH2 0x2F4 JUMPI PUSH2 0x2F3 PUSH2 0x15E7 JUMP JUMPDEST JUMPDEST SUB PUSH2 0x327 JUMPI PUSH0 PUSH0 PUSH1 0x14 PUSH2 0x100 EXP DUP2 SLOAD DUP2 PUSH1 0xFF MUL NOT AND SWAP1 DUP4 PUSH1 0x5 DUP2 GT ISZERO PUSH2 0x31D JUMPI PUSH2 0x31C PUSH2 0x15E7 JUMP JUMPDEST JUMPDEST MUL OR SWAP1 SSTORE POP PUSH2 0x38F JUMP JUMPDEST PUSH1 0x1 PUSH0 PUSH1 0x14 SWAP1 SLOAD SWAP1 PUSH2 0x100 EXP SWAP1 DIV PUSH1 0xFF AND PUSH1 0x5 DUP2 GT ISZERO PUSH2 0x34A JUMPI PUSH2 0x349 PUSH2 0x15E7 JUMP JUMPDEST JUMPDEST PUSH2 0x354 SWAP2 SWAP1 PUSH2 0x1641 JUMP JUMPDEST PUSH1 0x5 DUP2 GT ISZERO PUSH2 0x366 JUMPI PUSH2 0x365 PUSH2 0x15E7 JUMP JUMPDEST JUMPDEST PUSH0 PUSH1 0x14 PUSH2 0x100 EXP DUP2 SLOAD DUP2 PUSH1 0xFF MUL NOT AND SWAP1 DUP4 PUSH1 0x5 DUP2 GT ISZERO PUSH2 0x389 JUMPI PUSH2 0x388 PUSH2 0x15E7 JUMP JUMPDEST JUMPDEST MUL OR SWAP1 SSTORE POP JUMPDEST PUSH0 PUSH0 PUSH1 0x14 SWAP1 SLOAD SWAP1 PUSH2 0x100 EXP SWAP1 DIV PUSH1 0xFF AND SWAP1 POP PUSH32 0xA97A4EE45751E2ABF3E4FC8946939630B11B371EA8AE39CCDC3056E98F5CC3F DUP3 DUP3 PUSH1 0x40 MLOAD PUSH2 0x3D2 SWAP3 SWAP2 SWAP1 PUSH2 0x16BA JUMP JUMPDEST PUSH1 0x40 MLOAD DUP1 SWAP2 SUB SWAP1 LOG1 POP POP JUMP JUMPDEST PUSH2 0x3E6 PUSH2 0xF4B JUMP JUMPDEST PUSH2 0x3EF PUSH0 PUSH2 0xFD2 JUMP JUMPDEST JUMP JUMPDEST PUSH0 PUSH0 PUSH0 SWAP1 SLOAD SWAP1 PUSH2 0x100 EXP SWAP1 DIV PUSH20 0xFFFFFFFFFFFFFFFFFFFFFFFFFFFFFFFFFFFFFFFF AND SWAP1 POP SWAP1 JUMP JUMPDEST PUSH2 0x420 PUSH2 0xF4B JUMP JUMPDEST PUSH1 0x5 DUP1 DUP2 GT ISZERO PUSH2 0x433 JUMPI PUSH2 0x432 PUSH2 0x15E7 JUMP JUMPDEST JUMPDEST PUSH0 PUSH1 0x14 SWAP1 SLOAD SWAP1 PUSH2 0x100 EXP SWAP1 DIV PUSH1 0xFF AND PUSH1 0x5 DUP2 GT ISZERO PUSH2 0x454 JUMPI PUSH2 0x453 PUSH2 0x15E7 JUMP JUMPDEST JUMPDEST EQ PUSH2 0x494 JUMPI PUSH1 0x40 MLOAD PUSH32 0x8C379A000000000000000000000000000000000000000000000000000000000 DUP2 MSTORE PUSH1 0x4 ADD PUSH2 0x48B SWAP1 PUSH2 0x1761 JUMP JUMPDEST PUSH1 0x40 MLOAD DUP1 SWAP2 SUB SWAP1 REVERT JUMPDEST PUSH0 PUSH1 0x3 DUP1 SLOAD SWAP1 POP GT PUSH2 0x4DB JUMPI PUSH1 0x40 MLOAD PUSH32 0x8C379A000000000000000000000000000000000000000000000000000000000 DUP2 MSTORE PUSH1 0x4 ADD PUSH2 0x4D2 SWAP1 PUSH2 0x17C9 JUMP JUMPDEST PUSH1 0x40 MLOAD DUP1 SWAP2 SUB SWAP1 REVERT JUMPDEST PUSH0 PUSH0 SWAP1 POP PUSH1 0x5 PUSH0 PUSH2 0x4EC SWAP2 SWAP1 PUSH2 0x109A JUMP JUMPDEST PUSH0 PUSH0 SWAP1 POP JUMPDEST PUSH1 0x3 DUP1 SLOAD SWAP1 POP DUP2 LT ISZERO PUSH2 0x55D JUMPI DUP2 PUSH1 0x3 DUP3 DUP2 SLOAD DUP2 LT PUSH2 0x513 JUMPI PUSH2 0x512 PUSH2 0x17E7 JUMP JUMPDEST JUMPDEST SWAP1 PUSH0 MSTORE PUSH1 0x20 PUSH0 KECCAK256 SWAP1 PUSH1 0x2 MUL ADD PUSH1 0x1 ADD SLOAD GT ISZERO PUSH2 0x550 JUMPI PUSH1 0x3 DUP2 DUP2 SLOAD DUP2 LT PUSH2 0x53D JUMPI PUSH2 0x53C PUSH2 0x17E7 JUMP JUMPDEST JUMPDEST SWAP1 PUSH0 MSTORE PUSH1 0x20 PUSH0 KECCAK256 SWAP1 PUSH1 0x2 MUL ADD PUSH1 0x1 ADD SLOAD SWAP2 POP JUMPDEST DUP1 DUP1 PUSH1 0x1 ADD SWAP2 POP POP PUSH2 0x4F1 JUMP JUMPDEST POP PUSH0 PUSH0 SWAP1 POP JUMPDEST PUSH1 0x3 DUP1 SLOAD SWAP1 POP DUP2 LT ISZERO PUSH2 0x60F JUMPI DUP2 PUSH1 0x3 DUP3 DUP2 SLOAD DUP2 LT PUSH2 0x585 JUMPI PUSH2 0x584 PUSH2 0x17E7 JUMP JUMPDEST JUMPDEST SWAP1 PUSH0 MSTORE PUSH1 0x20 PUSH0 KECCAK256 SWAP1 PUSH1 0x2 MUL ADD PUSH1 0x1 ADD SLOAD SUB PUSH2 0x602 JUMPI PUSH1 0x5 PUSH1 0x3 DUP3 DUP2 SLOAD DUP2 LT PUSH2 0x5B0 JUMPI PUSH2 0x5AF PUSH2 0x17E7 JUMP JUMPDEST JUMPDEST SWAP1 PUSH0 MSTORE PUSH1 0x20 PUSH0 KECCAK256 SWAP1 PUSH1 0x2 MUL ADD SWAP1 DUP1 PUSH1 0x1 DUP2 SLOAD ADD DUP1 DUP3 SSTORE DUP1 SWAP2 POP POP PUSH1 0x1 SWAP1 SUB SWAP1 PUSH0 MSTORE PUSH1 0x20 PUSH0 KECCAK256 SWAP1 PUSH1 0x2 MUL ADD PUSH0 SWAP1 SWAP2 SWAP1 SWAP2 SWAP1 SWAP2 POP PUSH0 DUP3 ADD DUP2 PUSH0 ADD SWAP1 DUP2 PUSH2 0x5F4 SWAP2 SWAP1 PUSH2 0x19C9 JUMP JUMPDEST POP PUSH1 0x1 DUP3 ADD SLOAD DUP2 PUSH1 0x1 ADD SSTORE POP POP JUMPDEST DUP1 DUP1 PUSH1 0x1 ADD SWAP2 POP POP PUSH2 0x563 JUMP JUMPDEST POP POP JUMP JUMPDEST PUSH1 0x60 PUSH0 PUSH1 0x3 DUP1 SLOAD SWAP1 POP GT PUSH2 0x65C JUMPI PUSH1 0x40 MLOAD PUSH32 0x8C379A000000000000000000000000000000000000000000000000000000000 DUP2 MSTORE PUSH1 0x4 ADD PUSH2 0x653 SWAP1 PUSH2 0x1AF8 JUMP JUMPDEST PUSH1 0x40 MLOAD DUP1 SWAP2 SUB SWAP1 REVERT JUMPDEST PUSH1 0x5 DUP1 SLOAD DUP1 PUSH1 0x20 MUL PUSH1 0x20 ADD PUSH1 0x40 MLOAD SWAP1 DUP2 ADD PUSH1 0x40 MSTORE DUP1 SWAP3 SWAP2 SWAP1 DUP2 DUP2 MSTORE PUSH1 0x20 ADD PUSH0 SWAP1 JUMPDEST DUP3 DUP3 LT ISZERO PUSH2 0x746 JUMPI DUP4 DUP3 SWAP1 PUSH0 MSTORE PUSH1 0x20 PUSH0 KECCAK256 SWAP1 PUSH1 0x2 MUL ADD PUSH1 0x40 MLOAD DUP1 PUSH1 0x40 ADD PUSH1 0x40 MSTORE SWAP1 DUP2 PUSH0 DUP3 ADD DUP1 SLOAD PUSH2 0x6AD SWAP1 PUSH2 0x15B7 JUMP JUMPDEST DUP1 PUSH1 0x1F ADD PUSH1 0x20 DUP1 SWAP2 DIV MUL PUSH1 0x20 ADD PUSH1 0x40 MLOAD SWAP1 DUP2 ADD PUSH1 0x40 MSTORE DUP1 SWAP3 SWAP2 SWAP1 DUP2 DUP2 MSTORE PUSH1 0x20 ADD DUP3 DUP1 SLOAD PUSH2 0x6D9 SWAP1 PUSH2 0x15B7 JUMP JUMPDEST DUP1 ISZERO PUSH2 0x724 JUMPI DUP1 PUSH1 0x1F LT PUSH2 0x6FB JUMPI PUSH2 0x100 DUP1 DUP4 SLOAD DIV MUL DUP4 MSTORE SWAP2 PUSH1 0x20 ADD SWAP2 PUSH2 0x724 JUMP JUMPDEST DUP3 ADD SWAP2 SWAP1 PUSH0 MSTORE PUSH1 0x20 PUSH0 KECCAK256 SWAP1 JUMPDEST DUP2 SLOAD DUP2 MSTORE SWAP1 PUSH1 0x1 ADD SWAP1 PUSH1 0x20 ADD DUP1 DUP4 GT PUSH2 0x707 JUMPI DUP3 SWAP1 SUB PUSH1 0x1F AND DUP3 ADD SWAP2 JUMPDEST POP POP POP POP POP DUP2 MSTORE PUSH1 0x20 ADD PUSH1 0x1 DUP3 ADD SLOAD DUP2 MSTORE POP POP DUP2 MSTORE PUSH1 0x20 ADD SWAP1 PUSH1 0x1 ADD SWAP1 PUSH2 0x67D JUMP JUMPDEST POP POP POP POP SWAP1 POP SWAP1 JUMP JUMPDEST PUSH0 PUSH1 0x3 DUP1 SLOAD SWAP1 POP SWAP1 POP SWAP1 JUMP JUMPDEST PUSH2 0x763 PUSH2 0xF4B JUMP JUMPDEST PUSH0 PUSH1 0x5 DUP2 GT ISZERO PUSH2 0x776 JUMPI PUSH2 0x775 PUSH2 0x15E7 JUMP JUMPDEST JUMPDEST PUSH0 PUSH1 0x14 SWAP1 SLOAD SWAP1 PUSH2 0x100 EXP SWAP1 DIV PUSH1 0xFF AND PUSH1 0x5 DUP2 GT ISZERO PUSH2 0x797 JUMPI PUSH2 0x796 PUSH2 0x15E7 JUMP JUMPDEST JUMPDEST EQ PUSH2 0x7D7 JUMPI PUSH1 0x40 MLOAD PUSH32 0x8C379A000000000000000000000000000000000000000000000000000000000 DUP2 MSTORE PUSH1 0x4 ADD PUSH2 0x7CE SWAP1 PUSH2 0x1B86 JUMP JUMPDEST PUSH1 0x40 MLOAD DUP1 SWAP2 SUB SWAP1 REVERT JUMPDEST PUSH1 0x1 PUSH0 DUP3 PUSH20 0xFFFFFFFFFFFFFFFFFFFFFFFFFFFFFFFFFFFFFFFF AND PUSH20 0xFFFFFFFFFFFFFFFFFFFFFFFFFFFFFFFFFFFFFFFF AND DUP2 MSTORE PUSH1 0x20 ADD SWAP1 DUP2 MSTORE PUSH1 0x20 ADD PUSH0 KECCAK256 PUSH0 SWAP1 SLOAD SWAP1 PUSH2 0x100 EXP SWAP1 DIV PUSH1 0xFF AND ISZERO PUSH2 0x861 JUMPI PUSH1 0x40 MLOAD PUSH32 0x8C379A000000000000000000000000000000000000000000000000000000000 DUP2 MSTORE PUSH1 0x4 ADD PUSH2 0x858 SWAP1 PUSH2 0x1BEE JUMP JUMPDEST PUSH1 0x40 MLOAD DUP1 SWAP2 SUB SWAP1 REVERT JUMPDEST PUSH1 0x40 MLOAD DUP1 PUSH1 0x60 ADD PUSH1 0x40 MSTORE DUP1 PUSH1 0x1 ISZERO ISZERO DUP2 MSTORE PUSH1 0x20 ADD PUSH0 ISZERO ISZERO DUP2 MSTORE PUSH1 0x20 ADD PUSH0 DUP2 MSTORE POP PUSH1 0x2 PUSH0 DUP4 PUSH20 0xFFFFFFFFFFFFFFFFFFFFFFFFFFFFFFFFFFFFFFFF AND PUSH20 0xFFFFFFFFFFFFFFFFFFFFFFFFFFFFFFFFFFFFFFFF AND DUP2 MSTORE PUSH1 0x20 ADD SWAP1 DUP2 MSTORE PUSH1 0x20 ADD PUSH0 KECCAK256 PUSH0 DUP3 ADD MLOAD DUP2 PUSH0 ADD PUSH0 PUSH2 0x100 EXP DUP2 SLOAD DUP2 PUSH1 0xFF MUL NOT AND SWAP1 DUP4 ISZERO ISZERO MUL OR SWAP1 SSTORE POP PUSH1 0x20 DUP3 ADD MLOAD DUP2 PUSH0 ADD PUSH1 0x1 PUSH2 0x100 EXP DUP2 SLOAD DUP2 PUSH1 0xFF MUL NOT AND SWAP1 DUP4 ISZERO ISZERO MUL OR SWAP1 SSTORE POP PUSH1 0x40 DUP3 ADD MLOAD DUP2 PUSH1 0x1 ADD SSTORE SWAP1 POP POP PUSH1 0x1 DUP1 PUSH0 DUP4 PUSH20 0xFFFFFFFFFFFFFFFFFFFFFFFFFFFFFFFFFFFFFFFF AND PUSH20 0xFFFFFFFFFFFFFFFFFFFFFFFFFFFFFFFFFFFFFFFF AND DUP2 MSTORE PUSH1 0x20 ADD SWAP1 DUP2 MSTORE PUSH1 0x20 ADD PUSH0 KECCAK256 PUSH0 PUSH2 0x100 EXP DUP2 SLOAD DUP2 PUSH1 0xFF MUL NOT AND SWAP1 DUP4 ISZERO ISZERO MUL OR SWAP1 SSTORE POP PUSH1 0x4 PUSH0 DUP2 SLOAD DUP1 SWAP3 SWAP2 SWAP1 PUSH2 0x96D SWAP1 PUSH2 0x1C0C JUMP JUMPDEST SWAP2 SWAP1 POP SSTORE POP PUSH32 0xB6BE2187D059CC2A55FE29E0E503B566E1E0F8C8780096E185429350ACFFD3DD DUP2 PUSH1 0x40 MLOAD PUSH2 0x9A1 SWAP2 SWAP1 PUSH2 0x131B JUMP JUMPDEST PUSH1 0x40 MLOAD DUP1 SWAP2 SUB SWAP1 LOG1 POP JUMP JUMPDEST PUSH1 0x3 PUSH1 0x5 DUP2 GT ISZERO PUSH2 0x9C0 JUMPI PUSH2 0x9BF PUSH2 0x15E7 JUMP JUMPDEST JUMPDEST PUSH0 PUSH1 0x14 SWAP1 SLOAD SWAP1 PUSH2 0x100 EXP SWAP1 DIV PUSH1 0xFF AND PUSH1 0x5 DUP2 GT ISZERO PUSH2 0x9E1 JUMPI PUSH2 0x9E0 PUSH2 0x15E7 JUMP JUMPDEST JUMPDEST EQ PUSH2 0xA21 JUMPI PUSH1 0x40 MLOAD PUSH32 0x8C379A000000000000000000000000000000000000000000000000000000000 DUP2 MSTORE PUSH1 0x4 ADD PUSH2 0xA18 SWAP1 PUSH2 0x1CC3 JUMP JUMPDEST PUSH1 0x40 MLOAD DUP1 SWAP2 SUB SWAP1 REVERT JUMPDEST PUSH0 PUSH1 0x3 DUP1 SLOAD SWAP1 POP GT PUSH2 0xA68 JUMPI PUSH1 0x40 MLOAD PUSH32 0x8C379A000000000000000000000000000000000000000000000000000000000 DUP2 MSTORE PUSH1 0x4 ADD PUSH2 0xA5F SWAP1 PUSH2 0x1D77 JUMP JUMPDEST PUSH1 0x40 MLOAD DUP1 SWAP2 SUB SWAP1 REVERT JUMPDEST PUSH1 0x2 PUSH0 CALLER PUSH20 0xFFFFFFFFFFFFFFFFFFFFFFFFFFFFFFFFFFFFFFFF AND PUSH20 0xFFFFFFFFFFFFFFFFFFFFFFFFFFFFFFFFFFFFFFFF AND DUP2 MSTORE PUSH1 0x20 ADD SWAP1 DUP2 MSTORE PUSH1 0x20 ADD PUSH0 KECCAK256 PUSH0 ADD PUSH0 SWAP1 SLOAD SWAP1 PUSH2 0x100 EXP SWAP1 DIV PUSH1 0xFF AND PUSH2 0xAF3 JUMPI PUSH1 0x40 MLOAD PUSH32 0x8C379A000000000000000000000000000000000000000000000000000000000 DUP2 MSTORE PUSH1 0x4 ADD PUSH2 0xAEA SWAP1 PUSH2 0x1DDF JUMP JUMPDEST PUSH1 0x40 MLOAD DUP1 SWAP2 SUB SWAP1 REVERT JUMPDEST PUSH1 0x2 PUSH0 CALLER PUSH20 0xFFFFFFFFFFFFFFFFFFFFFFFFFFFFFFFFFFFFFFFF AND PUSH20 0xFFFFFFFFFFFFFFFFFFFFFFFFFFFFFFFFFFFFFFFF AND DUP2 MSTORE PUSH1 0x20 ADD SWAP1 DUP2 MSTORE PUSH1 0x20 ADD PUSH0 KECCAK256 PUSH0 ADD PUSH1 0x1 SWAP1 SLOAD SWAP1 PUSH2 0x100 EXP SWAP1 DIV PUSH1 0xFF AND ISZERO PUSH2 0xB80 JUMPI PUSH1 0x40 MLOAD PUSH32 0x8C379A000000000000000000000000000000000000000000000000000000000 DUP2 MSTORE PUSH1 0x4 ADD PUSH2 0xB77 SWAP1 PUSH2 0x1E47 JUMP JUMPDEST PUSH1 0x40 MLOAD DUP1 SWAP2 SUB SWAP1 REVERT JUMPDEST PUSH1 0x3 DUP1 SLOAD SWAP1 POP DUP2 LT PUSH2 0xBC7 JUMPI PUSH1 0x40 MLOAD PUSH32 0x8C379A000000000000000000000000000000000000000000000000000000000 DUP2 MSTORE PUSH1 0x4 ADD PUSH2 0xBBE SWAP1 PUSH2 0x1EAF JUMP JUMPDEST PUSH1 0x40 MLOAD DUP1 SWAP2 SUB SWAP1 REVERT JUMPDEST PUSH1 0x1 PUSH1 0x2 PUSH0 CALLER PUSH20 0xFFFFFFFFFFFFFFFFFFFFFFFFFFFFFFFFFFFFFFFF AND PUSH20 0xFFFFFFFFFFFFFFFFFFFFFFFFFFFFFFFFFFFFFFFF AND DUP2 MSTORE PUSH1 0x20 ADD SWAP1 DUP2 MSTORE PUSH1 0x20 ADD PUSH0 KECCAK256 PUSH0 ADD PUSH1 0x1 PUSH2 0x100 EXP DUP2 SLOAD DUP2 PUSH1 0xFF MUL NOT AND SWAP1 DUP4 ISZERO ISZERO MUL OR SWAP1 SSTORE POP DUP1 PUSH1 0x2 PUSH0 CALLER PUSH20 0xFFFFFFFFFFFFFFFFFFFFFFFFFFFFFFFFFFFFFFFF AND PUSH20 0xFFFFFFFFFFFFFFFFFFFFFFFFFFFFFFFFFFFFFFFF AND DUP2 MSTORE PUSH1 0x20 ADD SWAP1 DUP2 MSTORE PUSH1 0x20 ADD PUSH0 KECCAK256 PUSH1 0x1 ADD DUP2 SWAP1 SSTORE POP PUSH1 0x3 DUP2 DUP2 SLOAD DUP2 LT PUSH2 0xC78 JUMPI PUSH2 0xC77 PUSH2 0x17E7 JUMP JUMPDEST JUMPDEST SWAP1 PUSH0 MSTORE PUSH1 0x20 PUSH0 KECCAK256 SWAP1 PUSH1 0x2 MUL ADD PUSH1 0x1 ADD PUSH0 DUP2 SLOAD DUP1 SWAP3 SWAP2 SWAP1 PUSH2 0xC97 SWAP1 PUSH2 0x1C0C JUMP JUMPDEST SWAP2 SWAP1 POP SSTORE POP PUSH32 0x4D99B957A2BC29A30EBD96A7BE8E68FE50A3C701DB28A91436490B7D53870CA4 CALLER DUP3 PUSH1 0x40 MLOAD PUSH2 0xCCD SWAP3 SWAP2 SWAP1 PUSH2 0x1ECD JUMP JUMPDEST PUSH1 0x40 MLOAD DUP1 SWAP2 SUB SWAP1 LOG1 POP JUMP JUMPDEST PUSH1 0x1 PUSH1 0x5 DUP2 GT ISZERO PUSH2 0xCEC JUMPI PUSH2 0xCEB PUSH2 0x15E7 JUMP JUMPDEST JUMPDEST PUSH0 PUSH1 0x14 SWAP1 SLOAD SWAP1 PUSH2 0x100 EXP SWAP1 DIV PUSH1 0xFF AND PUSH1 0x5 DUP2 GT ISZERO PUSH2 0xD0D JUMPI PUSH2 0xD0C PUSH2 0x15E7 JUMP JUMPDEST JUMPDEST EQ PUSH2 0xD4D JUMPI PUSH1 0x40 MLOAD PUSH32 0x8C379A000000000000000000000000000000000000000000000000000000000 DUP2 MSTORE PUSH1 0x4 ADD PUSH2 0xD44 SWAP1 PUSH2 0x1F64 JUMP JUMPDEST PUSH1 0x40 MLOAD DUP1 SWAP2 SUB SWAP1 REVERT JUMPDEST PUSH0 PUSH1 0x4 SLOAD GT PUSH2 0xD91 JUMPI PUSH1 0x40 MLOAD PUSH32 0x8C379A000000000000000000000000000000000000000000000000000000000 DUP2 MSTORE PUSH1 0x4 ADD PUSH2 0xD88 SWAP1 PUSH2 0x1FF2 JUMP JUMPDEST PUSH1 0x40 MLOAD DUP1 SWAP2 SUB SWAP1 REVERT JUMPDEST PUSH1 0x1 PUSH0 CALLER PUSH20 0xFFFFFFFFFFFFFFFFFFFFFFFFFFFFFFFFFFFFFFFF AND PUSH20 0xFFFFFFFFFFFFFFFFFFFFFFFFFFFFFFFFFFFFFFFF AND DUP2 MSTORE PUSH1 0x20 ADD SWAP1 DUP2 MSTORE PUSH1 0x20 ADD PUSH0 KECCAK256 PUSH0 SWAP1 SLOAD SWAP1 PUSH2 0x100 EXP SWAP1 DIV PUSH1 0xFF AND PUSH2 0xE1A JUMPI PUSH1 0x40 MLOAD PUSH32 0x8C379A000000000000000000000000000000000000000000000000000000000 DUP2 MSTORE PUSH1 0x4 ADD PUSH2 0xE11 SWAP1 PUSH2 0x205A JUMP JUMPDEST PUSH1 0x40 MLOAD DUP1 SWAP2 SUB SWAP1 REVERT JUMPDEST PUSH1 0x3 PUSH1 0x40 MLOAD DUP1 PUSH1 0x40 ADD PUSH1 0x40 MSTORE DUP1 DUP4 DUP2 MSTORE PUSH1 0x20 ADD PUSH0 DUP2 MSTORE POP SWAP1 DUP1 PUSH1 0x1 DUP2 SLOAD ADD DUP1 DUP3 SSTORE DUP1 SWAP2 POP POP PUSH1 0x1 SWAP1 SUB SWAP1 PUSH0 MSTORE PUSH1 0x20 PUSH0 KECCAK256 SWAP1 PUSH1 0x2 MUL ADD PUSH0 SWAP1 SWAP2 SWAP1 SWAP2 SWAP1 SWAP2 POP PUSH0 DUP3 ADD MLOAD DUP2 PUSH0 ADD SWAP1 DUP2 PUSH2 0xE6A SWAP2 SWAP1 PUSH2 0x2078 JUMP JUMPDEST POP PUSH1 0x20 DUP3 ADD MLOAD DUP2 PUSH1 0x1 ADD SSTORE POP POP PUSH0 PUSH1 0x1 PUSH1 0x3 DUP1 SLOAD SWAP1 POP PUSH2 0xE8A SWAP2 SWAP1 PUSH2 0x2147 JUMP JUMPDEST SWAP1 POP PUSH32 0x92E393E9B54E2F801D3EA4BEB0C5E71A21CC34A5D34B77D0FB8A3AA1650DC18F DUP2 PUSH1 0x40 MLOAD PUSH2 0xEBB SWAP2 SWAP1 PUSH2 0x1343 JUMP JUMPDEST PUSH1 0x40 MLOAD DUP1 SWAP2 SUB SWAP1 LOG1 POP POP JUMP JUMPDEST PUSH2 0xECF PUSH2 0xF4B JUMP JUMPDEST PUSH0 PUSH20 0xFFFFFFFFFFFFFFFFFFFFFFFFFFFFFFFFFFFFFFFF AND DUP2 PUSH20 0xFFFFFFFFFFFFFFFFFFFFFFFFFFFFFFFFFFFFFFFF AND SUB PUSH2 0xF3F JUMPI PUSH0 PUSH1 0x40 MLOAD PUSH32 0x1E4FBDF700000000000000000000000000000000000000000000000000000000 DUP2 MSTORE PUSH1 0x4 ADD PUSH2 0xF36 SWAP2 SWAP1 PUSH2 0x131B JUMP JUMPDEST PUSH1 0x40 MLOAD DUP1 SWAP2 SUB SWAP1 REVERT JUMPDEST PUSH2 0xF48 DUP2 PUSH2 0xFD2 JUMP JUMPDEST POP JUMP JUMPDEST PUSH2 0xF53 PUSH2 0x1093 JUMP JUMPDEST PUSH20 0xFFFFFFFFFFFFFFFFFFFFFFFFFFFFFFFFFFFFFFFF AND PUSH2 0xF71 PUSH2 0x3F1 JUMP JUMPDEST PUSH20 0xFFFFFFFFFFFFFFFFFFFFFFFFFFFFFFFFFFFFFFFF AND EQ PUSH2 0xFD0 JUMPI PUSH2 0xF94 PUSH2 0x1093 JUMP JUMPDEST PUSH1 0x40 MLOAD PUSH32 0x118CDAA700000000000000000000000000000000000000000000000000000000 DUP2 MSTORE PUSH1 0x4 ADD PUSH2 0xFC7 SWAP2 SWAP1 PUSH2 0x131B JUMP JUMPDEST PUSH1 0x40 MLOAD DUP1 SWAP2 SUB SWAP1 REVERT JUMPDEST JUMP JUMPDEST PUSH0 PUSH0 PUSH0 SWAP1 SLOAD SWAP1 PUSH2 0x100 EXP SWAP1 DIV PUSH20 0xFFFFFFFFFFFFFFFFFFFFFFFFFFFFFFFFFFFFFFFF AND SWAP1 POP DUP2 PUSH0 PUSH0 PUSH2 0x100 EXP DUP2 SLOAD DUP2 PUSH20 0xFFFFFFFFFFFFFFFFFFFFFFFFFFFFFFFFFFFFFFFF MUL NOT AND SWAP1 DUP4 PUSH20 0xFFFFFFFFFFFFFFFFFFFFFFFFFFFFFFFFFFFFFFFF AND MUL OR SWAP1 SSTORE POP DUP2 PUSH20 0xFFFFFFFFFFFFFFFFFFFFFFFFFFFFFFFFFFFFFFFF AND DUP2 PUSH20 0xFFFFFFFFFFFFFFFFFFFFFFFFFFFFFFFFFFFFFFFF AND PUSH32 0x8BE0079C531659141344CD1FD0A4F28419497F9722A3DAAFE3B4186F6B6457E0 PUSH1 0x40 MLOAD PUSH1 0x40 MLOAD DUP1 SWAP2 SUB SWAP1 LOG3 POP POP JUMP JUMPDEST PUSH0 CALLER SWAP1 POP SWAP1 JUMP JUMPDEST POP DUP1 SLOAD PUSH0 DUP3 SSTORE PUSH1 0x2 MUL SWAP1 PUSH0 MSTORE PUSH1 0x20 PUSH0 KECCAK256 SWAP1 DUP2 ADD SWAP1 PUSH2 0x10B8 SWAP2 SWAP1 PUSH2 0x10BB JUMP JUMPDEST POP JUMP JUMPDEST JUMPDEST DUP1 DUP3 GT ISZERO PUSH2 0x10E3 JUMPI PUSH0 PUSH0 DUP3 ADD PUSH0 PUSH2 0x10D3 SWAP2 SWAP1 PUSH2 0x10E7 JUMP JUMPDEST PUSH1 0x1 DUP3 ADD PUSH0 SWAP1 SSTORE POP PUSH1 0x2 ADD PUSH2 0x10BC JUMP JUMPDEST POP SWAP1 JUMP JUMPDEST POP DUP1 SLOAD PUSH2 0x10F3 SWAP1 PUSH2 0x15B7 JUMP JUMPDEST PUSH0 DUP3 SSTORE DUP1 PUSH1 0x1F LT PUSH2 0x1104 JUMPI POP PUSH2 0x1121 JUMP JUMPDEST PUSH1 0x1F ADD PUSH1 0x20 SWAP1 DIV SWAP1 PUSH0 MSTORE PUSH1 0x20 PUSH0 KECCAK256 SWAP1 DUP2 ADD SWAP1 PUSH2 0x1120 SWAP2 SWAP1 PUSH2 0x1124 JUMP JUMPDEST JUMPDEST POP JUMP JUMPDEST JUMPDEST DUP1 DUP3 GT ISZERO PUSH2 0x113B JUMPI PUSH0 DUP2 PUSH0 SWAP1 SSTORE POP PUSH1 0x1 ADD PUSH2 0x1125 JUMP JUMPDEST POP SWAP1 JUMP JUMPDEST PUSH0 DUP2 MLOAD SWAP1 POP SWAP2 SWAP1 POP JUMP JUMPDEST PUSH0 DUP3 DUP3 MSTORE PUSH1 0x20 DUP3 ADD SWAP1 POP SWAP3 SWAP2 POP POP JUMP JUMPDEST PUSH0 DUP2 SWAP1 POP PUSH1 0x20 DUP3 ADD SWAP1 POP SWAP2 SWAP1 POP JUMP JUMPDEST PUSH0 DUP2 MLOAD SWAP1 POP SWAP2 SWAP1 POP JUMP JUMPDEST PUSH0 DUP3 DUP3 MSTORE PUSH1 0x20 DUP3 ADD SWAP1 POP SWAP3 SWAP2 POP POP JUMP JUMPDEST DUP3 DUP2 DUP4 MCOPY PUSH0 DUP4 DUP4 ADD MSTORE POP POP POP JUMP JUMPDEST PUSH0 PUSH1 0x1F NOT PUSH1 0x1F DUP4 ADD AND SWAP1 POP SWAP2 SWAP1 POP JUMP JUMPDEST PUSH0 PUSH2 0x11AA DUP3 PUSH2 0x1168 JUMP JUMPDEST PUSH2 0x11B4 DUP2 DUP6 PUSH2 0x1172 JUMP JUMPDEST SWAP4 POP PUSH2 0x11C4 DUP2 DUP6 PUSH1 0x20 DUP7 ADD PUSH2 0x1182 JUMP JUMPDEST PUSH2 0x11CD DUP2 PUSH2 0x1190 JUMP JUMPDEST DUP5 ADD SWAP2 POP POP SWAP3 SWAP2 POP POP JUMP JUMPDEST PUSH0 DUP2 SWAP1 POP SWAP2 SWAP1 POP JUMP JUMPDEST PUSH2 0x11EA DUP2 PUSH2 0x11D8 JUMP JUMPDEST DUP3 MSTORE POP POP JUMP JUMPDEST PUSH0 PUSH1 0x40 DUP4 ADD PUSH0 DUP4 ADD MLOAD DUP5 DUP3 SUB PUSH0 DUP7 ADD MSTORE PUSH2 0x120A DUP3 DUP3 PUSH2 0x11A0 JUMP JUMPDEST SWAP2 POP POP PUSH1 0x20 DUP4 ADD MLOAD PUSH2 0x121F PUSH1 0x20 DUP7 ADD DUP3 PUSH2 0x11E1 JUMP JUMPDEST POP DUP1 SWAP2 POP POP SWAP3 SWAP2 POP POP JUMP JUMPDEST PUSH0 PUSH2 0x1235 DUP4 DUP4 PUSH2 0x11F0 JUMP JUMPDEST SWAP1 POP SWAP3 SWAP2 POP POP JUMP JUMPDEST PUSH0 PUSH1 0x20 DUP3 ADD SWAP1 POP SWAP2 SWAP1 POP JUMP JUMPDEST PUSH0 PUSH2 0x1253 DUP3 PUSH2 0x113F JUMP JUMPDEST PUSH2 0x125D DUP2 DUP6 PUSH2 0x1149 JUMP JUMPDEST SWAP4 POP DUP4 PUSH1 0x20 DUP3 MUL DUP6 ADD PUSH2 0x126F DUP6 PUSH2 0x1159 JUMP JUMPDEST DUP1 PUSH0 JUMPDEST DUP6 DUP2 LT ISZERO PUSH2 0x12AA JUMPI DUP5 DUP5 SUB DUP10 MSTORE DUP2 MLOAD PUSH2 0x128B DUP6 DUP3 PUSH2 0x122A JUMP JUMPDEST SWAP5 POP PUSH2 0x1296 DUP4 PUSH2 0x123D JUMP JUMPDEST SWAP3 POP PUSH1 0x20 DUP11 ADD SWAP10 POP POP PUSH1 0x1 DUP2 ADD SWAP1 POP PUSH2 0x1272 JUMP JUMPDEST POP DUP3 SWAP8 POP DUP8 SWAP6 POP POP POP POP POP POP SWAP3 SWAP2 POP POP JUMP JUMPDEST PUSH0 PUSH1 0x20 DUP3 ADD SWAP1 POP DUP2 DUP2 SUB PUSH0 DUP4 ADD MSTORE PUSH2 0x12D4 DUP2 DUP5 PUSH2 0x1249 JUMP JUMPDEST SWAP1 POP SWAP3 SWAP2 POP POP JUMP JUMPDEST PUSH0 PUSH20 0xFFFFFFFFFFFFFFFFFFFFFFFFFFFFFFFFFFFFFFFF DUP3 AND SWAP1 POP SWAP2 SWAP1 POP JUMP JUMPDEST PUSH0 PUSH2 0x1305 DUP3 PUSH2 0x12DC JUMP JUMPDEST SWAP1 POP SWAP2 SWAP1 POP JUMP JUMPDEST PUSH2 0x1315 DUP2 PUSH2 0x12FB JUMP JUMPDEST DUP3 MSTORE POP POP JUMP JUMPDEST PUSH0 PUSH1 0x20 DUP3 ADD SWAP1 POP PUSH2 0x132E PUSH0 DUP4 ADD DUP5 PUSH2 0x130C JUMP JUMPDEST SWAP3 SWAP2 POP POP JUMP JUMPDEST PUSH2 0x133D DUP2 PUSH2 0x11D8 JUMP JUMPDEST DUP3 MSTORE POP POP JUMP JUMPDEST PUSH0 PUSH1 0x20 DUP3 ADD SWAP1 POP PUSH2 0x1356 PUSH0 DUP4 ADD DUP5 PUSH2 0x1334 JUMP JUMPDEST SWAP3 SWAP2 POP POP JUMP JUMPDEST PUSH0 PUSH1 0x40 MLOAD SWAP1 POP SWAP1 JUMP JUMPDEST PUSH0 PUSH0 REVERT JUMPDEST PUSH0 PUSH0 REVERT JUMPDEST PUSH2 0x1376 DUP2 PUSH2 0x12FB JUMP JUMPDEST DUP2 EQ PUSH2 0x1380 JUMPI PUSH0 PUSH0 REVERT JUMPDEST POP JUMP JUMPDEST PUSH0 DUP2 CALLDATALOAD SWAP1 POP PUSH2 0x1391 DUP2 PUSH2 0x136D JUMP JUMPDEST SWAP3 SWAP2 POP POP JUMP JUMPDEST PUSH0 PUSH1 0x20 DUP3 DUP5 SUB SLT ISZERO PUSH2 0x13AC JUMPI PUSH2 0x13AB PUSH2 0x1365 JUMP JUMPDEST JUMPDEST PUSH0 PUSH2 0x13B9 DUP5 DUP3 DUP6 ADD PUSH2 0x1383 JUMP JUMPDEST SWAP2 POP POP SWAP3 SWAP2 POP POP JUMP JUMPDEST PUSH2 0x13CB DUP2 PUSH2 0x11D8 JUMP JUMPDEST DUP2 EQ PUSH2 0x13D5 JUMPI PUSH0 PUSH0 REVERT JUMPDEST POP JUMP JUMPDEST PUSH0 DUP2 CALLDATALOAD SWAP1 POP PUSH2 0x13E6 DUP2 PUSH2 0x13C2 JUMP JUMPDEST SWAP3 SWAP2 POP POP JUMP JUMPDEST PUSH0 PUSH1 0x20 DUP3 DUP5 SUB SLT ISZERO PUSH2 0x1401 JUMPI PUSH2 0x1400 PUSH2 0x1365 JUMP JUMPDEST JUMPDEST PUSH0 PUSH2 0x140E DUP5 DUP3 DUP6 ADD PUSH2 0x13D8 JUMP JUMPDEST SWAP2 POP POP SWAP3 SWAP2 POP POP JUMP JUMPDEST PUSH0 PUSH0 REVERT JUMPDEST PUSH0 PUSH0 REVERT JUMPDEST PUSH32 0x4E487B7100000000000000000000000000000000000000000000000000000000 PUSH0 MSTORE PUSH1 0x41 PUSH1 0x4 MSTORE PUSH1 0x24 PUSH0 REVERT JUMPDEST PUSH2 0x1455 DUP3 PUSH2 0x1190 JUMP JUMPDEST DUP2 ADD DUP2 DUP2 LT PUSH8 0xFFFFFFFFFFFFFFFF DUP3 GT OR ISZERO PUSH2 0x1474 JUMPI PUSH2 0x1473 PUSH2 0x141F JUMP JUMPDEST JUMPDEST DUP1 PUSH1 0x40 MSTORE POP POP POP JUMP JUMPDEST PUSH0 PUSH2 0x1486 PUSH2 0x135C JUMP JUMPDEST SWAP1 POP PUSH2 0x1492 DUP3 DUP3 PUSH2 0x144C JUMP JUMPDEST SWAP2 SWAP1 POP JUMP JUMPDEST PUSH0 PUSH8 0xFFFFFFFFFFFFFFFF DUP3 GT ISZERO PUSH2 0x14B1 JUMPI PUSH2 0x14B0 PUSH2 0x141F JUMP JUMPDEST JUMPDEST PUSH2 0x14BA DUP3 PUSH2 0x1190 JUMP JUMPDEST SWAP1 POP PUSH1 0x20 DUP2 ADD SWAP1 POP SWAP2 SWAP1 POP JUMP JUMPDEST DUP3 DUP2 DUP4 CALLDATACOPY PUSH0 DUP4 DUP4 ADD MSTORE POP POP POP JUMP JUMPDEST PUSH0 PUSH2 0x14E7 PUSH2 0x14E2 DUP5 PUSH2 0x1497 JUMP JUMPDEST PUSH2 0x147D JUMP JUMPDEST SWAP1 POP DUP3 DUP2 MSTORE PUSH1 0x20 DUP2 ADD DUP5 DUP5 DUP5 ADD GT ISZERO PUSH2 0x1503 JUMPI PUSH2 0x1502 PUSH2 0x141B JUMP JUMPDEST JUMPDEST PUSH2 0x150E DUP5 DUP3 DUP6 PUSH2 0x14C7 JUMP JUMPDEST POP SWAP4 SWAP3 POP POP POP JUMP JUMPDEST PUSH0 DUP3 PUSH1 0x1F DUP4 ADD SLT PUSH2 0x152A JUMPI PUSH2 0x1529 PUSH2 0x1417 JUMP JUMPDEST JUMPDEST DUP2 CALLDATALOAD PUSH2 0x153A DUP5 DUP3 PUSH1 0x20 DUP7 ADD PUSH2 0x14D5 JUMP JUMPDEST SWAP2 POP POP SWAP3 SWAP2 POP POP JUMP JUMPDEST PUSH0 PUSH1 0x20 DUP3 DUP5 SUB SLT ISZERO PUSH2 0x1558 JUMPI PUSH2 0x1557 PUSH2 0x1365 JUMP JUMPDEST JUMPDEST PUSH0 DUP3 ADD CALLDATALOAD PUSH8 0xFFFFFFFFFFFFFFFF DUP2 GT ISZERO PUSH2 0x1575 JUMPI PUSH2 0x1574 PUSH2 0x1369 JUMP JUMPDEST JUMPDEST PUSH2 0x1581 DUP5 DUP3 DUP6 ADD PUSH2 0x1516 JUMP JUMPDEST SWAP2 POP POP SWAP3 SWAP2 POP POP JUMP JUMPDEST PUSH32 0x4E487B7100000000000000000000000000000000000000000000000000000000 PUSH0 MSTORE PUSH1 0x22 PUSH1 0x4 MSTORE PUSH1 0x24 PUSH0 REVERT JUMPDEST PUSH0 PUSH1 0x2 DUP3 DIV SWAP1 POP PUSH1 0x1 DUP3 AND DUP1 PUSH2 0x15CE JUMPI PUSH1 0x7F DUP3 AND SWAP2 POP JUMPDEST PUSH1 0x20 DUP3 LT DUP2 SUB PUSH2 0x15E1 JUMPI PUSH2 0x15E0 PUSH2 0x158A JUMP JUMPDEST JUMPDEST POP SWAP2 SWAP1 POP JUMP JUMPDEST PUSH32 0x4E487B7100000000000000000000000000000000000000000000000000000000 PUSH0 MSTORE PUSH1 0x21 PUSH1 0x4 MSTORE PUSH1 0x24 PUSH0 REVERT JUMPDEST PUSH32 0x4E487B7100000000000000000000000000000000000000000000000000000000 PUSH0 MSTORE PUSH1 0x11 PUSH1 0x4 MSTORE PUSH1 0x24 PUSH0 REVERT JUMPDEST PUSH0 PUSH2 0x164B DUP3 PUSH2 0x11D8 JUMP JUMPDEST SWAP2 POP PUSH2 0x1656 DUP4 PUSH2 0x11D8 JUMP JUMPDEST SWAP3 POP DUP3 DUP3 ADD SWAP1 POP DUP1 DUP3 GT ISZERO PUSH2 0x166E JUMPI PUSH2 0x166D PUSH2 0x1614 JUMP JUMPDEST JUMPDEST SWAP3 SWAP2 POP POP JUMP JUMPDEST PUSH1 0x6 DUP2 LT PUSH2 0x1685 JUMPI PUSH2 0x1684 PUSH2 0x15E7 JUMP JUMPDEST JUMPDEST POP JUMP JUMPDEST PUSH0 DUP2 SWAP1 POP PUSH2 0x1695 DUP3 PUSH2 0x1674 JUMP JUMPDEST SWAP2 SWAP1 POP JUMP JUMPDEST PUSH0 PUSH2 0x16A4 DUP3 PUSH2 0x1688 JUMP JUMPDEST SWAP1 POP SWAP2 SWAP1 POP JUMP JUMPDEST PUSH2 0x16B4 DUP2 PUSH2 0x169A JUMP JUMPDEST DUP3 MSTORE POP POP JUMP JUMPDEST PUSH0 PUSH1 0x40 DUP3 ADD SWAP1 POP PUSH2 0x16CD PUSH0 DUP4 ADD DUP6 PUSH2 0x16AB JUMP JUMPDEST PUSH2 0x16DA PUSH1 0x20 DUP4 ADD DUP5 PUSH2 0x16AB JUMP JUMPDEST SWAP4 SWAP3 POP POP POP JUMP JUMPDEST PUSH0 DUP3 DUP3 MSTORE PUSH1 0x20 DUP3 ADD SWAP1 POP SWAP3 SWAP2 POP POP JUMP JUMPDEST PUSH32 0x566F746573206D757374206265207461696C6564206265666F726520616E6E6F PUSH0 DUP3 ADD MSTORE PUSH32 0x6E63696E67207468652077696E6E657200000000000000000000000000000000 PUSH1 0x20 DUP3 ADD MSTORE POP JUMP JUMPDEST PUSH0 PUSH2 0x174B PUSH1 0x30 DUP4 PUSH2 0x16E1 JUMP JUMPDEST SWAP2 POP PUSH2 0x1756 DUP3 PUSH2 0x16F1 JUMP JUMPDEST PUSH1 0x40 DUP3 ADD SWAP1 POP SWAP2 SWAP1 POP JUMP JUMPDEST PUSH0 PUSH1 0x20 DUP3 ADD SWAP1 POP DUP2 DUP2 SUB PUSH0 DUP4 ADD MSTORE PUSH2 0x1778 DUP2 PUSH2 0x173F JUMP JUMPDEST SWAP1 POP SWAP2 SWAP1 POP JUMP JUMPDEST PUSH32 0x4E6F2070726F706F73616C7320617661696C61626C6500000000000000000000 PUSH0 DUP3 ADD MSTORE POP JUMP JUMPDEST PUSH0 PUSH2 0x17B3 PUSH1 0x16 DUP4 PUSH2 0x16E1 JUMP JUMPDEST SWAP2 POP PUSH2 0x17BE DUP3 PUSH2 0x177F JUMP JUMPDEST PUSH1 0x20 DUP3 ADD SWAP1 POP SWAP2 SWAP1 POP JUMP JUMPDEST PUSH0 PUSH1 0x20 DUP3 ADD SWAP1 POP DUP2 DUP2 SUB PUSH0 DUP4 ADD MSTORE PUSH2 0x17E0 DUP2 PUSH2 0x17A7 JUMP JUMPDEST SWAP1 POP SWAP2 SWAP1 POP JUMP JUMPDEST PUSH32 0x4E487B7100000000000000000000000000000000000000000000000000000000 PUSH0 MSTORE PUSH1 0x32 PUSH1 0x4 MSTORE PUSH1 0x24 PUSH0 REVERT JUMPDEST PUSH0 DUP2 SLOAD SWAP1 POP PUSH2 0x1822 DUP2 PUSH2 0x15B7 JUMP JUMPDEST SWAP1 POP SWAP2 SWAP1 POP JUMP JUMPDEST PUSH0 DUP2 SWAP1 POP DUP2 PUSH0 MSTORE PUSH1 0x20 PUSH0 KECCAK256 SWAP1 POP SWAP2 SWAP1 POP JUMP JUMPDEST PUSH0 PUSH1 0x20 PUSH1 0x1F DUP4 ADD DIV SWAP1 POP SWAP2 SWAP1 POP JUMP JUMPDEST PUSH0 DUP3 DUP3 SHL SWAP1 POP SWAP3 SWAP2 POP POP JUMP JUMPDEST PUSH0 PUSH1 0x8 DUP4 MUL PUSH2 0x1885 PUSH32 0xFFFFFFFFFFFFFFFFFFFFFFFFFFFFFFFFFFFFFFFFFFFFFFFFFFFFFFFFFFFFFFFF DUP3 PUSH2 0x184A JUMP JUMPDEST PUSH2 0x188F DUP7 DUP4 PUSH2 0x184A JUMP JUMPDEST SWAP6 POP DUP1 NOT DUP5 AND SWAP4 POP DUP1 DUP7 AND DUP5 OR SWAP3 POP POP POP SWAP4 SWAP3 POP POP POP JUMP JUMPDEST PUSH0 DUP2 SWAP1 POP SWAP2 SWAP1 POP JUMP JUMPDEST PUSH0 PUSH2 0x18CA PUSH2 0x18C5 PUSH2 0x18C0 DUP5 PUSH2 0x11D8 JUMP JUMPDEST PUSH2 0x18A7 JUMP JUMPDEST PUSH2 0x11D8 JUMP JUMPDEST SWAP1 POP SWAP2 SWAP1 POP JUMP JUMPDEST PUSH0 DUP2 SWAP1 POP SWAP2 SWAP1 POP JUMP JUMPDEST PUSH2 0x18E3 DUP4 PUSH2 0x18B0 JUMP JUMPDEST PUSH2 0x18F7 PUSH2 0x18EF DUP3 PUSH2 0x18D1 JUMP JUMPDEST DUP5 DUP5 SLOAD PUSH2 0x1856 JUMP JUMPDEST DUP3 SSTORE POP POP POP POP JUMP JUMPDEST PUSH0 PUSH0 SWAP1 POP SWAP1 JUMP JUMPDEST PUSH2 0x190E PUSH2 0x18FF JUMP JUMPDEST PUSH2 0x1919 DUP2 DUP5 DUP5 PUSH2 0x18DA JUMP JUMPDEST POP POP POP JUMP JUMPDEST JUMPDEST DUP2 DUP2 LT ISZERO PUSH2 0x193C JUMPI PUSH2 0x1931 PUSH0 DUP3 PUSH2 0x1906 JUMP JUMPDEST PUSH1 0x1 DUP2 ADD SWAP1 POP PUSH2 0x191F JUMP JUMPDEST POP POP JUMP JUMPDEST PUSH1 0x1F DUP3 GT ISZERO PUSH2 0x1981 JUMPI PUSH2 0x1952 DUP2 PUSH2 0x1829 JUMP JUMPDEST PUSH2 0x195B DUP5 PUSH2 0x183B JUMP JUMPDEST DUP2 ADD PUSH1 0x20 DUP6 LT ISZERO PUSH2 0x196A JUMPI DUP2 SWAP1 POP JUMPDEST PUSH2 0x197E PUSH2 0x1976 DUP6 PUSH2 0x183B JUMP JUMPDEST DUP4 ADD DUP3 PUSH2 0x191E JUMP JUMPDEST POP POP JUMPDEST POP POP POP JUMP JUMPDEST PUSH0 DUP3 DUP3 SHR SWAP1 POP SWAP3 SWAP2 POP POP JUMP JUMPDEST PUSH0 PUSH2 0x19A1 PUSH0 NOT DUP5 PUSH1 0x8 MUL PUSH2 0x1986 JUMP JUMPDEST NOT DUP1 DUP4 AND SWAP2 POP POP SWAP3 SWAP2 POP POP JUMP JUMPDEST PUSH0 PUSH2 0x19B9 DUP4 DUP4 PUSH2 0x1992 JUMP JUMPDEST SWAP2 POP DUP3 PUSH1 0x2 MUL DUP3 OR SWAP1 POP SWAP3 SWAP2 POP POP JUMP JUMPDEST DUP2 DUP2 SUB PUSH2 0x19D7 JUMPI POP POP PUSH2 0x1AAC JUMP JUMPDEST PUSH2 0x19E0 DUP3 PUSH2 0x1814 JUMP JUMPDEST PUSH8 0xFFFFFFFFFFFFFFFF DUP2 GT ISZERO PUSH2 0x19F9 JUMPI PUSH2 0x19F8 PUSH2 0x141F JUMP JUMPDEST JUMPDEST PUSH2 0x1A03 DUP3 SLOAD PUSH2 0x15B7 JUMP JUMPDEST PUSH2 0x1A0E DUP3 DUP3 DUP6 PUSH2 0x1940 JUMP JUMPDEST PUSH0 PUSH1 0x1F DUP4 GT PUSH1 0x1 DUP2 EQ PUSH2 0x1A3B JUMPI PUSH0 DUP5 ISZERO PUSH2 0x1A29 JUMPI DUP3 DUP8 ADD SLOAD SWAP1 POP JUMPDEST PUSH2 0x1A33 DUP6 DUP3 PUSH2 0x19AE JUMP JUMPDEST DUP7 SSTORE POP PUSH2 0x1AA5 JUMP JUMPDEST PUSH1 0x1F NOT DUP5 AND PUSH2 0x1A49 DUP8 PUSH2 0x1829 JUMP JUMPDEST SWAP7 POP PUSH2 0x1A54 DUP7 PUSH2 0x1829 JUMP JUMPDEST PUSH0 JUMPDEST DUP3 DUP2 LT ISZERO PUSH2 0x1A7B JUMPI DUP5 DUP10 ADD SLOAD DUP3 SSTORE PUSH1 0x1 DUP3 ADD SWAP2 POP PUSH1 0x1 DUP6 ADD SWAP5 POP PUSH1 0x20 DUP2 ADD SWAP1 POP PUSH2 0x1A56 JUMP JUMPDEST DUP7 DUP4 LT ISZERO PUSH2 0x1A98 JUMPI DUP5 DUP10 ADD SLOAD PUSH2 0x1A94 PUSH1 0x1F DUP10 AND DUP3 PUSH2 0x1992 JUMP JUMPDEST DUP4 SSTORE POP JUMPDEST PUSH1 0x1 PUSH1 0x2 DUP9 MUL ADD DUP9 SSTORE POP POP POP JUMPDEST POP POP POP POP POP POP JUMPDEST JUMP JUMPDEST PUSH32 0x4E6F2077696E6E65722079657400000000000000000000000000000000000000 PUSH0 DUP3 ADD MSTORE POP JUMP JUMPDEST PUSH0 PUSH2 0x1AE2 PUSH1 0xD DUP4 PUSH2 0x16E1 JUMP JUMPDEST SWAP2 POP PUSH2 0x1AED DUP3 PUSH2 0x1AAE JUMP JUMPDEST PUSH1 0x20 DUP3 ADD SWAP1 POP SWAP2 SWAP1 POP JUMP JUMPDEST PUSH0 PUSH1 0x20 DUP3 ADD SWAP1 POP DUP2 DUP2 SUB PUSH0 DUP4 ADD MSTORE PUSH2 0x1B0F DUP2 PUSH2 0x1AD6 JUMP JUMPDEST SWAP1 POP SWAP2 SWAP1 POP JUMP JUMPDEST PUSH32 0x416464726573732063616E206265206164646564206F6E6C7920696E20526567 PUSH0 DUP3 ADD MSTORE PUSH32 0x697374726174696F6E2070686173653A30000000000000000000000000000000 PUSH1 0x20 DUP3 ADD MSTORE POP JUMP JUMPDEST PUSH0 PUSH2 0x1B70 PUSH1 0x31 DUP4 PUSH2 0x16E1 JUMP JUMPDEST SWAP2 POP PUSH2 0x1B7B DUP3 PUSH2 0x1B16 JUMP JUMPDEST PUSH1 0x40 DUP3 ADD SWAP1 POP SWAP2 SWAP1 POP JUMP JUMPDEST PUSH0 PUSH1 0x20 DUP3 ADD SWAP1 POP DUP2 DUP2 SUB PUSH0 DUP4 ADD MSTORE PUSH2 0x1B9D DUP2 PUSH2 0x1B64 JUMP JUMPDEST SWAP1 POP SWAP2 SWAP1 POP JUMP JUMPDEST PUSH32 0x4164647265737320616C72656164792072656769737465726564000000000000 PUSH0 DUP3 ADD MSTORE POP JUMP JUMPDEST PUSH0 PUSH2 0x1BD8 PUSH1 0x1A DUP4 PUSH2 0x16E1 JUMP JUMPDEST SWAP2 POP PUSH2 0x1BE3 DUP3 PUSH2 0x1BA4 JUMP JUMPDEST PUSH1 0x20 DUP3 ADD SWAP1 POP SWAP2 SWAP1 POP JUMP JUMPDEST PUSH0 PUSH1 0x20 DUP3 ADD SWAP1 POP DUP2 DUP2 SUB PUSH0 DUP4 ADD MSTORE PUSH2 0x1C05 DUP2 PUSH2 0x1BCC JUMP JUMPDEST SWAP1 POP SWAP2 SWAP1 POP JUMP JUMPDEST PUSH0 PUSH2 0x1C16 DUP3 PUSH2 0x11D8 JUMP JUMPDEST SWAP2 POP PUSH32 0xFFFFFFFFFFFFFFFFFFFFFFFFFFFFFFFFFFFFFFFFFFFFFFFFFFFFFFFFFFFFFFFF DUP3 SUB PUSH2 0x1C48 JUMPI PUSH2 0x1C47 PUSH2 0x1614 JUMP JUMPDEST JUMPDEST PUSH1 0x1 DUP3 ADD SWAP1 POP SWAP2 SWAP1 POP JUMP JUMPDEST PUSH32 0x566F7465732063616E20626520646F6E65206F6E6C7920696E20766F74696E67 PUSH0 DUP3 ADD MSTORE PUSH32 0x2070686173653A33000000000000000000000000000000000000000000000000 PUSH1 0x20 DUP3 ADD MSTORE POP JUMP JUMPDEST PUSH0 PUSH2 0x1CAD PUSH1 0x28 DUP4 PUSH2 0x16E1 JUMP JUMPDEST SWAP2 POP PUSH2 0x1CB8 DUP3 PUSH2 0x1C53 JUMP JUMPDEST PUSH1 0x40 DUP3 ADD SWAP1 POP SWAP2 SWAP1 POP JUMP JUMPDEST PUSH0 PUSH1 0x20 DUP3 ADD SWAP1 POP DUP2 DUP2 SUB PUSH0 DUP4 ADD MSTORE PUSH2 0x1CDA DUP2 PUSH2 0x1CA1 JUMP JUMPDEST SWAP1 POP SWAP2 SWAP1 POP JUMP JUMPDEST PUSH32 0x596F75206861766520746F20676574206174206C656174206F6E652070726F70 PUSH0 DUP3 ADD MSTORE PUSH32 0x6F73616C20696E206F7264657220746F2070726F63656564206120766F74696E PUSH1 0x20 DUP3 ADD MSTORE PUSH32 0x6720706861736500000000000000000000000000000000000000000000000000 PUSH1 0x40 DUP3 ADD MSTORE POP JUMP JUMPDEST PUSH0 PUSH2 0x1D61 PUSH1 0x47 DUP4 PUSH2 0x16E1 JUMP JUMPDEST SWAP2 POP PUSH2 0x1D6C DUP3 PUSH2 0x1CE1 JUMP JUMPDEST PUSH1 0x60 DUP3 ADD SWAP1 POP SWAP2 SWAP1 POP JUMP JUMPDEST PUSH0 PUSH1 0x20 DUP3 ADD SWAP1 POP DUP2 DUP2 SUB PUSH0 DUP4 ADD MSTORE PUSH2 0x1D8E DUP2 PUSH2 0x1D55 JUMP JUMPDEST SWAP1 POP SWAP2 SWAP1 POP JUMP JUMPDEST PUSH32 0x596F75206172206E6F742072656769737465726564206173206120766F746572 PUSH0 DUP3 ADD MSTORE POP JUMP JUMPDEST PUSH0 PUSH2 0x1DC9 PUSH1 0x20 DUP4 PUSH2 0x16E1 JUMP JUMPDEST SWAP2 POP PUSH2 0x1DD4 DUP3 PUSH2 0x1D95 JUMP JUMPDEST PUSH1 0x20 DUP3 ADD SWAP1 POP SWAP2 SWAP1 POP JUMP JUMPDEST PUSH0 PUSH1 0x20 DUP3 ADD SWAP1 POP DUP2 DUP2 SUB PUSH0 DUP4 ADD MSTORE PUSH2 0x1DF6 DUP2 PUSH2 0x1DBD JUMP JUMPDEST SWAP1 POP SWAP2 SWAP1 POP JUMP JUMPDEST PUSH32 0x596F75206861766520616C726561647920766F74656400000000000000000000 PUSH0 DUP3 ADD MSTORE POP JUMP JUMPDEST PUSH0 PUSH2 0x1E31 PUSH1 0x16 DUP4 PUSH2 0x16E1 JUMP JUMPDEST SWAP2 POP PUSH2 0x1E3C DUP3 PUSH2 0x1DFD JUMP JUMPDEST PUSH1 0x20 DUP3 ADD SWAP1 POP SWAP2 SWAP1 POP JUMP JUMPDEST PUSH0 PUSH1 0x20 DUP3 ADD SWAP1 POP DUP2 DUP2 SUB PUSH0 DUP4 ADD MSTORE PUSH2 0x1E5E DUP2 PUSH2 0x1E25 JUMP JUMPDEST SWAP1 POP SWAP2 SWAP1 POP JUMP JUMPDEST PUSH32 0x496E76616C69642070726F706F73616C2063686F696365000000000000000000 PUSH0 DUP3 ADD MSTORE POP JUMP JUMPDEST PUSH0 PUSH2 0x1E99 PUSH1 0x17 DUP4 PUSH2 0x16E1 JUMP JUMPDEST SWAP2 POP PUSH2 0x1EA4 DUP3 PUSH2 0x1E65 JUMP JUMPDEST PUSH1 0x20 DUP3 ADD SWAP1 POP SWAP2 SWAP1 POP JUMP JUMPDEST PUSH0 PUSH1 0x20 DUP3 ADD SWAP1 POP DUP2 DUP2 SUB PUSH0 DUP4 ADD MSTORE PUSH2 0x1EC6 DUP2 PUSH2 0x1E8D JUMP JUMPDEST SWAP1 POP SWAP2 SWAP1 POP JUMP JUMPDEST PUSH0 PUSH1 0x40 DUP3 ADD SWAP1 POP PUSH2 0x1EE0 PUSH0 DUP4 ADD DUP6 PUSH2 0x130C JUMP JUMPDEST PUSH2 0x1EED PUSH1 0x20 DUP4 ADD DUP5 PUSH2 0x1334 JUMP JUMPDEST SWAP4 SWAP3 POP POP POP JUMP JUMPDEST PUSH32 0x50726F706F73616C2063616E206265206164646573206F6E6C7920696E205072 PUSH0 DUP3 ADD MSTORE PUSH32 0x6F706F73616C20526567697374726174696F6E2070686173653A310000000000 PUSH1 0x20 DUP3 ADD MSTORE POP JUMP JUMPDEST PUSH0 PUSH2 0x1F4E PUSH1 0x3B DUP4 PUSH2 0x16E1 JUMP JUMPDEST SWAP2 POP PUSH2 0x1F59 DUP3 PUSH2 0x1EF4 JUMP JUMPDEST PUSH1 0x40 DUP3 ADD SWAP1 POP SWAP2 SWAP1 POP JUMP JUMPDEST PUSH0 PUSH1 0x20 DUP3 ADD SWAP1 POP DUP2 DUP2 SUB PUSH0 DUP4 ADD MSTORE PUSH2 0x1F7B DUP2 PUSH2 0x1F42 JUMP JUMPDEST SWAP1 POP SWAP2 SWAP1 POP JUMP JUMPDEST PUSH32 0x57686974656C697374206D75737420636F6E7461696E206174206C6561737420 PUSH0 DUP3 ADD MSTORE PUSH32 0x6F6E652061646472657373000000000000000000000000000000000000000000 PUSH1 0x20 DUP3 ADD MSTORE POP JUMP JUMPDEST PUSH0 PUSH2 0x1FDC PUSH1 0x2B DUP4 PUSH2 0x16E1 JUMP JUMPDEST SWAP2 POP PUSH2 0x1FE7 DUP3 PUSH2 0x1F82 JUMP JUMPDEST PUSH1 0x40 DUP3 ADD SWAP1 POP SWAP2 SWAP1 POP JUMP JUMPDEST PUSH0 PUSH1 0x20 DUP3 ADD SWAP1 POP DUP2 DUP2 SUB PUSH0 DUP4 ADD MSTORE PUSH2 0x2009 DUP2 PUSH2 0x1FD0 JUMP JUMPDEST SWAP1 POP SWAP2 SWAP1 POP JUMP JUMPDEST PUSH32 0x596F757220616472657373206973206E6F742077686974656C69737465640000 PUSH0 DUP3 ADD MSTORE POP JUMP JUMPDEST PUSH0 PUSH2 0x2044 PUSH1 0x1E DUP4 PUSH2 0x16E1 JUMP JUMPDEST SWAP2 POP PUSH2 0x204F DUP3 PUSH2 0x2010 JUMP JUMPDEST PUSH1 0x20 DUP3 ADD SWAP1 POP SWAP2 SWAP1 POP JUMP JUMPDEST PUSH0 PUSH1 0x20 DUP3 ADD SWAP1 POP DUP2 DUP2 SUB PUSH0 DUP4 ADD MSTORE PUSH2 0x2071 DUP2 PUSH2 0x2038 JUMP JUMPDEST SWAP1 POP SWAP2 SWAP1 POP JUMP JUMPDEST PUSH2 0x2081 DUP3 PUSH2 0x1168 JUMP JUMPDEST PUSH8 0xFFFFFFFFFFFFFFFF DUP2 GT ISZERO PUSH2 0x209A JUMPI PUSH2 0x2099 PUSH2 0x141F JUMP JUMPDEST JUMPDEST PUSH2 0x20A4 DUP3 SLOAD PUSH2 0x15B7 JUMP JUMPDEST PUSH2 0x20AF DUP3 DUP3 DUP6 PUSH2 0x1940 JUMP JUMPDEST PUSH0 PUSH1 0x20 SWAP1 POP PUSH1 0x1F DUP4 GT PUSH1 0x1 DUP2 EQ PUSH2 0x20E0 JUMPI PUSH0 DUP5 ISZERO PUSH2 0x20CE JUMPI DUP3 DUP8 ADD MLOAD SWAP1 POP JUMPDEST PUSH2 0x20D8 DUP6 DUP3 PUSH2 0x19AE JUMP JUMPDEST DUP7 SSTORE POP PUSH2 0x213F JUMP JUMPDEST PUSH1 0x1F NOT DUP5 AND PUSH2 0x20EE DUP7 PUSH2 0x1829 JUMP JUMPDEST PUSH0 JUMPDEST DUP3 DUP2 LT ISZERO PUSH2 0x2115 JUMPI DUP5 DUP10 ADD MLOAD DUP3 SSTORE PUSH1 0x1 DUP3 ADD SWAP2 POP PUSH1 0x20 DUP6 ADD SWAP5 POP PUSH1 0x20 DUP2 ADD SWAP1 POP PUSH2 0x20F0 JUMP JUMPDEST DUP7 DUP4 LT ISZERO PUSH2 0x2132 JUMPI DUP5 DUP10 ADD MLOAD PUSH2 0x212E PUSH1 0x1F DUP10 AND DUP3 PUSH2 0x1992 JUMP JUMPDEST DUP4 SSTORE POP JUMPDEST PUSH1 0x1 PUSH1 0x2 DUP9 MUL ADD DUP9 SSTORE POP POP POP JUMPDEST POP POP POP POP POP POP JUMP JUMPDEST PUSH0 PUSH2 0x2151 DUP3 PUSH2 0x11D8 JUMP JUMPDEST SWAP2 POP PUSH2 0x215C DUP4 PUSH2 0x11D8 JUMP JUMPDEST SWAP3 POP DUP3 DUP3 SUB SWAP1 POP DUP2 DUP2 GT ISZERO PUSH2 0x2174 JUMPI PUSH2 0x2173 PUSH2 0x1614 JUMP JUMPDEST JUMPDEST SWAP3 SWAP2 POP POP JUMP INVALID LOG2 PUSH5 0x6970667358 0x22 SLT KECCAK256 DIV 0xDB 0x2E 0xC4 GASLIMIT ORIGIN NOT 0x29 SWAP15 STOP PUSH3 0xB18C18 0x21 ORIGIN CALLCODE PUSH4 0x1E28596F 0xD2 0xE8 CHAINID CALLCODE CALLER 0x4C PUSH15 0x3598DC64736F6C634300081B003300 "
				},
				"gasEstimates": {
					"creation": {
						"codeDepositCost": "1724800",
						"executionCost": "infinite",
						"totalCost": "infinite"
					},
					"external": {
						"Vote(uint256)": "infinite",
						"_addProposal(string)": "infinite",
						"_whitelist(address)": "infinite",
						"checkWinner()": "infinite",
						"getAllProposal()": "infinite",
						"getProposalCount()": "2462",
						"getWinner()": "infinite",
						"nextVotingStatus()": "infinite",
						"owner()": "2581",
						"renounceOwnership()": "infinite",
						"transferOwnership(address)": "infinite"
					}
				},
				"methodIdentifiers": {
					"Vote(uint256)": "dcd6a5cd",
					"_addProposal(string)": "e6adaecc",
					"_whitelist(address)": "cfdb63ac",
					"checkWinner()": "ad38867e",
					"getAllProposal()": "43344983",
					"getProposalCount()": "c08cc02d",
					"getWinner()": "8e7ea5b2",
					"nextVotingStatus()": "4ea49925",
					"owner()": "8da5cb5b",
					"renounceOwnership()": "715018a6",
					"transferOwnership(address)": "f2fde38b"
				}
			},
			"storageLayout": {
				"storage": [
					{
						"astId": 430,
						"contract": "contracts/Voting.sol:Voting",
						"label": "_owner",
						"offset": 0,
						"slot": "0",
						"type": "t_address"
					},
					{
						"astId": 14,
						"contract": "contracts/Voting.sol:Voting",
						"label": "state",
						"offset": 20,
						"slot": "0",
						"type": "t_enum(WorkflowStatus)11"
					},
					{
						"astId": 65,
						"contract": "contracts/Voting.sol:Voting",
						"label": "whitelist",
						"offset": 0,
						"slot": "1",
						"type": "t_mapping(t_address,t_bool)"
					},
					{
						"astId": 70,
						"contract": "contracts/Voting.sol:Voting",
						"label": "voters",
						"offset": 0,
						"slot": "2",
						"type": "t_mapping(t_address,t_struct(Voter)56_storage)"
					},
					{
						"astId": 74,
						"contract": "contracts/Voting.sol:Voting",
						"label": "proposals",
						"offset": 0,
						"slot": "3",
						"type": "t_array(t_struct(Proposal)61_storage)dyn_storage"
					},
					{
						"astId": 76,
						"contract": "contracts/Voting.sol:Voting",
						"label": "whitelistCount",
						"offset": 0,
						"slot": "4",
						"type": "t_uint256"
					},
					{
						"astId": 80,
						"contract": "contracts/Voting.sol:Voting",
						"label": "winners",
						"offset": 0,
						"slot": "5",
						"type": "t_array(t_struct(Proposal)61_storage)dyn_storage"
					}
				],
				"types": {
					"t_address": {
						"encoding": "inplace",
						"label": "address",
						"numberOfBytes": "20"
					},
					"t_array(t_struct(Proposal)61_storage)dyn_storage": {
						"base": "t_struct(Proposal)61_storage",
						"encoding": "dynamic_array",
						"label": "struct Voting.Proposal[]",
						"numberOfBytes": "32"
					},
					"t_bool": {
						"encoding": "inplace",
						"label": "bool",
						"numberOfBytes": "1"
					},
					"t_enum(WorkflowStatus)11": {
						"encoding": "inplace",
						"label": "enum Voting.WorkflowStatus",
						"numberOfBytes": "1"
					},
					"t_mapping(t_address,t_bool)": {
						"encoding": "mapping",
						"key": "t_address",
						"label": "mapping(address => bool)",
						"numberOfBytes": "32",
						"value": "t_bool"
					},
					"t_mapping(t_address,t_struct(Voter)56_storage)": {
						"encoding": "mapping",
						"key": "t_address",
						"label": "mapping(address => struct Voting.Voter)",
						"numberOfBytes": "32",
						"value": "t_struct(Voter)56_storage"
					},
					"t_string_storage": {
						"encoding": "bytes",
						"label": "string",
						"numberOfBytes": "32"
					},
					"t_struct(Proposal)61_storage": {
						"encoding": "inplace",
						"label": "struct Voting.Proposal",
						"members": [
							{
								"astId": 58,
								"contract": "contracts/Voting.sol:Voting",
								"label": "description",
								"offset": 0,
								"slot": "0",
								"type": "t_string_storage"
							},
							{
								"astId": 60,
								"contract": "contracts/Voting.sol:Voting",
								"label": "voteCount",
								"offset": 0,
								"slot": "1",
								"type": "t_uint256"
							}
						],
						"numberOfBytes": "64"
					},
					"t_struct(Voter)56_storage": {
						"encoding": "inplace",
						"label": "struct Voting.Voter",
						"members": [
							{
								"astId": 51,
								"contract": "contracts/Voting.sol:Voting",
								"label": "isRegistered",
								"offset": 0,
								"slot": "0",
								"type": "t_bool"
							},
							{
								"astId": 53,
								"contract": "contracts/Voting.sol:Voting",
								"label": "hasVoted",
								"offset": 1,
								"slot": "0",
								"type": "t_bool"
							},
							{
								"astId": 55,
								"contract": "contracts/Voting.sol:Voting",
								"label": "votedProposalId",
								"offset": 0,
								"slot": "1",
								"type": "t_uint256"
							}
						],
						"numberOfBytes": "64"
					},
					"t_uint256": {
						"encoding": "inplace",
						"label": "uint256",
						"numberOfBytes": "32"
					}
				}
			},
			"userdoc": {
				"kind": "user",
				"methods": {},
				"version": 1
			}
		}
	}
}