{
	"contracts/Voting.sol": {
		"Voting": {
			"abi": [
				{
					"inputs": [],
					"stateMutability": "nonpayable",
					"type": "constructor"
				},
				{
					"inputs": [
						{
							"internalType": "address",
							"name": "owner",
							"type": "address"
						}
					],
					"name": "OwnableInvalidOwner",
					"type": "error"
				},
				{
					"inputs": [
						{
							"internalType": "address",
							"name": "account",
							"type": "address"
						}
					],
					"name": "OwnableUnauthorizedAccount",
					"type": "error"
				},
				{
					"anonymous": false,
					"inputs": [
						{
							"indexed": true,
							"internalType": "address",
							"name": "previousOwner",
							"type": "address"
						},
						{
							"indexed": true,
							"internalType": "address",
							"name": "newOwner",
							"type": "address"
						}
					],
					"name": "OwnershipTransferred",
					"type": "event"
				},
				{
					"anonymous": false,
					"inputs": [
						{
							"indexed": false,
							"internalType": "address",
							"name": "voterAddress",
							"type": "address"
						}
					],
					"name": "VoterRegistered",
					"type": "event"
				},
				{
					"anonymous": false,
					"inputs": [
						{
							"indexed": false,
							"internalType": "enum Voting.WorkflowStatus",
							"name": "previousStatus",
							"type": "uint8"
						},
						{
							"indexed": false,
							"internalType": "enum Voting.WorkflowStatus",
							"name": "newStatus",
							"type": "uint8"
						}
					],
					"name": "WorkflowStatusChange",
					"type": "event"
				},
				{
					"inputs": [
						{
							"internalType": "string",
							"name": "_description",
							"type": "string"
						}
					],
					"name": "_addProposal",
					"outputs": [],
					"stateMutability": "nonpayable",
					"type": "function"
				},
				{
					"inputs": [
						{
							"internalType": "address",
							"name": "_address",
							"type": "address"
						}
					],
					"name": "_whitelist",
					"outputs": [],
					"stateMutability": "nonpayable",
					"type": "function"
				},
				{
					"inputs": [],
					"name": "getProposalCount",
					"outputs": [
						{
							"internalType": "uint256",
							"name": "",
							"type": "uint256"
						}
					],
					"stateMutability": "view",
					"type": "function"
				},
				{
					"inputs": [],
					"name": "nextVotingStatus",
					"outputs": [],
					"stateMutability": "nonpayable",
					"type": "function"
				},
				{
					"inputs": [],
					"name": "owner",
					"outputs": [
						{
							"internalType": "address",
							"name": "",
							"type": "address"
						}
					],
					"stateMutability": "view",
					"type": "function"
				},
				{
					"inputs": [
						{
							"internalType": "uint256",
							"name": "",
							"type": "uint256"
						}
					],
					"name": "proposals",
					"outputs": [
						{
							"internalType": "string",
							"name": "description",
							"type": "string"
						},
						{
							"internalType": "uint256",
							"name": "voteCount",
							"type": "uint256"
						}
					],
					"stateMutability": "view",
					"type": "function"
				},
				{
					"inputs": [],
					"name": "renounceOwnership",
					"outputs": [],
					"stateMutability": "nonpayable",
					"type": "function"
				},
				{
					"inputs": [
						{
							"internalType": "address",
							"name": "newOwner",
							"type": "address"
						}
					],
					"name": "transferOwnership",
					"outputs": [],
					"stateMutability": "nonpayable",
					"type": "function"
				}
			],
			"devdoc": {
				"errors": {
					"OwnableInvalidOwner(address)": [
						{
							"details": "The owner is not a valid owner account. (eg. `address(0)`)"
						}
					],
					"OwnableUnauthorizedAccount(address)": [
						{
							"details": "The caller account is not authorized to perform an operation."
						}
					]
				},
				"kind": "dev",
				"methods": {
					"owner()": {
						"details": "Returns the address of the current owner."
					},
					"renounceOwnership()": {
						"details": "Leaves the contract without owner. It will not be possible to call `onlyOwner` functions. Can only be called by the current owner. NOTE: Renouncing ownership will leave the contract without an owner, thereby disabling any functionality that is only available to the owner."
					},
					"transferOwnership(address)": {
						"details": "Transfers ownership of the contract to a new account (`newOwner`). Can only be called by the current owner."
					}
				},
				"version": 1
			},
			"evm": {
				"assembly": "    /* \"contracts/Voting.sol\":170:3467  contract Voting is Ownable{... */\n  mstore(0x40, 0x80)\n    /* \"contracts/Voting.sol\":451:633  constructor() Ownable(msg.sender){ //Specifie que le proprietaire du contrat et celui qui l'a deployé... */\n  callvalue\n  dup1\n  iszero\n  tag_1\n  jumpi\n  revert(0x00, 0x00)\ntag_1:\n  pop\n    /* \"contracts/Voting.sol\":473:483  msg.sender */\n  caller\n    /* \"https://github.com/OpenZeppelin/openzeppelin-contracts/blob/master/contracts/access/Ownable.sol\":1297:1298  0 */\n  0x00\n    /* \"https://github.com/OpenZeppelin/openzeppelin-contracts/blob/master/contracts/access/Ownable.sol\":1273:1299  initialOwner == address(0) */\n  0xffffffffffffffffffffffffffffffffffffffff\n  and\n    /* \"https://github.com/OpenZeppelin/openzeppelin-contracts/blob/master/contracts/access/Ownable.sol\":1273:1285  initialOwner */\n  dup2\n    /* \"https://github.com/OpenZeppelin/openzeppelin-contracts/blob/master/contracts/access/Ownable.sol\":1273:1299  initialOwner == address(0) */\n  0xffffffffffffffffffffffffffffffffffffffff\n  and\n  sub\n    /* \"https://github.com/OpenZeppelin/openzeppelin-contracts/blob/master/contracts/access/Ownable.sol\":1269:1364  if (initialOwner == address(0)) {... */\n  tag_5\n  jumpi\n    /* \"https://github.com/OpenZeppelin/openzeppelin-contracts/blob/master/contracts/access/Ownable.sol\":1350:1351  0 */\n  0x00\n    /* \"https://github.com/OpenZeppelin/openzeppelin-contracts/blob/master/contracts/access/Ownable.sol\":1322:1353  OwnableInvalidOwner(address(0)) */\n  mload(0x40)\n  0x1e4fbdf700000000000000000000000000000000000000000000000000000000\n  dup2\n  mstore\n  0x04\n  add\n  tag_6\n  swap2\n  swap1\n  tag_7\n  jump\t// in\ntag_6:\n  mload(0x40)\n  dup1\n  swap2\n  sub\n  swap1\n  revert\n    /* \"https://github.com/OpenZeppelin/openzeppelin-contracts/blob/master/contracts/access/Ownable.sol\":1269:1364  if (initialOwner == address(0)) {... */\ntag_5:\n    /* \"https://github.com/OpenZeppelin/openzeppelin-contracts/blob/master/contracts/access/Ownable.sol\":1373:1405  _transferOwnership(initialOwner) */\n  tag_8\n    /* \"https://github.com/OpenZeppelin/openzeppelin-contracts/blob/master/contracts/access/Ownable.sol\":1392:1404  initialOwner */\n  dup2\n    /* \"https://github.com/OpenZeppelin/openzeppelin-contracts/blob/master/contracts/access/Ownable.sol\":1373:1391  _transferOwnership */\n  shl(0x20, tag_9)\n    /* \"https://github.com/OpenZeppelin/openzeppelin-contracts/blob/master/contracts/access/Ownable.sol\":1373:1405  _transferOwnership(initialOwner) */\n  0x20\n  shr\n  jump\t// in\ntag_8:\n    /* \"https://github.com/OpenZeppelin/openzeppelin-contracts/blob/master/contracts/access/Ownable.sol\":1225:1412  constructor(address initialOwner) {... */\n  pop\n    /* \"contracts/Voting.sol\":570:597  WorkflowStatus.VotesTallied */\n  0x05\n    /* \"contracts/Voting.sol\":562:567  state */\n  0x00\n  0x14\n    /* \"contracts/Voting.sol\":562:597  state = WorkflowStatus.VotesTallied */\n  0x0100\n  exp\n  dup2\n  sload\n  dup2\n  0xff\n  mul\n  not\n  and\n  swap1\n  dup4\n  0x05\n  dup2\n  gt\n  iszero\n  tag_11\n  jumpi\n  tag_12\n  tag_13\n  jump\t// in\ntag_12:\ntag_11:\n  mul\n  or\n  swap1\n  sstore\n  pop\n    /* \"contracts/Voting.sol\":170:3467  contract Voting is Ownable{... */\n  jump(tag_14)\n    /* \"https://github.com/OpenZeppelin/openzeppelin-contracts/blob/master/contracts/access/Ownable.sol\":2912:3099  function _transferOwnership(address newOwner) internal virtual {... */\ntag_9:\n    /* \"https://github.com/OpenZeppelin/openzeppelin-contracts/blob/master/contracts/access/Ownable.sol\":2985:3001  address oldOwner */\n  0x00\n    /* \"https://github.com/OpenZeppelin/openzeppelin-contracts/blob/master/contracts/access/Ownable.sol\":3004:3010  _owner */\n  0x00\n  0x00\n  swap1\n  sload\n  swap1\n  0x0100\n  exp\n  swap1\n  div\n  0xffffffffffffffffffffffffffffffffffffffff\n  and\n    /* \"https://github.com/OpenZeppelin/openzeppelin-contracts/blob/master/contracts/access/Ownable.sol\":2985:3010  address oldOwner = _owner */\n  swap1\n  pop\n    /* \"https://github.com/OpenZeppelin/openzeppelin-contracts/blob/master/contracts/access/Ownable.sol\":3029:3037  newOwner */\n  dup2\n    /* \"https://github.com/OpenZeppelin/openzeppelin-contracts/blob/master/contracts/access/Ownable.sol\":3020:3026  _owner */\n  0x00\n  0x00\n    /* \"https://github.com/OpenZeppelin/openzeppelin-contracts/blob/master/contracts/access/Ownable.sol\":3020:3037  _owner = newOwner */\n  0x0100\n  exp\n  dup2\n  sload\n  dup2\n  0xffffffffffffffffffffffffffffffffffffffff\n  mul\n  not\n  and\n  swap1\n  dup4\n  0xffffffffffffffffffffffffffffffffffffffff\n  and\n  mul\n  or\n  swap1\n  sstore\n  pop\n    /* \"https://github.com/OpenZeppelin/openzeppelin-contracts/blob/master/contracts/access/Ownable.sol\":3083:3091  newOwner */\n  dup2\n    /* \"https://github.com/OpenZeppelin/openzeppelin-contracts/blob/master/contracts/access/Ownable.sol\":3052:3092  OwnershipTransferred(oldOwner, newOwner) */\n  0xffffffffffffffffffffffffffffffffffffffff\n  and\n    /* \"https://github.com/OpenZeppelin/openzeppelin-contracts/blob/master/contracts/access/Ownable.sol\":3073:3081  oldOwner */\n  dup2\n    /* \"https://github.com/OpenZeppelin/openzeppelin-contracts/blob/master/contracts/access/Ownable.sol\":3052:3092  OwnershipTransferred(oldOwner, newOwner) */\n  0xffffffffffffffffffffffffffffffffffffffff\n  and\n  0x8be0079c531659141344cd1fd0a4f28419497f9722a3daafe3b4186f6b6457e0\n  mload(0x40)\n  mload(0x40)\n  dup1\n  swap2\n  sub\n  swap1\n  log3\n    /* \"https://github.com/OpenZeppelin/openzeppelin-contracts/blob/master/contracts/access/Ownable.sol\":2975:3099  {... */\n  pop\n    /* \"https://github.com/OpenZeppelin/openzeppelin-contracts/blob/master/contracts/access/Ownable.sol\":2912:3099  function _transferOwnership(address newOwner) internal virtual {... */\n  pop\n  jump\t// out\n    /* \"#utility.yul\":7:133   */\ntag_16:\n    /* \"#utility.yul\":44:51   */\n  0x00\n    /* \"#utility.yul\":84:126   */\n  0xffffffffffffffffffffffffffffffffffffffff\n    /* \"#utility.yul\":77:82   */\n  dup3\n    /* \"#utility.yul\":73:127   */\n  and\n    /* \"#utility.yul\":62:127   */\n  swap1\n  pop\n    /* \"#utility.yul\":7:133   */\n  swap2\n  swap1\n  pop\n  jump\t// out\n    /* \"#utility.yul\":139:235   */\ntag_17:\n    /* \"#utility.yul\":176:183   */\n  0x00\n    /* \"#utility.yul\":205:229   */\n  tag_22\n    /* \"#utility.yul\":223:228   */\n  dup3\n    /* \"#utility.yul\":205:229   */\n  tag_16\n  jump\t// in\ntag_22:\n    /* \"#utility.yul\":194:229   */\n  swap1\n  pop\n    /* \"#utility.yul\":139:235   */\n  swap2\n  swap1\n  pop\n  jump\t// out\n    /* \"#utility.yul\":241:359   */\ntag_18:\n    /* \"#utility.yul\":328:352   */\n  tag_24\n    /* \"#utility.yul\":346:351   */\n  dup2\n    /* \"#utility.yul\":328:352   */\n  tag_17\n  jump\t// in\ntag_24:\n    /* \"#utility.yul\":323:326   */\n  dup3\n    /* \"#utility.yul\":316:353   */\n  mstore\n    /* \"#utility.yul\":241:359   */\n  pop\n  pop\n  jump\t// out\n    /* \"#utility.yul\":365:587   */\ntag_7:\n    /* \"#utility.yul\":458:462   */\n  0x00\n    /* \"#utility.yul\":496:498   */\n  0x20\n    /* \"#utility.yul\":485:494   */\n  dup3\n    /* \"#utility.yul\":481:499   */\n  add\n    /* \"#utility.yul\":473:499   */\n  swap1\n  pop\n    /* \"#utility.yul\":509:580   */\n  tag_26\n    /* \"#utility.yul\":577:578   */\n  0x00\n    /* \"#utility.yul\":566:575   */\n  dup4\n    /* \"#utility.yul\":562:579   */\n  add\n    /* \"#utility.yul\":553:559   */\n  dup5\n    /* \"#utility.yul\":509:580   */\n  tag_18\n  jump\t// in\ntag_26:\n    /* \"#utility.yul\":365:587   */\n  swap3\n  swap2\n  pop\n  pop\n  jump\t// out\n    /* \"#utility.yul\":593:773   */\ntag_13:\n    /* \"#utility.yul\":641:718   */\n  0x4e487b7100000000000000000000000000000000000000000000000000000000\n    /* \"#utility.yul\":638:639   */\n  0x00\n    /* \"#utility.yul\":631:719   */\n  mstore\n    /* \"#utility.yul\":738:742   */\n  0x21\n    /* \"#utility.yul\":735:736   */\n  0x04\n    /* \"#utility.yul\":728:743   */\n  mstore\n    /* \"#utility.yul\":762:766   */\n  0x24\n    /* \"#utility.yul\":759:760   */\n  0x00\n    /* \"#utility.yul\":752:767   */\n  revert\n    /* \"contracts/Voting.sol\":170:3467  contract Voting is Ownable{... */\ntag_14:\n  dataSize(sub_0)\n  dup1\n  dataOffset(sub_0)\n  0x00\n  codecopy\n  0x00\n  return\nstop\n\nsub_0: assembly {\n        /* \"contracts/Voting.sol\":170:3467  contract Voting is Ownable{... */\n      mstore(0x40, 0x80)\n      callvalue\n      dup1\n      iszero\n      tag_1\n      jumpi\n      revert(0x00, 0x00)\n    tag_1:\n      pop\n      jumpi(tag_2, lt(calldatasize, 0x04))\n      shr(0xe0, calldataload(0x00))\n      dup1\n      0xc08cc02d\n      gt\n      tag_11\n      jumpi\n      dup1\n      0xc08cc02d\n      eq\n      tag_7\n      jumpi\n      dup1\n      0xcfdb63ac\n      eq\n      tag_8\n      jumpi\n      dup1\n      0xe6adaecc\n      eq\n      tag_9\n      jumpi\n      dup1\n      0xf2fde38b\n      eq\n      tag_10\n      jumpi\n      jump(tag_2)\n    tag_11:\n      dup1\n      0x013cf08b\n      eq\n      tag_3\n      jumpi\n      dup1\n      0x4ea49925\n      eq\n      tag_4\n      jumpi\n      dup1\n      0x715018a6\n      eq\n      tag_5\n      jumpi\n      dup1\n      0x8da5cb5b\n      eq\n      tag_6\n      jumpi\n    tag_2:\n      revert(0x00, 0x00)\n        /* \"contracts/Voting.sol\":2470:2497  Proposal[] public proposals */\n    tag_3:\n      tag_12\n      0x04\n      dup1\n      calldatasize\n      sub\n      dup2\n      add\n      swap1\n      tag_13\n      swap2\n      swap1\n      tag_14\n      jump\t// in\n    tag_13:\n      tag_15\n      jump\t// in\n    tag_12:\n      mload(0x40)\n      tag_16\n      swap3\n      swap2\n      swap1\n      tag_17\n      jump\t// in\n    tag_16:\n      mload(0x40)\n      dup1\n      swap2\n      sub\n      swap1\n      return\n        /* \"contracts/Voting.sol\":799:1480  function nextVotingStatus() public onlyOwner{ //Definis le status à l'etape suivante... */\n    tag_4:\n      tag_18\n      tag_19\n      jump\t// in\n    tag_18:\n      stop\n        /* \"https://github.com/OpenZeppelin/openzeppelin-contracts/blob/master/contracts/access/Ownable.sol\":2293:2394  function renounceOwnership() public virtual onlyOwner {... */\n    tag_5:\n      tag_20\n      tag_21\n      jump\t// in\n    tag_20:\n      stop\n        /* \"https://github.com/OpenZeppelin/openzeppelin-contracts/blob/master/contracts/access/Ownable.sol\":1638:1723  function owner() public view virtual returns (address) {... */\n    tag_6:\n      tag_22\n      tag_23\n      jump\t// in\n    tag_22:\n      mload(0x40)\n      tag_24\n      swap2\n      swap1\n      tag_25\n      jump\t// in\n    tag_24:\n      mload(0x40)\n      dup1\n      swap2\n      sub\n      swap1\n      return\n        /* \"contracts/Voting.sol\":2966:3062  function getProposalCount() external view returns (uint){... */\n    tag_7:\n      tag_26\n      tag_27\n      jump\t// in\n    tag_26:\n      mload(0x40)\n      tag_28\n      swap2\n      swap1\n      tag_29\n      jump\t// in\n    tag_28:\n      mload(0x40)\n      dup1\n      swap2\n      sub\n      swap1\n      return\n        /* \"contracts/Voting.sol\":1720:2262  function _whitelist(address _address) public onlyOwner{... */\n    tag_8:\n      tag_30\n      0x04\n      dup1\n      calldatasize\n      sub\n      dup2\n      add\n      swap1\n      tag_31\n      swap2\n      swap1\n      tag_32\n      jump\t// in\n    tag_31:\n      tag_33\n      jump\t// in\n    tag_30:\n      stop\n        /* \"contracts/Voting.sol\":2504:2961  function _addProposal (string memory _description) external {... */\n    tag_9:\n      tag_34\n      0x04\n      dup1\n      calldatasize\n      sub\n      dup2\n      add\n      swap1\n      tag_35\n      swap2\n      swap1\n      tag_36\n      jump\t// in\n    tag_35:\n      tag_37\n      jump\t// in\n    tag_34:\n      stop\n        /* \"https://github.com/OpenZeppelin/openzeppelin-contracts/blob/master/contracts/access/Ownable.sol\":2543:2758  function transferOwnership(address newOwner) public virtual onlyOwner {... */\n    tag_10:\n      tag_38\n      0x04\n      dup1\n      calldatasize\n      sub\n      dup2\n      add\n      swap1\n      tag_39\n      swap2\n      swap1\n      tag_32\n      jump\t// in\n    tag_39:\n      tag_40\n      jump\t// in\n    tag_38:\n      stop\n        /* \"contracts/Voting.sol\":2470:2497  Proposal[] public proposals */\n    tag_15:\n      0x02\n      dup2\n      dup2\n      sload\n      dup2\n      lt\n      tag_41\n      jumpi\n      0x00\n      dup1\n      revert\n    tag_41:\n      swap1\n      0x00\n      mstore\n      keccak256(0x00, 0x20)\n      swap1\n      0x02\n      mul\n      add\n      0x00\n      swap2\n      pop\n      swap1\n      pop\n      dup1\n      0x00\n      add\n      dup1\n      sload\n      tag_43\n      swap1\n      tag_44\n      jump\t// in\n    tag_43:\n      dup1\n      0x1f\n      add\n      0x20\n      dup1\n      swap2\n      div\n      mul\n      0x20\n      add\n      mload(0x40)\n      swap1\n      dup2\n      add\n      0x40\n      mstore\n      dup1\n      swap3\n      swap2\n      swap1\n      dup2\n      dup2\n      mstore\n      0x20\n      add\n      dup3\n      dup1\n      sload\n      tag_45\n      swap1\n      tag_44\n      jump\t// in\n    tag_45:\n      dup1\n      iszero\n      tag_46\n      jumpi\n      dup1\n      0x1f\n      lt\n      tag_47\n      jumpi\n      0x0100\n      dup1\n      dup4\n      sload\n      div\n      mul\n      dup4\n      mstore\n      swap2\n      0x20\n      add\n      swap2\n      jump(tag_46)\n    tag_47:\n      dup3\n      add\n      swap2\n      swap1\n      0x00\n      mstore\n      keccak256(0x00, 0x20)\n      swap1\n    tag_48:\n      dup2\n      sload\n      dup2\n      mstore\n      swap1\n      0x01\n      add\n      swap1\n      0x20\n      add\n      dup1\n      dup4\n      gt\n      tag_48\n      jumpi\n      dup3\n      swap1\n      sub\n      0x1f\n      and\n      dup3\n      add\n      swap2\n    tag_46:\n      pop\n      pop\n      pop\n      pop\n      pop\n      swap1\n      dup1\n      0x01\n      add\n      sload\n      swap1\n      pop\n      dup3\n      jump\t// out\n        /* \"contracts/Voting.sol\":799:1480  function nextVotingStatus() public onlyOwner{ //Definis le status à l'etape suivante... */\n    tag_19:\n        /* \"https://github.com/OpenZeppelin/openzeppelin-contracts/blob/master/contracts/access/Ownable.sol\":1531:1544  _checkOwner() */\n      tag_50\n        /* \"https://github.com/OpenZeppelin/openzeppelin-contracts/blob/master/contracts/access/Ownable.sol\":1531:1542  _checkOwner */\n      tag_51\n        /* \"https://github.com/OpenZeppelin/openzeppelin-contracts/blob/master/contracts/access/Ownable.sol\":1531:1544  _checkOwner() */\n      jump\t// in\n    tag_50:\n        /* \"contracts/Voting.sol\":893:922  WorkflowStatus previousStatus */\n      0x00\n        /* \"contracts/Voting.sol\":923:928  state */\n      0x00\n      0x14\n      swap1\n      sload\n      swap1\n      0x0100\n      exp\n      swap1\n      div\n      0xff\n      and\n        /* \"contracts/Voting.sol\":893:928  WorkflowStatus previousStatus=state */\n      swap1\n      pop\n        /* \"contracts/Voting.sol\":1018:1045  WorkflowStatus.VotesTallied */\n      0x05\n        /* \"contracts/Voting.sol\":1010:1045  state== WorkflowStatus.VotesTallied */\n      dup1\n      dup2\n      gt\n      iszero\n      tag_53\n      jumpi\n      tag_54\n      tag_55\n      jump\t// in\n    tag_54:\n    tag_53:\n        /* \"contracts/Voting.sol\":1010:1015  state */\n      0x00\n      0x14\n      swap1\n      sload\n      swap1\n      0x0100\n      exp\n      swap1\n      div\n      0xff\n      and\n        /* \"contracts/Voting.sol\":1010:1045  state== WorkflowStatus.VotesTallied */\n      0x05\n      dup2\n      gt\n      iszero\n      tag_56\n      jumpi\n      tag_57\n      tag_55\n      jump\t// in\n    tag_57:\n    tag_56:\n      sub\n        /* \"contracts/Voting.sol\":1006:1235  if (state== WorkflowStatus.VotesTallied){... */\n      tag_58\n      jumpi\n        /* \"contracts/Voting.sol\":1068:1100  WorkflowStatus.RegisteringVoters */\n      0x00\n        /* \"contracts/Voting.sol\":1060:1065  state */\n      0x00\n      0x14\n        /* \"contracts/Voting.sol\":1060:1100  state = WorkflowStatus.RegisteringVoters */\n      0x0100\n      exp\n      dup2\n      sload\n      dup2\n      0xff\n      mul\n      not\n      and\n      swap1\n      dup4\n      0x05\n      dup2\n      gt\n      iszero\n      tag_59\n      jumpi\n      tag_60\n      tag_55\n      jump\t// in\n    tag_60:\n    tag_59:\n      mul\n      or\n      swap1\n      sstore\n      pop\n        /* \"contracts/Voting.sol\":1006:1235  if (state== WorkflowStatus.VotesTallied){... */\n      jump(tag_61)\n    tag_58:\n        /* \"contracts/Voting.sol\":1222:1223  1 */\n      0x01\n        /* \"contracts/Voting.sol\":1215:1220  state */\n      0x00\n      0x14\n      swap1\n      sload\n      swap1\n      0x0100\n      exp\n      swap1\n      div\n      0xff\n      and\n        /* \"contracts/Voting.sol\":1210:1221  uint(state) */\n      0x05\n      dup2\n      gt\n      iszero\n      tag_62\n      jumpi\n      tag_63\n      tag_55\n      jump\t// in\n    tag_63:\n    tag_62:\n        /* \"contracts/Voting.sol\":1210:1223  uint(state)+1 */\n      tag_64\n      swap2\n      swap1\n      tag_65\n      jump\t// in\n    tag_64:\n        /* \"contracts/Voting.sol\":1195:1224  WorkflowStatus(uint(state)+1) */\n      0x05\n      dup2\n      gt\n      iszero\n      tag_66\n      jumpi\n      tag_67\n      tag_55\n      jump\t// in\n    tag_67:\n    tag_66:\n        /* \"contracts/Voting.sol\":1187:1192  state */\n      0x00\n      0x14\n        /* \"contracts/Voting.sol\":1187:1224  state = WorkflowStatus(uint(state)+1) */\n      0x0100\n      exp\n      dup2\n      sload\n      dup2\n      0xff\n      mul\n      not\n      and\n      swap1\n      dup4\n      0x05\n      dup2\n      gt\n      iszero\n      tag_68\n      jumpi\n      tag_69\n      tag_55\n      jump\t// in\n    tag_69:\n    tag_68:\n      mul\n      or\n      swap1\n      sstore\n      pop\n        /* \"contracts/Voting.sol\":1006:1235  if (state== WorkflowStatus.VotesTallied){... */\n    tag_61:\n        /* \"contracts/Voting.sol\":1244:1268  WorkflowStatus newStatus */\n      0x00\n        /* \"contracts/Voting.sol\":1269:1274  state */\n      0x00\n      0x14\n      swap1\n      sload\n      swap1\n      0x0100\n      exp\n      swap1\n      div\n      0xff\n      and\n        /* \"contracts/Voting.sol\":1244:1274  WorkflowStatus newStatus=state */\n      swap1\n      pop\n        /* \"contracts/Voting.sol\":1356:1403  WorkflowStatusChange(previousStatus, newStatus) */\n      0x0a97a4ee45751e2abf3e4fc8946939630b11b371ea8ae39ccdc3056e98f5cc3f\n        /* \"contracts/Voting.sol\":1377:1391  previousStatus */\n      dup3\n        /* \"contracts/Voting.sol\":1393:1402  newStatus */\n      dup3\n        /* \"contracts/Voting.sol\":1356:1403  WorkflowStatusChange(previousStatus, newStatus) */\n      mload(0x40)\n      tag_70\n      swap3\n      swap2\n      swap1\n      tag_71\n      jump\t// in\n    tag_70:\n      mload(0x40)\n      dup1\n      swap2\n      sub\n      swap1\n      log1\n        /* \"contracts/Voting.sol\":843:1480  { //Definis le status à l'etape suivante... */\n      pop\n      pop\n        /* \"contracts/Voting.sol\":799:1480  function nextVotingStatus() public onlyOwner{ //Definis le status à l'etape suivante... */\n      jump\t// out\n        /* \"https://github.com/OpenZeppelin/openzeppelin-contracts/blob/master/contracts/access/Ownable.sol\":2293:2394  function renounceOwnership() public virtual onlyOwner {... */\n    tag_21:\n        /* \"https://github.com/OpenZeppelin/openzeppelin-contracts/blob/master/contracts/access/Ownable.sol\":1531:1544  _checkOwner() */\n      tag_73\n        /* \"https://github.com/OpenZeppelin/openzeppelin-contracts/blob/master/contracts/access/Ownable.sol\":1531:1542  _checkOwner */\n      tag_51\n        /* \"https://github.com/OpenZeppelin/openzeppelin-contracts/blob/master/contracts/access/Ownable.sol\":1531:1544  _checkOwner() */\n      jump\t// in\n    tag_73:\n        /* \"https://github.com/OpenZeppelin/openzeppelin-contracts/blob/master/contracts/access/Ownable.sol\":2357:2387  _transferOwnership(address(0)) */\n      tag_75\n        /* \"https://github.com/OpenZeppelin/openzeppelin-contracts/blob/master/contracts/access/Ownable.sol\":2384:2385  0 */\n      0x00\n        /* \"https://github.com/OpenZeppelin/openzeppelin-contracts/blob/master/contracts/access/Ownable.sol\":2357:2375  _transferOwnership */\n      tag_76\n        /* \"https://github.com/OpenZeppelin/openzeppelin-contracts/blob/master/contracts/access/Ownable.sol\":2357:2387  _transferOwnership(address(0)) */\n      jump\t// in\n    tag_75:\n        /* \"https://github.com/OpenZeppelin/openzeppelin-contracts/blob/master/contracts/access/Ownable.sol\":2293:2394  function renounceOwnership() public virtual onlyOwner {... */\n      jump\t// out\n        /* \"https://github.com/OpenZeppelin/openzeppelin-contracts/blob/master/contracts/access/Ownable.sol\":1638:1723  function owner() public view virtual returns (address) {... */\n    tag_23:\n        /* \"https://github.com/OpenZeppelin/openzeppelin-contracts/blob/master/contracts/access/Ownable.sol\":1684:1691  address */\n      0x00\n        /* \"https://github.com/OpenZeppelin/openzeppelin-contracts/blob/master/contracts/access/Ownable.sol\":1710:1716  _owner */\n      0x00\n      0x00\n      swap1\n      sload\n      swap1\n      0x0100\n      exp\n      swap1\n      div\n      0xffffffffffffffffffffffffffffffffffffffff\n      and\n        /* \"https://github.com/OpenZeppelin/openzeppelin-contracts/blob/master/contracts/access/Ownable.sol\":1703:1716  return _owner */\n      swap1\n      pop\n        /* \"https://github.com/OpenZeppelin/openzeppelin-contracts/blob/master/contracts/access/Ownable.sol\":1638:1723  function owner() public view virtual returns (address) {... */\n      swap1\n      jump\t// out\n        /* \"contracts/Voting.sol\":2966:3062  function getProposalCount() external view returns (uint){... */\n    tag_27:\n        /* \"contracts/Voting.sol\":3017:3021  uint */\n      0x00\n        /* \"contracts/Voting.sol\":3039:3048  proposals */\n      0x02\n        /* \"contracts/Voting.sol\":3039:3055  proposals.length */\n      dup1\n      sload\n      swap1\n      pop\n        /* \"contracts/Voting.sol\":3032:3055  return proposals.length */\n      swap1\n      pop\n        /* \"contracts/Voting.sol\":2966:3062  function getProposalCount() external view returns (uint){... */\n      swap1\n      jump\t// out\n        /* \"contracts/Voting.sol\":1720:2262  function _whitelist(address _address) public onlyOwner{... */\n    tag_33:\n        /* \"https://github.com/OpenZeppelin/openzeppelin-contracts/blob/master/contracts/access/Ownable.sol\":1531:1544  _checkOwner() */\n      tag_80\n        /* \"https://github.com/OpenZeppelin/openzeppelin-contracts/blob/master/contracts/access/Ownable.sol\":1531:1542  _checkOwner */\n      tag_51\n        /* \"https://github.com/OpenZeppelin/openzeppelin-contracts/blob/master/contracts/access/Ownable.sol\":1531:1544  _checkOwner() */\n      jump\t// in\n    tag_80:\n        /* \"contracts/Voting.sol\":1801:1833  WorkflowStatus.RegisteringVoters */\n      0x00\n        /* \"contracts/Voting.sol\":1792:1833  state == WorkflowStatus.RegisteringVoters */\n      0x05\n      dup2\n      gt\n      iszero\n      tag_82\n      jumpi\n      tag_83\n      tag_55\n      jump\t// in\n    tag_83:\n    tag_82:\n        /* \"contracts/Voting.sol\":1792:1797  state */\n      0x00\n      0x14\n      swap1\n      sload\n      swap1\n      0x0100\n      exp\n      swap1\n      div\n      0xff\n      and\n        /* \"contracts/Voting.sol\":1792:1833  state == WorkflowStatus.RegisteringVoters */\n      0x05\n      dup2\n      gt\n      iszero\n      tag_84\n      jumpi\n      tag_85\n      tag_55\n      jump\t// in\n    tag_85:\n    tag_84:\n      eq\n        /* \"contracts/Voting.sol\":1784:1884  require(state == WorkflowStatus.RegisteringVoters,\"Address can be added only in Registration phase\") */\n      tag_86\n      jumpi\n      mload(0x40)\n      0x08c379a000000000000000000000000000000000000000000000000000000000\n      dup2\n      mstore\n      0x04\n      add\n      tag_87\n      swap1\n      tag_88\n      jump\t// in\n    tag_87:\n      mload(0x40)\n      dup1\n      swap2\n      sub\n      swap1\n      revert\n    tag_86:\n        /* \"contracts/Voting.sol\":1976:1985  whitelist */\n      0x01\n        /* \"contracts/Voting.sol\":1976:1995  whitelist[_address] */\n      0x00\n        /* \"contracts/Voting.sol\":1986:1994  _address */\n      dup3\n        /* \"contracts/Voting.sol\":1976:1995  whitelist[_address] */\n      0xffffffffffffffffffffffffffffffffffffffff\n      and\n      0xffffffffffffffffffffffffffffffffffffffff\n      and\n      dup2\n      mstore\n      0x20\n      add\n      swap1\n      dup2\n      mstore\n      0x20\n      add\n      0x00\n      keccak256\n      0x00\n      swap1\n      sload\n      swap1\n      0x0100\n      exp\n      swap1\n      div\n      0xff\n      and\n        /* \"contracts/Voting.sol\":1975:1995  !whitelist[_address] */\n      iszero\n        /* \"contracts/Voting.sol\":1967:2025  require(!whitelist[_address],\"Address already registered\") */\n      tag_89\n      jumpi\n      mload(0x40)\n      0x08c379a000000000000000000000000000000000000000000000000000000000\n      dup2\n      mstore\n      0x04\n      add\n      tag_90\n      swap1\n      tag_91\n      jump\t// in\n    tag_90:\n      mload(0x40)\n      dup1\n      swap2\n      sub\n      swap1\n      revert\n    tag_89:\n        /* \"contracts/Voting.sol\":2111:2115  true */\n      0x01\n        /* \"contracts/Voting.sol\":2091:2100  whitelist */\n      dup1\n        /* \"contracts/Voting.sol\":2091:2110  whitelist[_address] */\n      0x00\n        /* \"contracts/Voting.sol\":2101:2109  _address */\n      dup4\n        /* \"contracts/Voting.sol\":2091:2110  whitelist[_address] */\n      0xffffffffffffffffffffffffffffffffffffffff\n      and\n      0xffffffffffffffffffffffffffffffffffffffff\n      and\n      dup2\n      mstore\n      0x20\n      add\n      swap1\n      dup2\n      mstore\n      0x20\n      add\n      0x00\n      keccak256\n      0x00\n        /* \"contracts/Voting.sol\":2091:2115  whitelist[_address]=true */\n      0x0100\n      exp\n      dup2\n      sload\n      dup2\n      0xff\n      mul\n      not\n      and\n      swap1\n      dup4\n      iszero\n      iszero\n      mul\n      or\n      swap1\n      sstore\n      pop\n        /* \"contracts/Voting.sol\":2183:2208  VoterRegistered(_address) */\n      0xb6be2187d059cc2a55fe29e0e503b566e1e0f8c8780096e185429350acffd3dd\n        /* \"contracts/Voting.sol\":2199:2207  _address */\n      dup2\n        /* \"contracts/Voting.sol\":2183:2208  VoterRegistered(_address) */\n      mload(0x40)\n      tag_92\n      swap2\n      swap1\n      tag_25\n      jump\t// in\n    tag_92:\n      mload(0x40)\n      dup1\n      swap2\n      sub\n      swap1\n      log1\n        /* \"contracts/Voting.sol\":1720:2262  function _whitelist(address _address) public onlyOwner{... */\n      pop\n      jump\t// out\n        /* \"contracts/Voting.sol\":2504:2961  function _addProposal (string memory _description) external {... */\n    tag_37:\n        /* \"contracts/Voting.sol\":2591:2634  WorkflowStatus.ProposalsRegistrationStarted */\n      0x01\n        /* \"contracts/Voting.sol\":2582:2634  state == WorkflowStatus.ProposalsRegistrationStarted */\n      0x05\n      dup2\n      gt\n      iszero\n      tag_94\n      jumpi\n      tag_95\n      tag_55\n      jump\t// in\n    tag_95:\n    tag_94:\n        /* \"contracts/Voting.sol\":2582:2587  state */\n      0x00\n      0x14\n      swap1\n      sload\n      swap1\n      0x0100\n      exp\n      swap1\n      div\n      0xff\n      and\n        /* \"contracts/Voting.sol\":2582:2634  state == WorkflowStatus.ProposalsRegistrationStarted */\n      0x05\n      dup2\n      gt\n      iszero\n      tag_96\n      jumpi\n      tag_97\n      tag_55\n      jump\t// in\n    tag_97:\n    tag_96:\n      eq\n        /* \"contracts/Voting.sol\":2574:2695  require(state == WorkflowStatus.ProposalsRegistrationStarted,\"Proposal can be addes only in Proposal Registration phase\") */\n      tag_98\n      jumpi\n      mload(0x40)\n      0x08c379a000000000000000000000000000000000000000000000000000000000\n      dup2\n      mstore\n      0x04\n      add\n      tag_99\n      swap1\n      tag_100\n      jump\t// in\n    tag_99:\n      mload(0x40)\n      dup1\n      swap2\n      sub\n      swap1\n      revert\n    tag_98:\n        /* \"contracts/Voting.sol\":2786:2795  whitelist */\n      0x01\n        /* \"contracts/Voting.sol\":2786:2807  whitelist[msg.sender] */\n      0x00\n        /* \"contracts/Voting.sol\":2796:2806  msg.sender */\n      caller\n        /* \"contracts/Voting.sol\":2786:2807  whitelist[msg.sender] */\n      0xffffffffffffffffffffffffffffffffffffffff\n      and\n      0xffffffffffffffffffffffffffffffffffffffff\n      and\n      dup2\n      mstore\n      0x20\n      add\n      swap1\n      dup2\n      mstore\n      0x20\n      add\n      0x00\n      keccak256\n      0x00\n      swap1\n      sload\n      swap1\n      0x0100\n      exp\n      swap1\n      div\n      0xff\n      and\n        /* \"contracts/Voting.sol\":2778:2841  require(whitelist[msg.sender],\"Your adress is not whitelisted\") */\n      tag_101\n      jumpi\n      mload(0x40)\n      0x08c379a000000000000000000000000000000000000000000000000000000000\n      dup2\n      mstore\n      0x04\n      add\n      tag_102\n      swap1\n      tag_103\n      jump\t// in\n    tag_102:\n      mload(0x40)\n      dup1\n      swap2\n      sub\n      swap1\n      revert\n    tag_101:\n        /* \"contracts/Voting.sol\":2852:2861  proposals */\n      0x02\n        /* \"contracts/Voting.sol\":2867:2952  Proposal({... */\n      mload(0x40)\n      dup1\n      0x40\n      add\n      0x40\n      mstore\n      dup1\n        /* \"contracts/Voting.sol\":2903:2915  _description */\n      dup4\n        /* \"contracts/Voting.sol\":2867:2952  Proposal({... */\n      dup2\n      mstore\n      0x20\n      add\n        /* \"contracts/Voting.sol\":2939:2940  0 */\n      0x00\n        /* \"contracts/Voting.sol\":2867:2952  Proposal({... */\n      dup2\n      mstore\n      pop\n        /* \"contracts/Voting.sol\":2852:2953  proposals.push(Proposal({... */\n      swap1\n      dup1\n      0x01\n      dup2\n      sload\n      add\n      dup1\n      dup3\n      sstore\n      dup1\n      swap2\n      pop\n      pop\n      0x01\n      swap1\n      sub\n      swap1\n      0x00\n      mstore\n      keccak256(0x00, 0x20)\n      swap1\n      0x02\n      mul\n      add\n      0x00\n      swap1\n      swap2\n      swap1\n      swap2\n      swap1\n      swap2\n      pop\n      0x00\n      dup3\n      add\n      mload\n      dup2\n      0x00\n      add\n      swap1\n      dup2\n      tag_105\n      swap2\n      swap1\n      tag_106\n      jump\t// in\n    tag_105:\n      pop\n      0x20\n      dup3\n      add\n      mload\n      dup2\n      0x01\n      add\n      sstore\n      pop\n      pop\n        /* \"contracts/Voting.sol\":2504:2961  function _addProposal (string memory _description) external {... */\n      pop\n      jump\t// out\n        /* \"https://github.com/OpenZeppelin/openzeppelin-contracts/blob/master/contracts/access/Ownable.sol\":2543:2758  function transferOwnership(address newOwner) public virtual onlyOwner {... */\n    tag_40:\n        /* \"https://github.com/OpenZeppelin/openzeppelin-contracts/blob/master/contracts/access/Ownable.sol\":1531:1544  _checkOwner() */\n      tag_108\n        /* \"https://github.com/OpenZeppelin/openzeppelin-contracts/blob/master/contracts/access/Ownable.sol\":1531:1542  _checkOwner */\n      tag_51\n        /* \"https://github.com/OpenZeppelin/openzeppelin-contracts/blob/master/contracts/access/Ownable.sol\":1531:1544  _checkOwner() */\n      jump\t// in\n    tag_108:\n        /* \"https://github.com/OpenZeppelin/openzeppelin-contracts/blob/master/contracts/access/Ownable.sol\":2647:2648  0 */\n      0x00\n        /* \"https://github.com/OpenZeppelin/openzeppelin-contracts/blob/master/contracts/access/Ownable.sol\":2627:2649  newOwner == address(0) */\n      0xffffffffffffffffffffffffffffffffffffffff\n      and\n        /* \"https://github.com/OpenZeppelin/openzeppelin-contracts/blob/master/contracts/access/Ownable.sol\":2627:2635  newOwner */\n      dup2\n        /* \"https://github.com/OpenZeppelin/openzeppelin-contracts/blob/master/contracts/access/Ownable.sol\":2627:2649  newOwner == address(0) */\n      0xffffffffffffffffffffffffffffffffffffffff\n      and\n      sub\n        /* \"https://github.com/OpenZeppelin/openzeppelin-contracts/blob/master/contracts/access/Ownable.sol\":2623:2714  if (newOwner == address(0)) {... */\n      tag_110\n      jumpi\n        /* \"https://github.com/OpenZeppelin/openzeppelin-contracts/blob/master/contracts/access/Ownable.sol\":2700:2701  0 */\n      0x00\n        /* \"https://github.com/OpenZeppelin/openzeppelin-contracts/blob/master/contracts/access/Ownable.sol\":2672:2703  OwnableInvalidOwner(address(0)) */\n      mload(0x40)\n      0x1e4fbdf700000000000000000000000000000000000000000000000000000000\n      dup2\n      mstore\n      0x04\n      add\n      tag_111\n      swap2\n      swap1\n      tag_25\n      jump\t// in\n    tag_111:\n      mload(0x40)\n      dup1\n      swap2\n      sub\n      swap1\n      revert\n        /* \"https://github.com/OpenZeppelin/openzeppelin-contracts/blob/master/contracts/access/Ownable.sol\":2623:2714  if (newOwner == address(0)) {... */\n    tag_110:\n        /* \"https://github.com/OpenZeppelin/openzeppelin-contracts/blob/master/contracts/access/Ownable.sol\":2723:2751  _transferOwnership(newOwner) */\n      tag_112\n        /* \"https://github.com/OpenZeppelin/openzeppelin-contracts/blob/master/contracts/access/Ownable.sol\":2742:2750  newOwner */\n      dup2\n        /* \"https://github.com/OpenZeppelin/openzeppelin-contracts/blob/master/contracts/access/Ownable.sol\":2723:2741  _transferOwnership */\n      tag_76\n        /* \"https://github.com/OpenZeppelin/openzeppelin-contracts/blob/master/contracts/access/Ownable.sol\":2723:2751  _transferOwnership(newOwner) */\n      jump\t// in\n    tag_112:\n        /* \"https://github.com/OpenZeppelin/openzeppelin-contracts/blob/master/contracts/access/Ownable.sol\":2543:2758  function transferOwnership(address newOwner) public virtual onlyOwner {... */\n      pop\n      jump\t// out\n        /* \"https://github.com/OpenZeppelin/openzeppelin-contracts/blob/master/contracts/access/Ownable.sol\":1796:1958  function _checkOwner() internal view virtual {... */\n    tag_51:\n        /* \"https://github.com/OpenZeppelin/openzeppelin-contracts/blob/master/contracts/access/Ownable.sol\":1866:1878  _msgSender() */\n      tag_114\n        /* \"https://github.com/OpenZeppelin/openzeppelin-contracts/blob/master/contracts/access/Ownable.sol\":1866:1876  _msgSender */\n      tag_115\n        /* \"https://github.com/OpenZeppelin/openzeppelin-contracts/blob/master/contracts/access/Ownable.sol\":1866:1878  _msgSender() */\n      jump\t// in\n    tag_114:\n        /* \"https://github.com/OpenZeppelin/openzeppelin-contracts/blob/master/contracts/access/Ownable.sol\":1855:1878  owner() != _msgSender() */\n      0xffffffffffffffffffffffffffffffffffffffff\n      and\n        /* \"https://github.com/OpenZeppelin/openzeppelin-contracts/blob/master/contracts/access/Ownable.sol\":1855:1862  owner() */\n      tag_116\n        /* \"https://github.com/OpenZeppelin/openzeppelin-contracts/blob/master/contracts/access/Ownable.sol\":1855:1860  owner */\n      tag_23\n        /* \"https://github.com/OpenZeppelin/openzeppelin-contracts/blob/master/contracts/access/Ownable.sol\":1855:1862  owner() */\n      jump\t// in\n    tag_116:\n        /* \"https://github.com/OpenZeppelin/openzeppelin-contracts/blob/master/contracts/access/Ownable.sol\":1855:1878  owner() != _msgSender() */\n      0xffffffffffffffffffffffffffffffffffffffff\n      and\n      eq\n        /* \"https://github.com/OpenZeppelin/openzeppelin-contracts/blob/master/contracts/access/Ownable.sol\":1851:1952  if (owner() != _msgSender()) {... */\n      tag_117\n      jumpi\n        /* \"https://github.com/OpenZeppelin/openzeppelin-contracts/blob/master/contracts/access/Ownable.sol\":1928:1940  _msgSender() */\n      tag_118\n        /* \"https://github.com/OpenZeppelin/openzeppelin-contracts/blob/master/contracts/access/Ownable.sol\":1928:1938  _msgSender */\n      tag_115\n        /* \"https://github.com/OpenZeppelin/openzeppelin-contracts/blob/master/contracts/access/Ownable.sol\":1928:1940  _msgSender() */\n      jump\t// in\n    tag_118:\n        /* \"https://github.com/OpenZeppelin/openzeppelin-contracts/blob/master/contracts/access/Ownable.sol\":1901:1941  OwnableUnauthorizedAccount(_msgSender()) */\n      mload(0x40)\n      0x118cdaa700000000000000000000000000000000000000000000000000000000\n      dup2\n      mstore\n      0x04\n      add\n      tag_119\n      swap2\n      swap1\n      tag_25\n      jump\t// in\n    tag_119:\n      mload(0x40)\n      dup1\n      swap2\n      sub\n      swap1\n      revert\n        /* \"https://github.com/OpenZeppelin/openzeppelin-contracts/blob/master/contracts/access/Ownable.sol\":1851:1952  if (owner() != _msgSender()) {... */\n    tag_117:\n        /* \"https://github.com/OpenZeppelin/openzeppelin-contracts/blob/master/contracts/access/Ownable.sol\":1796:1958  function _checkOwner() internal view virtual {... */\n      jump\t// out\n        /* \"https://github.com/OpenZeppelin/openzeppelin-contracts/blob/master/contracts/access/Ownable.sol\":2912:3099  function _transferOwnership(address newOwner) internal virtual {... */\n    tag_76:\n        /* \"https://github.com/OpenZeppelin/openzeppelin-contracts/blob/master/contracts/access/Ownable.sol\":2985:3001  address oldOwner */\n      0x00\n        /* \"https://github.com/OpenZeppelin/openzeppelin-contracts/blob/master/contracts/access/Ownable.sol\":3004:3010  _owner */\n      0x00\n      0x00\n      swap1\n      sload\n      swap1\n      0x0100\n      exp\n      swap1\n      div\n      0xffffffffffffffffffffffffffffffffffffffff\n      and\n        /* \"https://github.com/OpenZeppelin/openzeppelin-contracts/blob/master/contracts/access/Ownable.sol\":2985:3010  address oldOwner = _owner */\n      swap1\n      pop\n        /* \"https://github.com/OpenZeppelin/openzeppelin-contracts/blob/master/contracts/access/Ownable.sol\":3029:3037  newOwner */\n      dup2\n        /* \"https://github.com/OpenZeppelin/openzeppelin-contracts/blob/master/contracts/access/Ownable.sol\":3020:3026  _owner */\n      0x00\n      0x00\n        /* \"https://github.com/OpenZeppelin/openzeppelin-contracts/blob/master/contracts/access/Ownable.sol\":3020:3037  _owner = newOwner */\n      0x0100\n      exp\n      dup2\n      sload\n      dup2\n      0xffffffffffffffffffffffffffffffffffffffff\n      mul\n      not\n      and\n      swap1\n      dup4\n      0xffffffffffffffffffffffffffffffffffffffff\n      and\n      mul\n      or\n      swap1\n      sstore\n      pop\n        /* \"https://github.com/OpenZeppelin/openzeppelin-contracts/blob/master/contracts/access/Ownable.sol\":3083:3091  newOwner */\n      dup2\n        /* \"https://github.com/OpenZeppelin/openzeppelin-contracts/blob/master/contracts/access/Ownable.sol\":3052:3092  OwnershipTransferred(oldOwner, newOwner) */\n      0xffffffffffffffffffffffffffffffffffffffff\n      and\n        /* \"https://github.com/OpenZeppelin/openzeppelin-contracts/blob/master/contracts/access/Ownable.sol\":3073:3081  oldOwner */\n      dup2\n        /* \"https://github.com/OpenZeppelin/openzeppelin-contracts/blob/master/contracts/access/Ownable.sol\":3052:3092  OwnershipTransferred(oldOwner, newOwner) */\n      0xffffffffffffffffffffffffffffffffffffffff\n      and\n      0x8be0079c531659141344cd1fd0a4f28419497f9722a3daafe3b4186f6b6457e0\n      mload(0x40)\n      mload(0x40)\n      dup1\n      swap2\n      sub\n      swap1\n      log3\n        /* \"https://github.com/OpenZeppelin/openzeppelin-contracts/blob/master/contracts/access/Ownable.sol\":2975:3099  {... */\n      pop\n        /* \"https://github.com/OpenZeppelin/openzeppelin-contracts/blob/master/contracts/access/Ownable.sol\":2912:3099  function _transferOwnership(address newOwner) internal virtual {... */\n      pop\n      jump\t// out\n        /* \"https://github.com/OpenZeppelin/openzeppelin-contracts/blob/master/contracts/utils/Context.sol\":656:752  function _msgSender() internal view virtual returns (address) {... */\n    tag_115:\n        /* \"https://github.com/OpenZeppelin/openzeppelin-contracts/blob/master/contracts/utils/Context.sol\":709:716  address */\n      0x00\n        /* \"https://github.com/OpenZeppelin/openzeppelin-contracts/blob/master/contracts/utils/Context.sol\":735:745  msg.sender */\n      caller\n        /* \"https://github.com/OpenZeppelin/openzeppelin-contracts/blob/master/contracts/utils/Context.sol\":728:745  return msg.sender */\n      swap1\n      pop\n        /* \"https://github.com/OpenZeppelin/openzeppelin-contracts/blob/master/contracts/utils/Context.sol\":656:752  function _msgSender() internal view virtual returns (address) {... */\n      swap1\n      jump\t// out\n        /* \"#utility.yul\":7:82   */\n    tag_122:\n        /* \"#utility.yul\":40:46   */\n      0x00\n        /* \"#utility.yul\":73:75   */\n      0x40\n        /* \"#utility.yul\":67:76   */\n      mload\n        /* \"#utility.yul\":57:76   */\n      swap1\n      pop\n        /* \"#utility.yul\":7:82   */\n      swap1\n      jump\t// out\n        /* \"#utility.yul\":88:205   */\n    tag_123:\n        /* \"#utility.yul\":197:198   */\n      0x00\n        /* \"#utility.yul\":194:195   */\n      0x00\n        /* \"#utility.yul\":187:199   */\n      revert\n        /* \"#utility.yul\":211:328   */\n    tag_124:\n        /* \"#utility.yul\":320:321   */\n      0x00\n        /* \"#utility.yul\":317:318   */\n      0x00\n        /* \"#utility.yul\":310:322   */\n      revert\n        /* \"#utility.yul\":334:411   */\n    tag_125:\n        /* \"#utility.yul\":371:378   */\n      0x00\n        /* \"#utility.yul\":400:405   */\n      dup2\n        /* \"#utility.yul\":389:405   */\n      swap1\n      pop\n        /* \"#utility.yul\":334:411   */\n      swap2\n      swap1\n      pop\n      jump\t// out\n        /* \"#utility.yul\":417:539   */\n    tag_126:\n        /* \"#utility.yul\":490:514   */\n      tag_183\n        /* \"#utility.yul\":508:513   */\n      dup2\n        /* \"#utility.yul\":490:514   */\n      tag_125\n      jump\t// in\n    tag_183:\n        /* \"#utility.yul\":483:488   */\n      dup2\n        /* \"#utility.yul\":480:515   */\n      eq\n        /* \"#utility.yul\":470:533   */\n      tag_184\n      jumpi\n        /* \"#utility.yul\":529:530   */\n      0x00\n        /* \"#utility.yul\":526:527   */\n      0x00\n        /* \"#utility.yul\":519:531   */\n      revert\n        /* \"#utility.yul\":470:533   */\n    tag_184:\n        /* \"#utility.yul\":417:539   */\n      pop\n      jump\t// out\n        /* \"#utility.yul\":545:684   */\n    tag_127:\n        /* \"#utility.yul\":591:596   */\n      0x00\n        /* \"#utility.yul\":629:635   */\n      dup2\n        /* \"#utility.yul\":616:636   */\n      calldataload\n        /* \"#utility.yul\":607:636   */\n      swap1\n      pop\n        /* \"#utility.yul\":645:678   */\n      tag_186\n        /* \"#utility.yul\":672:677   */\n      dup2\n        /* \"#utility.yul\":645:678   */\n      tag_126\n      jump\t// in\n    tag_186:\n        /* \"#utility.yul\":545:684   */\n      swap3\n      swap2\n      pop\n      pop\n      jump\t// out\n        /* \"#utility.yul\":690:1019   */\n    tag_14:\n        /* \"#utility.yul\":749:755   */\n      0x00\n        /* \"#utility.yul\":798:800   */\n      0x20\n        /* \"#utility.yul\":786:795   */\n      dup3\n        /* \"#utility.yul\":777:784   */\n      dup5\n        /* \"#utility.yul\":773:796   */\n      sub\n        /* \"#utility.yul\":769:801   */\n      slt\n        /* \"#utility.yul\":766:885   */\n      iszero\n      tag_188\n      jumpi\n        /* \"#utility.yul\":804:883   */\n      tag_189\n      tag_123\n      jump\t// in\n    tag_189:\n        /* \"#utility.yul\":766:885   */\n    tag_188:\n        /* \"#utility.yul\":924:925   */\n      0x00\n        /* \"#utility.yul\":949:1002   */\n      tag_190\n        /* \"#utility.yul\":994:1001   */\n      dup5\n        /* \"#utility.yul\":985:991   */\n      dup3\n        /* \"#utility.yul\":974:983   */\n      dup6\n        /* \"#utility.yul\":970:992   */\n      add\n        /* \"#utility.yul\":949:1002   */\n      tag_127\n      jump\t// in\n    tag_190:\n        /* \"#utility.yul\":939:1002   */\n      swap2\n      pop\n        /* \"#utility.yul\":895:1012   */\n      pop\n        /* \"#utility.yul\":690:1019   */\n      swap3\n      swap2\n      pop\n      pop\n      jump\t// out\n        /* \"#utility.yul\":1025:1124   */\n    tag_128:\n        /* \"#utility.yul\":1077:1083   */\n      0x00\n        /* \"#utility.yul\":1111:1116   */\n      dup2\n        /* \"#utility.yul\":1105:1117   */\n      mload\n        /* \"#utility.yul\":1095:1117   */\n      swap1\n      pop\n        /* \"#utility.yul\":1025:1124   */\n      swap2\n      swap1\n      pop\n      jump\t// out\n        /* \"#utility.yul\":1130:1299   */\n    tag_129:\n        /* \"#utility.yul\":1214:1225   */\n      0x00\n        /* \"#utility.yul\":1248:1254   */\n      dup3\n        /* \"#utility.yul\":1243:1246   */\n      dup3\n        /* \"#utility.yul\":1236:1255   */\n      mstore\n        /* \"#utility.yul\":1288:1292   */\n      0x20\n        /* \"#utility.yul\":1283:1286   */\n      dup3\n        /* \"#utility.yul\":1279:1293   */\n      add\n        /* \"#utility.yul\":1264:1293   */\n      swap1\n      pop\n        /* \"#utility.yul\":1130:1299   */\n      swap3\n      swap2\n      pop\n      pop\n      jump\t// out\n        /* \"#utility.yul\":1305:1444   */\n    tag_130:\n        /* \"#utility.yul\":1394:1400   */\n      dup3\n        /* \"#utility.yul\":1389:1392   */\n      dup2\n        /* \"#utility.yul\":1384:1387   */\n      dup4\n        /* \"#utility.yul\":1378:1401   */\n      mcopy\n        /* \"#utility.yul\":1435:1436   */\n      0x00\n        /* \"#utility.yul\":1426:1432   */\n      dup4\n        /* \"#utility.yul\":1421:1424   */\n      dup4\n        /* \"#utility.yul\":1417:1433   */\n      add\n        /* \"#utility.yul\":1410:1437   */\n      mstore\n        /* \"#utility.yul\":1305:1444   */\n      pop\n      pop\n      pop\n      jump\t// out\n        /* \"#utility.yul\":1450:1552   */\n    tag_131:\n        /* \"#utility.yul\":1491:1497   */\n      0x00\n        /* \"#utility.yul\":1542:1544   */\n      0x1f\n        /* \"#utility.yul\":1538:1545   */\n      not\n        /* \"#utility.yul\":1533:1535   */\n      0x1f\n        /* \"#utility.yul\":1526:1531   */\n      dup4\n        /* \"#utility.yul\":1522:1536   */\n      add\n        /* \"#utility.yul\":1518:1546   */\n      and\n        /* \"#utility.yul\":1508:1546   */\n      swap1\n      pop\n        /* \"#utility.yul\":1450:1552   */\n      swap2\n      swap1\n      pop\n      jump\t// out\n        /* \"#utility.yul\":1558:1935   */\n    tag_132:\n        /* \"#utility.yul\":1646:1649   */\n      0x00\n        /* \"#utility.yul\":1674:1713   */\n      tag_196\n        /* \"#utility.yul\":1707:1712   */\n      dup3\n        /* \"#utility.yul\":1674:1713   */\n      tag_128\n      jump\t// in\n    tag_196:\n        /* \"#utility.yul\":1729:1800   */\n      tag_197\n        /* \"#utility.yul\":1793:1799   */\n      dup2\n        /* \"#utility.yul\":1788:1791   */\n      dup6\n        /* \"#utility.yul\":1729:1800   */\n      tag_129\n      jump\t// in\n    tag_197:\n        /* \"#utility.yul\":1722:1800   */\n      swap4\n      pop\n        /* \"#utility.yul\":1809:1874   */\n      tag_198\n        /* \"#utility.yul\":1867:1873   */\n      dup2\n        /* \"#utility.yul\":1862:1865   */\n      dup6\n        /* \"#utility.yul\":1855:1859   */\n      0x20\n        /* \"#utility.yul\":1848:1853   */\n      dup7\n        /* \"#utility.yul\":1844:1860   */\n      add\n        /* \"#utility.yul\":1809:1874   */\n      tag_130\n      jump\t// in\n    tag_198:\n        /* \"#utility.yul\":1899:1928   */\n      tag_199\n        /* \"#utility.yul\":1921:1927   */\n      dup2\n        /* \"#utility.yul\":1899:1928   */\n      tag_131\n      jump\t// in\n    tag_199:\n        /* \"#utility.yul\":1894:1897   */\n      dup5\n        /* \"#utility.yul\":1890:1929   */\n      add\n        /* \"#utility.yul\":1883:1929   */\n      swap2\n      pop\n        /* \"#utility.yul\":1650:1935   */\n      pop\n        /* \"#utility.yul\":1558:1935   */\n      swap3\n      swap2\n      pop\n      pop\n      jump\t// out\n        /* \"#utility.yul\":1941:2059   */\n    tag_133:\n        /* \"#utility.yul\":2028:2052   */\n      tag_201\n        /* \"#utility.yul\":2046:2051   */\n      dup2\n        /* \"#utility.yul\":2028:2052   */\n      tag_125\n      jump\t// in\n    tag_201:\n        /* \"#utility.yul\":2023:2026   */\n      dup3\n        /* \"#utility.yul\":2016:2053   */\n      mstore\n        /* \"#utility.yul\":1941:2059   */\n      pop\n      pop\n      jump\t// out\n        /* \"#utility.yul\":2065:2488   */\n    tag_17:\n        /* \"#utility.yul\":2206:2210   */\n      0x00\n        /* \"#utility.yul\":2244:2246   */\n      0x40\n        /* \"#utility.yul\":2233:2242   */\n      dup3\n        /* \"#utility.yul\":2229:2247   */\n      add\n        /* \"#utility.yul\":2221:2247   */\n      swap1\n      pop\n        /* \"#utility.yul\":2293:2302   */\n      dup2\n        /* \"#utility.yul\":2287:2291   */\n      dup2\n        /* \"#utility.yul\":2283:2303   */\n      sub\n        /* \"#utility.yul\":2279:2280   */\n      0x00\n        /* \"#utility.yul\":2268:2277   */\n      dup4\n        /* \"#utility.yul\":2264:2281   */\n      add\n        /* \"#utility.yul\":2257:2304   */\n      mstore\n        /* \"#utility.yul\":2321:2399   */\n      tag_203\n        /* \"#utility.yul\":2394:2398   */\n      dup2\n        /* \"#utility.yul\":2385:2391   */\n      dup6\n        /* \"#utility.yul\":2321:2399   */\n      tag_132\n      jump\t// in\n    tag_203:\n        /* \"#utility.yul\":2313:2399   */\n      swap1\n      pop\n        /* \"#utility.yul\":2409:2481   */\n      tag_204\n        /* \"#utility.yul\":2477:2479   */\n      0x20\n        /* \"#utility.yul\":2466:2475   */\n      dup4\n        /* \"#utility.yul\":2462:2480   */\n      add\n        /* \"#utility.yul\":2453:2459   */\n      dup5\n        /* \"#utility.yul\":2409:2481   */\n      tag_133\n      jump\t// in\n    tag_204:\n        /* \"#utility.yul\":2065:2488   */\n      swap4\n      swap3\n      pop\n      pop\n      pop\n      jump\t// out\n        /* \"#utility.yul\":2494:2620   */\n    tag_134:\n        /* \"#utility.yul\":2531:2538   */\n      0x00\n        /* \"#utility.yul\":2571:2613   */\n      0xffffffffffffffffffffffffffffffffffffffff\n        /* \"#utility.yul\":2564:2569   */\n      dup3\n        /* \"#utility.yul\":2560:2614   */\n      and\n        /* \"#utility.yul\":2549:2614   */\n      swap1\n      pop\n        /* \"#utility.yul\":2494:2620   */\n      swap2\n      swap1\n      pop\n      jump\t// out\n        /* \"#utility.yul\":2626:2722   */\n    tag_135:\n        /* \"#utility.yul\":2663:2670   */\n      0x00\n        /* \"#utility.yul\":2692:2716   */\n      tag_207\n        /* \"#utility.yul\":2710:2715   */\n      dup3\n        /* \"#utility.yul\":2692:2716   */\n      tag_134\n      jump\t// in\n    tag_207:\n        /* \"#utility.yul\":2681:2716   */\n      swap1\n      pop\n        /* \"#utility.yul\":2626:2722   */\n      swap2\n      swap1\n      pop\n      jump\t// out\n        /* \"#utility.yul\":2728:2846   */\n    tag_136:\n        /* \"#utility.yul\":2815:2839   */\n      tag_209\n        /* \"#utility.yul\":2833:2838   */\n      dup2\n        /* \"#utility.yul\":2815:2839   */\n      tag_135\n      jump\t// in\n    tag_209:\n        /* \"#utility.yul\":2810:2813   */\n      dup3\n        /* \"#utility.yul\":2803:2840   */\n      mstore\n        /* \"#utility.yul\":2728:2846   */\n      pop\n      pop\n      jump\t// out\n        /* \"#utility.yul\":2852:3074   */\n    tag_25:\n        /* \"#utility.yul\":2945:2949   */\n      0x00\n        /* \"#utility.yul\":2983:2985   */\n      0x20\n        /* \"#utility.yul\":2972:2981   */\n      dup3\n        /* \"#utility.yul\":2968:2986   */\n      add\n        /* \"#utility.yul\":2960:2986   */\n      swap1\n      pop\n        /* \"#utility.yul\":2996:3067   */\n      tag_211\n        /* \"#utility.yul\":3064:3065   */\n      0x00\n        /* \"#utility.yul\":3053:3062   */\n      dup4\n        /* \"#utility.yul\":3049:3066   */\n      add\n        /* \"#utility.yul\":3040:3046   */\n      dup5\n        /* \"#utility.yul\":2996:3067   */\n      tag_136\n      jump\t// in\n    tag_211:\n        /* \"#utility.yul\":2852:3074   */\n      swap3\n      swap2\n      pop\n      pop\n      jump\t// out\n        /* \"#utility.yul\":3080:3302   */\n    tag_29:\n        /* \"#utility.yul\":3173:3177   */\n      0x00\n        /* \"#utility.yul\":3211:3213   */\n      0x20\n        /* \"#utility.yul\":3200:3209   */\n      dup3\n        /* \"#utility.yul\":3196:3214   */\n      add\n        /* \"#utility.yul\":3188:3214   */\n      swap1\n      pop\n        /* \"#utility.yul\":3224:3295   */\n      tag_213\n        /* \"#utility.yul\":3292:3293   */\n      0x00\n        /* \"#utility.yul\":3281:3290   */\n      dup4\n        /* \"#utility.yul\":3277:3294   */\n      add\n        /* \"#utility.yul\":3268:3274   */\n      dup5\n        /* \"#utility.yul\":3224:3295   */\n      tag_133\n      jump\t// in\n    tag_213:\n        /* \"#utility.yul\":3080:3302   */\n      swap3\n      swap2\n      pop\n      pop\n      jump\t// out\n        /* \"#utility.yul\":3308:3430   */\n    tag_137:\n        /* \"#utility.yul\":3381:3405   */\n      tag_215\n        /* \"#utility.yul\":3399:3404   */\n      dup2\n        /* \"#utility.yul\":3381:3405   */\n      tag_135\n      jump\t// in\n    tag_215:\n        /* \"#utility.yul\":3374:3379   */\n      dup2\n        /* \"#utility.yul\":3371:3406   */\n      eq\n        /* \"#utility.yul\":3361:3424   */\n      tag_216\n      jumpi\n        /* \"#utility.yul\":3420:3421   */\n      0x00\n        /* \"#utility.yul\":3417:3418   */\n      0x00\n        /* \"#utility.yul\":3410:3422   */\n      revert\n        /* \"#utility.yul\":3361:3424   */\n    tag_216:\n        /* \"#utility.yul\":3308:3430   */\n      pop\n      jump\t// out\n        /* \"#utility.yul\":3436:3575   */\n    tag_138:\n        /* \"#utility.yul\":3482:3487   */\n      0x00\n        /* \"#utility.yul\":3520:3526   */\n      dup2\n        /* \"#utility.yul\":3507:3527   */\n      calldataload\n        /* \"#utility.yul\":3498:3527   */\n      swap1\n      pop\n        /* \"#utility.yul\":3536:3569   */\n      tag_218\n        /* \"#utility.yul\":3563:3568   */\n      dup2\n        /* \"#utility.yul\":3536:3569   */\n      tag_137\n      jump\t// in\n    tag_218:\n        /* \"#utility.yul\":3436:3575   */\n      swap3\n      swap2\n      pop\n      pop\n      jump\t// out\n        /* \"#utility.yul\":3581:3910   */\n    tag_32:\n        /* \"#utility.yul\":3640:3646   */\n      0x00\n        /* \"#utility.yul\":3689:3691   */\n      0x20\n        /* \"#utility.yul\":3677:3686   */\n      dup3\n        /* \"#utility.yul\":3668:3675   */\n      dup5\n        /* \"#utility.yul\":3664:3687   */\n      sub\n        /* \"#utility.yul\":3660:3692   */\n      slt\n        /* \"#utility.yul\":3657:3776   */\n      iszero\n      tag_220\n      jumpi\n        /* \"#utility.yul\":3695:3774   */\n      tag_221\n      tag_123\n      jump\t// in\n    tag_221:\n        /* \"#utility.yul\":3657:3776   */\n    tag_220:\n        /* \"#utility.yul\":3815:3816   */\n      0x00\n        /* \"#utility.yul\":3840:3893   */\n      tag_222\n        /* \"#utility.yul\":3885:3892   */\n      dup5\n        /* \"#utility.yul\":3876:3882   */\n      dup3\n        /* \"#utility.yul\":3865:3874   */\n      dup6\n        /* \"#utility.yul\":3861:3883   */\n      add\n        /* \"#utility.yul\":3840:3893   */\n      tag_138\n      jump\t// in\n    tag_222:\n        /* \"#utility.yul\":3830:3893   */\n      swap2\n      pop\n        /* \"#utility.yul\":3786:3903   */\n      pop\n        /* \"#utility.yul\":3581:3910   */\n      swap3\n      swap2\n      pop\n      pop\n      jump\t// out\n        /* \"#utility.yul\":3916:4033   */\n    tag_139:\n        /* \"#utility.yul\":4025:4026   */\n      0x00\n        /* \"#utility.yul\":4022:4023   */\n      0x00\n        /* \"#utility.yul\":4015:4027   */\n      revert\n        /* \"#utility.yul\":4039:4156   */\n    tag_140:\n        /* \"#utility.yul\":4148:4149   */\n      0x00\n        /* \"#utility.yul\":4145:4146   */\n      0x00\n        /* \"#utility.yul\":4138:4150   */\n      revert\n        /* \"#utility.yul\":4162:4342   */\n    tag_141:\n        /* \"#utility.yul\":4210:4287   */\n      0x4e487b7100000000000000000000000000000000000000000000000000000000\n        /* \"#utility.yul\":4207:4208   */\n      0x00\n        /* \"#utility.yul\":4200:4288   */\n      mstore\n        /* \"#utility.yul\":4307:4311   */\n      0x41\n        /* \"#utility.yul\":4304:4305   */\n      0x04\n        /* \"#utility.yul\":4297:4312   */\n      mstore\n        /* \"#utility.yul\":4331:4335   */\n      0x24\n        /* \"#utility.yul\":4328:4329   */\n      0x00\n        /* \"#utility.yul\":4321:4336   */\n      revert\n        /* \"#utility.yul\":4348:4629   */\n    tag_142:\n        /* \"#utility.yul\":4431:4458   */\n      tag_227\n        /* \"#utility.yul\":4453:4457   */\n      dup3\n        /* \"#utility.yul\":4431:4458   */\n      tag_131\n      jump\t// in\n    tag_227:\n        /* \"#utility.yul\":4423:4429   */\n      dup2\n        /* \"#utility.yul\":4419:4459   */\n      add\n        /* \"#utility.yul\":4561:4567   */\n      dup2\n        /* \"#utility.yul\":4549:4559   */\n      dup2\n        /* \"#utility.yul\":4546:4568   */\n      lt\n        /* \"#utility.yul\":4525:4543   */\n      0xffffffffffffffff\n        /* \"#utility.yul\":4513:4523   */\n      dup3\n        /* \"#utility.yul\":4510:4544   */\n      gt\n        /* \"#utility.yul\":4507:4569   */\n      or\n        /* \"#utility.yul\":4504:4592   */\n      iszero\n      tag_228\n      jumpi\n        /* \"#utility.yul\":4572:4590   */\n      tag_229\n      tag_141\n      jump\t// in\n    tag_229:\n        /* \"#utility.yul\":4504:4592   */\n    tag_228:\n        /* \"#utility.yul\":4612:4622   */\n      dup1\n        /* \"#utility.yul\":4608:4610   */\n      0x40\n        /* \"#utility.yul\":4601:4623   */\n      mstore\n        /* \"#utility.yul\":4391:4629   */\n      pop\n        /* \"#utility.yul\":4348:4629   */\n      pop\n      pop\n      jump\t// out\n        /* \"#utility.yul\":4635:4764   */\n    tag_143:\n        /* \"#utility.yul\":4669:4675   */\n      0x00\n        /* \"#utility.yul\":4696:4716   */\n      tag_231\n      tag_122\n      jump\t// in\n    tag_231:\n        /* \"#utility.yul\":4686:4716   */\n      swap1\n      pop\n        /* \"#utility.yul\":4725:4758   */\n      tag_232\n        /* \"#utility.yul\":4753:4757   */\n      dup3\n        /* \"#utility.yul\":4745:4751   */\n      dup3\n        /* \"#utility.yul\":4725:4758   */\n      tag_142\n      jump\t// in\n    tag_232:\n        /* \"#utility.yul\":4635:4764   */\n      swap2\n      swap1\n      pop\n      jump\t// out\n        /* \"#utility.yul\":4770:5078   */\n    tag_144:\n        /* \"#utility.yul\":4832:4836   */\n      0x00\n        /* \"#utility.yul\":4922:4940   */\n      0xffffffffffffffff\n        /* \"#utility.yul\":4914:4920   */\n      dup3\n        /* \"#utility.yul\":4911:4941   */\n      gt\n        /* \"#utility.yul\":4908:4964   */\n      iszero\n      tag_234\n      jumpi\n        /* \"#utility.yul\":4944:4962   */\n      tag_235\n      tag_141\n      jump\t// in\n    tag_235:\n        /* \"#utility.yul\":4908:4964   */\n    tag_234:\n        /* \"#utility.yul\":4982:5011   */\n      tag_236\n        /* \"#utility.yul\":5004:5010   */\n      dup3\n        /* \"#utility.yul\":4982:5011   */\n      tag_131\n      jump\t// in\n    tag_236:\n        /* \"#utility.yul\":4974:5011   */\n      swap1\n      pop\n        /* \"#utility.yul\":5066:5070   */\n      0x20\n        /* \"#utility.yul\":5060:5064   */\n      dup2\n        /* \"#utility.yul\":5056:5071   */\n      add\n        /* \"#utility.yul\":5048:5071   */\n      swap1\n      pop\n        /* \"#utility.yul\":4770:5078   */\n      swap2\n      swap1\n      pop\n      jump\t// out\n        /* \"#utility.yul\":5084:5232   */\n    tag_145:\n        /* \"#utility.yul\":5182:5188   */\n      dup3\n        /* \"#utility.yul\":5177:5180   */\n      dup2\n        /* \"#utility.yul\":5172:5175   */\n      dup4\n        /* \"#utility.yul\":5159:5189   */\n      calldatacopy\n        /* \"#utility.yul\":5223:5224   */\n      0x00\n        /* \"#utility.yul\":5214:5220   */\n      dup4\n        /* \"#utility.yul\":5209:5212   */\n      dup4\n        /* \"#utility.yul\":5205:5221   */\n      add\n        /* \"#utility.yul\":5198:5225   */\n      mstore\n        /* \"#utility.yul\":5084:5232   */\n      pop\n      pop\n      pop\n      jump\t// out\n        /* \"#utility.yul\":5238:5663   */\n    tag_146:\n        /* \"#utility.yul\":5316:5321   */\n      0x00\n        /* \"#utility.yul\":5341:5407   */\n      tag_239\n        /* \"#utility.yul\":5357:5406   */\n      tag_240\n        /* \"#utility.yul\":5399:5405   */\n      dup5\n        /* \"#utility.yul\":5357:5406   */\n      tag_144\n      jump\t// in\n    tag_240:\n        /* \"#utility.yul\":5341:5407   */\n      tag_143\n      jump\t// in\n    tag_239:\n        /* \"#utility.yul\":5332:5407   */\n      swap1\n      pop\n        /* \"#utility.yul\":5430:5436   */\n      dup3\n        /* \"#utility.yul\":5423:5428   */\n      dup2\n        /* \"#utility.yul\":5416:5437   */\n      mstore\n        /* \"#utility.yul\":5468:5472   */\n      0x20\n        /* \"#utility.yul\":5461:5466   */\n      dup2\n        /* \"#utility.yul\":5457:5473   */\n      add\n        /* \"#utility.yul\":5506:5509   */\n      dup5\n        /* \"#utility.yul\":5497:5503   */\n      dup5\n        /* \"#utility.yul\":5492:5495   */\n      dup5\n        /* \"#utility.yul\":5488:5504   */\n      add\n        /* \"#utility.yul\":5485:5510   */\n      gt\n        /* \"#utility.yul\":5482:5594   */\n      iszero\n      tag_241\n      jumpi\n        /* \"#utility.yul\":5513:5592   */\n      tag_242\n      tag_140\n      jump\t// in\n    tag_242:\n        /* \"#utility.yul\":5482:5594   */\n    tag_241:\n        /* \"#utility.yul\":5603:5657   */\n      tag_243\n        /* \"#utility.yul\":5650:5656   */\n      dup5\n        /* \"#utility.yul\":5645:5648   */\n      dup3\n        /* \"#utility.yul\":5640:5643   */\n      dup6\n        /* \"#utility.yul\":5603:5657   */\n      tag_145\n      jump\t// in\n    tag_243:\n        /* \"#utility.yul\":5322:5663   */\n      pop\n        /* \"#utility.yul\":5238:5663   */\n      swap4\n      swap3\n      pop\n      pop\n      pop\n      jump\t// out\n        /* \"#utility.yul\":5683:6023   */\n    tag_147:\n        /* \"#utility.yul\":5739:5744   */\n      0x00\n        /* \"#utility.yul\":5788:5791   */\n      dup3\n        /* \"#utility.yul\":5781:5785   */\n      0x1f\n        /* \"#utility.yul\":5773:5779   */\n      dup4\n        /* \"#utility.yul\":5769:5786   */\n      add\n        /* \"#utility.yul\":5765:5792   */\n      slt\n        /* \"#utility.yul\":5755:5877   */\n      tag_245\n      jumpi\n        /* \"#utility.yul\":5796:5875   */\n      tag_246\n      tag_139\n      jump\t// in\n    tag_246:\n        /* \"#utility.yul\":5755:5877   */\n    tag_245:\n        /* \"#utility.yul\":5913:5919   */\n      dup2\n        /* \"#utility.yul\":5900:5920   */\n      calldataload\n        /* \"#utility.yul\":5938:6017   */\n      tag_247\n        /* \"#utility.yul\":6013:6016   */\n      dup5\n        /* \"#utility.yul\":6005:6011   */\n      dup3\n        /* \"#utility.yul\":5998:6002   */\n      0x20\n        /* \"#utility.yul\":5990:5996   */\n      dup7\n        /* \"#utility.yul\":5986:6003   */\n      add\n        /* \"#utility.yul\":5938:6017   */\n      tag_146\n      jump\t// in\n    tag_247:\n        /* \"#utility.yul\":5929:6017   */\n      swap2\n      pop\n        /* \"#utility.yul\":5745:6023   */\n      pop\n        /* \"#utility.yul\":5683:6023   */\n      swap3\n      swap2\n      pop\n      pop\n      jump\t// out\n        /* \"#utility.yul\":6029:6538   */\n    tag_36:\n        /* \"#utility.yul\":6098:6104   */\n      0x00\n        /* \"#utility.yul\":6147:6149   */\n      0x20\n        /* \"#utility.yul\":6135:6144   */\n      dup3\n        /* \"#utility.yul\":6126:6133   */\n      dup5\n        /* \"#utility.yul\":6122:6145   */\n      sub\n        /* \"#utility.yul\":6118:6150   */\n      slt\n        /* \"#utility.yul\":6115:6234   */\n      iszero\n      tag_249\n      jumpi\n        /* \"#utility.yul\":6153:6232   */\n      tag_250\n      tag_123\n      jump\t// in\n    tag_250:\n        /* \"#utility.yul\":6115:6234   */\n    tag_249:\n        /* \"#utility.yul\":6301:6302   */\n      0x00\n        /* \"#utility.yul\":6290:6299   */\n      dup3\n        /* \"#utility.yul\":6286:6303   */\n      add\n        /* \"#utility.yul\":6273:6304   */\n      calldataload\n        /* \"#utility.yul\":6331:6349   */\n      0xffffffffffffffff\n        /* \"#utility.yul\":6323:6329   */\n      dup2\n        /* \"#utility.yul\":6320:6350   */\n      gt\n        /* \"#utility.yul\":6317:6434   */\n      iszero\n      tag_251\n      jumpi\n        /* \"#utility.yul\":6353:6432   */\n      tag_252\n      tag_124\n      jump\t// in\n    tag_252:\n        /* \"#utility.yul\":6317:6434   */\n    tag_251:\n        /* \"#utility.yul\":6458:6521   */\n      tag_253\n        /* \"#utility.yul\":6513:6520   */\n      dup5\n        /* \"#utility.yul\":6504:6510   */\n      dup3\n        /* \"#utility.yul\":6493:6502   */\n      dup6\n        /* \"#utility.yul\":6489:6511   */\n      add\n        /* \"#utility.yul\":6458:6521   */\n      tag_147\n      jump\t// in\n    tag_253:\n        /* \"#utility.yul\":6448:6521   */\n      swap2\n      pop\n        /* \"#utility.yul\":6244:6531   */\n      pop\n        /* \"#utility.yul\":6029:6538   */\n      swap3\n      swap2\n      pop\n      pop\n      jump\t// out\n        /* \"#utility.yul\":6544:6724   */\n    tag_148:\n        /* \"#utility.yul\":6592:6669   */\n      0x4e487b7100000000000000000000000000000000000000000000000000000000\n        /* \"#utility.yul\":6589:6590   */\n      0x00\n        /* \"#utility.yul\":6582:6670   */\n      mstore\n        /* \"#utility.yul\":6689:6693   */\n      0x22\n        /* \"#utility.yul\":6686:6687   */\n      0x04\n        /* \"#utility.yul\":6679:6694   */\n      mstore\n        /* \"#utility.yul\":6713:6717   */\n      0x24\n        /* \"#utility.yul\":6710:6711   */\n      0x00\n        /* \"#utility.yul\":6703:6718   */\n      revert\n        /* \"#utility.yul\":6730:7050   */\n    tag_44:\n        /* \"#utility.yul\":6774:6780   */\n      0x00\n        /* \"#utility.yul\":6811:6812   */\n      0x02\n        /* \"#utility.yul\":6805:6809   */\n      dup3\n        /* \"#utility.yul\":6801:6813   */\n      div\n        /* \"#utility.yul\":6791:6813   */\n      swap1\n      pop\n        /* \"#utility.yul\":6858:6859   */\n      0x01\n        /* \"#utility.yul\":6852:6856   */\n      dup3\n        /* \"#utility.yul\":6848:6860   */\n      and\n        /* \"#utility.yul\":6879:6897   */\n      dup1\n        /* \"#utility.yul\":6869:6950   */\n      tag_256\n      jumpi\n        /* \"#utility.yul\":6935:6939   */\n      0x7f\n        /* \"#utility.yul\":6927:6933   */\n      dup3\n        /* \"#utility.yul\":6923:6940   */\n      and\n        /* \"#utility.yul\":6913:6940   */\n      swap2\n      pop\n        /* \"#utility.yul\":6869:6950   */\n    tag_256:\n        /* \"#utility.yul\":6997:6999   */\n      0x20\n        /* \"#utility.yul\":6989:6995   */\n      dup3\n        /* \"#utility.yul\":6986:7000   */\n      lt\n        /* \"#utility.yul\":6966:6984   */\n      dup2\n        /* \"#utility.yul\":6963:7001   */\n      sub\n        /* \"#utility.yul\":6960:7044   */\n      tag_257\n      jumpi\n        /* \"#utility.yul\":7016:7034   */\n      tag_258\n      tag_148\n      jump\t// in\n    tag_258:\n        /* \"#utility.yul\":6960:7044   */\n    tag_257:\n        /* \"#utility.yul\":6781:7050   */\n      pop\n        /* \"#utility.yul\":6730:7050   */\n      swap2\n      swap1\n      pop\n      jump\t// out\n        /* \"#utility.yul\":7056:7236   */\n    tag_55:\n        /* \"#utility.yul\":7104:7181   */\n      0x4e487b7100000000000000000000000000000000000000000000000000000000\n        /* \"#utility.yul\":7101:7102   */\n      0x00\n        /* \"#utility.yul\":7094:7182   */\n      mstore\n        /* \"#utility.yul\":7201:7205   */\n      0x21\n        /* \"#utility.yul\":7198:7199   */\n      0x04\n        /* \"#utility.yul\":7191:7206   */\n      mstore\n        /* \"#utility.yul\":7225:7229   */\n      0x24\n        /* \"#utility.yul\":7222:7223   */\n      0x00\n        /* \"#utility.yul\":7215:7230   */\n      revert\n        /* \"#utility.yul\":7242:7422   */\n    tag_149:\n        /* \"#utility.yul\":7290:7367   */\n      0x4e487b7100000000000000000000000000000000000000000000000000000000\n        /* \"#utility.yul\":7287:7288   */\n      0x00\n        /* \"#utility.yul\":7280:7368   */\n      mstore\n        /* \"#utility.yul\":7387:7391   */\n      0x11\n        /* \"#utility.yul\":7384:7385   */\n      0x04\n        /* \"#utility.yul\":7377:7392   */\n      mstore\n        /* \"#utility.yul\":7411:7415   */\n      0x24\n        /* \"#utility.yul\":7408:7409   */\n      0x00\n        /* \"#utility.yul\":7401:7416   */\n      revert\n        /* \"#utility.yul\":7428:7619   */\n    tag_65:\n        /* \"#utility.yul\":7468:7471   */\n      0x00\n        /* \"#utility.yul\":7487:7507   */\n      tag_262\n        /* \"#utility.yul\":7505:7506   */\n      dup3\n        /* \"#utility.yul\":7487:7507   */\n      tag_125\n      jump\t// in\n    tag_262:\n        /* \"#utility.yul\":7482:7507   */\n      swap2\n      pop\n        /* \"#utility.yul\":7521:7541   */\n      tag_263\n        /* \"#utility.yul\":7539:7540   */\n      dup4\n        /* \"#utility.yul\":7521:7541   */\n      tag_125\n      jump\t// in\n    tag_263:\n        /* \"#utility.yul\":7516:7541   */\n      swap3\n      pop\n        /* \"#utility.yul\":7564:7565   */\n      dup3\n        /* \"#utility.yul\":7561:7562   */\n      dup3\n        /* \"#utility.yul\":7557:7566   */\n      add\n        /* \"#utility.yul\":7550:7566   */\n      swap1\n      pop\n        /* \"#utility.yul\":7585:7588   */\n      dup1\n        /* \"#utility.yul\":7582:7583   */\n      dup3\n        /* \"#utility.yul\":7579:7589   */\n      gt\n        /* \"#utility.yul\":7576:7612   */\n      iszero\n      tag_264\n      jumpi\n        /* \"#utility.yul\":7592:7610   */\n      tag_265\n      tag_149\n      jump\t// in\n    tag_265:\n        /* \"#utility.yul\":7576:7612   */\n    tag_264:\n        /* \"#utility.yul\":7428:7619   */\n      swap3\n      swap2\n      pop\n      pop\n      jump\t// out\n        /* \"#utility.yul\":7625:7747   */\n    tag_150:\n        /* \"#utility.yul\":7715:7716   */\n      0x06\n        /* \"#utility.yul\":7708:7713   */\n      dup2\n        /* \"#utility.yul\":7705:7717   */\n      lt\n        /* \"#utility.yul\":7695:7741   */\n      tag_267\n      jumpi\n        /* \"#utility.yul\":7721:7739   */\n      tag_268\n      tag_55\n      jump\t// in\n    tag_268:\n        /* \"#utility.yul\":7695:7741   */\n    tag_267:\n        /* \"#utility.yul\":7625:7747   */\n      pop\n      jump\t// out\n        /* \"#utility.yul\":7753:7898   */\n    tag_151:\n        /* \"#utility.yul\":7807:7814   */\n      0x00\n        /* \"#utility.yul\":7836:7841   */\n      dup2\n        /* \"#utility.yul\":7825:7841   */\n      swap1\n      pop\n        /* \"#utility.yul\":7842:7892   */\n      tag_270\n        /* \"#utility.yul\":7886:7891   */\n      dup3\n        /* \"#utility.yul\":7842:7892   */\n      tag_150\n      jump\t// in\n    tag_270:\n        /* \"#utility.yul\":7753:7898   */\n      swap2\n      swap1\n      pop\n      jump\t// out\n        /* \"#utility.yul\":7904:8049   */\n    tag_152:\n        /* \"#utility.yul\":7969:7978   */\n      0x00\n        /* \"#utility.yul\":8002:8043   */\n      tag_272\n        /* \"#utility.yul\":8037:8042   */\n      dup3\n        /* \"#utility.yul\":8002:8043   */\n      tag_151\n      jump\t// in\n    tag_272:\n        /* \"#utility.yul\":7989:8043   */\n      swap1\n      pop\n        /* \"#utility.yul\":7904:8049   */\n      swap2\n      swap1\n      pop\n      jump\t// out\n        /* \"#utility.yul\":8055:8216   */\n    tag_153:\n        /* \"#utility.yul\":8157:8209   */\n      tag_274\n        /* \"#utility.yul\":8203:8208   */\n      dup2\n        /* \"#utility.yul\":8157:8209   */\n      tag_152\n      jump\t// in\n    tag_274:\n        /* \"#utility.yul\":8152:8155   */\n      dup3\n        /* \"#utility.yul\":8145:8210   */\n      mstore\n        /* \"#utility.yul\":8055:8216   */\n      pop\n      pop\n      jump\t// out\n        /* \"#utility.yul\":8222:8614   */\n    tag_71:\n        /* \"#utility.yul\":8373:8377   */\n      0x00\n        /* \"#utility.yul\":8411:8413   */\n      0x40\n        /* \"#utility.yul\":8400:8409   */\n      dup3\n        /* \"#utility.yul\":8396:8414   */\n      add\n        /* \"#utility.yul\":8388:8414   */\n      swap1\n      pop\n        /* \"#utility.yul\":8424:8510   */\n      tag_276\n        /* \"#utility.yul\":8507:8508   */\n      0x00\n        /* \"#utility.yul\":8496:8505   */\n      dup4\n        /* \"#utility.yul\":8492:8509   */\n      add\n        /* \"#utility.yul\":8483:8489   */\n      dup6\n        /* \"#utility.yul\":8424:8510   */\n      tag_153\n      jump\t// in\n    tag_276:\n        /* \"#utility.yul\":8520:8607   */\n      tag_277\n        /* \"#utility.yul\":8603:8605   */\n      0x20\n        /* \"#utility.yul\":8592:8601   */\n      dup4\n        /* \"#utility.yul\":8588:8606   */\n      add\n        /* \"#utility.yul\":8579:8585   */\n      dup5\n        /* \"#utility.yul\":8520:8607   */\n      tag_153\n      jump\t// in\n    tag_277:\n        /* \"#utility.yul\":8222:8614   */\n      swap4\n      swap3\n      pop\n      pop\n      pop\n      jump\t// out\n        /* \"#utility.yul\":8620:8854   */\n    tag_154:\n        /* \"#utility.yul\":8760:8794   */\n      0x416464726573732063616e206265206164646564206f6e6c7920696e20526567\n        /* \"#utility.yul\":8756:8757   */\n      0x00\n        /* \"#utility.yul\":8748:8754   */\n      dup3\n        /* \"#utility.yul\":8744:8758   */\n      add\n        /* \"#utility.yul\":8737:8795   */\n      mstore\n        /* \"#utility.yul\":8829:8846   */\n      0x697374726174696f6e2070686173650000000000000000000000000000000000\n        /* \"#utility.yul\":8824:8826   */\n      0x20\n        /* \"#utility.yul\":8816:8822   */\n      dup3\n        /* \"#utility.yul\":8812:8827   */\n      add\n        /* \"#utility.yul\":8805:8847   */\n      mstore\n        /* \"#utility.yul\":8620:8854   */\n      pop\n      jump\t// out\n        /* \"#utility.yul\":8860:9226   */\n    tag_155:\n        /* \"#utility.yul\":9002:9005   */\n      0x00\n        /* \"#utility.yul\":9023:9090   */\n      tag_280\n        /* \"#utility.yul\":9087:9089   */\n      0x2f\n        /* \"#utility.yul\":9082:9085   */\n      dup4\n        /* \"#utility.yul\":9023:9090   */\n      tag_129\n      jump\t// in\n    tag_280:\n        /* \"#utility.yul\":9016:9090   */\n      swap2\n      pop\n        /* \"#utility.yul\":9099:9192   */\n      tag_281\n        /* \"#utility.yul\":9188:9191   */\n      dup3\n        /* \"#utility.yul\":9099:9192   */\n      tag_154\n      jump\t// in\n    tag_281:\n        /* \"#utility.yul\":9217:9219   */\n      0x40\n        /* \"#utility.yul\":9212:9215   */\n      dup3\n        /* \"#utility.yul\":9208:9220   */\n      add\n        /* \"#utility.yul\":9201:9220   */\n      swap1\n      pop\n        /* \"#utility.yul\":8860:9226   */\n      swap2\n      swap1\n      pop\n      jump\t// out\n        /* \"#utility.yul\":9232:9651   */\n    tag_88:\n        /* \"#utility.yul\":9398:9402   */\n      0x00\n        /* \"#utility.yul\":9436:9438   */\n      0x20\n        /* \"#utility.yul\":9425:9434   */\n      dup3\n        /* \"#utility.yul\":9421:9439   */\n      add\n        /* \"#utility.yul\":9413:9439   */\n      swap1\n      pop\n        /* \"#utility.yul\":9485:9494   */\n      dup2\n        /* \"#utility.yul\":9479:9483   */\n      dup2\n        /* \"#utility.yul\":9475:9495   */\n      sub\n        /* \"#utility.yul\":9471:9472   */\n      0x00\n        /* \"#utility.yul\":9460:9469   */\n      dup4\n        /* \"#utility.yul\":9456:9473   */\n      add\n        /* \"#utility.yul\":9449:9496   */\n      mstore\n        /* \"#utility.yul\":9513:9644   */\n      tag_283\n        /* \"#utility.yul\":9639:9643   */\n      dup2\n        /* \"#utility.yul\":9513:9644   */\n      tag_155\n      jump\t// in\n    tag_283:\n        /* \"#utility.yul\":9505:9644   */\n      swap1\n      pop\n        /* \"#utility.yul\":9232:9651   */\n      swap2\n      swap1\n      pop\n      jump\t// out\n        /* \"#utility.yul\":9657:9833   */\n    tag_156:\n        /* \"#utility.yul\":9797:9825   */\n      0x4164647265737320616c72656164792072656769737465726564000000000000\n        /* \"#utility.yul\":9793:9794   */\n      0x00\n        /* \"#utility.yul\":9785:9791   */\n      dup3\n        /* \"#utility.yul\":9781:9795   */\n      add\n        /* \"#utility.yul\":9774:9826   */\n      mstore\n        /* \"#utility.yul\":9657:9833   */\n      pop\n      jump\t// out\n        /* \"#utility.yul\":9839:10205   */\n    tag_157:\n        /* \"#utility.yul\":9981:9984   */\n      0x00\n        /* \"#utility.yul\":10002:10069   */\n      tag_286\n        /* \"#utility.yul\":10066:10068   */\n      0x1a\n        /* \"#utility.yul\":10061:10064   */\n      dup4\n        /* \"#utility.yul\":10002:10069   */\n      tag_129\n      jump\t// in\n    tag_286:\n        /* \"#utility.yul\":9995:10069   */\n      swap2\n      pop\n        /* \"#utility.yul\":10078:10171   */\n      tag_287\n        /* \"#utility.yul\":10167:10170   */\n      dup3\n        /* \"#utility.yul\":10078:10171   */\n      tag_156\n      jump\t// in\n    tag_287:\n        /* \"#utility.yul\":10196:10198   */\n      0x20\n        /* \"#utility.yul\":10191:10194   */\n      dup3\n        /* \"#utility.yul\":10187:10199   */\n      add\n        /* \"#utility.yul\":10180:10199   */\n      swap1\n      pop\n        /* \"#utility.yul\":9839:10205   */\n      swap2\n      swap1\n      pop\n      jump\t// out\n        /* \"#utility.yul\":10211:10630   */\n    tag_91:\n        /* \"#utility.yul\":10377:10381   */\n      0x00\n        /* \"#utility.yul\":10415:10417   */\n      0x20\n        /* \"#utility.yul\":10404:10413   */\n      dup3\n        /* \"#utility.yul\":10400:10418   */\n      add\n        /* \"#utility.yul\":10392:10418   */\n      swap1\n      pop\n        /* \"#utility.yul\":10464:10473   */\n      dup2\n        /* \"#utility.yul\":10458:10462   */\n      dup2\n        /* \"#utility.yul\":10454:10474   */\n      sub\n        /* \"#utility.yul\":10450:10451   */\n      0x00\n        /* \"#utility.yul\":10439:10448   */\n      dup4\n        /* \"#utility.yul\":10435:10452   */\n      add\n        /* \"#utility.yul\":10428:10475   */\n      mstore\n        /* \"#utility.yul\":10492:10623   */\n      tag_289\n        /* \"#utility.yul\":10618:10622   */\n      dup2\n        /* \"#utility.yul\":10492:10623   */\n      tag_157\n      jump\t// in\n    tag_289:\n        /* \"#utility.yul\":10484:10623   */\n      swap1\n      pop\n        /* \"#utility.yul\":10211:10630   */\n      swap2\n      swap1\n      pop\n      jump\t// out\n        /* \"#utility.yul\":10636:10880   */\n    tag_158:\n        /* \"#utility.yul\":10776:10810   */\n      0x50726f706f73616c2063616e206265206164646573206f6e6c7920696e205072\n        /* \"#utility.yul\":10772:10773   */\n      0x00\n        /* \"#utility.yul\":10764:10770   */\n      dup3\n        /* \"#utility.yul\":10760:10774   */\n      add\n        /* \"#utility.yul\":10753:10811   */\n      mstore\n        /* \"#utility.yul\":10845:10872   */\n      0x6f706f73616c20526567697374726174696f6e20706861736500000000000000\n        /* \"#utility.yul\":10840:10842   */\n      0x20\n        /* \"#utility.yul\":10832:10838   */\n      dup3\n        /* \"#utility.yul\":10828:10843   */\n      add\n        /* \"#utility.yul\":10821:10873   */\n      mstore\n        /* \"#utility.yul\":10636:10880   */\n      pop\n      jump\t// out\n        /* \"#utility.yul\":10886:11252   */\n    tag_159:\n        /* \"#utility.yul\":11028:11031   */\n      0x00\n        /* \"#utility.yul\":11049:11116   */\n      tag_292\n        /* \"#utility.yul\":11113:11115   */\n      0x39\n        /* \"#utility.yul\":11108:11111   */\n      dup4\n        /* \"#utility.yul\":11049:11116   */\n      tag_129\n      jump\t// in\n    tag_292:\n        /* \"#utility.yul\":11042:11116   */\n      swap2\n      pop\n        /* \"#utility.yul\":11125:11218   */\n      tag_293\n        /* \"#utility.yul\":11214:11217   */\n      dup3\n        /* \"#utility.yul\":11125:11218   */\n      tag_158\n      jump\t// in\n    tag_293:\n        /* \"#utility.yul\":11243:11245   */\n      0x40\n        /* \"#utility.yul\":11238:11241   */\n      dup3\n        /* \"#utility.yul\":11234:11246   */\n      add\n        /* \"#utility.yul\":11227:11246   */\n      swap1\n      pop\n        /* \"#utility.yul\":10886:11252   */\n      swap2\n      swap1\n      pop\n      jump\t// out\n        /* \"#utility.yul\":11258:11677   */\n    tag_100:\n        /* \"#utility.yul\":11424:11428   */\n      0x00\n        /* \"#utility.yul\":11462:11464   */\n      0x20\n        /* \"#utility.yul\":11451:11460   */\n      dup3\n        /* \"#utility.yul\":11447:11465   */\n      add\n        /* \"#utility.yul\":11439:11465   */\n      swap1\n      pop\n        /* \"#utility.yul\":11511:11520   */\n      dup2\n        /* \"#utility.yul\":11505:11509   */\n      dup2\n        /* \"#utility.yul\":11501:11521   */\n      sub\n        /* \"#utility.yul\":11497:11498   */\n      0x00\n        /* \"#utility.yul\":11486:11495   */\n      dup4\n        /* \"#utility.yul\":11482:11499   */\n      add\n        /* \"#utility.yul\":11475:11522   */\n      mstore\n        /* \"#utility.yul\":11539:11670   */\n      tag_295\n        /* \"#utility.yul\":11665:11669   */\n      dup2\n        /* \"#utility.yul\":11539:11670   */\n      tag_159\n      jump\t// in\n    tag_295:\n        /* \"#utility.yul\":11531:11670   */\n      swap1\n      pop\n        /* \"#utility.yul\":11258:11677   */\n      swap2\n      swap1\n      pop\n      jump\t// out\n        /* \"#utility.yul\":11683:11863   */\n    tag_160:\n        /* \"#utility.yul\":11823:11855   */\n      0x596f757220616472657373206973206e6f742077686974656c69737465640000\n        /* \"#utility.yul\":11819:11820   */\n      0x00\n        /* \"#utility.yul\":11811:11817   */\n      dup3\n        /* \"#utility.yul\":11807:11821   */\n      add\n        /* \"#utility.yul\":11800:11856   */\n      mstore\n        /* \"#utility.yul\":11683:11863   */\n      pop\n      jump\t// out\n        /* \"#utility.yul\":11869:12235   */\n    tag_161:\n        /* \"#utility.yul\":12011:12014   */\n      0x00\n        /* \"#utility.yul\":12032:12099   */\n      tag_298\n        /* \"#utility.yul\":12096:12098   */\n      0x1e\n        /* \"#utility.yul\":12091:12094   */\n      dup4\n        /* \"#utility.yul\":12032:12099   */\n      tag_129\n      jump\t// in\n    tag_298:\n        /* \"#utility.yul\":12025:12099   */\n      swap2\n      pop\n        /* \"#utility.yul\":12108:12201   */\n      tag_299\n        /* \"#utility.yul\":12197:12200   */\n      dup3\n        /* \"#utility.yul\":12108:12201   */\n      tag_160\n      jump\t// in\n    tag_299:\n        /* \"#utility.yul\":12226:12228   */\n      0x20\n        /* \"#utility.yul\":12221:12224   */\n      dup3\n        /* \"#utility.yul\":12217:12229   */\n      add\n        /* \"#utility.yul\":12210:12229   */\n      swap1\n      pop\n        /* \"#utility.yul\":11869:12235   */\n      swap2\n      swap1\n      pop\n      jump\t// out\n        /* \"#utility.yul\":12241:12660   */\n    tag_103:\n        /* \"#utility.yul\":12407:12411   */\n      0x00\n        /* \"#utility.yul\":12445:12447   */\n      0x20\n        /* \"#utility.yul\":12434:12443   */\n      dup3\n        /* \"#utility.yul\":12430:12448   */\n      add\n        /* \"#utility.yul\":12422:12448   */\n      swap1\n      pop\n        /* \"#utility.yul\":12494:12503   */\n      dup2\n        /* \"#utility.yul\":12488:12492   */\n      dup2\n        /* \"#utility.yul\":12484:12504   */\n      sub\n        /* \"#utility.yul\":12480:12481   */\n      0x00\n        /* \"#utility.yul\":12469:12478   */\n      dup4\n        /* \"#utility.yul\":12465:12482   */\n      add\n        /* \"#utility.yul\":12458:12505   */\n      mstore\n        /* \"#utility.yul\":12522:12653   */\n      tag_301\n        /* \"#utility.yul\":12648:12652   */\n      dup2\n        /* \"#utility.yul\":12522:12653   */\n      tag_161\n      jump\t// in\n    tag_301:\n        /* \"#utility.yul\":12514:12653   */\n      swap1\n      pop\n        /* \"#utility.yul\":12241:12660   */\n      swap2\n      swap1\n      pop\n      jump\t// out\n        /* \"#utility.yul\":12666:12807   */\n    tag_162:\n        /* \"#utility.yul\":12715:12719   */\n      0x00\n        /* \"#utility.yul\":12738:12741   */\n      dup2\n        /* \"#utility.yul\":12730:12741   */\n      swap1\n      pop\n        /* \"#utility.yul\":12761:12764   */\n      dup2\n        /* \"#utility.yul\":12758:12759   */\n      0x00\n        /* \"#utility.yul\":12751:12765   */\n      mstore\n        /* \"#utility.yul\":12795:12799   */\n      0x20\n        /* \"#utility.yul\":12792:12793   */\n      0x00\n        /* \"#utility.yul\":12782:12800   */\n      keccak256\n        /* \"#utility.yul\":12774:12800   */\n      swap1\n      pop\n        /* \"#utility.yul\":12666:12807   */\n      swap2\n      swap1\n      pop\n      jump\t// out\n        /* \"#utility.yul\":12813:12906   */\n    tag_163:\n        /* \"#utility.yul\":12850:12856   */\n      0x00\n        /* \"#utility.yul\":12897:12899   */\n      0x20\n        /* \"#utility.yul\":12892:12894   */\n      0x1f\n        /* \"#utility.yul\":12885:12890   */\n      dup4\n        /* \"#utility.yul\":12881:12895   */\n      add\n        /* \"#utility.yul\":12877:12900   */\n      div\n        /* \"#utility.yul\":12867:12900   */\n      swap1\n      pop\n        /* \"#utility.yul\":12813:12906   */\n      swap2\n      swap1\n      pop\n      jump\t// out\n        /* \"#utility.yul\":12912:13019   */\n    tag_164:\n        /* \"#utility.yul\":12956:12964   */\n      0x00\n        /* \"#utility.yul\":13006:13011   */\n      dup3\n        /* \"#utility.yul\":13000:13004   */\n      dup3\n        /* \"#utility.yul\":12996:13012   */\n      shl\n        /* \"#utility.yul\":12975:13012   */\n      swap1\n      pop\n        /* \"#utility.yul\":12912:13019   */\n      swap3\n      swap2\n      pop\n      pop\n      jump\t// out\n        /* \"#utility.yul\":13025:13418   */\n    tag_165:\n        /* \"#utility.yul\":13094:13100   */\n      0x00\n        /* \"#utility.yul\":13144:13145   */\n      0x08\n        /* \"#utility.yul\":13132:13142   */\n      dup4\n        /* \"#utility.yul\":13128:13146   */\n      mul\n        /* \"#utility.yul\":13167:13264   */\n      tag_306\n        /* \"#utility.yul\":13197:13263   */\n      0xffffffffffffffffffffffffffffffffffffffffffffffffffffffffffffffff\n        /* \"#utility.yul\":13186:13195   */\n      dup3\n        /* \"#utility.yul\":13167:13264   */\n      tag_164\n      jump\t// in\n    tag_306:\n        /* \"#utility.yul\":13285:13324   */\n      tag_307\n        /* \"#utility.yul\":13315:13323   */\n      dup7\n        /* \"#utility.yul\":13304:13313   */\n      dup4\n        /* \"#utility.yul\":13285:13324   */\n      tag_164\n      jump\t// in\n    tag_307:\n        /* \"#utility.yul\":13273:13324   */\n      swap6\n      pop\n        /* \"#utility.yul\":13357:13361   */\n      dup1\n        /* \"#utility.yul\":13353:13362   */\n      not\n        /* \"#utility.yul\":13346:13351   */\n      dup5\n        /* \"#utility.yul\":13342:13363   */\n      and\n        /* \"#utility.yul\":13333:13363   */\n      swap4\n      pop\n        /* \"#utility.yul\":13406:13410   */\n      dup1\n        /* \"#utility.yul\":13396:13404   */\n      dup7\n        /* \"#utility.yul\":13392:13411   */\n      and\n        /* \"#utility.yul\":13385:13390   */\n      dup5\n        /* \"#utility.yul\":13382:13412   */\n      or\n        /* \"#utility.yul\":13372:13412   */\n      swap3\n      pop\n        /* \"#utility.yul\":13101:13418   */\n      pop\n      pop\n        /* \"#utility.yul\":13025:13418   */\n      swap4\n      swap3\n      pop\n      pop\n      pop\n      jump\t// out\n        /* \"#utility.yul\":13424:13484   */\n    tag_166:\n        /* \"#utility.yul\":13452:13455   */\n      0x00\n        /* \"#utility.yul\":13473:13478   */\n      dup2\n        /* \"#utility.yul\":13466:13478   */\n      swap1\n      pop\n        /* \"#utility.yul\":13424:13484   */\n      swap2\n      swap1\n      pop\n      jump\t// out\n        /* \"#utility.yul\":13490:13632   */\n    tag_167:\n        /* \"#utility.yul\":13540:13549   */\n      0x00\n        /* \"#utility.yul\":13573:13626   */\n      tag_310\n        /* \"#utility.yul\":13591:13625   */\n      tag_311\n        /* \"#utility.yul\":13600:13624   */\n      tag_312\n        /* \"#utility.yul\":13618:13623   */\n      dup5\n        /* \"#utility.yul\":13600:13624   */\n      tag_125\n      jump\t// in\n    tag_312:\n        /* \"#utility.yul\":13591:13625   */\n      tag_166\n      jump\t// in\n    tag_311:\n        /* \"#utility.yul\":13573:13626   */\n      tag_125\n      jump\t// in\n    tag_310:\n        /* \"#utility.yul\":13560:13626   */\n      swap1\n      pop\n        /* \"#utility.yul\":13490:13632   */\n      swap2\n      swap1\n      pop\n      jump\t// out\n        /* \"#utility.yul\":13638:13713   */\n    tag_168:\n        /* \"#utility.yul\":13681:13684   */\n      0x00\n        /* \"#utility.yul\":13702:13707   */\n      dup2\n        /* \"#utility.yul\":13695:13707   */\n      swap1\n      pop\n        /* \"#utility.yul\":13638:13713   */\n      swap2\n      swap1\n      pop\n      jump\t// out\n        /* \"#utility.yul\":13719:13988   */\n    tag_169:\n        /* \"#utility.yul\":13829:13868   */\n      tag_315\n        /* \"#utility.yul\":13860:13867   */\n      dup4\n        /* \"#utility.yul\":13829:13868   */\n      tag_167\n      jump\t// in\n    tag_315:\n        /* \"#utility.yul\":13890:13981   */\n      tag_316\n        /* \"#utility.yul\":13939:13980   */\n      tag_317\n        /* \"#utility.yul\":13963:13979   */\n      dup3\n        /* \"#utility.yul\":13939:13980   */\n      tag_168\n      jump\t// in\n    tag_317:\n        /* \"#utility.yul\":13931:13937   */\n      dup5\n        /* \"#utility.yul\":13924:13928   */\n      dup5\n        /* \"#utility.yul\":13918:13929   */\n      sload\n        /* \"#utility.yul\":13890:13981   */\n      tag_165\n      jump\t// in\n    tag_316:\n        /* \"#utility.yul\":13884:13888   */\n      dup3\n        /* \"#utility.yul\":13877:13982   */\n      sstore\n        /* \"#utility.yul\":13795:13988   */\n      pop\n        /* \"#utility.yul\":13719:13988   */\n      pop\n      pop\n      pop\n      jump\t// out\n        /* \"#utility.yul\":13994:14067   */\n    tag_170:\n        /* \"#utility.yul\":14039:14042   */\n      0x00\n        /* \"#utility.yul\":14060:14061   */\n      0x00\n        /* \"#utility.yul\":14053:14061   */\n      swap1\n      pop\n        /* \"#utility.yul\":13994:14067   */\n      swap1\n      jump\t// out\n        /* \"#utility.yul\":14073:14262   */\n    tag_171:\n        /* \"#utility.yul\":14150:14182   */\n      tag_320\n      tag_170\n      jump\t// in\n    tag_320:\n        /* \"#utility.yul\":14191:14256   */\n      tag_321\n        /* \"#utility.yul\":14249:14255   */\n      dup2\n        /* \"#utility.yul\":14241:14247   */\n      dup5\n        /* \"#utility.yul\":14235:14239   */\n      dup5\n        /* \"#utility.yul\":14191:14256   */\n      tag_169\n      jump\t// in\n    tag_321:\n        /* \"#utility.yul\":14126:14262   */\n      pop\n        /* \"#utility.yul\":14073:14262   */\n      pop\n      pop\n      jump\t// out\n        /* \"#utility.yul\":14268:14454   */\n    tag_172:\n        /* \"#utility.yul\":14328:14448   */\n    tag_323:\n        /* \"#utility.yul\":14345:14348   */\n      dup2\n        /* \"#utility.yul\":14338:14343   */\n      dup2\n        /* \"#utility.yul\":14335:14349   */\n      lt\n        /* \"#utility.yul\":14328:14448   */\n      iszero\n      tag_325\n      jumpi\n        /* \"#utility.yul\":14399:14438   */\n      tag_326\n        /* \"#utility.yul\":14436:14437   */\n      0x00\n        /* \"#utility.yul\":14429:14434   */\n      dup3\n        /* \"#utility.yul\":14399:14438   */\n      tag_171\n      jump\t// in\n    tag_326:\n        /* \"#utility.yul\":14372:14373   */\n      0x01\n        /* \"#utility.yul\":14365:14370   */\n      dup2\n        /* \"#utility.yul\":14361:14374   */\n      add\n        /* \"#utility.yul\":14352:14374   */\n      swap1\n      pop\n        /* \"#utility.yul\":14328:14448   */\n      jump(tag_323)\n    tag_325:\n        /* \"#utility.yul\":14268:14454   */\n      pop\n      pop\n      jump\t// out\n        /* \"#utility.yul\":14460:15003   */\n    tag_173:\n        /* \"#utility.yul\":14561:14563   */\n      0x1f\n        /* \"#utility.yul\":14556:14559   */\n      dup3\n        /* \"#utility.yul\":14553:14564   */\n      gt\n        /* \"#utility.yul\":14550:14996   */\n      iszero\n      tag_328\n      jumpi\n        /* \"#utility.yul\":14595:14633   */\n      tag_329\n        /* \"#utility.yul\":14627:14632   */\n      dup2\n        /* \"#utility.yul\":14595:14633   */\n      tag_162\n      jump\t// in\n    tag_329:\n        /* \"#utility.yul\":14679:14708   */\n      tag_330\n        /* \"#utility.yul\":14697:14707   */\n      dup5\n        /* \"#utility.yul\":14679:14708   */\n      tag_163\n      jump\t// in\n    tag_330:\n        /* \"#utility.yul\":14669:14677   */\n      dup2\n        /* \"#utility.yul\":14665:14709   */\n      add\n        /* \"#utility.yul\":14862:14864   */\n      0x20\n        /* \"#utility.yul\":14850:14860   */\n      dup6\n        /* \"#utility.yul\":14847:14865   */\n      lt\n        /* \"#utility.yul\":14844:14893   */\n      iszero\n      tag_331\n      jumpi\n        /* \"#utility.yul\":14883:14891   */\n      dup2\n        /* \"#utility.yul\":14868:14891   */\n      swap1\n      pop\n        /* \"#utility.yul\":14844:14893   */\n    tag_331:\n        /* \"#utility.yul\":14906:14986   */\n      tag_332\n        /* \"#utility.yul\":14962:14984   */\n      tag_333\n        /* \"#utility.yul\":14980:14983   */\n      dup6\n        /* \"#utility.yul\":14962:14984   */\n      tag_163\n      jump\t// in\n    tag_333:\n        /* \"#utility.yul\":14952:14960   */\n      dup4\n        /* \"#utility.yul\":14948:14985   */\n      add\n        /* \"#utility.yul\":14935:14946   */\n      dup3\n        /* \"#utility.yul\":14906:14986   */\n      tag_172\n      jump\t// in\n    tag_332:\n        /* \"#utility.yul\":14565:14996   */\n      pop\n      pop\n        /* \"#utility.yul\":14550:14996   */\n    tag_328:\n        /* \"#utility.yul\":14460:15003   */\n      pop\n      pop\n      pop\n      jump\t// out\n        /* \"#utility.yul\":15009:15126   */\n    tag_174:\n        /* \"#utility.yul\":15063:15071   */\n      0x00\n        /* \"#utility.yul\":15113:15118   */\n      dup3\n        /* \"#utility.yul\":15107:15111   */\n      dup3\n        /* \"#utility.yul\":15103:15119   */\n      shr\n        /* \"#utility.yul\":15082:15119   */\n      swap1\n      pop\n        /* \"#utility.yul\":15009:15126   */\n      swap3\n      swap2\n      pop\n      pop\n      jump\t// out\n        /* \"#utility.yul\":15132:15301   */\n    tag_175:\n        /* \"#utility.yul\":15176:15182   */\n      0x00\n        /* \"#utility.yul\":15209:15260   */\n      tag_336\n        /* \"#utility.yul\":15257:15258   */\n      0x00\n        /* \"#utility.yul\":15253:15259   */\n      not\n        /* \"#utility.yul\":15245:15250   */\n      dup5\n        /* \"#utility.yul\":15242:15243   */\n      0x08\n        /* \"#utility.yul\":15238:15251   */\n      mul\n        /* \"#utility.yul\":15209:15260   */\n      tag_174\n      jump\t// in\n    tag_336:\n        /* \"#utility.yul\":15205:15261   */\n      not\n        /* \"#utility.yul\":15290:15294   */\n      dup1\n        /* \"#utility.yul\":15284:15288   */\n      dup4\n        /* \"#utility.yul\":15280:15295   */\n      and\n        /* \"#utility.yul\":15270:15295   */\n      swap2\n      pop\n        /* \"#utility.yul\":15183:15301   */\n      pop\n        /* \"#utility.yul\":15132:15301   */\n      swap3\n      swap2\n      pop\n      pop\n      jump\t// out\n        /* \"#utility.yul\":15306:15601   */\n    tag_176:\n        /* \"#utility.yul\":15382:15386   */\n      0x00\n        /* \"#utility.yul\":15528:15557   */\n      tag_338\n        /* \"#utility.yul\":15553:15556   */\n      dup4\n        /* \"#utility.yul\":15547:15551   */\n      dup4\n        /* \"#utility.yul\":15528:15557   */\n      tag_175\n      jump\t// in\n    tag_338:\n        /* \"#utility.yul\":15520:15557   */\n      swap2\n      pop\n        /* \"#utility.yul\":15590:15593   */\n      dup3\n        /* \"#utility.yul\":15587:15588   */\n      0x02\n        /* \"#utility.yul\":15583:15594   */\n      mul\n        /* \"#utility.yul\":15577:15581   */\n      dup3\n        /* \"#utility.yul\":15574:15595   */\n      or\n        /* \"#utility.yul\":15566:15595   */\n      swap1\n      pop\n        /* \"#utility.yul\":15306:15601   */\n      swap3\n      swap2\n      pop\n      pop\n      jump\t// out\n        /* \"#utility.yul\":15606:17001   */\n    tag_106:\n        /* \"#utility.yul\":15723:15760   */\n      tag_340\n        /* \"#utility.yul\":15756:15759   */\n      dup3\n        /* \"#utility.yul\":15723:15760   */\n      tag_128\n      jump\t// in\n    tag_340:\n        /* \"#utility.yul\":15825:15843   */\n      0xffffffffffffffff\n        /* \"#utility.yul\":15817:15823   */\n      dup2\n        /* \"#utility.yul\":15814:15844   */\n      gt\n        /* \"#utility.yul\":15811:15867   */\n      iszero\n      tag_341\n      jumpi\n        /* \"#utility.yul\":15847:15865   */\n      tag_342\n      tag_141\n      jump\t// in\n    tag_342:\n        /* \"#utility.yul\":15811:15867   */\n    tag_341:\n        /* \"#utility.yul\":15891:15929   */\n      tag_343\n        /* \"#utility.yul\":15923:15927   */\n      dup3\n        /* \"#utility.yul\":15917:15928   */\n      sload\n        /* \"#utility.yul\":15891:15929   */\n      tag_44\n      jump\t// in\n    tag_343:\n        /* \"#utility.yul\":15976:16043   */\n      tag_344\n        /* \"#utility.yul\":16036:16042   */\n      dup3\n        /* \"#utility.yul\":16028:16034   */\n      dup3\n        /* \"#utility.yul\":16022:16026   */\n      dup6\n        /* \"#utility.yul\":15976:16043   */\n      tag_173\n      jump\t// in\n    tag_344:\n        /* \"#utility.yul\":16070:16071   */\n      0x00\n        /* \"#utility.yul\":16094:16098   */\n      0x20\n        /* \"#utility.yul\":16081:16098   */\n      swap1\n      pop\n        /* \"#utility.yul\":16126:16128   */\n      0x1f\n        /* \"#utility.yul\":16118:16124   */\n      dup4\n        /* \"#utility.yul\":16115:16129   */\n      gt\n        /* \"#utility.yul\":16143:16144   */\n      0x01\n        /* \"#utility.yul\":16138:16756   */\n      dup2\n      eq\n      tag_346\n      jumpi\n        /* \"#utility.yul\":16800:16801   */\n      0x00\n        /* \"#utility.yul\":16817:16823   */\n      dup5\n        /* \"#utility.yul\":16814:16891   */\n      iszero\n      tag_347\n      jumpi\n        /* \"#utility.yul\":16866:16875   */\n      dup3\n        /* \"#utility.yul\":16861:16864   */\n      dup8\n        /* \"#utility.yul\":16857:16876   */\n      add\n        /* \"#utility.yul\":16851:16877   */\n      mload\n        /* \"#utility.yul\":16842:16877   */\n      swap1\n      pop\n        /* \"#utility.yul\":16814:16891   */\n    tag_347:\n        /* \"#utility.yul\":16917:16984   */\n      tag_348\n        /* \"#utility.yul\":16977:16983   */\n      dup6\n        /* \"#utility.yul\":16970:16975   */\n      dup3\n        /* \"#utility.yul\":16917:16984   */\n      tag_176\n      jump\t// in\n    tag_348:\n        /* \"#utility.yul\":16911:16915   */\n      dup7\n        /* \"#utility.yul\":16904:16985   */\n      sstore\n        /* \"#utility.yul\":16773:16995   */\n      pop\n        /* \"#utility.yul\":16108:16995   */\n      jump(tag_345)\n        /* \"#utility.yul\":16138:16756   */\n    tag_346:\n        /* \"#utility.yul\":16190:16194   */\n      0x1f\n        /* \"#utility.yul\":16186:16195   */\n      not\n        /* \"#utility.yul\":16178:16184   */\n      dup5\n        /* \"#utility.yul\":16174:16196   */\n      and\n        /* \"#utility.yul\":16224:16261   */\n      tag_349\n        /* \"#utility.yul\":16256:16260   */\n      dup7\n        /* \"#utility.yul\":16224:16261   */\n      tag_162\n      jump\t// in\n    tag_349:\n        /* \"#utility.yul\":16283:16284   */\n      0x00\n        /* \"#utility.yul\":16297:16505   */\n    tag_350:\n        /* \"#utility.yul\":16311:16318   */\n      dup3\n        /* \"#utility.yul\":16308:16309   */\n      dup2\n        /* \"#utility.yul\":16305:16319   */\n      lt\n        /* \"#utility.yul\":16297:16505   */\n      iszero\n      tag_352\n      jumpi\n        /* \"#utility.yul\":16390:16399   */\n      dup5\n        /* \"#utility.yul\":16385:16388   */\n      dup10\n        /* \"#utility.yul\":16381:16400   */\n      add\n        /* \"#utility.yul\":16375:16401   */\n      mload\n        /* \"#utility.yul\":16367:16373   */\n      dup3\n        /* \"#utility.yul\":16360:16402   */\n      sstore\n        /* \"#utility.yul\":16441:16442   */\n      0x01\n        /* \"#utility.yul\":16433:16439   */\n      dup3\n        /* \"#utility.yul\":16429:16443   */\n      add\n        /* \"#utility.yul\":16419:16443   */\n      swap2\n      pop\n        /* \"#utility.yul\":16488:16490   */\n      0x20\n        /* \"#utility.yul\":16477:16486   */\n      dup6\n        /* \"#utility.yul\":16473:16491   */\n      add\n        /* \"#utility.yul\":16460:16491   */\n      swap5\n      pop\n        /* \"#utility.yul\":16334:16338   */\n      0x20\n        /* \"#utility.yul\":16331:16332   */\n      dup2\n        /* \"#utility.yul\":16327:16339   */\n      add\n        /* \"#utility.yul\":16322:16339   */\n      swap1\n      pop\n        /* \"#utility.yul\":16297:16505   */\n      jump(tag_350)\n    tag_352:\n        /* \"#utility.yul\":16533:16539   */\n      dup7\n        /* \"#utility.yul\":16524:16531   */\n      dup4\n        /* \"#utility.yul\":16521:16540   */\n      lt\n        /* \"#utility.yul\":16518:16697   */\n      iszero\n      tag_353\n      jumpi\n        /* \"#utility.yul\":16591:16600   */\n      dup5\n        /* \"#utility.yul\":16586:16589   */\n      dup10\n        /* \"#utility.yul\":16582:16601   */\n      add\n        /* \"#utility.yul\":16576:16602   */\n      mload\n        /* \"#utility.yul\":16634:16682   */\n      tag_354\n        /* \"#utility.yul\":16676:16680   */\n      0x1f\n        /* \"#utility.yul\":16668:16674   */\n      dup10\n        /* \"#utility.yul\":16664:16681   */\n      and\n        /* \"#utility.yul\":16653:16662   */\n      dup3\n        /* \"#utility.yul\":16634:16682   */\n      tag_175\n      jump\t// in\n    tag_354:\n        /* \"#utility.yul\":16626:16632   */\n      dup4\n        /* \"#utility.yul\":16619:16683   */\n      sstore\n        /* \"#utility.yul\":16541:16697   */\n      pop\n        /* \"#utility.yul\":16518:16697   */\n    tag_353:\n        /* \"#utility.yul\":16743:16744   */\n      0x01\n        /* \"#utility.yul\":16739:16740   */\n      0x02\n        /* \"#utility.yul\":16731:16737   */\n      dup9\n        /* \"#utility.yul\":16727:16741   */\n      mul\n        /* \"#utility.yul\":16723:16745   */\n      add\n        /* \"#utility.yul\":16717:16721   */\n      dup9\n        /* \"#utility.yul\":16710:16746   */\n      sstore\n        /* \"#utility.yul\":16145:16756   */\n      pop\n      pop\n      pop\n        /* \"#utility.yul\":16108:16995   */\n    tag_345:\n      pop\n        /* \"#utility.yul\":15698:17001   */\n      pop\n      pop\n      pop\n        /* \"#utility.yul\":15606:17001   */\n      pop\n      pop\n      jump\t// out\n\n    auxdata: 0xa2646970667358221220c134a68a85c77888973c744ef0706ad5d3e89d71319de2193b31159c8beed76264736f6c634300081b0033\n}\n",
				"bytecode": {
					"linkReferences": {},
					"object": "608060405234801561000f575f5ffd5b50335f73ffffffffffffffffffffffffffffffffffffffff168173ffffffffffffffffffffffffffffffffffffffff1603610081575f6040517f1e4fbdf700000000000000000000000000000000000000000000000000000000815260040161007891906101c0565b60405180910390fd5b610090816100c060201b60201c565b5060055f60146101000a81548160ff021916908360058111156100b6576100b56101d9565b5b0217905550610206565b5f5f5f9054906101000a900473ffffffffffffffffffffffffffffffffffffffff169050815f5f6101000a81548173ffffffffffffffffffffffffffffffffffffffff021916908373ffffffffffffffffffffffffffffffffffffffff1602179055508173ffffffffffffffffffffffffffffffffffffffff168173ffffffffffffffffffffffffffffffffffffffff167f8be0079c531659141344cd1fd0a4f28419497f9722a3daafe3b4186f6b6457e060405160405180910390a35050565b5f73ffffffffffffffffffffffffffffffffffffffff82169050919050565b5f6101aa82610181565b9050919050565b6101ba816101a0565b82525050565b5f6020820190506101d35f8301846101b1565b92915050565b7f4e487b71000000000000000000000000000000000000000000000000000000005f52602160045260245ffd5b611194806102135f395ff3fe608060405234801561000f575f5ffd5b5060043610610086575f3560e01c8063c08cc02d11610059578063c08cc02d146100ed578063cfdb63ac1461010b578063e6adaecc14610127578063f2fde38b1461014357610086565b8063013cf08b1461008a5780634ea49925146100bb578063715018a6146100c55780638da5cb5b146100cf575b5f5ffd5b6100a4600480360381019061009f919061089b565b61015f565b6040516100b2929190610945565b60405180910390f35b6100c3610214565b005b6100cd61034c565b005b6100d761035f565b6040516100e491906109b2565b60405180910390f35b6100f5610386565b60405161010291906109cb565b60405180910390f35b61012560048036038101906101209190610a0e565b610392565b005b610141600480360381019061013c9190610b65565b610526565b005b61015d60048036038101906101589190610a0e565b610684565b005b6002818154811061016e575f80fd5b905f5260205f2090600202015f91509050805f01805461018d90610bd9565b80601f01602080910402602001604051908101604052809291908181526020018280546101b990610bd9565b80156102045780601f106101db57610100808354040283529160200191610204565b820191905f5260205f20905b8154815290600101906020018083116101e757829003601f168201915b5050505050908060010154905082565b61021c610708565b5f5f60149054906101000a900460ff16905060058081111561024157610240610c09565b5b5f60149054906101000a900460ff16600581111561026257610261610c09565b5b03610295575f5f60146101000a81548160ff0219169083600581111561028b5761028a610c09565b5b02179055506102fd565b60015f60149054906101000a900460ff1660058111156102b8576102b7610c09565b5b6102c29190610c63565b60058111156102d4576102d3610c09565b5b5f60146101000a81548160ff021916908360058111156102f7576102f6610c09565b5b02179055505b5f5f60149054906101000a900460ff1690507f0a97a4ee45751e2abf3e4fc8946939630b11b371ea8ae39ccdc3056e98f5cc3f8282604051610340929190610cdc565b60405180910390a15050565b610354610708565b61035d5f61078f565b565b5f5f5f9054906101000a900473ffffffffffffffffffffffffffffffffffffffff16905090565b5f600280549050905090565b61039a610708565b5f60058111156103ad576103ac610c09565b5b5f60149054906101000a900460ff1660058111156103ce576103cd610c09565b5b1461040e576040517f08c379a000000000000000000000000000000000000000000000000000000000815260040161040590610d73565b60405180910390fd5b60015f8273ffffffffffffffffffffffffffffffffffffffff1673ffffffffffffffffffffffffffffffffffffffff1681526020019081526020015f205f9054906101000a900460ff1615610498576040517f08c379a000000000000000000000000000000000000000000000000000000000815260040161048f90610ddb565b60405180910390fd5b6001805f8373ffffffffffffffffffffffffffffffffffffffff1673ffffffffffffffffffffffffffffffffffffffff1681526020019081526020015f205f6101000a81548160ff0219169083151502179055507fb6be2187d059cc2a55fe29e0e503b566e1e0f8c8780096e185429350acffd3dd8160405161051b91906109b2565b60405180910390a150565b6001600581111561053a57610539610c09565b5b5f60149054906101000a900460ff16600581111561055b5761055a610c09565b5b1461059b576040517f08c379a000000000000000000000000000000000000000000000000000000000815260040161059290610e69565b60405180910390fd5b60015f3373ffffffffffffffffffffffffffffffffffffffff1673ffffffffffffffffffffffffffffffffffffffff1681526020019081526020015f205f9054906101000a900460ff16610624576040517f08c379a000000000000000000000000000000000000000000000000000000000815260040161061b90610ed1565b60405180910390fd5b600260405180604001604052808381526020015f815250908060018154018082558091505060019003905f5260205f2090600202015f909190919091505f820151815f019081610674919061108f565b5060208201518160010155505050565b61068c610708565b5f73ffffffffffffffffffffffffffffffffffffffff168173ffffffffffffffffffffffffffffffffffffffff16036106fc575f6040517f1e4fbdf70000000000000000000000000000000000000000000000000000000081526004016106f391906109b2565b60405180910390fd5b6107058161078f565b50565b610710610850565b73ffffffffffffffffffffffffffffffffffffffff1661072e61035f565b73ffffffffffffffffffffffffffffffffffffffff161461078d57610751610850565b6040517f118cdaa700000000000000000000000000000000000000000000000000000000815260040161078491906109b2565b60405180910390fd5b565b5f5f5f9054906101000a900473ffffffffffffffffffffffffffffffffffffffff169050815f5f6101000a81548173ffffffffffffffffffffffffffffffffffffffff021916908373ffffffffffffffffffffffffffffffffffffffff1602179055508173ffffffffffffffffffffffffffffffffffffffff168173ffffffffffffffffffffffffffffffffffffffff167f8be0079c531659141344cd1fd0a4f28419497f9722a3daafe3b4186f6b6457e060405160405180910390a35050565b5f33905090565b5f604051905090565b5f5ffd5b5f5ffd5b5f819050919050565b61087a81610868565b8114610884575f5ffd5b50565b5f8135905061089581610871565b92915050565b5f602082840312156108b0576108af610860565b5b5f6108bd84828501610887565b91505092915050565b5f81519050919050565b5f82825260208201905092915050565b8281835e5f83830152505050565b5f601f19601f8301169050919050565b5f610908826108c6565b61091281856108d0565b93506109228185602086016108e0565b61092b816108ee565b840191505092915050565b61093f81610868565b82525050565b5f6040820190508181035f83015261095d81856108fe565b905061096c6020830184610936565b9392505050565b5f73ffffffffffffffffffffffffffffffffffffffff82169050919050565b5f61099c82610973565b9050919050565b6109ac81610992565b82525050565b5f6020820190506109c55f8301846109a3565b92915050565b5f6020820190506109de5f830184610936565b92915050565b6109ed81610992565b81146109f7575f5ffd5b50565b5f81359050610a08816109e4565b92915050565b5f60208284031215610a2357610a22610860565b5b5f610a30848285016109fa565b91505092915050565b5f5ffd5b5f5ffd5b7f4e487b71000000000000000000000000000000000000000000000000000000005f52604160045260245ffd5b610a77826108ee565b810181811067ffffffffffffffff82111715610a9657610a95610a41565b5b80604052505050565b5f610aa8610857565b9050610ab48282610a6e565b919050565b5f67ffffffffffffffff821115610ad357610ad2610a41565b5b610adc826108ee565b9050602081019050919050565b828183375f83830152505050565b5f610b09610b0484610ab9565b610a9f565b905082815260208101848484011115610b2557610b24610a3d565b5b610b30848285610ae9565b509392505050565b5f82601f830112610b4c57610b4b610a39565b5b8135610b5c848260208601610af7565b91505092915050565b5f60208284031215610b7a57610b79610860565b5b5f82013567ffffffffffffffff811115610b9757610b96610864565b5b610ba384828501610b38565b91505092915050565b7f4e487b71000000000000000000000000000000000000000000000000000000005f52602260045260245ffd5b5f6002820490506001821680610bf057607f821691505b602082108103610c0357610c02610bac565b5b50919050565b7f4e487b71000000000000000000000000000000000000000000000000000000005f52602160045260245ffd5b7f4e487b71000000000000000000000000000000000000000000000000000000005f52601160045260245ffd5b5f610c6d82610868565b9150610c7883610868565b9250828201905080821115610c9057610c8f610c36565b5b92915050565b60068110610ca757610ca6610c09565b5b50565b5f819050610cb782610c96565b919050565b5f610cc682610caa565b9050919050565b610cd681610cbc565b82525050565b5f604082019050610cef5f830185610ccd565b610cfc6020830184610ccd565b9392505050565b7f416464726573732063616e206265206164646564206f6e6c7920696e205265675f8201527f697374726174696f6e2070686173650000000000000000000000000000000000602082015250565b5f610d5d602f836108d0565b9150610d6882610d03565b604082019050919050565b5f6020820190508181035f830152610d8a81610d51565b9050919050565b7f4164647265737320616c726561647920726567697374657265640000000000005f82015250565b5f610dc5601a836108d0565b9150610dd082610d91565b602082019050919050565b5f6020820190508181035f830152610df281610db9565b9050919050565b7f50726f706f73616c2063616e206265206164646573206f6e6c7920696e2050725f8201527f6f706f73616c20526567697374726174696f6e20706861736500000000000000602082015250565b5f610e536039836108d0565b9150610e5e82610df9565b604082019050919050565b5f6020820190508181035f830152610e8081610e47565b9050919050565b7f596f757220616472657373206973206e6f742077686974656c697374656400005f82015250565b5f610ebb601e836108d0565b9150610ec682610e87565b602082019050919050565b5f6020820190508181035f830152610ee881610eaf565b9050919050565b5f819050815f5260205f209050919050565b5f6020601f8301049050919050565b5f82821b905092915050565b5f60088302610f4b7fffffffffffffffffffffffffffffffffffffffffffffffffffffffffffffffff82610f10565b610f558683610f10565b95508019841693508086168417925050509392505050565b5f819050919050565b5f610f90610f8b610f8684610868565b610f6d565b610868565b9050919050565b5f819050919050565b610fa983610f76565b610fbd610fb582610f97565b848454610f1c565b825550505050565b5f5f905090565b610fd4610fc5565b610fdf818484610fa0565b505050565b5b8181101561100257610ff75f82610fcc565b600181019050610fe5565b5050565b601f8211156110475761101881610eef565b61102184610f01565b81016020851015611030578190505b61104461103c85610f01565b830182610fe4565b50505b505050565b5f82821c905092915050565b5f6110675f198460080261104c565b1980831691505092915050565b5f61107f8383611058565b9150826002028217905092915050565b611098826108c6565b67ffffffffffffffff8111156110b1576110b0610a41565b5b6110bb8254610bd9565b6110c6828285611006565b5f60209050601f8311600181146110f7575f84156110e5578287015190505b6110ef8582611074565b865550611156565b601f19841661110586610eef565b5f5b8281101561112c57848901518255600182019150602085019450602081019050611107565b868310156111495784890151611145601f891682611058565b8355505b6001600288020188555050505b50505050505056fea2646970667358221220c134a68a85c77888973c744ef0706ad5d3e89d71319de2193b31159c8beed76264736f6c634300081b0033",
					"opcodes": "PUSH1 0x80 PUSH1 0x40 MSTORE CALLVALUE DUP1 ISZERO PUSH2 0xF JUMPI PUSH0 PUSH0 REVERT JUMPDEST POP CALLER PUSH0 PUSH20 0xFFFFFFFFFFFFFFFFFFFFFFFFFFFFFFFFFFFFFFFF AND DUP2 PUSH20 0xFFFFFFFFFFFFFFFFFFFFFFFFFFFFFFFFFFFFFFFF AND SUB PUSH2 0x81 JUMPI PUSH0 PUSH1 0x40 MLOAD PUSH32 0x1E4FBDF700000000000000000000000000000000000000000000000000000000 DUP2 MSTORE PUSH1 0x4 ADD PUSH2 0x78 SWAP2 SWAP1 PUSH2 0x1C0 JUMP JUMPDEST PUSH1 0x40 MLOAD DUP1 SWAP2 SUB SWAP1 REVERT JUMPDEST PUSH2 0x90 DUP2 PUSH2 0xC0 PUSH1 0x20 SHL PUSH1 0x20 SHR JUMP JUMPDEST POP PUSH1 0x5 PUSH0 PUSH1 0x14 PUSH2 0x100 EXP DUP2 SLOAD DUP2 PUSH1 0xFF MUL NOT AND SWAP1 DUP4 PUSH1 0x5 DUP2 GT ISZERO PUSH2 0xB6 JUMPI PUSH2 0xB5 PUSH2 0x1D9 JUMP JUMPDEST JUMPDEST MUL OR SWAP1 SSTORE POP PUSH2 0x206 JUMP JUMPDEST PUSH0 PUSH0 PUSH0 SWAP1 SLOAD SWAP1 PUSH2 0x100 EXP SWAP1 DIV PUSH20 0xFFFFFFFFFFFFFFFFFFFFFFFFFFFFFFFFFFFFFFFF AND SWAP1 POP DUP2 PUSH0 PUSH0 PUSH2 0x100 EXP DUP2 SLOAD DUP2 PUSH20 0xFFFFFFFFFFFFFFFFFFFFFFFFFFFFFFFFFFFFFFFF MUL NOT AND SWAP1 DUP4 PUSH20 0xFFFFFFFFFFFFFFFFFFFFFFFFFFFFFFFFFFFFFFFF AND MUL OR SWAP1 SSTORE POP DUP2 PUSH20 0xFFFFFFFFFFFFFFFFFFFFFFFFFFFFFFFFFFFFFFFF AND DUP2 PUSH20 0xFFFFFFFFFFFFFFFFFFFFFFFFFFFFFFFFFFFFFFFF AND PUSH32 0x8BE0079C531659141344CD1FD0A4F28419497F9722A3DAAFE3B4186F6B6457E0 PUSH1 0x40 MLOAD PUSH1 0x40 MLOAD DUP1 SWAP2 SUB SWAP1 LOG3 POP POP JUMP JUMPDEST PUSH0 PUSH20 0xFFFFFFFFFFFFFFFFFFFFFFFFFFFFFFFFFFFFFFFF DUP3 AND SWAP1 POP SWAP2 SWAP1 POP JUMP JUMPDEST PUSH0 PUSH2 0x1AA DUP3 PUSH2 0x181 JUMP JUMPDEST SWAP1 POP SWAP2 SWAP1 POP JUMP JUMPDEST PUSH2 0x1BA DUP2 PUSH2 0x1A0 JUMP JUMPDEST DUP3 MSTORE POP POP JUMP JUMPDEST PUSH0 PUSH1 0x20 DUP3 ADD SWAP1 POP PUSH2 0x1D3 PUSH0 DUP4 ADD DUP5 PUSH2 0x1B1 JUMP JUMPDEST SWAP3 SWAP2 POP POP JUMP JUMPDEST PUSH32 0x4E487B7100000000000000000000000000000000000000000000000000000000 PUSH0 MSTORE PUSH1 0x21 PUSH1 0x4 MSTORE PUSH1 0x24 PUSH0 REVERT JUMPDEST PUSH2 0x1194 DUP1 PUSH2 0x213 PUSH0 CODECOPY PUSH0 RETURN INVALID PUSH1 0x80 PUSH1 0x40 MSTORE CALLVALUE DUP1 ISZERO PUSH2 0xF JUMPI PUSH0 PUSH0 REVERT JUMPDEST POP PUSH1 0x4 CALLDATASIZE LT PUSH2 0x86 JUMPI PUSH0 CALLDATALOAD PUSH1 0xE0 SHR DUP1 PUSH4 0xC08CC02D GT PUSH2 0x59 JUMPI DUP1 PUSH4 0xC08CC02D EQ PUSH2 0xED JUMPI DUP1 PUSH4 0xCFDB63AC EQ PUSH2 0x10B JUMPI DUP1 PUSH4 0xE6ADAECC EQ PUSH2 0x127 JUMPI DUP1 PUSH4 0xF2FDE38B EQ PUSH2 0x143 JUMPI PUSH2 0x86 JUMP JUMPDEST DUP1 PUSH4 0x13CF08B EQ PUSH2 0x8A JUMPI DUP1 PUSH4 0x4EA49925 EQ PUSH2 0xBB JUMPI DUP1 PUSH4 0x715018A6 EQ PUSH2 0xC5 JUMPI DUP1 PUSH4 0x8DA5CB5B EQ PUSH2 0xCF JUMPI JUMPDEST PUSH0 PUSH0 REVERT JUMPDEST PUSH2 0xA4 PUSH1 0x4 DUP1 CALLDATASIZE SUB DUP2 ADD SWAP1 PUSH2 0x9F SWAP2 SWAP1 PUSH2 0x89B JUMP JUMPDEST PUSH2 0x15F JUMP JUMPDEST PUSH1 0x40 MLOAD PUSH2 0xB2 SWAP3 SWAP2 SWAP1 PUSH2 0x945 JUMP JUMPDEST PUSH1 0x40 MLOAD DUP1 SWAP2 SUB SWAP1 RETURN JUMPDEST PUSH2 0xC3 PUSH2 0x214 JUMP JUMPDEST STOP JUMPDEST PUSH2 0xCD PUSH2 0x34C JUMP JUMPDEST STOP JUMPDEST PUSH2 0xD7 PUSH2 0x35F JUMP JUMPDEST PUSH1 0x40 MLOAD PUSH2 0xE4 SWAP2 SWAP1 PUSH2 0x9B2 JUMP JUMPDEST PUSH1 0x40 MLOAD DUP1 SWAP2 SUB SWAP1 RETURN JUMPDEST PUSH2 0xF5 PUSH2 0x386 JUMP JUMPDEST PUSH1 0x40 MLOAD PUSH2 0x102 SWAP2 SWAP1 PUSH2 0x9CB JUMP JUMPDEST PUSH1 0x40 MLOAD DUP1 SWAP2 SUB SWAP1 RETURN JUMPDEST PUSH2 0x125 PUSH1 0x4 DUP1 CALLDATASIZE SUB DUP2 ADD SWAP1 PUSH2 0x120 SWAP2 SWAP1 PUSH2 0xA0E JUMP JUMPDEST PUSH2 0x392 JUMP JUMPDEST STOP JUMPDEST PUSH2 0x141 PUSH1 0x4 DUP1 CALLDATASIZE SUB DUP2 ADD SWAP1 PUSH2 0x13C SWAP2 SWAP1 PUSH2 0xB65 JUMP JUMPDEST PUSH2 0x526 JUMP JUMPDEST STOP JUMPDEST PUSH2 0x15D PUSH1 0x4 DUP1 CALLDATASIZE SUB DUP2 ADD SWAP1 PUSH2 0x158 SWAP2 SWAP1 PUSH2 0xA0E JUMP JUMPDEST PUSH2 0x684 JUMP JUMPDEST STOP JUMPDEST PUSH1 0x2 DUP2 DUP2 SLOAD DUP2 LT PUSH2 0x16E JUMPI PUSH0 DUP1 REVERT JUMPDEST SWAP1 PUSH0 MSTORE PUSH1 0x20 PUSH0 KECCAK256 SWAP1 PUSH1 0x2 MUL ADD PUSH0 SWAP2 POP SWAP1 POP DUP1 PUSH0 ADD DUP1 SLOAD PUSH2 0x18D SWAP1 PUSH2 0xBD9 JUMP JUMPDEST DUP1 PUSH1 0x1F ADD PUSH1 0x20 DUP1 SWAP2 DIV MUL PUSH1 0x20 ADD PUSH1 0x40 MLOAD SWAP1 DUP2 ADD PUSH1 0x40 MSTORE DUP1 SWAP3 SWAP2 SWAP1 DUP2 DUP2 MSTORE PUSH1 0x20 ADD DUP3 DUP1 SLOAD PUSH2 0x1B9 SWAP1 PUSH2 0xBD9 JUMP JUMPDEST DUP1 ISZERO PUSH2 0x204 JUMPI DUP1 PUSH1 0x1F LT PUSH2 0x1DB JUMPI PUSH2 0x100 DUP1 DUP4 SLOAD DIV MUL DUP4 MSTORE SWAP2 PUSH1 0x20 ADD SWAP2 PUSH2 0x204 JUMP JUMPDEST DUP3 ADD SWAP2 SWAP1 PUSH0 MSTORE PUSH1 0x20 PUSH0 KECCAK256 SWAP1 JUMPDEST DUP2 SLOAD DUP2 MSTORE SWAP1 PUSH1 0x1 ADD SWAP1 PUSH1 0x20 ADD DUP1 DUP4 GT PUSH2 0x1E7 JUMPI DUP3 SWAP1 SUB PUSH1 0x1F AND DUP3 ADD SWAP2 JUMPDEST POP POP POP POP POP SWAP1 DUP1 PUSH1 0x1 ADD SLOAD SWAP1 POP DUP3 JUMP JUMPDEST PUSH2 0x21C PUSH2 0x708 JUMP JUMPDEST PUSH0 PUSH0 PUSH1 0x14 SWAP1 SLOAD SWAP1 PUSH2 0x100 EXP SWAP1 DIV PUSH1 0xFF AND SWAP1 POP PUSH1 0x5 DUP1 DUP2 GT ISZERO PUSH2 0x241 JUMPI PUSH2 0x240 PUSH2 0xC09 JUMP JUMPDEST JUMPDEST PUSH0 PUSH1 0x14 SWAP1 SLOAD SWAP1 PUSH2 0x100 EXP SWAP1 DIV PUSH1 0xFF AND PUSH1 0x5 DUP2 GT ISZERO PUSH2 0x262 JUMPI PUSH2 0x261 PUSH2 0xC09 JUMP JUMPDEST JUMPDEST SUB PUSH2 0x295 JUMPI PUSH0 PUSH0 PUSH1 0x14 PUSH2 0x100 EXP DUP2 SLOAD DUP2 PUSH1 0xFF MUL NOT AND SWAP1 DUP4 PUSH1 0x5 DUP2 GT ISZERO PUSH2 0x28B JUMPI PUSH2 0x28A PUSH2 0xC09 JUMP JUMPDEST JUMPDEST MUL OR SWAP1 SSTORE POP PUSH2 0x2FD JUMP JUMPDEST PUSH1 0x1 PUSH0 PUSH1 0x14 SWAP1 SLOAD SWAP1 PUSH2 0x100 EXP SWAP1 DIV PUSH1 0xFF AND PUSH1 0x5 DUP2 GT ISZERO PUSH2 0x2B8 JUMPI PUSH2 0x2B7 PUSH2 0xC09 JUMP JUMPDEST JUMPDEST PUSH2 0x2C2 SWAP2 SWAP1 PUSH2 0xC63 JUMP JUMPDEST PUSH1 0x5 DUP2 GT ISZERO PUSH2 0x2D4 JUMPI PUSH2 0x2D3 PUSH2 0xC09 JUMP JUMPDEST JUMPDEST PUSH0 PUSH1 0x14 PUSH2 0x100 EXP DUP2 SLOAD DUP2 PUSH1 0xFF MUL NOT AND SWAP1 DUP4 PUSH1 0x5 DUP2 GT ISZERO PUSH2 0x2F7 JUMPI PUSH2 0x2F6 PUSH2 0xC09 JUMP JUMPDEST JUMPDEST MUL OR SWAP1 SSTORE POP JUMPDEST PUSH0 PUSH0 PUSH1 0x14 SWAP1 SLOAD SWAP1 PUSH2 0x100 EXP SWAP1 DIV PUSH1 0xFF AND SWAP1 POP PUSH32 0xA97A4EE45751E2ABF3E4FC8946939630B11B371EA8AE39CCDC3056E98F5CC3F DUP3 DUP3 PUSH1 0x40 MLOAD PUSH2 0x340 SWAP3 SWAP2 SWAP1 PUSH2 0xCDC JUMP JUMPDEST PUSH1 0x40 MLOAD DUP1 SWAP2 SUB SWAP1 LOG1 POP POP JUMP JUMPDEST PUSH2 0x354 PUSH2 0x708 JUMP JUMPDEST PUSH2 0x35D PUSH0 PUSH2 0x78F JUMP JUMPDEST JUMP JUMPDEST PUSH0 PUSH0 PUSH0 SWAP1 SLOAD SWAP1 PUSH2 0x100 EXP SWAP1 DIV PUSH20 0xFFFFFFFFFFFFFFFFFFFFFFFFFFFFFFFFFFFFFFFF AND SWAP1 POP SWAP1 JUMP JUMPDEST PUSH0 PUSH1 0x2 DUP1 SLOAD SWAP1 POP SWAP1 POP SWAP1 JUMP JUMPDEST PUSH2 0x39A PUSH2 0x708 JUMP JUMPDEST PUSH0 PUSH1 0x5 DUP2 GT ISZERO PUSH2 0x3AD JUMPI PUSH2 0x3AC PUSH2 0xC09 JUMP JUMPDEST JUMPDEST PUSH0 PUSH1 0x14 SWAP1 SLOAD SWAP1 PUSH2 0x100 EXP SWAP1 DIV PUSH1 0xFF AND PUSH1 0x5 DUP2 GT ISZERO PUSH2 0x3CE JUMPI PUSH2 0x3CD PUSH2 0xC09 JUMP JUMPDEST JUMPDEST EQ PUSH2 0x40E JUMPI PUSH1 0x40 MLOAD PUSH32 0x8C379A000000000000000000000000000000000000000000000000000000000 DUP2 MSTORE PUSH1 0x4 ADD PUSH2 0x405 SWAP1 PUSH2 0xD73 JUMP JUMPDEST PUSH1 0x40 MLOAD DUP1 SWAP2 SUB SWAP1 REVERT JUMPDEST PUSH1 0x1 PUSH0 DUP3 PUSH20 0xFFFFFFFFFFFFFFFFFFFFFFFFFFFFFFFFFFFFFFFF AND PUSH20 0xFFFFFFFFFFFFFFFFFFFFFFFFFFFFFFFFFFFFFFFF AND DUP2 MSTORE PUSH1 0x20 ADD SWAP1 DUP2 MSTORE PUSH1 0x20 ADD PUSH0 KECCAK256 PUSH0 SWAP1 SLOAD SWAP1 PUSH2 0x100 EXP SWAP1 DIV PUSH1 0xFF AND ISZERO PUSH2 0x498 JUMPI PUSH1 0x40 MLOAD PUSH32 0x8C379A000000000000000000000000000000000000000000000000000000000 DUP2 MSTORE PUSH1 0x4 ADD PUSH2 0x48F SWAP1 PUSH2 0xDDB JUMP JUMPDEST PUSH1 0x40 MLOAD DUP1 SWAP2 SUB SWAP1 REVERT JUMPDEST PUSH1 0x1 DUP1 PUSH0 DUP4 PUSH20 0xFFFFFFFFFFFFFFFFFFFFFFFFFFFFFFFFFFFFFFFF AND PUSH20 0xFFFFFFFFFFFFFFFFFFFFFFFFFFFFFFFFFFFFFFFF AND DUP2 MSTORE PUSH1 0x20 ADD SWAP1 DUP2 MSTORE PUSH1 0x20 ADD PUSH0 KECCAK256 PUSH0 PUSH2 0x100 EXP DUP2 SLOAD DUP2 PUSH1 0xFF MUL NOT AND SWAP1 DUP4 ISZERO ISZERO MUL OR SWAP1 SSTORE POP PUSH32 0xB6BE2187D059CC2A55FE29E0E503B566E1E0F8C8780096E185429350ACFFD3DD DUP2 PUSH1 0x40 MLOAD PUSH2 0x51B SWAP2 SWAP1 PUSH2 0x9B2 JUMP JUMPDEST PUSH1 0x40 MLOAD DUP1 SWAP2 SUB SWAP1 LOG1 POP JUMP JUMPDEST PUSH1 0x1 PUSH1 0x5 DUP2 GT ISZERO PUSH2 0x53A JUMPI PUSH2 0x539 PUSH2 0xC09 JUMP JUMPDEST JUMPDEST PUSH0 PUSH1 0x14 SWAP1 SLOAD SWAP1 PUSH2 0x100 EXP SWAP1 DIV PUSH1 0xFF AND PUSH1 0x5 DUP2 GT ISZERO PUSH2 0x55B JUMPI PUSH2 0x55A PUSH2 0xC09 JUMP JUMPDEST JUMPDEST EQ PUSH2 0x59B JUMPI PUSH1 0x40 MLOAD PUSH32 0x8C379A000000000000000000000000000000000000000000000000000000000 DUP2 MSTORE PUSH1 0x4 ADD PUSH2 0x592 SWAP1 PUSH2 0xE69 JUMP JUMPDEST PUSH1 0x40 MLOAD DUP1 SWAP2 SUB SWAP1 REVERT JUMPDEST PUSH1 0x1 PUSH0 CALLER PUSH20 0xFFFFFFFFFFFFFFFFFFFFFFFFFFFFFFFFFFFFFFFF AND PUSH20 0xFFFFFFFFFFFFFFFFFFFFFFFFFFFFFFFFFFFFFFFF AND DUP2 MSTORE PUSH1 0x20 ADD SWAP1 DUP2 MSTORE PUSH1 0x20 ADD PUSH0 KECCAK256 PUSH0 SWAP1 SLOAD SWAP1 PUSH2 0x100 EXP SWAP1 DIV PUSH1 0xFF AND PUSH2 0x624 JUMPI PUSH1 0x40 MLOAD PUSH32 0x8C379A000000000000000000000000000000000000000000000000000000000 DUP2 MSTORE PUSH1 0x4 ADD PUSH2 0x61B SWAP1 PUSH2 0xED1 JUMP JUMPDEST PUSH1 0x40 MLOAD DUP1 SWAP2 SUB SWAP1 REVERT JUMPDEST PUSH1 0x2 PUSH1 0x40 MLOAD DUP1 PUSH1 0x40 ADD PUSH1 0x40 MSTORE DUP1 DUP4 DUP2 MSTORE PUSH1 0x20 ADD PUSH0 DUP2 MSTORE POP SWAP1 DUP1 PUSH1 0x1 DUP2 SLOAD ADD DUP1 DUP3 SSTORE DUP1 SWAP2 POP POP PUSH1 0x1 SWAP1 SUB SWAP1 PUSH0 MSTORE PUSH1 0x20 PUSH0 KECCAK256 SWAP1 PUSH1 0x2 MUL ADD PUSH0 SWAP1 SWAP2 SWAP1 SWAP2 SWAP1 SWAP2 POP PUSH0 DUP3 ADD MLOAD DUP2 PUSH0 ADD SWAP1 DUP2 PUSH2 0x674 SWAP2 SWAP1 PUSH2 0x108F JUMP JUMPDEST POP PUSH1 0x20 DUP3 ADD MLOAD DUP2 PUSH1 0x1 ADD SSTORE POP POP POP JUMP JUMPDEST PUSH2 0x68C PUSH2 0x708 JUMP JUMPDEST PUSH0 PUSH20 0xFFFFFFFFFFFFFFFFFFFFFFFFFFFFFFFFFFFFFFFF AND DUP2 PUSH20 0xFFFFFFFFFFFFFFFFFFFFFFFFFFFFFFFFFFFFFFFF AND SUB PUSH2 0x6FC JUMPI PUSH0 PUSH1 0x40 MLOAD PUSH32 0x1E4FBDF700000000000000000000000000000000000000000000000000000000 DUP2 MSTORE PUSH1 0x4 ADD PUSH2 0x6F3 SWAP2 SWAP1 PUSH2 0x9B2 JUMP JUMPDEST PUSH1 0x40 MLOAD DUP1 SWAP2 SUB SWAP1 REVERT JUMPDEST PUSH2 0x705 DUP2 PUSH2 0x78F JUMP JUMPDEST POP JUMP JUMPDEST PUSH2 0x710 PUSH2 0x850 JUMP JUMPDEST PUSH20 0xFFFFFFFFFFFFFFFFFFFFFFFFFFFFFFFFFFFFFFFF AND PUSH2 0x72E PUSH2 0x35F JUMP JUMPDEST PUSH20 0xFFFFFFFFFFFFFFFFFFFFFFFFFFFFFFFFFFFFFFFF AND EQ PUSH2 0x78D JUMPI PUSH2 0x751 PUSH2 0x850 JUMP JUMPDEST PUSH1 0x40 MLOAD PUSH32 0x118CDAA700000000000000000000000000000000000000000000000000000000 DUP2 MSTORE PUSH1 0x4 ADD PUSH2 0x784 SWAP2 SWAP1 PUSH2 0x9B2 JUMP JUMPDEST PUSH1 0x40 MLOAD DUP1 SWAP2 SUB SWAP1 REVERT JUMPDEST JUMP JUMPDEST PUSH0 PUSH0 PUSH0 SWAP1 SLOAD SWAP1 PUSH2 0x100 EXP SWAP1 DIV PUSH20 0xFFFFFFFFFFFFFFFFFFFFFFFFFFFFFFFFFFFFFFFF AND SWAP1 POP DUP2 PUSH0 PUSH0 PUSH2 0x100 EXP DUP2 SLOAD DUP2 PUSH20 0xFFFFFFFFFFFFFFFFFFFFFFFFFFFFFFFFFFFFFFFF MUL NOT AND SWAP1 DUP4 PUSH20 0xFFFFFFFFFFFFFFFFFFFFFFFFFFFFFFFFFFFFFFFF AND MUL OR SWAP1 SSTORE POP DUP2 PUSH20 0xFFFFFFFFFFFFFFFFFFFFFFFFFFFFFFFFFFFFFFFF AND DUP2 PUSH20 0xFFFFFFFFFFFFFFFFFFFFFFFFFFFFFFFFFFFFFFFF AND PUSH32 0x8BE0079C531659141344CD1FD0A4F28419497F9722A3DAAFE3B4186F6B6457E0 PUSH1 0x40 MLOAD PUSH1 0x40 MLOAD DUP1 SWAP2 SUB SWAP1 LOG3 POP POP JUMP JUMPDEST PUSH0 CALLER SWAP1 POP SWAP1 JUMP JUMPDEST PUSH0 PUSH1 0x40 MLOAD SWAP1 POP SWAP1 JUMP JUMPDEST PUSH0 PUSH0 REVERT JUMPDEST PUSH0 PUSH0 REVERT JUMPDEST PUSH0 DUP2 SWAP1 POP SWAP2 SWAP1 POP JUMP JUMPDEST PUSH2 0x87A DUP2 PUSH2 0x868 JUMP JUMPDEST DUP2 EQ PUSH2 0x884 JUMPI PUSH0 PUSH0 REVERT JUMPDEST POP JUMP JUMPDEST PUSH0 DUP2 CALLDATALOAD SWAP1 POP PUSH2 0x895 DUP2 PUSH2 0x871 JUMP JUMPDEST SWAP3 SWAP2 POP POP JUMP JUMPDEST PUSH0 PUSH1 0x20 DUP3 DUP5 SUB SLT ISZERO PUSH2 0x8B0 JUMPI PUSH2 0x8AF PUSH2 0x860 JUMP JUMPDEST JUMPDEST PUSH0 PUSH2 0x8BD DUP5 DUP3 DUP6 ADD PUSH2 0x887 JUMP JUMPDEST SWAP2 POP POP SWAP3 SWAP2 POP POP JUMP JUMPDEST PUSH0 DUP2 MLOAD SWAP1 POP SWAP2 SWAP1 POP JUMP JUMPDEST PUSH0 DUP3 DUP3 MSTORE PUSH1 0x20 DUP3 ADD SWAP1 POP SWAP3 SWAP2 POP POP JUMP JUMPDEST DUP3 DUP2 DUP4 MCOPY PUSH0 DUP4 DUP4 ADD MSTORE POP POP POP JUMP JUMPDEST PUSH0 PUSH1 0x1F NOT PUSH1 0x1F DUP4 ADD AND SWAP1 POP SWAP2 SWAP1 POP JUMP JUMPDEST PUSH0 PUSH2 0x908 DUP3 PUSH2 0x8C6 JUMP JUMPDEST PUSH2 0x912 DUP2 DUP6 PUSH2 0x8D0 JUMP JUMPDEST SWAP4 POP PUSH2 0x922 DUP2 DUP6 PUSH1 0x20 DUP7 ADD PUSH2 0x8E0 JUMP JUMPDEST PUSH2 0x92B DUP2 PUSH2 0x8EE JUMP JUMPDEST DUP5 ADD SWAP2 POP POP SWAP3 SWAP2 POP POP JUMP JUMPDEST PUSH2 0x93F DUP2 PUSH2 0x868 JUMP JUMPDEST DUP3 MSTORE POP POP JUMP JUMPDEST PUSH0 PUSH1 0x40 DUP3 ADD SWAP1 POP DUP2 DUP2 SUB PUSH0 DUP4 ADD MSTORE PUSH2 0x95D DUP2 DUP6 PUSH2 0x8FE JUMP JUMPDEST SWAP1 POP PUSH2 0x96C PUSH1 0x20 DUP4 ADD DUP5 PUSH2 0x936 JUMP JUMPDEST SWAP4 SWAP3 POP POP POP JUMP JUMPDEST PUSH0 PUSH20 0xFFFFFFFFFFFFFFFFFFFFFFFFFFFFFFFFFFFFFFFF DUP3 AND SWAP1 POP SWAP2 SWAP1 POP JUMP JUMPDEST PUSH0 PUSH2 0x99C DUP3 PUSH2 0x973 JUMP JUMPDEST SWAP1 POP SWAP2 SWAP1 POP JUMP JUMPDEST PUSH2 0x9AC DUP2 PUSH2 0x992 JUMP JUMPDEST DUP3 MSTORE POP POP JUMP JUMPDEST PUSH0 PUSH1 0x20 DUP3 ADD SWAP1 POP PUSH2 0x9C5 PUSH0 DUP4 ADD DUP5 PUSH2 0x9A3 JUMP JUMPDEST SWAP3 SWAP2 POP POP JUMP JUMPDEST PUSH0 PUSH1 0x20 DUP3 ADD SWAP1 POP PUSH2 0x9DE PUSH0 DUP4 ADD DUP5 PUSH2 0x936 JUMP JUMPDEST SWAP3 SWAP2 POP POP JUMP JUMPDEST PUSH2 0x9ED DUP2 PUSH2 0x992 JUMP JUMPDEST DUP2 EQ PUSH2 0x9F7 JUMPI PUSH0 PUSH0 REVERT JUMPDEST POP JUMP JUMPDEST PUSH0 DUP2 CALLDATALOAD SWAP1 POP PUSH2 0xA08 DUP2 PUSH2 0x9E4 JUMP JUMPDEST SWAP3 SWAP2 POP POP JUMP JUMPDEST PUSH0 PUSH1 0x20 DUP3 DUP5 SUB SLT ISZERO PUSH2 0xA23 JUMPI PUSH2 0xA22 PUSH2 0x860 JUMP JUMPDEST JUMPDEST PUSH0 PUSH2 0xA30 DUP5 DUP3 DUP6 ADD PUSH2 0x9FA JUMP JUMPDEST SWAP2 POP POP SWAP3 SWAP2 POP POP JUMP JUMPDEST PUSH0 PUSH0 REVERT JUMPDEST PUSH0 PUSH0 REVERT JUMPDEST PUSH32 0x4E487B7100000000000000000000000000000000000000000000000000000000 PUSH0 MSTORE PUSH1 0x41 PUSH1 0x4 MSTORE PUSH1 0x24 PUSH0 REVERT JUMPDEST PUSH2 0xA77 DUP3 PUSH2 0x8EE JUMP JUMPDEST DUP2 ADD DUP2 DUP2 LT PUSH8 0xFFFFFFFFFFFFFFFF DUP3 GT OR ISZERO PUSH2 0xA96 JUMPI PUSH2 0xA95 PUSH2 0xA41 JUMP JUMPDEST JUMPDEST DUP1 PUSH1 0x40 MSTORE POP POP POP JUMP JUMPDEST PUSH0 PUSH2 0xAA8 PUSH2 0x857 JUMP JUMPDEST SWAP1 POP PUSH2 0xAB4 DUP3 DUP3 PUSH2 0xA6E JUMP JUMPDEST SWAP2 SWAP1 POP JUMP JUMPDEST PUSH0 PUSH8 0xFFFFFFFFFFFFFFFF DUP3 GT ISZERO PUSH2 0xAD3 JUMPI PUSH2 0xAD2 PUSH2 0xA41 JUMP JUMPDEST JUMPDEST PUSH2 0xADC DUP3 PUSH2 0x8EE JUMP JUMPDEST SWAP1 POP PUSH1 0x20 DUP2 ADD SWAP1 POP SWAP2 SWAP1 POP JUMP JUMPDEST DUP3 DUP2 DUP4 CALLDATACOPY PUSH0 DUP4 DUP4 ADD MSTORE POP POP POP JUMP JUMPDEST PUSH0 PUSH2 0xB09 PUSH2 0xB04 DUP5 PUSH2 0xAB9 JUMP JUMPDEST PUSH2 0xA9F JUMP JUMPDEST SWAP1 POP DUP3 DUP2 MSTORE PUSH1 0x20 DUP2 ADD DUP5 DUP5 DUP5 ADD GT ISZERO PUSH2 0xB25 JUMPI PUSH2 0xB24 PUSH2 0xA3D JUMP JUMPDEST JUMPDEST PUSH2 0xB30 DUP5 DUP3 DUP6 PUSH2 0xAE9 JUMP JUMPDEST POP SWAP4 SWAP3 POP POP POP JUMP JUMPDEST PUSH0 DUP3 PUSH1 0x1F DUP4 ADD SLT PUSH2 0xB4C JUMPI PUSH2 0xB4B PUSH2 0xA39 JUMP JUMPDEST JUMPDEST DUP2 CALLDATALOAD PUSH2 0xB5C DUP5 DUP3 PUSH1 0x20 DUP7 ADD PUSH2 0xAF7 JUMP JUMPDEST SWAP2 POP POP SWAP3 SWAP2 POP POP JUMP JUMPDEST PUSH0 PUSH1 0x20 DUP3 DUP5 SUB SLT ISZERO PUSH2 0xB7A JUMPI PUSH2 0xB79 PUSH2 0x860 JUMP JUMPDEST JUMPDEST PUSH0 DUP3 ADD CALLDATALOAD PUSH8 0xFFFFFFFFFFFFFFFF DUP2 GT ISZERO PUSH2 0xB97 JUMPI PUSH2 0xB96 PUSH2 0x864 JUMP JUMPDEST JUMPDEST PUSH2 0xBA3 DUP5 DUP3 DUP6 ADD PUSH2 0xB38 JUMP JUMPDEST SWAP2 POP POP SWAP3 SWAP2 POP POP JUMP JUMPDEST PUSH32 0x4E487B7100000000000000000000000000000000000000000000000000000000 PUSH0 MSTORE PUSH1 0x22 PUSH1 0x4 MSTORE PUSH1 0x24 PUSH0 REVERT JUMPDEST PUSH0 PUSH1 0x2 DUP3 DIV SWAP1 POP PUSH1 0x1 DUP3 AND DUP1 PUSH2 0xBF0 JUMPI PUSH1 0x7F DUP3 AND SWAP2 POP JUMPDEST PUSH1 0x20 DUP3 LT DUP2 SUB PUSH2 0xC03 JUMPI PUSH2 0xC02 PUSH2 0xBAC JUMP JUMPDEST JUMPDEST POP SWAP2 SWAP1 POP JUMP JUMPDEST PUSH32 0x4E487B7100000000000000000000000000000000000000000000000000000000 PUSH0 MSTORE PUSH1 0x21 PUSH1 0x4 MSTORE PUSH1 0x24 PUSH0 REVERT JUMPDEST PUSH32 0x4E487B7100000000000000000000000000000000000000000000000000000000 PUSH0 MSTORE PUSH1 0x11 PUSH1 0x4 MSTORE PUSH1 0x24 PUSH0 REVERT JUMPDEST PUSH0 PUSH2 0xC6D DUP3 PUSH2 0x868 JUMP JUMPDEST SWAP2 POP PUSH2 0xC78 DUP4 PUSH2 0x868 JUMP JUMPDEST SWAP3 POP DUP3 DUP3 ADD SWAP1 POP DUP1 DUP3 GT ISZERO PUSH2 0xC90 JUMPI PUSH2 0xC8F PUSH2 0xC36 JUMP JUMPDEST JUMPDEST SWAP3 SWAP2 POP POP JUMP JUMPDEST PUSH1 0x6 DUP2 LT PUSH2 0xCA7 JUMPI PUSH2 0xCA6 PUSH2 0xC09 JUMP JUMPDEST JUMPDEST POP JUMP JUMPDEST PUSH0 DUP2 SWAP1 POP PUSH2 0xCB7 DUP3 PUSH2 0xC96 JUMP JUMPDEST SWAP2 SWAP1 POP JUMP JUMPDEST PUSH0 PUSH2 0xCC6 DUP3 PUSH2 0xCAA JUMP JUMPDEST SWAP1 POP SWAP2 SWAP1 POP JUMP JUMPDEST PUSH2 0xCD6 DUP2 PUSH2 0xCBC JUMP JUMPDEST DUP3 MSTORE POP POP JUMP JUMPDEST PUSH0 PUSH1 0x40 DUP3 ADD SWAP1 POP PUSH2 0xCEF PUSH0 DUP4 ADD DUP6 PUSH2 0xCCD JUMP JUMPDEST PUSH2 0xCFC PUSH1 0x20 DUP4 ADD DUP5 PUSH2 0xCCD JUMP JUMPDEST SWAP4 SWAP3 POP POP POP JUMP JUMPDEST PUSH32 0x416464726573732063616E206265206164646564206F6E6C7920696E20526567 PUSH0 DUP3 ADD MSTORE PUSH32 0x697374726174696F6E2070686173650000000000000000000000000000000000 PUSH1 0x20 DUP3 ADD MSTORE POP JUMP JUMPDEST PUSH0 PUSH2 0xD5D PUSH1 0x2F DUP4 PUSH2 0x8D0 JUMP JUMPDEST SWAP2 POP PUSH2 0xD68 DUP3 PUSH2 0xD03 JUMP JUMPDEST PUSH1 0x40 DUP3 ADD SWAP1 POP SWAP2 SWAP1 POP JUMP JUMPDEST PUSH0 PUSH1 0x20 DUP3 ADD SWAP1 POP DUP2 DUP2 SUB PUSH0 DUP4 ADD MSTORE PUSH2 0xD8A DUP2 PUSH2 0xD51 JUMP JUMPDEST SWAP1 POP SWAP2 SWAP1 POP JUMP JUMPDEST PUSH32 0x4164647265737320616C72656164792072656769737465726564000000000000 PUSH0 DUP3 ADD MSTORE POP JUMP JUMPDEST PUSH0 PUSH2 0xDC5 PUSH1 0x1A DUP4 PUSH2 0x8D0 JUMP JUMPDEST SWAP2 POP PUSH2 0xDD0 DUP3 PUSH2 0xD91 JUMP JUMPDEST PUSH1 0x20 DUP3 ADD SWAP1 POP SWAP2 SWAP1 POP JUMP JUMPDEST PUSH0 PUSH1 0x20 DUP3 ADD SWAP1 POP DUP2 DUP2 SUB PUSH0 DUP4 ADD MSTORE PUSH2 0xDF2 DUP2 PUSH2 0xDB9 JUMP JUMPDEST SWAP1 POP SWAP2 SWAP1 POP JUMP JUMPDEST PUSH32 0x50726F706F73616C2063616E206265206164646573206F6E6C7920696E205072 PUSH0 DUP3 ADD MSTORE PUSH32 0x6F706F73616C20526567697374726174696F6E20706861736500000000000000 PUSH1 0x20 DUP3 ADD MSTORE POP JUMP JUMPDEST PUSH0 PUSH2 0xE53 PUSH1 0x39 DUP4 PUSH2 0x8D0 JUMP JUMPDEST SWAP2 POP PUSH2 0xE5E DUP3 PUSH2 0xDF9 JUMP JUMPDEST PUSH1 0x40 DUP3 ADD SWAP1 POP SWAP2 SWAP1 POP JUMP JUMPDEST PUSH0 PUSH1 0x20 DUP3 ADD SWAP1 POP DUP2 DUP2 SUB PUSH0 DUP4 ADD MSTORE PUSH2 0xE80 DUP2 PUSH2 0xE47 JUMP JUMPDEST SWAP1 POP SWAP2 SWAP1 POP JUMP JUMPDEST PUSH32 0x596F757220616472657373206973206E6F742077686974656C69737465640000 PUSH0 DUP3 ADD MSTORE POP JUMP JUMPDEST PUSH0 PUSH2 0xEBB PUSH1 0x1E DUP4 PUSH2 0x8D0 JUMP JUMPDEST SWAP2 POP PUSH2 0xEC6 DUP3 PUSH2 0xE87 JUMP JUMPDEST PUSH1 0x20 DUP3 ADD SWAP1 POP SWAP2 SWAP1 POP JUMP JUMPDEST PUSH0 PUSH1 0x20 DUP3 ADD SWAP1 POP DUP2 DUP2 SUB PUSH0 DUP4 ADD MSTORE PUSH2 0xEE8 DUP2 PUSH2 0xEAF JUMP JUMPDEST SWAP1 POP SWAP2 SWAP1 POP JUMP JUMPDEST PUSH0 DUP2 SWAP1 POP DUP2 PUSH0 MSTORE PUSH1 0x20 PUSH0 KECCAK256 SWAP1 POP SWAP2 SWAP1 POP JUMP JUMPDEST PUSH0 PUSH1 0x20 PUSH1 0x1F DUP4 ADD DIV SWAP1 POP SWAP2 SWAP1 POP JUMP JUMPDEST PUSH0 DUP3 DUP3 SHL SWAP1 POP SWAP3 SWAP2 POP POP JUMP JUMPDEST PUSH0 PUSH1 0x8 DUP4 MUL PUSH2 0xF4B PUSH32 0xFFFFFFFFFFFFFFFFFFFFFFFFFFFFFFFFFFFFFFFFFFFFFFFFFFFFFFFFFFFFFFFF DUP3 PUSH2 0xF10 JUMP JUMPDEST PUSH2 0xF55 DUP7 DUP4 PUSH2 0xF10 JUMP JUMPDEST SWAP6 POP DUP1 NOT DUP5 AND SWAP4 POP DUP1 DUP7 AND DUP5 OR SWAP3 POP POP POP SWAP4 SWAP3 POP POP POP JUMP JUMPDEST PUSH0 DUP2 SWAP1 POP SWAP2 SWAP1 POP JUMP JUMPDEST PUSH0 PUSH2 0xF90 PUSH2 0xF8B PUSH2 0xF86 DUP5 PUSH2 0x868 JUMP JUMPDEST PUSH2 0xF6D JUMP JUMPDEST PUSH2 0x868 JUMP JUMPDEST SWAP1 POP SWAP2 SWAP1 POP JUMP JUMPDEST PUSH0 DUP2 SWAP1 POP SWAP2 SWAP1 POP JUMP JUMPDEST PUSH2 0xFA9 DUP4 PUSH2 0xF76 JUMP JUMPDEST PUSH2 0xFBD PUSH2 0xFB5 DUP3 PUSH2 0xF97 JUMP JUMPDEST DUP5 DUP5 SLOAD PUSH2 0xF1C JUMP JUMPDEST DUP3 SSTORE POP POP POP POP JUMP JUMPDEST PUSH0 PUSH0 SWAP1 POP SWAP1 JUMP JUMPDEST PUSH2 0xFD4 PUSH2 0xFC5 JUMP JUMPDEST PUSH2 0xFDF DUP2 DUP5 DUP5 PUSH2 0xFA0 JUMP JUMPDEST POP POP POP JUMP JUMPDEST JUMPDEST DUP2 DUP2 LT ISZERO PUSH2 0x1002 JUMPI PUSH2 0xFF7 PUSH0 DUP3 PUSH2 0xFCC JUMP JUMPDEST PUSH1 0x1 DUP2 ADD SWAP1 POP PUSH2 0xFE5 JUMP JUMPDEST POP POP JUMP JUMPDEST PUSH1 0x1F DUP3 GT ISZERO PUSH2 0x1047 JUMPI PUSH2 0x1018 DUP2 PUSH2 0xEEF JUMP JUMPDEST PUSH2 0x1021 DUP5 PUSH2 0xF01 JUMP JUMPDEST DUP2 ADD PUSH1 0x20 DUP6 LT ISZERO PUSH2 0x1030 JUMPI DUP2 SWAP1 POP JUMPDEST PUSH2 0x1044 PUSH2 0x103C DUP6 PUSH2 0xF01 JUMP JUMPDEST DUP4 ADD DUP3 PUSH2 0xFE4 JUMP JUMPDEST POP POP JUMPDEST POP POP POP JUMP JUMPDEST PUSH0 DUP3 DUP3 SHR SWAP1 POP SWAP3 SWAP2 POP POP JUMP JUMPDEST PUSH0 PUSH2 0x1067 PUSH0 NOT DUP5 PUSH1 0x8 MUL PUSH2 0x104C JUMP JUMPDEST NOT DUP1 DUP4 AND SWAP2 POP POP SWAP3 SWAP2 POP POP JUMP JUMPDEST PUSH0 PUSH2 0x107F DUP4 DUP4 PUSH2 0x1058 JUMP JUMPDEST SWAP2 POP DUP3 PUSH1 0x2 MUL DUP3 OR SWAP1 POP SWAP3 SWAP2 POP POP JUMP JUMPDEST PUSH2 0x1098 DUP3 PUSH2 0x8C6 JUMP JUMPDEST PUSH8 0xFFFFFFFFFFFFFFFF DUP2 GT ISZERO PUSH2 0x10B1 JUMPI PUSH2 0x10B0 PUSH2 0xA41 JUMP JUMPDEST JUMPDEST PUSH2 0x10BB DUP3 SLOAD PUSH2 0xBD9 JUMP JUMPDEST PUSH2 0x10C6 DUP3 DUP3 DUP6 PUSH2 0x1006 JUMP JUMPDEST PUSH0 PUSH1 0x20 SWAP1 POP PUSH1 0x1F DUP4 GT PUSH1 0x1 DUP2 EQ PUSH2 0x10F7 JUMPI PUSH0 DUP5 ISZERO PUSH2 0x10E5 JUMPI DUP3 DUP8 ADD MLOAD SWAP1 POP JUMPDEST PUSH2 0x10EF DUP6 DUP3 PUSH2 0x1074 JUMP JUMPDEST DUP7 SSTORE POP PUSH2 0x1156 JUMP JUMPDEST PUSH1 0x1F NOT DUP5 AND PUSH2 0x1105 DUP7 PUSH2 0xEEF JUMP JUMPDEST PUSH0 JUMPDEST DUP3 DUP2 LT ISZERO PUSH2 0x112C JUMPI DUP5 DUP10 ADD MLOAD DUP3 SSTORE PUSH1 0x1 DUP3 ADD SWAP2 POP PUSH1 0x20 DUP6 ADD SWAP5 POP PUSH1 0x20 DUP2 ADD SWAP1 POP PUSH2 0x1107 JUMP JUMPDEST DUP7 DUP4 LT ISZERO PUSH2 0x1149 JUMPI DUP5 DUP10 ADD MLOAD PUSH2 0x1145 PUSH1 0x1F DUP10 AND DUP3 PUSH2 0x1058 JUMP JUMPDEST DUP4 SSTORE POP JUMPDEST PUSH1 0x1 PUSH1 0x2 DUP9 MUL ADD DUP9 SSTORE POP POP POP JUMPDEST POP POP POP POP POP POP JUMP INVALID LOG2 PUSH5 0x6970667358 0x22 SLT KECCAK256 0xC1 CALLVALUE 0xA6 DUP11 DUP6 0xC7 PUSH25 0x88973C744EF0706AD5D3E89D71319DE2193B31159C8BEED762 PUSH5 0x736F6C6343 STOP ADDMOD SHL STOP CALLER "
				},
				"gasEstimates": {
					"creation": {
						"codeDepositCost": "900000",
						"executionCost": "infinite",
						"totalCost": "infinite"
					},
					"external": {
						"_addProposal(string)": "infinite",
						"_whitelist(address)": "infinite",
						"getProposalCount()": "2440",
						"nextVotingStatus()": "infinite",
						"owner()": "2581",
						"proposals(uint256)": "infinite",
						"renounceOwnership()": "infinite",
						"transferOwnership(address)": "infinite"
					}
				},
				"methodIdentifiers": {
					"_addProposal(string)": "e6adaecc",
					"_whitelist(address)": "cfdb63ac",
					"getProposalCount()": "c08cc02d",
					"nextVotingStatus()": "4ea49925",
					"owner()": "8da5cb5b",
					"proposals(uint256)": "013cf08b",
					"renounceOwnership()": "715018a6",
					"transferOwnership(address)": "f2fde38b"
				}
			},
			"storageLayout": {
				"storage": [
					{
						"astId": 180,
						"contract": "contracts/Voting.sol:Voting",
						"label": "_owner",
						"offset": 0,
						"slot": "0",
						"type": "t_address"
					},
					{
						"astId": 14,
						"contract": "contracts/Voting.sol:Voting",
						"label": "state",
						"offset": 20,
						"slot": "0",
						"type": "t_enum(WorkflowStatus)11"
					},
					{
						"astId": 83,
						"contract": "contracts/Voting.sol:Voting",
						"label": "whitelist",
						"offset": 0,
						"slot": "1",
						"type": "t_mapping(t_address,t_bool)"
					},
					{
						"astId": 130,
						"contract": "contracts/Voting.sol:Voting",
						"label": "proposals",
						"offset": 0,
						"slot": "2",
						"type": "t_array(t_struct(Proposal)126_storage)dyn_storage"
					}
				],
				"types": {
					"t_address": {
						"encoding": "inplace",
						"label": "address",
						"numberOfBytes": "20"
					},
					"t_array(t_struct(Proposal)126_storage)dyn_storage": {
						"base": "t_struct(Proposal)126_storage",
						"encoding": "dynamic_array",
						"label": "struct Voting.Proposal[]",
						"numberOfBytes": "32"
					},
					"t_bool": {
						"encoding": "inplace",
						"label": "bool",
						"numberOfBytes": "1"
					},
					"t_enum(WorkflowStatus)11": {
						"encoding": "inplace",
						"label": "enum Voting.WorkflowStatus",
						"numberOfBytes": "1"
					},
					"t_mapping(t_address,t_bool)": {
						"encoding": "mapping",
						"key": "t_address",
						"label": "mapping(address => bool)",
						"numberOfBytes": "32",
						"value": "t_bool"
					},
					"t_string_storage": {
						"encoding": "bytes",
						"label": "string",
						"numberOfBytes": "32"
					},
					"t_struct(Proposal)126_storage": {
						"encoding": "inplace",
						"label": "struct Voting.Proposal",
						"members": [
							{
								"astId": 123,
								"contract": "contracts/Voting.sol:Voting",
								"label": "description",
								"offset": 0,
								"slot": "0",
								"type": "t_string_storage"
							},
							{
								"astId": 125,
								"contract": "contracts/Voting.sol:Voting",
								"label": "voteCount",
								"offset": 0,
								"slot": "1",
								"type": "t_uint256"
							}
						],
						"numberOfBytes": "64"
					},
					"t_uint256": {
						"encoding": "inplace",
						"label": "uint256",
						"numberOfBytes": "32"
					}
				}
			},
			"userdoc": {
				"kind": "user",
				"methods": {},
				"version": 1
			}
		}
	}
}