{
	"contracts/Voting.sol": {
		"Voting": {
			"abi": [
				{
					"inputs": [],
					"stateMutability": "nonpayable",
					"type": "constructor"
				},
				{
					"inputs": [
						{
							"internalType": "address",
							"name": "owner",
							"type": "address"
						}
					],
					"name": "OwnableInvalidOwner",
					"type": "error"
				},
				{
					"inputs": [
						{
							"internalType": "address",
							"name": "account",
							"type": "address"
						}
					],
					"name": "OwnableUnauthorizedAccount",
					"type": "error"
				},
				{
					"anonymous": false,
					"inputs": [
						{
							"indexed": true,
							"internalType": "address",
							"name": "previousOwner",
							"type": "address"
						},
						{
							"indexed": true,
							"internalType": "address",
							"name": "newOwner",
							"type": "address"
						}
					],
					"name": "OwnershipTransferred",
					"type": "event"
				},
				{
					"anonymous": false,
					"inputs": [
						{
							"indexed": false,
							"internalType": "uint256",
							"name": "proposalId",
							"type": "uint256"
						}
					],
					"name": "ProposalRegistered",
					"type": "event"
				},
				{
					"anonymous": false,
					"inputs": [
						{
							"indexed": false,
							"internalType": "address",
							"name": "voter",
							"type": "address"
						},
						{
							"indexed": false,
							"internalType": "uint256",
							"name": "proposalId",
							"type": "uint256"
						}
					],
					"name": "Voted",
					"type": "event"
				},
				{
					"anonymous": false,
					"inputs": [
						{
							"indexed": false,
							"internalType": "address",
							"name": "voterAddress",
							"type": "address"
						}
					],
					"name": "VoterRegistered",
					"type": "event"
				},
				{
					"anonymous": false,
					"inputs": [
						{
							"indexed": false,
							"internalType": "enum Voting.WorkflowStatus",
							"name": "previousStatus",
							"type": "uint8"
						},
						{
							"indexed": false,
							"internalType": "enum Voting.WorkflowStatus",
							"name": "newStatus",
							"type": "uint8"
						}
					],
					"name": "WorkflowStatusChange",
					"type": "event"
				},
				{
					"inputs": [
						{
							"internalType": "uint256",
							"name": "_choice",
							"type": "uint256"
						}
					],
					"name": "Vote",
					"outputs": [],
					"stateMutability": "nonpayable",
					"type": "function"
				},
				{
					"inputs": [
						{
							"internalType": "string",
							"name": "_description",
							"type": "string"
						}
					],
					"name": "_addProposal",
					"outputs": [],
					"stateMutability": "nonpayable",
					"type": "function"
				},
				{
					"inputs": [
						{
							"internalType": "address",
							"name": "_address",
							"type": "address"
						}
					],
					"name": "_whitelist",
					"outputs": [],
					"stateMutability": "nonpayable",
					"type": "function"
				},
				{
					"inputs": [],
					"name": "getAllProposal",
					"outputs": [
						{
							"components": [
								{
									"internalType": "string",
									"name": "description",
									"type": "string"
								},
								{
									"internalType": "uint256",
									"name": "voteCount",
									"type": "uint256"
								}
							],
							"internalType": "struct Voting.Proposal[]",
							"name": "",
							"type": "tuple[]"
						}
					],
					"stateMutability": "view",
					"type": "function"
				},
				{
					"inputs": [],
					"name": "getProposalCount",
					"outputs": [
						{
							"internalType": "uint256",
							"name": "",
							"type": "uint256"
						}
					],
					"stateMutability": "view",
					"type": "function"
				},
				{
					"inputs": [],
					"name": "nextVotingStatus",
					"outputs": [],
					"stateMutability": "nonpayable",
					"type": "function"
				},
				{
					"inputs": [],
					"name": "owner",
					"outputs": [
						{
							"internalType": "address",
							"name": "",
							"type": "address"
						}
					],
					"stateMutability": "view",
					"type": "function"
				},
				{
					"inputs": [
						{
							"internalType": "uint256",
							"name": "",
							"type": "uint256"
						}
					],
					"name": "proposals",
					"outputs": [
						{
							"internalType": "string",
							"name": "description",
							"type": "string"
						},
						{
							"internalType": "uint256",
							"name": "voteCount",
							"type": "uint256"
						}
					],
					"stateMutability": "view",
					"type": "function"
				},
				{
					"inputs": [],
					"name": "renounceOwnership",
					"outputs": [],
					"stateMutability": "nonpayable",
					"type": "function"
				},
				{
					"inputs": [
						{
							"internalType": "address",
							"name": "newOwner",
							"type": "address"
						}
					],
					"name": "transferOwnership",
					"outputs": [],
					"stateMutability": "nonpayable",
					"type": "function"
				},
				{
					"inputs": [
						{
							"internalType": "uint256",
							"name": "",
							"type": "uint256"
						}
					],
					"name": "winners",
					"outputs": [
						{
							"internalType": "string",
							"name": "description",
							"type": "string"
						},
						{
							"internalType": "uint256",
							"name": "voteCount",
							"type": "uint256"
						}
					],
					"stateMutability": "view",
					"type": "function"
				}
			],
			"devdoc": {
				"errors": {
					"OwnableInvalidOwner(address)": [
						{
							"details": "The owner is not a valid owner account. (eg. `address(0)`)"
						}
					],
					"OwnableUnauthorizedAccount(address)": [
						{
							"details": "The caller account is not authorized to perform an operation."
						}
					]
				},
				"kind": "dev",
				"methods": {
					"owner()": {
						"details": "Returns the address of the current owner."
					},
					"renounceOwnership()": {
						"details": "Leaves the contract without owner. It will not be possible to call `onlyOwner` functions. Can only be called by the current owner. NOTE: Renouncing ownership will leave the contract without an owner, thereby disabling any functionality that is only available to the owner."
					},
					"transferOwnership(address)": {
						"details": "Transfers ownership of the contract to a new account (`newOwner`). Can only be called by the current owner."
					}
				},
				"version": 1
			},
			"evm": {
				"assembly": "    /* \"contracts/Voting.sol\":170:4781  contract Voting is Ownable{... */\n  mstore(0x40, 0x80)\n    /* \"contracts/Voting.sol\":451:539  constructor() Ownable(msg.sender){ ... */\n  callvalue\n  dup1\n  iszero\n  tag_1\n  jumpi\n  revert(0x00, 0x00)\ntag_1:\n  pop\n    /* \"contracts/Voting.sol\":473:483  msg.sender */\n  caller\n    /* \"https://github.com/OpenZeppelin/openzeppelin-contracts/blob/master/contracts/access/Ownable.sol\":1297:1298  0 */\n  0x00\n    /* \"https://github.com/OpenZeppelin/openzeppelin-contracts/blob/master/contracts/access/Ownable.sol\":1273:1299  initialOwner == address(0) */\n  0xffffffffffffffffffffffffffffffffffffffff\n  and\n    /* \"https://github.com/OpenZeppelin/openzeppelin-contracts/blob/master/contracts/access/Ownable.sol\":1273:1285  initialOwner */\n  dup2\n    /* \"https://github.com/OpenZeppelin/openzeppelin-contracts/blob/master/contracts/access/Ownable.sol\":1273:1299  initialOwner == address(0) */\n  0xffffffffffffffffffffffffffffffffffffffff\n  and\n  sub\n    /* \"https://github.com/OpenZeppelin/openzeppelin-contracts/blob/master/contracts/access/Ownable.sol\":1269:1364  if (initialOwner == address(0)) {... */\n  tag_5\n  jumpi\n    /* \"https://github.com/OpenZeppelin/openzeppelin-contracts/blob/master/contracts/access/Ownable.sol\":1350:1351  0 */\n  0x00\n    /* \"https://github.com/OpenZeppelin/openzeppelin-contracts/blob/master/contracts/access/Ownable.sol\":1322:1353  OwnableInvalidOwner(address(0)) */\n  mload(0x40)\n  0x1e4fbdf700000000000000000000000000000000000000000000000000000000\n  dup2\n  mstore\n  0x04\n  add\n  tag_6\n  swap2\n  swap1\n  tag_7\n  jump\t// in\ntag_6:\n  mload(0x40)\n  dup1\n  swap2\n  sub\n  swap1\n  revert\n    /* \"https://github.com/OpenZeppelin/openzeppelin-contracts/blob/master/contracts/access/Ownable.sol\":1269:1364  if (initialOwner == address(0)) {... */\ntag_5:\n    /* \"https://github.com/OpenZeppelin/openzeppelin-contracts/blob/master/contracts/access/Ownable.sol\":1373:1405  _transferOwnership(initialOwner) */\n  tag_8\n    /* \"https://github.com/OpenZeppelin/openzeppelin-contracts/blob/master/contracts/access/Ownable.sol\":1392:1404  initialOwner */\n  dup2\n    /* \"https://github.com/OpenZeppelin/openzeppelin-contracts/blob/master/contracts/access/Ownable.sol\":1373:1391  _transferOwnership */\n  shl(0x20, tag_9)\n    /* \"https://github.com/OpenZeppelin/openzeppelin-contracts/blob/master/contracts/access/Ownable.sol\":1373:1405  _transferOwnership(initialOwner) */\n  0x20\n  shr\n  jump\t// in\ntag_8:\n    /* \"https://github.com/OpenZeppelin/openzeppelin-contracts/blob/master/contracts/access/Ownable.sol\":1225:1412  constructor(address initialOwner) {... */\n  pop\n    /* \"contracts/Voting.sol\":503:530  WorkflowStatus.VotesTallied */\n  0x05\n    /* \"contracts/Voting.sol\":495:500  state */\n  0x00\n  0x14\n    /* \"contracts/Voting.sol\":495:530  state = WorkflowStatus.VotesTallied */\n  0x0100\n  exp\n  dup2\n  sload\n  dup2\n  0xff\n  mul\n  not\n  and\n  swap1\n  dup4\n  0x05\n  dup2\n  gt\n  iszero\n  tag_11\n  jumpi\n  tag_12\n  tag_13\n  jump\t// in\ntag_12:\ntag_11:\n  mul\n  or\n  swap1\n  sstore\n  pop\n    /* \"contracts/Voting.sol\":170:4781  contract Voting is Ownable{... */\n  jump(tag_14)\n    /* \"https://github.com/OpenZeppelin/openzeppelin-contracts/blob/master/contracts/access/Ownable.sol\":2912:3099  function _transferOwnership(address newOwner) internal virtual {... */\ntag_9:\n    /* \"https://github.com/OpenZeppelin/openzeppelin-contracts/blob/master/contracts/access/Ownable.sol\":2985:3001  address oldOwner */\n  0x00\n    /* \"https://github.com/OpenZeppelin/openzeppelin-contracts/blob/master/contracts/access/Ownable.sol\":3004:3010  _owner */\n  0x00\n  0x00\n  swap1\n  sload\n  swap1\n  0x0100\n  exp\n  swap1\n  div\n  0xffffffffffffffffffffffffffffffffffffffff\n  and\n    /* \"https://github.com/OpenZeppelin/openzeppelin-contracts/blob/master/contracts/access/Ownable.sol\":2985:3010  address oldOwner = _owner */\n  swap1\n  pop\n    /* \"https://github.com/OpenZeppelin/openzeppelin-contracts/blob/master/contracts/access/Ownable.sol\":3029:3037  newOwner */\n  dup2\n    /* \"https://github.com/OpenZeppelin/openzeppelin-contracts/blob/master/contracts/access/Ownable.sol\":3020:3026  _owner */\n  0x00\n  0x00\n    /* \"https://github.com/OpenZeppelin/openzeppelin-contracts/blob/master/contracts/access/Ownable.sol\":3020:3037  _owner = newOwner */\n  0x0100\n  exp\n  dup2\n  sload\n  dup2\n  0xffffffffffffffffffffffffffffffffffffffff\n  mul\n  not\n  and\n  swap1\n  dup4\n  0xffffffffffffffffffffffffffffffffffffffff\n  and\n  mul\n  or\n  swap1\n  sstore\n  pop\n    /* \"https://github.com/OpenZeppelin/openzeppelin-contracts/blob/master/contracts/access/Ownable.sol\":3083:3091  newOwner */\n  dup2\n    /* \"https://github.com/OpenZeppelin/openzeppelin-contracts/blob/master/contracts/access/Ownable.sol\":3052:3092  OwnershipTransferred(oldOwner, newOwner) */\n  0xffffffffffffffffffffffffffffffffffffffff\n  and\n    /* \"https://github.com/OpenZeppelin/openzeppelin-contracts/blob/master/contracts/access/Ownable.sol\":3073:3081  oldOwner */\n  dup2\n    /* \"https://github.com/OpenZeppelin/openzeppelin-contracts/blob/master/contracts/access/Ownable.sol\":3052:3092  OwnershipTransferred(oldOwner, newOwner) */\n  0xffffffffffffffffffffffffffffffffffffffff\n  and\n  0x8be0079c531659141344cd1fd0a4f28419497f9722a3daafe3b4186f6b6457e0\n  mload(0x40)\n  mload(0x40)\n  dup1\n  swap2\n  sub\n  swap1\n  log3\n    /* \"https://github.com/OpenZeppelin/openzeppelin-contracts/blob/master/contracts/access/Ownable.sol\":2975:3099  {... */\n  pop\n    /* \"https://github.com/OpenZeppelin/openzeppelin-contracts/blob/master/contracts/access/Ownable.sol\":2912:3099  function _transferOwnership(address newOwner) internal virtual {... */\n  pop\n  jump\t// out\n    /* \"#utility.yul\":7:133   */\ntag_16:\n    /* \"#utility.yul\":44:51   */\n  0x00\n    /* \"#utility.yul\":84:126   */\n  0xffffffffffffffffffffffffffffffffffffffff\n    /* \"#utility.yul\":77:82   */\n  dup3\n    /* \"#utility.yul\":73:127   */\n  and\n    /* \"#utility.yul\":62:127   */\n  swap1\n  pop\n    /* \"#utility.yul\":7:133   */\n  swap2\n  swap1\n  pop\n  jump\t// out\n    /* \"#utility.yul\":139:235   */\ntag_17:\n    /* \"#utility.yul\":176:183   */\n  0x00\n    /* \"#utility.yul\":205:229   */\n  tag_22\n    /* \"#utility.yul\":223:228   */\n  dup3\n    /* \"#utility.yul\":205:229   */\n  tag_16\n  jump\t// in\ntag_22:\n    /* \"#utility.yul\":194:229   */\n  swap1\n  pop\n    /* \"#utility.yul\":139:235   */\n  swap2\n  swap1\n  pop\n  jump\t// out\n    /* \"#utility.yul\":241:359   */\ntag_18:\n    /* \"#utility.yul\":328:352   */\n  tag_24\n    /* \"#utility.yul\":346:351   */\n  dup2\n    /* \"#utility.yul\":328:352   */\n  tag_17\n  jump\t// in\ntag_24:\n    /* \"#utility.yul\":323:326   */\n  dup3\n    /* \"#utility.yul\":316:353   */\n  mstore\n    /* \"#utility.yul\":241:359   */\n  pop\n  pop\n  jump\t// out\n    /* \"#utility.yul\":365:587   */\ntag_7:\n    /* \"#utility.yul\":458:462   */\n  0x00\n    /* \"#utility.yul\":496:498   */\n  0x20\n    /* \"#utility.yul\":485:494   */\n  dup3\n    /* \"#utility.yul\":481:499   */\n  add\n    /* \"#utility.yul\":473:499   */\n  swap1\n  pop\n    /* \"#utility.yul\":509:580   */\n  tag_26\n    /* \"#utility.yul\":577:578   */\n  0x00\n    /* \"#utility.yul\":566:575   */\n  dup4\n    /* \"#utility.yul\":562:579   */\n  add\n    /* \"#utility.yul\":553:559   */\n  dup5\n    /* \"#utility.yul\":509:580   */\n  tag_18\n  jump\t// in\ntag_26:\n    /* \"#utility.yul\":365:587   */\n  swap3\n  swap2\n  pop\n  pop\n  jump\t// out\n    /* \"#utility.yul\":593:773   */\ntag_13:\n    /* \"#utility.yul\":641:718   */\n  0x4e487b7100000000000000000000000000000000000000000000000000000000\n    /* \"#utility.yul\":638:639   */\n  0x00\n    /* \"#utility.yul\":631:719   */\n  mstore\n    /* \"#utility.yul\":738:742   */\n  0x21\n    /* \"#utility.yul\":735:736   */\n  0x04\n    /* \"#utility.yul\":728:743   */\n  mstore\n    /* \"#utility.yul\":762:766   */\n  0x24\n    /* \"#utility.yul\":759:760   */\n  0x00\n    /* \"#utility.yul\":752:767   */\n  revert\n    /* \"contracts/Voting.sol\":170:4781  contract Voting is Ownable{... */\ntag_14:\n  dataSize(sub_0)\n  dup1\n  dataOffset(sub_0)\n  0x00\n  codecopy\n  0x00\n  return\nstop\n\nsub_0: assembly {\n        /* \"contracts/Voting.sol\":170:4781  contract Voting is Ownable{... */\n      mstore(0x40, 0x80)\n      callvalue\n      dup1\n      iszero\n      tag_1\n      jumpi\n      revert(0x00, 0x00)\n    tag_1:\n      pop\n      jumpi(tag_2, lt(calldatasize, 0x04))\n      shr(0xe0, calldataload(0x00))\n      dup1\n      0xa2fb1175\n      gt\n      tag_14\n      jumpi\n      dup1\n      0xa2fb1175\n      eq\n      tag_8\n      jumpi\n      dup1\n      0xc08cc02d\n      eq\n      tag_9\n      jumpi\n      dup1\n      0xcfdb63ac\n      eq\n      tag_10\n      jumpi\n      dup1\n      0xdcd6a5cd\n      eq\n      tag_11\n      jumpi\n      dup1\n      0xe6adaecc\n      eq\n      tag_12\n      jumpi\n      dup1\n      0xf2fde38b\n      eq\n      tag_13\n      jumpi\n      jump(tag_2)\n    tag_14:\n      dup1\n      0x013cf08b\n      eq\n      tag_3\n      jumpi\n      dup1\n      0x43344983\n      eq\n      tag_4\n      jumpi\n      dup1\n      0x4ea49925\n      eq\n      tag_5\n      jumpi\n      dup1\n      0x715018a6\n      eq\n      tag_6\n      jumpi\n      dup1\n      0x8da5cb5b\n      eq\n      tag_7\n      jumpi\n    tag_2:\n      revert(0x00, 0x00)\n        /* \"contracts/Voting.sol\":1085:1112  Proposal[] public proposals */\n    tag_3:\n      tag_15\n      0x04\n      dup1\n      calldatasize\n      sub\n      dup2\n      add\n      swap1\n      tag_16\n      swap2\n      swap1\n      tag_17\n      jump\t// in\n    tag_16:\n      tag_18\n      jump\t// in\n    tag_15:\n      mload(0x40)\n      tag_19\n      swap3\n      swap2\n      swap1\n      tag_20\n      jump\t// in\n    tag_19:\n      mload(0x40)\n      dup1\n      swap2\n      sub\n      swap1\n      return\n        /* \"contracts/Voting.sol\":3525:3623  function getAllProposal()external view returns(Proposal[] memory){... */\n    tag_4:\n      tag_21\n      tag_22\n      jump\t// in\n    tag_21:\n      mload(0x40)\n      tag_23\n      swap2\n      swap1\n      tag_24\n      jump\t// in\n    tag_23:\n      mload(0x40)\n      dup1\n      swap2\n      sub\n      swap1\n      return\n        /* \"contracts/Voting.sol\":1301:1780  function nextVotingStatus() public onlyOwner{ //Definis le status à l'etape suivante... */\n    tag_5:\n      tag_25\n      tag_26\n      jump\t// in\n    tag_25:\n      stop\n        /* \"https://github.com/OpenZeppelin/openzeppelin-contracts/blob/master/contracts/access/Ownable.sol\":2293:2394  function renounceOwnership() public virtual onlyOwner {... */\n    tag_6:\n      tag_27\n      tag_28\n      jump\t// in\n    tag_27:\n      stop\n        /* \"https://github.com/OpenZeppelin/openzeppelin-contracts/blob/master/contracts/access/Ownable.sol\":1638:1723  function owner() public view virtual returns (address) {... */\n    tag_7:\n      tag_29\n      tag_30\n      jump\t// in\n    tag_29:\n      mload(0x40)\n      tag_31\n      swap2\n      swap1\n      tag_32\n      jump\t// in\n    tag_31:\n      mload(0x40)\n      dup1\n      swap2\n      sub\n      swap1\n      return\n        /* \"contracts/Voting.sol\":1203:1228  Proposal[] public winners */\n    tag_8:\n      tag_33\n      0x04\n      dup1\n      calldatasize\n      sub\n      dup2\n      add\n      swap1\n      tag_34\n      swap2\n      swap1\n      tag_17\n      jump\t// in\n    tag_34:\n      tag_35\n      jump\t// in\n    tag_33:\n      mload(0x40)\n      tag_36\n      swap3\n      swap2\n      swap1\n      tag_20\n      jump\t// in\n    tag_36:\n      mload(0x40)\n      dup1\n      swap2\n      sub\n      swap1\n      return\n        /* \"contracts/Voting.sol\":3423:3519  function getProposalCount() external view returns (uint){... */\n    tag_9:\n      tag_37\n      tag_38\n      jump\t// in\n    tag_37:\n      mload(0x40)\n      tag_39\n      swap2\n      swap1\n      tag_40\n      jump\t// in\n    tag_39:\n      mload(0x40)\n      dup1\n      swap2\n      sub\n      swap1\n      return\n        /* \"contracts/Voting.sol\":1862:2638  function _whitelist(address _address) public onlyOwner{... */\n    tag_10:\n      tag_41\n      0x04\n      dup1\n      calldatasize\n      sub\n      dup2\n      add\n      swap1\n      tag_42\n      swap2\n      swap1\n      tag_43\n      jump\t// in\n    tag_42:\n      tag_44\n      jump\t// in\n    tag_41:\n      stop\n        /* \"contracts/Voting.sol\":3634:4377  function Vote(uint _choice ) external {... */\n    tag_11:\n      tag_45\n      0x04\n      dup1\n      calldatasize\n      sub\n      dup2\n      add\n      swap1\n      tag_46\n      swap2\n      swap1\n      tag_17\n      jump\t// in\n    tag_46:\n      tag_47\n      jump\t// in\n    tag_45:\n      stop\n        /* \"contracts/Voting.sol\":2787:3418  function _addProposal (string memory _description) external {... */\n    tag_12:\n      tag_48\n      0x04\n      dup1\n      calldatasize\n      sub\n      dup2\n      add\n      swap1\n      tag_49\n      swap2\n      swap1\n      tag_50\n      jump\t// in\n    tag_49:\n      tag_51\n      jump\t// in\n    tag_48:\n      stop\n        /* \"https://github.com/OpenZeppelin/openzeppelin-contracts/blob/master/contracts/access/Ownable.sol\":2543:2758  function transferOwnership(address newOwner) public virtual onlyOwner {... */\n    tag_13:\n      tag_52\n      0x04\n      dup1\n      calldatasize\n      sub\n      dup2\n      add\n      swap1\n      tag_53\n      swap2\n      swap1\n      tag_43\n      jump\t// in\n    tag_53:\n      tag_54\n      jump\t// in\n    tag_52:\n      stop\n        /* \"contracts/Voting.sol\":1085:1112  Proposal[] public proposals */\n    tag_18:\n      0x03\n      dup2\n      dup2\n      sload\n      dup2\n      lt\n      tag_55\n      jumpi\n      0x00\n      dup1\n      revert\n    tag_55:\n      swap1\n      0x00\n      mstore\n      keccak256(0x00, 0x20)\n      swap1\n      0x02\n      mul\n      add\n      0x00\n      swap2\n      pop\n      swap1\n      pop\n      dup1\n      0x00\n      add\n      dup1\n      sload\n      tag_57\n      swap1\n      tag_58\n      jump\t// in\n    tag_57:\n      dup1\n      0x1f\n      add\n      0x20\n      dup1\n      swap2\n      div\n      mul\n      0x20\n      add\n      mload(0x40)\n      swap1\n      dup2\n      add\n      0x40\n      mstore\n      dup1\n      swap3\n      swap2\n      swap1\n      dup2\n      dup2\n      mstore\n      0x20\n      add\n      dup3\n      dup1\n      sload\n      tag_59\n      swap1\n      tag_58\n      jump\t// in\n    tag_59:\n      dup1\n      iszero\n      tag_60\n      jumpi\n      dup1\n      0x1f\n      lt\n      tag_61\n      jumpi\n      0x0100\n      dup1\n      dup4\n      sload\n      div\n      mul\n      dup4\n      mstore\n      swap2\n      0x20\n      add\n      swap2\n      jump(tag_60)\n    tag_61:\n      dup3\n      add\n      swap2\n      swap1\n      0x00\n      mstore\n      keccak256(0x00, 0x20)\n      swap1\n    tag_62:\n      dup2\n      sload\n      dup2\n      mstore\n      swap1\n      0x01\n      add\n      swap1\n      0x20\n      add\n      dup1\n      dup4\n      gt\n      tag_62\n      jumpi\n      dup3\n      swap1\n      sub\n      0x1f\n      and\n      dup3\n      add\n      swap2\n    tag_60:\n      pop\n      pop\n      pop\n      pop\n      pop\n      swap1\n      dup1\n      0x01\n      add\n      sload\n      swap1\n      pop\n      dup3\n      jump\t// out\n        /* \"contracts/Voting.sol\":3525:3623  function getAllProposal()external view returns(Proposal[] memory){... */\n    tag_22:\n        /* \"contracts/Voting.sol\":3572:3589  Proposal[] memory */\n      0x60\n        /* \"contracts/Voting.sol\":3607:3616  proposals */\n      0x03\n        /* \"contracts/Voting.sol\":3600:3616  return proposals */\n      dup1\n      sload\n      dup1\n      0x20\n      mul\n      0x20\n      add\n      mload(0x40)\n      swap1\n      dup2\n      add\n      0x40\n      mstore\n      dup1\n      swap3\n      swap2\n      swap1\n      dup2\n      dup2\n      mstore\n      0x20\n      add\n      0x00\n      swap1\n    tag_64:\n      dup3\n      dup3\n      lt\n      iszero\n      tag_65\n      jumpi\n      dup4\n      dup3\n      swap1\n      0x00\n      mstore\n      keccak256(0x00, 0x20)\n      swap1\n      0x02\n      mul\n      add\n      mload(0x40)\n      dup1\n      0x40\n      add\n      0x40\n      mstore\n      swap1\n      dup2\n      0x00\n      dup3\n      add\n      dup1\n      sload\n      tag_67\n      swap1\n      tag_58\n      jump\t// in\n    tag_67:\n      dup1\n      0x1f\n      add\n      0x20\n      dup1\n      swap2\n      div\n      mul\n      0x20\n      add\n      mload(0x40)\n      swap1\n      dup2\n      add\n      0x40\n      mstore\n      dup1\n      swap3\n      swap2\n      swap1\n      dup2\n      dup2\n      mstore\n      0x20\n      add\n      dup3\n      dup1\n      sload\n      tag_68\n      swap1\n      tag_58\n      jump\t// in\n    tag_68:\n      dup1\n      iszero\n      tag_69\n      jumpi\n      dup1\n      0x1f\n      lt\n      tag_70\n      jumpi\n      0x0100\n      dup1\n      dup4\n      sload\n      div\n      mul\n      dup4\n      mstore\n      swap2\n      0x20\n      add\n      swap2\n      jump(tag_69)\n    tag_70:\n      dup3\n      add\n      swap2\n      swap1\n      0x00\n      mstore\n      keccak256(0x00, 0x20)\n      swap1\n    tag_71:\n      dup2\n      sload\n      dup2\n      mstore\n      swap1\n      0x01\n      add\n      swap1\n      0x20\n      add\n      dup1\n      dup4\n      gt\n      tag_71\n      jumpi\n      dup3\n      swap1\n      sub\n      0x1f\n      and\n      dup3\n      add\n      swap2\n    tag_69:\n      pop\n      pop\n      pop\n      pop\n      pop\n      dup2\n      mstore\n      0x20\n      add\n      0x01\n      dup3\n      add\n      sload\n      dup2\n      mstore\n      pop\n      pop\n      dup2\n      mstore\n      0x20\n      add\n      swap1\n      0x01\n      add\n      swap1\n      jump(tag_64)\n    tag_65:\n      pop\n      pop\n      pop\n      pop\n      swap1\n      pop\n        /* \"contracts/Voting.sol\":3525:3623  function getAllProposal()external view returns(Proposal[] memory){... */\n      swap1\n      jump\t// out\n        /* \"contracts/Voting.sol\":1301:1780  function nextVotingStatus() public onlyOwner{ //Definis le status à l'etape suivante... */\n    tag_26:\n        /* \"https://github.com/OpenZeppelin/openzeppelin-contracts/blob/master/contracts/access/Ownable.sol\":1531:1544  _checkOwner() */\n      tag_73\n        /* \"https://github.com/OpenZeppelin/openzeppelin-contracts/blob/master/contracts/access/Ownable.sol\":1531:1542  _checkOwner */\n      tag_74\n        /* \"https://github.com/OpenZeppelin/openzeppelin-contracts/blob/master/contracts/access/Ownable.sol\":1531:1544  _checkOwner() */\n      jump\t// in\n    tag_73:\n        /* \"contracts/Voting.sol\":1395:1424  WorkflowStatus previousStatus */\n      0x00\n        /* \"contracts/Voting.sol\":1425:1430  state */\n      0x00\n      0x14\n      swap1\n      sload\n      swap1\n      0x0100\n      exp\n      swap1\n      div\n      0xff\n      and\n        /* \"contracts/Voting.sol\":1395:1430  WorkflowStatus previousStatus=state */\n      swap1\n      pop\n        /* \"contracts/Voting.sol\":1453:1480  WorkflowStatus.VotesTallied */\n      0x05\n        /* \"contracts/Voting.sol\":1445:1480  state== WorkflowStatus.VotesTallied */\n      dup1\n      dup2\n      gt\n      iszero\n      tag_76\n      jumpi\n      tag_77\n      tag_78\n      jump\t// in\n    tag_77:\n    tag_76:\n        /* \"contracts/Voting.sol\":1445:1450  state */\n      0x00\n      0x14\n      swap1\n      sload\n      swap1\n      0x0100\n      exp\n      swap1\n      div\n      0xff\n      and\n        /* \"contracts/Voting.sol\":1445:1480  state== WorkflowStatus.VotesTallied */\n      0x05\n      dup2\n      gt\n      iszero\n      tag_79\n      jumpi\n      tag_80\n      tag_78\n      jump\t// in\n    tag_80:\n    tag_79:\n      sub\n        /* \"contracts/Voting.sol\":1441:1670  if (state== WorkflowStatus.VotesTallied){... */\n      tag_81\n      jumpi\n        /* \"contracts/Voting.sol\":1503:1535  WorkflowStatus.RegisteringVoters */\n      0x00\n        /* \"contracts/Voting.sol\":1495:1500  state */\n      0x00\n      0x14\n        /* \"contracts/Voting.sol\":1495:1535  state = WorkflowStatus.RegisteringVoters */\n      0x0100\n      exp\n      dup2\n      sload\n      dup2\n      0xff\n      mul\n      not\n      and\n      swap1\n      dup4\n      0x05\n      dup2\n      gt\n      iszero\n      tag_82\n      jumpi\n      tag_83\n      tag_78\n      jump\t// in\n    tag_83:\n    tag_82:\n      mul\n      or\n      swap1\n      sstore\n      pop\n        /* \"contracts/Voting.sol\":1441:1670  if (state== WorkflowStatus.VotesTallied){... */\n      jump(tag_84)\n    tag_81:\n        /* \"contracts/Voting.sol\":1657:1658  1 */\n      0x01\n        /* \"contracts/Voting.sol\":1650:1655  state */\n      0x00\n      0x14\n      swap1\n      sload\n      swap1\n      0x0100\n      exp\n      swap1\n      div\n      0xff\n      and\n        /* \"contracts/Voting.sol\":1645:1656  uint(state) */\n      0x05\n      dup2\n      gt\n      iszero\n      tag_85\n      jumpi\n      tag_86\n      tag_78\n      jump\t// in\n    tag_86:\n    tag_85:\n        /* \"contracts/Voting.sol\":1645:1658  uint(state)+1 */\n      tag_87\n      swap2\n      swap1\n      tag_88\n      jump\t// in\n    tag_87:\n        /* \"contracts/Voting.sol\":1630:1659  WorkflowStatus(uint(state)+1) */\n      0x05\n      dup2\n      gt\n      iszero\n      tag_89\n      jumpi\n      tag_90\n      tag_78\n      jump\t// in\n    tag_90:\n    tag_89:\n        /* \"contracts/Voting.sol\":1622:1627  state */\n      0x00\n      0x14\n        /* \"contracts/Voting.sol\":1622:1659  state = WorkflowStatus(uint(state)+1) */\n      0x0100\n      exp\n      dup2\n      sload\n      dup2\n      0xff\n      mul\n      not\n      and\n      swap1\n      dup4\n      0x05\n      dup2\n      gt\n      iszero\n      tag_91\n      jumpi\n      tag_92\n      tag_78\n      jump\t// in\n    tag_92:\n    tag_91:\n      mul\n      or\n      swap1\n      sstore\n      pop\n        /* \"contracts/Voting.sol\":1441:1670  if (state== WorkflowStatus.VotesTallied){... */\n    tag_84:\n        /* \"contracts/Voting.sol\":1679:1703  WorkflowStatus newStatus */\n      0x00\n        /* \"contracts/Voting.sol\":1704:1709  state */\n      0x00\n      0x14\n      swap1\n      sload\n      swap1\n      0x0100\n      exp\n      swap1\n      div\n      0xff\n      and\n        /* \"contracts/Voting.sol\":1679:1709  WorkflowStatus newStatus=state */\n      swap1\n      pop\n        /* \"contracts/Voting.sol\":1725:1772  WorkflowStatusChange(previousStatus, newStatus) */\n      0x0a97a4ee45751e2abf3e4fc8946939630b11b371ea8ae39ccdc3056e98f5cc3f\n        /* \"contracts/Voting.sol\":1746:1760  previousStatus */\n      dup3\n        /* \"contracts/Voting.sol\":1762:1771  newStatus */\n      dup3\n        /* \"contracts/Voting.sol\":1725:1772  WorkflowStatusChange(previousStatus, newStatus) */\n      mload(0x40)\n      tag_93\n      swap3\n      swap2\n      swap1\n      tag_94\n      jump\t// in\n    tag_93:\n      mload(0x40)\n      dup1\n      swap2\n      sub\n      swap1\n      log1\n        /* \"contracts/Voting.sol\":1345:1780  { //Definis le status à l'etape suivante... */\n      pop\n      pop\n        /* \"contracts/Voting.sol\":1301:1780  function nextVotingStatus() public onlyOwner{ //Definis le status à l'etape suivante... */\n      jump\t// out\n        /* \"https://github.com/OpenZeppelin/openzeppelin-contracts/blob/master/contracts/access/Ownable.sol\":2293:2394  function renounceOwnership() public virtual onlyOwner {... */\n    tag_28:\n        /* \"https://github.com/OpenZeppelin/openzeppelin-contracts/blob/master/contracts/access/Ownable.sol\":1531:1544  _checkOwner() */\n      tag_96\n        /* \"https://github.com/OpenZeppelin/openzeppelin-contracts/blob/master/contracts/access/Ownable.sol\":1531:1542  _checkOwner */\n      tag_74\n        /* \"https://github.com/OpenZeppelin/openzeppelin-contracts/blob/master/contracts/access/Ownable.sol\":1531:1544  _checkOwner() */\n      jump\t// in\n    tag_96:\n        /* \"https://github.com/OpenZeppelin/openzeppelin-contracts/blob/master/contracts/access/Ownable.sol\":2357:2387  _transferOwnership(address(0)) */\n      tag_98\n        /* \"https://github.com/OpenZeppelin/openzeppelin-contracts/blob/master/contracts/access/Ownable.sol\":2384:2385  0 */\n      0x00\n        /* \"https://github.com/OpenZeppelin/openzeppelin-contracts/blob/master/contracts/access/Ownable.sol\":2357:2375  _transferOwnership */\n      tag_99\n        /* \"https://github.com/OpenZeppelin/openzeppelin-contracts/blob/master/contracts/access/Ownable.sol\":2357:2387  _transferOwnership(address(0)) */\n      jump\t// in\n    tag_98:\n        /* \"https://github.com/OpenZeppelin/openzeppelin-contracts/blob/master/contracts/access/Ownable.sol\":2293:2394  function renounceOwnership() public virtual onlyOwner {... */\n      jump\t// out\n        /* \"https://github.com/OpenZeppelin/openzeppelin-contracts/blob/master/contracts/access/Ownable.sol\":1638:1723  function owner() public view virtual returns (address) {... */\n    tag_30:\n        /* \"https://github.com/OpenZeppelin/openzeppelin-contracts/blob/master/contracts/access/Ownable.sol\":1684:1691  address */\n      0x00\n        /* \"https://github.com/OpenZeppelin/openzeppelin-contracts/blob/master/contracts/access/Ownable.sol\":1710:1716  _owner */\n      0x00\n      0x00\n      swap1\n      sload\n      swap1\n      0x0100\n      exp\n      swap1\n      div\n      0xffffffffffffffffffffffffffffffffffffffff\n      and\n        /* \"https://github.com/OpenZeppelin/openzeppelin-contracts/blob/master/contracts/access/Ownable.sol\":1703:1716  return _owner */\n      swap1\n      pop\n        /* \"https://github.com/OpenZeppelin/openzeppelin-contracts/blob/master/contracts/access/Ownable.sol\":1638:1723  function owner() public view virtual returns (address) {... */\n      swap1\n      jump\t// out\n        /* \"contracts/Voting.sol\":1203:1228  Proposal[] public winners */\n    tag_35:\n      0x05\n      dup2\n      dup2\n      sload\n      dup2\n      lt\n      tag_101\n      jumpi\n      0x00\n      dup1\n      revert\n    tag_101:\n      swap1\n      0x00\n      mstore\n      keccak256(0x00, 0x20)\n      swap1\n      0x02\n      mul\n      add\n      0x00\n      swap2\n      pop\n      swap1\n      pop\n      dup1\n      0x00\n      add\n      dup1\n      sload\n      tag_103\n      swap1\n      tag_58\n      jump\t// in\n    tag_103:\n      dup1\n      0x1f\n      add\n      0x20\n      dup1\n      swap2\n      div\n      mul\n      0x20\n      add\n      mload(0x40)\n      swap1\n      dup2\n      add\n      0x40\n      mstore\n      dup1\n      swap3\n      swap2\n      swap1\n      dup2\n      dup2\n      mstore\n      0x20\n      add\n      dup3\n      dup1\n      sload\n      tag_104\n      swap1\n      tag_58\n      jump\t// in\n    tag_104:\n      dup1\n      iszero\n      tag_105\n      jumpi\n      dup1\n      0x1f\n      lt\n      tag_106\n      jumpi\n      0x0100\n      dup1\n      dup4\n      sload\n      div\n      mul\n      dup4\n      mstore\n      swap2\n      0x20\n      add\n      swap2\n      jump(tag_105)\n    tag_106:\n      dup3\n      add\n      swap2\n      swap1\n      0x00\n      mstore\n      keccak256(0x00, 0x20)\n      swap1\n    tag_107:\n      dup2\n      sload\n      dup2\n      mstore\n      swap1\n      0x01\n      add\n      swap1\n      0x20\n      add\n      dup1\n      dup4\n      gt\n      tag_107\n      jumpi\n      dup3\n      swap1\n      sub\n      0x1f\n      and\n      dup3\n      add\n      swap2\n    tag_105:\n      pop\n      pop\n      pop\n      pop\n      pop\n      swap1\n      dup1\n      0x01\n      add\n      sload\n      swap1\n      pop\n      dup3\n      jump\t// out\n        /* \"contracts/Voting.sol\":3423:3519  function getProposalCount() external view returns (uint){... */\n    tag_38:\n        /* \"contracts/Voting.sol\":3474:3478  uint */\n      0x00\n        /* \"contracts/Voting.sol\":3496:3505  proposals */\n      0x03\n        /* \"contracts/Voting.sol\":3496:3512  proposals.length */\n      dup1\n      sload\n      swap1\n      pop\n        /* \"contracts/Voting.sol\":3489:3512  return proposals.length */\n      swap1\n      pop\n        /* \"contracts/Voting.sol\":3423:3519  function getProposalCount() external view returns (uint){... */\n      swap1\n      jump\t// out\n        /* \"contracts/Voting.sol\":1862:2638  function _whitelist(address _address) public onlyOwner{... */\n    tag_44:\n        /* \"https://github.com/OpenZeppelin/openzeppelin-contracts/blob/master/contracts/access/Ownable.sol\":1531:1544  _checkOwner() */\n      tag_110\n        /* \"https://github.com/OpenZeppelin/openzeppelin-contracts/blob/master/contracts/access/Ownable.sol\":1531:1542  _checkOwner */\n      tag_74\n        /* \"https://github.com/OpenZeppelin/openzeppelin-contracts/blob/master/contracts/access/Ownable.sol\":1531:1544  _checkOwner() */\n      jump\t// in\n    tag_110:\n        /* \"contracts/Voting.sol\":1943:1975  WorkflowStatus.RegisteringVoters */\n      0x00\n        /* \"contracts/Voting.sol\":1934:1975  state == WorkflowStatus.RegisteringVoters */\n      0x05\n      dup2\n      gt\n      iszero\n      tag_112\n      jumpi\n      tag_113\n      tag_78\n      jump\t// in\n    tag_113:\n    tag_112:\n        /* \"contracts/Voting.sol\":1934:1939  state */\n      0x00\n      0x14\n      swap1\n      sload\n      swap1\n      0x0100\n      exp\n      swap1\n      div\n      0xff\n      and\n        /* \"contracts/Voting.sol\":1934:1975  state == WorkflowStatus.RegisteringVoters */\n      0x05\n      dup2\n      gt\n      iszero\n      tag_114\n      jumpi\n      tag_115\n      tag_78\n      jump\t// in\n    tag_115:\n    tag_114:\n      eq\n        /* \"contracts/Voting.sol\":1926:2028  require(state == WorkflowStatus.RegisteringVoters,\"Address can be added only in Registration phase:0\") */\n      tag_116\n      jumpi\n      mload(0x40)\n      0x08c379a000000000000000000000000000000000000000000000000000000000\n      dup2\n      mstore\n      0x04\n      add\n      tag_117\n      swap1\n      tag_118\n      jump\t// in\n    tag_117:\n      mload(0x40)\n      dup1\n      swap2\n      sub\n      swap1\n      revert\n    tag_116:\n        /* \"contracts/Voting.sol\":2120:2129  whitelist */\n      0x01\n        /* \"contracts/Voting.sol\":2120:2139  whitelist[_address] */\n      0x00\n        /* \"contracts/Voting.sol\":2130:2138  _address */\n      dup3\n        /* \"contracts/Voting.sol\":2120:2139  whitelist[_address] */\n      0xffffffffffffffffffffffffffffffffffffffff\n      and\n      0xffffffffffffffffffffffffffffffffffffffff\n      and\n      dup2\n      mstore\n      0x20\n      add\n      swap1\n      dup2\n      mstore\n      0x20\n      add\n      0x00\n      keccak256\n      0x00\n      swap1\n      sload\n      swap1\n      0x0100\n      exp\n      swap1\n      div\n      0xff\n      and\n        /* \"contracts/Voting.sol\":2119:2139  !whitelist[_address] */\n      iszero\n        /* \"contracts/Voting.sol\":2111:2169  require(!whitelist[_address],\"Address already registered\") */\n      tag_119\n      jumpi\n      mload(0x40)\n      0x08c379a000000000000000000000000000000000000000000000000000000000\n      dup2\n      mstore\n      0x04\n      add\n      tag_120\n      swap1\n      tag_121\n      jump\t// in\n    tag_120:\n      mload(0x40)\n      dup1\n      swap2\n      sub\n      swap1\n      revert\n    tag_119:\n        /* \"contracts/Voting.sol\":2254:2363  Voter({... */\n      mload(0x40)\n      dup1\n      0x60\n      add\n      0x40\n      mstore\n      dup1\n        /* \"contracts/Voting.sol\":2287:2291  true */\n      0x01\n        /* \"contracts/Voting.sol\":2254:2363  Voter({... */\n      iszero\n      iszero\n      dup2\n      mstore\n      0x20\n      add\n        /* \"contracts/Voting.sol\":2315:2320  false */\n      0x00\n        /* \"contracts/Voting.sol\":2254:2363  Voter({... */\n      iszero\n      iszero\n      dup2\n      mstore\n      0x20\n      add\n        /* \"contracts/Voting.sol\":2351:2352  0 */\n      0x00\n        /* \"contracts/Voting.sol\":2254:2363  Voter({... */\n      dup2\n      mstore\n      pop\n        /* \"contracts/Voting.sol\":2236:2242  voters */\n      0x02\n        /* \"contracts/Voting.sol\":2236:2252  voters[_address] */\n      0x00\n        /* \"contracts/Voting.sol\":2243:2251  _address */\n      dup4\n        /* \"contracts/Voting.sol\":2236:2252  voters[_address] */\n      0xffffffffffffffffffffffffffffffffffffffff\n      and\n      0xffffffffffffffffffffffffffffffffffffffff\n      and\n      dup2\n      mstore\n      0x20\n      add\n      swap1\n      dup2\n      mstore\n      0x20\n      add\n      0x00\n      keccak256\n        /* \"contracts/Voting.sol\":2236:2363  voters[_address]= Voter({... */\n      0x00\n      dup3\n      add\n      mload\n      dup2\n      0x00\n      add\n      exp(0x0100, 0x00)\n      dup2\n      sload\n      dup2\n      0xff\n      mul\n      not\n      and\n      swap1\n      dup4\n      iszero\n      iszero\n      mul\n      or\n      swap1\n      sstore\n      pop\n      0x20\n      dup3\n      add\n      mload\n      dup2\n      0x00\n      add\n      exp(0x0100, 0x01)\n      dup2\n      sload\n      dup2\n      0xff\n      mul\n      not\n      and\n      swap1\n      dup4\n      iszero\n      iszero\n      mul\n      or\n      swap1\n      sstore\n      pop\n      0x40\n      dup3\n      add\n      mload\n      dup2\n      0x01\n      add\n      sstore\n      swap1\n      pop\n      pop\n        /* \"contracts/Voting.sol\":2393:2397  true */\n      0x01\n        /* \"contracts/Voting.sol\":2373:2382  whitelist */\n      dup1\n        /* \"contracts/Voting.sol\":2373:2392  whitelist[_address] */\n      0x00\n        /* \"contracts/Voting.sol\":2383:2391  _address */\n      dup4\n        /* \"contracts/Voting.sol\":2373:2392  whitelist[_address] */\n      0xffffffffffffffffffffffffffffffffffffffff\n      and\n      0xffffffffffffffffffffffffffffffffffffffff\n      and\n      dup2\n      mstore\n      0x20\n      add\n      swap1\n      dup2\n      mstore\n      0x20\n      add\n      0x00\n      keccak256\n      0x00\n        /* \"contracts/Voting.sol\":2373:2397  whitelist[_address]=true */\n      0x0100\n      exp\n      dup2\n      sload\n      dup2\n      0xff\n      mul\n      not\n      and\n      swap1\n      dup4\n      iszero\n      iszero\n      mul\n      or\n      swap1\n      sstore\n      pop\n        /* \"contracts/Voting.sol\":2460:2474  whitelistCount */\n      0x04\n      0x00\n        /* \"contracts/Voting.sol\":2460:2476  whitelistCount++ */\n      dup2\n      sload\n      dup1\n      swap3\n      swap2\n      swap1\n      tag_122\n      swap1\n      tag_123\n      jump\t// in\n    tag_122:\n      swap2\n      swap1\n      pop\n      sstore\n      pop\n        /* \"contracts/Voting.sol\":2559:2584  VoterRegistered(_address) */\n      0xb6be2187d059cc2a55fe29e0e503b566e1e0f8c8780096e185429350acffd3dd\n        /* \"contracts/Voting.sol\":2575:2583  _address */\n      dup2\n        /* \"contracts/Voting.sol\":2559:2584  VoterRegistered(_address) */\n      mload(0x40)\n      tag_124\n      swap2\n      swap1\n      tag_32\n      jump\t// in\n    tag_124:\n      mload(0x40)\n      dup1\n      swap2\n      sub\n      swap1\n      log1\n        /* \"contracts/Voting.sol\":1862:2638  function _whitelist(address _address) public onlyOwner{... */\n      pop\n      jump\t// out\n        /* \"contracts/Voting.sol\":3634:4377  function Vote(uint _choice ) external {... */\n    tag_47:\n        /* \"contracts/Voting.sol\":3699:3734  WorkflowStatus.VotingSessionStarted */\n      0x03\n        /* \"contracts/Voting.sol\":3690:3734  state == WorkflowStatus.VotingSessionStarted */\n      0x05\n      dup2\n      gt\n      iszero\n      tag_126\n      jumpi\n      tag_127\n      tag_78\n      jump\t// in\n    tag_127:\n    tag_126:\n        /* \"contracts/Voting.sol\":3690:3695  state */\n      0x00\n      0x14\n      swap1\n      sload\n      swap1\n      0x0100\n      exp\n      swap1\n      div\n      0xff\n      and\n        /* \"contracts/Voting.sol\":3690:3734  state == WorkflowStatus.VotingSessionStarted */\n      0x05\n      dup2\n      gt\n      iszero\n      tag_128\n      jumpi\n      tag_129\n      tag_78\n      jump\t// in\n    tag_129:\n    tag_128:\n      eq\n        /* \"contracts/Voting.sol\":3682:3782  require(state == WorkflowStatus.VotingSessionStarted,\"Proposal can be addes only in voting phase:3\") */\n      tag_130\n      jumpi\n      mload(0x40)\n      0x08c379a000000000000000000000000000000000000000000000000000000000\n      dup2\n      mstore\n      0x04\n      add\n      tag_131\n      swap1\n      tag_132\n      jump\t// in\n    tag_131:\n      mload(0x40)\n      dup1\n      swap2\n      sub\n      swap1\n      revert\n    tag_130:\n        /* \"contracts/Voting.sol\":3881:3882  0 */\n      0x00\n        /* \"contracts/Voting.sol\":3864:3873  proposals */\n      0x03\n        /* \"contracts/Voting.sol\":3864:3880  proposals.length */\n      dup1\n      sload\n      swap1\n      pop\n        /* \"contracts/Voting.sol\":3864:3882  proposals.length>0 */\n      gt\n        /* \"contracts/Voting.sol\":3856:3957  require(proposals.length>0,\"You have to get at leat one proposal in order to proceed a voting phase\") */\n      tag_133\n      jumpi\n      mload(0x40)\n      0x08c379a000000000000000000000000000000000000000000000000000000000\n      dup2\n      mstore\n      0x04\n      add\n      tag_134\n      swap1\n      tag_135\n      jump\t// in\n    tag_134:\n      mload(0x40)\n      dup1\n      swap2\n      sub\n      swap1\n      revert\n    tag_133:\n        /* \"contracts/Voting.sol\":3975:3981  voters */\n      0x02\n        /* \"contracts/Voting.sol\":3975:3993  voters[msg.sender] */\n      0x00\n        /* \"contracts/Voting.sol\":3982:3992  msg.sender */\n      caller\n        /* \"contracts/Voting.sol\":3975:3993  voters[msg.sender] */\n      0xffffffffffffffffffffffffffffffffffffffff\n      and\n      0xffffffffffffffffffffffffffffffffffffffff\n      and\n      dup2\n      mstore\n      0x20\n      add\n      swap1\n      dup2\n      mstore\n      0x20\n      add\n      0x00\n      keccak256\n        /* \"contracts/Voting.sol\":3975:4006  voters[msg.sender].isRegistered */\n      0x00\n      add\n      0x00\n      swap1\n      sload\n      swap1\n      0x0100\n      exp\n      swap1\n      div\n      0xff\n      and\n        /* \"contracts/Voting.sol\":3967:4043  require(voters[msg.sender].isRegistered, \"You ar not registered as a voter\") */\n      tag_136\n      jumpi\n      mload(0x40)\n      0x08c379a000000000000000000000000000000000000000000000000000000000\n      dup2\n      mstore\n      0x04\n      add\n      tag_137\n      swap1\n      tag_138\n      jump\t// in\n    tag_137:\n      mload(0x40)\n      dup1\n      swap2\n      sub\n      swap1\n      revert\n    tag_136:\n        /* \"contracts/Voting.sol\":4062:4068  voters */\n      0x02\n        /* \"contracts/Voting.sol\":4062:4080  voters[msg.sender] */\n      0x00\n        /* \"contracts/Voting.sol\":4069:4079  msg.sender */\n      caller\n        /* \"contracts/Voting.sol\":4062:4080  voters[msg.sender] */\n      0xffffffffffffffffffffffffffffffffffffffff\n      and\n      0xffffffffffffffffffffffffffffffffffffffff\n      and\n      dup2\n      mstore\n      0x20\n      add\n      swap1\n      dup2\n      mstore\n      0x20\n      add\n      0x00\n      keccak256\n        /* \"contracts/Voting.sol\":4062:4089  voters[msg.sender].hasVoted */\n      0x00\n      add\n      0x01\n      swap1\n      sload\n      swap1\n      0x0100\n      exp\n      swap1\n      div\n      0xff\n      and\n        /* \"contracts/Voting.sol\":4061:4089  !voters[msg.sender].hasVoted */\n      iszero\n        /* \"contracts/Voting.sol\":4053:4115  require(!voters[msg.sender].hasVoted,\"You have already voted\") */\n      tag_139\n      jumpi\n      mload(0x40)\n      0x08c379a000000000000000000000000000000000000000000000000000000000\n      dup2\n      mstore\n      0x04\n      add\n      tag_140\n      swap1\n      tag_141\n      jump\t// in\n    tag_140:\n      mload(0x40)\n      dup1\n      swap2\n      sub\n      swap1\n      revert\n    tag_139:\n        /* \"contracts/Voting.sol\":4143:4152  proposals */\n      0x03\n        /* \"contracts/Voting.sol\":4143:4159  proposals.length */\n      dup1\n      sload\n      swap1\n      pop\n        /* \"contracts/Voting.sol\":4133:4140  _choice */\n      dup2\n        /* \"contracts/Voting.sol\":4133:4159  _choice < proposals.length */\n      lt\n        /* \"contracts/Voting.sol\":4125:4186  require(_choice < proposals.length,\"Invalid proposal choice\") */\n      tag_142\n      jumpi\n      mload(0x40)\n      0x08c379a000000000000000000000000000000000000000000000000000000000\n      dup2\n      mstore\n      0x04\n      add\n      tag_143\n      swap1\n      tag_144\n      jump\t// in\n    tag_143:\n      mload(0x40)\n      dup1\n      swap2\n      sub\n      swap1\n      revert\n    tag_142:\n        /* \"contracts/Voting.sol\":4225:4229  true */\n      0x01\n        /* \"contracts/Voting.sol\":4197:4203  voters */\n      0x02\n        /* \"contracts/Voting.sol\":4197:4215  voters[msg.sender] */\n      0x00\n        /* \"contracts/Voting.sol\":4204:4214  msg.sender */\n      caller\n        /* \"contracts/Voting.sol\":4197:4215  voters[msg.sender] */\n      0xffffffffffffffffffffffffffffffffffffffff\n      and\n      0xffffffffffffffffffffffffffffffffffffffff\n      and\n      dup2\n      mstore\n      0x20\n      add\n      swap1\n      dup2\n      mstore\n      0x20\n      add\n      0x00\n      keccak256\n        /* \"contracts/Voting.sol\":4197:4224  voters[msg.sender].hasVoted */\n      0x00\n      add\n      0x01\n        /* \"contracts/Voting.sol\":4197:4229  voters[msg.sender].hasVoted=true */\n      0x0100\n      exp\n      dup2\n      sload\n      dup2\n      0xff\n      mul\n      not\n      and\n      swap1\n      dup4\n      iszero\n      iszero\n      mul\n      or\n      swap1\n      sstore\n      pop\n        /* \"contracts/Voting.sol\":4274:4281  _choice */\n      dup1\n        /* \"contracts/Voting.sol\":4239:4245  voters */\n      0x02\n        /* \"contracts/Voting.sol\":4239:4257  voters[msg.sender] */\n      0x00\n        /* \"contracts/Voting.sol\":4246:4256  msg.sender */\n      caller\n        /* \"contracts/Voting.sol\":4239:4257  voters[msg.sender] */\n      0xffffffffffffffffffffffffffffffffffffffff\n      and\n      0xffffffffffffffffffffffffffffffffffffffff\n      and\n      dup2\n      mstore\n      0x20\n      add\n      swap1\n      dup2\n      mstore\n      0x20\n      add\n      0x00\n      keccak256\n        /* \"contracts/Voting.sol\":4239:4273  voters[msg.sender].votedProposalId */\n      0x01\n      add\n        /* \"contracts/Voting.sol\":4239:4281  voters[msg.sender].votedProposalId=_choice */\n      dup2\n      swap1\n      sstore\n      pop\n        /* \"contracts/Voting.sol\":4291:4300  proposals */\n      0x03\n        /* \"contracts/Voting.sol\":4301:4308  _choice */\n      dup2\n        /* \"contracts/Voting.sol\":4291:4309  proposals[_choice] */\n      dup2\n      sload\n      dup2\n      lt\n      tag_145\n      jumpi\n      tag_146\n      tag_147\n      jump\t// in\n    tag_146:\n    tag_145:\n      swap1\n      0x00\n      mstore\n      keccak256(0x00, 0x20)\n      swap1\n      0x02\n      mul\n      add\n        /* \"contracts/Voting.sol\":4291:4319  proposals[_choice].voteCount */\n      0x01\n      add\n      0x00\n        /* \"contracts/Voting.sol\":4291:4321  proposals[_choice].voteCount++ */\n      dup2\n      sload\n      dup1\n      swap3\n      swap2\n      swap1\n      tag_149\n      swap1\n      tag_123\n      jump\t// in\n    tag_149:\n      swap2\n      swap1\n      pop\n      sstore\n      pop\n        /* \"contracts/Voting.sol\":4337:4362  Voted(msg.sender,_choice) */\n      0x4d99b957a2bc29a30ebd96a7be8e68fe50a3c701db28a91436490b7d53870ca4\n        /* \"contracts/Voting.sol\":4343:4353  msg.sender */\n      caller\n        /* \"contracts/Voting.sol\":4354:4361  _choice */\n      dup3\n        /* \"contracts/Voting.sol\":4337:4362  Voted(msg.sender,_choice) */\n      mload(0x40)\n      tag_150\n      swap3\n      swap2\n      swap1\n      tag_151\n      jump\t// in\n    tag_150:\n      mload(0x40)\n      dup1\n      swap2\n      sub\n      swap1\n      log1\n        /* \"contracts/Voting.sol\":3634:4377  function Vote(uint _choice ) external {... */\n      pop\n      jump\t// out\n        /* \"contracts/Voting.sol\":2787:3418  function _addProposal (string memory _description) external {... */\n    tag_51:\n        /* \"contracts/Voting.sol\":2874:2917  WorkflowStatus.ProposalsRegistrationStarted */\n      0x01\n        /* \"contracts/Voting.sol\":2865:2917  state == WorkflowStatus.ProposalsRegistrationStarted */\n      0x05\n      dup2\n      gt\n      iszero\n      tag_153\n      jumpi\n      tag_154\n      tag_78\n      jump\t// in\n    tag_154:\n    tag_153:\n        /* \"contracts/Voting.sol\":2865:2870  state */\n      0x00\n      0x14\n      swap1\n      sload\n      swap1\n      0x0100\n      exp\n      swap1\n      div\n      0xff\n      and\n        /* \"contracts/Voting.sol\":2865:2917  state == WorkflowStatus.ProposalsRegistrationStarted */\n      0x05\n      dup2\n      gt\n      iszero\n      tag_155\n      jumpi\n      tag_156\n      tag_78\n      jump\t// in\n    tag_156:\n    tag_155:\n      eq\n        /* \"contracts/Voting.sol\":2857:2980  require(state == WorkflowStatus.ProposalsRegistrationStarted,\"Proposal can be addes only in Proposal Registration phase:1\") */\n      tag_157\n      jumpi\n      mload(0x40)\n      0x08c379a000000000000000000000000000000000000000000000000000000000\n      dup2\n      mstore\n      0x04\n      add\n      tag_158\n      swap1\n      tag_159\n      jump\t// in\n    tag_158:\n      mload(0x40)\n      dup1\n      swap2\n      sub\n      swap1\n      revert\n    tag_157:\n        /* \"contracts/Voting.sol\":3086:3087  0 */\n      0x00\n        /* \"contracts/Voting.sol\":3071:3085  whitelistCount */\n      sload(0x04)\n        /* \"contracts/Voting.sol\":3071:3087  whitelistCount>0 */\n      gt\n        /* \"contracts/Voting.sol\":3063:3134  require(whitelistCount>0,\"Whitelist must contain at least one address\") */\n      tag_160\n      jumpi\n      mload(0x40)\n      0x08c379a000000000000000000000000000000000000000000000000000000000\n      dup2\n      mstore\n      0x04\n      add\n      tag_161\n      swap1\n      tag_162\n      jump\t// in\n    tag_161:\n      mload(0x40)\n      dup1\n      swap2\n      sub\n      swap1\n      revert\n    tag_160:\n        /* \"contracts/Voting.sol\":3152:3161  whitelist */\n      0x01\n        /* \"contracts/Voting.sol\":3152:3173  whitelist[msg.sender] */\n      0x00\n        /* \"contracts/Voting.sol\":3162:3172  msg.sender */\n      caller\n        /* \"contracts/Voting.sol\":3152:3173  whitelist[msg.sender] */\n      0xffffffffffffffffffffffffffffffffffffffff\n      and\n      0xffffffffffffffffffffffffffffffffffffffff\n      and\n      dup2\n      mstore\n      0x20\n      add\n      swap1\n      dup2\n      mstore\n      0x20\n      add\n      0x00\n      keccak256\n      0x00\n      swap1\n      sload\n      swap1\n      0x0100\n      exp\n      swap1\n      div\n      0xff\n      and\n        /* \"contracts/Voting.sol\":3144:3207  require(whitelist[msg.sender],\"Your adress is not whitelisted\") */\n      tag_163\n      jumpi\n      mload(0x40)\n      0x08c379a000000000000000000000000000000000000000000000000000000000\n      dup2\n      mstore\n      0x04\n      add\n      tag_164\n      swap1\n      tag_165\n      jump\t// in\n    tag_164:\n      mload(0x40)\n      dup1\n      swap2\n      sub\n      swap1\n      revert\n    tag_163:\n        /* \"contracts/Voting.sol\":3218:3227  proposals */\n      0x03\n        /* \"contracts/Voting.sol\":3233:3318  Proposal({... */\n      mload(0x40)\n      dup1\n      0x40\n      add\n      0x40\n      mstore\n      dup1\n        /* \"contracts/Voting.sol\":3269:3281  _description */\n      dup4\n        /* \"contracts/Voting.sol\":3233:3318  Proposal({... */\n      dup2\n      mstore\n      0x20\n      add\n        /* \"contracts/Voting.sol\":3305:3306  0 */\n      0x00\n        /* \"contracts/Voting.sol\":3233:3318  Proposal({... */\n      dup2\n      mstore\n      pop\n        /* \"contracts/Voting.sol\":3218:3319  proposals.push(Proposal({... */\n      swap1\n      dup1\n      0x01\n      dup2\n      sload\n      add\n      dup1\n      dup3\n      sstore\n      dup1\n      swap2\n      pop\n      pop\n      0x01\n      swap1\n      sub\n      swap1\n      0x00\n      mstore\n      keccak256(0x00, 0x20)\n      swap1\n      0x02\n      mul\n      add\n      0x00\n      swap1\n      swap2\n      swap1\n      swap2\n      swap1\n      swap2\n      pop\n      0x00\n      dup3\n      add\n      mload\n      dup2\n      0x00\n      add\n      swap1\n      dup2\n      tag_167\n      swap2\n      swap1\n      tag_168\n      jump\t// in\n    tag_167:\n      pop\n      0x20\n      dup3\n      add\n      mload\n      dup2\n      0x01\n      add\n      sstore\n      pop\n      pop\n        /* \"contracts/Voting.sol\":3329:3344  uint proposalId */\n      0x00\n        /* \"contracts/Voting.sol\":3364:3365  1 */\n      0x01\n        /* \"contracts/Voting.sol\":3347:3356  proposals */\n      0x03\n        /* \"contracts/Voting.sol\":3347:3363  proposals.length */\n      dup1\n      sload\n      swap1\n      pop\n        /* \"contracts/Voting.sol\":3347:3365  proposals.length-1 */\n      tag_169\n      swap2\n      swap1\n      tag_170\n      jump\t// in\n    tag_169:\n        /* \"contracts/Voting.sol\":3329:3365  uint proposalId = proposals.length-1 */\n      swap1\n      pop\n        /* \"contracts/Voting.sol\":3380:3410  ProposalRegistered(proposalId) */\n      0x92e393e9b54e2f801d3ea4beb0c5e71a21cc34a5d34b77d0fb8a3aa1650dc18f\n        /* \"contracts/Voting.sol\":3399:3409  proposalId */\n      dup2\n        /* \"contracts/Voting.sol\":3380:3410  ProposalRegistered(proposalId) */\n      mload(0x40)\n      tag_171\n      swap2\n      swap1\n      tag_40\n      jump\t// in\n    tag_171:\n      mload(0x40)\n      dup1\n      swap2\n      sub\n      swap1\n      log1\n        /* \"contracts/Voting.sol\":2847:3418  {... */\n      pop\n        /* \"contracts/Voting.sol\":2787:3418  function _addProposal (string memory _description) external {... */\n      pop\n      jump\t// out\n        /* \"https://github.com/OpenZeppelin/openzeppelin-contracts/blob/master/contracts/access/Ownable.sol\":2543:2758  function transferOwnership(address newOwner) public virtual onlyOwner {... */\n    tag_54:\n        /* \"https://github.com/OpenZeppelin/openzeppelin-contracts/blob/master/contracts/access/Ownable.sol\":1531:1544  _checkOwner() */\n      tag_173\n        /* \"https://github.com/OpenZeppelin/openzeppelin-contracts/blob/master/contracts/access/Ownable.sol\":1531:1542  _checkOwner */\n      tag_74\n        /* \"https://github.com/OpenZeppelin/openzeppelin-contracts/blob/master/contracts/access/Ownable.sol\":1531:1544  _checkOwner() */\n      jump\t// in\n    tag_173:\n        /* \"https://github.com/OpenZeppelin/openzeppelin-contracts/blob/master/contracts/access/Ownable.sol\":2647:2648  0 */\n      0x00\n        /* \"https://github.com/OpenZeppelin/openzeppelin-contracts/blob/master/contracts/access/Ownable.sol\":2627:2649  newOwner == address(0) */\n      0xffffffffffffffffffffffffffffffffffffffff\n      and\n        /* \"https://github.com/OpenZeppelin/openzeppelin-contracts/blob/master/contracts/access/Ownable.sol\":2627:2635  newOwner */\n      dup2\n        /* \"https://github.com/OpenZeppelin/openzeppelin-contracts/blob/master/contracts/access/Ownable.sol\":2627:2649  newOwner == address(0) */\n      0xffffffffffffffffffffffffffffffffffffffff\n      and\n      sub\n        /* \"https://github.com/OpenZeppelin/openzeppelin-contracts/blob/master/contracts/access/Ownable.sol\":2623:2714  if (newOwner == address(0)) {... */\n      tag_175\n      jumpi\n        /* \"https://github.com/OpenZeppelin/openzeppelin-contracts/blob/master/contracts/access/Ownable.sol\":2700:2701  0 */\n      0x00\n        /* \"https://github.com/OpenZeppelin/openzeppelin-contracts/blob/master/contracts/access/Ownable.sol\":2672:2703  OwnableInvalidOwner(address(0)) */\n      mload(0x40)\n      0x1e4fbdf700000000000000000000000000000000000000000000000000000000\n      dup2\n      mstore\n      0x04\n      add\n      tag_176\n      swap2\n      swap1\n      tag_32\n      jump\t// in\n    tag_176:\n      mload(0x40)\n      dup1\n      swap2\n      sub\n      swap1\n      revert\n        /* \"https://github.com/OpenZeppelin/openzeppelin-contracts/blob/master/contracts/access/Ownable.sol\":2623:2714  if (newOwner == address(0)) {... */\n    tag_175:\n        /* \"https://github.com/OpenZeppelin/openzeppelin-contracts/blob/master/contracts/access/Ownable.sol\":2723:2751  _transferOwnership(newOwner) */\n      tag_177\n        /* \"https://github.com/OpenZeppelin/openzeppelin-contracts/blob/master/contracts/access/Ownable.sol\":2742:2750  newOwner */\n      dup2\n        /* \"https://github.com/OpenZeppelin/openzeppelin-contracts/blob/master/contracts/access/Ownable.sol\":2723:2741  _transferOwnership */\n      tag_99\n        /* \"https://github.com/OpenZeppelin/openzeppelin-contracts/blob/master/contracts/access/Ownable.sol\":2723:2751  _transferOwnership(newOwner) */\n      jump\t// in\n    tag_177:\n        /* \"https://github.com/OpenZeppelin/openzeppelin-contracts/blob/master/contracts/access/Ownable.sol\":2543:2758  function transferOwnership(address newOwner) public virtual onlyOwner {... */\n      pop\n      jump\t// out\n        /* \"https://github.com/OpenZeppelin/openzeppelin-contracts/blob/master/contracts/access/Ownable.sol\":1796:1958  function _checkOwner() internal view virtual {... */\n    tag_74:\n        /* \"https://github.com/OpenZeppelin/openzeppelin-contracts/blob/master/contracts/access/Ownable.sol\":1866:1878  _msgSender() */\n      tag_179\n        /* \"https://github.com/OpenZeppelin/openzeppelin-contracts/blob/master/contracts/access/Ownable.sol\":1866:1876  _msgSender */\n      tag_180\n        /* \"https://github.com/OpenZeppelin/openzeppelin-contracts/blob/master/contracts/access/Ownable.sol\":1866:1878  _msgSender() */\n      jump\t// in\n    tag_179:\n        /* \"https://github.com/OpenZeppelin/openzeppelin-contracts/blob/master/contracts/access/Ownable.sol\":1855:1878  owner() != _msgSender() */\n      0xffffffffffffffffffffffffffffffffffffffff\n      and\n        /* \"https://github.com/OpenZeppelin/openzeppelin-contracts/blob/master/contracts/access/Ownable.sol\":1855:1862  owner() */\n      tag_181\n        /* \"https://github.com/OpenZeppelin/openzeppelin-contracts/blob/master/contracts/access/Ownable.sol\":1855:1860  owner */\n      tag_30\n        /* \"https://github.com/OpenZeppelin/openzeppelin-contracts/blob/master/contracts/access/Ownable.sol\":1855:1862  owner() */\n      jump\t// in\n    tag_181:\n        /* \"https://github.com/OpenZeppelin/openzeppelin-contracts/blob/master/contracts/access/Ownable.sol\":1855:1878  owner() != _msgSender() */\n      0xffffffffffffffffffffffffffffffffffffffff\n      and\n      eq\n        /* \"https://github.com/OpenZeppelin/openzeppelin-contracts/blob/master/contracts/access/Ownable.sol\":1851:1952  if (owner() != _msgSender()) {... */\n      tag_182\n      jumpi\n        /* \"https://github.com/OpenZeppelin/openzeppelin-contracts/blob/master/contracts/access/Ownable.sol\":1928:1940  _msgSender() */\n      tag_183\n        /* \"https://github.com/OpenZeppelin/openzeppelin-contracts/blob/master/contracts/access/Ownable.sol\":1928:1938  _msgSender */\n      tag_180\n        /* \"https://github.com/OpenZeppelin/openzeppelin-contracts/blob/master/contracts/access/Ownable.sol\":1928:1940  _msgSender() */\n      jump\t// in\n    tag_183:\n        /* \"https://github.com/OpenZeppelin/openzeppelin-contracts/blob/master/contracts/access/Ownable.sol\":1901:1941  OwnableUnauthorizedAccount(_msgSender()) */\n      mload(0x40)\n      0x118cdaa700000000000000000000000000000000000000000000000000000000\n      dup2\n      mstore\n      0x04\n      add\n      tag_184\n      swap2\n      swap1\n      tag_32\n      jump\t// in\n    tag_184:\n      mload(0x40)\n      dup1\n      swap2\n      sub\n      swap1\n      revert\n        /* \"https://github.com/OpenZeppelin/openzeppelin-contracts/blob/master/contracts/access/Ownable.sol\":1851:1952  if (owner() != _msgSender()) {... */\n    tag_182:\n        /* \"https://github.com/OpenZeppelin/openzeppelin-contracts/blob/master/contracts/access/Ownable.sol\":1796:1958  function _checkOwner() internal view virtual {... */\n      jump\t// out\n        /* \"https://github.com/OpenZeppelin/openzeppelin-contracts/blob/master/contracts/access/Ownable.sol\":2912:3099  function _transferOwnership(address newOwner) internal virtual {... */\n    tag_99:\n        /* \"https://github.com/OpenZeppelin/openzeppelin-contracts/blob/master/contracts/access/Ownable.sol\":2985:3001  address oldOwner */\n      0x00\n        /* \"https://github.com/OpenZeppelin/openzeppelin-contracts/blob/master/contracts/access/Ownable.sol\":3004:3010  _owner */\n      0x00\n      0x00\n      swap1\n      sload\n      swap1\n      0x0100\n      exp\n      swap1\n      div\n      0xffffffffffffffffffffffffffffffffffffffff\n      and\n        /* \"https://github.com/OpenZeppelin/openzeppelin-contracts/blob/master/contracts/access/Ownable.sol\":2985:3010  address oldOwner = _owner */\n      swap1\n      pop\n        /* \"https://github.com/OpenZeppelin/openzeppelin-contracts/blob/master/contracts/access/Ownable.sol\":3029:3037  newOwner */\n      dup2\n        /* \"https://github.com/OpenZeppelin/openzeppelin-contracts/blob/master/contracts/access/Ownable.sol\":3020:3026  _owner */\n      0x00\n      0x00\n        /* \"https://github.com/OpenZeppelin/openzeppelin-contracts/blob/master/contracts/access/Ownable.sol\":3020:3037  _owner = newOwner */\n      0x0100\n      exp\n      dup2\n      sload\n      dup2\n      0xffffffffffffffffffffffffffffffffffffffff\n      mul\n      not\n      and\n      swap1\n      dup4\n      0xffffffffffffffffffffffffffffffffffffffff\n      and\n      mul\n      or\n      swap1\n      sstore\n      pop\n        /* \"https://github.com/OpenZeppelin/openzeppelin-contracts/blob/master/contracts/access/Ownable.sol\":3083:3091  newOwner */\n      dup2\n        /* \"https://github.com/OpenZeppelin/openzeppelin-contracts/blob/master/contracts/access/Ownable.sol\":3052:3092  OwnershipTransferred(oldOwner, newOwner) */\n      0xffffffffffffffffffffffffffffffffffffffff\n      and\n        /* \"https://github.com/OpenZeppelin/openzeppelin-contracts/blob/master/contracts/access/Ownable.sol\":3073:3081  oldOwner */\n      dup2\n        /* \"https://github.com/OpenZeppelin/openzeppelin-contracts/blob/master/contracts/access/Ownable.sol\":3052:3092  OwnershipTransferred(oldOwner, newOwner) */\n      0xffffffffffffffffffffffffffffffffffffffff\n      and\n      0x8be0079c531659141344cd1fd0a4f28419497f9722a3daafe3b4186f6b6457e0\n      mload(0x40)\n      mload(0x40)\n      dup1\n      swap2\n      sub\n      swap1\n      log3\n        /* \"https://github.com/OpenZeppelin/openzeppelin-contracts/blob/master/contracts/access/Ownable.sol\":2975:3099  {... */\n      pop\n        /* \"https://github.com/OpenZeppelin/openzeppelin-contracts/blob/master/contracts/access/Ownable.sol\":2912:3099  function _transferOwnership(address newOwner) internal virtual {... */\n      pop\n      jump\t// out\n        /* \"https://github.com/OpenZeppelin/openzeppelin-contracts/blob/master/contracts/utils/Context.sol\":656:752  function _msgSender() internal view virtual returns (address) {... */\n    tag_180:\n        /* \"https://github.com/OpenZeppelin/openzeppelin-contracts/blob/master/contracts/utils/Context.sol\":709:716  address */\n      0x00\n        /* \"https://github.com/OpenZeppelin/openzeppelin-contracts/blob/master/contracts/utils/Context.sol\":735:745  msg.sender */\n      caller\n        /* \"https://github.com/OpenZeppelin/openzeppelin-contracts/blob/master/contracts/utils/Context.sol\":728:745  return msg.sender */\n      swap1\n      pop\n        /* \"https://github.com/OpenZeppelin/openzeppelin-contracts/blob/master/contracts/utils/Context.sol\":656:752  function _msgSender() internal view virtual returns (address) {... */\n      swap1\n      jump\t// out\n        /* \"#utility.yul\":7:82   */\n    tag_187:\n        /* \"#utility.yul\":40:46   */\n      0x00\n        /* \"#utility.yul\":73:75   */\n      0x40\n        /* \"#utility.yul\":67:76   */\n      mload\n        /* \"#utility.yul\":57:76   */\n      swap1\n      pop\n        /* \"#utility.yul\":7:82   */\n      swap1\n      jump\t// out\n        /* \"#utility.yul\":88:205   */\n    tag_188:\n        /* \"#utility.yul\":197:198   */\n      0x00\n        /* \"#utility.yul\":194:195   */\n      0x00\n        /* \"#utility.yul\":187:199   */\n      revert\n        /* \"#utility.yul\":211:328   */\n    tag_189:\n        /* \"#utility.yul\":320:321   */\n      0x00\n        /* \"#utility.yul\":317:318   */\n      0x00\n        /* \"#utility.yul\":310:322   */\n      revert\n        /* \"#utility.yul\":334:411   */\n    tag_190:\n        /* \"#utility.yul\":371:378   */\n      0x00\n        /* \"#utility.yul\":400:405   */\n      dup2\n        /* \"#utility.yul\":389:405   */\n      swap1\n      pop\n        /* \"#utility.yul\":334:411   */\n      swap2\n      swap1\n      pop\n      jump\t// out\n        /* \"#utility.yul\":417:539   */\n    tag_191:\n        /* \"#utility.yul\":490:514   */\n      tag_270\n        /* \"#utility.yul\":508:513   */\n      dup2\n        /* \"#utility.yul\":490:514   */\n      tag_190\n      jump\t// in\n    tag_270:\n        /* \"#utility.yul\":483:488   */\n      dup2\n        /* \"#utility.yul\":480:515   */\n      eq\n        /* \"#utility.yul\":470:533   */\n      tag_271\n      jumpi\n        /* \"#utility.yul\":529:530   */\n      0x00\n        /* \"#utility.yul\":526:527   */\n      0x00\n        /* \"#utility.yul\":519:531   */\n      revert\n        /* \"#utility.yul\":470:533   */\n    tag_271:\n        /* \"#utility.yul\":417:539   */\n      pop\n      jump\t// out\n        /* \"#utility.yul\":545:684   */\n    tag_192:\n        /* \"#utility.yul\":591:596   */\n      0x00\n        /* \"#utility.yul\":629:635   */\n      dup2\n        /* \"#utility.yul\":616:636   */\n      calldataload\n        /* \"#utility.yul\":607:636   */\n      swap1\n      pop\n        /* \"#utility.yul\":645:678   */\n      tag_273\n        /* \"#utility.yul\":672:677   */\n      dup2\n        /* \"#utility.yul\":645:678   */\n      tag_191\n      jump\t// in\n    tag_273:\n        /* \"#utility.yul\":545:684   */\n      swap3\n      swap2\n      pop\n      pop\n      jump\t// out\n        /* \"#utility.yul\":690:1019   */\n    tag_17:\n        /* \"#utility.yul\":749:755   */\n      0x00\n        /* \"#utility.yul\":798:800   */\n      0x20\n        /* \"#utility.yul\":786:795   */\n      dup3\n        /* \"#utility.yul\":777:784   */\n      dup5\n        /* \"#utility.yul\":773:796   */\n      sub\n        /* \"#utility.yul\":769:801   */\n      slt\n        /* \"#utility.yul\":766:885   */\n      iszero\n      tag_275\n      jumpi\n        /* \"#utility.yul\":804:883   */\n      tag_276\n      tag_188\n      jump\t// in\n    tag_276:\n        /* \"#utility.yul\":766:885   */\n    tag_275:\n        /* \"#utility.yul\":924:925   */\n      0x00\n        /* \"#utility.yul\":949:1002   */\n      tag_277\n        /* \"#utility.yul\":994:1001   */\n      dup5\n        /* \"#utility.yul\":985:991   */\n      dup3\n        /* \"#utility.yul\":974:983   */\n      dup6\n        /* \"#utility.yul\":970:992   */\n      add\n        /* \"#utility.yul\":949:1002   */\n      tag_192\n      jump\t// in\n    tag_277:\n        /* \"#utility.yul\":939:1002   */\n      swap2\n      pop\n        /* \"#utility.yul\":895:1012   */\n      pop\n        /* \"#utility.yul\":690:1019   */\n      swap3\n      swap2\n      pop\n      pop\n      jump\t// out\n        /* \"#utility.yul\":1025:1124   */\n    tag_193:\n        /* \"#utility.yul\":1077:1083   */\n      0x00\n        /* \"#utility.yul\":1111:1116   */\n      dup2\n        /* \"#utility.yul\":1105:1117   */\n      mload\n        /* \"#utility.yul\":1095:1117   */\n      swap1\n      pop\n        /* \"#utility.yul\":1025:1124   */\n      swap2\n      swap1\n      pop\n      jump\t// out\n        /* \"#utility.yul\":1130:1299   */\n    tag_194:\n        /* \"#utility.yul\":1214:1225   */\n      0x00\n        /* \"#utility.yul\":1248:1254   */\n      dup3\n        /* \"#utility.yul\":1243:1246   */\n      dup3\n        /* \"#utility.yul\":1236:1255   */\n      mstore\n        /* \"#utility.yul\":1288:1292   */\n      0x20\n        /* \"#utility.yul\":1283:1286   */\n      dup3\n        /* \"#utility.yul\":1279:1293   */\n      add\n        /* \"#utility.yul\":1264:1293   */\n      swap1\n      pop\n        /* \"#utility.yul\":1130:1299   */\n      swap3\n      swap2\n      pop\n      pop\n      jump\t// out\n        /* \"#utility.yul\":1305:1444   */\n    tag_195:\n        /* \"#utility.yul\":1394:1400   */\n      dup3\n        /* \"#utility.yul\":1389:1392   */\n      dup2\n        /* \"#utility.yul\":1384:1387   */\n      dup4\n        /* \"#utility.yul\":1378:1401   */\n      mcopy\n        /* \"#utility.yul\":1435:1436   */\n      0x00\n        /* \"#utility.yul\":1426:1432   */\n      dup4\n        /* \"#utility.yul\":1421:1424   */\n      dup4\n        /* \"#utility.yul\":1417:1433   */\n      add\n        /* \"#utility.yul\":1410:1437   */\n      mstore\n        /* \"#utility.yul\":1305:1444   */\n      pop\n      pop\n      pop\n      jump\t// out\n        /* \"#utility.yul\":1450:1552   */\n    tag_196:\n        /* \"#utility.yul\":1491:1497   */\n      0x00\n        /* \"#utility.yul\":1542:1544   */\n      0x1f\n        /* \"#utility.yul\":1538:1545   */\n      not\n        /* \"#utility.yul\":1533:1535   */\n      0x1f\n        /* \"#utility.yul\":1526:1531   */\n      dup4\n        /* \"#utility.yul\":1522:1536   */\n      add\n        /* \"#utility.yul\":1518:1546   */\n      and\n        /* \"#utility.yul\":1508:1546   */\n      swap1\n      pop\n        /* \"#utility.yul\":1450:1552   */\n      swap2\n      swap1\n      pop\n      jump\t// out\n        /* \"#utility.yul\":1558:1935   */\n    tag_197:\n        /* \"#utility.yul\":1646:1649   */\n      0x00\n        /* \"#utility.yul\":1674:1713   */\n      tag_283\n        /* \"#utility.yul\":1707:1712   */\n      dup3\n        /* \"#utility.yul\":1674:1713   */\n      tag_193\n      jump\t// in\n    tag_283:\n        /* \"#utility.yul\":1729:1800   */\n      tag_284\n        /* \"#utility.yul\":1793:1799   */\n      dup2\n        /* \"#utility.yul\":1788:1791   */\n      dup6\n        /* \"#utility.yul\":1729:1800   */\n      tag_194\n      jump\t// in\n    tag_284:\n        /* \"#utility.yul\":1722:1800   */\n      swap4\n      pop\n        /* \"#utility.yul\":1809:1874   */\n      tag_285\n        /* \"#utility.yul\":1867:1873   */\n      dup2\n        /* \"#utility.yul\":1862:1865   */\n      dup6\n        /* \"#utility.yul\":1855:1859   */\n      0x20\n        /* \"#utility.yul\":1848:1853   */\n      dup7\n        /* \"#utility.yul\":1844:1860   */\n      add\n        /* \"#utility.yul\":1809:1874   */\n      tag_195\n      jump\t// in\n    tag_285:\n        /* \"#utility.yul\":1899:1928   */\n      tag_286\n        /* \"#utility.yul\":1921:1927   */\n      dup2\n        /* \"#utility.yul\":1899:1928   */\n      tag_196\n      jump\t// in\n    tag_286:\n        /* \"#utility.yul\":1894:1897   */\n      dup5\n        /* \"#utility.yul\":1890:1929   */\n      add\n        /* \"#utility.yul\":1883:1929   */\n      swap2\n      pop\n        /* \"#utility.yul\":1650:1935   */\n      pop\n        /* \"#utility.yul\":1558:1935   */\n      swap3\n      swap2\n      pop\n      pop\n      jump\t// out\n        /* \"#utility.yul\":1941:2059   */\n    tag_198:\n        /* \"#utility.yul\":2028:2052   */\n      tag_288\n        /* \"#utility.yul\":2046:2051   */\n      dup2\n        /* \"#utility.yul\":2028:2052   */\n      tag_190\n      jump\t// in\n    tag_288:\n        /* \"#utility.yul\":2023:2026   */\n      dup3\n        /* \"#utility.yul\":2016:2053   */\n      mstore\n        /* \"#utility.yul\":1941:2059   */\n      pop\n      pop\n      jump\t// out\n        /* \"#utility.yul\":2065:2488   */\n    tag_20:\n        /* \"#utility.yul\":2206:2210   */\n      0x00\n        /* \"#utility.yul\":2244:2246   */\n      0x40\n        /* \"#utility.yul\":2233:2242   */\n      dup3\n        /* \"#utility.yul\":2229:2247   */\n      add\n        /* \"#utility.yul\":2221:2247   */\n      swap1\n      pop\n        /* \"#utility.yul\":2293:2302   */\n      dup2\n        /* \"#utility.yul\":2287:2291   */\n      dup2\n        /* \"#utility.yul\":2283:2303   */\n      sub\n        /* \"#utility.yul\":2279:2280   */\n      0x00\n        /* \"#utility.yul\":2268:2277   */\n      dup4\n        /* \"#utility.yul\":2264:2281   */\n      add\n        /* \"#utility.yul\":2257:2304   */\n      mstore\n        /* \"#utility.yul\":2321:2399   */\n      tag_290\n        /* \"#utility.yul\":2394:2398   */\n      dup2\n        /* \"#utility.yul\":2385:2391   */\n      dup6\n        /* \"#utility.yul\":2321:2399   */\n      tag_197\n      jump\t// in\n    tag_290:\n        /* \"#utility.yul\":2313:2399   */\n      swap1\n      pop\n        /* \"#utility.yul\":2409:2481   */\n      tag_291\n        /* \"#utility.yul\":2477:2479   */\n      0x20\n        /* \"#utility.yul\":2466:2475   */\n      dup4\n        /* \"#utility.yul\":2462:2480   */\n      add\n        /* \"#utility.yul\":2453:2459   */\n      dup5\n        /* \"#utility.yul\":2409:2481   */\n      tag_198\n      jump\t// in\n    tag_291:\n        /* \"#utility.yul\":2065:2488   */\n      swap4\n      swap3\n      pop\n      pop\n      pop\n      jump\t// out\n        /* \"#utility.yul\":2494:2632   */\n    tag_199:\n        /* \"#utility.yul\":2585:2591   */\n      0x00\n        /* \"#utility.yul\":2619:2624   */\n      dup2\n        /* \"#utility.yul\":2613:2625   */\n      mload\n        /* \"#utility.yul\":2603:2625   */\n      swap1\n      pop\n        /* \"#utility.yul\":2494:2632   */\n      swap2\n      swap1\n      pop\n      jump\t// out\n        /* \"#utility.yul\":2638:2846   */\n    tag_200:\n        /* \"#utility.yul\":2761:2772   */\n      0x00\n        /* \"#utility.yul\":2795:2801   */\n      dup3\n        /* \"#utility.yul\":2790:2793   */\n      dup3\n        /* \"#utility.yul\":2783:2802   */\n      mstore\n        /* \"#utility.yul\":2835:2839   */\n      0x20\n        /* \"#utility.yul\":2830:2833   */\n      dup3\n        /* \"#utility.yul\":2826:2840   */\n      add\n        /* \"#utility.yul\":2811:2840   */\n      swap1\n      pop\n        /* \"#utility.yul\":2638:2846   */\n      swap3\n      swap2\n      pop\n      pop\n      jump\t// out\n        /* \"#utility.yul\":2852:3008   */\n    tag_201:\n        /* \"#utility.yul\":2943:2947   */\n      0x00\n        /* \"#utility.yul\":2966:2969   */\n      dup2\n        /* \"#utility.yul\":2958:2969   */\n      swap1\n      pop\n        /* \"#utility.yul\":2996:3000   */\n      0x20\n        /* \"#utility.yul\":2991:2994   */\n      dup3\n        /* \"#utility.yul\":2987:3001   */\n      add\n        /* \"#utility.yul\":2979:3001   */\n      swap1\n      pop\n        /* \"#utility.yul\":2852:3008   */\n      swap2\n      swap1\n      pop\n      jump\t// out\n        /* \"#utility.yul\":3014:3173   */\n    tag_202:\n        /* \"#utility.yul\":3088:3099   */\n      0x00\n        /* \"#utility.yul\":3122:3128   */\n      dup3\n        /* \"#utility.yul\":3117:3120   */\n      dup3\n        /* \"#utility.yul\":3110:3129   */\n      mstore\n        /* \"#utility.yul\":3162:3166   */\n      0x20\n        /* \"#utility.yul\":3157:3160   */\n      dup3\n        /* \"#utility.yul\":3153:3167   */\n      add\n        /* \"#utility.yul\":3138:3167   */\n      swap1\n      pop\n        /* \"#utility.yul\":3014:3173   */\n      swap3\n      swap2\n      pop\n      pop\n      jump\t// out\n        /* \"#utility.yul\":3179:3536   */\n    tag_203:\n        /* \"#utility.yul\":3257:3260   */\n      0x00\n        /* \"#utility.yul\":3285:3324   */\n      tag_297\n        /* \"#utility.yul\":3318:3323   */\n      dup3\n        /* \"#utility.yul\":3285:3324   */\n      tag_193\n      jump\t// in\n    tag_297:\n        /* \"#utility.yul\":3340:3401   */\n      tag_298\n        /* \"#utility.yul\":3394:3400   */\n      dup2\n        /* \"#utility.yul\":3389:3392   */\n      dup6\n        /* \"#utility.yul\":3340:3401   */\n      tag_202\n      jump\t// in\n    tag_298:\n        /* \"#utility.yul\":3333:3401   */\n      swap4\n      pop\n        /* \"#utility.yul\":3410:3475   */\n      tag_299\n        /* \"#utility.yul\":3468:3474   */\n      dup2\n        /* \"#utility.yul\":3463:3466   */\n      dup6\n        /* \"#utility.yul\":3456:3460   */\n      0x20\n        /* \"#utility.yul\":3449:3454   */\n      dup7\n        /* \"#utility.yul\":3445:3461   */\n      add\n        /* \"#utility.yul\":3410:3475   */\n      tag_195\n      jump\t// in\n    tag_299:\n        /* \"#utility.yul\":3500:3529   */\n      tag_300\n        /* \"#utility.yul\":3522:3528   */\n      dup2\n        /* \"#utility.yul\":3500:3529   */\n      tag_196\n      jump\t// in\n    tag_300:\n        /* \"#utility.yul\":3495:3498   */\n      dup5\n        /* \"#utility.yul\":3491:3530   */\n      add\n        /* \"#utility.yul\":3484:3530   */\n      swap2\n      pop\n        /* \"#utility.yul\":3261:3536   */\n      pop\n        /* \"#utility.yul\":3179:3536   */\n      swap3\n      swap2\n      pop\n      pop\n      jump\t// out\n        /* \"#utility.yul\":3542:3650   */\n    tag_204:\n        /* \"#utility.yul\":3619:3643   */\n      tag_302\n        /* \"#utility.yul\":3637:3642   */\n      dup2\n        /* \"#utility.yul\":3619:3643   */\n      tag_190\n      jump\t// in\n    tag_302:\n        /* \"#utility.yul\":3614:3617   */\n      dup3\n        /* \"#utility.yul\":3607:3644   */\n      mstore\n        /* \"#utility.yul\":3542:3650   */\n      pop\n      pop\n      jump\t// out\n        /* \"#utility.yul\":3712:4318   */\n    tag_205:\n        /* \"#utility.yul\":3819:3822   */\n      0x00\n        /* \"#utility.yul\":3855:3859   */\n      0x40\n        /* \"#utility.yul\":3850:3853   */\n      dup4\n        /* \"#utility.yul\":3846:3860   */\n      add\n        /* \"#utility.yul\":3949:3953   */\n      0x00\n        /* \"#utility.yul\":3942:3947   */\n      dup4\n        /* \"#utility.yul\":3938:3954   */\n      add\n        /* \"#utility.yul\":3932:3955   */\n      mload\n        /* \"#utility.yul\":4002:4005   */\n      dup5\n        /* \"#utility.yul\":3996:4000   */\n      dup3\n        /* \"#utility.yul\":3992:4006   */\n      sub\n        /* \"#utility.yul\":3985:3989   */\n      0x00\n        /* \"#utility.yul\":3980:3983   */\n      dup7\n        /* \"#utility.yul\":3976:3990   */\n      add\n        /* \"#utility.yul\":3969:4007   */\n      mstore\n        /* \"#utility.yul\":4028:4101   */\n      tag_304\n        /* \"#utility.yul\":4096:4100   */\n      dup3\n        /* \"#utility.yul\":4082:4094   */\n      dup3\n        /* \"#utility.yul\":4028:4101   */\n      tag_203\n      jump\t// in\n    tag_304:\n        /* \"#utility.yul\":4020:4101   */\n      swap2\n      pop\n        /* \"#utility.yul\":3870:4112   */\n      pop\n        /* \"#utility.yul\":4199:4203   */\n      0x20\n        /* \"#utility.yul\":4192:4197   */\n      dup4\n        /* \"#utility.yul\":4188:4204   */\n      add\n        /* \"#utility.yul\":4182:4205   */\n      mload\n        /* \"#utility.yul\":4218:4281   */\n      tag_305\n        /* \"#utility.yul\":4275:4279   */\n      0x20\n        /* \"#utility.yul\":4270:4273   */\n      dup7\n        /* \"#utility.yul\":4266:4280   */\n      add\n        /* \"#utility.yul\":4252:4264   */\n      dup3\n        /* \"#utility.yul\":4218:4281   */\n      tag_204\n      jump\t// in\n    tag_305:\n        /* \"#utility.yul\":4122:4291   */\n      pop\n        /* \"#utility.yul\":4308:4312   */\n      dup1\n        /* \"#utility.yul\":4301:4312   */\n      swap2\n      pop\n        /* \"#utility.yul\":3824:4318   */\n      pop\n        /* \"#utility.yul\":3712:4318   */\n      swap3\n      swap2\n      pop\n      pop\n      jump\t// out\n        /* \"#utility.yul\":4324:4576   */\n    tag_206:\n        /* \"#utility.yul\":4441:4451   */\n      0x00\n        /* \"#utility.yul\":4476:4570   */\n      tag_307\n        /* \"#utility.yul\":4566:4569   */\n      dup4\n        /* \"#utility.yul\":4558:4564   */\n      dup4\n        /* \"#utility.yul\":4476:4570   */\n      tag_205\n      jump\t// in\n    tag_307:\n        /* \"#utility.yul\":4462:4570   */\n      swap1\n      pop\n        /* \"#utility.yul\":4324:4576   */\n      swap3\n      swap2\n      pop\n      pop\n      jump\t// out\n        /* \"#utility.yul\":4582:4719   */\n    tag_207:\n        /* \"#utility.yul\":4676:4680   */\n      0x00\n        /* \"#utility.yul\":4708:4712   */\n      0x20\n        /* \"#utility.yul\":4703:4706   */\n      dup3\n        /* \"#utility.yul\":4699:4713   */\n      add\n        /* \"#utility.yul\":4691:4713   */\n      swap1\n      pop\n        /* \"#utility.yul\":4582:4719   */\n      swap2\n      swap1\n      pop\n      jump\t// out\n        /* \"#utility.yul\":4785:5888   */\n    tag_208:\n        /* \"#utility.yul\":4952:4955   */\n      0x00\n        /* \"#utility.yul\":4981:5059   */\n      tag_310\n        /* \"#utility.yul\":5053:5058   */\n      dup3\n        /* \"#utility.yul\":4981:5059   */\n      tag_199\n      jump\t// in\n    tag_310:\n        /* \"#utility.yul\":5075:5185   */\n      tag_311\n        /* \"#utility.yul\":5178:5184   */\n      dup2\n        /* \"#utility.yul\":5173:5176   */\n      dup6\n        /* \"#utility.yul\":5075:5185   */\n      tag_200\n      jump\t// in\n    tag_311:\n        /* \"#utility.yul\":5068:5185   */\n      swap4\n      pop\n        /* \"#utility.yul\":5211:5214   */\n      dup4\n        /* \"#utility.yul\":5256:5260   */\n      0x20\n        /* \"#utility.yul\":5248:5254   */\n      dup3\n        /* \"#utility.yul\":5244:5261   */\n      mul\n        /* \"#utility.yul\":5239:5242   */\n      dup6\n        /* \"#utility.yul\":5235:5262   */\n      add\n        /* \"#utility.yul\":5286:5366   */\n      tag_312\n        /* \"#utility.yul\":5360:5365   */\n      dup6\n        /* \"#utility.yul\":5286:5366   */\n      tag_201\n      jump\t// in\n    tag_312:\n        /* \"#utility.yul\":5389:5396   */\n      dup1\n        /* \"#utility.yul\":5420:5421   */\n      0x00\n        /* \"#utility.yul\":5405:5843   */\n    tag_313:\n        /* \"#utility.yul\":5430:5436   */\n      dup6\n        /* \"#utility.yul\":5427:5428   */\n      dup2\n        /* \"#utility.yul\":5424:5437   */\n      lt\n        /* \"#utility.yul\":5405:5843   */\n      iszero\n      tag_315\n      jumpi\n        /* \"#utility.yul\":5501:5510   */\n      dup5\n        /* \"#utility.yul\":5495:5499   */\n      dup5\n        /* \"#utility.yul\":5491:5511   */\n      sub\n        /* \"#utility.yul\":5486:5489   */\n      dup10\n        /* \"#utility.yul\":5479:5512   */\n      mstore\n        /* \"#utility.yul\":5552:5558   */\n      dup2\n        /* \"#utility.yul\":5546:5559   */\n      mload\n        /* \"#utility.yul\":5580:5692   */\n      tag_316\n        /* \"#utility.yul\":5687:5691   */\n      dup6\n        /* \"#utility.yul\":5672:5685   */\n      dup3\n        /* \"#utility.yul\":5580:5692   */\n      tag_206\n      jump\t// in\n    tag_316:\n        /* \"#utility.yul\":5572:5692   */\n      swap5\n      pop\n        /* \"#utility.yul\":5715:5799   */\n      tag_317\n        /* \"#utility.yul\":5792:5798   */\n      dup4\n        /* \"#utility.yul\":5715:5799   */\n      tag_207\n      jump\t// in\n    tag_317:\n        /* \"#utility.yul\":5705:5799   */\n      swap3\n      pop\n        /* \"#utility.yul\":5828:5832   */\n      0x20\n        /* \"#utility.yul\":5823:5826   */\n      dup11\n        /* \"#utility.yul\":5819:5833   */\n      add\n        /* \"#utility.yul\":5812:5833   */\n      swap10\n      pop\n        /* \"#utility.yul\":5465:5843   */\n      pop\n        /* \"#utility.yul\":5452:5453   */\n      0x01\n        /* \"#utility.yul\":5449:5450   */\n      dup2\n        /* \"#utility.yul\":5445:5454   */\n      add\n        /* \"#utility.yul\":5440:5454   */\n      swap1\n      pop\n        /* \"#utility.yul\":5405:5843   */\n      jump(tag_313)\n    tag_315:\n        /* \"#utility.yul\":5409:5423   */\n      pop\n        /* \"#utility.yul\":5859:5863   */\n      dup3\n        /* \"#utility.yul\":5852:5863   */\n      swap8\n      pop\n        /* \"#utility.yul\":5879:5882   */\n      dup8\n        /* \"#utility.yul\":5872:5882   */\n      swap6\n      pop\n        /* \"#utility.yul\":4957:5888   */\n      pop\n      pop\n      pop\n      pop\n      pop\n        /* \"#utility.yul\":4785:5888   */\n      swap3\n      swap2\n      pop\n      pop\n      jump\t// out\n        /* \"#utility.yul\":5894:6363   */\n    tag_24:\n        /* \"#utility.yul\":6085:6089   */\n      0x00\n        /* \"#utility.yul\":6123:6125   */\n      0x20\n        /* \"#utility.yul\":6112:6121   */\n      dup3\n        /* \"#utility.yul\":6108:6126   */\n      add\n        /* \"#utility.yul\":6100:6126   */\n      swap1\n      pop\n        /* \"#utility.yul\":6172:6181   */\n      dup2\n        /* \"#utility.yul\":6166:6170   */\n      dup2\n        /* \"#utility.yul\":6162:6182   */\n      sub\n        /* \"#utility.yul\":6158:6159   */\n      0x00\n        /* \"#utility.yul\":6147:6156   */\n      dup4\n        /* \"#utility.yul\":6143:6160   */\n      add\n        /* \"#utility.yul\":6136:6183   */\n      mstore\n        /* \"#utility.yul\":6200:6356   */\n      tag_319\n        /* \"#utility.yul\":6351:6355   */\n      dup2\n        /* \"#utility.yul\":6342:6348   */\n      dup5\n        /* \"#utility.yul\":6200:6356   */\n      tag_208\n      jump\t// in\n    tag_319:\n        /* \"#utility.yul\":6192:6356   */\n      swap1\n      pop\n        /* \"#utility.yul\":5894:6363   */\n      swap3\n      swap2\n      pop\n      pop\n      jump\t// out\n        /* \"#utility.yul\":6369:6495   */\n    tag_209:\n        /* \"#utility.yul\":6406:6413   */\n      0x00\n        /* \"#utility.yul\":6446:6488   */\n      0xffffffffffffffffffffffffffffffffffffffff\n        /* \"#utility.yul\":6439:6444   */\n      dup3\n        /* \"#utility.yul\":6435:6489   */\n      and\n        /* \"#utility.yul\":6424:6489   */\n      swap1\n      pop\n        /* \"#utility.yul\":6369:6495   */\n      swap2\n      swap1\n      pop\n      jump\t// out\n        /* \"#utility.yul\":6501:6597   */\n    tag_210:\n        /* \"#utility.yul\":6538:6545   */\n      0x00\n        /* \"#utility.yul\":6567:6591   */\n      tag_322\n        /* \"#utility.yul\":6585:6590   */\n      dup3\n        /* \"#utility.yul\":6567:6591   */\n      tag_209\n      jump\t// in\n    tag_322:\n        /* \"#utility.yul\":6556:6591   */\n      swap1\n      pop\n        /* \"#utility.yul\":6501:6597   */\n      swap2\n      swap1\n      pop\n      jump\t// out\n        /* \"#utility.yul\":6603:6721   */\n    tag_211:\n        /* \"#utility.yul\":6690:6714   */\n      tag_324\n        /* \"#utility.yul\":6708:6713   */\n      dup2\n        /* \"#utility.yul\":6690:6714   */\n      tag_210\n      jump\t// in\n    tag_324:\n        /* \"#utility.yul\":6685:6688   */\n      dup3\n        /* \"#utility.yul\":6678:6715   */\n      mstore\n        /* \"#utility.yul\":6603:6721   */\n      pop\n      pop\n      jump\t// out\n        /* \"#utility.yul\":6727:6949   */\n    tag_32:\n        /* \"#utility.yul\":6820:6824   */\n      0x00\n        /* \"#utility.yul\":6858:6860   */\n      0x20\n        /* \"#utility.yul\":6847:6856   */\n      dup3\n        /* \"#utility.yul\":6843:6861   */\n      add\n        /* \"#utility.yul\":6835:6861   */\n      swap1\n      pop\n        /* \"#utility.yul\":6871:6942   */\n      tag_326\n        /* \"#utility.yul\":6939:6940   */\n      0x00\n        /* \"#utility.yul\":6928:6937   */\n      dup4\n        /* \"#utility.yul\":6924:6941   */\n      add\n        /* \"#utility.yul\":6915:6921   */\n      dup5\n        /* \"#utility.yul\":6871:6942   */\n      tag_211\n      jump\t// in\n    tag_326:\n        /* \"#utility.yul\":6727:6949   */\n      swap3\n      swap2\n      pop\n      pop\n      jump\t// out\n        /* \"#utility.yul\":6955:7177   */\n    tag_40:\n        /* \"#utility.yul\":7048:7052   */\n      0x00\n        /* \"#utility.yul\":7086:7088   */\n      0x20\n        /* \"#utility.yul\":7075:7084   */\n      dup3\n        /* \"#utility.yul\":7071:7089   */\n      add\n        /* \"#utility.yul\":7063:7089   */\n      swap1\n      pop\n        /* \"#utility.yul\":7099:7170   */\n      tag_328\n        /* \"#utility.yul\":7167:7168   */\n      0x00\n        /* \"#utility.yul\":7156:7165   */\n      dup4\n        /* \"#utility.yul\":7152:7169   */\n      add\n        /* \"#utility.yul\":7143:7149   */\n      dup5\n        /* \"#utility.yul\":7099:7170   */\n      tag_198\n      jump\t// in\n    tag_328:\n        /* \"#utility.yul\":6955:7177   */\n      swap3\n      swap2\n      pop\n      pop\n      jump\t// out\n        /* \"#utility.yul\":7183:7305   */\n    tag_212:\n        /* \"#utility.yul\":7256:7280   */\n      tag_330\n        /* \"#utility.yul\":7274:7279   */\n      dup2\n        /* \"#utility.yul\":7256:7280   */\n      tag_210\n      jump\t// in\n    tag_330:\n        /* \"#utility.yul\":7249:7254   */\n      dup2\n        /* \"#utility.yul\":7246:7281   */\n      eq\n        /* \"#utility.yul\":7236:7299   */\n      tag_331\n      jumpi\n        /* \"#utility.yul\":7295:7296   */\n      0x00\n        /* \"#utility.yul\":7292:7293   */\n      0x00\n        /* \"#utility.yul\":7285:7297   */\n      revert\n        /* \"#utility.yul\":7236:7299   */\n    tag_331:\n        /* \"#utility.yul\":7183:7305   */\n      pop\n      jump\t// out\n        /* \"#utility.yul\":7311:7450   */\n    tag_213:\n        /* \"#utility.yul\":7357:7362   */\n      0x00\n        /* \"#utility.yul\":7395:7401   */\n      dup2\n        /* \"#utility.yul\":7382:7402   */\n      calldataload\n        /* \"#utility.yul\":7373:7402   */\n      swap1\n      pop\n        /* \"#utility.yul\":7411:7444   */\n      tag_333\n        /* \"#utility.yul\":7438:7443   */\n      dup2\n        /* \"#utility.yul\":7411:7444   */\n      tag_212\n      jump\t// in\n    tag_333:\n        /* \"#utility.yul\":7311:7450   */\n      swap3\n      swap2\n      pop\n      pop\n      jump\t// out\n        /* \"#utility.yul\":7456:7785   */\n    tag_43:\n        /* \"#utility.yul\":7515:7521   */\n      0x00\n        /* \"#utility.yul\":7564:7566   */\n      0x20\n        /* \"#utility.yul\":7552:7561   */\n      dup3\n        /* \"#utility.yul\":7543:7550   */\n      dup5\n        /* \"#utility.yul\":7539:7562   */\n      sub\n        /* \"#utility.yul\":7535:7567   */\n      slt\n        /* \"#utility.yul\":7532:7651   */\n      iszero\n      tag_335\n      jumpi\n        /* \"#utility.yul\":7570:7649   */\n      tag_336\n      tag_188\n      jump\t// in\n    tag_336:\n        /* \"#utility.yul\":7532:7651   */\n    tag_335:\n        /* \"#utility.yul\":7690:7691   */\n      0x00\n        /* \"#utility.yul\":7715:7768   */\n      tag_337\n        /* \"#utility.yul\":7760:7767   */\n      dup5\n        /* \"#utility.yul\":7751:7757   */\n      dup3\n        /* \"#utility.yul\":7740:7749   */\n      dup6\n        /* \"#utility.yul\":7736:7758   */\n      add\n        /* \"#utility.yul\":7715:7768   */\n      tag_213\n      jump\t// in\n    tag_337:\n        /* \"#utility.yul\":7705:7768   */\n      swap2\n      pop\n        /* \"#utility.yul\":7661:7778   */\n      pop\n        /* \"#utility.yul\":7456:7785   */\n      swap3\n      swap2\n      pop\n      pop\n      jump\t// out\n        /* \"#utility.yul\":7791:7908   */\n    tag_214:\n        /* \"#utility.yul\":7900:7901   */\n      0x00\n        /* \"#utility.yul\":7897:7898   */\n      0x00\n        /* \"#utility.yul\":7890:7902   */\n      revert\n        /* \"#utility.yul\":7914:8031   */\n    tag_215:\n        /* \"#utility.yul\":8023:8024   */\n      0x00\n        /* \"#utility.yul\":8020:8021   */\n      0x00\n        /* \"#utility.yul\":8013:8025   */\n      revert\n        /* \"#utility.yul\":8037:8217   */\n    tag_216:\n        /* \"#utility.yul\":8085:8162   */\n      0x4e487b7100000000000000000000000000000000000000000000000000000000\n        /* \"#utility.yul\":8082:8083   */\n      0x00\n        /* \"#utility.yul\":8075:8163   */\n      mstore\n        /* \"#utility.yul\":8182:8186   */\n      0x41\n        /* \"#utility.yul\":8179:8180   */\n      0x04\n        /* \"#utility.yul\":8172:8187   */\n      mstore\n        /* \"#utility.yul\":8206:8210   */\n      0x24\n        /* \"#utility.yul\":8203:8204   */\n      0x00\n        /* \"#utility.yul\":8196:8211   */\n      revert\n        /* \"#utility.yul\":8223:8504   */\n    tag_217:\n        /* \"#utility.yul\":8306:8333   */\n      tag_342\n        /* \"#utility.yul\":8328:8332   */\n      dup3\n        /* \"#utility.yul\":8306:8333   */\n      tag_196\n      jump\t// in\n    tag_342:\n        /* \"#utility.yul\":8298:8304   */\n      dup2\n        /* \"#utility.yul\":8294:8334   */\n      add\n        /* \"#utility.yul\":8436:8442   */\n      dup2\n        /* \"#utility.yul\":8424:8434   */\n      dup2\n        /* \"#utility.yul\":8421:8443   */\n      lt\n        /* \"#utility.yul\":8400:8418   */\n      0xffffffffffffffff\n        /* \"#utility.yul\":8388:8398   */\n      dup3\n        /* \"#utility.yul\":8385:8419   */\n      gt\n        /* \"#utility.yul\":8382:8444   */\n      or\n        /* \"#utility.yul\":8379:8467   */\n      iszero\n      tag_343\n      jumpi\n        /* \"#utility.yul\":8447:8465   */\n      tag_344\n      tag_216\n      jump\t// in\n    tag_344:\n        /* \"#utility.yul\":8379:8467   */\n    tag_343:\n        /* \"#utility.yul\":8487:8497   */\n      dup1\n        /* \"#utility.yul\":8483:8485   */\n      0x40\n        /* \"#utility.yul\":8476:8498   */\n      mstore\n        /* \"#utility.yul\":8266:8504   */\n      pop\n        /* \"#utility.yul\":8223:8504   */\n      pop\n      pop\n      jump\t// out\n        /* \"#utility.yul\":8510:8639   */\n    tag_218:\n        /* \"#utility.yul\":8544:8550   */\n      0x00\n        /* \"#utility.yul\":8571:8591   */\n      tag_346\n      tag_187\n      jump\t// in\n    tag_346:\n        /* \"#utility.yul\":8561:8591   */\n      swap1\n      pop\n        /* \"#utility.yul\":8600:8633   */\n      tag_347\n        /* \"#utility.yul\":8628:8632   */\n      dup3\n        /* \"#utility.yul\":8620:8626   */\n      dup3\n        /* \"#utility.yul\":8600:8633   */\n      tag_217\n      jump\t// in\n    tag_347:\n        /* \"#utility.yul\":8510:8639   */\n      swap2\n      swap1\n      pop\n      jump\t// out\n        /* \"#utility.yul\":8645:8953   */\n    tag_219:\n        /* \"#utility.yul\":8707:8711   */\n      0x00\n        /* \"#utility.yul\":8797:8815   */\n      0xffffffffffffffff\n        /* \"#utility.yul\":8789:8795   */\n      dup3\n        /* \"#utility.yul\":8786:8816   */\n      gt\n        /* \"#utility.yul\":8783:8839   */\n      iszero\n      tag_349\n      jumpi\n        /* \"#utility.yul\":8819:8837   */\n      tag_350\n      tag_216\n      jump\t// in\n    tag_350:\n        /* \"#utility.yul\":8783:8839   */\n    tag_349:\n        /* \"#utility.yul\":8857:8886   */\n      tag_351\n        /* \"#utility.yul\":8879:8885   */\n      dup3\n        /* \"#utility.yul\":8857:8886   */\n      tag_196\n      jump\t// in\n    tag_351:\n        /* \"#utility.yul\":8849:8886   */\n      swap1\n      pop\n        /* \"#utility.yul\":8941:8945   */\n      0x20\n        /* \"#utility.yul\":8935:8939   */\n      dup2\n        /* \"#utility.yul\":8931:8946   */\n      add\n        /* \"#utility.yul\":8923:8946   */\n      swap1\n      pop\n        /* \"#utility.yul\":8645:8953   */\n      swap2\n      swap1\n      pop\n      jump\t// out\n        /* \"#utility.yul\":8959:9107   */\n    tag_220:\n        /* \"#utility.yul\":9057:9063   */\n      dup3\n        /* \"#utility.yul\":9052:9055   */\n      dup2\n        /* \"#utility.yul\":9047:9050   */\n      dup4\n        /* \"#utility.yul\":9034:9064   */\n      calldatacopy\n        /* \"#utility.yul\":9098:9099   */\n      0x00\n        /* \"#utility.yul\":9089:9095   */\n      dup4\n        /* \"#utility.yul\":9084:9087   */\n      dup4\n        /* \"#utility.yul\":9080:9096   */\n      add\n        /* \"#utility.yul\":9073:9100   */\n      mstore\n        /* \"#utility.yul\":8959:9107   */\n      pop\n      pop\n      pop\n      jump\t// out\n        /* \"#utility.yul\":9113:9538   */\n    tag_221:\n        /* \"#utility.yul\":9191:9196   */\n      0x00\n        /* \"#utility.yul\":9216:9282   */\n      tag_354\n        /* \"#utility.yul\":9232:9281   */\n      tag_355\n        /* \"#utility.yul\":9274:9280   */\n      dup5\n        /* \"#utility.yul\":9232:9281   */\n      tag_219\n      jump\t// in\n    tag_355:\n        /* \"#utility.yul\":9216:9282   */\n      tag_218\n      jump\t// in\n    tag_354:\n        /* \"#utility.yul\":9207:9282   */\n      swap1\n      pop\n        /* \"#utility.yul\":9305:9311   */\n      dup3\n        /* \"#utility.yul\":9298:9303   */\n      dup2\n        /* \"#utility.yul\":9291:9312   */\n      mstore\n        /* \"#utility.yul\":9343:9347   */\n      0x20\n        /* \"#utility.yul\":9336:9341   */\n      dup2\n        /* \"#utility.yul\":9332:9348   */\n      add\n        /* \"#utility.yul\":9381:9384   */\n      dup5\n        /* \"#utility.yul\":9372:9378   */\n      dup5\n        /* \"#utility.yul\":9367:9370   */\n      dup5\n        /* \"#utility.yul\":9363:9379   */\n      add\n        /* \"#utility.yul\":9360:9385   */\n      gt\n        /* \"#utility.yul\":9357:9469   */\n      iszero\n      tag_356\n      jumpi\n        /* \"#utility.yul\":9388:9467   */\n      tag_357\n      tag_215\n      jump\t// in\n    tag_357:\n        /* \"#utility.yul\":9357:9469   */\n    tag_356:\n        /* \"#utility.yul\":9478:9532   */\n      tag_358\n        /* \"#utility.yul\":9525:9531   */\n      dup5\n        /* \"#utility.yul\":9520:9523   */\n      dup3\n        /* \"#utility.yul\":9515:9518   */\n      dup6\n        /* \"#utility.yul\":9478:9532   */\n      tag_220\n      jump\t// in\n    tag_358:\n        /* \"#utility.yul\":9197:9538   */\n      pop\n        /* \"#utility.yul\":9113:9538   */\n      swap4\n      swap3\n      pop\n      pop\n      pop\n      jump\t// out\n        /* \"#utility.yul\":9558:9898   */\n    tag_222:\n        /* \"#utility.yul\":9614:9619   */\n      0x00\n        /* \"#utility.yul\":9663:9666   */\n      dup3\n        /* \"#utility.yul\":9656:9660   */\n      0x1f\n        /* \"#utility.yul\":9648:9654   */\n      dup4\n        /* \"#utility.yul\":9644:9661   */\n      add\n        /* \"#utility.yul\":9640:9667   */\n      slt\n        /* \"#utility.yul\":9630:9752   */\n      tag_360\n      jumpi\n        /* \"#utility.yul\":9671:9750   */\n      tag_361\n      tag_214\n      jump\t// in\n    tag_361:\n        /* \"#utility.yul\":9630:9752   */\n    tag_360:\n        /* \"#utility.yul\":9788:9794   */\n      dup2\n        /* \"#utility.yul\":9775:9795   */\n      calldataload\n        /* \"#utility.yul\":9813:9892   */\n      tag_362\n        /* \"#utility.yul\":9888:9891   */\n      dup5\n        /* \"#utility.yul\":9880:9886   */\n      dup3\n        /* \"#utility.yul\":9873:9877   */\n      0x20\n        /* \"#utility.yul\":9865:9871   */\n      dup7\n        /* \"#utility.yul\":9861:9878   */\n      add\n        /* \"#utility.yul\":9813:9892   */\n      tag_221\n      jump\t// in\n    tag_362:\n        /* \"#utility.yul\":9804:9892   */\n      swap2\n      pop\n        /* \"#utility.yul\":9620:9898   */\n      pop\n        /* \"#utility.yul\":9558:9898   */\n      swap3\n      swap2\n      pop\n      pop\n      jump\t// out\n        /* \"#utility.yul\":9904:10413   */\n    tag_50:\n        /* \"#utility.yul\":9973:9979   */\n      0x00\n        /* \"#utility.yul\":10022:10024   */\n      0x20\n        /* \"#utility.yul\":10010:10019   */\n      dup3\n        /* \"#utility.yul\":10001:10008   */\n      dup5\n        /* \"#utility.yul\":9997:10020   */\n      sub\n        /* \"#utility.yul\":9993:10025   */\n      slt\n        /* \"#utility.yul\":9990:10109   */\n      iszero\n      tag_364\n      jumpi\n        /* \"#utility.yul\":10028:10107   */\n      tag_365\n      tag_188\n      jump\t// in\n    tag_365:\n        /* \"#utility.yul\":9990:10109   */\n    tag_364:\n        /* \"#utility.yul\":10176:10177   */\n      0x00\n        /* \"#utility.yul\":10165:10174   */\n      dup3\n        /* \"#utility.yul\":10161:10178   */\n      add\n        /* \"#utility.yul\":10148:10179   */\n      calldataload\n        /* \"#utility.yul\":10206:10224   */\n      0xffffffffffffffff\n        /* \"#utility.yul\":10198:10204   */\n      dup2\n        /* \"#utility.yul\":10195:10225   */\n      gt\n        /* \"#utility.yul\":10192:10309   */\n      iszero\n      tag_366\n      jumpi\n        /* \"#utility.yul\":10228:10307   */\n      tag_367\n      tag_189\n      jump\t// in\n    tag_367:\n        /* \"#utility.yul\":10192:10309   */\n    tag_366:\n        /* \"#utility.yul\":10333:10396   */\n      tag_368\n        /* \"#utility.yul\":10388:10395   */\n      dup5\n        /* \"#utility.yul\":10379:10385   */\n      dup3\n        /* \"#utility.yul\":10368:10377   */\n      dup6\n        /* \"#utility.yul\":10364:10386   */\n      add\n        /* \"#utility.yul\":10333:10396   */\n      tag_222\n      jump\t// in\n    tag_368:\n        /* \"#utility.yul\":10323:10396   */\n      swap2\n      pop\n        /* \"#utility.yul\":10119:10406   */\n      pop\n        /* \"#utility.yul\":9904:10413   */\n      swap3\n      swap2\n      pop\n      pop\n      jump\t// out\n        /* \"#utility.yul\":10419:10599   */\n    tag_223:\n        /* \"#utility.yul\":10467:10544   */\n      0x4e487b7100000000000000000000000000000000000000000000000000000000\n        /* \"#utility.yul\":10464:10465   */\n      0x00\n        /* \"#utility.yul\":10457:10545   */\n      mstore\n        /* \"#utility.yul\":10564:10568   */\n      0x22\n        /* \"#utility.yul\":10561:10562   */\n      0x04\n        /* \"#utility.yul\":10554:10569   */\n      mstore\n        /* \"#utility.yul\":10588:10592   */\n      0x24\n        /* \"#utility.yul\":10585:10586   */\n      0x00\n        /* \"#utility.yul\":10578:10593   */\n      revert\n        /* \"#utility.yul\":10605:10925   */\n    tag_58:\n        /* \"#utility.yul\":10649:10655   */\n      0x00\n        /* \"#utility.yul\":10686:10687   */\n      0x02\n        /* \"#utility.yul\":10680:10684   */\n      dup3\n        /* \"#utility.yul\":10676:10688   */\n      div\n        /* \"#utility.yul\":10666:10688   */\n      swap1\n      pop\n        /* \"#utility.yul\":10733:10734   */\n      0x01\n        /* \"#utility.yul\":10727:10731   */\n      dup3\n        /* \"#utility.yul\":10723:10735   */\n      and\n        /* \"#utility.yul\":10754:10772   */\n      dup1\n        /* \"#utility.yul\":10744:10825   */\n      tag_371\n      jumpi\n        /* \"#utility.yul\":10810:10814   */\n      0x7f\n        /* \"#utility.yul\":10802:10808   */\n      dup3\n        /* \"#utility.yul\":10798:10815   */\n      and\n        /* \"#utility.yul\":10788:10815   */\n      swap2\n      pop\n        /* \"#utility.yul\":10744:10825   */\n    tag_371:\n        /* \"#utility.yul\":10872:10874   */\n      0x20\n        /* \"#utility.yul\":10864:10870   */\n      dup3\n        /* \"#utility.yul\":10861:10875   */\n      lt\n        /* \"#utility.yul\":10841:10859   */\n      dup2\n        /* \"#utility.yul\":10838:10876   */\n      sub\n        /* \"#utility.yul\":10835:10919   */\n      tag_372\n      jumpi\n        /* \"#utility.yul\":10891:10909   */\n      tag_373\n      tag_223\n      jump\t// in\n    tag_373:\n        /* \"#utility.yul\":10835:10919   */\n    tag_372:\n        /* \"#utility.yul\":10656:10925   */\n      pop\n        /* \"#utility.yul\":10605:10925   */\n      swap2\n      swap1\n      pop\n      jump\t// out\n        /* \"#utility.yul\":10931:11111   */\n    tag_78:\n        /* \"#utility.yul\":10979:11056   */\n      0x4e487b7100000000000000000000000000000000000000000000000000000000\n        /* \"#utility.yul\":10976:10977   */\n      0x00\n        /* \"#utility.yul\":10969:11057   */\n      mstore\n        /* \"#utility.yul\":11076:11080   */\n      0x21\n        /* \"#utility.yul\":11073:11074   */\n      0x04\n        /* \"#utility.yul\":11066:11081   */\n      mstore\n        /* \"#utility.yul\":11100:11104   */\n      0x24\n        /* \"#utility.yul\":11097:11098   */\n      0x00\n        /* \"#utility.yul\":11090:11105   */\n      revert\n        /* \"#utility.yul\":11117:11297   */\n    tag_224:\n        /* \"#utility.yul\":11165:11242   */\n      0x4e487b7100000000000000000000000000000000000000000000000000000000\n        /* \"#utility.yul\":11162:11163   */\n      0x00\n        /* \"#utility.yul\":11155:11243   */\n      mstore\n        /* \"#utility.yul\":11262:11266   */\n      0x11\n        /* \"#utility.yul\":11259:11260   */\n      0x04\n        /* \"#utility.yul\":11252:11267   */\n      mstore\n        /* \"#utility.yul\":11286:11290   */\n      0x24\n        /* \"#utility.yul\":11283:11284   */\n      0x00\n        /* \"#utility.yul\":11276:11291   */\n      revert\n        /* \"#utility.yul\":11303:11494   */\n    tag_88:\n        /* \"#utility.yul\":11343:11346   */\n      0x00\n        /* \"#utility.yul\":11362:11382   */\n      tag_377\n        /* \"#utility.yul\":11380:11381   */\n      dup3\n        /* \"#utility.yul\":11362:11382   */\n      tag_190\n      jump\t// in\n    tag_377:\n        /* \"#utility.yul\":11357:11382   */\n      swap2\n      pop\n        /* \"#utility.yul\":11396:11416   */\n      tag_378\n        /* \"#utility.yul\":11414:11415   */\n      dup4\n        /* \"#utility.yul\":11396:11416   */\n      tag_190\n      jump\t// in\n    tag_378:\n        /* \"#utility.yul\":11391:11416   */\n      swap3\n      pop\n        /* \"#utility.yul\":11439:11440   */\n      dup3\n        /* \"#utility.yul\":11436:11437   */\n      dup3\n        /* \"#utility.yul\":11432:11441   */\n      add\n        /* \"#utility.yul\":11425:11441   */\n      swap1\n      pop\n        /* \"#utility.yul\":11460:11463   */\n      dup1\n        /* \"#utility.yul\":11457:11458   */\n      dup3\n        /* \"#utility.yul\":11454:11464   */\n      gt\n        /* \"#utility.yul\":11451:11487   */\n      iszero\n      tag_379\n      jumpi\n        /* \"#utility.yul\":11467:11485   */\n      tag_380\n      tag_224\n      jump\t// in\n    tag_380:\n        /* \"#utility.yul\":11451:11487   */\n    tag_379:\n        /* \"#utility.yul\":11303:11494   */\n      swap3\n      swap2\n      pop\n      pop\n      jump\t// out\n        /* \"#utility.yul\":11500:11622   */\n    tag_225:\n        /* \"#utility.yul\":11590:11591   */\n      0x06\n        /* \"#utility.yul\":11583:11588   */\n      dup2\n        /* \"#utility.yul\":11580:11592   */\n      lt\n        /* \"#utility.yul\":11570:11616   */\n      tag_382\n      jumpi\n        /* \"#utility.yul\":11596:11614   */\n      tag_383\n      tag_78\n      jump\t// in\n    tag_383:\n        /* \"#utility.yul\":11570:11616   */\n    tag_382:\n        /* \"#utility.yul\":11500:11622   */\n      pop\n      jump\t// out\n        /* \"#utility.yul\":11628:11773   */\n    tag_226:\n        /* \"#utility.yul\":11682:11689   */\n      0x00\n        /* \"#utility.yul\":11711:11716   */\n      dup2\n        /* \"#utility.yul\":11700:11716   */\n      swap1\n      pop\n        /* \"#utility.yul\":11717:11767   */\n      tag_385\n        /* \"#utility.yul\":11761:11766   */\n      dup3\n        /* \"#utility.yul\":11717:11767   */\n      tag_225\n      jump\t// in\n    tag_385:\n        /* \"#utility.yul\":11628:11773   */\n      swap2\n      swap1\n      pop\n      jump\t// out\n        /* \"#utility.yul\":11779:11924   */\n    tag_227:\n        /* \"#utility.yul\":11844:11853   */\n      0x00\n        /* \"#utility.yul\":11877:11918   */\n      tag_387\n        /* \"#utility.yul\":11912:11917   */\n      dup3\n        /* \"#utility.yul\":11877:11918   */\n      tag_226\n      jump\t// in\n    tag_387:\n        /* \"#utility.yul\":11864:11918   */\n      swap1\n      pop\n        /* \"#utility.yul\":11779:11924   */\n      swap2\n      swap1\n      pop\n      jump\t// out\n        /* \"#utility.yul\":11930:12091   */\n    tag_228:\n        /* \"#utility.yul\":12032:12084   */\n      tag_389\n        /* \"#utility.yul\":12078:12083   */\n      dup2\n        /* \"#utility.yul\":12032:12084   */\n      tag_227\n      jump\t// in\n    tag_389:\n        /* \"#utility.yul\":12027:12030   */\n      dup3\n        /* \"#utility.yul\":12020:12085   */\n      mstore\n        /* \"#utility.yul\":11930:12091   */\n      pop\n      pop\n      jump\t// out\n        /* \"#utility.yul\":12097:12489   */\n    tag_94:\n        /* \"#utility.yul\":12248:12252   */\n      0x00\n        /* \"#utility.yul\":12286:12288   */\n      0x40\n        /* \"#utility.yul\":12275:12284   */\n      dup3\n        /* \"#utility.yul\":12271:12289   */\n      add\n        /* \"#utility.yul\":12263:12289   */\n      swap1\n      pop\n        /* \"#utility.yul\":12299:12385   */\n      tag_391\n        /* \"#utility.yul\":12382:12383   */\n      0x00\n        /* \"#utility.yul\":12371:12380   */\n      dup4\n        /* \"#utility.yul\":12367:12384   */\n      add\n        /* \"#utility.yul\":12358:12364   */\n      dup6\n        /* \"#utility.yul\":12299:12385   */\n      tag_228\n      jump\t// in\n    tag_391:\n        /* \"#utility.yul\":12395:12482   */\n      tag_392\n        /* \"#utility.yul\":12478:12480   */\n      0x20\n        /* \"#utility.yul\":12467:12476   */\n      dup4\n        /* \"#utility.yul\":12463:12481   */\n      add\n        /* \"#utility.yul\":12454:12460   */\n      dup5\n        /* \"#utility.yul\":12395:12482   */\n      tag_228\n      jump\t// in\n    tag_392:\n        /* \"#utility.yul\":12097:12489   */\n      swap4\n      swap3\n      pop\n      pop\n      pop\n      jump\t// out\n        /* \"#utility.yul\":12495:12731   */\n    tag_229:\n        /* \"#utility.yul\":12635:12669   */\n      0x416464726573732063616e206265206164646564206f6e6c7920696e20526567\n        /* \"#utility.yul\":12631:12632   */\n      0x00\n        /* \"#utility.yul\":12623:12629   */\n      dup3\n        /* \"#utility.yul\":12619:12633   */\n      add\n        /* \"#utility.yul\":12612:12670   */\n      mstore\n        /* \"#utility.yul\":12704:12723   */\n      0x697374726174696f6e2070686173653a30000000000000000000000000000000\n        /* \"#utility.yul\":12699:12701   */\n      0x20\n        /* \"#utility.yul\":12691:12697   */\n      dup3\n        /* \"#utility.yul\":12687:12702   */\n      add\n        /* \"#utility.yul\":12680:12724   */\n      mstore\n        /* \"#utility.yul\":12495:12731   */\n      pop\n      jump\t// out\n        /* \"#utility.yul\":12737:13103   */\n    tag_230:\n        /* \"#utility.yul\":12879:12882   */\n      0x00\n        /* \"#utility.yul\":12900:12967   */\n      tag_395\n        /* \"#utility.yul\":12964:12966   */\n      0x31\n        /* \"#utility.yul\":12959:12962   */\n      dup4\n        /* \"#utility.yul\":12900:12967   */\n      tag_194\n      jump\t// in\n    tag_395:\n        /* \"#utility.yul\":12893:12967   */\n      swap2\n      pop\n        /* \"#utility.yul\":12976:13069   */\n      tag_396\n        /* \"#utility.yul\":13065:13068   */\n      dup3\n        /* \"#utility.yul\":12976:13069   */\n      tag_229\n      jump\t// in\n    tag_396:\n        /* \"#utility.yul\":13094:13096   */\n      0x40\n        /* \"#utility.yul\":13089:13092   */\n      dup3\n        /* \"#utility.yul\":13085:13097   */\n      add\n        /* \"#utility.yul\":13078:13097   */\n      swap1\n      pop\n        /* \"#utility.yul\":12737:13103   */\n      swap2\n      swap1\n      pop\n      jump\t// out\n        /* \"#utility.yul\":13109:13528   */\n    tag_118:\n        /* \"#utility.yul\":13275:13279   */\n      0x00\n        /* \"#utility.yul\":13313:13315   */\n      0x20\n        /* \"#utility.yul\":13302:13311   */\n      dup3\n        /* \"#utility.yul\":13298:13316   */\n      add\n        /* \"#utility.yul\":13290:13316   */\n      swap1\n      pop\n        /* \"#utility.yul\":13362:13371   */\n      dup2\n        /* \"#utility.yul\":13356:13360   */\n      dup2\n        /* \"#utility.yul\":13352:13372   */\n      sub\n        /* \"#utility.yul\":13348:13349   */\n      0x00\n        /* \"#utility.yul\":13337:13346   */\n      dup4\n        /* \"#utility.yul\":13333:13350   */\n      add\n        /* \"#utility.yul\":13326:13373   */\n      mstore\n        /* \"#utility.yul\":13390:13521   */\n      tag_398\n        /* \"#utility.yul\":13516:13520   */\n      dup2\n        /* \"#utility.yul\":13390:13521   */\n      tag_230\n      jump\t// in\n    tag_398:\n        /* \"#utility.yul\":13382:13521   */\n      swap1\n      pop\n        /* \"#utility.yul\":13109:13528   */\n      swap2\n      swap1\n      pop\n      jump\t// out\n        /* \"#utility.yul\":13534:13710   */\n    tag_231:\n        /* \"#utility.yul\":13674:13702   */\n      0x4164647265737320616c72656164792072656769737465726564000000000000\n        /* \"#utility.yul\":13670:13671   */\n      0x00\n        /* \"#utility.yul\":13662:13668   */\n      dup3\n        /* \"#utility.yul\":13658:13672   */\n      add\n        /* \"#utility.yul\":13651:13703   */\n      mstore\n        /* \"#utility.yul\":13534:13710   */\n      pop\n      jump\t// out\n        /* \"#utility.yul\":13716:14082   */\n    tag_232:\n        /* \"#utility.yul\":13858:13861   */\n      0x00\n        /* \"#utility.yul\":13879:13946   */\n      tag_401\n        /* \"#utility.yul\":13943:13945   */\n      0x1a\n        /* \"#utility.yul\":13938:13941   */\n      dup4\n        /* \"#utility.yul\":13879:13946   */\n      tag_194\n      jump\t// in\n    tag_401:\n        /* \"#utility.yul\":13872:13946   */\n      swap2\n      pop\n        /* \"#utility.yul\":13955:14048   */\n      tag_402\n        /* \"#utility.yul\":14044:14047   */\n      dup3\n        /* \"#utility.yul\":13955:14048   */\n      tag_231\n      jump\t// in\n    tag_402:\n        /* \"#utility.yul\":14073:14075   */\n      0x20\n        /* \"#utility.yul\":14068:14071   */\n      dup3\n        /* \"#utility.yul\":14064:14076   */\n      add\n        /* \"#utility.yul\":14057:14076   */\n      swap1\n      pop\n        /* \"#utility.yul\":13716:14082   */\n      swap2\n      swap1\n      pop\n      jump\t// out\n        /* \"#utility.yul\":14088:14507   */\n    tag_121:\n        /* \"#utility.yul\":14254:14258   */\n      0x00\n        /* \"#utility.yul\":14292:14294   */\n      0x20\n        /* \"#utility.yul\":14281:14290   */\n      dup3\n        /* \"#utility.yul\":14277:14295   */\n      add\n        /* \"#utility.yul\":14269:14295   */\n      swap1\n      pop\n        /* \"#utility.yul\":14341:14350   */\n      dup2\n        /* \"#utility.yul\":14335:14339   */\n      dup2\n        /* \"#utility.yul\":14331:14351   */\n      sub\n        /* \"#utility.yul\":14327:14328   */\n      0x00\n        /* \"#utility.yul\":14316:14325   */\n      dup4\n        /* \"#utility.yul\":14312:14329   */\n      add\n        /* \"#utility.yul\":14305:14352   */\n      mstore\n        /* \"#utility.yul\":14369:14500   */\n      tag_404\n        /* \"#utility.yul\":14495:14499   */\n      dup2\n        /* \"#utility.yul\":14369:14500   */\n      tag_232\n      jump\t// in\n    tag_404:\n        /* \"#utility.yul\":14361:14500   */\n      swap1\n      pop\n        /* \"#utility.yul\":14088:14507   */\n      swap2\n      swap1\n      pop\n      jump\t// out\n        /* \"#utility.yul\":14513:14746   */\n    tag_123:\n        /* \"#utility.yul\":14552:14555   */\n      0x00\n        /* \"#utility.yul\":14575:14599   */\n      tag_406\n        /* \"#utility.yul\":14593:14598   */\n      dup3\n        /* \"#utility.yul\":14575:14599   */\n      tag_190\n      jump\t// in\n    tag_406:\n        /* \"#utility.yul\":14566:14599   */\n      swap2\n      pop\n        /* \"#utility.yul\":14621:14687   */\n      0xffffffffffffffffffffffffffffffffffffffffffffffffffffffffffffffff\n        /* \"#utility.yul\":14614:14619   */\n      dup3\n        /* \"#utility.yul\":14611:14688   */\n      sub\n        /* \"#utility.yul\":14608:14711   */\n      tag_407\n      jumpi\n        /* \"#utility.yul\":14691:14709   */\n      tag_408\n      tag_224\n      jump\t// in\n    tag_408:\n        /* \"#utility.yul\":14608:14711   */\n    tag_407:\n        /* \"#utility.yul\":14738:14739   */\n      0x01\n        /* \"#utility.yul\":14731:14736   */\n      dup3\n        /* \"#utility.yul\":14727:14740   */\n      add\n        /* \"#utility.yul\":14720:14740   */\n      swap1\n      pop\n        /* \"#utility.yul\":14513:14746   */\n      swap2\n      swap1\n      pop\n      jump\t// out\n        /* \"#utility.yul\":14752:14983   */\n    tag_233:\n        /* \"#utility.yul\":14892:14926   */\n      0x50726f706f73616c2063616e206265206164646573206f6e6c7920696e20766f\n        /* \"#utility.yul\":14888:14889   */\n      0x00\n        /* \"#utility.yul\":14880:14886   */\n      dup3\n        /* \"#utility.yul\":14876:14890   */\n      add\n        /* \"#utility.yul\":14869:14927   */\n      mstore\n        /* \"#utility.yul\":14961:14975   */\n      0x74696e672070686173653a330000000000000000000000000000000000000000\n        /* \"#utility.yul\":14956:14958   */\n      0x20\n        /* \"#utility.yul\":14948:14954   */\n      dup3\n        /* \"#utility.yul\":14944:14959   */\n      add\n        /* \"#utility.yul\":14937:14976   */\n      mstore\n        /* \"#utility.yul\":14752:14983   */\n      pop\n      jump\t// out\n        /* \"#utility.yul\":14989:15355   */\n    tag_234:\n        /* \"#utility.yul\":15131:15134   */\n      0x00\n        /* \"#utility.yul\":15152:15219   */\n      tag_411\n        /* \"#utility.yul\":15216:15218   */\n      0x2c\n        /* \"#utility.yul\":15211:15214   */\n      dup4\n        /* \"#utility.yul\":15152:15219   */\n      tag_194\n      jump\t// in\n    tag_411:\n        /* \"#utility.yul\":15145:15219   */\n      swap2\n      pop\n        /* \"#utility.yul\":15228:15321   */\n      tag_412\n        /* \"#utility.yul\":15317:15320   */\n      dup3\n        /* \"#utility.yul\":15228:15321   */\n      tag_233\n      jump\t// in\n    tag_412:\n        /* \"#utility.yul\":15346:15348   */\n      0x40\n        /* \"#utility.yul\":15341:15344   */\n      dup3\n        /* \"#utility.yul\":15337:15349   */\n      add\n        /* \"#utility.yul\":15330:15349   */\n      swap1\n      pop\n        /* \"#utility.yul\":14989:15355   */\n      swap2\n      swap1\n      pop\n      jump\t// out\n        /* \"#utility.yul\":15361:15780   */\n    tag_132:\n        /* \"#utility.yul\":15527:15531   */\n      0x00\n        /* \"#utility.yul\":15565:15567   */\n      0x20\n        /* \"#utility.yul\":15554:15563   */\n      dup3\n        /* \"#utility.yul\":15550:15568   */\n      add\n        /* \"#utility.yul\":15542:15568   */\n      swap1\n      pop\n        /* \"#utility.yul\":15614:15623   */\n      dup2\n        /* \"#utility.yul\":15608:15612   */\n      dup2\n        /* \"#utility.yul\":15604:15624   */\n      sub\n        /* \"#utility.yul\":15600:15601   */\n      0x00\n        /* \"#utility.yul\":15589:15598   */\n      dup4\n        /* \"#utility.yul\":15585:15602   */\n      add\n        /* \"#utility.yul\":15578:15625   */\n      mstore\n        /* \"#utility.yul\":15642:15773   */\n      tag_414\n        /* \"#utility.yul\":15768:15772   */\n      dup2\n        /* \"#utility.yul\":15642:15773   */\n      tag_234\n      jump\t// in\n    tag_414:\n        /* \"#utility.yul\":15634:15773   */\n      swap1\n      pop\n        /* \"#utility.yul\":15361:15780   */\n      swap2\n      swap1\n      pop\n      jump\t// out\n        /* \"#utility.yul\":15786:16081   */\n    tag_235:\n        /* \"#utility.yul\":15926:15960   */\n      0x596f75206861766520746f20676574206174206c656174206f6e652070726f70\n        /* \"#utility.yul\":15922:15923   */\n      0x00\n        /* \"#utility.yul\":15914:15920   */\n      dup3\n        /* \"#utility.yul\":15910:15924   */\n      add\n        /* \"#utility.yul\":15903:15961   */\n      mstore\n        /* \"#utility.yul\":15995:16029   */\n      0x6f73616c20696e206f7264657220746f2070726f63656564206120766f74696e\n        /* \"#utility.yul\":15990:15992   */\n      0x20\n        /* \"#utility.yul\":15982:15988   */\n      dup3\n        /* \"#utility.yul\":15978:15993   */\n      add\n        /* \"#utility.yul\":15971:16030   */\n      mstore\n        /* \"#utility.yul\":16064:16073   */\n      0x6720706861736500000000000000000000000000000000000000000000000000\n        /* \"#utility.yul\":16059:16061   */\n      0x40\n        /* \"#utility.yul\":16051:16057   */\n      dup3\n        /* \"#utility.yul\":16047:16062   */\n      add\n        /* \"#utility.yul\":16040:16074   */\n      mstore\n        /* \"#utility.yul\":15786:16081   */\n      pop\n      jump\t// out\n        /* \"#utility.yul\":16087:16453   */\n    tag_236:\n        /* \"#utility.yul\":16229:16232   */\n      0x00\n        /* \"#utility.yul\":16250:16317   */\n      tag_417\n        /* \"#utility.yul\":16314:16316   */\n      0x47\n        /* \"#utility.yul\":16309:16312   */\n      dup4\n        /* \"#utility.yul\":16250:16317   */\n      tag_194\n      jump\t// in\n    tag_417:\n        /* \"#utility.yul\":16243:16317   */\n      swap2\n      pop\n        /* \"#utility.yul\":16326:16419   */\n      tag_418\n        /* \"#utility.yul\":16415:16418   */\n      dup3\n        /* \"#utility.yul\":16326:16419   */\n      tag_235\n      jump\t// in\n    tag_418:\n        /* \"#utility.yul\":16444:16446   */\n      0x60\n        /* \"#utility.yul\":16439:16442   */\n      dup3\n        /* \"#utility.yul\":16435:16447   */\n      add\n        /* \"#utility.yul\":16428:16447   */\n      swap1\n      pop\n        /* \"#utility.yul\":16087:16453   */\n      swap2\n      swap1\n      pop\n      jump\t// out\n        /* \"#utility.yul\":16459:16878   */\n    tag_135:\n        /* \"#utility.yul\":16625:16629   */\n      0x00\n        /* \"#utility.yul\":16663:16665   */\n      0x20\n        /* \"#utility.yul\":16652:16661   */\n      dup3\n        /* \"#utility.yul\":16648:16666   */\n      add\n        /* \"#utility.yul\":16640:16666   */\n      swap1\n      pop\n        /* \"#utility.yul\":16712:16721   */\n      dup2\n        /* \"#utility.yul\":16706:16710   */\n      dup2\n        /* \"#utility.yul\":16702:16722   */\n      sub\n        /* \"#utility.yul\":16698:16699   */\n      0x00\n        /* \"#utility.yul\":16687:16696   */\n      dup4\n        /* \"#utility.yul\":16683:16700   */\n      add\n        /* \"#utility.yul\":16676:16723   */\n      mstore\n        /* \"#utility.yul\":16740:16871   */\n      tag_420\n        /* \"#utility.yul\":16866:16870   */\n      dup2\n        /* \"#utility.yul\":16740:16871   */\n      tag_236\n      jump\t// in\n    tag_420:\n        /* \"#utility.yul\":16732:16871   */\n      swap1\n      pop\n        /* \"#utility.yul\":16459:16878   */\n      swap2\n      swap1\n      pop\n      jump\t// out\n        /* \"#utility.yul\":16884:17066   */\n    tag_237:\n        /* \"#utility.yul\":17024:17058   */\n      0x596f75206172206e6f742072656769737465726564206173206120766f746572\n        /* \"#utility.yul\":17020:17021   */\n      0x00\n        /* \"#utility.yul\":17012:17018   */\n      dup3\n        /* \"#utility.yul\":17008:17022   */\n      add\n        /* \"#utility.yul\":17001:17059   */\n      mstore\n        /* \"#utility.yul\":16884:17066   */\n      pop\n      jump\t// out\n        /* \"#utility.yul\":17072:17438   */\n    tag_238:\n        /* \"#utility.yul\":17214:17217   */\n      0x00\n        /* \"#utility.yul\":17235:17302   */\n      tag_423\n        /* \"#utility.yul\":17299:17301   */\n      0x20\n        /* \"#utility.yul\":17294:17297   */\n      dup4\n        /* \"#utility.yul\":17235:17302   */\n      tag_194\n      jump\t// in\n    tag_423:\n        /* \"#utility.yul\":17228:17302   */\n      swap2\n      pop\n        /* \"#utility.yul\":17311:17404   */\n      tag_424\n        /* \"#utility.yul\":17400:17403   */\n      dup3\n        /* \"#utility.yul\":17311:17404   */\n      tag_237\n      jump\t// in\n    tag_424:\n        /* \"#utility.yul\":17429:17431   */\n      0x20\n        /* \"#utility.yul\":17424:17427   */\n      dup3\n        /* \"#utility.yul\":17420:17432   */\n      add\n        /* \"#utility.yul\":17413:17432   */\n      swap1\n      pop\n        /* \"#utility.yul\":17072:17438   */\n      swap2\n      swap1\n      pop\n      jump\t// out\n        /* \"#utility.yul\":17444:17863   */\n    tag_138:\n        /* \"#utility.yul\":17610:17614   */\n      0x00\n        /* \"#utility.yul\":17648:17650   */\n      0x20\n        /* \"#utility.yul\":17637:17646   */\n      dup3\n        /* \"#utility.yul\":17633:17651   */\n      add\n        /* \"#utility.yul\":17625:17651   */\n      swap1\n      pop\n        /* \"#utility.yul\":17697:17706   */\n      dup2\n        /* \"#utility.yul\":17691:17695   */\n      dup2\n        /* \"#utility.yul\":17687:17707   */\n      sub\n        /* \"#utility.yul\":17683:17684   */\n      0x00\n        /* \"#utility.yul\":17672:17681   */\n      dup4\n        /* \"#utility.yul\":17668:17685   */\n      add\n        /* \"#utility.yul\":17661:17708   */\n      mstore\n        /* \"#utility.yul\":17725:17856   */\n      tag_426\n        /* \"#utility.yul\":17851:17855   */\n      dup2\n        /* \"#utility.yul\":17725:17856   */\n      tag_238\n      jump\t// in\n    tag_426:\n        /* \"#utility.yul\":17717:17856   */\n      swap1\n      pop\n        /* \"#utility.yul\":17444:17863   */\n      swap2\n      swap1\n      pop\n      jump\t// out\n        /* \"#utility.yul\":17869:18041   */\n    tag_239:\n        /* \"#utility.yul\":18009:18033   */\n      0x596f75206861766520616c726561647920766f74656400000000000000000000\n        /* \"#utility.yul\":18005:18006   */\n      0x00\n        /* \"#utility.yul\":17997:18003   */\n      dup3\n        /* \"#utility.yul\":17993:18007   */\n      add\n        /* \"#utility.yul\":17986:18034   */\n      mstore\n        /* \"#utility.yul\":17869:18041   */\n      pop\n      jump\t// out\n        /* \"#utility.yul\":18047:18413   */\n    tag_240:\n        /* \"#utility.yul\":18189:18192   */\n      0x00\n        /* \"#utility.yul\":18210:18277   */\n      tag_429\n        /* \"#utility.yul\":18274:18276   */\n      0x16\n        /* \"#utility.yul\":18269:18272   */\n      dup4\n        /* \"#utility.yul\":18210:18277   */\n      tag_194\n      jump\t// in\n    tag_429:\n        /* \"#utility.yul\":18203:18277   */\n      swap2\n      pop\n        /* \"#utility.yul\":18286:18379   */\n      tag_430\n        /* \"#utility.yul\":18375:18378   */\n      dup3\n        /* \"#utility.yul\":18286:18379   */\n      tag_239\n      jump\t// in\n    tag_430:\n        /* \"#utility.yul\":18404:18406   */\n      0x20\n        /* \"#utility.yul\":18399:18402   */\n      dup3\n        /* \"#utility.yul\":18395:18407   */\n      add\n        /* \"#utility.yul\":18388:18407   */\n      swap1\n      pop\n        /* \"#utility.yul\":18047:18413   */\n      swap2\n      swap1\n      pop\n      jump\t// out\n        /* \"#utility.yul\":18419:18838   */\n    tag_141:\n        /* \"#utility.yul\":18585:18589   */\n      0x00\n        /* \"#utility.yul\":18623:18625   */\n      0x20\n        /* \"#utility.yul\":18612:18621   */\n      dup3\n        /* \"#utility.yul\":18608:18626   */\n      add\n        /* \"#utility.yul\":18600:18626   */\n      swap1\n      pop\n        /* \"#utility.yul\":18672:18681   */\n      dup2\n        /* \"#utility.yul\":18666:18670   */\n      dup2\n        /* \"#utility.yul\":18662:18682   */\n      sub\n        /* \"#utility.yul\":18658:18659   */\n      0x00\n        /* \"#utility.yul\":18647:18656   */\n      dup4\n        /* \"#utility.yul\":18643:18660   */\n      add\n        /* \"#utility.yul\":18636:18683   */\n      mstore\n        /* \"#utility.yul\":18700:18831   */\n      tag_432\n        /* \"#utility.yul\":18826:18830   */\n      dup2\n        /* \"#utility.yul\":18700:18831   */\n      tag_240\n      jump\t// in\n    tag_432:\n        /* \"#utility.yul\":18692:18831   */\n      swap1\n      pop\n        /* \"#utility.yul\":18419:18838   */\n      swap2\n      swap1\n      pop\n      jump\t// out\n        /* \"#utility.yul\":18844:19017   */\n    tag_241:\n        /* \"#utility.yul\":18984:19009   */\n      0x496e76616c69642070726f706f73616c2063686f696365000000000000000000\n        /* \"#utility.yul\":18980:18981   */\n      0x00\n        /* \"#utility.yul\":18972:18978   */\n      dup3\n        /* \"#utility.yul\":18968:18982   */\n      add\n        /* \"#utility.yul\":18961:19010   */\n      mstore\n        /* \"#utility.yul\":18844:19017   */\n      pop\n      jump\t// out\n        /* \"#utility.yul\":19023:19389   */\n    tag_242:\n        /* \"#utility.yul\":19165:19168   */\n      0x00\n        /* \"#utility.yul\":19186:19253   */\n      tag_435\n        /* \"#utility.yul\":19250:19252   */\n      0x17\n        /* \"#utility.yul\":19245:19248   */\n      dup4\n        /* \"#utility.yul\":19186:19253   */\n      tag_194\n      jump\t// in\n    tag_435:\n        /* \"#utility.yul\":19179:19253   */\n      swap2\n      pop\n        /* \"#utility.yul\":19262:19355   */\n      tag_436\n        /* \"#utility.yul\":19351:19354   */\n      dup3\n        /* \"#utility.yul\":19262:19355   */\n      tag_241\n      jump\t// in\n    tag_436:\n        /* \"#utility.yul\":19380:19382   */\n      0x20\n        /* \"#utility.yul\":19375:19378   */\n      dup3\n        /* \"#utility.yul\":19371:19383   */\n      add\n        /* \"#utility.yul\":19364:19383   */\n      swap1\n      pop\n        /* \"#utility.yul\":19023:19389   */\n      swap2\n      swap1\n      pop\n      jump\t// out\n        /* \"#utility.yul\":19395:19814   */\n    tag_144:\n        /* \"#utility.yul\":19561:19565   */\n      0x00\n        /* \"#utility.yul\":19599:19601   */\n      0x20\n        /* \"#utility.yul\":19588:19597   */\n      dup3\n        /* \"#utility.yul\":19584:19602   */\n      add\n        /* \"#utility.yul\":19576:19602   */\n      swap1\n      pop\n        /* \"#utility.yul\":19648:19657   */\n      dup2\n        /* \"#utility.yul\":19642:19646   */\n      dup2\n        /* \"#utility.yul\":19638:19658   */\n      sub\n        /* \"#utility.yul\":19634:19635   */\n      0x00\n        /* \"#utility.yul\":19623:19632   */\n      dup4\n        /* \"#utility.yul\":19619:19636   */\n      add\n        /* \"#utility.yul\":19612:19659   */\n      mstore\n        /* \"#utility.yul\":19676:19807   */\n      tag_438\n        /* \"#utility.yul\":19802:19806   */\n      dup2\n        /* \"#utility.yul\":19676:19807   */\n      tag_242\n      jump\t// in\n    tag_438:\n        /* \"#utility.yul\":19668:19807   */\n      swap1\n      pop\n        /* \"#utility.yul\":19395:19814   */\n      swap2\n      swap1\n      pop\n      jump\t// out\n        /* \"#utility.yul\":19820:20000   */\n    tag_147:\n        /* \"#utility.yul\":19868:19945   */\n      0x4e487b7100000000000000000000000000000000000000000000000000000000\n        /* \"#utility.yul\":19865:19866   */\n      0x00\n        /* \"#utility.yul\":19858:19946   */\n      mstore\n        /* \"#utility.yul\":19965:19969   */\n      0x32\n        /* \"#utility.yul\":19962:19963   */\n      0x04\n        /* \"#utility.yul\":19955:19970   */\n      mstore\n        /* \"#utility.yul\":19989:19993   */\n      0x24\n        /* \"#utility.yul\":19986:19987   */\n      0x00\n        /* \"#utility.yul\":19979:19994   */\n      revert\n        /* \"#utility.yul\":20006:20338   */\n    tag_151:\n        /* \"#utility.yul\":20127:20131   */\n      0x00\n        /* \"#utility.yul\":20165:20167   */\n      0x40\n        /* \"#utility.yul\":20154:20163   */\n      dup3\n        /* \"#utility.yul\":20150:20168   */\n      add\n        /* \"#utility.yul\":20142:20168   */\n      swap1\n      pop\n        /* \"#utility.yul\":20178:20249   */\n      tag_441\n        /* \"#utility.yul\":20246:20247   */\n      0x00\n        /* \"#utility.yul\":20235:20244   */\n      dup4\n        /* \"#utility.yul\":20231:20248   */\n      add\n        /* \"#utility.yul\":20222:20228   */\n      dup6\n        /* \"#utility.yul\":20178:20249   */\n      tag_211\n      jump\t// in\n    tag_441:\n        /* \"#utility.yul\":20259:20331   */\n      tag_442\n        /* \"#utility.yul\":20327:20329   */\n      0x20\n        /* \"#utility.yul\":20316:20325   */\n      dup4\n        /* \"#utility.yul\":20312:20330   */\n      add\n        /* \"#utility.yul\":20303:20309   */\n      dup5\n        /* \"#utility.yul\":20259:20331   */\n      tag_198\n      jump\t// in\n    tag_442:\n        /* \"#utility.yul\":20006:20338   */\n      swap4\n      swap3\n      pop\n      pop\n      pop\n      jump\t// out\n        /* \"#utility.yul\":20344:20590   */\n    tag_243:\n        /* \"#utility.yul\":20484:20518   */\n      0x50726f706f73616c2063616e206265206164646573206f6e6c7920696e205072\n        /* \"#utility.yul\":20480:20481   */\n      0x00\n        /* \"#utility.yul\":20472:20478   */\n      dup3\n        /* \"#utility.yul\":20468:20482   */\n      add\n        /* \"#utility.yul\":20461:20519   */\n      mstore\n        /* \"#utility.yul\":20553:20582   */\n      0x6f706f73616c20526567697374726174696f6e2070686173653a310000000000\n        /* \"#utility.yul\":20548:20550   */\n      0x20\n        /* \"#utility.yul\":20540:20546   */\n      dup3\n        /* \"#utility.yul\":20536:20551   */\n      add\n        /* \"#utility.yul\":20529:20583   */\n      mstore\n        /* \"#utility.yul\":20344:20590   */\n      pop\n      jump\t// out\n        /* \"#utility.yul\":20596:20962   */\n    tag_244:\n        /* \"#utility.yul\":20738:20741   */\n      0x00\n        /* \"#utility.yul\":20759:20826   */\n      tag_445\n        /* \"#utility.yul\":20823:20825   */\n      0x3b\n        /* \"#utility.yul\":20818:20821   */\n      dup4\n        /* \"#utility.yul\":20759:20826   */\n      tag_194\n      jump\t// in\n    tag_445:\n        /* \"#utility.yul\":20752:20826   */\n      swap2\n      pop\n        /* \"#utility.yul\":20835:20928   */\n      tag_446\n        /* \"#utility.yul\":20924:20927   */\n      dup3\n        /* \"#utility.yul\":20835:20928   */\n      tag_243\n      jump\t// in\n    tag_446:\n        /* \"#utility.yul\":20953:20955   */\n      0x40\n        /* \"#utility.yul\":20948:20951   */\n      dup3\n        /* \"#utility.yul\":20944:20956   */\n      add\n        /* \"#utility.yul\":20937:20956   */\n      swap1\n      pop\n        /* \"#utility.yul\":20596:20962   */\n      swap2\n      swap1\n      pop\n      jump\t// out\n        /* \"#utility.yul\":20968:21387   */\n    tag_159:\n        /* \"#utility.yul\":21134:21138   */\n      0x00\n        /* \"#utility.yul\":21172:21174   */\n      0x20\n        /* \"#utility.yul\":21161:21170   */\n      dup3\n        /* \"#utility.yul\":21157:21175   */\n      add\n        /* \"#utility.yul\":21149:21175   */\n      swap1\n      pop\n        /* \"#utility.yul\":21221:21230   */\n      dup2\n        /* \"#utility.yul\":21215:21219   */\n      dup2\n        /* \"#utility.yul\":21211:21231   */\n      sub\n        /* \"#utility.yul\":21207:21208   */\n      0x00\n        /* \"#utility.yul\":21196:21205   */\n      dup4\n        /* \"#utility.yul\":21192:21209   */\n      add\n        /* \"#utility.yul\":21185:21232   */\n      mstore\n        /* \"#utility.yul\":21249:21380   */\n      tag_448\n        /* \"#utility.yul\":21375:21379   */\n      dup2\n        /* \"#utility.yul\":21249:21380   */\n      tag_244\n      jump\t// in\n    tag_448:\n        /* \"#utility.yul\":21241:21380   */\n      swap1\n      pop\n        /* \"#utility.yul\":20968:21387   */\n      swap2\n      swap1\n      pop\n      jump\t// out\n        /* \"#utility.yul\":21393:21623   */\n    tag_245:\n        /* \"#utility.yul\":21533:21567   */\n      0x57686974656c697374206d75737420636f6e7461696e206174206c6561737420\n        /* \"#utility.yul\":21529:21530   */\n      0x00\n        /* \"#utility.yul\":21521:21527   */\n      dup3\n        /* \"#utility.yul\":21517:21531   */\n      add\n        /* \"#utility.yul\":21510:21568   */\n      mstore\n        /* \"#utility.yul\":21602:21615   */\n      0x6f6e652061646472657373000000000000000000000000000000000000000000\n        /* \"#utility.yul\":21597:21599   */\n      0x20\n        /* \"#utility.yul\":21589:21595   */\n      dup3\n        /* \"#utility.yul\":21585:21600   */\n      add\n        /* \"#utility.yul\":21578:21616   */\n      mstore\n        /* \"#utility.yul\":21393:21623   */\n      pop\n      jump\t// out\n        /* \"#utility.yul\":21629:21995   */\n    tag_246:\n        /* \"#utility.yul\":21771:21774   */\n      0x00\n        /* \"#utility.yul\":21792:21859   */\n      tag_451\n        /* \"#utility.yul\":21856:21858   */\n      0x2b\n        /* \"#utility.yul\":21851:21854   */\n      dup4\n        /* \"#utility.yul\":21792:21859   */\n      tag_194\n      jump\t// in\n    tag_451:\n        /* \"#utility.yul\":21785:21859   */\n      swap2\n      pop\n        /* \"#utility.yul\":21868:21961   */\n      tag_452\n        /* \"#utility.yul\":21957:21960   */\n      dup3\n        /* \"#utility.yul\":21868:21961   */\n      tag_245\n      jump\t// in\n    tag_452:\n        /* \"#utility.yul\":21986:21988   */\n      0x40\n        /* \"#utility.yul\":21981:21984   */\n      dup3\n        /* \"#utility.yul\":21977:21989   */\n      add\n        /* \"#utility.yul\":21970:21989   */\n      swap1\n      pop\n        /* \"#utility.yul\":21629:21995   */\n      swap2\n      swap1\n      pop\n      jump\t// out\n        /* \"#utility.yul\":22001:22420   */\n    tag_162:\n        /* \"#utility.yul\":22167:22171   */\n      0x00\n        /* \"#utility.yul\":22205:22207   */\n      0x20\n        /* \"#utility.yul\":22194:22203   */\n      dup3\n        /* \"#utility.yul\":22190:22208   */\n      add\n        /* \"#utility.yul\":22182:22208   */\n      swap1\n      pop\n        /* \"#utility.yul\":22254:22263   */\n      dup2\n        /* \"#utility.yul\":22248:22252   */\n      dup2\n        /* \"#utility.yul\":22244:22264   */\n      sub\n        /* \"#utility.yul\":22240:22241   */\n      0x00\n        /* \"#utility.yul\":22229:22238   */\n      dup4\n        /* \"#utility.yul\":22225:22242   */\n      add\n        /* \"#utility.yul\":22218:22265   */\n      mstore\n        /* \"#utility.yul\":22282:22413   */\n      tag_454\n        /* \"#utility.yul\":22408:22412   */\n      dup2\n        /* \"#utility.yul\":22282:22413   */\n      tag_246\n      jump\t// in\n    tag_454:\n        /* \"#utility.yul\":22274:22413   */\n      swap1\n      pop\n        /* \"#utility.yul\":22001:22420   */\n      swap2\n      swap1\n      pop\n      jump\t// out\n        /* \"#utility.yul\":22426:22606   */\n    tag_247:\n        /* \"#utility.yul\":22566:22598   */\n      0x596f757220616472657373206973206e6f742077686974656c69737465640000\n        /* \"#utility.yul\":22562:22563   */\n      0x00\n        /* \"#utility.yul\":22554:22560   */\n      dup3\n        /* \"#utility.yul\":22550:22564   */\n      add\n        /* \"#utility.yul\":22543:22599   */\n      mstore\n        /* \"#utility.yul\":22426:22606   */\n      pop\n      jump\t// out\n        /* \"#utility.yul\":22612:22978   */\n    tag_248:\n        /* \"#utility.yul\":22754:22757   */\n      0x00\n        /* \"#utility.yul\":22775:22842   */\n      tag_457\n        /* \"#utility.yul\":22839:22841   */\n      0x1e\n        /* \"#utility.yul\":22834:22837   */\n      dup4\n        /* \"#utility.yul\":22775:22842   */\n      tag_194\n      jump\t// in\n    tag_457:\n        /* \"#utility.yul\":22768:22842   */\n      swap2\n      pop\n        /* \"#utility.yul\":22851:22944   */\n      tag_458\n        /* \"#utility.yul\":22940:22943   */\n      dup3\n        /* \"#utility.yul\":22851:22944   */\n      tag_247\n      jump\t// in\n    tag_458:\n        /* \"#utility.yul\":22969:22971   */\n      0x20\n        /* \"#utility.yul\":22964:22967   */\n      dup3\n        /* \"#utility.yul\":22960:22972   */\n      add\n        /* \"#utility.yul\":22953:22972   */\n      swap1\n      pop\n        /* \"#utility.yul\":22612:22978   */\n      swap2\n      swap1\n      pop\n      jump\t// out\n        /* \"#utility.yul\":22984:23403   */\n    tag_165:\n        /* \"#utility.yul\":23150:23154   */\n      0x00\n        /* \"#utility.yul\":23188:23190   */\n      0x20\n        /* \"#utility.yul\":23177:23186   */\n      dup3\n        /* \"#utility.yul\":23173:23191   */\n      add\n        /* \"#utility.yul\":23165:23191   */\n      swap1\n      pop\n        /* \"#utility.yul\":23237:23246   */\n      dup2\n        /* \"#utility.yul\":23231:23235   */\n      dup2\n        /* \"#utility.yul\":23227:23247   */\n      sub\n        /* \"#utility.yul\":23223:23224   */\n      0x00\n        /* \"#utility.yul\":23212:23221   */\n      dup4\n        /* \"#utility.yul\":23208:23225   */\n      add\n        /* \"#utility.yul\":23201:23248   */\n      mstore\n        /* \"#utility.yul\":23265:23396   */\n      tag_460\n        /* \"#utility.yul\":23391:23395   */\n      dup2\n        /* \"#utility.yul\":23265:23396   */\n      tag_248\n      jump\t// in\n    tag_460:\n        /* \"#utility.yul\":23257:23396   */\n      swap1\n      pop\n        /* \"#utility.yul\":22984:23403   */\n      swap2\n      swap1\n      pop\n      jump\t// out\n        /* \"#utility.yul\":23409:23550   */\n    tag_249:\n        /* \"#utility.yul\":23458:23462   */\n      0x00\n        /* \"#utility.yul\":23481:23484   */\n      dup2\n        /* \"#utility.yul\":23473:23484   */\n      swap1\n      pop\n        /* \"#utility.yul\":23504:23507   */\n      dup2\n        /* \"#utility.yul\":23501:23502   */\n      0x00\n        /* \"#utility.yul\":23494:23508   */\n      mstore\n        /* \"#utility.yul\":23538:23542   */\n      0x20\n        /* \"#utility.yul\":23535:23536   */\n      0x00\n        /* \"#utility.yul\":23525:23543   */\n      keccak256\n        /* \"#utility.yul\":23517:23543   */\n      swap1\n      pop\n        /* \"#utility.yul\":23409:23550   */\n      swap2\n      swap1\n      pop\n      jump\t// out\n        /* \"#utility.yul\":23556:23649   */\n    tag_250:\n        /* \"#utility.yul\":23593:23599   */\n      0x00\n        /* \"#utility.yul\":23640:23642   */\n      0x20\n        /* \"#utility.yul\":23635:23637   */\n      0x1f\n        /* \"#utility.yul\":23628:23633   */\n      dup4\n        /* \"#utility.yul\":23624:23638   */\n      add\n        /* \"#utility.yul\":23620:23643   */\n      div\n        /* \"#utility.yul\":23610:23643   */\n      swap1\n      pop\n        /* \"#utility.yul\":23556:23649   */\n      swap2\n      swap1\n      pop\n      jump\t// out\n        /* \"#utility.yul\":23655:23762   */\n    tag_251:\n        /* \"#utility.yul\":23699:23707   */\n      0x00\n        /* \"#utility.yul\":23749:23754   */\n      dup3\n        /* \"#utility.yul\":23743:23747   */\n      dup3\n        /* \"#utility.yul\":23739:23755   */\n      shl\n        /* \"#utility.yul\":23718:23755   */\n      swap1\n      pop\n        /* \"#utility.yul\":23655:23762   */\n      swap3\n      swap2\n      pop\n      pop\n      jump\t// out\n        /* \"#utility.yul\":23768:24161   */\n    tag_252:\n        /* \"#utility.yul\":23837:23843   */\n      0x00\n        /* \"#utility.yul\":23887:23888   */\n      0x08\n        /* \"#utility.yul\":23875:23885   */\n      dup4\n        /* \"#utility.yul\":23871:23889   */\n      mul\n        /* \"#utility.yul\":23910:24007   */\n      tag_465\n        /* \"#utility.yul\":23940:24006   */\n      0xffffffffffffffffffffffffffffffffffffffffffffffffffffffffffffffff\n        /* \"#utility.yul\":23929:23938   */\n      dup3\n        /* \"#utility.yul\":23910:24007   */\n      tag_251\n      jump\t// in\n    tag_465:\n        /* \"#utility.yul\":24028:24067   */\n      tag_466\n        /* \"#utility.yul\":24058:24066   */\n      dup7\n        /* \"#utility.yul\":24047:24056   */\n      dup4\n        /* \"#utility.yul\":24028:24067   */\n      tag_251\n      jump\t// in\n    tag_466:\n        /* \"#utility.yul\":24016:24067   */\n      swap6\n      pop\n        /* \"#utility.yul\":24100:24104   */\n      dup1\n        /* \"#utility.yul\":24096:24105   */\n      not\n        /* \"#utility.yul\":24089:24094   */\n      dup5\n        /* \"#utility.yul\":24085:24106   */\n      and\n        /* \"#utility.yul\":24076:24106   */\n      swap4\n      pop\n        /* \"#utility.yul\":24149:24153   */\n      dup1\n        /* \"#utility.yul\":24139:24147   */\n      dup7\n        /* \"#utility.yul\":24135:24154   */\n      and\n        /* \"#utility.yul\":24128:24133   */\n      dup5\n        /* \"#utility.yul\":24125:24155   */\n      or\n        /* \"#utility.yul\":24115:24155   */\n      swap3\n      pop\n        /* \"#utility.yul\":23844:24161   */\n      pop\n      pop\n        /* \"#utility.yul\":23768:24161   */\n      swap4\n      swap3\n      pop\n      pop\n      pop\n      jump\t// out\n        /* \"#utility.yul\":24167:24227   */\n    tag_253:\n        /* \"#utility.yul\":24195:24198   */\n      0x00\n        /* \"#utility.yul\":24216:24221   */\n      dup2\n        /* \"#utility.yul\":24209:24221   */\n      swap1\n      pop\n        /* \"#utility.yul\":24167:24227   */\n      swap2\n      swap1\n      pop\n      jump\t// out\n        /* \"#utility.yul\":24233:24375   */\n    tag_254:\n        /* \"#utility.yul\":24283:24292   */\n      0x00\n        /* \"#utility.yul\":24316:24369   */\n      tag_469\n        /* \"#utility.yul\":24334:24368   */\n      tag_470\n        /* \"#utility.yul\":24343:24367   */\n      tag_471\n        /* \"#utility.yul\":24361:24366   */\n      dup5\n        /* \"#utility.yul\":24343:24367   */\n      tag_190\n      jump\t// in\n    tag_471:\n        /* \"#utility.yul\":24334:24368   */\n      tag_253\n      jump\t// in\n    tag_470:\n        /* \"#utility.yul\":24316:24369   */\n      tag_190\n      jump\t// in\n    tag_469:\n        /* \"#utility.yul\":24303:24369   */\n      swap1\n      pop\n        /* \"#utility.yul\":24233:24375   */\n      swap2\n      swap1\n      pop\n      jump\t// out\n        /* \"#utility.yul\":24381:24456   */\n    tag_255:\n        /* \"#utility.yul\":24424:24427   */\n      0x00\n        /* \"#utility.yul\":24445:24450   */\n      dup2\n        /* \"#utility.yul\":24438:24450   */\n      swap1\n      pop\n        /* \"#utility.yul\":24381:24456   */\n      swap2\n      swap1\n      pop\n      jump\t// out\n        /* \"#utility.yul\":24462:24731   */\n    tag_256:\n        /* \"#utility.yul\":24572:24611   */\n      tag_474\n        /* \"#utility.yul\":24603:24610   */\n      dup4\n        /* \"#utility.yul\":24572:24611   */\n      tag_254\n      jump\t// in\n    tag_474:\n        /* \"#utility.yul\":24633:24724   */\n      tag_475\n        /* \"#utility.yul\":24682:24723   */\n      tag_476\n        /* \"#utility.yul\":24706:24722   */\n      dup3\n        /* \"#utility.yul\":24682:24723   */\n      tag_255\n      jump\t// in\n    tag_476:\n        /* \"#utility.yul\":24674:24680   */\n      dup5\n        /* \"#utility.yul\":24667:24671   */\n      dup5\n        /* \"#utility.yul\":24661:24672   */\n      sload\n        /* \"#utility.yul\":24633:24724   */\n      tag_252\n      jump\t// in\n    tag_475:\n        /* \"#utility.yul\":24627:24631   */\n      dup3\n        /* \"#utility.yul\":24620:24725   */\n      sstore\n        /* \"#utility.yul\":24538:24731   */\n      pop\n        /* \"#utility.yul\":24462:24731   */\n      pop\n      pop\n      pop\n      jump\t// out\n        /* \"#utility.yul\":24737:24810   */\n    tag_257:\n        /* \"#utility.yul\":24782:24785   */\n      0x00\n        /* \"#utility.yul\":24803:24804   */\n      0x00\n        /* \"#utility.yul\":24796:24804   */\n      swap1\n      pop\n        /* \"#utility.yul\":24737:24810   */\n      swap1\n      jump\t// out\n        /* \"#utility.yul\":24816:25005   */\n    tag_258:\n        /* \"#utility.yul\":24893:24925   */\n      tag_479\n      tag_257\n      jump\t// in\n    tag_479:\n        /* \"#utility.yul\":24934:24999   */\n      tag_480\n        /* \"#utility.yul\":24992:24998   */\n      dup2\n        /* \"#utility.yul\":24984:24990   */\n      dup5\n        /* \"#utility.yul\":24978:24982   */\n      dup5\n        /* \"#utility.yul\":24934:24999   */\n      tag_256\n      jump\t// in\n    tag_480:\n        /* \"#utility.yul\":24869:25005   */\n      pop\n        /* \"#utility.yul\":24816:25005   */\n      pop\n      pop\n      jump\t// out\n        /* \"#utility.yul\":25011:25197   */\n    tag_259:\n        /* \"#utility.yul\":25071:25191   */\n    tag_482:\n        /* \"#utility.yul\":25088:25091   */\n      dup2\n        /* \"#utility.yul\":25081:25086   */\n      dup2\n        /* \"#utility.yul\":25078:25092   */\n      lt\n        /* \"#utility.yul\":25071:25191   */\n      iszero\n      tag_484\n      jumpi\n        /* \"#utility.yul\":25142:25181   */\n      tag_485\n        /* \"#utility.yul\":25179:25180   */\n      0x00\n        /* \"#utility.yul\":25172:25177   */\n      dup3\n        /* \"#utility.yul\":25142:25181   */\n      tag_258\n      jump\t// in\n    tag_485:\n        /* \"#utility.yul\":25115:25116   */\n      0x01\n        /* \"#utility.yul\":25108:25113   */\n      dup2\n        /* \"#utility.yul\":25104:25117   */\n      add\n        /* \"#utility.yul\":25095:25117   */\n      swap1\n      pop\n        /* \"#utility.yul\":25071:25191   */\n      jump(tag_482)\n    tag_484:\n        /* \"#utility.yul\":25011:25197   */\n      pop\n      pop\n      jump\t// out\n        /* \"#utility.yul\":25203:25746   */\n    tag_260:\n        /* \"#utility.yul\":25304:25306   */\n      0x1f\n        /* \"#utility.yul\":25299:25302   */\n      dup3\n        /* \"#utility.yul\":25296:25307   */\n      gt\n        /* \"#utility.yul\":25293:25739   */\n      iszero\n      tag_487\n      jumpi\n        /* \"#utility.yul\":25338:25376   */\n      tag_488\n        /* \"#utility.yul\":25370:25375   */\n      dup2\n        /* \"#utility.yul\":25338:25376   */\n      tag_249\n      jump\t// in\n    tag_488:\n        /* \"#utility.yul\":25422:25451   */\n      tag_489\n        /* \"#utility.yul\":25440:25450   */\n      dup5\n        /* \"#utility.yul\":25422:25451   */\n      tag_250\n      jump\t// in\n    tag_489:\n        /* \"#utility.yul\":25412:25420   */\n      dup2\n        /* \"#utility.yul\":25408:25452   */\n      add\n        /* \"#utility.yul\":25605:25607   */\n      0x20\n        /* \"#utility.yul\":25593:25603   */\n      dup6\n        /* \"#utility.yul\":25590:25608   */\n      lt\n        /* \"#utility.yul\":25587:25636   */\n      iszero\n      tag_490\n      jumpi\n        /* \"#utility.yul\":25626:25634   */\n      dup2\n        /* \"#utility.yul\":25611:25634   */\n      swap1\n      pop\n        /* \"#utility.yul\":25587:25636   */\n    tag_490:\n        /* \"#utility.yul\":25649:25729   */\n      tag_491\n        /* \"#utility.yul\":25705:25727   */\n      tag_492\n        /* \"#utility.yul\":25723:25726   */\n      dup6\n        /* \"#utility.yul\":25705:25727   */\n      tag_250\n      jump\t// in\n    tag_492:\n        /* \"#utility.yul\":25695:25703   */\n      dup4\n        /* \"#utility.yul\":25691:25728   */\n      add\n        /* \"#utility.yul\":25678:25689   */\n      dup3\n        /* \"#utility.yul\":25649:25729   */\n      tag_259\n      jump\t// in\n    tag_491:\n        /* \"#utility.yul\":25308:25739   */\n      pop\n      pop\n        /* \"#utility.yul\":25293:25739   */\n    tag_487:\n        /* \"#utility.yul\":25203:25746   */\n      pop\n      pop\n      pop\n      jump\t// out\n        /* \"#utility.yul\":25752:25869   */\n    tag_261:\n        /* \"#utility.yul\":25806:25814   */\n      0x00\n        /* \"#utility.yul\":25856:25861   */\n      dup3\n        /* \"#utility.yul\":25850:25854   */\n      dup3\n        /* \"#utility.yul\":25846:25862   */\n      shr\n        /* \"#utility.yul\":25825:25862   */\n      swap1\n      pop\n        /* \"#utility.yul\":25752:25869   */\n      swap3\n      swap2\n      pop\n      pop\n      jump\t// out\n        /* \"#utility.yul\":25875:26044   */\n    tag_262:\n        /* \"#utility.yul\":25919:25925   */\n      0x00\n        /* \"#utility.yul\":25952:26003   */\n      tag_495\n        /* \"#utility.yul\":26000:26001   */\n      0x00\n        /* \"#utility.yul\":25996:26002   */\n      not\n        /* \"#utility.yul\":25988:25993   */\n      dup5\n        /* \"#utility.yul\":25985:25986   */\n      0x08\n        /* \"#utility.yul\":25981:25994   */\n      mul\n        /* \"#utility.yul\":25952:26003   */\n      tag_261\n      jump\t// in\n    tag_495:\n        /* \"#utility.yul\":25948:26004   */\n      not\n        /* \"#utility.yul\":26033:26037   */\n      dup1\n        /* \"#utility.yul\":26027:26031   */\n      dup4\n        /* \"#utility.yul\":26023:26038   */\n      and\n        /* \"#utility.yul\":26013:26038   */\n      swap2\n      pop\n        /* \"#utility.yul\":25926:26044   */\n      pop\n        /* \"#utility.yul\":25875:26044   */\n      swap3\n      swap2\n      pop\n      pop\n      jump\t// out\n        /* \"#utility.yul\":26049:26344   */\n    tag_263:\n        /* \"#utility.yul\":26125:26129   */\n      0x00\n        /* \"#utility.yul\":26271:26300   */\n      tag_497\n        /* \"#utility.yul\":26296:26299   */\n      dup4\n        /* \"#utility.yul\":26290:26294   */\n      dup4\n        /* \"#utility.yul\":26271:26300   */\n      tag_262\n      jump\t// in\n    tag_497:\n        /* \"#utility.yul\":26263:26300   */\n      swap2\n      pop\n        /* \"#utility.yul\":26333:26336   */\n      dup3\n        /* \"#utility.yul\":26330:26331   */\n      0x02\n        /* \"#utility.yul\":26326:26337   */\n      mul\n        /* \"#utility.yul\":26320:26324   */\n      dup3\n        /* \"#utility.yul\":26317:26338   */\n      or\n        /* \"#utility.yul\":26309:26338   */\n      swap1\n      pop\n        /* \"#utility.yul\":26049:26344   */\n      swap3\n      swap2\n      pop\n      pop\n      jump\t// out\n        /* \"#utility.yul\":26349:27744   */\n    tag_168:\n        /* \"#utility.yul\":26466:26503   */\n      tag_499\n        /* \"#utility.yul\":26499:26502   */\n      dup3\n        /* \"#utility.yul\":26466:26503   */\n      tag_193\n      jump\t// in\n    tag_499:\n        /* \"#utility.yul\":26568:26586   */\n      0xffffffffffffffff\n        /* \"#utility.yul\":26560:26566   */\n      dup2\n        /* \"#utility.yul\":26557:26587   */\n      gt\n        /* \"#utility.yul\":26554:26610   */\n      iszero\n      tag_500\n      jumpi\n        /* \"#utility.yul\":26590:26608   */\n      tag_501\n      tag_216\n      jump\t// in\n    tag_501:\n        /* \"#utility.yul\":26554:26610   */\n    tag_500:\n        /* \"#utility.yul\":26634:26672   */\n      tag_502\n        /* \"#utility.yul\":26666:26670   */\n      dup3\n        /* \"#utility.yul\":26660:26671   */\n      sload\n        /* \"#utility.yul\":26634:26672   */\n      tag_58\n      jump\t// in\n    tag_502:\n        /* \"#utility.yul\":26719:26786   */\n      tag_503\n        /* \"#utility.yul\":26779:26785   */\n      dup3\n        /* \"#utility.yul\":26771:26777   */\n      dup3\n        /* \"#utility.yul\":26765:26769   */\n      dup6\n        /* \"#utility.yul\":26719:26786   */\n      tag_260\n      jump\t// in\n    tag_503:\n        /* \"#utility.yul\":26813:26814   */\n      0x00\n        /* \"#utility.yul\":26837:26841   */\n      0x20\n        /* \"#utility.yul\":26824:26841   */\n      swap1\n      pop\n        /* \"#utility.yul\":26869:26871   */\n      0x1f\n        /* \"#utility.yul\":26861:26867   */\n      dup4\n        /* \"#utility.yul\":26858:26872   */\n      gt\n        /* \"#utility.yul\":26886:26887   */\n      0x01\n        /* \"#utility.yul\":26881:27499   */\n      dup2\n      eq\n      tag_505\n      jumpi\n        /* \"#utility.yul\":27543:27544   */\n      0x00\n        /* \"#utility.yul\":27560:27566   */\n      dup5\n        /* \"#utility.yul\":27557:27634   */\n      iszero\n      tag_506\n      jumpi\n        /* \"#utility.yul\":27609:27618   */\n      dup3\n        /* \"#utility.yul\":27604:27607   */\n      dup8\n        /* \"#utility.yul\":27600:27619   */\n      add\n        /* \"#utility.yul\":27594:27620   */\n      mload\n        /* \"#utility.yul\":27585:27620   */\n      swap1\n      pop\n        /* \"#utility.yul\":27557:27634   */\n    tag_506:\n        /* \"#utility.yul\":27660:27727   */\n      tag_507\n        /* \"#utility.yul\":27720:27726   */\n      dup6\n        /* \"#utility.yul\":27713:27718   */\n      dup3\n        /* \"#utility.yul\":27660:27727   */\n      tag_263\n      jump\t// in\n    tag_507:\n        /* \"#utility.yul\":27654:27658   */\n      dup7\n        /* \"#utility.yul\":27647:27728   */\n      sstore\n        /* \"#utility.yul\":27516:27738   */\n      pop\n        /* \"#utility.yul\":26851:27738   */\n      jump(tag_504)\n        /* \"#utility.yul\":26881:27499   */\n    tag_505:\n        /* \"#utility.yul\":26933:26937   */\n      0x1f\n        /* \"#utility.yul\":26929:26938   */\n      not\n        /* \"#utility.yul\":26921:26927   */\n      dup5\n        /* \"#utility.yul\":26917:26939   */\n      and\n        /* \"#utility.yul\":26967:27004   */\n      tag_508\n        /* \"#utility.yul\":26999:27003   */\n      dup7\n        /* \"#utility.yul\":26967:27004   */\n      tag_249\n      jump\t// in\n    tag_508:\n        /* \"#utility.yul\":27026:27027   */\n      0x00\n        /* \"#utility.yul\":27040:27248   */\n    tag_509:\n        /* \"#utility.yul\":27054:27061   */\n      dup3\n        /* \"#utility.yul\":27051:27052   */\n      dup2\n        /* \"#utility.yul\":27048:27062   */\n      lt\n        /* \"#utility.yul\":27040:27248   */\n      iszero\n      tag_511\n      jumpi\n        /* \"#utility.yul\":27133:27142   */\n      dup5\n        /* \"#utility.yul\":27128:27131   */\n      dup10\n        /* \"#utility.yul\":27124:27143   */\n      add\n        /* \"#utility.yul\":27118:27144   */\n      mload\n        /* \"#utility.yul\":27110:27116   */\n      dup3\n        /* \"#utility.yul\":27103:27145   */\n      sstore\n        /* \"#utility.yul\":27184:27185   */\n      0x01\n        /* \"#utility.yul\":27176:27182   */\n      dup3\n        /* \"#utility.yul\":27172:27186   */\n      add\n        /* \"#utility.yul\":27162:27186   */\n      swap2\n      pop\n        /* \"#utility.yul\":27231:27233   */\n      0x20\n        /* \"#utility.yul\":27220:27229   */\n      dup6\n        /* \"#utility.yul\":27216:27234   */\n      add\n        /* \"#utility.yul\":27203:27234   */\n      swap5\n      pop\n        /* \"#utility.yul\":27077:27081   */\n      0x20\n        /* \"#utility.yul\":27074:27075   */\n      dup2\n        /* \"#utility.yul\":27070:27082   */\n      add\n        /* \"#utility.yul\":27065:27082   */\n      swap1\n      pop\n        /* \"#utility.yul\":27040:27248   */\n      jump(tag_509)\n    tag_511:\n        /* \"#utility.yul\":27276:27282   */\n      dup7\n        /* \"#utility.yul\":27267:27274   */\n      dup4\n        /* \"#utility.yul\":27264:27283   */\n      lt\n        /* \"#utility.yul\":27261:27440   */\n      iszero\n      tag_512\n      jumpi\n        /* \"#utility.yul\":27334:27343   */\n      dup5\n        /* \"#utility.yul\":27329:27332   */\n      dup10\n        /* \"#utility.yul\":27325:27344   */\n      add\n        /* \"#utility.yul\":27319:27345   */\n      mload\n        /* \"#utility.yul\":27377:27425   */\n      tag_513\n        /* \"#utility.yul\":27419:27423   */\n      0x1f\n        /* \"#utility.yul\":27411:27417   */\n      dup10\n        /* \"#utility.yul\":27407:27424   */\n      and\n        /* \"#utility.yul\":27396:27405   */\n      dup3\n        /* \"#utility.yul\":27377:27425   */\n      tag_262\n      jump\t// in\n    tag_513:\n        /* \"#utility.yul\":27369:27375   */\n      dup4\n        /* \"#utility.yul\":27362:27426   */\n      sstore\n        /* \"#utility.yul\":27284:27440   */\n      pop\n        /* \"#utility.yul\":27261:27440   */\n    tag_512:\n        /* \"#utility.yul\":27486:27487   */\n      0x01\n        /* \"#utility.yul\":27482:27483   */\n      0x02\n        /* \"#utility.yul\":27474:27480   */\n      dup9\n        /* \"#utility.yul\":27470:27484   */\n      mul\n        /* \"#utility.yul\":27466:27488   */\n      add\n        /* \"#utility.yul\":27460:27464   */\n      dup9\n        /* \"#utility.yul\":27453:27489   */\n      sstore\n        /* \"#utility.yul\":26888:27499   */\n      pop\n      pop\n      pop\n        /* \"#utility.yul\":26851:27738   */\n    tag_504:\n      pop\n        /* \"#utility.yul\":26441:27744   */\n      pop\n      pop\n      pop\n        /* \"#utility.yul\":26349:27744   */\n      pop\n      pop\n      jump\t// out\n        /* \"#utility.yul\":27750:27944   */\n    tag_170:\n        /* \"#utility.yul\":27790:27794   */\n      0x00\n        /* \"#utility.yul\":27810:27830   */\n      tag_515\n        /* \"#utility.yul\":27828:27829   */\n      dup3\n        /* \"#utility.yul\":27810:27830   */\n      tag_190\n      jump\t// in\n    tag_515:\n        /* \"#utility.yul\":27805:27830   */\n      swap2\n      pop\n        /* \"#utility.yul\":27844:27864   */\n      tag_516\n        /* \"#utility.yul\":27862:27863   */\n      dup4\n        /* \"#utility.yul\":27844:27864   */\n      tag_190\n      jump\t// in\n    tag_516:\n        /* \"#utility.yul\":27839:27864   */\n      swap3\n      pop\n        /* \"#utility.yul\":27888:27889   */\n      dup3\n        /* \"#utility.yul\":27885:27886   */\n      dup3\n        /* \"#utility.yul\":27881:27890   */\n      sub\n        /* \"#utility.yul\":27873:27890   */\n      swap1\n      pop\n        /* \"#utility.yul\":27912:27913   */\n      dup2\n        /* \"#utility.yul\":27906:27910   */\n      dup2\n        /* \"#utility.yul\":27903:27914   */\n      gt\n        /* \"#utility.yul\":27900:27937   */\n      iszero\n      tag_517\n      jumpi\n        /* \"#utility.yul\":27917:27935   */\n      tag_518\n      tag_224\n      jump\t// in\n    tag_518:\n        /* \"#utility.yul\":27900:27937   */\n    tag_517:\n        /* \"#utility.yul\":27750:27944   */\n      swap3\n      swap2\n      pop\n      pop\n      jump\t// out\n\n    auxdata: 0xa2646970667358221220a0f0187884f384e63cecc3aad1a04284231f3ecc34f55ee96e9edf30e4e92f9264736f6c634300081b0033\n}\n",
				"bytecode": {
					"linkReferences": {},
					"object": "608060405234801561000f575f5ffd5b50335f73ffffffffffffffffffffffffffffffffffffffff168173ffffffffffffffffffffffffffffffffffffffff1603610081575f6040517f1e4fbdf700000000000000000000000000000000000000000000000000000000815260040161007891906101c0565b60405180910390fd5b610090816100c060201b60201c565b5060055f60146101000a81548160ff021916908360058111156100b6576100b56101d9565b5b0217905550610206565b5f5f5f9054906101000a900473ffffffffffffffffffffffffffffffffffffffff169050815f5f6101000a81548173ffffffffffffffffffffffffffffffffffffffff021916908373ffffffffffffffffffffffffffffffffffffffff1602179055508173ffffffffffffffffffffffffffffffffffffffff168173ffffffffffffffffffffffffffffffffffffffff167f8be0079c531659141344cd1fd0a4f28419497f9722a3daafe3b4186f6b6457e060405160405180910390a35050565b5f73ffffffffffffffffffffffffffffffffffffffff82169050919050565b5f6101aa82610181565b9050919050565b6101ba816101a0565b82525050565b5f6020820190506101d35f8301846101b1565b92915050565b7f4e487b71000000000000000000000000000000000000000000000000000000005f52602160045260245ffd5b611d86806102135f395ff3fe608060405234801561000f575f5ffd5b50600436106100a7575f3560e01c8063a2fb11751161006f578063a2fb11751461012c578063c08cc02d1461015d578063cfdb63ac1461017b578063dcd6a5cd14610197578063e6adaecc146101b3578063f2fde38b146101cf576100a7565b8063013cf08b146100ab57806343344983146100dc5780634ea49925146100fa578063715018a6146101045780638da5cb5b1461010e575b5f5ffd5b6100c560048036038101906100c09190610f4b565b6101eb565b6040516100d3929190610ff5565b60405180910390f35b6100e46102a0565b6040516100f1919061116f565b60405180910390f35b610102610395565b005b61010c6104cd565b005b6101166104e0565b60405161012391906111ce565b60405180910390f35b61014660048036038101906101419190610f4b565b610507565b604051610154929190610ff5565b60405180910390f35b6101656105bc565b60405161017291906111e7565b60405180910390f35b6101956004803603810190610190919061122a565b6105c8565b005b6101b160048036038101906101ac9190610f4b565b610819565b005b6101cd60048036038101906101c89190611381565b610b45565b005b6101e960048036038101906101e4919061122a565b610d34565b005b600381815481106101fa575f80fd5b905f5260205f2090600202015f91509050805f018054610219906113f5565b80601f0160208091040260200160405190810160405280929190818152602001828054610245906113f5565b80156102905780601f1061026757610100808354040283529160200191610290565b820191905f5260205f20905b81548152906001019060200180831161027357829003601f168201915b5050505050908060010154905082565b60606003805480602002602001604051908101604052809291908181526020015f905b8282101561038c578382905f5260205f2090600202016040518060400160405290815f820180546102f3906113f5565b80601f016020809104026020016040519081016040528092919081815260200182805461031f906113f5565b801561036a5780601f106103415761010080835404028352916020019161036a565b820191905f5260205f20905b81548152906001019060200180831161034d57829003601f168201915b50505050508152602001600182015481525050815260200190600101906102c3565b50505050905090565b61039d610db8565b5f5f60149054906101000a900460ff1690506005808111156103c2576103c1611425565b5b5f60149054906101000a900460ff1660058111156103e3576103e2611425565b5b03610416575f5f60146101000a81548160ff0219169083600581111561040c5761040b611425565b5b021790555061047e565b60015f60149054906101000a900460ff16600581111561043957610438611425565b5b610443919061147f565b600581111561045557610454611425565b5b5f60146101000a81548160ff0219169083600581111561047857610477611425565b5b02179055505b5f5f60149054906101000a900460ff1690507f0a97a4ee45751e2abf3e4fc8946939630b11b371ea8ae39ccdc3056e98f5cc3f82826040516104c19291906114f8565b60405180910390a15050565b6104d5610db8565b6104de5f610e3f565b565b5f5f5f9054906101000a900473ffffffffffffffffffffffffffffffffffffffff16905090565b60058181548110610516575f80fd5b905f5260205f2090600202015f91509050805f018054610535906113f5565b80601f0160208091040260200160405190810160405280929190818152602001828054610561906113f5565b80156105ac5780601f10610583576101008083540402835291602001916105ac565b820191905f5260205f20905b81548152906001019060200180831161058f57829003601f168201915b5050505050908060010154905082565b5f600380549050905090565b6105d0610db8565b5f60058111156105e3576105e2611425565b5b5f60149054906101000a900460ff16600581111561060457610603611425565b5b14610644576040517f08c379a000000000000000000000000000000000000000000000000000000000815260040161063b9061158f565b60405180910390fd5b60015f8273ffffffffffffffffffffffffffffffffffffffff1673ffffffffffffffffffffffffffffffffffffffff1681526020019081526020015f205f9054906101000a900460ff16156106ce576040517f08c379a00000000000000000000000000000000000000000000000000000000081526004016106c5906115f7565b60405180910390fd5b60405180606001604052806001151581526020015f151581526020015f81525060025f8373ffffffffffffffffffffffffffffffffffffffff1673ffffffffffffffffffffffffffffffffffffffff1681526020019081526020015f205f820151815f015f6101000a81548160ff0219169083151502179055506020820151815f0160016101000a81548160ff021916908315150217905550604082015181600101559050506001805f8373ffffffffffffffffffffffffffffffffffffffff1673ffffffffffffffffffffffffffffffffffffffff1681526020019081526020015f205f6101000a81548160ff02191690831515021790555060045f8154809291906107da90611615565b91905055507fb6be2187d059cc2a55fe29e0e503b566e1e0f8c8780096e185429350acffd3dd8160405161080e91906111ce565b60405180910390a150565b6003600581111561082d5761082c611425565b5b5f60149054906101000a900460ff16600581111561084e5761084d611425565b5b1461088e576040517f08c379a0000000000000000000000000000000000000000000000000000000008152600401610885906116cc565b60405180910390fd5b5f600380549050116108d5576040517f08c379a00000000000000000000000000000000000000000000000000000000081526004016108cc90611780565b60405180910390fd5b60025f3373ffffffffffffffffffffffffffffffffffffffff1673ffffffffffffffffffffffffffffffffffffffff1681526020019081526020015f205f015f9054906101000a900460ff16610960576040517f08c379a0000000000000000000000000000000000000000000000000000000008152600401610957906117e8565b60405180910390fd5b60025f3373ffffffffffffffffffffffffffffffffffffffff1673ffffffffffffffffffffffffffffffffffffffff1681526020019081526020015f205f0160019054906101000a900460ff16156109ed576040517f08c379a00000000000000000000000000000000000000000000000000000000081526004016109e490611850565b60405180910390fd5b6003805490508110610a34576040517f08c379a0000000000000000000000000000000000000000000000000000000008152600401610a2b906118b8565b60405180910390fd5b600160025f3373ffffffffffffffffffffffffffffffffffffffff1673ffffffffffffffffffffffffffffffffffffffff1681526020019081526020015f205f0160016101000a81548160ff0219169083151502179055508060025f3373ffffffffffffffffffffffffffffffffffffffff1673ffffffffffffffffffffffffffffffffffffffff1681526020019081526020015f206001018190555060038181548110610ae557610ae46118d6565b5b905f5260205f2090600202016001015f815480929190610b0490611615565b91905055507f4d99b957a2bc29a30ebd96a7be8e68fe50a3c701db28a91436490b7d53870ca43382604051610b3a929190611903565b60405180910390a150565b60016005811115610b5957610b58611425565b5b5f60149054906101000a900460ff166005811115610b7a57610b79611425565b5b14610bba576040517f08c379a0000000000000000000000000000000000000000000000000000000008152600401610bb19061199a565b60405180910390fd5b5f60045411610bfe576040517f08c379a0000000000000000000000000000000000000000000000000000000008152600401610bf590611a28565b60405180910390fd5b60015f3373ffffffffffffffffffffffffffffffffffffffff1673ffffffffffffffffffffffffffffffffffffffff1681526020019081526020015f205f9054906101000a900460ff16610c87576040517f08c379a0000000000000000000000000000000000000000000000000000000008152600401610c7e90611a90565b60405180910390fd5b600360405180604001604052808381526020015f815250908060018154018082558091505060019003905f5260205f2090600202015f909190919091505f820151815f019081610cd79190611c4e565b506020820151816001015550505f6001600380549050610cf79190611d1d565b90507f92e393e9b54e2f801d3ea4beb0c5e71a21cc34a5d34b77d0fb8a3aa1650dc18f81604051610d2891906111e7565b60405180910390a15050565b610d3c610db8565b5f73ffffffffffffffffffffffffffffffffffffffff168173ffffffffffffffffffffffffffffffffffffffff1603610dac575f6040517f1e4fbdf7000000000000000000000000000000000000000000000000000000008152600401610da391906111ce565b60405180910390fd5b610db581610e3f565b50565b610dc0610f00565b73ffffffffffffffffffffffffffffffffffffffff16610dde6104e0565b73ffffffffffffffffffffffffffffffffffffffff1614610e3d57610e01610f00565b6040517f118cdaa7000000000000000000000000000000000000000000000000000000008152600401610e3491906111ce565b60405180910390fd5b565b5f5f5f9054906101000a900473ffffffffffffffffffffffffffffffffffffffff169050815f5f6101000a81548173ffffffffffffffffffffffffffffffffffffffff021916908373ffffffffffffffffffffffffffffffffffffffff1602179055508173ffffffffffffffffffffffffffffffffffffffff168173ffffffffffffffffffffffffffffffffffffffff167f8be0079c531659141344cd1fd0a4f28419497f9722a3daafe3b4186f6b6457e060405160405180910390a35050565b5f33905090565b5f604051905090565b5f5ffd5b5f5ffd5b5f819050919050565b610f2a81610f18565b8114610f34575f5ffd5b50565b5f81359050610f4581610f21565b92915050565b5f60208284031215610f6057610f5f610f10565b5b5f610f6d84828501610f37565b91505092915050565b5f81519050919050565b5f82825260208201905092915050565b8281835e5f83830152505050565b5f601f19601f8301169050919050565b5f610fb882610f76565b610fc28185610f80565b9350610fd2818560208601610f90565b610fdb81610f9e565b840191505092915050565b610fef81610f18565b82525050565b5f6040820190508181035f83015261100d8185610fae565b905061101c6020830184610fe6565b9392505050565b5f81519050919050565b5f82825260208201905092915050565b5f819050602082019050919050565b5f82825260208201905092915050565b5f61106682610f76565b611070818561104c565b9350611080818560208601610f90565b61108981610f9e565b840191505092915050565b61109d81610f18565b82525050565b5f604083015f8301518482035f8601526110bd828261105c565b91505060208301516110d26020860182611094565b508091505092915050565b5f6110e883836110a3565b905092915050565b5f602082019050919050565b5f61110682611023565b611110818561102d565b9350836020820285016111228561103d565b805f5b8581101561115d578484038952815161113e85826110dd565b9450611149836110f0565b925060208a01995050600181019050611125565b50829750879550505050505092915050565b5f6020820190508181035f83015261118781846110fc565b905092915050565b5f73ffffffffffffffffffffffffffffffffffffffff82169050919050565b5f6111b88261118f565b9050919050565b6111c8816111ae565b82525050565b5f6020820190506111e15f8301846111bf565b92915050565b5f6020820190506111fa5f830184610fe6565b92915050565b611209816111ae565b8114611213575f5ffd5b50565b5f8135905061122481611200565b92915050565b5f6020828403121561123f5761123e610f10565b5b5f61124c84828501611216565b91505092915050565b5f5ffd5b5f5ffd5b7f4e487b71000000000000000000000000000000000000000000000000000000005f52604160045260245ffd5b61129382610f9e565b810181811067ffffffffffffffff821117156112b2576112b161125d565b5b80604052505050565b5f6112c4610f07565b90506112d0828261128a565b919050565b5f67ffffffffffffffff8211156112ef576112ee61125d565b5b6112f882610f9e565b9050602081019050919050565b828183375f83830152505050565b5f611325611320846112d5565b6112bb565b90508281526020810184848401111561134157611340611259565b5b61134c848285611305565b509392505050565b5f82601f83011261136857611367611255565b5b8135611378848260208601611313565b91505092915050565b5f6020828403121561139657611395610f10565b5b5f82013567ffffffffffffffff8111156113b3576113b2610f14565b5b6113bf84828501611354565b91505092915050565b7f4e487b71000000000000000000000000000000000000000000000000000000005f52602260045260245ffd5b5f600282049050600182168061140c57607f821691505b60208210810361141f5761141e6113c8565b5b50919050565b7f4e487b71000000000000000000000000000000000000000000000000000000005f52602160045260245ffd5b7f4e487b71000000000000000000000000000000000000000000000000000000005f52601160045260245ffd5b5f61148982610f18565b915061149483610f18565b92508282019050808211156114ac576114ab611452565b5b92915050565b600681106114c3576114c2611425565b5b50565b5f8190506114d3826114b2565b919050565b5f6114e2826114c6565b9050919050565b6114f2816114d8565b82525050565b5f60408201905061150b5f8301856114e9565b61151860208301846114e9565b9392505050565b7f416464726573732063616e206265206164646564206f6e6c7920696e205265675f8201527f697374726174696f6e2070686173653a30000000000000000000000000000000602082015250565b5f611579603183610f80565b91506115848261151f565b604082019050919050565b5f6020820190508181035f8301526115a68161156d565b9050919050565b7f4164647265737320616c726561647920726567697374657265640000000000005f82015250565b5f6115e1601a83610f80565b91506115ec826115ad565b602082019050919050565b5f6020820190508181035f83015261160e816115d5565b9050919050565b5f61161f82610f18565b91507fffffffffffffffffffffffffffffffffffffffffffffffffffffffffffffffff820361165157611650611452565b5b600182019050919050565b7f50726f706f73616c2063616e206265206164646573206f6e6c7920696e20766f5f8201527f74696e672070686173653a330000000000000000000000000000000000000000602082015250565b5f6116b6602c83610f80565b91506116c18261165c565b604082019050919050565b5f6020820190508181035f8301526116e3816116aa565b9050919050565b7f596f75206861766520746f20676574206174206c656174206f6e652070726f705f8201527f6f73616c20696e206f7264657220746f2070726f63656564206120766f74696e60208201527f6720706861736500000000000000000000000000000000000000000000000000604082015250565b5f61176a604783610f80565b9150611775826116ea565b606082019050919050565b5f6020820190508181035f8301526117978161175e565b9050919050565b7f596f75206172206e6f742072656769737465726564206173206120766f7465725f82015250565b5f6117d2602083610f80565b91506117dd8261179e565b602082019050919050565b5f6020820190508181035f8301526117ff816117c6565b9050919050565b7f596f75206861766520616c726561647920766f746564000000000000000000005f82015250565b5f61183a601683610f80565b915061184582611806565b602082019050919050565b5f6020820190508181035f8301526118678161182e565b9050919050565b7f496e76616c69642070726f706f73616c2063686f6963650000000000000000005f82015250565b5f6118a2601783610f80565b91506118ad8261186e565b602082019050919050565b5f6020820190508181035f8301526118cf81611896565b9050919050565b7f4e487b71000000000000000000000000000000000000000000000000000000005f52603260045260245ffd5b5f6040820190506119165f8301856111bf565b6119236020830184610fe6565b9392505050565b7f50726f706f73616c2063616e206265206164646573206f6e6c7920696e2050725f8201527f6f706f73616c20526567697374726174696f6e2070686173653a310000000000602082015250565b5f611984603b83610f80565b915061198f8261192a565b604082019050919050565b5f6020820190508181035f8301526119b181611978565b9050919050565b7f57686974656c697374206d75737420636f6e7461696e206174206c65617374205f8201527f6f6e652061646472657373000000000000000000000000000000000000000000602082015250565b5f611a12602b83610f80565b9150611a1d826119b8565b604082019050919050565b5f6020820190508181035f830152611a3f81611a06565b9050919050565b7f596f757220616472657373206973206e6f742077686974656c697374656400005f82015250565b5f611a7a601e83610f80565b9150611a8582611a46565b602082019050919050565b5f6020820190508181035f830152611aa781611a6e565b9050919050565b5f819050815f5260205f209050919050565b5f6020601f8301049050919050565b5f82821b905092915050565b5f60088302611b0a7fffffffffffffffffffffffffffffffffffffffffffffffffffffffffffffffff82611acf565b611b148683611acf565b95508019841693508086168417925050509392505050565b5f819050919050565b5f611b4f611b4a611b4584610f18565b611b2c565b610f18565b9050919050565b5f819050919050565b611b6883611b35565b611b7c611b7482611b56565b848454611adb565b825550505050565b5f5f905090565b611b93611b84565b611b9e818484611b5f565b505050565b5b81811015611bc157611bb65f82611b8b565b600181019050611ba4565b5050565b601f821115611c0657611bd781611aae565b611be084611ac0565b81016020851015611bef578190505b611c03611bfb85611ac0565b830182611ba3565b50505b505050565b5f82821c905092915050565b5f611c265f1984600802611c0b565b1980831691505092915050565b5f611c3e8383611c17565b9150826002028217905092915050565b611c5782610f76565b67ffffffffffffffff811115611c7057611c6f61125d565b5b611c7a82546113f5565b611c85828285611bc5565b5f60209050601f831160018114611cb6575f8415611ca4578287015190505b611cae8582611c33565b865550611d15565b601f198416611cc486611aae565b5f5b82811015611ceb57848901518255600182019150602085019450602081019050611cc6565b86831015611d085784890151611d04601f891682611c17565b8355505b6001600288020188555050505b505050505050565b5f611d2782610f18565b9150611d3283610f18565b9250828203905081811115611d4a57611d49611452565b5b9291505056fea2646970667358221220a0f0187884f384e63cecc3aad1a04284231f3ecc34f55ee96e9edf30e4e92f9264736f6c634300081b0033",
					"opcodes": "PUSH1 0x80 PUSH1 0x40 MSTORE CALLVALUE DUP1 ISZERO PUSH2 0xF JUMPI PUSH0 PUSH0 REVERT JUMPDEST POP CALLER PUSH0 PUSH20 0xFFFFFFFFFFFFFFFFFFFFFFFFFFFFFFFFFFFFFFFF AND DUP2 PUSH20 0xFFFFFFFFFFFFFFFFFFFFFFFFFFFFFFFFFFFFFFFF AND SUB PUSH2 0x81 JUMPI PUSH0 PUSH1 0x40 MLOAD PUSH32 0x1E4FBDF700000000000000000000000000000000000000000000000000000000 DUP2 MSTORE PUSH1 0x4 ADD PUSH2 0x78 SWAP2 SWAP1 PUSH2 0x1C0 JUMP JUMPDEST PUSH1 0x40 MLOAD DUP1 SWAP2 SUB SWAP1 REVERT JUMPDEST PUSH2 0x90 DUP2 PUSH2 0xC0 PUSH1 0x20 SHL PUSH1 0x20 SHR JUMP JUMPDEST POP PUSH1 0x5 PUSH0 PUSH1 0x14 PUSH2 0x100 EXP DUP2 SLOAD DUP2 PUSH1 0xFF MUL NOT AND SWAP1 DUP4 PUSH1 0x5 DUP2 GT ISZERO PUSH2 0xB6 JUMPI PUSH2 0xB5 PUSH2 0x1D9 JUMP JUMPDEST JUMPDEST MUL OR SWAP1 SSTORE POP PUSH2 0x206 JUMP JUMPDEST PUSH0 PUSH0 PUSH0 SWAP1 SLOAD SWAP1 PUSH2 0x100 EXP SWAP1 DIV PUSH20 0xFFFFFFFFFFFFFFFFFFFFFFFFFFFFFFFFFFFFFFFF AND SWAP1 POP DUP2 PUSH0 PUSH0 PUSH2 0x100 EXP DUP2 SLOAD DUP2 PUSH20 0xFFFFFFFFFFFFFFFFFFFFFFFFFFFFFFFFFFFFFFFF MUL NOT AND SWAP1 DUP4 PUSH20 0xFFFFFFFFFFFFFFFFFFFFFFFFFFFFFFFFFFFFFFFF AND MUL OR SWAP1 SSTORE POP DUP2 PUSH20 0xFFFFFFFFFFFFFFFFFFFFFFFFFFFFFFFFFFFFFFFF AND DUP2 PUSH20 0xFFFFFFFFFFFFFFFFFFFFFFFFFFFFFFFFFFFFFFFF AND PUSH32 0x8BE0079C531659141344CD1FD0A4F28419497F9722A3DAAFE3B4186F6B6457E0 PUSH1 0x40 MLOAD PUSH1 0x40 MLOAD DUP1 SWAP2 SUB SWAP1 LOG3 POP POP JUMP JUMPDEST PUSH0 PUSH20 0xFFFFFFFFFFFFFFFFFFFFFFFFFFFFFFFFFFFFFFFF DUP3 AND SWAP1 POP SWAP2 SWAP1 POP JUMP JUMPDEST PUSH0 PUSH2 0x1AA DUP3 PUSH2 0x181 JUMP JUMPDEST SWAP1 POP SWAP2 SWAP1 POP JUMP JUMPDEST PUSH2 0x1BA DUP2 PUSH2 0x1A0 JUMP JUMPDEST DUP3 MSTORE POP POP JUMP JUMPDEST PUSH0 PUSH1 0x20 DUP3 ADD SWAP1 POP PUSH2 0x1D3 PUSH0 DUP4 ADD DUP5 PUSH2 0x1B1 JUMP JUMPDEST SWAP3 SWAP2 POP POP JUMP JUMPDEST PUSH32 0x4E487B7100000000000000000000000000000000000000000000000000000000 PUSH0 MSTORE PUSH1 0x21 PUSH1 0x4 MSTORE PUSH1 0x24 PUSH0 REVERT JUMPDEST PUSH2 0x1D86 DUP1 PUSH2 0x213 PUSH0 CODECOPY PUSH0 RETURN INVALID PUSH1 0x80 PUSH1 0x40 MSTORE CALLVALUE DUP1 ISZERO PUSH2 0xF JUMPI PUSH0 PUSH0 REVERT JUMPDEST POP PUSH1 0x4 CALLDATASIZE LT PUSH2 0xA7 JUMPI PUSH0 CALLDATALOAD PUSH1 0xE0 SHR DUP1 PUSH4 0xA2FB1175 GT PUSH2 0x6F JUMPI DUP1 PUSH4 0xA2FB1175 EQ PUSH2 0x12C JUMPI DUP1 PUSH4 0xC08CC02D EQ PUSH2 0x15D JUMPI DUP1 PUSH4 0xCFDB63AC EQ PUSH2 0x17B JUMPI DUP1 PUSH4 0xDCD6A5CD EQ PUSH2 0x197 JUMPI DUP1 PUSH4 0xE6ADAECC EQ PUSH2 0x1B3 JUMPI DUP1 PUSH4 0xF2FDE38B EQ PUSH2 0x1CF JUMPI PUSH2 0xA7 JUMP JUMPDEST DUP1 PUSH4 0x13CF08B EQ PUSH2 0xAB JUMPI DUP1 PUSH4 0x43344983 EQ PUSH2 0xDC JUMPI DUP1 PUSH4 0x4EA49925 EQ PUSH2 0xFA JUMPI DUP1 PUSH4 0x715018A6 EQ PUSH2 0x104 JUMPI DUP1 PUSH4 0x8DA5CB5B EQ PUSH2 0x10E JUMPI JUMPDEST PUSH0 PUSH0 REVERT JUMPDEST PUSH2 0xC5 PUSH1 0x4 DUP1 CALLDATASIZE SUB DUP2 ADD SWAP1 PUSH2 0xC0 SWAP2 SWAP1 PUSH2 0xF4B JUMP JUMPDEST PUSH2 0x1EB JUMP JUMPDEST PUSH1 0x40 MLOAD PUSH2 0xD3 SWAP3 SWAP2 SWAP1 PUSH2 0xFF5 JUMP JUMPDEST PUSH1 0x40 MLOAD DUP1 SWAP2 SUB SWAP1 RETURN JUMPDEST PUSH2 0xE4 PUSH2 0x2A0 JUMP JUMPDEST PUSH1 0x40 MLOAD PUSH2 0xF1 SWAP2 SWAP1 PUSH2 0x116F JUMP JUMPDEST PUSH1 0x40 MLOAD DUP1 SWAP2 SUB SWAP1 RETURN JUMPDEST PUSH2 0x102 PUSH2 0x395 JUMP JUMPDEST STOP JUMPDEST PUSH2 0x10C PUSH2 0x4CD JUMP JUMPDEST STOP JUMPDEST PUSH2 0x116 PUSH2 0x4E0 JUMP JUMPDEST PUSH1 0x40 MLOAD PUSH2 0x123 SWAP2 SWAP1 PUSH2 0x11CE JUMP JUMPDEST PUSH1 0x40 MLOAD DUP1 SWAP2 SUB SWAP1 RETURN JUMPDEST PUSH2 0x146 PUSH1 0x4 DUP1 CALLDATASIZE SUB DUP2 ADD SWAP1 PUSH2 0x141 SWAP2 SWAP1 PUSH2 0xF4B JUMP JUMPDEST PUSH2 0x507 JUMP JUMPDEST PUSH1 0x40 MLOAD PUSH2 0x154 SWAP3 SWAP2 SWAP1 PUSH2 0xFF5 JUMP JUMPDEST PUSH1 0x40 MLOAD DUP1 SWAP2 SUB SWAP1 RETURN JUMPDEST PUSH2 0x165 PUSH2 0x5BC JUMP JUMPDEST PUSH1 0x40 MLOAD PUSH2 0x172 SWAP2 SWAP1 PUSH2 0x11E7 JUMP JUMPDEST PUSH1 0x40 MLOAD DUP1 SWAP2 SUB SWAP1 RETURN JUMPDEST PUSH2 0x195 PUSH1 0x4 DUP1 CALLDATASIZE SUB DUP2 ADD SWAP1 PUSH2 0x190 SWAP2 SWAP1 PUSH2 0x122A JUMP JUMPDEST PUSH2 0x5C8 JUMP JUMPDEST STOP JUMPDEST PUSH2 0x1B1 PUSH1 0x4 DUP1 CALLDATASIZE SUB DUP2 ADD SWAP1 PUSH2 0x1AC SWAP2 SWAP1 PUSH2 0xF4B JUMP JUMPDEST PUSH2 0x819 JUMP JUMPDEST STOP JUMPDEST PUSH2 0x1CD PUSH1 0x4 DUP1 CALLDATASIZE SUB DUP2 ADD SWAP1 PUSH2 0x1C8 SWAP2 SWAP1 PUSH2 0x1381 JUMP JUMPDEST PUSH2 0xB45 JUMP JUMPDEST STOP JUMPDEST PUSH2 0x1E9 PUSH1 0x4 DUP1 CALLDATASIZE SUB DUP2 ADD SWAP1 PUSH2 0x1E4 SWAP2 SWAP1 PUSH2 0x122A JUMP JUMPDEST PUSH2 0xD34 JUMP JUMPDEST STOP JUMPDEST PUSH1 0x3 DUP2 DUP2 SLOAD DUP2 LT PUSH2 0x1FA JUMPI PUSH0 DUP1 REVERT JUMPDEST SWAP1 PUSH0 MSTORE PUSH1 0x20 PUSH0 KECCAK256 SWAP1 PUSH1 0x2 MUL ADD PUSH0 SWAP2 POP SWAP1 POP DUP1 PUSH0 ADD DUP1 SLOAD PUSH2 0x219 SWAP1 PUSH2 0x13F5 JUMP JUMPDEST DUP1 PUSH1 0x1F ADD PUSH1 0x20 DUP1 SWAP2 DIV MUL PUSH1 0x20 ADD PUSH1 0x40 MLOAD SWAP1 DUP2 ADD PUSH1 0x40 MSTORE DUP1 SWAP3 SWAP2 SWAP1 DUP2 DUP2 MSTORE PUSH1 0x20 ADD DUP3 DUP1 SLOAD PUSH2 0x245 SWAP1 PUSH2 0x13F5 JUMP JUMPDEST DUP1 ISZERO PUSH2 0x290 JUMPI DUP1 PUSH1 0x1F LT PUSH2 0x267 JUMPI PUSH2 0x100 DUP1 DUP4 SLOAD DIV MUL DUP4 MSTORE SWAP2 PUSH1 0x20 ADD SWAP2 PUSH2 0x290 JUMP JUMPDEST DUP3 ADD SWAP2 SWAP1 PUSH0 MSTORE PUSH1 0x20 PUSH0 KECCAK256 SWAP1 JUMPDEST DUP2 SLOAD DUP2 MSTORE SWAP1 PUSH1 0x1 ADD SWAP1 PUSH1 0x20 ADD DUP1 DUP4 GT PUSH2 0x273 JUMPI DUP3 SWAP1 SUB PUSH1 0x1F AND DUP3 ADD SWAP2 JUMPDEST POP POP POP POP POP SWAP1 DUP1 PUSH1 0x1 ADD SLOAD SWAP1 POP DUP3 JUMP JUMPDEST PUSH1 0x60 PUSH1 0x3 DUP1 SLOAD DUP1 PUSH1 0x20 MUL PUSH1 0x20 ADD PUSH1 0x40 MLOAD SWAP1 DUP2 ADD PUSH1 0x40 MSTORE DUP1 SWAP3 SWAP2 SWAP1 DUP2 DUP2 MSTORE PUSH1 0x20 ADD PUSH0 SWAP1 JUMPDEST DUP3 DUP3 LT ISZERO PUSH2 0x38C JUMPI DUP4 DUP3 SWAP1 PUSH0 MSTORE PUSH1 0x20 PUSH0 KECCAK256 SWAP1 PUSH1 0x2 MUL ADD PUSH1 0x40 MLOAD DUP1 PUSH1 0x40 ADD PUSH1 0x40 MSTORE SWAP1 DUP2 PUSH0 DUP3 ADD DUP1 SLOAD PUSH2 0x2F3 SWAP1 PUSH2 0x13F5 JUMP JUMPDEST DUP1 PUSH1 0x1F ADD PUSH1 0x20 DUP1 SWAP2 DIV MUL PUSH1 0x20 ADD PUSH1 0x40 MLOAD SWAP1 DUP2 ADD PUSH1 0x40 MSTORE DUP1 SWAP3 SWAP2 SWAP1 DUP2 DUP2 MSTORE PUSH1 0x20 ADD DUP3 DUP1 SLOAD PUSH2 0x31F SWAP1 PUSH2 0x13F5 JUMP JUMPDEST DUP1 ISZERO PUSH2 0x36A JUMPI DUP1 PUSH1 0x1F LT PUSH2 0x341 JUMPI PUSH2 0x100 DUP1 DUP4 SLOAD DIV MUL DUP4 MSTORE SWAP2 PUSH1 0x20 ADD SWAP2 PUSH2 0x36A JUMP JUMPDEST DUP3 ADD SWAP2 SWAP1 PUSH0 MSTORE PUSH1 0x20 PUSH0 KECCAK256 SWAP1 JUMPDEST DUP2 SLOAD DUP2 MSTORE SWAP1 PUSH1 0x1 ADD SWAP1 PUSH1 0x20 ADD DUP1 DUP4 GT PUSH2 0x34D JUMPI DUP3 SWAP1 SUB PUSH1 0x1F AND DUP3 ADD SWAP2 JUMPDEST POP POP POP POP POP DUP2 MSTORE PUSH1 0x20 ADD PUSH1 0x1 DUP3 ADD SLOAD DUP2 MSTORE POP POP DUP2 MSTORE PUSH1 0x20 ADD SWAP1 PUSH1 0x1 ADD SWAP1 PUSH2 0x2C3 JUMP JUMPDEST POP POP POP POP SWAP1 POP SWAP1 JUMP JUMPDEST PUSH2 0x39D PUSH2 0xDB8 JUMP JUMPDEST PUSH0 PUSH0 PUSH1 0x14 SWAP1 SLOAD SWAP1 PUSH2 0x100 EXP SWAP1 DIV PUSH1 0xFF AND SWAP1 POP PUSH1 0x5 DUP1 DUP2 GT ISZERO PUSH2 0x3C2 JUMPI PUSH2 0x3C1 PUSH2 0x1425 JUMP JUMPDEST JUMPDEST PUSH0 PUSH1 0x14 SWAP1 SLOAD SWAP1 PUSH2 0x100 EXP SWAP1 DIV PUSH1 0xFF AND PUSH1 0x5 DUP2 GT ISZERO PUSH2 0x3E3 JUMPI PUSH2 0x3E2 PUSH2 0x1425 JUMP JUMPDEST JUMPDEST SUB PUSH2 0x416 JUMPI PUSH0 PUSH0 PUSH1 0x14 PUSH2 0x100 EXP DUP2 SLOAD DUP2 PUSH1 0xFF MUL NOT AND SWAP1 DUP4 PUSH1 0x5 DUP2 GT ISZERO PUSH2 0x40C JUMPI PUSH2 0x40B PUSH2 0x1425 JUMP JUMPDEST JUMPDEST MUL OR SWAP1 SSTORE POP PUSH2 0x47E JUMP JUMPDEST PUSH1 0x1 PUSH0 PUSH1 0x14 SWAP1 SLOAD SWAP1 PUSH2 0x100 EXP SWAP1 DIV PUSH1 0xFF AND PUSH1 0x5 DUP2 GT ISZERO PUSH2 0x439 JUMPI PUSH2 0x438 PUSH2 0x1425 JUMP JUMPDEST JUMPDEST PUSH2 0x443 SWAP2 SWAP1 PUSH2 0x147F JUMP JUMPDEST PUSH1 0x5 DUP2 GT ISZERO PUSH2 0x455 JUMPI PUSH2 0x454 PUSH2 0x1425 JUMP JUMPDEST JUMPDEST PUSH0 PUSH1 0x14 PUSH2 0x100 EXP DUP2 SLOAD DUP2 PUSH1 0xFF MUL NOT AND SWAP1 DUP4 PUSH1 0x5 DUP2 GT ISZERO PUSH2 0x478 JUMPI PUSH2 0x477 PUSH2 0x1425 JUMP JUMPDEST JUMPDEST MUL OR SWAP1 SSTORE POP JUMPDEST PUSH0 PUSH0 PUSH1 0x14 SWAP1 SLOAD SWAP1 PUSH2 0x100 EXP SWAP1 DIV PUSH1 0xFF AND SWAP1 POP PUSH32 0xA97A4EE45751E2ABF3E4FC8946939630B11B371EA8AE39CCDC3056E98F5CC3F DUP3 DUP3 PUSH1 0x40 MLOAD PUSH2 0x4C1 SWAP3 SWAP2 SWAP1 PUSH2 0x14F8 JUMP JUMPDEST PUSH1 0x40 MLOAD DUP1 SWAP2 SUB SWAP1 LOG1 POP POP JUMP JUMPDEST PUSH2 0x4D5 PUSH2 0xDB8 JUMP JUMPDEST PUSH2 0x4DE PUSH0 PUSH2 0xE3F JUMP JUMPDEST JUMP JUMPDEST PUSH0 PUSH0 PUSH0 SWAP1 SLOAD SWAP1 PUSH2 0x100 EXP SWAP1 DIV PUSH20 0xFFFFFFFFFFFFFFFFFFFFFFFFFFFFFFFFFFFFFFFF AND SWAP1 POP SWAP1 JUMP JUMPDEST PUSH1 0x5 DUP2 DUP2 SLOAD DUP2 LT PUSH2 0x516 JUMPI PUSH0 DUP1 REVERT JUMPDEST SWAP1 PUSH0 MSTORE PUSH1 0x20 PUSH0 KECCAK256 SWAP1 PUSH1 0x2 MUL ADD PUSH0 SWAP2 POP SWAP1 POP DUP1 PUSH0 ADD DUP1 SLOAD PUSH2 0x535 SWAP1 PUSH2 0x13F5 JUMP JUMPDEST DUP1 PUSH1 0x1F ADD PUSH1 0x20 DUP1 SWAP2 DIV MUL PUSH1 0x20 ADD PUSH1 0x40 MLOAD SWAP1 DUP2 ADD PUSH1 0x40 MSTORE DUP1 SWAP3 SWAP2 SWAP1 DUP2 DUP2 MSTORE PUSH1 0x20 ADD DUP3 DUP1 SLOAD PUSH2 0x561 SWAP1 PUSH2 0x13F5 JUMP JUMPDEST DUP1 ISZERO PUSH2 0x5AC JUMPI DUP1 PUSH1 0x1F LT PUSH2 0x583 JUMPI PUSH2 0x100 DUP1 DUP4 SLOAD DIV MUL DUP4 MSTORE SWAP2 PUSH1 0x20 ADD SWAP2 PUSH2 0x5AC JUMP JUMPDEST DUP3 ADD SWAP2 SWAP1 PUSH0 MSTORE PUSH1 0x20 PUSH0 KECCAK256 SWAP1 JUMPDEST DUP2 SLOAD DUP2 MSTORE SWAP1 PUSH1 0x1 ADD SWAP1 PUSH1 0x20 ADD DUP1 DUP4 GT PUSH2 0x58F JUMPI DUP3 SWAP1 SUB PUSH1 0x1F AND DUP3 ADD SWAP2 JUMPDEST POP POP POP POP POP SWAP1 DUP1 PUSH1 0x1 ADD SLOAD SWAP1 POP DUP3 JUMP JUMPDEST PUSH0 PUSH1 0x3 DUP1 SLOAD SWAP1 POP SWAP1 POP SWAP1 JUMP JUMPDEST PUSH2 0x5D0 PUSH2 0xDB8 JUMP JUMPDEST PUSH0 PUSH1 0x5 DUP2 GT ISZERO PUSH2 0x5E3 JUMPI PUSH2 0x5E2 PUSH2 0x1425 JUMP JUMPDEST JUMPDEST PUSH0 PUSH1 0x14 SWAP1 SLOAD SWAP1 PUSH2 0x100 EXP SWAP1 DIV PUSH1 0xFF AND PUSH1 0x5 DUP2 GT ISZERO PUSH2 0x604 JUMPI PUSH2 0x603 PUSH2 0x1425 JUMP JUMPDEST JUMPDEST EQ PUSH2 0x644 JUMPI PUSH1 0x40 MLOAD PUSH32 0x8C379A000000000000000000000000000000000000000000000000000000000 DUP2 MSTORE PUSH1 0x4 ADD PUSH2 0x63B SWAP1 PUSH2 0x158F JUMP JUMPDEST PUSH1 0x40 MLOAD DUP1 SWAP2 SUB SWAP1 REVERT JUMPDEST PUSH1 0x1 PUSH0 DUP3 PUSH20 0xFFFFFFFFFFFFFFFFFFFFFFFFFFFFFFFFFFFFFFFF AND PUSH20 0xFFFFFFFFFFFFFFFFFFFFFFFFFFFFFFFFFFFFFFFF AND DUP2 MSTORE PUSH1 0x20 ADD SWAP1 DUP2 MSTORE PUSH1 0x20 ADD PUSH0 KECCAK256 PUSH0 SWAP1 SLOAD SWAP1 PUSH2 0x100 EXP SWAP1 DIV PUSH1 0xFF AND ISZERO PUSH2 0x6CE JUMPI PUSH1 0x40 MLOAD PUSH32 0x8C379A000000000000000000000000000000000000000000000000000000000 DUP2 MSTORE PUSH1 0x4 ADD PUSH2 0x6C5 SWAP1 PUSH2 0x15F7 JUMP JUMPDEST PUSH1 0x40 MLOAD DUP1 SWAP2 SUB SWAP1 REVERT JUMPDEST PUSH1 0x40 MLOAD DUP1 PUSH1 0x60 ADD PUSH1 0x40 MSTORE DUP1 PUSH1 0x1 ISZERO ISZERO DUP2 MSTORE PUSH1 0x20 ADD PUSH0 ISZERO ISZERO DUP2 MSTORE PUSH1 0x20 ADD PUSH0 DUP2 MSTORE POP PUSH1 0x2 PUSH0 DUP4 PUSH20 0xFFFFFFFFFFFFFFFFFFFFFFFFFFFFFFFFFFFFFFFF AND PUSH20 0xFFFFFFFFFFFFFFFFFFFFFFFFFFFFFFFFFFFFFFFF AND DUP2 MSTORE PUSH1 0x20 ADD SWAP1 DUP2 MSTORE PUSH1 0x20 ADD PUSH0 KECCAK256 PUSH0 DUP3 ADD MLOAD DUP2 PUSH0 ADD PUSH0 PUSH2 0x100 EXP DUP2 SLOAD DUP2 PUSH1 0xFF MUL NOT AND SWAP1 DUP4 ISZERO ISZERO MUL OR SWAP1 SSTORE POP PUSH1 0x20 DUP3 ADD MLOAD DUP2 PUSH0 ADD PUSH1 0x1 PUSH2 0x100 EXP DUP2 SLOAD DUP2 PUSH1 0xFF MUL NOT AND SWAP1 DUP4 ISZERO ISZERO MUL OR SWAP1 SSTORE POP PUSH1 0x40 DUP3 ADD MLOAD DUP2 PUSH1 0x1 ADD SSTORE SWAP1 POP POP PUSH1 0x1 DUP1 PUSH0 DUP4 PUSH20 0xFFFFFFFFFFFFFFFFFFFFFFFFFFFFFFFFFFFFFFFF AND PUSH20 0xFFFFFFFFFFFFFFFFFFFFFFFFFFFFFFFFFFFFFFFF AND DUP2 MSTORE PUSH1 0x20 ADD SWAP1 DUP2 MSTORE PUSH1 0x20 ADD PUSH0 KECCAK256 PUSH0 PUSH2 0x100 EXP DUP2 SLOAD DUP2 PUSH1 0xFF MUL NOT AND SWAP1 DUP4 ISZERO ISZERO MUL OR SWAP1 SSTORE POP PUSH1 0x4 PUSH0 DUP2 SLOAD DUP1 SWAP3 SWAP2 SWAP1 PUSH2 0x7DA SWAP1 PUSH2 0x1615 JUMP JUMPDEST SWAP2 SWAP1 POP SSTORE POP PUSH32 0xB6BE2187D059CC2A55FE29E0E503B566E1E0F8C8780096E185429350ACFFD3DD DUP2 PUSH1 0x40 MLOAD PUSH2 0x80E SWAP2 SWAP1 PUSH2 0x11CE JUMP JUMPDEST PUSH1 0x40 MLOAD DUP1 SWAP2 SUB SWAP1 LOG1 POP JUMP JUMPDEST PUSH1 0x3 PUSH1 0x5 DUP2 GT ISZERO PUSH2 0x82D JUMPI PUSH2 0x82C PUSH2 0x1425 JUMP JUMPDEST JUMPDEST PUSH0 PUSH1 0x14 SWAP1 SLOAD SWAP1 PUSH2 0x100 EXP SWAP1 DIV PUSH1 0xFF AND PUSH1 0x5 DUP2 GT ISZERO PUSH2 0x84E JUMPI PUSH2 0x84D PUSH2 0x1425 JUMP JUMPDEST JUMPDEST EQ PUSH2 0x88E JUMPI PUSH1 0x40 MLOAD PUSH32 0x8C379A000000000000000000000000000000000000000000000000000000000 DUP2 MSTORE PUSH1 0x4 ADD PUSH2 0x885 SWAP1 PUSH2 0x16CC JUMP JUMPDEST PUSH1 0x40 MLOAD DUP1 SWAP2 SUB SWAP1 REVERT JUMPDEST PUSH0 PUSH1 0x3 DUP1 SLOAD SWAP1 POP GT PUSH2 0x8D5 JUMPI PUSH1 0x40 MLOAD PUSH32 0x8C379A000000000000000000000000000000000000000000000000000000000 DUP2 MSTORE PUSH1 0x4 ADD PUSH2 0x8CC SWAP1 PUSH2 0x1780 JUMP JUMPDEST PUSH1 0x40 MLOAD DUP1 SWAP2 SUB SWAP1 REVERT JUMPDEST PUSH1 0x2 PUSH0 CALLER PUSH20 0xFFFFFFFFFFFFFFFFFFFFFFFFFFFFFFFFFFFFFFFF AND PUSH20 0xFFFFFFFFFFFFFFFFFFFFFFFFFFFFFFFFFFFFFFFF AND DUP2 MSTORE PUSH1 0x20 ADD SWAP1 DUP2 MSTORE PUSH1 0x20 ADD PUSH0 KECCAK256 PUSH0 ADD PUSH0 SWAP1 SLOAD SWAP1 PUSH2 0x100 EXP SWAP1 DIV PUSH1 0xFF AND PUSH2 0x960 JUMPI PUSH1 0x40 MLOAD PUSH32 0x8C379A000000000000000000000000000000000000000000000000000000000 DUP2 MSTORE PUSH1 0x4 ADD PUSH2 0x957 SWAP1 PUSH2 0x17E8 JUMP JUMPDEST PUSH1 0x40 MLOAD DUP1 SWAP2 SUB SWAP1 REVERT JUMPDEST PUSH1 0x2 PUSH0 CALLER PUSH20 0xFFFFFFFFFFFFFFFFFFFFFFFFFFFFFFFFFFFFFFFF AND PUSH20 0xFFFFFFFFFFFFFFFFFFFFFFFFFFFFFFFFFFFFFFFF AND DUP2 MSTORE PUSH1 0x20 ADD SWAP1 DUP2 MSTORE PUSH1 0x20 ADD PUSH0 KECCAK256 PUSH0 ADD PUSH1 0x1 SWAP1 SLOAD SWAP1 PUSH2 0x100 EXP SWAP1 DIV PUSH1 0xFF AND ISZERO PUSH2 0x9ED JUMPI PUSH1 0x40 MLOAD PUSH32 0x8C379A000000000000000000000000000000000000000000000000000000000 DUP2 MSTORE PUSH1 0x4 ADD PUSH2 0x9E4 SWAP1 PUSH2 0x1850 JUMP JUMPDEST PUSH1 0x40 MLOAD DUP1 SWAP2 SUB SWAP1 REVERT JUMPDEST PUSH1 0x3 DUP1 SLOAD SWAP1 POP DUP2 LT PUSH2 0xA34 JUMPI PUSH1 0x40 MLOAD PUSH32 0x8C379A000000000000000000000000000000000000000000000000000000000 DUP2 MSTORE PUSH1 0x4 ADD PUSH2 0xA2B SWAP1 PUSH2 0x18B8 JUMP JUMPDEST PUSH1 0x40 MLOAD DUP1 SWAP2 SUB SWAP1 REVERT JUMPDEST PUSH1 0x1 PUSH1 0x2 PUSH0 CALLER PUSH20 0xFFFFFFFFFFFFFFFFFFFFFFFFFFFFFFFFFFFFFFFF AND PUSH20 0xFFFFFFFFFFFFFFFFFFFFFFFFFFFFFFFFFFFFFFFF AND DUP2 MSTORE PUSH1 0x20 ADD SWAP1 DUP2 MSTORE PUSH1 0x20 ADD PUSH0 KECCAK256 PUSH0 ADD PUSH1 0x1 PUSH2 0x100 EXP DUP2 SLOAD DUP2 PUSH1 0xFF MUL NOT AND SWAP1 DUP4 ISZERO ISZERO MUL OR SWAP1 SSTORE POP DUP1 PUSH1 0x2 PUSH0 CALLER PUSH20 0xFFFFFFFFFFFFFFFFFFFFFFFFFFFFFFFFFFFFFFFF AND PUSH20 0xFFFFFFFFFFFFFFFFFFFFFFFFFFFFFFFFFFFFFFFF AND DUP2 MSTORE PUSH1 0x20 ADD SWAP1 DUP2 MSTORE PUSH1 0x20 ADD PUSH0 KECCAK256 PUSH1 0x1 ADD DUP2 SWAP1 SSTORE POP PUSH1 0x3 DUP2 DUP2 SLOAD DUP2 LT PUSH2 0xAE5 JUMPI PUSH2 0xAE4 PUSH2 0x18D6 JUMP JUMPDEST JUMPDEST SWAP1 PUSH0 MSTORE PUSH1 0x20 PUSH0 KECCAK256 SWAP1 PUSH1 0x2 MUL ADD PUSH1 0x1 ADD PUSH0 DUP2 SLOAD DUP1 SWAP3 SWAP2 SWAP1 PUSH2 0xB04 SWAP1 PUSH2 0x1615 JUMP JUMPDEST SWAP2 SWAP1 POP SSTORE POP PUSH32 0x4D99B957A2BC29A30EBD96A7BE8E68FE50A3C701DB28A91436490B7D53870CA4 CALLER DUP3 PUSH1 0x40 MLOAD PUSH2 0xB3A SWAP3 SWAP2 SWAP1 PUSH2 0x1903 JUMP JUMPDEST PUSH1 0x40 MLOAD DUP1 SWAP2 SUB SWAP1 LOG1 POP JUMP JUMPDEST PUSH1 0x1 PUSH1 0x5 DUP2 GT ISZERO PUSH2 0xB59 JUMPI PUSH2 0xB58 PUSH2 0x1425 JUMP JUMPDEST JUMPDEST PUSH0 PUSH1 0x14 SWAP1 SLOAD SWAP1 PUSH2 0x100 EXP SWAP1 DIV PUSH1 0xFF AND PUSH1 0x5 DUP2 GT ISZERO PUSH2 0xB7A JUMPI PUSH2 0xB79 PUSH2 0x1425 JUMP JUMPDEST JUMPDEST EQ PUSH2 0xBBA JUMPI PUSH1 0x40 MLOAD PUSH32 0x8C379A000000000000000000000000000000000000000000000000000000000 DUP2 MSTORE PUSH1 0x4 ADD PUSH2 0xBB1 SWAP1 PUSH2 0x199A JUMP JUMPDEST PUSH1 0x40 MLOAD DUP1 SWAP2 SUB SWAP1 REVERT JUMPDEST PUSH0 PUSH1 0x4 SLOAD GT PUSH2 0xBFE JUMPI PUSH1 0x40 MLOAD PUSH32 0x8C379A000000000000000000000000000000000000000000000000000000000 DUP2 MSTORE PUSH1 0x4 ADD PUSH2 0xBF5 SWAP1 PUSH2 0x1A28 JUMP JUMPDEST PUSH1 0x40 MLOAD DUP1 SWAP2 SUB SWAP1 REVERT JUMPDEST PUSH1 0x1 PUSH0 CALLER PUSH20 0xFFFFFFFFFFFFFFFFFFFFFFFFFFFFFFFFFFFFFFFF AND PUSH20 0xFFFFFFFFFFFFFFFFFFFFFFFFFFFFFFFFFFFFFFFF AND DUP2 MSTORE PUSH1 0x20 ADD SWAP1 DUP2 MSTORE PUSH1 0x20 ADD PUSH0 KECCAK256 PUSH0 SWAP1 SLOAD SWAP1 PUSH2 0x100 EXP SWAP1 DIV PUSH1 0xFF AND PUSH2 0xC87 JUMPI PUSH1 0x40 MLOAD PUSH32 0x8C379A000000000000000000000000000000000000000000000000000000000 DUP2 MSTORE PUSH1 0x4 ADD PUSH2 0xC7E SWAP1 PUSH2 0x1A90 JUMP JUMPDEST PUSH1 0x40 MLOAD DUP1 SWAP2 SUB SWAP1 REVERT JUMPDEST PUSH1 0x3 PUSH1 0x40 MLOAD DUP1 PUSH1 0x40 ADD PUSH1 0x40 MSTORE DUP1 DUP4 DUP2 MSTORE PUSH1 0x20 ADD PUSH0 DUP2 MSTORE POP SWAP1 DUP1 PUSH1 0x1 DUP2 SLOAD ADD DUP1 DUP3 SSTORE DUP1 SWAP2 POP POP PUSH1 0x1 SWAP1 SUB SWAP1 PUSH0 MSTORE PUSH1 0x20 PUSH0 KECCAK256 SWAP1 PUSH1 0x2 MUL ADD PUSH0 SWAP1 SWAP2 SWAP1 SWAP2 SWAP1 SWAP2 POP PUSH0 DUP3 ADD MLOAD DUP2 PUSH0 ADD SWAP1 DUP2 PUSH2 0xCD7 SWAP2 SWAP1 PUSH2 0x1C4E JUMP JUMPDEST POP PUSH1 0x20 DUP3 ADD MLOAD DUP2 PUSH1 0x1 ADD SSTORE POP POP PUSH0 PUSH1 0x1 PUSH1 0x3 DUP1 SLOAD SWAP1 POP PUSH2 0xCF7 SWAP2 SWAP1 PUSH2 0x1D1D JUMP JUMPDEST SWAP1 POP PUSH32 0x92E393E9B54E2F801D3EA4BEB0C5E71A21CC34A5D34B77D0FB8A3AA1650DC18F DUP2 PUSH1 0x40 MLOAD PUSH2 0xD28 SWAP2 SWAP1 PUSH2 0x11E7 JUMP JUMPDEST PUSH1 0x40 MLOAD DUP1 SWAP2 SUB SWAP1 LOG1 POP POP JUMP JUMPDEST PUSH2 0xD3C PUSH2 0xDB8 JUMP JUMPDEST PUSH0 PUSH20 0xFFFFFFFFFFFFFFFFFFFFFFFFFFFFFFFFFFFFFFFF AND DUP2 PUSH20 0xFFFFFFFFFFFFFFFFFFFFFFFFFFFFFFFFFFFFFFFF AND SUB PUSH2 0xDAC JUMPI PUSH0 PUSH1 0x40 MLOAD PUSH32 0x1E4FBDF700000000000000000000000000000000000000000000000000000000 DUP2 MSTORE PUSH1 0x4 ADD PUSH2 0xDA3 SWAP2 SWAP1 PUSH2 0x11CE JUMP JUMPDEST PUSH1 0x40 MLOAD DUP1 SWAP2 SUB SWAP1 REVERT JUMPDEST PUSH2 0xDB5 DUP2 PUSH2 0xE3F JUMP JUMPDEST POP JUMP JUMPDEST PUSH2 0xDC0 PUSH2 0xF00 JUMP JUMPDEST PUSH20 0xFFFFFFFFFFFFFFFFFFFFFFFFFFFFFFFFFFFFFFFF AND PUSH2 0xDDE PUSH2 0x4E0 JUMP JUMPDEST PUSH20 0xFFFFFFFFFFFFFFFFFFFFFFFFFFFFFFFFFFFFFFFF AND EQ PUSH2 0xE3D JUMPI PUSH2 0xE01 PUSH2 0xF00 JUMP JUMPDEST PUSH1 0x40 MLOAD PUSH32 0x118CDAA700000000000000000000000000000000000000000000000000000000 DUP2 MSTORE PUSH1 0x4 ADD PUSH2 0xE34 SWAP2 SWAP1 PUSH2 0x11CE JUMP JUMPDEST PUSH1 0x40 MLOAD DUP1 SWAP2 SUB SWAP1 REVERT JUMPDEST JUMP JUMPDEST PUSH0 PUSH0 PUSH0 SWAP1 SLOAD SWAP1 PUSH2 0x100 EXP SWAP1 DIV PUSH20 0xFFFFFFFFFFFFFFFFFFFFFFFFFFFFFFFFFFFFFFFF AND SWAP1 POP DUP2 PUSH0 PUSH0 PUSH2 0x100 EXP DUP2 SLOAD DUP2 PUSH20 0xFFFFFFFFFFFFFFFFFFFFFFFFFFFFFFFFFFFFFFFF MUL NOT AND SWAP1 DUP4 PUSH20 0xFFFFFFFFFFFFFFFFFFFFFFFFFFFFFFFFFFFFFFFF AND MUL OR SWAP1 SSTORE POP DUP2 PUSH20 0xFFFFFFFFFFFFFFFFFFFFFFFFFFFFFFFFFFFFFFFF AND DUP2 PUSH20 0xFFFFFFFFFFFFFFFFFFFFFFFFFFFFFFFFFFFFFFFF AND PUSH32 0x8BE0079C531659141344CD1FD0A4F28419497F9722A3DAAFE3B4186F6B6457E0 PUSH1 0x40 MLOAD PUSH1 0x40 MLOAD DUP1 SWAP2 SUB SWAP1 LOG3 POP POP JUMP JUMPDEST PUSH0 CALLER SWAP1 POP SWAP1 JUMP JUMPDEST PUSH0 PUSH1 0x40 MLOAD SWAP1 POP SWAP1 JUMP JUMPDEST PUSH0 PUSH0 REVERT JUMPDEST PUSH0 PUSH0 REVERT JUMPDEST PUSH0 DUP2 SWAP1 POP SWAP2 SWAP1 POP JUMP JUMPDEST PUSH2 0xF2A DUP2 PUSH2 0xF18 JUMP JUMPDEST DUP2 EQ PUSH2 0xF34 JUMPI PUSH0 PUSH0 REVERT JUMPDEST POP JUMP JUMPDEST PUSH0 DUP2 CALLDATALOAD SWAP1 POP PUSH2 0xF45 DUP2 PUSH2 0xF21 JUMP JUMPDEST SWAP3 SWAP2 POP POP JUMP JUMPDEST PUSH0 PUSH1 0x20 DUP3 DUP5 SUB SLT ISZERO PUSH2 0xF60 JUMPI PUSH2 0xF5F PUSH2 0xF10 JUMP JUMPDEST JUMPDEST PUSH0 PUSH2 0xF6D DUP5 DUP3 DUP6 ADD PUSH2 0xF37 JUMP JUMPDEST SWAP2 POP POP SWAP3 SWAP2 POP POP JUMP JUMPDEST PUSH0 DUP2 MLOAD SWAP1 POP SWAP2 SWAP1 POP JUMP JUMPDEST PUSH0 DUP3 DUP3 MSTORE PUSH1 0x20 DUP3 ADD SWAP1 POP SWAP3 SWAP2 POP POP JUMP JUMPDEST DUP3 DUP2 DUP4 MCOPY PUSH0 DUP4 DUP4 ADD MSTORE POP POP POP JUMP JUMPDEST PUSH0 PUSH1 0x1F NOT PUSH1 0x1F DUP4 ADD AND SWAP1 POP SWAP2 SWAP1 POP JUMP JUMPDEST PUSH0 PUSH2 0xFB8 DUP3 PUSH2 0xF76 JUMP JUMPDEST PUSH2 0xFC2 DUP2 DUP6 PUSH2 0xF80 JUMP JUMPDEST SWAP4 POP PUSH2 0xFD2 DUP2 DUP6 PUSH1 0x20 DUP7 ADD PUSH2 0xF90 JUMP JUMPDEST PUSH2 0xFDB DUP2 PUSH2 0xF9E JUMP JUMPDEST DUP5 ADD SWAP2 POP POP SWAP3 SWAP2 POP POP JUMP JUMPDEST PUSH2 0xFEF DUP2 PUSH2 0xF18 JUMP JUMPDEST DUP3 MSTORE POP POP JUMP JUMPDEST PUSH0 PUSH1 0x40 DUP3 ADD SWAP1 POP DUP2 DUP2 SUB PUSH0 DUP4 ADD MSTORE PUSH2 0x100D DUP2 DUP6 PUSH2 0xFAE JUMP JUMPDEST SWAP1 POP PUSH2 0x101C PUSH1 0x20 DUP4 ADD DUP5 PUSH2 0xFE6 JUMP JUMPDEST SWAP4 SWAP3 POP POP POP JUMP JUMPDEST PUSH0 DUP2 MLOAD SWAP1 POP SWAP2 SWAP1 POP JUMP JUMPDEST PUSH0 DUP3 DUP3 MSTORE PUSH1 0x20 DUP3 ADD SWAP1 POP SWAP3 SWAP2 POP POP JUMP JUMPDEST PUSH0 DUP2 SWAP1 POP PUSH1 0x20 DUP3 ADD SWAP1 POP SWAP2 SWAP1 POP JUMP JUMPDEST PUSH0 DUP3 DUP3 MSTORE PUSH1 0x20 DUP3 ADD SWAP1 POP SWAP3 SWAP2 POP POP JUMP JUMPDEST PUSH0 PUSH2 0x1066 DUP3 PUSH2 0xF76 JUMP JUMPDEST PUSH2 0x1070 DUP2 DUP6 PUSH2 0x104C JUMP JUMPDEST SWAP4 POP PUSH2 0x1080 DUP2 DUP6 PUSH1 0x20 DUP7 ADD PUSH2 0xF90 JUMP JUMPDEST PUSH2 0x1089 DUP2 PUSH2 0xF9E JUMP JUMPDEST DUP5 ADD SWAP2 POP POP SWAP3 SWAP2 POP POP JUMP JUMPDEST PUSH2 0x109D DUP2 PUSH2 0xF18 JUMP JUMPDEST DUP3 MSTORE POP POP JUMP JUMPDEST PUSH0 PUSH1 0x40 DUP4 ADD PUSH0 DUP4 ADD MLOAD DUP5 DUP3 SUB PUSH0 DUP7 ADD MSTORE PUSH2 0x10BD DUP3 DUP3 PUSH2 0x105C JUMP JUMPDEST SWAP2 POP POP PUSH1 0x20 DUP4 ADD MLOAD PUSH2 0x10D2 PUSH1 0x20 DUP7 ADD DUP3 PUSH2 0x1094 JUMP JUMPDEST POP DUP1 SWAP2 POP POP SWAP3 SWAP2 POP POP JUMP JUMPDEST PUSH0 PUSH2 0x10E8 DUP4 DUP4 PUSH2 0x10A3 JUMP JUMPDEST SWAP1 POP SWAP3 SWAP2 POP POP JUMP JUMPDEST PUSH0 PUSH1 0x20 DUP3 ADD SWAP1 POP SWAP2 SWAP1 POP JUMP JUMPDEST PUSH0 PUSH2 0x1106 DUP3 PUSH2 0x1023 JUMP JUMPDEST PUSH2 0x1110 DUP2 DUP6 PUSH2 0x102D JUMP JUMPDEST SWAP4 POP DUP4 PUSH1 0x20 DUP3 MUL DUP6 ADD PUSH2 0x1122 DUP6 PUSH2 0x103D JUMP JUMPDEST DUP1 PUSH0 JUMPDEST DUP6 DUP2 LT ISZERO PUSH2 0x115D JUMPI DUP5 DUP5 SUB DUP10 MSTORE DUP2 MLOAD PUSH2 0x113E DUP6 DUP3 PUSH2 0x10DD JUMP JUMPDEST SWAP5 POP PUSH2 0x1149 DUP4 PUSH2 0x10F0 JUMP JUMPDEST SWAP3 POP PUSH1 0x20 DUP11 ADD SWAP10 POP POP PUSH1 0x1 DUP2 ADD SWAP1 POP PUSH2 0x1125 JUMP JUMPDEST POP DUP3 SWAP8 POP DUP8 SWAP6 POP POP POP POP POP POP SWAP3 SWAP2 POP POP JUMP JUMPDEST PUSH0 PUSH1 0x20 DUP3 ADD SWAP1 POP DUP2 DUP2 SUB PUSH0 DUP4 ADD MSTORE PUSH2 0x1187 DUP2 DUP5 PUSH2 0x10FC JUMP JUMPDEST SWAP1 POP SWAP3 SWAP2 POP POP JUMP JUMPDEST PUSH0 PUSH20 0xFFFFFFFFFFFFFFFFFFFFFFFFFFFFFFFFFFFFFFFF DUP3 AND SWAP1 POP SWAP2 SWAP1 POP JUMP JUMPDEST PUSH0 PUSH2 0x11B8 DUP3 PUSH2 0x118F JUMP JUMPDEST SWAP1 POP SWAP2 SWAP1 POP JUMP JUMPDEST PUSH2 0x11C8 DUP2 PUSH2 0x11AE JUMP JUMPDEST DUP3 MSTORE POP POP JUMP JUMPDEST PUSH0 PUSH1 0x20 DUP3 ADD SWAP1 POP PUSH2 0x11E1 PUSH0 DUP4 ADD DUP5 PUSH2 0x11BF JUMP JUMPDEST SWAP3 SWAP2 POP POP JUMP JUMPDEST PUSH0 PUSH1 0x20 DUP3 ADD SWAP1 POP PUSH2 0x11FA PUSH0 DUP4 ADD DUP5 PUSH2 0xFE6 JUMP JUMPDEST SWAP3 SWAP2 POP POP JUMP JUMPDEST PUSH2 0x1209 DUP2 PUSH2 0x11AE JUMP JUMPDEST DUP2 EQ PUSH2 0x1213 JUMPI PUSH0 PUSH0 REVERT JUMPDEST POP JUMP JUMPDEST PUSH0 DUP2 CALLDATALOAD SWAP1 POP PUSH2 0x1224 DUP2 PUSH2 0x1200 JUMP JUMPDEST SWAP3 SWAP2 POP POP JUMP JUMPDEST PUSH0 PUSH1 0x20 DUP3 DUP5 SUB SLT ISZERO PUSH2 0x123F JUMPI PUSH2 0x123E PUSH2 0xF10 JUMP JUMPDEST JUMPDEST PUSH0 PUSH2 0x124C DUP5 DUP3 DUP6 ADD PUSH2 0x1216 JUMP JUMPDEST SWAP2 POP POP SWAP3 SWAP2 POP POP JUMP JUMPDEST PUSH0 PUSH0 REVERT JUMPDEST PUSH0 PUSH0 REVERT JUMPDEST PUSH32 0x4E487B7100000000000000000000000000000000000000000000000000000000 PUSH0 MSTORE PUSH1 0x41 PUSH1 0x4 MSTORE PUSH1 0x24 PUSH0 REVERT JUMPDEST PUSH2 0x1293 DUP3 PUSH2 0xF9E JUMP JUMPDEST DUP2 ADD DUP2 DUP2 LT PUSH8 0xFFFFFFFFFFFFFFFF DUP3 GT OR ISZERO PUSH2 0x12B2 JUMPI PUSH2 0x12B1 PUSH2 0x125D JUMP JUMPDEST JUMPDEST DUP1 PUSH1 0x40 MSTORE POP POP POP JUMP JUMPDEST PUSH0 PUSH2 0x12C4 PUSH2 0xF07 JUMP JUMPDEST SWAP1 POP PUSH2 0x12D0 DUP3 DUP3 PUSH2 0x128A JUMP JUMPDEST SWAP2 SWAP1 POP JUMP JUMPDEST PUSH0 PUSH8 0xFFFFFFFFFFFFFFFF DUP3 GT ISZERO PUSH2 0x12EF JUMPI PUSH2 0x12EE PUSH2 0x125D JUMP JUMPDEST JUMPDEST PUSH2 0x12F8 DUP3 PUSH2 0xF9E JUMP JUMPDEST SWAP1 POP PUSH1 0x20 DUP2 ADD SWAP1 POP SWAP2 SWAP1 POP JUMP JUMPDEST DUP3 DUP2 DUP4 CALLDATACOPY PUSH0 DUP4 DUP4 ADD MSTORE POP POP POP JUMP JUMPDEST PUSH0 PUSH2 0x1325 PUSH2 0x1320 DUP5 PUSH2 0x12D5 JUMP JUMPDEST PUSH2 0x12BB JUMP JUMPDEST SWAP1 POP DUP3 DUP2 MSTORE PUSH1 0x20 DUP2 ADD DUP5 DUP5 DUP5 ADD GT ISZERO PUSH2 0x1341 JUMPI PUSH2 0x1340 PUSH2 0x1259 JUMP JUMPDEST JUMPDEST PUSH2 0x134C DUP5 DUP3 DUP6 PUSH2 0x1305 JUMP JUMPDEST POP SWAP4 SWAP3 POP POP POP JUMP JUMPDEST PUSH0 DUP3 PUSH1 0x1F DUP4 ADD SLT PUSH2 0x1368 JUMPI PUSH2 0x1367 PUSH2 0x1255 JUMP JUMPDEST JUMPDEST DUP2 CALLDATALOAD PUSH2 0x1378 DUP5 DUP3 PUSH1 0x20 DUP7 ADD PUSH2 0x1313 JUMP JUMPDEST SWAP2 POP POP SWAP3 SWAP2 POP POP JUMP JUMPDEST PUSH0 PUSH1 0x20 DUP3 DUP5 SUB SLT ISZERO PUSH2 0x1396 JUMPI PUSH2 0x1395 PUSH2 0xF10 JUMP JUMPDEST JUMPDEST PUSH0 DUP3 ADD CALLDATALOAD PUSH8 0xFFFFFFFFFFFFFFFF DUP2 GT ISZERO PUSH2 0x13B3 JUMPI PUSH2 0x13B2 PUSH2 0xF14 JUMP JUMPDEST JUMPDEST PUSH2 0x13BF DUP5 DUP3 DUP6 ADD PUSH2 0x1354 JUMP JUMPDEST SWAP2 POP POP SWAP3 SWAP2 POP POP JUMP JUMPDEST PUSH32 0x4E487B7100000000000000000000000000000000000000000000000000000000 PUSH0 MSTORE PUSH1 0x22 PUSH1 0x4 MSTORE PUSH1 0x24 PUSH0 REVERT JUMPDEST PUSH0 PUSH1 0x2 DUP3 DIV SWAP1 POP PUSH1 0x1 DUP3 AND DUP1 PUSH2 0x140C JUMPI PUSH1 0x7F DUP3 AND SWAP2 POP JUMPDEST PUSH1 0x20 DUP3 LT DUP2 SUB PUSH2 0x141F JUMPI PUSH2 0x141E PUSH2 0x13C8 JUMP JUMPDEST JUMPDEST POP SWAP2 SWAP1 POP JUMP JUMPDEST PUSH32 0x4E487B7100000000000000000000000000000000000000000000000000000000 PUSH0 MSTORE PUSH1 0x21 PUSH1 0x4 MSTORE PUSH1 0x24 PUSH0 REVERT JUMPDEST PUSH32 0x4E487B7100000000000000000000000000000000000000000000000000000000 PUSH0 MSTORE PUSH1 0x11 PUSH1 0x4 MSTORE PUSH1 0x24 PUSH0 REVERT JUMPDEST PUSH0 PUSH2 0x1489 DUP3 PUSH2 0xF18 JUMP JUMPDEST SWAP2 POP PUSH2 0x1494 DUP4 PUSH2 0xF18 JUMP JUMPDEST SWAP3 POP DUP3 DUP3 ADD SWAP1 POP DUP1 DUP3 GT ISZERO PUSH2 0x14AC JUMPI PUSH2 0x14AB PUSH2 0x1452 JUMP JUMPDEST JUMPDEST SWAP3 SWAP2 POP POP JUMP JUMPDEST PUSH1 0x6 DUP2 LT PUSH2 0x14C3 JUMPI PUSH2 0x14C2 PUSH2 0x1425 JUMP JUMPDEST JUMPDEST POP JUMP JUMPDEST PUSH0 DUP2 SWAP1 POP PUSH2 0x14D3 DUP3 PUSH2 0x14B2 JUMP JUMPDEST SWAP2 SWAP1 POP JUMP JUMPDEST PUSH0 PUSH2 0x14E2 DUP3 PUSH2 0x14C6 JUMP JUMPDEST SWAP1 POP SWAP2 SWAP1 POP JUMP JUMPDEST PUSH2 0x14F2 DUP2 PUSH2 0x14D8 JUMP JUMPDEST DUP3 MSTORE POP POP JUMP JUMPDEST PUSH0 PUSH1 0x40 DUP3 ADD SWAP1 POP PUSH2 0x150B PUSH0 DUP4 ADD DUP6 PUSH2 0x14E9 JUMP JUMPDEST PUSH2 0x1518 PUSH1 0x20 DUP4 ADD DUP5 PUSH2 0x14E9 JUMP JUMPDEST SWAP4 SWAP3 POP POP POP JUMP JUMPDEST PUSH32 0x416464726573732063616E206265206164646564206F6E6C7920696E20526567 PUSH0 DUP3 ADD MSTORE PUSH32 0x697374726174696F6E2070686173653A30000000000000000000000000000000 PUSH1 0x20 DUP3 ADD MSTORE POP JUMP JUMPDEST PUSH0 PUSH2 0x1579 PUSH1 0x31 DUP4 PUSH2 0xF80 JUMP JUMPDEST SWAP2 POP PUSH2 0x1584 DUP3 PUSH2 0x151F JUMP JUMPDEST PUSH1 0x40 DUP3 ADD SWAP1 POP SWAP2 SWAP1 POP JUMP JUMPDEST PUSH0 PUSH1 0x20 DUP3 ADD SWAP1 POP DUP2 DUP2 SUB PUSH0 DUP4 ADD MSTORE PUSH2 0x15A6 DUP2 PUSH2 0x156D JUMP JUMPDEST SWAP1 POP SWAP2 SWAP1 POP JUMP JUMPDEST PUSH32 0x4164647265737320616C72656164792072656769737465726564000000000000 PUSH0 DUP3 ADD MSTORE POP JUMP JUMPDEST PUSH0 PUSH2 0x15E1 PUSH1 0x1A DUP4 PUSH2 0xF80 JUMP JUMPDEST SWAP2 POP PUSH2 0x15EC DUP3 PUSH2 0x15AD JUMP JUMPDEST PUSH1 0x20 DUP3 ADD SWAP1 POP SWAP2 SWAP1 POP JUMP JUMPDEST PUSH0 PUSH1 0x20 DUP3 ADD SWAP1 POP DUP2 DUP2 SUB PUSH0 DUP4 ADD MSTORE PUSH2 0x160E DUP2 PUSH2 0x15D5 JUMP JUMPDEST SWAP1 POP SWAP2 SWAP1 POP JUMP JUMPDEST PUSH0 PUSH2 0x161F DUP3 PUSH2 0xF18 JUMP JUMPDEST SWAP2 POP PUSH32 0xFFFFFFFFFFFFFFFFFFFFFFFFFFFFFFFFFFFFFFFFFFFFFFFFFFFFFFFFFFFFFFFF DUP3 SUB PUSH2 0x1651 JUMPI PUSH2 0x1650 PUSH2 0x1452 JUMP JUMPDEST JUMPDEST PUSH1 0x1 DUP3 ADD SWAP1 POP SWAP2 SWAP1 POP JUMP JUMPDEST PUSH32 0x50726F706F73616C2063616E206265206164646573206F6E6C7920696E20766F PUSH0 DUP3 ADD MSTORE PUSH32 0x74696E672070686173653A330000000000000000000000000000000000000000 PUSH1 0x20 DUP3 ADD MSTORE POP JUMP JUMPDEST PUSH0 PUSH2 0x16B6 PUSH1 0x2C DUP4 PUSH2 0xF80 JUMP JUMPDEST SWAP2 POP PUSH2 0x16C1 DUP3 PUSH2 0x165C JUMP JUMPDEST PUSH1 0x40 DUP3 ADD SWAP1 POP SWAP2 SWAP1 POP JUMP JUMPDEST PUSH0 PUSH1 0x20 DUP3 ADD SWAP1 POP DUP2 DUP2 SUB PUSH0 DUP4 ADD MSTORE PUSH2 0x16E3 DUP2 PUSH2 0x16AA JUMP JUMPDEST SWAP1 POP SWAP2 SWAP1 POP JUMP JUMPDEST PUSH32 0x596F75206861766520746F20676574206174206C656174206F6E652070726F70 PUSH0 DUP3 ADD MSTORE PUSH32 0x6F73616C20696E206F7264657220746F2070726F63656564206120766F74696E PUSH1 0x20 DUP3 ADD MSTORE PUSH32 0x6720706861736500000000000000000000000000000000000000000000000000 PUSH1 0x40 DUP3 ADD MSTORE POP JUMP JUMPDEST PUSH0 PUSH2 0x176A PUSH1 0x47 DUP4 PUSH2 0xF80 JUMP JUMPDEST SWAP2 POP PUSH2 0x1775 DUP3 PUSH2 0x16EA JUMP JUMPDEST PUSH1 0x60 DUP3 ADD SWAP1 POP SWAP2 SWAP1 POP JUMP JUMPDEST PUSH0 PUSH1 0x20 DUP3 ADD SWAP1 POP DUP2 DUP2 SUB PUSH0 DUP4 ADD MSTORE PUSH2 0x1797 DUP2 PUSH2 0x175E JUMP JUMPDEST SWAP1 POP SWAP2 SWAP1 POP JUMP JUMPDEST PUSH32 0x596F75206172206E6F742072656769737465726564206173206120766F746572 PUSH0 DUP3 ADD MSTORE POP JUMP JUMPDEST PUSH0 PUSH2 0x17D2 PUSH1 0x20 DUP4 PUSH2 0xF80 JUMP JUMPDEST SWAP2 POP PUSH2 0x17DD DUP3 PUSH2 0x179E JUMP JUMPDEST PUSH1 0x20 DUP3 ADD SWAP1 POP SWAP2 SWAP1 POP JUMP JUMPDEST PUSH0 PUSH1 0x20 DUP3 ADD SWAP1 POP DUP2 DUP2 SUB PUSH0 DUP4 ADD MSTORE PUSH2 0x17FF DUP2 PUSH2 0x17C6 JUMP JUMPDEST SWAP1 POP SWAP2 SWAP1 POP JUMP JUMPDEST PUSH32 0x596F75206861766520616C726561647920766F74656400000000000000000000 PUSH0 DUP3 ADD MSTORE POP JUMP JUMPDEST PUSH0 PUSH2 0x183A PUSH1 0x16 DUP4 PUSH2 0xF80 JUMP JUMPDEST SWAP2 POP PUSH2 0x1845 DUP3 PUSH2 0x1806 JUMP JUMPDEST PUSH1 0x20 DUP3 ADD SWAP1 POP SWAP2 SWAP1 POP JUMP JUMPDEST PUSH0 PUSH1 0x20 DUP3 ADD SWAP1 POP DUP2 DUP2 SUB PUSH0 DUP4 ADD MSTORE PUSH2 0x1867 DUP2 PUSH2 0x182E JUMP JUMPDEST SWAP1 POP SWAP2 SWAP1 POP JUMP JUMPDEST PUSH32 0x496E76616C69642070726F706F73616C2063686F696365000000000000000000 PUSH0 DUP3 ADD MSTORE POP JUMP JUMPDEST PUSH0 PUSH2 0x18A2 PUSH1 0x17 DUP4 PUSH2 0xF80 JUMP JUMPDEST SWAP2 POP PUSH2 0x18AD DUP3 PUSH2 0x186E JUMP JUMPDEST PUSH1 0x20 DUP3 ADD SWAP1 POP SWAP2 SWAP1 POP JUMP JUMPDEST PUSH0 PUSH1 0x20 DUP3 ADD SWAP1 POP DUP2 DUP2 SUB PUSH0 DUP4 ADD MSTORE PUSH2 0x18CF DUP2 PUSH2 0x1896 JUMP JUMPDEST SWAP1 POP SWAP2 SWAP1 POP JUMP JUMPDEST PUSH32 0x4E487B7100000000000000000000000000000000000000000000000000000000 PUSH0 MSTORE PUSH1 0x32 PUSH1 0x4 MSTORE PUSH1 0x24 PUSH0 REVERT JUMPDEST PUSH0 PUSH1 0x40 DUP3 ADD SWAP1 POP PUSH2 0x1916 PUSH0 DUP4 ADD DUP6 PUSH2 0x11BF JUMP JUMPDEST PUSH2 0x1923 PUSH1 0x20 DUP4 ADD DUP5 PUSH2 0xFE6 JUMP JUMPDEST SWAP4 SWAP3 POP POP POP JUMP JUMPDEST PUSH32 0x50726F706F73616C2063616E206265206164646573206F6E6C7920696E205072 PUSH0 DUP3 ADD MSTORE PUSH32 0x6F706F73616C20526567697374726174696F6E2070686173653A310000000000 PUSH1 0x20 DUP3 ADD MSTORE POP JUMP JUMPDEST PUSH0 PUSH2 0x1984 PUSH1 0x3B DUP4 PUSH2 0xF80 JUMP JUMPDEST SWAP2 POP PUSH2 0x198F DUP3 PUSH2 0x192A JUMP JUMPDEST PUSH1 0x40 DUP3 ADD SWAP1 POP SWAP2 SWAP1 POP JUMP JUMPDEST PUSH0 PUSH1 0x20 DUP3 ADD SWAP1 POP DUP2 DUP2 SUB PUSH0 DUP4 ADD MSTORE PUSH2 0x19B1 DUP2 PUSH2 0x1978 JUMP JUMPDEST SWAP1 POP SWAP2 SWAP1 POP JUMP JUMPDEST PUSH32 0x57686974656C697374206D75737420636F6E7461696E206174206C6561737420 PUSH0 DUP3 ADD MSTORE PUSH32 0x6F6E652061646472657373000000000000000000000000000000000000000000 PUSH1 0x20 DUP3 ADD MSTORE POP JUMP JUMPDEST PUSH0 PUSH2 0x1A12 PUSH1 0x2B DUP4 PUSH2 0xF80 JUMP JUMPDEST SWAP2 POP PUSH2 0x1A1D DUP3 PUSH2 0x19B8 JUMP JUMPDEST PUSH1 0x40 DUP3 ADD SWAP1 POP SWAP2 SWAP1 POP JUMP JUMPDEST PUSH0 PUSH1 0x20 DUP3 ADD SWAP1 POP DUP2 DUP2 SUB PUSH0 DUP4 ADD MSTORE PUSH2 0x1A3F DUP2 PUSH2 0x1A06 JUMP JUMPDEST SWAP1 POP SWAP2 SWAP1 POP JUMP JUMPDEST PUSH32 0x596F757220616472657373206973206E6F742077686974656C69737465640000 PUSH0 DUP3 ADD MSTORE POP JUMP JUMPDEST PUSH0 PUSH2 0x1A7A PUSH1 0x1E DUP4 PUSH2 0xF80 JUMP JUMPDEST SWAP2 POP PUSH2 0x1A85 DUP3 PUSH2 0x1A46 JUMP JUMPDEST PUSH1 0x20 DUP3 ADD SWAP1 POP SWAP2 SWAP1 POP JUMP JUMPDEST PUSH0 PUSH1 0x20 DUP3 ADD SWAP1 POP DUP2 DUP2 SUB PUSH0 DUP4 ADD MSTORE PUSH2 0x1AA7 DUP2 PUSH2 0x1A6E JUMP JUMPDEST SWAP1 POP SWAP2 SWAP1 POP JUMP JUMPDEST PUSH0 DUP2 SWAP1 POP DUP2 PUSH0 MSTORE PUSH1 0x20 PUSH0 KECCAK256 SWAP1 POP SWAP2 SWAP1 POP JUMP JUMPDEST PUSH0 PUSH1 0x20 PUSH1 0x1F DUP4 ADD DIV SWAP1 POP SWAP2 SWAP1 POP JUMP JUMPDEST PUSH0 DUP3 DUP3 SHL SWAP1 POP SWAP3 SWAP2 POP POP JUMP JUMPDEST PUSH0 PUSH1 0x8 DUP4 MUL PUSH2 0x1B0A PUSH32 0xFFFFFFFFFFFFFFFFFFFFFFFFFFFFFFFFFFFFFFFFFFFFFFFFFFFFFFFFFFFFFFFF DUP3 PUSH2 0x1ACF JUMP JUMPDEST PUSH2 0x1B14 DUP7 DUP4 PUSH2 0x1ACF JUMP JUMPDEST SWAP6 POP DUP1 NOT DUP5 AND SWAP4 POP DUP1 DUP7 AND DUP5 OR SWAP3 POP POP POP SWAP4 SWAP3 POP POP POP JUMP JUMPDEST PUSH0 DUP2 SWAP1 POP SWAP2 SWAP1 POP JUMP JUMPDEST PUSH0 PUSH2 0x1B4F PUSH2 0x1B4A PUSH2 0x1B45 DUP5 PUSH2 0xF18 JUMP JUMPDEST PUSH2 0x1B2C JUMP JUMPDEST PUSH2 0xF18 JUMP JUMPDEST SWAP1 POP SWAP2 SWAP1 POP JUMP JUMPDEST PUSH0 DUP2 SWAP1 POP SWAP2 SWAP1 POP JUMP JUMPDEST PUSH2 0x1B68 DUP4 PUSH2 0x1B35 JUMP JUMPDEST PUSH2 0x1B7C PUSH2 0x1B74 DUP3 PUSH2 0x1B56 JUMP JUMPDEST DUP5 DUP5 SLOAD PUSH2 0x1ADB JUMP JUMPDEST DUP3 SSTORE POP POP POP POP JUMP JUMPDEST PUSH0 PUSH0 SWAP1 POP SWAP1 JUMP JUMPDEST PUSH2 0x1B93 PUSH2 0x1B84 JUMP JUMPDEST PUSH2 0x1B9E DUP2 DUP5 DUP5 PUSH2 0x1B5F JUMP JUMPDEST POP POP POP JUMP JUMPDEST JUMPDEST DUP2 DUP2 LT ISZERO PUSH2 0x1BC1 JUMPI PUSH2 0x1BB6 PUSH0 DUP3 PUSH2 0x1B8B JUMP JUMPDEST PUSH1 0x1 DUP2 ADD SWAP1 POP PUSH2 0x1BA4 JUMP JUMPDEST POP POP JUMP JUMPDEST PUSH1 0x1F DUP3 GT ISZERO PUSH2 0x1C06 JUMPI PUSH2 0x1BD7 DUP2 PUSH2 0x1AAE JUMP JUMPDEST PUSH2 0x1BE0 DUP5 PUSH2 0x1AC0 JUMP JUMPDEST DUP2 ADD PUSH1 0x20 DUP6 LT ISZERO PUSH2 0x1BEF JUMPI DUP2 SWAP1 POP JUMPDEST PUSH2 0x1C03 PUSH2 0x1BFB DUP6 PUSH2 0x1AC0 JUMP JUMPDEST DUP4 ADD DUP3 PUSH2 0x1BA3 JUMP JUMPDEST POP POP JUMPDEST POP POP POP JUMP JUMPDEST PUSH0 DUP3 DUP3 SHR SWAP1 POP SWAP3 SWAP2 POP POP JUMP JUMPDEST PUSH0 PUSH2 0x1C26 PUSH0 NOT DUP5 PUSH1 0x8 MUL PUSH2 0x1C0B JUMP JUMPDEST NOT DUP1 DUP4 AND SWAP2 POP POP SWAP3 SWAP2 POP POP JUMP JUMPDEST PUSH0 PUSH2 0x1C3E DUP4 DUP4 PUSH2 0x1C17 JUMP JUMPDEST SWAP2 POP DUP3 PUSH1 0x2 MUL DUP3 OR SWAP1 POP SWAP3 SWAP2 POP POP JUMP JUMPDEST PUSH2 0x1C57 DUP3 PUSH2 0xF76 JUMP JUMPDEST PUSH8 0xFFFFFFFFFFFFFFFF DUP2 GT ISZERO PUSH2 0x1C70 JUMPI PUSH2 0x1C6F PUSH2 0x125D JUMP JUMPDEST JUMPDEST PUSH2 0x1C7A DUP3 SLOAD PUSH2 0x13F5 JUMP JUMPDEST PUSH2 0x1C85 DUP3 DUP3 DUP6 PUSH2 0x1BC5 JUMP JUMPDEST PUSH0 PUSH1 0x20 SWAP1 POP PUSH1 0x1F DUP4 GT PUSH1 0x1 DUP2 EQ PUSH2 0x1CB6 JUMPI PUSH0 DUP5 ISZERO PUSH2 0x1CA4 JUMPI DUP3 DUP8 ADD MLOAD SWAP1 POP JUMPDEST PUSH2 0x1CAE DUP6 DUP3 PUSH2 0x1C33 JUMP JUMPDEST DUP7 SSTORE POP PUSH2 0x1D15 JUMP JUMPDEST PUSH1 0x1F NOT DUP5 AND PUSH2 0x1CC4 DUP7 PUSH2 0x1AAE JUMP JUMPDEST PUSH0 JUMPDEST DUP3 DUP2 LT ISZERO PUSH2 0x1CEB JUMPI DUP5 DUP10 ADD MLOAD DUP3 SSTORE PUSH1 0x1 DUP3 ADD SWAP2 POP PUSH1 0x20 DUP6 ADD SWAP5 POP PUSH1 0x20 DUP2 ADD SWAP1 POP PUSH2 0x1CC6 JUMP JUMPDEST DUP7 DUP4 LT ISZERO PUSH2 0x1D08 JUMPI DUP5 DUP10 ADD MLOAD PUSH2 0x1D04 PUSH1 0x1F DUP10 AND DUP3 PUSH2 0x1C17 JUMP JUMPDEST DUP4 SSTORE POP JUMPDEST PUSH1 0x1 PUSH1 0x2 DUP9 MUL ADD DUP9 SSTORE POP POP POP JUMPDEST POP POP POP POP POP POP JUMP JUMPDEST PUSH0 PUSH2 0x1D27 DUP3 PUSH2 0xF18 JUMP JUMPDEST SWAP2 POP PUSH2 0x1D32 DUP4 PUSH2 0xF18 JUMP JUMPDEST SWAP3 POP DUP3 DUP3 SUB SWAP1 POP DUP2 DUP2 GT ISZERO PUSH2 0x1D4A JUMPI PUSH2 0x1D49 PUSH2 0x1452 JUMP JUMPDEST JUMPDEST SWAP3 SWAP2 POP POP JUMP INVALID LOG2 PUSH5 0x6970667358 0x22 SLT KECCAK256 LOG0 CREATE XOR PUSH25 0x84F384E63CECC3AAD1A04284231F3ECC34F55EE96E9EDF30E4 0xE9 0x2F SWAP3 PUSH5 0x736F6C6343 STOP ADDMOD SHL STOP CALLER "
				},
				"gasEstimates": {
					"creation": {
						"codeDepositCost": "1511600",
						"executionCost": "infinite",
						"totalCost": "infinite"
					},
					"external": {
						"Vote(uint256)": "infinite",
						"_addProposal(string)": "infinite",
						"_whitelist(address)": "infinite",
						"getAllProposal()": "infinite",
						"getProposalCount()": "2462",
						"nextVotingStatus()": "infinite",
						"owner()": "2603",
						"proposals(uint256)": "infinite",
						"renounceOwnership()": "infinite",
						"transferOwnership(address)": "infinite",
						"winners(uint256)": "infinite"
					}
				},
				"methodIdentifiers": {
					"Vote(uint256)": "dcd6a5cd",
					"_addProposal(string)": "e6adaecc",
					"_whitelist(address)": "cfdb63ac",
					"getAllProposal()": "43344983",
					"getProposalCount()": "c08cc02d",
					"nextVotingStatus()": "4ea49925",
					"owner()": "8da5cb5b",
					"proposals(uint256)": "013cf08b",
					"renounceOwnership()": "715018a6",
					"transferOwnership(address)": "f2fde38b",
					"winners(uint256)": "a2fb1175"
				}
			},
			"storageLayout": {
				"storage": [
					{
						"astId": 326,
						"contract": "contracts/Voting.sol:Voting",
						"label": "_owner",
						"offset": 0,
						"slot": "0",
						"type": "t_address"
					},
					{
						"astId": 14,
						"contract": "contracts/Voting.sol:Voting",
						"label": "state",
						"offset": 20,
						"slot": "0",
						"type": "t_enum(WorkflowStatus)11"
					},
					{
						"astId": 65,
						"contract": "contracts/Voting.sol:Voting",
						"label": "whitelist",
						"offset": 0,
						"slot": "1",
						"type": "t_mapping(t_address,t_bool)"
					},
					{
						"astId": 70,
						"contract": "contracts/Voting.sol:Voting",
						"label": "voters",
						"offset": 0,
						"slot": "2",
						"type": "t_mapping(t_address,t_struct(Voter)56_storage)"
					},
					{
						"astId": 74,
						"contract": "contracts/Voting.sol:Voting",
						"label": "proposals",
						"offset": 0,
						"slot": "3",
						"type": "t_array(t_struct(Proposal)61_storage)dyn_storage"
					},
					{
						"astId": 76,
						"contract": "contracts/Voting.sol:Voting",
						"label": "whitelistCount",
						"offset": 0,
						"slot": "4",
						"type": "t_uint256"
					},
					{
						"astId": 80,
						"contract": "contracts/Voting.sol:Voting",
						"label": "winners",
						"offset": 0,
						"slot": "5",
						"type": "t_array(t_struct(Proposal)61_storage)dyn_storage"
					}
				],
				"types": {
					"t_address": {
						"encoding": "inplace",
						"label": "address",
						"numberOfBytes": "20"
					},
					"t_array(t_struct(Proposal)61_storage)dyn_storage": {
						"base": "t_struct(Proposal)61_storage",
						"encoding": "dynamic_array",
						"label": "struct Voting.Proposal[]",
						"numberOfBytes": "32"
					},
					"t_bool": {
						"encoding": "inplace",
						"label": "bool",
						"numberOfBytes": "1"
					},
					"t_enum(WorkflowStatus)11": {
						"encoding": "inplace",
						"label": "enum Voting.WorkflowStatus",
						"numberOfBytes": "1"
					},
					"t_mapping(t_address,t_bool)": {
						"encoding": "mapping",
						"key": "t_address",
						"label": "mapping(address => bool)",
						"numberOfBytes": "32",
						"value": "t_bool"
					},
					"t_mapping(t_address,t_struct(Voter)56_storage)": {
						"encoding": "mapping",
						"key": "t_address",
						"label": "mapping(address => struct Voting.Voter)",
						"numberOfBytes": "32",
						"value": "t_struct(Voter)56_storage"
					},
					"t_string_storage": {
						"encoding": "bytes",
						"label": "string",
						"numberOfBytes": "32"
					},
					"t_struct(Proposal)61_storage": {
						"encoding": "inplace",
						"label": "struct Voting.Proposal",
						"members": [
							{
								"astId": 58,
								"contract": "contracts/Voting.sol:Voting",
								"label": "description",
								"offset": 0,
								"slot": "0",
								"type": "t_string_storage"
							},
							{
								"astId": 60,
								"contract": "contracts/Voting.sol:Voting",
								"label": "voteCount",
								"offset": 0,
								"slot": "1",
								"type": "t_uint256"
							}
						],
						"numberOfBytes": "64"
					},
					"t_struct(Voter)56_storage": {
						"encoding": "inplace",
						"label": "struct Voting.Voter",
						"members": [
							{
								"astId": 51,
								"contract": "contracts/Voting.sol:Voting",
								"label": "isRegistered",
								"offset": 0,
								"slot": "0",
								"type": "t_bool"
							},
							{
								"astId": 53,
								"contract": "contracts/Voting.sol:Voting",
								"label": "hasVoted",
								"offset": 1,
								"slot": "0",
								"type": "t_bool"
							},
							{
								"astId": 55,
								"contract": "contracts/Voting.sol:Voting",
								"label": "votedProposalId",
								"offset": 0,
								"slot": "1",
								"type": "t_uint256"
							}
						],
						"numberOfBytes": "64"
					},
					"t_uint256": {
						"encoding": "inplace",
						"label": "uint256",
						"numberOfBytes": "32"
					}
				}
			},
			"userdoc": {
				"kind": "user",
				"methods": {},
				"version": 1
			}
		}
	}
}