{
	"contracts/Voting.sol": {
		"Voting": {
			"abi": [
				{
					"inputs": [],
					"stateMutability": "nonpayable",
					"type": "constructor"
				},
				{
					"inputs": [
						{
							"internalType": "address",
							"name": "owner",
							"type": "address"
						}
					],
					"name": "OwnableInvalidOwner",
					"type": "error"
				},
				{
					"inputs": [
						{
							"internalType": "address",
							"name": "account",
							"type": "address"
						}
					],
					"name": "OwnableUnauthorizedAccount",
					"type": "error"
				},
				{
					"anonymous": false,
					"inputs": [
						{
							"indexed": true,
							"internalType": "address",
							"name": "previousOwner",
							"type": "address"
						},
						{
							"indexed": true,
							"internalType": "address",
							"name": "newOwner",
							"type": "address"
						}
					],
					"name": "OwnershipTransferred",
					"type": "event"
				},
				{
					"anonymous": false,
					"inputs": [
						{
							"indexed": false,
							"internalType": "uint256",
							"name": "proposalId",
							"type": "uint256"
						}
					],
					"name": "ProposalRegistered",
					"type": "event"
				},
				{
					"anonymous": false,
					"inputs": [
						{
							"indexed": false,
							"internalType": "address",
							"name": "voter",
							"type": "address"
						},
						{
							"indexed": false,
							"internalType": "uint256",
							"name": "proposalId",
							"type": "uint256"
						}
					],
					"name": "Voted",
					"type": "event"
				},
				{
					"anonymous": false,
					"inputs": [
						{
							"indexed": false,
							"internalType": "address",
							"name": "voterAddress",
							"type": "address"
						}
					],
					"name": "VoterRegistered",
					"type": "event"
				},
				{
					"anonymous": false,
					"inputs": [
						{
							"indexed": false,
							"internalType": "enum Voting.WorkflowStatus",
							"name": "previousStatus",
							"type": "uint8"
						},
						{
							"indexed": false,
							"internalType": "enum Voting.WorkflowStatus",
							"name": "newStatus",
							"type": "uint8"
						}
					],
					"name": "WorkflowStatusChange",
					"type": "event"
				},
				{
					"inputs": [
						{
							"internalType": "uint256",
							"name": "_choice",
							"type": "uint256"
						}
					],
					"name": "Vote",
					"outputs": [],
					"stateMutability": "nonpayable",
					"type": "function"
				},
				{
					"inputs": [
						{
							"internalType": "string",
							"name": "_description",
							"type": "string"
						}
					],
					"name": "addProposal",
					"outputs": [],
					"stateMutability": "nonpayable",
					"type": "function"
				},
				{
					"inputs": [],
					"name": "checkWinner",
					"outputs": [
						{
							"components": [
								{
									"internalType": "string",
									"name": "description",
									"type": "string"
								},
								{
									"internalType": "uint256",
									"name": "voteCount",
									"type": "uint256"
								}
							],
							"internalType": "struct Voting.Proposal[]",
							"name": "",
							"type": "tuple[]"
						}
					],
					"stateMutability": "view",
					"type": "function"
				},
				{
					"inputs": [],
					"name": "getAllProposal",
					"outputs": [
						{
							"components": [
								{
									"internalType": "string",
									"name": "description",
									"type": "string"
								},
								{
									"internalType": "uint256",
									"name": "voteCount",
									"type": "uint256"
								}
							],
							"internalType": "struct Voting.Proposal[]",
							"name": "",
							"type": "tuple[]"
						}
					],
					"stateMutability": "view",
					"type": "function"
				},
				{
					"inputs": [],
					"name": "getProposalCount",
					"outputs": [
						{
							"internalType": "uint256",
							"name": "",
							"type": "uint256"
						}
					],
					"stateMutability": "view",
					"type": "function"
				},
				{
					"inputs": [],
					"name": "getWinner",
					"outputs": [],
					"stateMutability": "nonpayable",
					"type": "function"
				},
				{
					"inputs": [],
					"name": "nextVotingStatus",
					"outputs": [],
					"stateMutability": "nonpayable",
					"type": "function"
				},
				{
					"inputs": [],
					"name": "owner",
					"outputs": [
						{
							"internalType": "address",
							"name": "",
							"type": "address"
						}
					],
					"stateMutability": "view",
					"type": "function"
				},
				{
					"inputs": [],
					"name": "renounceOwnership",
					"outputs": [],
					"stateMutability": "nonpayable",
					"type": "function"
				},
				{
					"inputs": [
						{
							"internalType": "address",
							"name": "_address",
							"type": "address"
						}
					],
					"name": "setWhitelist",
					"outputs": [],
					"stateMutability": "nonpayable",
					"type": "function"
				},
				{
					"inputs": [
						{
							"internalType": "address",
							"name": "newOwner",
							"type": "address"
						}
					],
					"name": "transferOwnership",
					"outputs": [],
					"stateMutability": "nonpayable",
					"type": "function"
				}
			],
			"devdoc": {
				"errors": {
					"OwnableInvalidOwner(address)": [
						{
							"details": "The owner is not a valid owner account. (eg. `address(0)`)"
						}
					],
					"OwnableUnauthorizedAccount(address)": [
						{
							"details": "The caller account is not authorized to perform an operation."
						}
					]
				},
				"kind": "dev",
				"methods": {
					"owner()": {
						"details": "Returns the address of the current owner."
					},
					"renounceOwnership()": {
						"details": "Leaves the contract without owner. It will not be possible to call `onlyOwner` functions. Can only be called by the current owner. NOTE: Renouncing ownership will leave the contract without an owner, thereby disabling any functionality that is only available to the owner."
					},
					"transferOwnership(address)": {
						"details": "Transfers ownership of the contract to a new account (`newOwner`). Can only be called by the current owner."
					}
				},
				"version": 1
			},
			"evm": {
				"assembly": "    /* \"contracts/Voting.sol\":170:5712  contract Voting is Ownable{... */\n  mstore(0x40, 0x80)\n    /* \"contracts/Voting.sol\":451:539  constructor() Ownable(msg.sender){ ... */\n  callvalue\n  dup1\n  iszero\n  tag_1\n  jumpi\n  revert(0x00, 0x00)\ntag_1:\n  pop\n    /* \"contracts/Voting.sol\":473:483  msg.sender */\n  caller\n    /* \"https://github.com/OpenZeppelin/openzeppelin-contracts/blob/master/contracts/access/Ownable.sol\":1297:1298  0 */\n  0x00\n    /* \"https://github.com/OpenZeppelin/openzeppelin-contracts/blob/master/contracts/access/Ownable.sol\":1273:1299  initialOwner == address(0) */\n  0xffffffffffffffffffffffffffffffffffffffff\n  and\n    /* \"https://github.com/OpenZeppelin/openzeppelin-contracts/blob/master/contracts/access/Ownable.sol\":1273:1285  initialOwner */\n  dup2\n    /* \"https://github.com/OpenZeppelin/openzeppelin-contracts/blob/master/contracts/access/Ownable.sol\":1273:1299  initialOwner == address(0) */\n  0xffffffffffffffffffffffffffffffffffffffff\n  and\n  sub\n    /* \"https://github.com/OpenZeppelin/openzeppelin-contracts/blob/master/contracts/access/Ownable.sol\":1269:1364  if (initialOwner == address(0)) {... */\n  tag_5\n  jumpi\n    /* \"https://github.com/OpenZeppelin/openzeppelin-contracts/blob/master/contracts/access/Ownable.sol\":1350:1351  0 */\n  0x00\n    /* \"https://github.com/OpenZeppelin/openzeppelin-contracts/blob/master/contracts/access/Ownable.sol\":1322:1353  OwnableInvalidOwner(address(0)) */\n  mload(0x40)\n  0x1e4fbdf700000000000000000000000000000000000000000000000000000000\n  dup2\n  mstore\n  0x04\n  add\n  tag_6\n  swap2\n  swap1\n  tag_7\n  jump\t// in\ntag_6:\n  mload(0x40)\n  dup1\n  swap2\n  sub\n  swap1\n  revert\n    /* \"https://github.com/OpenZeppelin/openzeppelin-contracts/blob/master/contracts/access/Ownable.sol\":1269:1364  if (initialOwner == address(0)) {... */\ntag_5:\n    /* \"https://github.com/OpenZeppelin/openzeppelin-contracts/blob/master/contracts/access/Ownable.sol\":1373:1405  _transferOwnership(initialOwner) */\n  tag_8\n    /* \"https://github.com/OpenZeppelin/openzeppelin-contracts/blob/master/contracts/access/Ownable.sol\":1392:1404  initialOwner */\n  dup2\n    /* \"https://github.com/OpenZeppelin/openzeppelin-contracts/blob/master/contracts/access/Ownable.sol\":1373:1391  _transferOwnership */\n  shl(0x20, tag_9)\n    /* \"https://github.com/OpenZeppelin/openzeppelin-contracts/blob/master/contracts/access/Ownable.sol\":1373:1405  _transferOwnership(initialOwner) */\n  0x20\n  shr\n  jump\t// in\ntag_8:\n    /* \"https://github.com/OpenZeppelin/openzeppelin-contracts/blob/master/contracts/access/Ownable.sol\":1225:1412  constructor(address initialOwner) {... */\n  pop\n    /* \"contracts/Voting.sol\":503:530  WorkflowStatus.VotesTallied */\n  0x05\n    /* \"contracts/Voting.sol\":495:500  state */\n  0x00\n  0x14\n    /* \"contracts/Voting.sol\":495:530  state = WorkflowStatus.VotesTallied */\n  0x0100\n  exp\n  dup2\n  sload\n  dup2\n  0xff\n  mul\n  not\n  and\n  swap1\n  dup4\n  0x05\n  dup2\n  gt\n  iszero\n  tag_11\n  jumpi\n  tag_12\n  tag_13\n  jump\t// in\ntag_12:\ntag_11:\n  mul\n  or\n  swap1\n  sstore\n  pop\n    /* \"contracts/Voting.sol\":170:5712  contract Voting is Ownable{... */\n  jump(tag_14)\n    /* \"https://github.com/OpenZeppelin/openzeppelin-contracts/blob/master/contracts/access/Ownable.sol\":2912:3099  function _transferOwnership(address newOwner) internal virtual {... */\ntag_9:\n    /* \"https://github.com/OpenZeppelin/openzeppelin-contracts/blob/master/contracts/access/Ownable.sol\":2985:3001  address oldOwner */\n  0x00\n    /* \"https://github.com/OpenZeppelin/openzeppelin-contracts/blob/master/contracts/access/Ownable.sol\":3004:3010  _owner */\n  0x00\n  0x00\n  swap1\n  sload\n  swap1\n  0x0100\n  exp\n  swap1\n  div\n  0xffffffffffffffffffffffffffffffffffffffff\n  and\n    /* \"https://github.com/OpenZeppelin/openzeppelin-contracts/blob/master/contracts/access/Ownable.sol\":2985:3010  address oldOwner = _owner */\n  swap1\n  pop\n    /* \"https://github.com/OpenZeppelin/openzeppelin-contracts/blob/master/contracts/access/Ownable.sol\":3029:3037  newOwner */\n  dup2\n    /* \"https://github.com/OpenZeppelin/openzeppelin-contracts/blob/master/contracts/access/Ownable.sol\":3020:3026  _owner */\n  0x00\n  0x00\n    /* \"https://github.com/OpenZeppelin/openzeppelin-contracts/blob/master/contracts/access/Ownable.sol\":3020:3037  _owner = newOwner */\n  0x0100\n  exp\n  dup2\n  sload\n  dup2\n  0xffffffffffffffffffffffffffffffffffffffff\n  mul\n  not\n  and\n  swap1\n  dup4\n  0xffffffffffffffffffffffffffffffffffffffff\n  and\n  mul\n  or\n  swap1\n  sstore\n  pop\n    /* \"https://github.com/OpenZeppelin/openzeppelin-contracts/blob/master/contracts/access/Ownable.sol\":3083:3091  newOwner */\n  dup2\n    /* \"https://github.com/OpenZeppelin/openzeppelin-contracts/blob/master/contracts/access/Ownable.sol\":3052:3092  OwnershipTransferred(oldOwner, newOwner) */\n  0xffffffffffffffffffffffffffffffffffffffff\n  and\n    /* \"https://github.com/OpenZeppelin/openzeppelin-contracts/blob/master/contracts/access/Ownable.sol\":3073:3081  oldOwner */\n  dup2\n    /* \"https://github.com/OpenZeppelin/openzeppelin-contracts/blob/master/contracts/access/Ownable.sol\":3052:3092  OwnershipTransferred(oldOwner, newOwner) */\n  0xffffffffffffffffffffffffffffffffffffffff\n  and\n  0x8be0079c531659141344cd1fd0a4f28419497f9722a3daafe3b4186f6b6457e0\n  mload(0x40)\n  mload(0x40)\n  dup1\n  swap2\n  sub\n  swap1\n  log3\n    /* \"https://github.com/OpenZeppelin/openzeppelin-contracts/blob/master/contracts/access/Ownable.sol\":2975:3099  {... */\n  pop\n    /* \"https://github.com/OpenZeppelin/openzeppelin-contracts/blob/master/contracts/access/Ownable.sol\":2912:3099  function _transferOwnership(address newOwner) internal virtual {... */\n  pop\n  jump\t// out\n    /* \"#utility.yul\":7:133   */\ntag_16:\n    /* \"#utility.yul\":44:51   */\n  0x00\n    /* \"#utility.yul\":84:126   */\n  0xffffffffffffffffffffffffffffffffffffffff\n    /* \"#utility.yul\":77:82   */\n  dup3\n    /* \"#utility.yul\":73:127   */\n  and\n    /* \"#utility.yul\":62:127   */\n  swap1\n  pop\n    /* \"#utility.yul\":7:133   */\n  swap2\n  swap1\n  pop\n  jump\t// out\n    /* \"#utility.yul\":139:235   */\ntag_17:\n    /* \"#utility.yul\":176:183   */\n  0x00\n    /* \"#utility.yul\":205:229   */\n  tag_22\n    /* \"#utility.yul\":223:228   */\n  dup3\n    /* \"#utility.yul\":205:229   */\n  tag_16\n  jump\t// in\ntag_22:\n    /* \"#utility.yul\":194:229   */\n  swap1\n  pop\n    /* \"#utility.yul\":139:235   */\n  swap2\n  swap1\n  pop\n  jump\t// out\n    /* \"#utility.yul\":241:359   */\ntag_18:\n    /* \"#utility.yul\":328:352   */\n  tag_24\n    /* \"#utility.yul\":346:351   */\n  dup2\n    /* \"#utility.yul\":328:352   */\n  tag_17\n  jump\t// in\ntag_24:\n    /* \"#utility.yul\":323:326   */\n  dup3\n    /* \"#utility.yul\":316:353   */\n  mstore\n    /* \"#utility.yul\":241:359   */\n  pop\n  pop\n  jump\t// out\n    /* \"#utility.yul\":365:587   */\ntag_7:\n    /* \"#utility.yul\":458:462   */\n  0x00\n    /* \"#utility.yul\":496:498   */\n  0x20\n    /* \"#utility.yul\":485:494   */\n  dup3\n    /* \"#utility.yul\":481:499   */\n  add\n    /* \"#utility.yul\":473:499   */\n  swap1\n  pop\n    /* \"#utility.yul\":509:580   */\n  tag_26\n    /* \"#utility.yul\":577:578   */\n  0x00\n    /* \"#utility.yul\":566:575   */\n  dup4\n    /* \"#utility.yul\":562:579   */\n  add\n    /* \"#utility.yul\":553:559   */\n  dup5\n    /* \"#utility.yul\":509:580   */\n  tag_18\n  jump\t// in\ntag_26:\n    /* \"#utility.yul\":365:587   */\n  swap3\n  swap2\n  pop\n  pop\n  jump\t// out\n    /* \"#utility.yul\":593:773   */\ntag_13:\n    /* \"#utility.yul\":641:718   */\n  0x4e487b7100000000000000000000000000000000000000000000000000000000\n    /* \"#utility.yul\":638:639   */\n  0x00\n    /* \"#utility.yul\":631:719   */\n  mstore\n    /* \"#utility.yul\":738:742   */\n  0x21\n    /* \"#utility.yul\":735:736   */\n  0x04\n    /* \"#utility.yul\":728:743   */\n  mstore\n    /* \"#utility.yul\":762:766   */\n  0x24\n    /* \"#utility.yul\":759:760   */\n  0x00\n    /* \"#utility.yul\":752:767   */\n  revert\n    /* \"contracts/Voting.sol\":170:5712  contract Voting is Ownable{... */\ntag_14:\n  dataSize(sub_0)\n  dup1\n  dataOffset(sub_0)\n  0x00\n  codecopy\n  0x00\n  return\nstop\n\nsub_0: assembly {\n        /* \"contracts/Voting.sol\":170:5712  contract Voting is Ownable{... */\n      mstore(0x40, 0x80)\n      callvalue\n      dup1\n      iszero\n      tag_1\n      jumpi\n      revert(0x00, 0x00)\n    tag_1:\n      pop\n      jumpi(tag_2, lt(calldatasize, 0x04))\n      shr(0xe0, calldataload(0x00))\n      dup1\n      0x8da5cb5b\n      gt\n      tag_14\n      jumpi\n      dup1\n      0x8da5cb5b\n      eq\n      tag_8\n      jumpi\n      dup1\n      0x8e7ea5b2\n      eq\n      tag_9\n      jumpi\n      dup1\n      0xad38867e\n      eq\n      tag_10\n      jumpi\n      dup1\n      0xc08cc02d\n      eq\n      tag_11\n      jumpi\n      dup1\n      0xdcd6a5cd\n      eq\n      tag_12\n      jumpi\n      dup1\n      0xf2fde38b\n      eq\n      tag_13\n      jumpi\n      jump(tag_2)\n    tag_14:\n      dup1\n      0x2fdae3c5\n      eq\n      tag_3\n      jumpi\n      dup1\n      0x43344983\n      eq\n      tag_4\n      jumpi\n      dup1\n      0x4ea49925\n      eq\n      tag_5\n      jumpi\n      dup1\n      0x715018a6\n      eq\n      tag_6\n      jumpi\n      dup1\n      0x854cff2f\n      eq\n      tag_7\n      jumpi\n    tag_2:\n      revert(0x00, 0x00)\n        /* \"contracts/Voting.sol\":2793:3424  function addProposal (string memory _description) external {... */\n    tag_3:\n      tag_15\n      0x04\n      dup1\n      calldatasize\n      sub\n      dup2\n      add\n      swap1\n      tag_16\n      swap2\n      swap1\n      tag_17\n      jump\t// in\n    tag_16:\n      tag_18\n      jump\t// in\n    tag_15:\n      stop\n        /* \"contracts/Voting.sol\":3531:3629  function getAllProposal()external view returns(Proposal[] memory){... */\n    tag_4:\n      tag_19\n      tag_20\n      jump\t// in\n    tag_19:\n      mload(0x40)\n      tag_21\n      swap2\n      swap1\n      tag_22\n      jump\t// in\n    tag_21:\n      mload(0x40)\n      dup1\n      swap2\n      sub\n      swap1\n      return\n        /* \"contracts/Voting.sol\":1303:1782  function nextVotingStatus() public onlyOwner{ //Definis le status à l'etape suivante... */\n    tag_5:\n      tag_23\n      tag_24\n      jump\t// in\n    tag_23:\n      stop\n        /* \"https://github.com/OpenZeppelin/openzeppelin-contracts/blob/master/contracts/access/Ownable.sol\":2293:2394  function renounceOwnership() public virtual onlyOwner {... */\n    tag_6:\n      tag_25\n      tag_26\n      jump\t// in\n    tag_25:\n      stop\n        /* \"contracts/Voting.sol\":1864:2644  function setWhitelist(address _address) public onlyOwner{... */\n    tag_7:\n      tag_27\n      0x04\n      dup1\n      calldatasize\n      sub\n      dup2\n      add\n      swap1\n      tag_28\n      swap2\n      swap1\n      tag_29\n      jump\t// in\n    tag_28:\n      tag_30\n      jump\t// in\n    tag_27:\n      stop\n        /* \"https://github.com/OpenZeppelin/openzeppelin-contracts/blob/master/contracts/access/Ownable.sol\":1638:1723  function owner() public view virtual returns (address) {... */\n    tag_8:\n      tag_31\n      tag_32\n      jump\t// in\n    tag_31:\n      mload(0x40)\n      tag_33\n      swap2\n      swap1\n      tag_34\n      jump\t// in\n    tag_33:\n      mload(0x40)\n      dup1\n      swap2\n      sub\n      swap1\n      return\n        /* \"contracts/Voting.sol\":4385:5558  function getWinner () external onlyOwner{... */\n    tag_9:\n      tag_35\n      tag_36\n      jump\t// in\n    tag_35:\n      stop\n        /* \"contracts/Voting.sol\":5564:5710  function checkWinner()external view returns(Proposal[] memory){... */\n    tag_10:\n      tag_37\n      tag_38\n      jump\t// in\n    tag_37:\n      mload(0x40)\n      tag_39\n      swap2\n      swap1\n      tag_22\n      jump\t// in\n    tag_39:\n      mload(0x40)\n      dup1\n      swap2\n      sub\n      swap1\n      return\n        /* \"contracts/Voting.sol\":3429:3525  function getProposalCount() external view returns (uint){... */\n    tag_11:\n      tag_40\n      tag_41\n      jump\t// in\n    tag_40:\n      mload(0x40)\n      tag_42\n      swap2\n      swap1\n      tag_43\n      jump\t// in\n    tag_42:\n      mload(0x40)\n      dup1\n      swap2\n      sub\n      swap1\n      return\n        /* \"contracts/Voting.sol\":3640:4380  function Vote(uint _choice ) external {... */\n    tag_12:\n      tag_44\n      0x04\n      dup1\n      calldatasize\n      sub\n      dup2\n      add\n      swap1\n      tag_45\n      swap2\n      swap1\n      tag_46\n      jump\t// in\n    tag_45:\n      tag_47\n      jump\t// in\n    tag_44:\n      stop\n        /* \"https://github.com/OpenZeppelin/openzeppelin-contracts/blob/master/contracts/access/Ownable.sol\":2543:2758  function transferOwnership(address newOwner) public virtual onlyOwner {... */\n    tag_13:\n      tag_48\n      0x04\n      dup1\n      calldatasize\n      sub\n      dup2\n      add\n      swap1\n      tag_49\n      swap2\n      swap1\n      tag_29\n      jump\t// in\n    tag_49:\n      tag_50\n      jump\t// in\n    tag_48:\n      stop\n        /* \"contracts/Voting.sol\":2793:3424  function addProposal (string memory _description) external {... */\n    tag_18:\n        /* \"contracts/Voting.sol\":2879:2922  WorkflowStatus.ProposalsRegistrationStarted */\n      0x01\n        /* \"contracts/Voting.sol\":2870:2922  state == WorkflowStatus.ProposalsRegistrationStarted */\n      0x05\n      dup2\n      gt\n      iszero\n      tag_52\n      jumpi\n      tag_53\n      tag_54\n      jump\t// in\n    tag_53:\n    tag_52:\n        /* \"contracts/Voting.sol\":2870:2875  state */\n      0x00\n      0x14\n      swap1\n      sload\n      swap1\n      0x0100\n      exp\n      swap1\n      div\n      0xff\n      and\n        /* \"contracts/Voting.sol\":2870:2922  state == WorkflowStatus.ProposalsRegistrationStarted */\n      0x05\n      dup2\n      gt\n      iszero\n      tag_55\n      jumpi\n      tag_56\n      tag_54\n      jump\t// in\n    tag_56:\n    tag_55:\n      eq\n        /* \"contracts/Voting.sol\":2862:2986  require(state == WorkflowStatus.ProposalsRegistrationStarted,\"Proposal can be addes only in Proposal Registration phase:1.\") */\n      tag_57\n      jumpi\n      mload(0x40)\n      0x08c379a000000000000000000000000000000000000000000000000000000000\n      dup2\n      mstore\n      0x04\n      add\n      tag_58\n      swap1\n      tag_59\n      jump\t// in\n    tag_58:\n      mload(0x40)\n      dup1\n      swap2\n      sub\n      swap1\n      revert\n    tag_57:\n        /* \"contracts/Voting.sol\":3092:3093  0 */\n      0x00\n        /* \"contracts/Voting.sol\":3077:3091  whitelistCount */\n      sload(0x04)\n        /* \"contracts/Voting.sol\":3077:3093  whitelistCount>0 */\n      gt\n        /* \"contracts/Voting.sol\":3069:3140  require(whitelistCount>0,\"Whitelist must contain at least one address\") */\n      tag_60\n      jumpi\n      mload(0x40)\n      0x08c379a000000000000000000000000000000000000000000000000000000000\n      dup2\n      mstore\n      0x04\n      add\n      tag_61\n      swap1\n      tag_62\n      jump\t// in\n    tag_61:\n      mload(0x40)\n      dup1\n      swap2\n      sub\n      swap1\n      revert\n    tag_60:\n        /* \"contracts/Voting.sol\":3158:3167  whitelist */\n      0x01\n        /* \"contracts/Voting.sol\":3158:3179  whitelist[msg.sender] */\n      0x00\n        /* \"contracts/Voting.sol\":3168:3178  msg.sender */\n      caller\n        /* \"contracts/Voting.sol\":3158:3179  whitelist[msg.sender] */\n      0xffffffffffffffffffffffffffffffffffffffff\n      and\n      0xffffffffffffffffffffffffffffffffffffffff\n      and\n      dup2\n      mstore\n      0x20\n      add\n      swap1\n      dup2\n      mstore\n      0x20\n      add\n      0x00\n      keccak256\n      0x00\n      swap1\n      sload\n      swap1\n      0x0100\n      exp\n      swap1\n      div\n      0xff\n      and\n        /* \"contracts/Voting.sol\":3150:3213  require(whitelist[msg.sender],\"Your adress is not whitelisted\") */\n      tag_63\n      jumpi\n      mload(0x40)\n      0x08c379a000000000000000000000000000000000000000000000000000000000\n      dup2\n      mstore\n      0x04\n      add\n      tag_64\n      swap1\n      tag_65\n      jump\t// in\n    tag_64:\n      mload(0x40)\n      dup1\n      swap2\n      sub\n      swap1\n      revert\n    tag_63:\n        /* \"contracts/Voting.sol\":3224:3233  proposals */\n      0x03\n        /* \"contracts/Voting.sol\":3239:3324  Proposal({... */\n      mload(0x40)\n      dup1\n      0x40\n      add\n      0x40\n      mstore\n      dup1\n        /* \"contracts/Voting.sol\":3275:3287  _description */\n      dup4\n        /* \"contracts/Voting.sol\":3239:3324  Proposal({... */\n      dup2\n      mstore\n      0x20\n      add\n        /* \"contracts/Voting.sol\":3311:3312  0 */\n      0x00\n        /* \"contracts/Voting.sol\":3239:3324  Proposal({... */\n      dup2\n      mstore\n      pop\n        /* \"contracts/Voting.sol\":3224:3325  proposals.push(Proposal({... */\n      swap1\n      dup1\n      0x01\n      dup2\n      sload\n      add\n      dup1\n      dup3\n      sstore\n      dup1\n      swap2\n      pop\n      pop\n      0x01\n      swap1\n      sub\n      swap1\n      0x00\n      mstore\n      keccak256(0x00, 0x20)\n      swap1\n      0x02\n      mul\n      add\n      0x00\n      swap1\n      swap2\n      swap1\n      swap2\n      swap1\n      swap2\n      pop\n      0x00\n      dup3\n      add\n      mload\n      dup2\n      0x00\n      add\n      swap1\n      dup2\n      tag_67\n      swap2\n      swap1\n      tag_68\n      jump\t// in\n    tag_67:\n      pop\n      0x20\n      dup3\n      add\n      mload\n      dup2\n      0x01\n      add\n      sstore\n      pop\n      pop\n        /* \"contracts/Voting.sol\":3335:3350  uint proposalId */\n      0x00\n        /* \"contracts/Voting.sol\":3370:3371  1 */\n      0x01\n        /* \"contracts/Voting.sol\":3353:3362  proposals */\n      0x03\n        /* \"contracts/Voting.sol\":3353:3369  proposals.length */\n      dup1\n      sload\n      swap1\n      pop\n        /* \"contracts/Voting.sol\":3353:3371  proposals.length-1 */\n      tag_69\n      swap2\n      swap1\n      tag_70\n      jump\t// in\n    tag_69:\n        /* \"contracts/Voting.sol\":3335:3371  uint proposalId = proposals.length-1 */\n      swap1\n      pop\n        /* \"contracts/Voting.sol\":3386:3416  ProposalRegistered(proposalId) */\n      0x92e393e9b54e2f801d3ea4beb0c5e71a21cc34a5d34b77d0fb8a3aa1650dc18f\n        /* \"contracts/Voting.sol\":3405:3415  proposalId */\n      dup2\n        /* \"contracts/Voting.sol\":3386:3416  ProposalRegistered(proposalId) */\n      mload(0x40)\n      tag_71\n      swap2\n      swap1\n      tag_43\n      jump\t// in\n    tag_71:\n      mload(0x40)\n      dup1\n      swap2\n      sub\n      swap1\n      log1\n        /* \"contracts/Voting.sol\":2852:3424  {... */\n      pop\n        /* \"contracts/Voting.sol\":2793:3424  function addProposal (string memory _description) external {... */\n      pop\n      jump\t// out\n        /* \"contracts/Voting.sol\":3531:3629  function getAllProposal()external view returns(Proposal[] memory){... */\n    tag_20:\n        /* \"contracts/Voting.sol\":3578:3595  Proposal[] memory */\n      0x60\n        /* \"contracts/Voting.sol\":3613:3622  proposals */\n      0x03\n        /* \"contracts/Voting.sol\":3606:3622  return proposals */\n      dup1\n      sload\n      dup1\n      0x20\n      mul\n      0x20\n      add\n      mload(0x40)\n      swap1\n      dup2\n      add\n      0x40\n      mstore\n      dup1\n      swap3\n      swap2\n      swap1\n      dup2\n      dup2\n      mstore\n      0x20\n      add\n      0x00\n      swap1\n    tag_73:\n      dup3\n      dup3\n      lt\n      iszero\n      tag_74\n      jumpi\n      dup4\n      dup3\n      swap1\n      0x00\n      mstore\n      keccak256(0x00, 0x20)\n      swap1\n      0x02\n      mul\n      add\n      mload(0x40)\n      dup1\n      0x40\n      add\n      0x40\n      mstore\n      swap1\n      dup2\n      0x00\n      dup3\n      add\n      dup1\n      sload\n      tag_76\n      swap1\n      tag_77\n      jump\t// in\n    tag_76:\n      dup1\n      0x1f\n      add\n      0x20\n      dup1\n      swap2\n      div\n      mul\n      0x20\n      add\n      mload(0x40)\n      swap1\n      dup2\n      add\n      0x40\n      mstore\n      dup1\n      swap3\n      swap2\n      swap1\n      dup2\n      dup2\n      mstore\n      0x20\n      add\n      dup3\n      dup1\n      sload\n      tag_78\n      swap1\n      tag_77\n      jump\t// in\n    tag_78:\n      dup1\n      iszero\n      tag_79\n      jumpi\n      dup1\n      0x1f\n      lt\n      tag_80\n      jumpi\n      0x0100\n      dup1\n      dup4\n      sload\n      div\n      mul\n      dup4\n      mstore\n      swap2\n      0x20\n      add\n      swap2\n      jump(tag_79)\n    tag_80:\n      dup3\n      add\n      swap2\n      swap1\n      0x00\n      mstore\n      keccak256(0x00, 0x20)\n      swap1\n    tag_81:\n      dup2\n      sload\n      dup2\n      mstore\n      swap1\n      0x01\n      add\n      swap1\n      0x20\n      add\n      dup1\n      dup4\n      gt\n      tag_81\n      jumpi\n      dup3\n      swap1\n      sub\n      0x1f\n      and\n      dup3\n      add\n      swap2\n    tag_79:\n      pop\n      pop\n      pop\n      pop\n      pop\n      dup2\n      mstore\n      0x20\n      add\n      0x01\n      dup3\n      add\n      sload\n      dup2\n      mstore\n      pop\n      pop\n      dup2\n      mstore\n      0x20\n      add\n      swap1\n      0x01\n      add\n      swap1\n      jump(tag_73)\n    tag_74:\n      pop\n      pop\n      pop\n      pop\n      swap1\n      pop\n        /* \"contracts/Voting.sol\":3531:3629  function getAllProposal()external view returns(Proposal[] memory){... */\n      swap1\n      jump\t// out\n        /* \"contracts/Voting.sol\":1303:1782  function nextVotingStatus() public onlyOwner{ //Definis le status à l'etape suivante... */\n    tag_24:\n        /* \"https://github.com/OpenZeppelin/openzeppelin-contracts/blob/master/contracts/access/Ownable.sol\":1531:1544  _checkOwner() */\n      tag_83\n        /* \"https://github.com/OpenZeppelin/openzeppelin-contracts/blob/master/contracts/access/Ownable.sol\":1531:1542  _checkOwner */\n      tag_84\n        /* \"https://github.com/OpenZeppelin/openzeppelin-contracts/blob/master/contracts/access/Ownable.sol\":1531:1544  _checkOwner() */\n      jump\t// in\n    tag_83:\n        /* \"contracts/Voting.sol\":1397:1426  WorkflowStatus previousStatus */\n      0x00\n        /* \"contracts/Voting.sol\":1427:1432  state */\n      0x00\n      0x14\n      swap1\n      sload\n      swap1\n      0x0100\n      exp\n      swap1\n      div\n      0xff\n      and\n        /* \"contracts/Voting.sol\":1397:1432  WorkflowStatus previousStatus=state */\n      swap1\n      pop\n        /* \"contracts/Voting.sol\":1455:1482  WorkflowStatus.VotesTallied */\n      0x05\n        /* \"contracts/Voting.sol\":1447:1482  state== WorkflowStatus.VotesTallied */\n      dup1\n      dup2\n      gt\n      iszero\n      tag_86\n      jumpi\n      tag_87\n      tag_54\n      jump\t// in\n    tag_87:\n    tag_86:\n        /* \"contracts/Voting.sol\":1447:1452  state */\n      0x00\n      0x14\n      swap1\n      sload\n      swap1\n      0x0100\n      exp\n      swap1\n      div\n      0xff\n      and\n        /* \"contracts/Voting.sol\":1447:1482  state== WorkflowStatus.VotesTallied */\n      0x05\n      dup2\n      gt\n      iszero\n      tag_88\n      jumpi\n      tag_89\n      tag_54\n      jump\t// in\n    tag_89:\n    tag_88:\n      sub\n        /* \"contracts/Voting.sol\":1443:1672  if (state== WorkflowStatus.VotesTallied){... */\n      tag_90\n      jumpi\n        /* \"contracts/Voting.sol\":1505:1537  WorkflowStatus.RegisteringVoters */\n      0x00\n        /* \"contracts/Voting.sol\":1497:1502  state */\n      0x00\n      0x14\n        /* \"contracts/Voting.sol\":1497:1537  state = WorkflowStatus.RegisteringVoters */\n      0x0100\n      exp\n      dup2\n      sload\n      dup2\n      0xff\n      mul\n      not\n      and\n      swap1\n      dup4\n      0x05\n      dup2\n      gt\n      iszero\n      tag_91\n      jumpi\n      tag_92\n      tag_54\n      jump\t// in\n    tag_92:\n    tag_91:\n      mul\n      or\n      swap1\n      sstore\n      pop\n        /* \"contracts/Voting.sol\":1443:1672  if (state== WorkflowStatus.VotesTallied){... */\n      jump(tag_93)\n    tag_90:\n        /* \"contracts/Voting.sol\":1659:1660  1 */\n      0x01\n        /* \"contracts/Voting.sol\":1652:1657  state */\n      0x00\n      0x14\n      swap1\n      sload\n      swap1\n      0x0100\n      exp\n      swap1\n      div\n      0xff\n      and\n        /* \"contracts/Voting.sol\":1647:1658  uint(state) */\n      0x05\n      dup2\n      gt\n      iszero\n      tag_94\n      jumpi\n      tag_95\n      tag_54\n      jump\t// in\n    tag_95:\n    tag_94:\n        /* \"contracts/Voting.sol\":1647:1660  uint(state)+1 */\n      tag_96\n      swap2\n      swap1\n      tag_97\n      jump\t// in\n    tag_96:\n        /* \"contracts/Voting.sol\":1632:1661  WorkflowStatus(uint(state)+1) */\n      0x05\n      dup2\n      gt\n      iszero\n      tag_98\n      jumpi\n      tag_99\n      tag_54\n      jump\t// in\n    tag_99:\n    tag_98:\n        /* \"contracts/Voting.sol\":1624:1629  state */\n      0x00\n      0x14\n        /* \"contracts/Voting.sol\":1624:1661  state = WorkflowStatus(uint(state)+1) */\n      0x0100\n      exp\n      dup2\n      sload\n      dup2\n      0xff\n      mul\n      not\n      and\n      swap1\n      dup4\n      0x05\n      dup2\n      gt\n      iszero\n      tag_100\n      jumpi\n      tag_101\n      tag_54\n      jump\t// in\n    tag_101:\n    tag_100:\n      mul\n      or\n      swap1\n      sstore\n      pop\n        /* \"contracts/Voting.sol\":1443:1672  if (state== WorkflowStatus.VotesTallied){... */\n    tag_93:\n        /* \"contracts/Voting.sol\":1681:1705  WorkflowStatus newStatus */\n      0x00\n        /* \"contracts/Voting.sol\":1706:1711  state */\n      0x00\n      0x14\n      swap1\n      sload\n      swap1\n      0x0100\n      exp\n      swap1\n      div\n      0xff\n      and\n        /* \"contracts/Voting.sol\":1681:1711  WorkflowStatus newStatus=state */\n      swap1\n      pop\n        /* \"contracts/Voting.sol\":1727:1774  WorkflowStatusChange(previousStatus, newStatus) */\n      0x0a97a4ee45751e2abf3e4fc8946939630b11b371ea8ae39ccdc3056e98f5cc3f\n        /* \"contracts/Voting.sol\":1748:1762  previousStatus */\n      dup3\n        /* \"contracts/Voting.sol\":1764:1773  newStatus */\n      dup3\n        /* \"contracts/Voting.sol\":1727:1774  WorkflowStatusChange(previousStatus, newStatus) */\n      mload(0x40)\n      tag_102\n      swap3\n      swap2\n      swap1\n      tag_103\n      jump\t// in\n    tag_102:\n      mload(0x40)\n      dup1\n      swap2\n      sub\n      swap1\n      log1\n        /* \"contracts/Voting.sol\":1347:1782  { //Definis le status à l'etape suivante... */\n      pop\n      pop\n        /* \"contracts/Voting.sol\":1303:1782  function nextVotingStatus() public onlyOwner{ //Definis le status à l'etape suivante... */\n      jump\t// out\n        /* \"https://github.com/OpenZeppelin/openzeppelin-contracts/blob/master/contracts/access/Ownable.sol\":2293:2394  function renounceOwnership() public virtual onlyOwner {... */\n    tag_26:\n        /* \"https://github.com/OpenZeppelin/openzeppelin-contracts/blob/master/contracts/access/Ownable.sol\":1531:1544  _checkOwner() */\n      tag_105\n        /* \"https://github.com/OpenZeppelin/openzeppelin-contracts/blob/master/contracts/access/Ownable.sol\":1531:1542  _checkOwner */\n      tag_84\n        /* \"https://github.com/OpenZeppelin/openzeppelin-contracts/blob/master/contracts/access/Ownable.sol\":1531:1544  _checkOwner() */\n      jump\t// in\n    tag_105:\n        /* \"https://github.com/OpenZeppelin/openzeppelin-contracts/blob/master/contracts/access/Ownable.sol\":2357:2387  _transferOwnership(address(0)) */\n      tag_107\n        /* \"https://github.com/OpenZeppelin/openzeppelin-contracts/blob/master/contracts/access/Ownable.sol\":2384:2385  0 */\n      0x00\n        /* \"https://github.com/OpenZeppelin/openzeppelin-contracts/blob/master/contracts/access/Ownable.sol\":2357:2375  _transferOwnership */\n      tag_108\n        /* \"https://github.com/OpenZeppelin/openzeppelin-contracts/blob/master/contracts/access/Ownable.sol\":2357:2387  _transferOwnership(address(0)) */\n      jump\t// in\n    tag_107:\n        /* \"https://github.com/OpenZeppelin/openzeppelin-contracts/blob/master/contracts/access/Ownable.sol\":2293:2394  function renounceOwnership() public virtual onlyOwner {... */\n      jump\t// out\n        /* \"contracts/Voting.sol\":1864:2644  function setWhitelist(address _address) public onlyOwner{... */\n    tag_30:\n        /* \"https://github.com/OpenZeppelin/openzeppelin-contracts/blob/master/contracts/access/Ownable.sol\":1531:1544  _checkOwner() */\n      tag_110\n        /* \"https://github.com/OpenZeppelin/openzeppelin-contracts/blob/master/contracts/access/Ownable.sol\":1531:1542  _checkOwner */\n      tag_84\n        /* \"https://github.com/OpenZeppelin/openzeppelin-contracts/blob/master/contracts/access/Ownable.sol\":1531:1544  _checkOwner() */\n      jump\t// in\n    tag_110:\n        /* \"contracts/Voting.sol\":1947:1979  WorkflowStatus.RegisteringVoters */\n      0x00\n        /* \"contracts/Voting.sol\":1938:1979  state == WorkflowStatus.RegisteringVoters */\n      0x05\n      dup2\n      gt\n      iszero\n      tag_112\n      jumpi\n      tag_113\n      tag_54\n      jump\t// in\n    tag_113:\n    tag_112:\n        /* \"contracts/Voting.sol\":1938:1943  state */\n      0x00\n      0x14\n      swap1\n      sload\n      swap1\n      0x0100\n      exp\n      swap1\n      div\n      0xff\n      and\n        /* \"contracts/Voting.sol\":1938:1979  state == WorkflowStatus.RegisteringVoters */\n      0x05\n      dup2\n      gt\n      iszero\n      tag_114\n      jumpi\n      tag_115\n      tag_54\n      jump\t// in\n    tag_115:\n    tag_114:\n      eq\n        /* \"contracts/Voting.sol\":1930:2033  require(state == WorkflowStatus.RegisteringVoters,\"Address can be added only in Registration phase:0.\") */\n      tag_116\n      jumpi\n      mload(0x40)\n      0x08c379a000000000000000000000000000000000000000000000000000000000\n      dup2\n      mstore\n      0x04\n      add\n      tag_117\n      swap1\n      tag_118\n      jump\t// in\n    tag_117:\n      mload(0x40)\n      dup1\n      swap2\n      sub\n      swap1\n      revert\n    tag_116:\n        /* \"contracts/Voting.sol\":2126:2135  whitelist */\n      0x01\n        /* \"contracts/Voting.sol\":2126:2145  whitelist[_address] */\n      0x00\n        /* \"contracts/Voting.sol\":2136:2144  _address */\n      dup3\n        /* \"contracts/Voting.sol\":2126:2145  whitelist[_address] */\n      0xffffffffffffffffffffffffffffffffffffffff\n      and\n      0xffffffffffffffffffffffffffffffffffffffff\n      and\n      dup2\n      mstore\n      0x20\n      add\n      swap1\n      dup2\n      mstore\n      0x20\n      add\n      0x00\n      keccak256\n      0x00\n      swap1\n      sload\n      swap1\n      0x0100\n      exp\n      swap1\n      div\n      0xff\n      and\n        /* \"contracts/Voting.sol\":2125:2145  !whitelist[_address] */\n      iszero\n        /* \"contracts/Voting.sol\":2117:2175  require(!whitelist[_address],\"Address already registered\") */\n      tag_119\n      jumpi\n      mload(0x40)\n      0x08c379a000000000000000000000000000000000000000000000000000000000\n      dup2\n      mstore\n      0x04\n      add\n      tag_120\n      swap1\n      tag_121\n      jump\t// in\n    tag_120:\n      mload(0x40)\n      dup1\n      swap2\n      sub\n      swap1\n      revert\n    tag_119:\n        /* \"contracts/Voting.sol\":2260:2369  Voter({... */\n      mload(0x40)\n      dup1\n      0x60\n      add\n      0x40\n      mstore\n      dup1\n        /* \"contracts/Voting.sol\":2293:2297  true */\n      0x01\n        /* \"contracts/Voting.sol\":2260:2369  Voter({... */\n      iszero\n      iszero\n      dup2\n      mstore\n      0x20\n      add\n        /* \"contracts/Voting.sol\":2321:2326  false */\n      0x00\n        /* \"contracts/Voting.sol\":2260:2369  Voter({... */\n      iszero\n      iszero\n      dup2\n      mstore\n      0x20\n      add\n        /* \"contracts/Voting.sol\":2357:2358  0 */\n      0x00\n        /* \"contracts/Voting.sol\":2260:2369  Voter({... */\n      dup2\n      mstore\n      pop\n        /* \"contracts/Voting.sol\":2242:2248  voters */\n      0x02\n        /* \"contracts/Voting.sol\":2242:2258  voters[_address] */\n      0x00\n        /* \"contracts/Voting.sol\":2249:2257  _address */\n      dup4\n        /* \"contracts/Voting.sol\":2242:2258  voters[_address] */\n      0xffffffffffffffffffffffffffffffffffffffff\n      and\n      0xffffffffffffffffffffffffffffffffffffffff\n      and\n      dup2\n      mstore\n      0x20\n      add\n      swap1\n      dup2\n      mstore\n      0x20\n      add\n      0x00\n      keccak256\n        /* \"contracts/Voting.sol\":2242:2369  voters[_address]= Voter({... */\n      0x00\n      dup3\n      add\n      mload\n      dup2\n      0x00\n      add\n      exp(0x0100, 0x00)\n      dup2\n      sload\n      dup2\n      0xff\n      mul\n      not\n      and\n      swap1\n      dup4\n      iszero\n      iszero\n      mul\n      or\n      swap1\n      sstore\n      pop\n      0x20\n      dup3\n      add\n      mload\n      dup2\n      0x00\n      add\n      exp(0x0100, 0x01)\n      dup2\n      sload\n      dup2\n      0xff\n      mul\n      not\n      and\n      swap1\n      dup4\n      iszero\n      iszero\n      mul\n      or\n      swap1\n      sstore\n      pop\n      0x40\n      dup3\n      add\n      mload\n      dup2\n      0x01\n      add\n      sstore\n      swap1\n      pop\n      pop\n        /* \"contracts/Voting.sol\":2399:2403  true */\n      0x01\n        /* \"contracts/Voting.sol\":2379:2388  whitelist */\n      dup1\n        /* \"contracts/Voting.sol\":2379:2398  whitelist[_address] */\n      0x00\n        /* \"contracts/Voting.sol\":2389:2397  _address */\n      dup4\n        /* \"contracts/Voting.sol\":2379:2398  whitelist[_address] */\n      0xffffffffffffffffffffffffffffffffffffffff\n      and\n      0xffffffffffffffffffffffffffffffffffffffff\n      and\n      dup2\n      mstore\n      0x20\n      add\n      swap1\n      dup2\n      mstore\n      0x20\n      add\n      0x00\n      keccak256\n      0x00\n        /* \"contracts/Voting.sol\":2379:2403  whitelist[_address]=true */\n      0x0100\n      exp\n      dup2\n      sload\n      dup2\n      0xff\n      mul\n      not\n      and\n      swap1\n      dup4\n      iszero\n      iszero\n      mul\n      or\n      swap1\n      sstore\n      pop\n        /* \"contracts/Voting.sol\":2466:2480  whitelistCount */\n      0x04\n      0x00\n        /* \"contracts/Voting.sol\":2466:2482  whitelistCount++ */\n      dup2\n      sload\n      dup1\n      swap3\n      swap2\n      swap1\n      tag_122\n      swap1\n      tag_123\n      jump\t// in\n    tag_122:\n      swap2\n      swap1\n      pop\n      sstore\n      pop\n        /* \"contracts/Voting.sol\":2565:2590  VoterRegistered(_address) */\n      0xb6be2187d059cc2a55fe29e0e503b566e1e0f8c8780096e185429350acffd3dd\n        /* \"contracts/Voting.sol\":2581:2589  _address */\n      dup2\n        /* \"contracts/Voting.sol\":2565:2590  VoterRegistered(_address) */\n      mload(0x40)\n      tag_124\n      swap2\n      swap1\n      tag_34\n      jump\t// in\n    tag_124:\n      mload(0x40)\n      dup1\n      swap2\n      sub\n      swap1\n      log1\n        /* \"contracts/Voting.sol\":1864:2644  function setWhitelist(address _address) public onlyOwner{... */\n      pop\n      jump\t// out\n        /* \"https://github.com/OpenZeppelin/openzeppelin-contracts/blob/master/contracts/access/Ownable.sol\":1638:1723  function owner() public view virtual returns (address) {... */\n    tag_32:\n        /* \"https://github.com/OpenZeppelin/openzeppelin-contracts/blob/master/contracts/access/Ownable.sol\":1684:1691  address */\n      0x00\n        /* \"https://github.com/OpenZeppelin/openzeppelin-contracts/blob/master/contracts/access/Ownable.sol\":1710:1716  _owner */\n      0x00\n      0x00\n      swap1\n      sload\n      swap1\n      0x0100\n      exp\n      swap1\n      div\n      0xffffffffffffffffffffffffffffffffffffffff\n      and\n        /* \"https://github.com/OpenZeppelin/openzeppelin-contracts/blob/master/contracts/access/Ownable.sol\":1703:1716  return _owner */\n      swap1\n      pop\n        /* \"https://github.com/OpenZeppelin/openzeppelin-contracts/blob/master/contracts/access/Ownable.sol\":1638:1723  function owner() public view virtual returns (address) {... */\n      swap1\n      jump\t// out\n        /* \"contracts/Voting.sol\":4385:5558  function getWinner () external onlyOwner{... */\n    tag_36:\n        /* \"https://github.com/OpenZeppelin/openzeppelin-contracts/blob/master/contracts/access/Ownable.sol\":1531:1544  _checkOwner() */\n      tag_127\n        /* \"https://github.com/OpenZeppelin/openzeppelin-contracts/blob/master/contracts/access/Ownable.sol\":1531:1542  _checkOwner */\n      tag_84\n        /* \"https://github.com/OpenZeppelin/openzeppelin-contracts/blob/master/contracts/access/Ownable.sol\":1531:1544  _checkOwner() */\n      jump\t// in\n    tag_127:\n        /* \"contracts/Voting.sol\":4451:4478  WorkflowStatus.VotesTallied */\n      0x05\n        /* \"contracts/Voting.sol\":4443:4478  state ==WorkflowStatus.VotesTallied */\n      dup1\n      dup2\n      gt\n      iszero\n      tag_129\n      jumpi\n      tag_130\n      tag_54\n      jump\t// in\n    tag_130:\n    tag_129:\n        /* \"contracts/Voting.sol\":4443:4448  state */\n      0x00\n      0x14\n      swap1\n      sload\n      swap1\n      0x0100\n      exp\n      swap1\n      div\n      0xff\n      and\n        /* \"contracts/Voting.sol\":4443:4478  state ==WorkflowStatus.VotesTallied */\n      0x05\n      dup2\n      gt\n      iszero\n      tag_131\n      jumpi\n      tag_132\n      tag_54\n      jump\t// in\n    tag_132:\n    tag_131:\n      eq\n        /* \"contracts/Voting.sol\":4435:4542  require(state ==WorkflowStatus.VotesTallied,\"Votes must be tailed before annoncing the winner in Phase 5.\") */\n      tag_133\n      jumpi\n      mload(0x40)\n      0x08c379a000000000000000000000000000000000000000000000000000000000\n      dup2\n      mstore\n      0x04\n      add\n      tag_134\n      swap1\n      tag_135\n      jump\t// in\n    tag_134:\n      mload(0x40)\n      dup1\n      swap2\n      sub\n      swap1\n      revert\n    tag_133:\n        /* \"contracts/Voting.sol\":4577:4578  0 */\n      0x00\n        /* \"contracts/Voting.sol\":4560:4569  proposals */\n      0x03\n        /* \"contracts/Voting.sol\":4560:4576  proposals.length */\n      dup1\n      sload\n      swap1\n      pop\n        /* \"contracts/Voting.sol\":4560:4578  proposals.length>0 */\n      gt\n        /* \"contracts/Voting.sol\":4552:4604  require(proposals.length>0,\"No proposals available\") */\n      tag_136\n      jumpi\n      mload(0x40)\n      0x08c379a000000000000000000000000000000000000000000000000000000000\n      dup2\n      mstore\n      0x04\n      add\n      tag_137\n      swap1\n      tag_138\n      jump\t// in\n    tag_137:\n      mload(0x40)\n      dup1\n      swap2\n      sub\n      swap1\n      revert\n    tag_136:\n        /* \"contracts/Voting.sol\":4615:4636  uint winningVoteCount */\n      0x00\n        /* \"contracts/Voting.sol\":4639:4640  0 */\n      0x00\n        /* \"contracts/Voting.sol\":4615:4640  uint winningVoteCount = 0 */\n      swap1\n      pop\n        /* \"contracts/Voting.sol\":4657:4664  winners */\n      0x05\n      0x00\n        /* \"contracts/Voting.sol\":4650:4664  delete winners */\n      tag_139\n      swap2\n      swap1\n      tag_140\n      jump\t// in\n    tag_139:\n        /* \"contracts/Voting.sol\":4725:4731  uint i */\n      0x00\n        /* \"contracts/Voting.sol\":4732:4733  0 */\n      0x00\n        /* \"contracts/Voting.sol\":4725:4733  uint i=0 */\n      swap1\n      pop\n        /* \"contracts/Voting.sol\":4720:4943  for (uint i=0;i<proposals.length;i++){ //cherche la valeur de votes la plus hautes.... */\n    tag_141:\n        /* \"contracts/Voting.sol\":4736:4745  proposals */\n      0x03\n        /* \"contracts/Voting.sol\":4736:4752  proposals.length */\n      dup1\n      sload\n      swap1\n      pop\n        /* \"contracts/Voting.sol\":4734:4735  i */\n      dup2\n        /* \"contracts/Voting.sol\":4734:4752  i<proposals.length */\n      lt\n        /* \"contracts/Voting.sol\":4720:4943  for (uint i=0;i<proposals.length;i++){ //cherche la valeur de votes la plus hautes.... */\n      iszero\n      tag_142\n      jumpi\n        /* \"contracts/Voting.sol\":4842:4858  winningVoteCount */\n      dup2\n        /* \"contracts/Voting.sol\":4819:4828  proposals */\n      0x03\n        /* \"contracts/Voting.sol\":4829:4830  i */\n      dup3\n        /* \"contracts/Voting.sol\":4819:4831  proposals[i] */\n      dup2\n      sload\n      dup2\n      lt\n      tag_144\n      jumpi\n      tag_145\n      tag_146\n      jump\t// in\n    tag_145:\n    tag_144:\n      swap1\n      0x00\n      mstore\n      keccak256(0x00, 0x20)\n      swap1\n      0x02\n      mul\n      add\n        /* \"contracts/Voting.sol\":4819:4841  proposals[i].voteCount */\n      0x01\n      add\n      sload\n        /* \"contracts/Voting.sol\":4819:4858  proposals[i].voteCount>winningVoteCount */\n      gt\n        /* \"contracts/Voting.sol\":4816:4933  if(proposals[i].voteCount>winningVoteCount){... */\n      iszero\n      tag_148\n      jumpi\n        /* \"contracts/Voting.sol\":4896:4905  proposals */\n      0x03\n        /* \"contracts/Voting.sol\":4906:4907  i */\n      dup2\n        /* \"contracts/Voting.sol\":4896:4908  proposals[i] */\n      dup2\n      sload\n      dup2\n      lt\n      tag_149\n      jumpi\n      tag_150\n      tag_146\n      jump\t// in\n    tag_150:\n    tag_149:\n      swap1\n      0x00\n      mstore\n      keccak256(0x00, 0x20)\n      swap1\n      0x02\n      mul\n      add\n        /* \"contracts/Voting.sol\":4896:4918  proposals[i].voteCount */\n      0x01\n      add\n      sload\n        /* \"contracts/Voting.sol\":4877:4918  winningVoteCount = proposals[i].voteCount */\n      swap2\n      pop\n        /* \"contracts/Voting.sol\":4816:4933  if(proposals[i].voteCount>winningVoteCount){... */\n    tag_148:\n        /* \"contracts/Voting.sol\":4753:4756  i++ */\n      dup1\n      dup1\n      0x01\n      add\n      swap2\n      pop\n      pop\n        /* \"contracts/Voting.sol\":4720:4943  for (uint i=0;i<proposals.length;i++){ //cherche la valeur de votes la plus hautes.... */\n      jump(tag_141)\n    tag_142:\n      pop\n        /* \"contracts/Voting.sol\":4995:5001  uint i */\n      0x00\n        /* \"contracts/Voting.sol\":5002:5003  0 */\n      0x00\n        /* \"contracts/Voting.sol\":4995:5003  uint i=0 */\n      swap1\n      pop\n        /* \"contracts/Voting.sol\":4990:5230  for (uint i=0; i<proposals.length; i++){ //Compte le nombre de proposition avec la valeur de vote les plus haute... */\n    tag_152:\n        /* \"contracts/Voting.sol\":5007:5016  proposals */\n      0x03\n        /* \"contracts/Voting.sol\":5007:5023  proposals.length */\n      dup1\n      sload\n      swap1\n      pop\n        /* \"contracts/Voting.sol\":5005:5006  i */\n      dup2\n        /* \"contracts/Voting.sol\":5005:5023  i<proposals.length */\n      lt\n        /* \"contracts/Voting.sol\":4990:5230  for (uint i=0; i<proposals.length; i++){ //Compte le nombre de proposition avec la valeur de vote les plus haute... */\n      iszero\n      tag_153\n      jumpi\n        /* \"contracts/Voting.sol\":5144:5160  winningVoteCount */\n      dup2\n        /* \"contracts/Voting.sol\":5118:5127  proposals */\n      0x03\n        /* \"contracts/Voting.sol\":5128:5129  i */\n      dup3\n        /* \"contracts/Voting.sol\":5118:5130  proposals[i] */\n      dup2\n      sload\n      dup2\n      lt\n      tag_155\n      jumpi\n      tag_156\n      tag_146\n      jump\t// in\n    tag_156:\n    tag_155:\n      swap1\n      0x00\n      mstore\n      keccak256(0x00, 0x20)\n      swap1\n      0x02\n      mul\n      add\n        /* \"contracts/Voting.sol\":5118:5140  proposals[i].voteCount */\n      0x01\n      add\n      sload\n        /* \"contracts/Voting.sol\":5118:5160  proposals[i].voteCount == winningVoteCount */\n      sub\n        /* \"contracts/Voting.sol\":5115:5220  if(proposals[i].voteCount == winningVoteCount){... */\n      tag_158\n      jumpi\n        /* \"contracts/Voting.sol\":5179:5186  winners */\n      0x05\n        /* \"contracts/Voting.sol\":5192:5201  proposals */\n      0x03\n        /* \"contracts/Voting.sol\":5202:5203  i */\n      dup3\n        /* \"contracts/Voting.sol\":5192:5204  proposals[i] */\n      dup2\n      sload\n      dup2\n      lt\n      tag_159\n      jumpi\n      tag_160\n      tag_146\n      jump\t// in\n    tag_160:\n    tag_159:\n      swap1\n      0x00\n      mstore\n      keccak256(0x00, 0x20)\n      swap1\n      0x02\n      mul\n      add\n        /* \"contracts/Voting.sol\":5179:5205  winners.push(proposals[i]) */\n      swap1\n      dup1\n      0x01\n      dup2\n      sload\n      add\n      dup1\n      dup3\n      sstore\n      dup1\n      swap2\n      pop\n      pop\n      0x01\n      swap1\n      sub\n      swap1\n      0x00\n      mstore\n      keccak256(0x00, 0x20)\n      swap1\n      0x02\n      mul\n      add\n      0x00\n      swap1\n      swap2\n      swap1\n      swap2\n      swap1\n      swap2\n      pop\n      0x00\n      dup3\n      add\n      dup2\n      0x00\n      add\n      swap1\n      dup2\n      tag_163\n      swap2\n      swap1\n      tag_164\n      jump\t// in\n    tag_163:\n      pop\n      0x01\n      dup3\n      add\n      sload\n      dup2\n      0x01\n      add\n      sstore\n      pop\n      pop\n        /* \"contracts/Voting.sol\":5115:5220  if(proposals[i].voteCount == winningVoteCount){... */\n    tag_158:\n        /* \"contracts/Voting.sol\":5025:5028  i++ */\n      dup1\n      dup1\n      0x01\n      add\n      swap2\n      pop\n      pop\n        /* \"contracts/Voting.sol\":4990:5230  for (uint i=0; i<proposals.length; i++){ //Compte le nombre de proposition avec la valeur de vote les plus haute... */\n      jump(tag_152)\n    tag_153:\n      pop\n        /* \"contracts/Voting.sol\":4425:5558  {... */\n      pop\n        /* \"contracts/Voting.sol\":4385:5558  function getWinner () external onlyOwner{... */\n      jump\t// out\n        /* \"contracts/Voting.sol\":5564:5710  function checkWinner()external view returns(Proposal[] memory){... */\n    tag_38:\n        /* \"contracts/Voting.sol\":5608:5625  Proposal[] memory */\n      0x60\n        /* \"contracts/Voting.sol\":5661:5662  0 */\n      0x00\n        /* \"contracts/Voting.sol\":5644:5653  proposals */\n      0x03\n        /* \"contracts/Voting.sol\":5644:5660  proposals.length */\n      dup1\n      sload\n      swap1\n      pop\n        /* \"contracts/Voting.sol\":5644:5662  proposals.length>0 */\n      gt\n        /* \"contracts/Voting.sol\":5636:5679  require(proposals.length>0,\"No winner yet\") */\n      tag_166\n      jumpi\n      mload(0x40)\n      0x08c379a000000000000000000000000000000000000000000000000000000000\n      dup2\n      mstore\n      0x04\n      add\n      tag_167\n      swap1\n      tag_168\n      jump\t// in\n    tag_167:\n      mload(0x40)\n      dup1\n      swap2\n      sub\n      swap1\n      revert\n    tag_166:\n        /* \"contracts/Voting.sol\":5696:5703  winners */\n      0x05\n        /* \"contracts/Voting.sol\":5689:5703  return winners */\n      dup1\n      sload\n      dup1\n      0x20\n      mul\n      0x20\n      add\n      mload(0x40)\n      swap1\n      dup2\n      add\n      0x40\n      mstore\n      dup1\n      swap3\n      swap2\n      swap1\n      dup2\n      dup2\n      mstore\n      0x20\n      add\n      0x00\n      swap1\n    tag_169:\n      dup3\n      dup3\n      lt\n      iszero\n      tag_170\n      jumpi\n      dup4\n      dup3\n      swap1\n      0x00\n      mstore\n      keccak256(0x00, 0x20)\n      swap1\n      0x02\n      mul\n      add\n      mload(0x40)\n      dup1\n      0x40\n      add\n      0x40\n      mstore\n      swap1\n      dup2\n      0x00\n      dup3\n      add\n      dup1\n      sload\n      tag_172\n      swap1\n      tag_77\n      jump\t// in\n    tag_172:\n      dup1\n      0x1f\n      add\n      0x20\n      dup1\n      swap2\n      div\n      mul\n      0x20\n      add\n      mload(0x40)\n      swap1\n      dup2\n      add\n      0x40\n      mstore\n      dup1\n      swap3\n      swap2\n      swap1\n      dup2\n      dup2\n      mstore\n      0x20\n      add\n      dup3\n      dup1\n      sload\n      tag_173\n      swap1\n      tag_77\n      jump\t// in\n    tag_173:\n      dup1\n      iszero\n      tag_174\n      jumpi\n      dup1\n      0x1f\n      lt\n      tag_175\n      jumpi\n      0x0100\n      dup1\n      dup4\n      sload\n      div\n      mul\n      dup4\n      mstore\n      swap2\n      0x20\n      add\n      swap2\n      jump(tag_174)\n    tag_175:\n      dup3\n      add\n      swap2\n      swap1\n      0x00\n      mstore\n      keccak256(0x00, 0x20)\n      swap1\n    tag_176:\n      dup2\n      sload\n      dup2\n      mstore\n      swap1\n      0x01\n      add\n      swap1\n      0x20\n      add\n      dup1\n      dup4\n      gt\n      tag_176\n      jumpi\n      dup3\n      swap1\n      sub\n      0x1f\n      and\n      dup3\n      add\n      swap2\n    tag_174:\n      pop\n      pop\n      pop\n      pop\n      pop\n      dup2\n      mstore\n      0x20\n      add\n      0x01\n      dup3\n      add\n      sload\n      dup2\n      mstore\n      pop\n      pop\n      dup2\n      mstore\n      0x20\n      add\n      swap1\n      0x01\n      add\n      swap1\n      jump(tag_169)\n    tag_170:\n      pop\n      pop\n      pop\n      pop\n      swap1\n      pop\n        /* \"contracts/Voting.sol\":5564:5710  function checkWinner()external view returns(Proposal[] memory){... */\n      swap1\n      jump\t// out\n        /* \"contracts/Voting.sol\":3429:3525  function getProposalCount() external view returns (uint){... */\n    tag_41:\n        /* \"contracts/Voting.sol\":3480:3484  uint */\n      0x00\n        /* \"contracts/Voting.sol\":3502:3511  proposals */\n      0x03\n        /* \"contracts/Voting.sol\":3502:3518  proposals.length */\n      dup1\n      sload\n      swap1\n      pop\n        /* \"contracts/Voting.sol\":3495:3518  return proposals.length */\n      swap1\n      pop\n        /* \"contracts/Voting.sol\":3429:3525  function getProposalCount() external view returns (uint){... */\n      swap1\n      jump\t// out\n        /* \"contracts/Voting.sol\":3640:4380  function Vote(uint _choice ) external {... */\n    tag_47:\n        /* \"contracts/Voting.sol\":3705:3740  WorkflowStatus.VotingSessionStarted */\n      0x03\n        /* \"contracts/Voting.sol\":3696:3740  state == WorkflowStatus.VotingSessionStarted */\n      0x05\n      dup2\n      gt\n      iszero\n      tag_179\n      jumpi\n      tag_180\n      tag_54\n      jump\t// in\n    tag_180:\n    tag_179:\n        /* \"contracts/Voting.sol\":3696:3701  state */\n      0x00\n      0x14\n      swap1\n      sload\n      swap1\n      0x0100\n      exp\n      swap1\n      div\n      0xff\n      and\n        /* \"contracts/Voting.sol\":3696:3740  state == WorkflowStatus.VotingSessionStarted */\n      0x05\n      dup2\n      gt\n      iszero\n      tag_181\n      jumpi\n      tag_182\n      tag_54\n      jump\t// in\n    tag_182:\n    tag_181:\n      eq\n        /* \"contracts/Voting.sol\":3688:3785  require(state == WorkflowStatus.VotingSessionStarted,\"Votes can be done only in voting phase:3.\") */\n      tag_183\n      jumpi\n      mload(0x40)\n      0x08c379a000000000000000000000000000000000000000000000000000000000\n      dup2\n      mstore\n      0x04\n      add\n      tag_184\n      swap1\n      tag_185\n      jump\t// in\n    tag_184:\n      mload(0x40)\n      dup1\n      swap2\n      sub\n      swap1\n      revert\n    tag_183:\n        /* \"contracts/Voting.sol\":3884:3885  0 */\n      0x00\n        /* \"contracts/Voting.sol\":3867:3876  proposals */\n      0x03\n        /* \"contracts/Voting.sol\":3867:3883  proposals.length */\n      dup1\n      sload\n      swap1\n      pop\n        /* \"contracts/Voting.sol\":3867:3885  proposals.length>0 */\n      gt\n        /* \"contracts/Voting.sol\":3859:3960  require(proposals.length>0,\"You have to get at leat one proposal in order to proceed a voting phase\") */\n      tag_186\n      jumpi\n      mload(0x40)\n      0x08c379a000000000000000000000000000000000000000000000000000000000\n      dup2\n      mstore\n      0x04\n      add\n      tag_187\n      swap1\n      tag_188\n      jump\t// in\n    tag_187:\n      mload(0x40)\n      dup1\n      swap2\n      sub\n      swap1\n      revert\n    tag_186:\n        /* \"contracts/Voting.sol\":3978:3984  voters */\n      0x02\n        /* \"contracts/Voting.sol\":3978:3996  voters[msg.sender] */\n      0x00\n        /* \"contracts/Voting.sol\":3985:3995  msg.sender */\n      caller\n        /* \"contracts/Voting.sol\":3978:3996  voters[msg.sender] */\n      0xffffffffffffffffffffffffffffffffffffffff\n      and\n      0xffffffffffffffffffffffffffffffffffffffff\n      and\n      dup2\n      mstore\n      0x20\n      add\n      swap1\n      dup2\n      mstore\n      0x20\n      add\n      0x00\n      keccak256\n        /* \"contracts/Voting.sol\":3978:4009  voters[msg.sender].isRegistered */\n      0x00\n      add\n      0x00\n      swap1\n      sload\n      swap1\n      0x0100\n      exp\n      swap1\n      div\n      0xff\n      and\n        /* \"contracts/Voting.sol\":3970:4046  require(voters[msg.sender].isRegistered, \"You ar not registered as a voter\") */\n      tag_189\n      jumpi\n      mload(0x40)\n      0x08c379a000000000000000000000000000000000000000000000000000000000\n      dup2\n      mstore\n      0x04\n      add\n      tag_190\n      swap1\n      tag_191\n      jump\t// in\n    tag_190:\n      mload(0x40)\n      dup1\n      swap2\n      sub\n      swap1\n      revert\n    tag_189:\n        /* \"contracts/Voting.sol\":4065:4071  voters */\n      0x02\n        /* \"contracts/Voting.sol\":4065:4083  voters[msg.sender] */\n      0x00\n        /* \"contracts/Voting.sol\":4072:4082  msg.sender */\n      caller\n        /* \"contracts/Voting.sol\":4065:4083  voters[msg.sender] */\n      0xffffffffffffffffffffffffffffffffffffffff\n      and\n      0xffffffffffffffffffffffffffffffffffffffff\n      and\n      dup2\n      mstore\n      0x20\n      add\n      swap1\n      dup2\n      mstore\n      0x20\n      add\n      0x00\n      keccak256\n        /* \"contracts/Voting.sol\":4065:4092  voters[msg.sender].hasVoted */\n      0x00\n      add\n      0x01\n      swap1\n      sload\n      swap1\n      0x0100\n      exp\n      swap1\n      div\n      0xff\n      and\n        /* \"contracts/Voting.sol\":4064:4092  !voters[msg.sender].hasVoted */\n      iszero\n        /* \"contracts/Voting.sol\":4056:4118  require(!voters[msg.sender].hasVoted,\"You have already voted\") */\n      tag_192\n      jumpi\n      mload(0x40)\n      0x08c379a000000000000000000000000000000000000000000000000000000000\n      dup2\n      mstore\n      0x04\n      add\n      tag_193\n      swap1\n      tag_194\n      jump\t// in\n    tag_193:\n      mload(0x40)\n      dup1\n      swap2\n      sub\n      swap1\n      revert\n    tag_192:\n        /* \"contracts/Voting.sol\":4146:4155  proposals */\n      0x03\n        /* \"contracts/Voting.sol\":4146:4162  proposals.length */\n      dup1\n      sload\n      swap1\n      pop\n        /* \"contracts/Voting.sol\":4136:4143  _choice */\n      dup2\n        /* \"contracts/Voting.sol\":4136:4162  _choice < proposals.length */\n      lt\n        /* \"contracts/Voting.sol\":4128:4189  require(_choice < proposals.length,\"Invalid proposal choice\") */\n      tag_195\n      jumpi\n      mload(0x40)\n      0x08c379a000000000000000000000000000000000000000000000000000000000\n      dup2\n      mstore\n      0x04\n      add\n      tag_196\n      swap1\n      tag_197\n      jump\t// in\n    tag_196:\n      mload(0x40)\n      dup1\n      swap2\n      sub\n      swap1\n      revert\n    tag_195:\n        /* \"contracts/Voting.sol\":4228:4232  true */\n      0x01\n        /* \"contracts/Voting.sol\":4200:4206  voters */\n      0x02\n        /* \"contracts/Voting.sol\":4200:4218  voters[msg.sender] */\n      0x00\n        /* \"contracts/Voting.sol\":4207:4217  msg.sender */\n      caller\n        /* \"contracts/Voting.sol\":4200:4218  voters[msg.sender] */\n      0xffffffffffffffffffffffffffffffffffffffff\n      and\n      0xffffffffffffffffffffffffffffffffffffffff\n      and\n      dup2\n      mstore\n      0x20\n      add\n      swap1\n      dup2\n      mstore\n      0x20\n      add\n      0x00\n      keccak256\n        /* \"contracts/Voting.sol\":4200:4227  voters[msg.sender].hasVoted */\n      0x00\n      add\n      0x01\n        /* \"contracts/Voting.sol\":4200:4232  voters[msg.sender].hasVoted=true */\n      0x0100\n      exp\n      dup2\n      sload\n      dup2\n      0xff\n      mul\n      not\n      and\n      swap1\n      dup4\n      iszero\n      iszero\n      mul\n      or\n      swap1\n      sstore\n      pop\n        /* \"contracts/Voting.sol\":4277:4284  _choice */\n      dup1\n        /* \"contracts/Voting.sol\":4242:4248  voters */\n      0x02\n        /* \"contracts/Voting.sol\":4242:4260  voters[msg.sender] */\n      0x00\n        /* \"contracts/Voting.sol\":4249:4259  msg.sender */\n      caller\n        /* \"contracts/Voting.sol\":4242:4260  voters[msg.sender] */\n      0xffffffffffffffffffffffffffffffffffffffff\n      and\n      0xffffffffffffffffffffffffffffffffffffffff\n      and\n      dup2\n      mstore\n      0x20\n      add\n      swap1\n      dup2\n      mstore\n      0x20\n      add\n      0x00\n      keccak256\n        /* \"contracts/Voting.sol\":4242:4276  voters[msg.sender].votedProposalId */\n      0x01\n      add\n        /* \"contracts/Voting.sol\":4242:4284  voters[msg.sender].votedProposalId=_choice */\n      dup2\n      swap1\n      sstore\n      pop\n        /* \"contracts/Voting.sol\":4294:4303  proposals */\n      0x03\n        /* \"contracts/Voting.sol\":4304:4311  _choice */\n      dup2\n        /* \"contracts/Voting.sol\":4294:4312  proposals[_choice] */\n      dup2\n      sload\n      dup2\n      lt\n      tag_198\n      jumpi\n      tag_199\n      tag_146\n      jump\t// in\n    tag_199:\n    tag_198:\n      swap1\n      0x00\n      mstore\n      keccak256(0x00, 0x20)\n      swap1\n      0x02\n      mul\n      add\n        /* \"contracts/Voting.sol\":4294:4322  proposals[_choice].voteCount */\n      0x01\n      add\n      0x00\n        /* \"contracts/Voting.sol\":4294:4324  proposals[_choice].voteCount++ */\n      dup2\n      sload\n      dup1\n      swap3\n      swap2\n      swap1\n      tag_201\n      swap1\n      tag_123\n      jump\t// in\n    tag_201:\n      swap2\n      swap1\n      pop\n      sstore\n      pop\n        /* \"contracts/Voting.sol\":4340:4365  Voted(msg.sender,_choice) */\n      0x4d99b957a2bc29a30ebd96a7be8e68fe50a3c701db28a91436490b7d53870ca4\n        /* \"contracts/Voting.sol\":4346:4356  msg.sender */\n      caller\n        /* \"contracts/Voting.sol\":4357:4364  _choice */\n      dup3\n        /* \"contracts/Voting.sol\":4340:4365  Voted(msg.sender,_choice) */\n      mload(0x40)\n      tag_202\n      swap3\n      swap2\n      swap1\n      tag_203\n      jump\t// in\n    tag_202:\n      mload(0x40)\n      dup1\n      swap2\n      sub\n      swap1\n      log1\n        /* \"contracts/Voting.sol\":3640:4380  function Vote(uint _choice ) external {... */\n      pop\n      jump\t// out\n        /* \"https://github.com/OpenZeppelin/openzeppelin-contracts/blob/master/contracts/access/Ownable.sol\":2543:2758  function transferOwnership(address newOwner) public virtual onlyOwner {... */\n    tag_50:\n        /* \"https://github.com/OpenZeppelin/openzeppelin-contracts/blob/master/contracts/access/Ownable.sol\":1531:1544  _checkOwner() */\n      tag_205\n        /* \"https://github.com/OpenZeppelin/openzeppelin-contracts/blob/master/contracts/access/Ownable.sol\":1531:1542  _checkOwner */\n      tag_84\n        /* \"https://github.com/OpenZeppelin/openzeppelin-contracts/blob/master/contracts/access/Ownable.sol\":1531:1544  _checkOwner() */\n      jump\t// in\n    tag_205:\n        /* \"https://github.com/OpenZeppelin/openzeppelin-contracts/blob/master/contracts/access/Ownable.sol\":2647:2648  0 */\n      0x00\n        /* \"https://github.com/OpenZeppelin/openzeppelin-contracts/blob/master/contracts/access/Ownable.sol\":2627:2649  newOwner == address(0) */\n      0xffffffffffffffffffffffffffffffffffffffff\n      and\n        /* \"https://github.com/OpenZeppelin/openzeppelin-contracts/blob/master/contracts/access/Ownable.sol\":2627:2635  newOwner */\n      dup2\n        /* \"https://github.com/OpenZeppelin/openzeppelin-contracts/blob/master/contracts/access/Ownable.sol\":2627:2649  newOwner == address(0) */\n      0xffffffffffffffffffffffffffffffffffffffff\n      and\n      sub\n        /* \"https://github.com/OpenZeppelin/openzeppelin-contracts/blob/master/contracts/access/Ownable.sol\":2623:2714  if (newOwner == address(0)) {... */\n      tag_207\n      jumpi\n        /* \"https://github.com/OpenZeppelin/openzeppelin-contracts/blob/master/contracts/access/Ownable.sol\":2700:2701  0 */\n      0x00\n        /* \"https://github.com/OpenZeppelin/openzeppelin-contracts/blob/master/contracts/access/Ownable.sol\":2672:2703  OwnableInvalidOwner(address(0)) */\n      mload(0x40)\n      0x1e4fbdf700000000000000000000000000000000000000000000000000000000\n      dup2\n      mstore\n      0x04\n      add\n      tag_208\n      swap2\n      swap1\n      tag_34\n      jump\t// in\n    tag_208:\n      mload(0x40)\n      dup1\n      swap2\n      sub\n      swap1\n      revert\n        /* \"https://github.com/OpenZeppelin/openzeppelin-contracts/blob/master/contracts/access/Ownable.sol\":2623:2714  if (newOwner == address(0)) {... */\n    tag_207:\n        /* \"https://github.com/OpenZeppelin/openzeppelin-contracts/blob/master/contracts/access/Ownable.sol\":2723:2751  _transferOwnership(newOwner) */\n      tag_209\n        /* \"https://github.com/OpenZeppelin/openzeppelin-contracts/blob/master/contracts/access/Ownable.sol\":2742:2750  newOwner */\n      dup2\n        /* \"https://github.com/OpenZeppelin/openzeppelin-contracts/blob/master/contracts/access/Ownable.sol\":2723:2741  _transferOwnership */\n      tag_108\n        /* \"https://github.com/OpenZeppelin/openzeppelin-contracts/blob/master/contracts/access/Ownable.sol\":2723:2751  _transferOwnership(newOwner) */\n      jump\t// in\n    tag_209:\n        /* \"https://github.com/OpenZeppelin/openzeppelin-contracts/blob/master/contracts/access/Ownable.sol\":2543:2758  function transferOwnership(address newOwner) public virtual onlyOwner {... */\n      pop\n      jump\t// out\n        /* \"https://github.com/OpenZeppelin/openzeppelin-contracts/blob/master/contracts/access/Ownable.sol\":1796:1958  function _checkOwner() internal view virtual {... */\n    tag_84:\n        /* \"https://github.com/OpenZeppelin/openzeppelin-contracts/blob/master/contracts/access/Ownable.sol\":1866:1878  _msgSender() */\n      tag_211\n        /* \"https://github.com/OpenZeppelin/openzeppelin-contracts/blob/master/contracts/access/Ownable.sol\":1866:1876  _msgSender */\n      tag_212\n        /* \"https://github.com/OpenZeppelin/openzeppelin-contracts/blob/master/contracts/access/Ownable.sol\":1866:1878  _msgSender() */\n      jump\t// in\n    tag_211:\n        /* \"https://github.com/OpenZeppelin/openzeppelin-contracts/blob/master/contracts/access/Ownable.sol\":1855:1878  owner() != _msgSender() */\n      0xffffffffffffffffffffffffffffffffffffffff\n      and\n        /* \"https://github.com/OpenZeppelin/openzeppelin-contracts/blob/master/contracts/access/Ownable.sol\":1855:1862  owner() */\n      tag_213\n        /* \"https://github.com/OpenZeppelin/openzeppelin-contracts/blob/master/contracts/access/Ownable.sol\":1855:1860  owner */\n      tag_32\n        /* \"https://github.com/OpenZeppelin/openzeppelin-contracts/blob/master/contracts/access/Ownable.sol\":1855:1862  owner() */\n      jump\t// in\n    tag_213:\n        /* \"https://github.com/OpenZeppelin/openzeppelin-contracts/blob/master/contracts/access/Ownable.sol\":1855:1878  owner() != _msgSender() */\n      0xffffffffffffffffffffffffffffffffffffffff\n      and\n      eq\n        /* \"https://github.com/OpenZeppelin/openzeppelin-contracts/blob/master/contracts/access/Ownable.sol\":1851:1952  if (owner() != _msgSender()) {... */\n      tag_214\n      jumpi\n        /* \"https://github.com/OpenZeppelin/openzeppelin-contracts/blob/master/contracts/access/Ownable.sol\":1928:1940  _msgSender() */\n      tag_215\n        /* \"https://github.com/OpenZeppelin/openzeppelin-contracts/blob/master/contracts/access/Ownable.sol\":1928:1938  _msgSender */\n      tag_212\n        /* \"https://github.com/OpenZeppelin/openzeppelin-contracts/blob/master/contracts/access/Ownable.sol\":1928:1940  _msgSender() */\n      jump\t// in\n    tag_215:\n        /* \"https://github.com/OpenZeppelin/openzeppelin-contracts/blob/master/contracts/access/Ownable.sol\":1901:1941  OwnableUnauthorizedAccount(_msgSender()) */\n      mload(0x40)\n      0x118cdaa700000000000000000000000000000000000000000000000000000000\n      dup2\n      mstore\n      0x04\n      add\n      tag_216\n      swap2\n      swap1\n      tag_34\n      jump\t// in\n    tag_216:\n      mload(0x40)\n      dup1\n      swap2\n      sub\n      swap1\n      revert\n        /* \"https://github.com/OpenZeppelin/openzeppelin-contracts/blob/master/contracts/access/Ownable.sol\":1851:1952  if (owner() != _msgSender()) {... */\n    tag_214:\n        /* \"https://github.com/OpenZeppelin/openzeppelin-contracts/blob/master/contracts/access/Ownable.sol\":1796:1958  function _checkOwner() internal view virtual {... */\n      jump\t// out\n        /* \"https://github.com/OpenZeppelin/openzeppelin-contracts/blob/master/contracts/access/Ownable.sol\":2912:3099  function _transferOwnership(address newOwner) internal virtual {... */\n    tag_108:\n        /* \"https://github.com/OpenZeppelin/openzeppelin-contracts/blob/master/contracts/access/Ownable.sol\":2985:3001  address oldOwner */\n      0x00\n        /* \"https://github.com/OpenZeppelin/openzeppelin-contracts/blob/master/contracts/access/Ownable.sol\":3004:3010  _owner */\n      0x00\n      0x00\n      swap1\n      sload\n      swap1\n      0x0100\n      exp\n      swap1\n      div\n      0xffffffffffffffffffffffffffffffffffffffff\n      and\n        /* \"https://github.com/OpenZeppelin/openzeppelin-contracts/blob/master/contracts/access/Ownable.sol\":2985:3010  address oldOwner = _owner */\n      swap1\n      pop\n        /* \"https://github.com/OpenZeppelin/openzeppelin-contracts/blob/master/contracts/access/Ownable.sol\":3029:3037  newOwner */\n      dup2\n        /* \"https://github.com/OpenZeppelin/openzeppelin-contracts/blob/master/contracts/access/Ownable.sol\":3020:3026  _owner */\n      0x00\n      0x00\n        /* \"https://github.com/OpenZeppelin/openzeppelin-contracts/blob/master/contracts/access/Ownable.sol\":3020:3037  _owner = newOwner */\n      0x0100\n      exp\n      dup2\n      sload\n      dup2\n      0xffffffffffffffffffffffffffffffffffffffff\n      mul\n      not\n      and\n      swap1\n      dup4\n      0xffffffffffffffffffffffffffffffffffffffff\n      and\n      mul\n      or\n      swap1\n      sstore\n      pop\n        /* \"https://github.com/OpenZeppelin/openzeppelin-contracts/blob/master/contracts/access/Ownable.sol\":3083:3091  newOwner */\n      dup2\n        /* \"https://github.com/OpenZeppelin/openzeppelin-contracts/blob/master/contracts/access/Ownable.sol\":3052:3092  OwnershipTransferred(oldOwner, newOwner) */\n      0xffffffffffffffffffffffffffffffffffffffff\n      and\n        /* \"https://github.com/OpenZeppelin/openzeppelin-contracts/blob/master/contracts/access/Ownable.sol\":3073:3081  oldOwner */\n      dup2\n        /* \"https://github.com/OpenZeppelin/openzeppelin-contracts/blob/master/contracts/access/Ownable.sol\":3052:3092  OwnershipTransferred(oldOwner, newOwner) */\n      0xffffffffffffffffffffffffffffffffffffffff\n      and\n      0x8be0079c531659141344cd1fd0a4f28419497f9722a3daafe3b4186f6b6457e0\n      mload(0x40)\n      mload(0x40)\n      dup1\n      swap2\n      sub\n      swap1\n      log3\n        /* \"https://github.com/OpenZeppelin/openzeppelin-contracts/blob/master/contracts/access/Ownable.sol\":2975:3099  {... */\n      pop\n        /* \"https://github.com/OpenZeppelin/openzeppelin-contracts/blob/master/contracts/access/Ownable.sol\":2912:3099  function _transferOwnership(address newOwner) internal virtual {... */\n      pop\n      jump\t// out\n        /* \"https://github.com/OpenZeppelin/openzeppelin-contracts/blob/master/contracts/utils/Context.sol\":656:752  function _msgSender() internal view virtual returns (address) {... */\n    tag_212:\n        /* \"https://github.com/OpenZeppelin/openzeppelin-contracts/blob/master/contracts/utils/Context.sol\":709:716  address */\n      0x00\n        /* \"https://github.com/OpenZeppelin/openzeppelin-contracts/blob/master/contracts/utils/Context.sol\":735:745  msg.sender */\n      caller\n        /* \"https://github.com/OpenZeppelin/openzeppelin-contracts/blob/master/contracts/utils/Context.sol\":728:745  return msg.sender */\n      swap1\n      pop\n        /* \"https://github.com/OpenZeppelin/openzeppelin-contracts/blob/master/contracts/utils/Context.sol\":656:752  function _msgSender() internal view virtual returns (address) {... */\n      swap1\n      jump\t// out\n    tag_140:\n      pop\n      dup1\n      sload\n      0x00\n      dup3\n      sstore\n      0x02\n      mul\n      swap1\n      0x00\n      mstore\n      keccak256(0x00, 0x20)\n      swap1\n      dup2\n      add\n      swap1\n      tag_220\n      swap2\n      swap1\n      tag_221\n      jump\t// in\n    tag_220:\n      pop\n      jump\t// out\n    tag_221:\n    tag_222:\n      dup1\n      dup3\n      gt\n      iszero\n      tag_223\n      jumpi\n      0x00\n      0x00\n      dup3\n      add\n      0x00\n      tag_224\n      swap2\n      swap1\n      tag_225\n      jump\t// in\n    tag_224:\n      0x01\n      dup3\n      add\n      0x00\n      swap1\n      sstore\n      pop\n      0x02\n      add\n      jump(tag_222)\n    tag_223:\n      pop\n      swap1\n      jump\t// out\n    tag_225:\n      pop\n      dup1\n      sload\n      tag_226\n      swap1\n      tag_77\n      jump\t// in\n    tag_226:\n      0x00\n      dup3\n      sstore\n      dup1\n      0x1f\n      lt\n      tag_228\n      jumpi\n      pop\n      jump(tag_227)\n    tag_228:\n      0x1f\n      add\n      0x20\n      swap1\n      div\n      swap1\n      0x00\n      mstore\n      keccak256(0x00, 0x20)\n      swap1\n      dup2\n      add\n      swap1\n      tag_229\n      swap2\n      swap1\n      tag_230\n      jump\t// in\n    tag_229:\n    tag_227:\n      pop\n      jump\t// out\n    tag_230:\n    tag_231:\n      dup1\n      dup3\n      gt\n      iszero\n      tag_232\n      jumpi\n      0x00\n      dup2\n      0x00\n      swap1\n      sstore\n      pop\n      0x01\n      add\n      jump(tag_231)\n    tag_232:\n      pop\n      swap1\n      jump\t// out\n        /* \"#utility.yul\":7:82   */\n    tag_233:\n        /* \"#utility.yul\":40:46   */\n      0x00\n        /* \"#utility.yul\":73:75   */\n      0x40\n        /* \"#utility.yul\":67:76   */\n      mload\n        /* \"#utility.yul\":57:76   */\n      swap1\n      pop\n        /* \"#utility.yul\":7:82   */\n      swap1\n      jump\t// out\n        /* \"#utility.yul\":88:205   */\n    tag_234:\n        /* \"#utility.yul\":197:198   */\n      0x00\n        /* \"#utility.yul\":194:195   */\n      0x00\n        /* \"#utility.yul\":187:199   */\n      revert\n        /* \"#utility.yul\":211:328   */\n    tag_235:\n        /* \"#utility.yul\":320:321   */\n      0x00\n        /* \"#utility.yul\":317:318   */\n      0x00\n        /* \"#utility.yul\":310:322   */\n      revert\n        /* \"#utility.yul\":334:451   */\n    tag_236:\n        /* \"#utility.yul\":443:444   */\n      0x00\n        /* \"#utility.yul\":440:441   */\n      0x00\n        /* \"#utility.yul\":433:445   */\n      revert\n        /* \"#utility.yul\":457:574   */\n    tag_237:\n        /* \"#utility.yul\":566:567   */\n      0x00\n        /* \"#utility.yul\":563:564   */\n      0x00\n        /* \"#utility.yul\":556:568   */\n      revert\n        /* \"#utility.yul\":580:682   */\n    tag_238:\n        /* \"#utility.yul\":621:627   */\n      0x00\n        /* \"#utility.yul\":672:674   */\n      0x1f\n        /* \"#utility.yul\":668:675   */\n      not\n        /* \"#utility.yul\":663:665   */\n      0x1f\n        /* \"#utility.yul\":656:661   */\n      dup4\n        /* \"#utility.yul\":652:666   */\n      add\n        /* \"#utility.yul\":648:676   */\n      and\n        /* \"#utility.yul\":638:676   */\n      swap1\n      pop\n        /* \"#utility.yul\":580:682   */\n      swap2\n      swap1\n      pop\n      jump\t// out\n        /* \"#utility.yul\":688:868   */\n    tag_239:\n        /* \"#utility.yul\":736:813   */\n      0x4e487b7100000000000000000000000000000000000000000000000000000000\n        /* \"#utility.yul\":733:734   */\n      0x00\n        /* \"#utility.yul\":726:814   */\n      mstore\n        /* \"#utility.yul\":833:837   */\n      0x41\n        /* \"#utility.yul\":830:831   */\n      0x04\n        /* \"#utility.yul\":823:838   */\n      mstore\n        /* \"#utility.yul\":857:861   */\n      0x24\n        /* \"#utility.yul\":854:855   */\n      0x00\n        /* \"#utility.yul\":847:862   */\n      revert\n        /* \"#utility.yul\":874:1155   */\n    tag_240:\n        /* \"#utility.yul\":957:984   */\n      tag_325\n        /* \"#utility.yul\":979:983   */\n      dup3\n        /* \"#utility.yul\":957:984   */\n      tag_238\n      jump\t// in\n    tag_325:\n        /* \"#utility.yul\":949:955   */\n      dup2\n        /* \"#utility.yul\":945:985   */\n      add\n        /* \"#utility.yul\":1087:1093   */\n      dup2\n        /* \"#utility.yul\":1075:1085   */\n      dup2\n        /* \"#utility.yul\":1072:1094   */\n      lt\n        /* \"#utility.yul\":1051:1069   */\n      0xffffffffffffffff\n        /* \"#utility.yul\":1039:1049   */\n      dup3\n        /* \"#utility.yul\":1036:1070   */\n      gt\n        /* \"#utility.yul\":1033:1095   */\n      or\n        /* \"#utility.yul\":1030:1118   */\n      iszero\n      tag_326\n      jumpi\n        /* \"#utility.yul\":1098:1116   */\n      tag_327\n      tag_239\n      jump\t// in\n    tag_327:\n        /* \"#utility.yul\":1030:1118   */\n    tag_326:\n        /* \"#utility.yul\":1138:1148   */\n      dup1\n        /* \"#utility.yul\":1134:1136   */\n      0x40\n        /* \"#utility.yul\":1127:1149   */\n      mstore\n        /* \"#utility.yul\":917:1155   */\n      pop\n        /* \"#utility.yul\":874:1155   */\n      pop\n      pop\n      jump\t// out\n        /* \"#utility.yul\":1161:1290   */\n    tag_241:\n        /* \"#utility.yul\":1195:1201   */\n      0x00\n        /* \"#utility.yul\":1222:1242   */\n      tag_329\n      tag_233\n      jump\t// in\n    tag_329:\n        /* \"#utility.yul\":1212:1242   */\n      swap1\n      pop\n        /* \"#utility.yul\":1251:1284   */\n      tag_330\n        /* \"#utility.yul\":1279:1283   */\n      dup3\n        /* \"#utility.yul\":1271:1277   */\n      dup3\n        /* \"#utility.yul\":1251:1284   */\n      tag_240\n      jump\t// in\n    tag_330:\n        /* \"#utility.yul\":1161:1290   */\n      swap2\n      swap1\n      pop\n      jump\t// out\n        /* \"#utility.yul\":1296:1604   */\n    tag_242:\n        /* \"#utility.yul\":1358:1362   */\n      0x00\n        /* \"#utility.yul\":1448:1466   */\n      0xffffffffffffffff\n        /* \"#utility.yul\":1440:1446   */\n      dup3\n        /* \"#utility.yul\":1437:1467   */\n      gt\n        /* \"#utility.yul\":1434:1490   */\n      iszero\n      tag_332\n      jumpi\n        /* \"#utility.yul\":1470:1488   */\n      tag_333\n      tag_239\n      jump\t// in\n    tag_333:\n        /* \"#utility.yul\":1434:1490   */\n    tag_332:\n        /* \"#utility.yul\":1508:1537   */\n      tag_334\n        /* \"#utility.yul\":1530:1536   */\n      dup3\n        /* \"#utility.yul\":1508:1537   */\n      tag_238\n      jump\t// in\n    tag_334:\n        /* \"#utility.yul\":1500:1537   */\n      swap1\n      pop\n        /* \"#utility.yul\":1592:1596   */\n      0x20\n        /* \"#utility.yul\":1586:1590   */\n      dup2\n        /* \"#utility.yul\":1582:1597   */\n      add\n        /* \"#utility.yul\":1574:1597   */\n      swap1\n      pop\n        /* \"#utility.yul\":1296:1604   */\n      swap2\n      swap1\n      pop\n      jump\t// out\n        /* \"#utility.yul\":1610:1758   */\n    tag_243:\n        /* \"#utility.yul\":1708:1714   */\n      dup3\n        /* \"#utility.yul\":1703:1706   */\n      dup2\n        /* \"#utility.yul\":1698:1701   */\n      dup4\n        /* \"#utility.yul\":1685:1715   */\n      calldatacopy\n        /* \"#utility.yul\":1749:1750   */\n      0x00\n        /* \"#utility.yul\":1740:1746   */\n      dup4\n        /* \"#utility.yul\":1735:1738   */\n      dup4\n        /* \"#utility.yul\":1731:1747   */\n      add\n        /* \"#utility.yul\":1724:1751   */\n      mstore\n        /* \"#utility.yul\":1610:1758   */\n      pop\n      pop\n      pop\n      jump\t// out\n        /* \"#utility.yul\":1764:2189   */\n    tag_244:\n        /* \"#utility.yul\":1842:1847   */\n      0x00\n        /* \"#utility.yul\":1867:1933   */\n      tag_337\n        /* \"#utility.yul\":1883:1932   */\n      tag_338\n        /* \"#utility.yul\":1925:1931   */\n      dup5\n        /* \"#utility.yul\":1883:1932   */\n      tag_242\n      jump\t// in\n    tag_338:\n        /* \"#utility.yul\":1867:1933   */\n      tag_241\n      jump\t// in\n    tag_337:\n        /* \"#utility.yul\":1858:1933   */\n      swap1\n      pop\n        /* \"#utility.yul\":1956:1962   */\n      dup3\n        /* \"#utility.yul\":1949:1954   */\n      dup2\n        /* \"#utility.yul\":1942:1963   */\n      mstore\n        /* \"#utility.yul\":1994:1998   */\n      0x20\n        /* \"#utility.yul\":1987:1992   */\n      dup2\n        /* \"#utility.yul\":1983:1999   */\n      add\n        /* \"#utility.yul\":2032:2035   */\n      dup5\n        /* \"#utility.yul\":2023:2029   */\n      dup5\n        /* \"#utility.yul\":2018:2021   */\n      dup5\n        /* \"#utility.yul\":2014:2030   */\n      add\n        /* \"#utility.yul\":2011:2036   */\n      gt\n        /* \"#utility.yul\":2008:2120   */\n      iszero\n      tag_339\n      jumpi\n        /* \"#utility.yul\":2039:2118   */\n      tag_340\n      tag_237\n      jump\t// in\n    tag_340:\n        /* \"#utility.yul\":2008:2120   */\n    tag_339:\n        /* \"#utility.yul\":2129:2183   */\n      tag_341\n        /* \"#utility.yul\":2176:2182   */\n      dup5\n        /* \"#utility.yul\":2171:2174   */\n      dup3\n        /* \"#utility.yul\":2166:2169   */\n      dup6\n        /* \"#utility.yul\":2129:2183   */\n      tag_243\n      jump\t// in\n    tag_341:\n        /* \"#utility.yul\":1848:2189   */\n      pop\n        /* \"#utility.yul\":1764:2189   */\n      swap4\n      swap3\n      pop\n      pop\n      pop\n      jump\t// out\n        /* \"#utility.yul\":2209:2549   */\n    tag_245:\n        /* \"#utility.yul\":2265:2270   */\n      0x00\n        /* \"#utility.yul\":2314:2317   */\n      dup3\n        /* \"#utility.yul\":2307:2311   */\n      0x1f\n        /* \"#utility.yul\":2299:2305   */\n      dup4\n        /* \"#utility.yul\":2295:2312   */\n      add\n        /* \"#utility.yul\":2291:2318   */\n      slt\n        /* \"#utility.yul\":2281:2403   */\n      tag_343\n      jumpi\n        /* \"#utility.yul\":2322:2401   */\n      tag_344\n      tag_236\n      jump\t// in\n    tag_344:\n        /* \"#utility.yul\":2281:2403   */\n    tag_343:\n        /* \"#utility.yul\":2439:2445   */\n      dup2\n        /* \"#utility.yul\":2426:2446   */\n      calldataload\n        /* \"#utility.yul\":2464:2543   */\n      tag_345\n        /* \"#utility.yul\":2539:2542   */\n      dup5\n        /* \"#utility.yul\":2531:2537   */\n      dup3\n        /* \"#utility.yul\":2524:2528   */\n      0x20\n        /* \"#utility.yul\":2516:2522   */\n      dup7\n        /* \"#utility.yul\":2512:2529   */\n      add\n        /* \"#utility.yul\":2464:2543   */\n      tag_244\n      jump\t// in\n    tag_345:\n        /* \"#utility.yul\":2455:2543   */\n      swap2\n      pop\n        /* \"#utility.yul\":2271:2549   */\n      pop\n        /* \"#utility.yul\":2209:2549   */\n      swap3\n      swap2\n      pop\n      pop\n      jump\t// out\n        /* \"#utility.yul\":2555:3064   */\n    tag_17:\n        /* \"#utility.yul\":2624:2630   */\n      0x00\n        /* \"#utility.yul\":2673:2675   */\n      0x20\n        /* \"#utility.yul\":2661:2670   */\n      dup3\n        /* \"#utility.yul\":2652:2659   */\n      dup5\n        /* \"#utility.yul\":2648:2671   */\n      sub\n        /* \"#utility.yul\":2644:2676   */\n      slt\n        /* \"#utility.yul\":2641:2760   */\n      iszero\n      tag_347\n      jumpi\n        /* \"#utility.yul\":2679:2758   */\n      tag_348\n      tag_234\n      jump\t// in\n    tag_348:\n        /* \"#utility.yul\":2641:2760   */\n    tag_347:\n        /* \"#utility.yul\":2827:2828   */\n      0x00\n        /* \"#utility.yul\":2816:2825   */\n      dup3\n        /* \"#utility.yul\":2812:2829   */\n      add\n        /* \"#utility.yul\":2799:2830   */\n      calldataload\n        /* \"#utility.yul\":2857:2875   */\n      0xffffffffffffffff\n        /* \"#utility.yul\":2849:2855   */\n      dup2\n        /* \"#utility.yul\":2846:2876   */\n      gt\n        /* \"#utility.yul\":2843:2960   */\n      iszero\n      tag_349\n      jumpi\n        /* \"#utility.yul\":2879:2958   */\n      tag_350\n      tag_235\n      jump\t// in\n    tag_350:\n        /* \"#utility.yul\":2843:2960   */\n    tag_349:\n        /* \"#utility.yul\":2984:3047   */\n      tag_351\n        /* \"#utility.yul\":3039:3046   */\n      dup5\n        /* \"#utility.yul\":3030:3036   */\n      dup3\n        /* \"#utility.yul\":3019:3028   */\n      dup6\n        /* \"#utility.yul\":3015:3037   */\n      add\n        /* \"#utility.yul\":2984:3047   */\n      tag_245\n      jump\t// in\n    tag_351:\n        /* \"#utility.yul\":2974:3047   */\n      swap2\n      pop\n        /* \"#utility.yul\":2770:3057   */\n      pop\n        /* \"#utility.yul\":2555:3064   */\n      swap3\n      swap2\n      pop\n      pop\n      jump\t// out\n        /* \"#utility.yul\":3070:3208   */\n    tag_246:\n        /* \"#utility.yul\":3161:3167   */\n      0x00\n        /* \"#utility.yul\":3195:3200   */\n      dup2\n        /* \"#utility.yul\":3189:3201   */\n      mload\n        /* \"#utility.yul\":3179:3201   */\n      swap1\n      pop\n        /* \"#utility.yul\":3070:3208   */\n      swap2\n      swap1\n      pop\n      jump\t// out\n        /* \"#utility.yul\":3214:3422   */\n    tag_247:\n        /* \"#utility.yul\":3337:3348   */\n      0x00\n        /* \"#utility.yul\":3371:3377   */\n      dup3\n        /* \"#utility.yul\":3366:3369   */\n      dup3\n        /* \"#utility.yul\":3359:3378   */\n      mstore\n        /* \"#utility.yul\":3411:3415   */\n      0x20\n        /* \"#utility.yul\":3406:3409   */\n      dup3\n        /* \"#utility.yul\":3402:3416   */\n      add\n        /* \"#utility.yul\":3387:3416   */\n      swap1\n      pop\n        /* \"#utility.yul\":3214:3422   */\n      swap3\n      swap2\n      pop\n      pop\n      jump\t// out\n        /* \"#utility.yul\":3428:3584   */\n    tag_248:\n        /* \"#utility.yul\":3519:3523   */\n      0x00\n        /* \"#utility.yul\":3542:3545   */\n      dup2\n        /* \"#utility.yul\":3534:3545   */\n      swap1\n      pop\n        /* \"#utility.yul\":3572:3576   */\n      0x20\n        /* \"#utility.yul\":3567:3570   */\n      dup3\n        /* \"#utility.yul\":3563:3577   */\n      add\n        /* \"#utility.yul\":3555:3577   */\n      swap1\n      pop\n        /* \"#utility.yul\":3428:3584   */\n      swap2\n      swap1\n      pop\n      jump\t// out\n        /* \"#utility.yul\":3590:3689   */\n    tag_249:\n        /* \"#utility.yul\":3642:3648   */\n      0x00\n        /* \"#utility.yul\":3676:3681   */\n      dup2\n        /* \"#utility.yul\":3670:3682   */\n      mload\n        /* \"#utility.yul\":3660:3682   */\n      swap1\n      pop\n        /* \"#utility.yul\":3590:3689   */\n      swap2\n      swap1\n      pop\n      jump\t// out\n        /* \"#utility.yul\":3695:3854   */\n    tag_250:\n        /* \"#utility.yul\":3769:3780   */\n      0x00\n        /* \"#utility.yul\":3803:3809   */\n      dup3\n        /* \"#utility.yul\":3798:3801   */\n      dup3\n        /* \"#utility.yul\":3791:3810   */\n      mstore\n        /* \"#utility.yul\":3843:3847   */\n      0x20\n        /* \"#utility.yul\":3838:3841   */\n      dup3\n        /* \"#utility.yul\":3834:3848   */\n      add\n        /* \"#utility.yul\":3819:3848   */\n      swap1\n      pop\n        /* \"#utility.yul\":3695:3854   */\n      swap3\n      swap2\n      pop\n      pop\n      jump\t// out\n        /* \"#utility.yul\":3860:3999   */\n    tag_251:\n        /* \"#utility.yul\":3949:3955   */\n      dup3\n        /* \"#utility.yul\":3944:3947   */\n      dup2\n        /* \"#utility.yul\":3939:3942   */\n      dup4\n        /* \"#utility.yul\":3933:3956   */\n      mcopy\n        /* \"#utility.yul\":3990:3991   */\n      0x00\n        /* \"#utility.yul\":3981:3987   */\n      dup4\n        /* \"#utility.yul\":3976:3979   */\n      dup4\n        /* \"#utility.yul\":3972:3988   */\n      add\n        /* \"#utility.yul\":3965:3992   */\n      mstore\n        /* \"#utility.yul\":3860:3999   */\n      pop\n      pop\n      pop\n      jump\t// out\n        /* \"#utility.yul\":4005:4362   */\n    tag_252:\n        /* \"#utility.yul\":4083:4086   */\n      0x00\n        /* \"#utility.yul\":4111:4150   */\n      tag_359\n        /* \"#utility.yul\":4144:4149   */\n      dup3\n        /* \"#utility.yul\":4111:4150   */\n      tag_249\n      jump\t// in\n    tag_359:\n        /* \"#utility.yul\":4166:4227   */\n      tag_360\n        /* \"#utility.yul\":4220:4226   */\n      dup2\n        /* \"#utility.yul\":4215:4218   */\n      dup6\n        /* \"#utility.yul\":4166:4227   */\n      tag_250\n      jump\t// in\n    tag_360:\n        /* \"#utility.yul\":4159:4227   */\n      swap4\n      pop\n        /* \"#utility.yul\":4236:4301   */\n      tag_361\n        /* \"#utility.yul\":4294:4300   */\n      dup2\n        /* \"#utility.yul\":4289:4292   */\n      dup6\n        /* \"#utility.yul\":4282:4286   */\n      0x20\n        /* \"#utility.yul\":4275:4280   */\n      dup7\n        /* \"#utility.yul\":4271:4287   */\n      add\n        /* \"#utility.yul\":4236:4301   */\n      tag_251\n      jump\t// in\n    tag_361:\n        /* \"#utility.yul\":4326:4355   */\n      tag_362\n        /* \"#utility.yul\":4348:4354   */\n      dup2\n        /* \"#utility.yul\":4326:4355   */\n      tag_238\n      jump\t// in\n    tag_362:\n        /* \"#utility.yul\":4321:4324   */\n      dup5\n        /* \"#utility.yul\":4317:4356   */\n      add\n        /* \"#utility.yul\":4310:4356   */\n      swap2\n      pop\n        /* \"#utility.yul\":4087:4362   */\n      pop\n        /* \"#utility.yul\":4005:4362   */\n      swap3\n      swap2\n      pop\n      pop\n      jump\t// out\n        /* \"#utility.yul\":4368:4445   */\n    tag_253:\n        /* \"#utility.yul\":4405:4412   */\n      0x00\n        /* \"#utility.yul\":4434:4439   */\n      dup2\n        /* \"#utility.yul\":4423:4439   */\n      swap1\n      pop\n        /* \"#utility.yul\":4368:4445   */\n      swap2\n      swap1\n      pop\n      jump\t// out\n        /* \"#utility.yul\":4451:4559   */\n    tag_254:\n        /* \"#utility.yul\":4528:4552   */\n      tag_365\n        /* \"#utility.yul\":4546:4551   */\n      dup2\n        /* \"#utility.yul\":4528:4552   */\n      tag_253\n      jump\t// in\n    tag_365:\n        /* \"#utility.yul\":4523:4526   */\n      dup3\n        /* \"#utility.yul\":4516:4553   */\n      mstore\n        /* \"#utility.yul\":4451:4559   */\n      pop\n      pop\n      jump\t// out\n        /* \"#utility.yul\":4621:5227   */\n    tag_255:\n        /* \"#utility.yul\":4728:4731   */\n      0x00\n        /* \"#utility.yul\":4764:4768   */\n      0x40\n        /* \"#utility.yul\":4759:4762   */\n      dup4\n        /* \"#utility.yul\":4755:4769   */\n      add\n        /* \"#utility.yul\":4858:4862   */\n      0x00\n        /* \"#utility.yul\":4851:4856   */\n      dup4\n        /* \"#utility.yul\":4847:4863   */\n      add\n        /* \"#utility.yul\":4841:4864   */\n      mload\n        /* \"#utility.yul\":4911:4914   */\n      dup5\n        /* \"#utility.yul\":4905:4909   */\n      dup3\n        /* \"#utility.yul\":4901:4915   */\n      sub\n        /* \"#utility.yul\":4894:4898   */\n      0x00\n        /* \"#utility.yul\":4889:4892   */\n      dup7\n        /* \"#utility.yul\":4885:4899   */\n      add\n        /* \"#utility.yul\":4878:4916   */\n      mstore\n        /* \"#utility.yul\":4937:5010   */\n      tag_367\n        /* \"#utility.yul\":5005:5009   */\n      dup3\n        /* \"#utility.yul\":4991:5003   */\n      dup3\n        /* \"#utility.yul\":4937:5010   */\n      tag_252\n      jump\t// in\n    tag_367:\n        /* \"#utility.yul\":4929:5010   */\n      swap2\n      pop\n        /* \"#utility.yul\":4779:5021   */\n      pop\n        /* \"#utility.yul\":5108:5112   */\n      0x20\n        /* \"#utility.yul\":5101:5106   */\n      dup4\n        /* \"#utility.yul\":5097:5113   */\n      add\n        /* \"#utility.yul\":5091:5114   */\n      mload\n        /* \"#utility.yul\":5127:5190   */\n      tag_368\n        /* \"#utility.yul\":5184:5188   */\n      0x20\n        /* \"#utility.yul\":5179:5182   */\n      dup7\n        /* \"#utility.yul\":5175:5189   */\n      add\n        /* \"#utility.yul\":5161:5173   */\n      dup3\n        /* \"#utility.yul\":5127:5190   */\n      tag_254\n      jump\t// in\n    tag_368:\n        /* \"#utility.yul\":5031:5200   */\n      pop\n        /* \"#utility.yul\":5217:5221   */\n      dup1\n        /* \"#utility.yul\":5210:5221   */\n      swap2\n      pop\n        /* \"#utility.yul\":4733:5227   */\n      pop\n        /* \"#utility.yul\":4621:5227   */\n      swap3\n      swap2\n      pop\n      pop\n      jump\t// out\n        /* \"#utility.yul\":5233:5485   */\n    tag_256:\n        /* \"#utility.yul\":5350:5360   */\n      0x00\n        /* \"#utility.yul\":5385:5479   */\n      tag_370\n        /* \"#utility.yul\":5475:5478   */\n      dup4\n        /* \"#utility.yul\":5467:5473   */\n      dup4\n        /* \"#utility.yul\":5385:5479   */\n      tag_255\n      jump\t// in\n    tag_370:\n        /* \"#utility.yul\":5371:5479   */\n      swap1\n      pop\n        /* \"#utility.yul\":5233:5485   */\n      swap3\n      swap2\n      pop\n      pop\n      jump\t// out\n        /* \"#utility.yul\":5491:5628   */\n    tag_257:\n        /* \"#utility.yul\":5585:5589   */\n      0x00\n        /* \"#utility.yul\":5617:5621   */\n      0x20\n        /* \"#utility.yul\":5612:5615   */\n      dup3\n        /* \"#utility.yul\":5608:5622   */\n      add\n        /* \"#utility.yul\":5600:5622   */\n      swap1\n      pop\n        /* \"#utility.yul\":5491:5628   */\n      swap2\n      swap1\n      pop\n      jump\t// out\n        /* \"#utility.yul\":5694:6797   */\n    tag_258:\n        /* \"#utility.yul\":5861:5864   */\n      0x00\n        /* \"#utility.yul\":5890:5968   */\n      tag_373\n        /* \"#utility.yul\":5962:5967   */\n      dup3\n        /* \"#utility.yul\":5890:5968   */\n      tag_246\n      jump\t// in\n    tag_373:\n        /* \"#utility.yul\":5984:6094   */\n      tag_374\n        /* \"#utility.yul\":6087:6093   */\n      dup2\n        /* \"#utility.yul\":6082:6085   */\n      dup6\n        /* \"#utility.yul\":5984:6094   */\n      tag_247\n      jump\t// in\n    tag_374:\n        /* \"#utility.yul\":5977:6094   */\n      swap4\n      pop\n        /* \"#utility.yul\":6120:6123   */\n      dup4\n        /* \"#utility.yul\":6165:6169   */\n      0x20\n        /* \"#utility.yul\":6157:6163   */\n      dup3\n        /* \"#utility.yul\":6153:6170   */\n      mul\n        /* \"#utility.yul\":6148:6151   */\n      dup6\n        /* \"#utility.yul\":6144:6171   */\n      add\n        /* \"#utility.yul\":6195:6275   */\n      tag_375\n        /* \"#utility.yul\":6269:6274   */\n      dup6\n        /* \"#utility.yul\":6195:6275   */\n      tag_248\n      jump\t// in\n    tag_375:\n        /* \"#utility.yul\":6298:6305   */\n      dup1\n        /* \"#utility.yul\":6329:6330   */\n      0x00\n        /* \"#utility.yul\":6314:6752   */\n    tag_376:\n        /* \"#utility.yul\":6339:6345   */\n      dup6\n        /* \"#utility.yul\":6336:6337   */\n      dup2\n        /* \"#utility.yul\":6333:6346   */\n      lt\n        /* \"#utility.yul\":6314:6752   */\n      iszero\n      tag_378\n      jumpi\n        /* \"#utility.yul\":6410:6419   */\n      dup5\n        /* \"#utility.yul\":6404:6408   */\n      dup5\n        /* \"#utility.yul\":6400:6420   */\n      sub\n        /* \"#utility.yul\":6395:6398   */\n      dup10\n        /* \"#utility.yul\":6388:6421   */\n      mstore\n        /* \"#utility.yul\":6461:6467   */\n      dup2\n        /* \"#utility.yul\":6455:6468   */\n      mload\n        /* \"#utility.yul\":6489:6601   */\n      tag_379\n        /* \"#utility.yul\":6596:6600   */\n      dup6\n        /* \"#utility.yul\":6581:6594   */\n      dup3\n        /* \"#utility.yul\":6489:6601   */\n      tag_256\n      jump\t// in\n    tag_379:\n        /* \"#utility.yul\":6481:6601   */\n      swap5\n      pop\n        /* \"#utility.yul\":6624:6708   */\n      tag_380\n        /* \"#utility.yul\":6701:6707   */\n      dup4\n        /* \"#utility.yul\":6624:6708   */\n      tag_257\n      jump\t// in\n    tag_380:\n        /* \"#utility.yul\":6614:6708   */\n      swap3\n      pop\n        /* \"#utility.yul\":6737:6741   */\n      0x20\n        /* \"#utility.yul\":6732:6735   */\n      dup11\n        /* \"#utility.yul\":6728:6742   */\n      add\n        /* \"#utility.yul\":6721:6742   */\n      swap10\n      pop\n        /* \"#utility.yul\":6374:6752   */\n      pop\n        /* \"#utility.yul\":6361:6362   */\n      0x01\n        /* \"#utility.yul\":6358:6359   */\n      dup2\n        /* \"#utility.yul\":6354:6363   */\n      add\n        /* \"#utility.yul\":6349:6363   */\n      swap1\n      pop\n        /* \"#utility.yul\":6314:6752   */\n      jump(tag_376)\n    tag_378:\n        /* \"#utility.yul\":6318:6332   */\n      pop\n        /* \"#utility.yul\":6768:6772   */\n      dup3\n        /* \"#utility.yul\":6761:6772   */\n      swap8\n      pop\n        /* \"#utility.yul\":6788:6791   */\n      dup8\n        /* \"#utility.yul\":6781:6791   */\n      swap6\n      pop\n        /* \"#utility.yul\":5866:6797   */\n      pop\n      pop\n      pop\n      pop\n      pop\n        /* \"#utility.yul\":5694:6797   */\n      swap3\n      swap2\n      pop\n      pop\n      jump\t// out\n        /* \"#utility.yul\":6803:7272   */\n    tag_22:\n        /* \"#utility.yul\":6994:6998   */\n      0x00\n        /* \"#utility.yul\":7032:7034   */\n      0x20\n        /* \"#utility.yul\":7021:7030   */\n      dup3\n        /* \"#utility.yul\":7017:7035   */\n      add\n        /* \"#utility.yul\":7009:7035   */\n      swap1\n      pop\n        /* \"#utility.yul\":7081:7090   */\n      dup2\n        /* \"#utility.yul\":7075:7079   */\n      dup2\n        /* \"#utility.yul\":7071:7091   */\n      sub\n        /* \"#utility.yul\":7067:7068   */\n      0x00\n        /* \"#utility.yul\":7056:7065   */\n      dup4\n        /* \"#utility.yul\":7052:7069   */\n      add\n        /* \"#utility.yul\":7045:7092   */\n      mstore\n        /* \"#utility.yul\":7109:7265   */\n      tag_382\n        /* \"#utility.yul\":7260:7264   */\n      dup2\n        /* \"#utility.yul\":7251:7257   */\n      dup5\n        /* \"#utility.yul\":7109:7265   */\n      tag_258\n      jump\t// in\n    tag_382:\n        /* \"#utility.yul\":7101:7265   */\n      swap1\n      pop\n        /* \"#utility.yul\":6803:7272   */\n      swap3\n      swap2\n      pop\n      pop\n      jump\t// out\n        /* \"#utility.yul\":7278:7404   */\n    tag_259:\n        /* \"#utility.yul\":7315:7322   */\n      0x00\n        /* \"#utility.yul\":7355:7397   */\n      0xffffffffffffffffffffffffffffffffffffffff\n        /* \"#utility.yul\":7348:7353   */\n      dup3\n        /* \"#utility.yul\":7344:7398   */\n      and\n        /* \"#utility.yul\":7333:7398   */\n      swap1\n      pop\n        /* \"#utility.yul\":7278:7404   */\n      swap2\n      swap1\n      pop\n      jump\t// out\n        /* \"#utility.yul\":7410:7506   */\n    tag_260:\n        /* \"#utility.yul\":7447:7454   */\n      0x00\n        /* \"#utility.yul\":7476:7500   */\n      tag_385\n        /* \"#utility.yul\":7494:7499   */\n      dup3\n        /* \"#utility.yul\":7476:7500   */\n      tag_259\n      jump\t// in\n    tag_385:\n        /* \"#utility.yul\":7465:7500   */\n      swap1\n      pop\n        /* \"#utility.yul\":7410:7506   */\n      swap2\n      swap1\n      pop\n      jump\t// out\n        /* \"#utility.yul\":7512:7634   */\n    tag_261:\n        /* \"#utility.yul\":7585:7609   */\n      tag_387\n        /* \"#utility.yul\":7603:7608   */\n      dup2\n        /* \"#utility.yul\":7585:7609   */\n      tag_260\n      jump\t// in\n    tag_387:\n        /* \"#utility.yul\":7578:7583   */\n      dup2\n        /* \"#utility.yul\":7575:7610   */\n      eq\n        /* \"#utility.yul\":7565:7628   */\n      tag_388\n      jumpi\n        /* \"#utility.yul\":7624:7625   */\n      0x00\n        /* \"#utility.yul\":7621:7622   */\n      0x00\n        /* \"#utility.yul\":7614:7626   */\n      revert\n        /* \"#utility.yul\":7565:7628   */\n    tag_388:\n        /* \"#utility.yul\":7512:7634   */\n      pop\n      jump\t// out\n        /* \"#utility.yul\":7640:7779   */\n    tag_262:\n        /* \"#utility.yul\":7686:7691   */\n      0x00\n        /* \"#utility.yul\":7724:7730   */\n      dup2\n        /* \"#utility.yul\":7711:7731   */\n      calldataload\n        /* \"#utility.yul\":7702:7731   */\n      swap1\n      pop\n        /* \"#utility.yul\":7740:7773   */\n      tag_390\n        /* \"#utility.yul\":7767:7772   */\n      dup2\n        /* \"#utility.yul\":7740:7773   */\n      tag_261\n      jump\t// in\n    tag_390:\n        /* \"#utility.yul\":7640:7779   */\n      swap3\n      swap2\n      pop\n      pop\n      jump\t// out\n        /* \"#utility.yul\":7785:8114   */\n    tag_29:\n        /* \"#utility.yul\":7844:7850   */\n      0x00\n        /* \"#utility.yul\":7893:7895   */\n      0x20\n        /* \"#utility.yul\":7881:7890   */\n      dup3\n        /* \"#utility.yul\":7872:7879   */\n      dup5\n        /* \"#utility.yul\":7868:7891   */\n      sub\n        /* \"#utility.yul\":7864:7896   */\n      slt\n        /* \"#utility.yul\":7861:7980   */\n      iszero\n      tag_392\n      jumpi\n        /* \"#utility.yul\":7899:7978   */\n      tag_393\n      tag_234\n      jump\t// in\n    tag_393:\n        /* \"#utility.yul\":7861:7980   */\n    tag_392:\n        /* \"#utility.yul\":8019:8020   */\n      0x00\n        /* \"#utility.yul\":8044:8097   */\n      tag_394\n        /* \"#utility.yul\":8089:8096   */\n      dup5\n        /* \"#utility.yul\":8080:8086   */\n      dup3\n        /* \"#utility.yul\":8069:8078   */\n      dup6\n        /* \"#utility.yul\":8065:8087   */\n      add\n        /* \"#utility.yul\":8044:8097   */\n      tag_262\n      jump\t// in\n    tag_394:\n        /* \"#utility.yul\":8034:8097   */\n      swap2\n      pop\n        /* \"#utility.yul\":7990:8107   */\n      pop\n        /* \"#utility.yul\":7785:8114   */\n      swap3\n      swap2\n      pop\n      pop\n      jump\t// out\n        /* \"#utility.yul\":8120:8238   */\n    tag_263:\n        /* \"#utility.yul\":8207:8231   */\n      tag_396\n        /* \"#utility.yul\":8225:8230   */\n      dup2\n        /* \"#utility.yul\":8207:8231   */\n      tag_260\n      jump\t// in\n    tag_396:\n        /* \"#utility.yul\":8202:8205   */\n      dup3\n        /* \"#utility.yul\":8195:8232   */\n      mstore\n        /* \"#utility.yul\":8120:8238   */\n      pop\n      pop\n      jump\t// out\n        /* \"#utility.yul\":8244:8466   */\n    tag_34:\n        /* \"#utility.yul\":8337:8341   */\n      0x00\n        /* \"#utility.yul\":8375:8377   */\n      0x20\n        /* \"#utility.yul\":8364:8373   */\n      dup3\n        /* \"#utility.yul\":8360:8378   */\n      add\n        /* \"#utility.yul\":8352:8378   */\n      swap1\n      pop\n        /* \"#utility.yul\":8388:8459   */\n      tag_398\n        /* \"#utility.yul\":8456:8457   */\n      0x00\n        /* \"#utility.yul\":8445:8454   */\n      dup4\n        /* \"#utility.yul\":8441:8458   */\n      add\n        /* \"#utility.yul\":8432:8438   */\n      dup5\n        /* \"#utility.yul\":8388:8459   */\n      tag_263\n      jump\t// in\n    tag_398:\n        /* \"#utility.yul\":8244:8466   */\n      swap3\n      swap2\n      pop\n      pop\n      jump\t// out\n        /* \"#utility.yul\":8472:8590   */\n    tag_264:\n        /* \"#utility.yul\":8559:8583   */\n      tag_400\n        /* \"#utility.yul\":8577:8582   */\n      dup2\n        /* \"#utility.yul\":8559:8583   */\n      tag_253\n      jump\t// in\n    tag_400:\n        /* \"#utility.yul\":8554:8557   */\n      dup3\n        /* \"#utility.yul\":8547:8584   */\n      mstore\n        /* \"#utility.yul\":8472:8590   */\n      pop\n      pop\n      jump\t// out\n        /* \"#utility.yul\":8596:8818   */\n    tag_43:\n        /* \"#utility.yul\":8689:8693   */\n      0x00\n        /* \"#utility.yul\":8727:8729   */\n      0x20\n        /* \"#utility.yul\":8716:8725   */\n      dup3\n        /* \"#utility.yul\":8712:8730   */\n      add\n        /* \"#utility.yul\":8704:8730   */\n      swap1\n      pop\n        /* \"#utility.yul\":8740:8811   */\n      tag_402\n        /* \"#utility.yul\":8808:8809   */\n      0x00\n        /* \"#utility.yul\":8797:8806   */\n      dup4\n        /* \"#utility.yul\":8793:8810   */\n      add\n        /* \"#utility.yul\":8784:8790   */\n      dup5\n        /* \"#utility.yul\":8740:8811   */\n      tag_264\n      jump\t// in\n    tag_402:\n        /* \"#utility.yul\":8596:8818   */\n      swap3\n      swap2\n      pop\n      pop\n      jump\t// out\n        /* \"#utility.yul\":8824:8946   */\n    tag_265:\n        /* \"#utility.yul\":8897:8921   */\n      tag_404\n        /* \"#utility.yul\":8915:8920   */\n      dup2\n        /* \"#utility.yul\":8897:8921   */\n      tag_253\n      jump\t// in\n    tag_404:\n        /* \"#utility.yul\":8890:8895   */\n      dup2\n        /* \"#utility.yul\":8887:8922   */\n      eq\n        /* \"#utility.yul\":8877:8940   */\n      tag_405\n      jumpi\n        /* \"#utility.yul\":8936:8937   */\n      0x00\n        /* \"#utility.yul\":8933:8934   */\n      0x00\n        /* \"#utility.yul\":8926:8938   */\n      revert\n        /* \"#utility.yul\":8877:8940   */\n    tag_405:\n        /* \"#utility.yul\":8824:8946   */\n      pop\n      jump\t// out\n        /* \"#utility.yul\":8952:9091   */\n    tag_266:\n        /* \"#utility.yul\":8998:9003   */\n      0x00\n        /* \"#utility.yul\":9036:9042   */\n      dup2\n        /* \"#utility.yul\":9023:9043   */\n      calldataload\n        /* \"#utility.yul\":9014:9043   */\n      swap1\n      pop\n        /* \"#utility.yul\":9052:9085   */\n      tag_407\n        /* \"#utility.yul\":9079:9084   */\n      dup2\n        /* \"#utility.yul\":9052:9085   */\n      tag_265\n      jump\t// in\n    tag_407:\n        /* \"#utility.yul\":8952:9091   */\n      swap3\n      swap2\n      pop\n      pop\n      jump\t// out\n        /* \"#utility.yul\":9097:9426   */\n    tag_46:\n        /* \"#utility.yul\":9156:9162   */\n      0x00\n        /* \"#utility.yul\":9205:9207   */\n      0x20\n        /* \"#utility.yul\":9193:9202   */\n      dup3\n        /* \"#utility.yul\":9184:9191   */\n      dup5\n        /* \"#utility.yul\":9180:9203   */\n      sub\n        /* \"#utility.yul\":9176:9208   */\n      slt\n        /* \"#utility.yul\":9173:9292   */\n      iszero\n      tag_409\n      jumpi\n        /* \"#utility.yul\":9211:9290   */\n      tag_410\n      tag_234\n      jump\t// in\n    tag_410:\n        /* \"#utility.yul\":9173:9292   */\n    tag_409:\n        /* \"#utility.yul\":9331:9332   */\n      0x00\n        /* \"#utility.yul\":9356:9409   */\n      tag_411\n        /* \"#utility.yul\":9401:9408   */\n      dup5\n        /* \"#utility.yul\":9392:9398   */\n      dup3\n        /* \"#utility.yul\":9381:9390   */\n      dup6\n        /* \"#utility.yul\":9377:9399   */\n      add\n        /* \"#utility.yul\":9356:9409   */\n      tag_266\n      jump\t// in\n    tag_411:\n        /* \"#utility.yul\":9346:9409   */\n      swap2\n      pop\n        /* \"#utility.yul\":9302:9419   */\n      pop\n        /* \"#utility.yul\":9097:9426   */\n      swap3\n      swap2\n      pop\n      pop\n      jump\t// out\n        /* \"#utility.yul\":9432:9612   */\n    tag_54:\n        /* \"#utility.yul\":9480:9557   */\n      0x4e487b7100000000000000000000000000000000000000000000000000000000\n        /* \"#utility.yul\":9477:9478   */\n      0x00\n        /* \"#utility.yul\":9470:9558   */\n      mstore\n        /* \"#utility.yul\":9577:9581   */\n      0x21\n        /* \"#utility.yul\":9574:9575   */\n      0x04\n        /* \"#utility.yul\":9567:9582   */\n      mstore\n        /* \"#utility.yul\":9601:9605   */\n      0x24\n        /* \"#utility.yul\":9598:9599   */\n      0x00\n        /* \"#utility.yul\":9591:9606   */\n      revert\n        /* \"#utility.yul\":9618:9787   */\n    tag_267:\n        /* \"#utility.yul\":9702:9713   */\n      0x00\n        /* \"#utility.yul\":9736:9742   */\n      dup3\n        /* \"#utility.yul\":9731:9734   */\n      dup3\n        /* \"#utility.yul\":9724:9743   */\n      mstore\n        /* \"#utility.yul\":9776:9780   */\n      0x20\n        /* \"#utility.yul\":9771:9774   */\n      dup3\n        /* \"#utility.yul\":9767:9781   */\n      add\n        /* \"#utility.yul\":9752:9781   */\n      swap1\n      pop\n        /* \"#utility.yul\":9618:9787   */\n      swap3\n      swap2\n      pop\n      pop\n      jump\t// out\n        /* \"#utility.yul\":9793:10040   */\n    tag_268:\n        /* \"#utility.yul\":9933:9967   */\n      0x50726f706f73616c2063616e206265206164646573206f6e6c7920696e205072\n        /* \"#utility.yul\":9929:9930   */\n      0x00\n        /* \"#utility.yul\":9921:9927   */\n      dup3\n        /* \"#utility.yul\":9917:9931   */\n      add\n        /* \"#utility.yul\":9910:9968   */\n      mstore\n        /* \"#utility.yul\":10002:10032   */\n      0x6f706f73616c20526567697374726174696f6e2070686173653a312e00000000\n        /* \"#utility.yul\":9997:9999   */\n      0x20\n        /* \"#utility.yul\":9989:9995   */\n      dup3\n        /* \"#utility.yul\":9985:10000   */\n      add\n        /* \"#utility.yul\":9978:10033   */\n      mstore\n        /* \"#utility.yul\":9793:10040   */\n      pop\n      jump\t// out\n        /* \"#utility.yul\":10046:10412   */\n    tag_269:\n        /* \"#utility.yul\":10188:10191   */\n      0x00\n        /* \"#utility.yul\":10209:10276   */\n      tag_416\n        /* \"#utility.yul\":10273:10275   */\n      0x3c\n        /* \"#utility.yul\":10268:10271   */\n      dup4\n        /* \"#utility.yul\":10209:10276   */\n      tag_267\n      jump\t// in\n    tag_416:\n        /* \"#utility.yul\":10202:10276   */\n      swap2\n      pop\n        /* \"#utility.yul\":10285:10378   */\n      tag_417\n        /* \"#utility.yul\":10374:10377   */\n      dup3\n        /* \"#utility.yul\":10285:10378   */\n      tag_268\n      jump\t// in\n    tag_417:\n        /* \"#utility.yul\":10403:10405   */\n      0x40\n        /* \"#utility.yul\":10398:10401   */\n      dup3\n        /* \"#utility.yul\":10394:10406   */\n      add\n        /* \"#utility.yul\":10387:10406   */\n      swap1\n      pop\n        /* \"#utility.yul\":10046:10412   */\n      swap2\n      swap1\n      pop\n      jump\t// out\n        /* \"#utility.yul\":10418:10837   */\n    tag_59:\n        /* \"#utility.yul\":10584:10588   */\n      0x00\n        /* \"#utility.yul\":10622:10624   */\n      0x20\n        /* \"#utility.yul\":10611:10620   */\n      dup3\n        /* \"#utility.yul\":10607:10625   */\n      add\n        /* \"#utility.yul\":10599:10625   */\n      swap1\n      pop\n        /* \"#utility.yul\":10671:10680   */\n      dup2\n        /* \"#utility.yul\":10665:10669   */\n      dup2\n        /* \"#utility.yul\":10661:10681   */\n      sub\n        /* \"#utility.yul\":10657:10658   */\n      0x00\n        /* \"#utility.yul\":10646:10655   */\n      dup4\n        /* \"#utility.yul\":10642:10659   */\n      add\n        /* \"#utility.yul\":10635:10682   */\n      mstore\n        /* \"#utility.yul\":10699:10830   */\n      tag_419\n        /* \"#utility.yul\":10825:10829   */\n      dup2\n        /* \"#utility.yul\":10699:10830   */\n      tag_269\n      jump\t// in\n    tag_419:\n        /* \"#utility.yul\":10691:10830   */\n      swap1\n      pop\n        /* \"#utility.yul\":10418:10837   */\n      swap2\n      swap1\n      pop\n      jump\t// out\n        /* \"#utility.yul\":10843:11073   */\n    tag_270:\n        /* \"#utility.yul\":10983:11017   */\n      0x57686974656c697374206d75737420636f6e7461696e206174206c6561737420\n        /* \"#utility.yul\":10979:10980   */\n      0x00\n        /* \"#utility.yul\":10971:10977   */\n      dup3\n        /* \"#utility.yul\":10967:10981   */\n      add\n        /* \"#utility.yul\":10960:11018   */\n      mstore\n        /* \"#utility.yul\":11052:11065   */\n      0x6f6e652061646472657373000000000000000000000000000000000000000000\n        /* \"#utility.yul\":11047:11049   */\n      0x20\n        /* \"#utility.yul\":11039:11045   */\n      dup3\n        /* \"#utility.yul\":11035:11050   */\n      add\n        /* \"#utility.yul\":11028:11066   */\n      mstore\n        /* \"#utility.yul\":10843:11073   */\n      pop\n      jump\t// out\n        /* \"#utility.yul\":11079:11445   */\n    tag_271:\n        /* \"#utility.yul\":11221:11224   */\n      0x00\n        /* \"#utility.yul\":11242:11309   */\n      tag_422\n        /* \"#utility.yul\":11306:11308   */\n      0x2b\n        /* \"#utility.yul\":11301:11304   */\n      dup4\n        /* \"#utility.yul\":11242:11309   */\n      tag_267\n      jump\t// in\n    tag_422:\n        /* \"#utility.yul\":11235:11309   */\n      swap2\n      pop\n        /* \"#utility.yul\":11318:11411   */\n      tag_423\n        /* \"#utility.yul\":11407:11410   */\n      dup3\n        /* \"#utility.yul\":11318:11411   */\n      tag_270\n      jump\t// in\n    tag_423:\n        /* \"#utility.yul\":11436:11438   */\n      0x40\n        /* \"#utility.yul\":11431:11434   */\n      dup3\n        /* \"#utility.yul\":11427:11439   */\n      add\n        /* \"#utility.yul\":11420:11439   */\n      swap1\n      pop\n        /* \"#utility.yul\":11079:11445   */\n      swap2\n      swap1\n      pop\n      jump\t// out\n        /* \"#utility.yul\":11451:11870   */\n    tag_62:\n        /* \"#utility.yul\":11617:11621   */\n      0x00\n        /* \"#utility.yul\":11655:11657   */\n      0x20\n        /* \"#utility.yul\":11644:11653   */\n      dup3\n        /* \"#utility.yul\":11640:11658   */\n      add\n        /* \"#utility.yul\":11632:11658   */\n      swap1\n      pop\n        /* \"#utility.yul\":11704:11713   */\n      dup2\n        /* \"#utility.yul\":11698:11702   */\n      dup2\n        /* \"#utility.yul\":11694:11714   */\n      sub\n        /* \"#utility.yul\":11690:11691   */\n      0x00\n        /* \"#utility.yul\":11679:11688   */\n      dup4\n        /* \"#utility.yul\":11675:11692   */\n      add\n        /* \"#utility.yul\":11668:11715   */\n      mstore\n        /* \"#utility.yul\":11732:11863   */\n      tag_425\n        /* \"#utility.yul\":11858:11862   */\n      dup2\n        /* \"#utility.yul\":11732:11863   */\n      tag_271\n      jump\t// in\n    tag_425:\n        /* \"#utility.yul\":11724:11863   */\n      swap1\n      pop\n        /* \"#utility.yul\":11451:11870   */\n      swap2\n      swap1\n      pop\n      jump\t// out\n        /* \"#utility.yul\":11876:12056   */\n    tag_272:\n        /* \"#utility.yul\":12016:12048   */\n      0x596f757220616472657373206973206e6f742077686974656c69737465640000\n        /* \"#utility.yul\":12012:12013   */\n      0x00\n        /* \"#utility.yul\":12004:12010   */\n      dup3\n        /* \"#utility.yul\":12000:12014   */\n      add\n        /* \"#utility.yul\":11993:12049   */\n      mstore\n        /* \"#utility.yul\":11876:12056   */\n      pop\n      jump\t// out\n        /* \"#utility.yul\":12062:12428   */\n    tag_273:\n        /* \"#utility.yul\":12204:12207   */\n      0x00\n        /* \"#utility.yul\":12225:12292   */\n      tag_428\n        /* \"#utility.yul\":12289:12291   */\n      0x1e\n        /* \"#utility.yul\":12284:12287   */\n      dup4\n        /* \"#utility.yul\":12225:12292   */\n      tag_267\n      jump\t// in\n    tag_428:\n        /* \"#utility.yul\":12218:12292   */\n      swap2\n      pop\n        /* \"#utility.yul\":12301:12394   */\n      tag_429\n        /* \"#utility.yul\":12390:12393   */\n      dup3\n        /* \"#utility.yul\":12301:12394   */\n      tag_272\n      jump\t// in\n    tag_429:\n        /* \"#utility.yul\":12419:12421   */\n      0x20\n        /* \"#utility.yul\":12414:12417   */\n      dup3\n        /* \"#utility.yul\":12410:12422   */\n      add\n        /* \"#utility.yul\":12403:12422   */\n      swap1\n      pop\n        /* \"#utility.yul\":12062:12428   */\n      swap2\n      swap1\n      pop\n      jump\t// out\n        /* \"#utility.yul\":12434:12853   */\n    tag_65:\n        /* \"#utility.yul\":12600:12604   */\n      0x00\n        /* \"#utility.yul\":12638:12640   */\n      0x20\n        /* \"#utility.yul\":12627:12636   */\n      dup3\n        /* \"#utility.yul\":12623:12641   */\n      add\n        /* \"#utility.yul\":12615:12641   */\n      swap1\n      pop\n        /* \"#utility.yul\":12687:12696   */\n      dup2\n        /* \"#utility.yul\":12681:12685   */\n      dup2\n        /* \"#utility.yul\":12677:12697   */\n      sub\n        /* \"#utility.yul\":12673:12674   */\n      0x00\n        /* \"#utility.yul\":12662:12671   */\n      dup4\n        /* \"#utility.yul\":12658:12675   */\n      add\n        /* \"#utility.yul\":12651:12698   */\n      mstore\n        /* \"#utility.yul\":12715:12846   */\n      tag_431\n        /* \"#utility.yul\":12841:12845   */\n      dup2\n        /* \"#utility.yul\":12715:12846   */\n      tag_273\n      jump\t// in\n    tag_431:\n        /* \"#utility.yul\":12707:12846   */\n      swap1\n      pop\n        /* \"#utility.yul\":12434:12853   */\n      swap2\n      swap1\n      pop\n      jump\t// out\n        /* \"#utility.yul\":12859:13039   */\n    tag_274:\n        /* \"#utility.yul\":12907:12984   */\n      0x4e487b7100000000000000000000000000000000000000000000000000000000\n        /* \"#utility.yul\":12904:12905   */\n      0x00\n        /* \"#utility.yul\":12897:12985   */\n      mstore\n        /* \"#utility.yul\":13004:13008   */\n      0x22\n        /* \"#utility.yul\":13001:13002   */\n      0x04\n        /* \"#utility.yul\":12994:13009   */\n      mstore\n        /* \"#utility.yul\":13028:13032   */\n      0x24\n        /* \"#utility.yul\":13025:13026   */\n      0x00\n        /* \"#utility.yul\":13018:13033   */\n      revert\n        /* \"#utility.yul\":13045:13365   */\n    tag_77:\n        /* \"#utility.yul\":13089:13095   */\n      0x00\n        /* \"#utility.yul\":13126:13127   */\n      0x02\n        /* \"#utility.yul\":13120:13124   */\n      dup3\n        /* \"#utility.yul\":13116:13128   */\n      div\n        /* \"#utility.yul\":13106:13128   */\n      swap1\n      pop\n        /* \"#utility.yul\":13173:13174   */\n      0x01\n        /* \"#utility.yul\":13167:13171   */\n      dup3\n        /* \"#utility.yul\":13163:13175   */\n      and\n        /* \"#utility.yul\":13194:13212   */\n      dup1\n        /* \"#utility.yul\":13184:13265   */\n      tag_434\n      jumpi\n        /* \"#utility.yul\":13250:13254   */\n      0x7f\n        /* \"#utility.yul\":13242:13248   */\n      dup3\n        /* \"#utility.yul\":13238:13255   */\n      and\n        /* \"#utility.yul\":13228:13255   */\n      swap2\n      pop\n        /* \"#utility.yul\":13184:13265   */\n    tag_434:\n        /* \"#utility.yul\":13312:13314   */\n      0x20\n        /* \"#utility.yul\":13304:13310   */\n      dup3\n        /* \"#utility.yul\":13301:13315   */\n      lt\n        /* \"#utility.yul\":13281:13299   */\n      dup2\n        /* \"#utility.yul\":13278:13316   */\n      sub\n        /* \"#utility.yul\":13275:13359   */\n      tag_435\n      jumpi\n        /* \"#utility.yul\":13331:13349   */\n      tag_436\n      tag_274\n      jump\t// in\n    tag_436:\n        /* \"#utility.yul\":13275:13359   */\n    tag_435:\n        /* \"#utility.yul\":13096:13365   */\n      pop\n        /* \"#utility.yul\":13045:13365   */\n      swap2\n      swap1\n      pop\n      jump\t// out\n        /* \"#utility.yul\":13371:13512   */\n    tag_275:\n        /* \"#utility.yul\":13420:13424   */\n      0x00\n        /* \"#utility.yul\":13443:13446   */\n      dup2\n        /* \"#utility.yul\":13435:13446   */\n      swap1\n      pop\n        /* \"#utility.yul\":13466:13469   */\n      dup2\n        /* \"#utility.yul\":13463:13464   */\n      0x00\n        /* \"#utility.yul\":13456:13470   */\n      mstore\n        /* \"#utility.yul\":13500:13504   */\n      0x20\n        /* \"#utility.yul\":13497:13498   */\n      0x00\n        /* \"#utility.yul\":13487:13505   */\n      keccak256\n        /* \"#utility.yul\":13479:13505   */\n      swap1\n      pop\n        /* \"#utility.yul\":13371:13512   */\n      swap2\n      swap1\n      pop\n      jump\t// out\n        /* \"#utility.yul\":13518:13611   */\n    tag_276:\n        /* \"#utility.yul\":13555:13561   */\n      0x00\n        /* \"#utility.yul\":13602:13604   */\n      0x20\n        /* \"#utility.yul\":13597:13599   */\n      0x1f\n        /* \"#utility.yul\":13590:13595   */\n      dup4\n        /* \"#utility.yul\":13586:13600   */\n      add\n        /* \"#utility.yul\":13582:13605   */\n      div\n        /* \"#utility.yul\":13572:13605   */\n      swap1\n      pop\n        /* \"#utility.yul\":13518:13611   */\n      swap2\n      swap1\n      pop\n      jump\t// out\n        /* \"#utility.yul\":13617:13724   */\n    tag_277:\n        /* \"#utility.yul\":13661:13669   */\n      0x00\n        /* \"#utility.yul\":13711:13716   */\n      dup3\n        /* \"#utility.yul\":13705:13709   */\n      dup3\n        /* \"#utility.yul\":13701:13717   */\n      shl\n        /* \"#utility.yul\":13680:13717   */\n      swap1\n      pop\n        /* \"#utility.yul\":13617:13724   */\n      swap3\n      swap2\n      pop\n      pop\n      jump\t// out\n        /* \"#utility.yul\":13730:14123   */\n    tag_278:\n        /* \"#utility.yul\":13799:13805   */\n      0x00\n        /* \"#utility.yul\":13849:13850   */\n      0x08\n        /* \"#utility.yul\":13837:13847   */\n      dup4\n        /* \"#utility.yul\":13833:13851   */\n      mul\n        /* \"#utility.yul\":13872:13969   */\n      tag_441\n        /* \"#utility.yul\":13902:13968   */\n      0xffffffffffffffffffffffffffffffffffffffffffffffffffffffffffffffff\n        /* \"#utility.yul\":13891:13900   */\n      dup3\n        /* \"#utility.yul\":13872:13969   */\n      tag_277\n      jump\t// in\n    tag_441:\n        /* \"#utility.yul\":13990:14029   */\n      tag_442\n        /* \"#utility.yul\":14020:14028   */\n      dup7\n        /* \"#utility.yul\":14009:14018   */\n      dup4\n        /* \"#utility.yul\":13990:14029   */\n      tag_277\n      jump\t// in\n    tag_442:\n        /* \"#utility.yul\":13978:14029   */\n      swap6\n      pop\n        /* \"#utility.yul\":14062:14066   */\n      dup1\n        /* \"#utility.yul\":14058:14067   */\n      not\n        /* \"#utility.yul\":14051:14056   */\n      dup5\n        /* \"#utility.yul\":14047:14068   */\n      and\n        /* \"#utility.yul\":14038:14068   */\n      swap4\n      pop\n        /* \"#utility.yul\":14111:14115   */\n      dup1\n        /* \"#utility.yul\":14101:14109   */\n      dup7\n        /* \"#utility.yul\":14097:14116   */\n      and\n        /* \"#utility.yul\":14090:14095   */\n      dup5\n        /* \"#utility.yul\":14087:14117   */\n      or\n        /* \"#utility.yul\":14077:14117   */\n      swap3\n      pop\n        /* \"#utility.yul\":13806:14123   */\n      pop\n      pop\n        /* \"#utility.yul\":13730:14123   */\n      swap4\n      swap3\n      pop\n      pop\n      pop\n      jump\t// out\n        /* \"#utility.yul\":14129:14189   */\n    tag_279:\n        /* \"#utility.yul\":14157:14160   */\n      0x00\n        /* \"#utility.yul\":14178:14183   */\n      dup2\n        /* \"#utility.yul\":14171:14183   */\n      swap1\n      pop\n        /* \"#utility.yul\":14129:14189   */\n      swap2\n      swap1\n      pop\n      jump\t// out\n        /* \"#utility.yul\":14195:14337   */\n    tag_280:\n        /* \"#utility.yul\":14245:14254   */\n      0x00\n        /* \"#utility.yul\":14278:14331   */\n      tag_445\n        /* \"#utility.yul\":14296:14330   */\n      tag_446\n        /* \"#utility.yul\":14305:14329   */\n      tag_447\n        /* \"#utility.yul\":14323:14328   */\n      dup5\n        /* \"#utility.yul\":14305:14329   */\n      tag_253\n      jump\t// in\n    tag_447:\n        /* \"#utility.yul\":14296:14330   */\n      tag_279\n      jump\t// in\n    tag_446:\n        /* \"#utility.yul\":14278:14331   */\n      tag_253\n      jump\t// in\n    tag_445:\n        /* \"#utility.yul\":14265:14331   */\n      swap1\n      pop\n        /* \"#utility.yul\":14195:14337   */\n      swap2\n      swap1\n      pop\n      jump\t// out\n        /* \"#utility.yul\":14343:14418   */\n    tag_281:\n        /* \"#utility.yul\":14386:14389   */\n      0x00\n        /* \"#utility.yul\":14407:14412   */\n      dup2\n        /* \"#utility.yul\":14400:14412   */\n      swap1\n      pop\n        /* \"#utility.yul\":14343:14418   */\n      swap2\n      swap1\n      pop\n      jump\t// out\n        /* \"#utility.yul\":14424:14693   */\n    tag_282:\n        /* \"#utility.yul\":14534:14573   */\n      tag_450\n        /* \"#utility.yul\":14565:14572   */\n      dup4\n        /* \"#utility.yul\":14534:14573   */\n      tag_280\n      jump\t// in\n    tag_450:\n        /* \"#utility.yul\":14595:14686   */\n      tag_451\n        /* \"#utility.yul\":14644:14685   */\n      tag_452\n        /* \"#utility.yul\":14668:14684   */\n      dup3\n        /* \"#utility.yul\":14644:14685   */\n      tag_281\n      jump\t// in\n    tag_452:\n        /* \"#utility.yul\":14636:14642   */\n      dup5\n        /* \"#utility.yul\":14629:14633   */\n      dup5\n        /* \"#utility.yul\":14623:14634   */\n      sload\n        /* \"#utility.yul\":14595:14686   */\n      tag_278\n      jump\t// in\n    tag_451:\n        /* \"#utility.yul\":14589:14593   */\n      dup3\n        /* \"#utility.yul\":14582:14687   */\n      sstore\n        /* \"#utility.yul\":14500:14693   */\n      pop\n        /* \"#utility.yul\":14424:14693   */\n      pop\n      pop\n      pop\n      jump\t// out\n        /* \"#utility.yul\":14699:14772   */\n    tag_283:\n        /* \"#utility.yul\":14744:14747   */\n      0x00\n        /* \"#utility.yul\":14765:14766   */\n      0x00\n        /* \"#utility.yul\":14758:14766   */\n      swap1\n      pop\n        /* \"#utility.yul\":14699:14772   */\n      swap1\n      jump\t// out\n        /* \"#utility.yul\":14778:14967   */\n    tag_284:\n        /* \"#utility.yul\":14855:14887   */\n      tag_455\n      tag_283\n      jump\t// in\n    tag_455:\n        /* \"#utility.yul\":14896:14961   */\n      tag_456\n        /* \"#utility.yul\":14954:14960   */\n      dup2\n        /* \"#utility.yul\":14946:14952   */\n      dup5\n        /* \"#utility.yul\":14940:14944   */\n      dup5\n        /* \"#utility.yul\":14896:14961   */\n      tag_282\n      jump\t// in\n    tag_456:\n        /* \"#utility.yul\":14831:14967   */\n      pop\n        /* \"#utility.yul\":14778:14967   */\n      pop\n      pop\n      jump\t// out\n        /* \"#utility.yul\":14973:15159   */\n    tag_285:\n        /* \"#utility.yul\":15033:15153   */\n    tag_458:\n        /* \"#utility.yul\":15050:15053   */\n      dup2\n        /* \"#utility.yul\":15043:15048   */\n      dup2\n        /* \"#utility.yul\":15040:15054   */\n      lt\n        /* \"#utility.yul\":15033:15153   */\n      iszero\n      tag_460\n      jumpi\n        /* \"#utility.yul\":15104:15143   */\n      tag_461\n        /* \"#utility.yul\":15141:15142   */\n      0x00\n        /* \"#utility.yul\":15134:15139   */\n      dup3\n        /* \"#utility.yul\":15104:15143   */\n      tag_284\n      jump\t// in\n    tag_461:\n        /* \"#utility.yul\":15077:15078   */\n      0x01\n        /* \"#utility.yul\":15070:15075   */\n      dup2\n        /* \"#utility.yul\":15066:15079   */\n      add\n        /* \"#utility.yul\":15057:15079   */\n      swap1\n      pop\n        /* \"#utility.yul\":15033:15153   */\n      jump(tag_458)\n    tag_460:\n        /* \"#utility.yul\":14973:15159   */\n      pop\n      pop\n      jump\t// out\n        /* \"#utility.yul\":15165:15708   */\n    tag_286:\n        /* \"#utility.yul\":15266:15268   */\n      0x1f\n        /* \"#utility.yul\":15261:15264   */\n      dup3\n        /* \"#utility.yul\":15258:15269   */\n      gt\n        /* \"#utility.yul\":15255:15701   */\n      iszero\n      tag_463\n      jumpi\n        /* \"#utility.yul\":15300:15338   */\n      tag_464\n        /* \"#utility.yul\":15332:15337   */\n      dup2\n        /* \"#utility.yul\":15300:15338   */\n      tag_275\n      jump\t// in\n    tag_464:\n        /* \"#utility.yul\":15384:15413   */\n      tag_465\n        /* \"#utility.yul\":15402:15412   */\n      dup5\n        /* \"#utility.yul\":15384:15413   */\n      tag_276\n      jump\t// in\n    tag_465:\n        /* \"#utility.yul\":15374:15382   */\n      dup2\n        /* \"#utility.yul\":15370:15414   */\n      add\n        /* \"#utility.yul\":15567:15569   */\n      0x20\n        /* \"#utility.yul\":15555:15565   */\n      dup6\n        /* \"#utility.yul\":15552:15570   */\n      lt\n        /* \"#utility.yul\":15549:15598   */\n      iszero\n      tag_466\n      jumpi\n        /* \"#utility.yul\":15588:15596   */\n      dup2\n        /* \"#utility.yul\":15573:15596   */\n      swap1\n      pop\n        /* \"#utility.yul\":15549:15598   */\n    tag_466:\n        /* \"#utility.yul\":15611:15691   */\n      tag_467\n        /* \"#utility.yul\":15667:15689   */\n      tag_468\n        /* \"#utility.yul\":15685:15688   */\n      dup6\n        /* \"#utility.yul\":15667:15689   */\n      tag_276\n      jump\t// in\n    tag_468:\n        /* \"#utility.yul\":15657:15665   */\n      dup4\n        /* \"#utility.yul\":15653:15690   */\n      add\n        /* \"#utility.yul\":15640:15651   */\n      dup3\n        /* \"#utility.yul\":15611:15691   */\n      tag_285\n      jump\t// in\n    tag_467:\n        /* \"#utility.yul\":15270:15701   */\n      pop\n      pop\n        /* \"#utility.yul\":15255:15701   */\n    tag_463:\n        /* \"#utility.yul\":15165:15708   */\n      pop\n      pop\n      pop\n      jump\t// out\n        /* \"#utility.yul\":15714:15831   */\n    tag_287:\n        /* \"#utility.yul\":15768:15776   */\n      0x00\n        /* \"#utility.yul\":15818:15823   */\n      dup3\n        /* \"#utility.yul\":15812:15816   */\n      dup3\n        /* \"#utility.yul\":15808:15824   */\n      shr\n        /* \"#utility.yul\":15787:15824   */\n      swap1\n      pop\n        /* \"#utility.yul\":15714:15831   */\n      swap3\n      swap2\n      pop\n      pop\n      jump\t// out\n        /* \"#utility.yul\":15837:16006   */\n    tag_288:\n        /* \"#utility.yul\":15881:15887   */\n      0x00\n        /* \"#utility.yul\":15914:15965   */\n      tag_471\n        /* \"#utility.yul\":15962:15963   */\n      0x00\n        /* \"#utility.yul\":15958:15964   */\n      not\n        /* \"#utility.yul\":15950:15955   */\n      dup5\n        /* \"#utility.yul\":15947:15948   */\n      0x08\n        /* \"#utility.yul\":15943:15956   */\n      mul\n        /* \"#utility.yul\":15914:15965   */\n      tag_287\n      jump\t// in\n    tag_471:\n        /* \"#utility.yul\":15910:15966   */\n      not\n        /* \"#utility.yul\":15995:15999   */\n      dup1\n        /* \"#utility.yul\":15989:15993   */\n      dup4\n        /* \"#utility.yul\":15985:16000   */\n      and\n        /* \"#utility.yul\":15975:16000   */\n      swap2\n      pop\n        /* \"#utility.yul\":15888:16006   */\n      pop\n        /* \"#utility.yul\":15837:16006   */\n      swap3\n      swap2\n      pop\n      pop\n      jump\t// out\n        /* \"#utility.yul\":16011:16306   */\n    tag_289:\n        /* \"#utility.yul\":16087:16091   */\n      0x00\n        /* \"#utility.yul\":16233:16262   */\n      tag_473\n        /* \"#utility.yul\":16258:16261   */\n      dup4\n        /* \"#utility.yul\":16252:16256   */\n      dup4\n        /* \"#utility.yul\":16233:16262   */\n      tag_288\n      jump\t// in\n    tag_473:\n        /* \"#utility.yul\":16225:16262   */\n      swap2\n      pop\n        /* \"#utility.yul\":16295:16298   */\n      dup3\n        /* \"#utility.yul\":16292:16293   */\n      0x02\n        /* \"#utility.yul\":16288:16299   */\n      mul\n        /* \"#utility.yul\":16282:16286   */\n      dup3\n        /* \"#utility.yul\":16279:16300   */\n      or\n        /* \"#utility.yul\":16271:16300   */\n      swap1\n      pop\n        /* \"#utility.yul\":16011:16306   */\n      swap3\n      swap2\n      pop\n      pop\n      jump\t// out\n        /* \"#utility.yul\":16311:17706   */\n    tag_68:\n        /* \"#utility.yul\":16428:16465   */\n      tag_475\n        /* \"#utility.yul\":16461:16464   */\n      dup3\n        /* \"#utility.yul\":16428:16465   */\n      tag_249\n      jump\t// in\n    tag_475:\n        /* \"#utility.yul\":16530:16548   */\n      0xffffffffffffffff\n        /* \"#utility.yul\":16522:16528   */\n      dup2\n        /* \"#utility.yul\":16519:16549   */\n      gt\n        /* \"#utility.yul\":16516:16572   */\n      iszero\n      tag_476\n      jumpi\n        /* \"#utility.yul\":16552:16570   */\n      tag_477\n      tag_239\n      jump\t// in\n    tag_477:\n        /* \"#utility.yul\":16516:16572   */\n    tag_476:\n        /* \"#utility.yul\":16596:16634   */\n      tag_478\n        /* \"#utility.yul\":16628:16632   */\n      dup3\n        /* \"#utility.yul\":16622:16633   */\n      sload\n        /* \"#utility.yul\":16596:16634   */\n      tag_77\n      jump\t// in\n    tag_478:\n        /* \"#utility.yul\":16681:16748   */\n      tag_479\n        /* \"#utility.yul\":16741:16747   */\n      dup3\n        /* \"#utility.yul\":16733:16739   */\n      dup3\n        /* \"#utility.yul\":16727:16731   */\n      dup6\n        /* \"#utility.yul\":16681:16748   */\n      tag_286\n      jump\t// in\n    tag_479:\n        /* \"#utility.yul\":16775:16776   */\n      0x00\n        /* \"#utility.yul\":16799:16803   */\n      0x20\n        /* \"#utility.yul\":16786:16803   */\n      swap1\n      pop\n        /* \"#utility.yul\":16831:16833   */\n      0x1f\n        /* \"#utility.yul\":16823:16829   */\n      dup4\n        /* \"#utility.yul\":16820:16834   */\n      gt\n        /* \"#utility.yul\":16848:16849   */\n      0x01\n        /* \"#utility.yul\":16843:17461   */\n      dup2\n      eq\n      tag_481\n      jumpi\n        /* \"#utility.yul\":17505:17506   */\n      0x00\n        /* \"#utility.yul\":17522:17528   */\n      dup5\n        /* \"#utility.yul\":17519:17596   */\n      iszero\n      tag_482\n      jumpi\n        /* \"#utility.yul\":17571:17580   */\n      dup3\n        /* \"#utility.yul\":17566:17569   */\n      dup8\n        /* \"#utility.yul\":17562:17581   */\n      add\n        /* \"#utility.yul\":17556:17582   */\n      mload\n        /* \"#utility.yul\":17547:17582   */\n      swap1\n      pop\n        /* \"#utility.yul\":17519:17596   */\n    tag_482:\n        /* \"#utility.yul\":17622:17689   */\n      tag_483\n        /* \"#utility.yul\":17682:17688   */\n      dup6\n        /* \"#utility.yul\":17675:17680   */\n      dup3\n        /* \"#utility.yul\":17622:17689   */\n      tag_289\n      jump\t// in\n    tag_483:\n        /* \"#utility.yul\":17616:17620   */\n      dup7\n        /* \"#utility.yul\":17609:17690   */\n      sstore\n        /* \"#utility.yul\":17478:17700   */\n      pop\n        /* \"#utility.yul\":16813:17700   */\n      jump(tag_480)\n        /* \"#utility.yul\":16843:17461   */\n    tag_481:\n        /* \"#utility.yul\":16895:16899   */\n      0x1f\n        /* \"#utility.yul\":16891:16900   */\n      not\n        /* \"#utility.yul\":16883:16889   */\n      dup5\n        /* \"#utility.yul\":16879:16901   */\n      and\n        /* \"#utility.yul\":16929:16966   */\n      tag_484\n        /* \"#utility.yul\":16961:16965   */\n      dup7\n        /* \"#utility.yul\":16929:16966   */\n      tag_275\n      jump\t// in\n    tag_484:\n        /* \"#utility.yul\":16988:16989   */\n      0x00\n        /* \"#utility.yul\":17002:17210   */\n    tag_485:\n        /* \"#utility.yul\":17016:17023   */\n      dup3\n        /* \"#utility.yul\":17013:17014   */\n      dup2\n        /* \"#utility.yul\":17010:17024   */\n      lt\n        /* \"#utility.yul\":17002:17210   */\n      iszero\n      tag_487\n      jumpi\n        /* \"#utility.yul\":17095:17104   */\n      dup5\n        /* \"#utility.yul\":17090:17093   */\n      dup10\n        /* \"#utility.yul\":17086:17105   */\n      add\n        /* \"#utility.yul\":17080:17106   */\n      mload\n        /* \"#utility.yul\":17072:17078   */\n      dup3\n        /* \"#utility.yul\":17065:17107   */\n      sstore\n        /* \"#utility.yul\":17146:17147   */\n      0x01\n        /* \"#utility.yul\":17138:17144   */\n      dup3\n        /* \"#utility.yul\":17134:17148   */\n      add\n        /* \"#utility.yul\":17124:17148   */\n      swap2\n      pop\n        /* \"#utility.yul\":17193:17195   */\n      0x20\n        /* \"#utility.yul\":17182:17191   */\n      dup6\n        /* \"#utility.yul\":17178:17196   */\n      add\n        /* \"#utility.yul\":17165:17196   */\n      swap5\n      pop\n        /* \"#utility.yul\":17039:17043   */\n      0x20\n        /* \"#utility.yul\":17036:17037   */\n      dup2\n        /* \"#utility.yul\":17032:17044   */\n      add\n        /* \"#utility.yul\":17027:17044   */\n      swap1\n      pop\n        /* \"#utility.yul\":17002:17210   */\n      jump(tag_485)\n    tag_487:\n        /* \"#utility.yul\":17238:17244   */\n      dup7\n        /* \"#utility.yul\":17229:17236   */\n      dup4\n        /* \"#utility.yul\":17226:17245   */\n      lt\n        /* \"#utility.yul\":17223:17402   */\n      iszero\n      tag_488\n      jumpi\n        /* \"#utility.yul\":17296:17305   */\n      dup5\n        /* \"#utility.yul\":17291:17294   */\n      dup10\n        /* \"#utility.yul\":17287:17306   */\n      add\n        /* \"#utility.yul\":17281:17307   */\n      mload\n        /* \"#utility.yul\":17339:17387   */\n      tag_489\n        /* \"#utility.yul\":17381:17385   */\n      0x1f\n        /* \"#utility.yul\":17373:17379   */\n      dup10\n        /* \"#utility.yul\":17369:17386   */\n      and\n        /* \"#utility.yul\":17358:17367   */\n      dup3\n        /* \"#utility.yul\":17339:17387   */\n      tag_288\n      jump\t// in\n    tag_489:\n        /* \"#utility.yul\":17331:17337   */\n      dup4\n        /* \"#utility.yul\":17324:17388   */\n      sstore\n        /* \"#utility.yul\":17246:17402   */\n      pop\n        /* \"#utility.yul\":17223:17402   */\n    tag_488:\n        /* \"#utility.yul\":17448:17449   */\n      0x01\n        /* \"#utility.yul\":17444:17445   */\n      0x02\n        /* \"#utility.yul\":17436:17442   */\n      dup9\n        /* \"#utility.yul\":17432:17446   */\n      mul\n        /* \"#utility.yul\":17428:17450   */\n      add\n        /* \"#utility.yul\":17422:17426   */\n      dup9\n        /* \"#utility.yul\":17415:17451   */\n      sstore\n        /* \"#utility.yul\":16850:17461   */\n      pop\n      pop\n      pop\n        /* \"#utility.yul\":16813:17700   */\n    tag_480:\n      pop\n        /* \"#utility.yul\":16403:17706   */\n      pop\n      pop\n      pop\n        /* \"#utility.yul\":16311:17706   */\n      pop\n      pop\n      jump\t// out\n        /* \"#utility.yul\":17712:17892   */\n    tag_290:\n        /* \"#utility.yul\":17760:17837   */\n      0x4e487b7100000000000000000000000000000000000000000000000000000000\n        /* \"#utility.yul\":17757:17758   */\n      0x00\n        /* \"#utility.yul\":17750:17838   */\n      mstore\n        /* \"#utility.yul\":17857:17861   */\n      0x11\n        /* \"#utility.yul\":17854:17855   */\n      0x04\n        /* \"#utility.yul\":17847:17862   */\n      mstore\n        /* \"#utility.yul\":17881:17885   */\n      0x24\n        /* \"#utility.yul\":17878:17879   */\n      0x00\n        /* \"#utility.yul\":17871:17886   */\n      revert\n        /* \"#utility.yul\":17898:18092   */\n    tag_70:\n        /* \"#utility.yul\":17938:17942   */\n      0x00\n        /* \"#utility.yul\":17958:17978   */\n      tag_492\n        /* \"#utility.yul\":17976:17977   */\n      dup3\n        /* \"#utility.yul\":17958:17978   */\n      tag_253\n      jump\t// in\n    tag_492:\n        /* \"#utility.yul\":17953:17978   */\n      swap2\n      pop\n        /* \"#utility.yul\":17992:18012   */\n      tag_493\n        /* \"#utility.yul\":18010:18011   */\n      dup4\n        /* \"#utility.yul\":17992:18012   */\n      tag_253\n      jump\t// in\n    tag_493:\n        /* \"#utility.yul\":17987:18012   */\n      swap3\n      pop\n        /* \"#utility.yul\":18036:18037   */\n      dup3\n        /* \"#utility.yul\":18033:18034   */\n      dup3\n        /* \"#utility.yul\":18029:18038   */\n      sub\n        /* \"#utility.yul\":18021:18038   */\n      swap1\n      pop\n        /* \"#utility.yul\":18060:18061   */\n      dup2\n        /* \"#utility.yul\":18054:18058   */\n      dup2\n        /* \"#utility.yul\":18051:18062   */\n      gt\n        /* \"#utility.yul\":18048:18085   */\n      iszero\n      tag_494\n      jumpi\n        /* \"#utility.yul\":18065:18083   */\n      tag_495\n      tag_290\n      jump\t// in\n    tag_495:\n        /* \"#utility.yul\":18048:18085   */\n    tag_494:\n        /* \"#utility.yul\":17898:18092   */\n      swap3\n      swap2\n      pop\n      pop\n      jump\t// out\n        /* \"#utility.yul\":18098:18289   */\n    tag_97:\n        /* \"#utility.yul\":18138:18141   */\n      0x00\n        /* \"#utility.yul\":18157:18177   */\n      tag_497\n        /* \"#utility.yul\":18175:18176   */\n      dup3\n        /* \"#utility.yul\":18157:18177   */\n      tag_253\n      jump\t// in\n    tag_497:\n        /* \"#utility.yul\":18152:18177   */\n      swap2\n      pop\n        /* \"#utility.yul\":18191:18211   */\n      tag_498\n        /* \"#utility.yul\":18209:18210   */\n      dup4\n        /* \"#utility.yul\":18191:18211   */\n      tag_253\n      jump\t// in\n    tag_498:\n        /* \"#utility.yul\":18186:18211   */\n      swap3\n      pop\n        /* \"#utility.yul\":18234:18235   */\n      dup3\n        /* \"#utility.yul\":18231:18232   */\n      dup3\n        /* \"#utility.yul\":18227:18236   */\n      add\n        /* \"#utility.yul\":18220:18236   */\n      swap1\n      pop\n        /* \"#utility.yul\":18255:18258   */\n      dup1\n        /* \"#utility.yul\":18252:18253   */\n      dup3\n        /* \"#utility.yul\":18249:18259   */\n      gt\n        /* \"#utility.yul\":18246:18282   */\n      iszero\n      tag_499\n      jumpi\n        /* \"#utility.yul\":18262:18280   */\n      tag_500\n      tag_290\n      jump\t// in\n    tag_500:\n        /* \"#utility.yul\":18246:18282   */\n    tag_499:\n        /* \"#utility.yul\":18098:18289   */\n      swap3\n      swap2\n      pop\n      pop\n      jump\t// out\n        /* \"#utility.yul\":18295:18417   */\n    tag_291:\n        /* \"#utility.yul\":18385:18386   */\n      0x06\n        /* \"#utility.yul\":18378:18383   */\n      dup2\n        /* \"#utility.yul\":18375:18387   */\n      lt\n        /* \"#utility.yul\":18365:18411   */\n      tag_502\n      jumpi\n        /* \"#utility.yul\":18391:18409   */\n      tag_503\n      tag_54\n      jump\t// in\n    tag_503:\n        /* \"#utility.yul\":18365:18411   */\n    tag_502:\n        /* \"#utility.yul\":18295:18417   */\n      pop\n      jump\t// out\n        /* \"#utility.yul\":18423:18568   */\n    tag_292:\n        /* \"#utility.yul\":18477:18484   */\n      0x00\n        /* \"#utility.yul\":18506:18511   */\n      dup2\n        /* \"#utility.yul\":18495:18511   */\n      swap1\n      pop\n        /* \"#utility.yul\":18512:18562   */\n      tag_505\n        /* \"#utility.yul\":18556:18561   */\n      dup3\n        /* \"#utility.yul\":18512:18562   */\n      tag_291\n      jump\t// in\n    tag_505:\n        /* \"#utility.yul\":18423:18568   */\n      swap2\n      swap1\n      pop\n      jump\t// out\n        /* \"#utility.yul\":18574:18719   */\n    tag_293:\n        /* \"#utility.yul\":18639:18648   */\n      0x00\n        /* \"#utility.yul\":18672:18713   */\n      tag_507\n        /* \"#utility.yul\":18707:18712   */\n      dup3\n        /* \"#utility.yul\":18672:18713   */\n      tag_292\n      jump\t// in\n    tag_507:\n        /* \"#utility.yul\":18659:18713   */\n      swap1\n      pop\n        /* \"#utility.yul\":18574:18719   */\n      swap2\n      swap1\n      pop\n      jump\t// out\n        /* \"#utility.yul\":18725:18886   */\n    tag_294:\n        /* \"#utility.yul\":18827:18879   */\n      tag_509\n        /* \"#utility.yul\":18873:18878   */\n      dup2\n        /* \"#utility.yul\":18827:18879   */\n      tag_293\n      jump\t// in\n    tag_509:\n        /* \"#utility.yul\":18822:18825   */\n      dup3\n        /* \"#utility.yul\":18815:18880   */\n      mstore\n        /* \"#utility.yul\":18725:18886   */\n      pop\n      pop\n      jump\t// out\n        /* \"#utility.yul\":18892:19284   */\n    tag_103:\n        /* \"#utility.yul\":19043:19047   */\n      0x00\n        /* \"#utility.yul\":19081:19083   */\n      0x40\n        /* \"#utility.yul\":19070:19079   */\n      dup3\n        /* \"#utility.yul\":19066:19084   */\n      add\n        /* \"#utility.yul\":19058:19084   */\n      swap1\n      pop\n        /* \"#utility.yul\":19094:19180   */\n      tag_511\n        /* \"#utility.yul\":19177:19178   */\n      0x00\n        /* \"#utility.yul\":19166:19175   */\n      dup4\n        /* \"#utility.yul\":19162:19179   */\n      add\n        /* \"#utility.yul\":19153:19159   */\n      dup6\n        /* \"#utility.yul\":19094:19180   */\n      tag_294\n      jump\t// in\n    tag_511:\n        /* \"#utility.yul\":19190:19277   */\n      tag_512\n        /* \"#utility.yul\":19273:19275   */\n      0x20\n        /* \"#utility.yul\":19262:19271   */\n      dup4\n        /* \"#utility.yul\":19258:19276   */\n      add\n        /* \"#utility.yul\":19249:19255   */\n      dup5\n        /* \"#utility.yul\":19190:19277   */\n      tag_294\n      jump\t// in\n    tag_512:\n        /* \"#utility.yul\":18892:19284   */\n      swap4\n      swap3\n      pop\n      pop\n      pop\n      jump\t// out\n        /* \"#utility.yul\":19290:19527   */\n    tag_295:\n        /* \"#utility.yul\":19430:19464   */\n      0x416464726573732063616e206265206164646564206f6e6c7920696e20526567\n        /* \"#utility.yul\":19426:19427   */\n      0x00\n        /* \"#utility.yul\":19418:19424   */\n      dup3\n        /* \"#utility.yul\":19414:19428   */\n      add\n        /* \"#utility.yul\":19407:19465   */\n      mstore\n        /* \"#utility.yul\":19499:19519   */\n      0x697374726174696f6e2070686173653a302e0000000000000000000000000000\n        /* \"#utility.yul\":19494:19496   */\n      0x20\n        /* \"#utility.yul\":19486:19492   */\n      dup3\n        /* \"#utility.yul\":19482:19497   */\n      add\n        /* \"#utility.yul\":19475:19520   */\n      mstore\n        /* \"#utility.yul\":19290:19527   */\n      pop\n      jump\t// out\n        /* \"#utility.yul\":19533:19899   */\n    tag_296:\n        /* \"#utility.yul\":19675:19678   */\n      0x00\n        /* \"#utility.yul\":19696:19763   */\n      tag_515\n        /* \"#utility.yul\":19760:19762   */\n      0x32\n        /* \"#utility.yul\":19755:19758   */\n      dup4\n        /* \"#utility.yul\":19696:19763   */\n      tag_267\n      jump\t// in\n    tag_515:\n        /* \"#utility.yul\":19689:19763   */\n      swap2\n      pop\n        /* \"#utility.yul\":19772:19865   */\n      tag_516\n        /* \"#utility.yul\":19861:19864   */\n      dup3\n        /* \"#utility.yul\":19772:19865   */\n      tag_295\n      jump\t// in\n    tag_516:\n        /* \"#utility.yul\":19890:19892   */\n      0x40\n        /* \"#utility.yul\":19885:19888   */\n      dup3\n        /* \"#utility.yul\":19881:19893   */\n      add\n        /* \"#utility.yul\":19874:19893   */\n      swap1\n      pop\n        /* \"#utility.yul\":19533:19899   */\n      swap2\n      swap1\n      pop\n      jump\t// out\n        /* \"#utility.yul\":19905:20324   */\n    tag_118:\n        /* \"#utility.yul\":20071:20075   */\n      0x00\n        /* \"#utility.yul\":20109:20111   */\n      0x20\n        /* \"#utility.yul\":20098:20107   */\n      dup3\n        /* \"#utility.yul\":20094:20112   */\n      add\n        /* \"#utility.yul\":20086:20112   */\n      swap1\n      pop\n        /* \"#utility.yul\":20158:20167   */\n      dup2\n        /* \"#utility.yul\":20152:20156   */\n      dup2\n        /* \"#utility.yul\":20148:20168   */\n      sub\n        /* \"#utility.yul\":20144:20145   */\n      0x00\n        /* \"#utility.yul\":20133:20142   */\n      dup4\n        /* \"#utility.yul\":20129:20146   */\n      add\n        /* \"#utility.yul\":20122:20169   */\n      mstore\n        /* \"#utility.yul\":20186:20317   */\n      tag_518\n        /* \"#utility.yul\":20312:20316   */\n      dup2\n        /* \"#utility.yul\":20186:20317   */\n      tag_296\n      jump\t// in\n    tag_518:\n        /* \"#utility.yul\":20178:20317   */\n      swap1\n      pop\n        /* \"#utility.yul\":19905:20324   */\n      swap2\n      swap1\n      pop\n      jump\t// out\n        /* \"#utility.yul\":20330:20506   */\n    tag_297:\n        /* \"#utility.yul\":20470:20498   */\n      0x4164647265737320616c72656164792072656769737465726564000000000000\n        /* \"#utility.yul\":20466:20467   */\n      0x00\n        /* \"#utility.yul\":20458:20464   */\n      dup3\n        /* \"#utility.yul\":20454:20468   */\n      add\n        /* \"#utility.yul\":20447:20499   */\n      mstore\n        /* \"#utility.yul\":20330:20506   */\n      pop\n      jump\t// out\n        /* \"#utility.yul\":20512:20878   */\n    tag_298:\n        /* \"#utility.yul\":20654:20657   */\n      0x00\n        /* \"#utility.yul\":20675:20742   */\n      tag_521\n        /* \"#utility.yul\":20739:20741   */\n      0x1a\n        /* \"#utility.yul\":20734:20737   */\n      dup4\n        /* \"#utility.yul\":20675:20742   */\n      tag_267\n      jump\t// in\n    tag_521:\n        /* \"#utility.yul\":20668:20742   */\n      swap2\n      pop\n        /* \"#utility.yul\":20751:20844   */\n      tag_522\n        /* \"#utility.yul\":20840:20843   */\n      dup3\n        /* \"#utility.yul\":20751:20844   */\n      tag_297\n      jump\t// in\n    tag_522:\n        /* \"#utility.yul\":20869:20871   */\n      0x20\n        /* \"#utility.yul\":20864:20867   */\n      dup3\n        /* \"#utility.yul\":20860:20872   */\n      add\n        /* \"#utility.yul\":20853:20872   */\n      swap1\n      pop\n        /* \"#utility.yul\":20512:20878   */\n      swap2\n      swap1\n      pop\n      jump\t// out\n        /* \"#utility.yul\":20884:21303   */\n    tag_121:\n        /* \"#utility.yul\":21050:21054   */\n      0x00\n        /* \"#utility.yul\":21088:21090   */\n      0x20\n        /* \"#utility.yul\":21077:21086   */\n      dup3\n        /* \"#utility.yul\":21073:21091   */\n      add\n        /* \"#utility.yul\":21065:21091   */\n      swap1\n      pop\n        /* \"#utility.yul\":21137:21146   */\n      dup2\n        /* \"#utility.yul\":21131:21135   */\n      dup2\n        /* \"#utility.yul\":21127:21147   */\n      sub\n        /* \"#utility.yul\":21123:21124   */\n      0x00\n        /* \"#utility.yul\":21112:21121   */\n      dup4\n        /* \"#utility.yul\":21108:21125   */\n      add\n        /* \"#utility.yul\":21101:21148   */\n      mstore\n        /* \"#utility.yul\":21165:21296   */\n      tag_524\n        /* \"#utility.yul\":21291:21295   */\n      dup2\n        /* \"#utility.yul\":21165:21296   */\n      tag_298\n      jump\t// in\n    tag_524:\n        /* \"#utility.yul\":21157:21296   */\n      swap1\n      pop\n        /* \"#utility.yul\":20884:21303   */\n      swap2\n      swap1\n      pop\n      jump\t// out\n        /* \"#utility.yul\":21309:21542   */\n    tag_123:\n        /* \"#utility.yul\":21348:21351   */\n      0x00\n        /* \"#utility.yul\":21371:21395   */\n      tag_526\n        /* \"#utility.yul\":21389:21394   */\n      dup3\n        /* \"#utility.yul\":21371:21395   */\n      tag_253\n      jump\t// in\n    tag_526:\n        /* \"#utility.yul\":21362:21395   */\n      swap2\n      pop\n        /* \"#utility.yul\":21417:21483   */\n      0xffffffffffffffffffffffffffffffffffffffffffffffffffffffffffffffff\n        /* \"#utility.yul\":21410:21415   */\n      dup3\n        /* \"#utility.yul\":21407:21484   */\n      sub\n        /* \"#utility.yul\":21404:21507   */\n      tag_527\n      jumpi\n        /* \"#utility.yul\":21487:21505   */\n      tag_528\n      tag_290\n      jump\t// in\n    tag_528:\n        /* \"#utility.yul\":21404:21507   */\n    tag_527:\n        /* \"#utility.yul\":21534:21535   */\n      0x01\n        /* \"#utility.yul\":21527:21532   */\n      dup3\n        /* \"#utility.yul\":21523:21536   */\n      add\n        /* \"#utility.yul\":21516:21536   */\n      swap1\n      pop\n        /* \"#utility.yul\":21309:21542   */\n      swap2\n      swap1\n      pop\n      jump\t// out\n        /* \"#utility.yul\":21548:21795   */\n    tag_299:\n        /* \"#utility.yul\":21688:21722   */\n      0x566f746573206d757374206265207461696c6564206265666f726520616e6e6f\n        /* \"#utility.yul\":21684:21685   */\n      0x00\n        /* \"#utility.yul\":21676:21682   */\n      dup3\n        /* \"#utility.yul\":21672:21686   */\n      add\n        /* \"#utility.yul\":21665:21723   */\n      mstore\n        /* \"#utility.yul\":21757:21787   */\n      0x6e63696e67207468652077696e6e657220696e20506861736520352e00000000\n        /* \"#utility.yul\":21752:21754   */\n      0x20\n        /* \"#utility.yul\":21744:21750   */\n      dup3\n        /* \"#utility.yul\":21740:21755   */\n      add\n        /* \"#utility.yul\":21733:21788   */\n      mstore\n        /* \"#utility.yul\":21548:21795   */\n      pop\n      jump\t// out\n        /* \"#utility.yul\":21801:22167   */\n    tag_300:\n        /* \"#utility.yul\":21943:21946   */\n      0x00\n        /* \"#utility.yul\":21964:22031   */\n      tag_531\n        /* \"#utility.yul\":22028:22030   */\n      0x3c\n        /* \"#utility.yul\":22023:22026   */\n      dup4\n        /* \"#utility.yul\":21964:22031   */\n      tag_267\n      jump\t// in\n    tag_531:\n        /* \"#utility.yul\":21957:22031   */\n      swap2\n      pop\n        /* \"#utility.yul\":22040:22133   */\n      tag_532\n        /* \"#utility.yul\":22129:22132   */\n      dup3\n        /* \"#utility.yul\":22040:22133   */\n      tag_299\n      jump\t// in\n    tag_532:\n        /* \"#utility.yul\":22158:22160   */\n      0x40\n        /* \"#utility.yul\":22153:22156   */\n      dup3\n        /* \"#utility.yul\":22149:22161   */\n      add\n        /* \"#utility.yul\":22142:22161   */\n      swap1\n      pop\n        /* \"#utility.yul\":21801:22167   */\n      swap2\n      swap1\n      pop\n      jump\t// out\n        /* \"#utility.yul\":22173:22592   */\n    tag_135:\n        /* \"#utility.yul\":22339:22343   */\n      0x00\n        /* \"#utility.yul\":22377:22379   */\n      0x20\n        /* \"#utility.yul\":22366:22375   */\n      dup3\n        /* \"#utility.yul\":22362:22380   */\n      add\n        /* \"#utility.yul\":22354:22380   */\n      swap1\n      pop\n        /* \"#utility.yul\":22426:22435   */\n      dup2\n        /* \"#utility.yul\":22420:22424   */\n      dup2\n        /* \"#utility.yul\":22416:22436   */\n      sub\n        /* \"#utility.yul\":22412:22413   */\n      0x00\n        /* \"#utility.yul\":22401:22410   */\n      dup4\n        /* \"#utility.yul\":22397:22414   */\n      add\n        /* \"#utility.yul\":22390:22437   */\n      mstore\n        /* \"#utility.yul\":22454:22585   */\n      tag_534\n        /* \"#utility.yul\":22580:22584   */\n      dup2\n        /* \"#utility.yul\":22454:22585   */\n      tag_300\n      jump\t// in\n    tag_534:\n        /* \"#utility.yul\":22446:22585   */\n      swap1\n      pop\n        /* \"#utility.yul\":22173:22592   */\n      swap2\n      swap1\n      pop\n      jump\t// out\n        /* \"#utility.yul\":22598:22770   */\n    tag_301:\n        /* \"#utility.yul\":22738:22762   */\n      0x4e6f2070726f706f73616c7320617661696c61626c6500000000000000000000\n        /* \"#utility.yul\":22734:22735   */\n      0x00\n        /* \"#utility.yul\":22726:22732   */\n      dup3\n        /* \"#utility.yul\":22722:22736   */\n      add\n        /* \"#utility.yul\":22715:22763   */\n      mstore\n        /* \"#utility.yul\":22598:22770   */\n      pop\n      jump\t// out\n        /* \"#utility.yul\":22776:23142   */\n    tag_302:\n        /* \"#utility.yul\":22918:22921   */\n      0x00\n        /* \"#utility.yul\":22939:23006   */\n      tag_537\n        /* \"#utility.yul\":23003:23005   */\n      0x16\n        /* \"#utility.yul\":22998:23001   */\n      dup4\n        /* \"#utility.yul\":22939:23006   */\n      tag_267\n      jump\t// in\n    tag_537:\n        /* \"#utility.yul\":22932:23006   */\n      swap2\n      pop\n        /* \"#utility.yul\":23015:23108   */\n      tag_538\n        /* \"#utility.yul\":23104:23107   */\n      dup3\n        /* \"#utility.yul\":23015:23108   */\n      tag_301\n      jump\t// in\n    tag_538:\n        /* \"#utility.yul\":23133:23135   */\n      0x20\n        /* \"#utility.yul\":23128:23131   */\n      dup3\n        /* \"#utility.yul\":23124:23136   */\n      add\n        /* \"#utility.yul\":23117:23136   */\n      swap1\n      pop\n        /* \"#utility.yul\":22776:23142   */\n      swap2\n      swap1\n      pop\n      jump\t// out\n        /* \"#utility.yul\":23148:23567   */\n    tag_138:\n        /* \"#utility.yul\":23314:23318   */\n      0x00\n        /* \"#utility.yul\":23352:23354   */\n      0x20\n        /* \"#utility.yul\":23341:23350   */\n      dup3\n        /* \"#utility.yul\":23337:23355   */\n      add\n        /* \"#utility.yul\":23329:23355   */\n      swap1\n      pop\n        /* \"#utility.yul\":23401:23410   */\n      dup2\n        /* \"#utility.yul\":23395:23399   */\n      dup2\n        /* \"#utility.yul\":23391:23411   */\n      sub\n        /* \"#utility.yul\":23387:23388   */\n      0x00\n        /* \"#utility.yul\":23376:23385   */\n      dup4\n        /* \"#utility.yul\":23372:23389   */\n      add\n        /* \"#utility.yul\":23365:23412   */\n      mstore\n        /* \"#utility.yul\":23429:23560   */\n      tag_540\n        /* \"#utility.yul\":23555:23559   */\n      dup2\n        /* \"#utility.yul\":23429:23560   */\n      tag_302\n      jump\t// in\n    tag_540:\n        /* \"#utility.yul\":23421:23560   */\n      swap1\n      pop\n        /* \"#utility.yul\":23148:23567   */\n      swap2\n      swap1\n      pop\n      jump\t// out\n        /* \"#utility.yul\":23573:23753   */\n    tag_146:\n        /* \"#utility.yul\":23621:23698   */\n      0x4e487b7100000000000000000000000000000000000000000000000000000000\n        /* \"#utility.yul\":23618:23619   */\n      0x00\n        /* \"#utility.yul\":23611:23699   */\n      mstore\n        /* \"#utility.yul\":23718:23722   */\n      0x32\n        /* \"#utility.yul\":23715:23716   */\n      0x04\n        /* \"#utility.yul\":23708:23723   */\n      mstore\n        /* \"#utility.yul\":23742:23746   */\n      0x24\n        /* \"#utility.yul\":23739:23740   */\n      0x00\n        /* \"#utility.yul\":23732:23747   */\n      revert\n        /* \"#utility.yul\":23759:23908   */\n    tag_303:\n        /* \"#utility.yul\":23808:23814   */\n      0x00\n        /* \"#utility.yul\":23842:23847   */\n      dup2\n        /* \"#utility.yul\":23836:23848   */\n      sload\n        /* \"#utility.yul\":23826:23848   */\n      swap1\n      pop\n        /* \"#utility.yul\":23868:23901   */\n      tag_543\n        /* \"#utility.yul\":23894:23900   */\n      dup2\n        /* \"#utility.yul\":23868:23901   */\n      tag_77\n      jump\t// in\n    tag_543:\n        /* \"#utility.yul\":23858:23901   */\n      swap1\n      pop\n        /* \"#utility.yul\":23759:23908   */\n      swap2\n      swap1\n      pop\n      jump\t// out\n        /* \"#utility.yul\":23914:25365   */\n    tag_164:\n        /* \"#utility.yul\":24025:24028   */\n      dup2\n        /* \"#utility.yul\":24019:24023   */\n      dup2\n        /* \"#utility.yul\":24016:24029   */\n      sub\n        /* \"#utility.yul\":24013:24039   */\n      tag_545\n      jumpi\n        /* \"#utility.yul\":24032:24037   */\n      pop\n      pop\n      jump(tag_544)\n        /* \"#utility.yul\":24013:24039   */\n    tag_545:\n        /* \"#utility.yul\":24063:24097   */\n      tag_546\n        /* \"#utility.yul\":24093:24096   */\n      dup3\n        /* \"#utility.yul\":24063:24097   */\n      tag_303\n      jump\t// in\n    tag_546:\n        /* \"#utility.yul\":24162:24180   */\n      0xffffffffffffffff\n        /* \"#utility.yul\":24154:24160   */\n      dup2\n        /* \"#utility.yul\":24151:24181   */\n      gt\n        /* \"#utility.yul\":24148:24204   */\n      iszero\n      tag_547\n      jumpi\n        /* \"#utility.yul\":24184:24202   */\n      tag_548\n      tag_239\n      jump\t// in\n    tag_548:\n        /* \"#utility.yul\":24148:24204   */\n    tag_547:\n        /* \"#utility.yul\":24228:24266   */\n      tag_549\n        /* \"#utility.yul\":24260:24264   */\n      dup3\n        /* \"#utility.yul\":24254:24265   */\n      sload\n        /* \"#utility.yul\":24228:24266   */\n      tag_77\n      jump\t// in\n    tag_549:\n        /* \"#utility.yul\":24313:24380   */\n      tag_550\n        /* \"#utility.yul\":24373:24379   */\n      dup3\n        /* \"#utility.yul\":24365:24371   */\n      dup3\n        /* \"#utility.yul\":24359:24363   */\n      dup6\n        /* \"#utility.yul\":24313:24380   */\n      tag_286\n      jump\t// in\n    tag_550:\n        /* \"#utility.yul\":24407:24408   */\n      0x00\n        /* \"#utility.yul\":24436:24438   */\n      0x1f\n        /* \"#utility.yul\":24428:24434   */\n      dup4\n        /* \"#utility.yul\":24425:24439   */\n      gt\n        /* \"#utility.yul\":24453:24454   */\n      0x01\n        /* \"#utility.yul\":24448:25120   */\n      dup2\n      eq\n      tag_552\n      jumpi\n        /* \"#utility.yul\":25164:25165   */\n      0x00\n        /* \"#utility.yul\":25181:25187   */\n      dup5\n        /* \"#utility.yul\":25178:25255   */\n      iszero\n      tag_553\n      jumpi\n        /* \"#utility.yul\":25230:25239   */\n      dup3\n        /* \"#utility.yul\":25225:25228   */\n      dup8\n        /* \"#utility.yul\":25221:25240   */\n      add\n        /* \"#utility.yul\":25215:25241   */\n      sload\n        /* \"#utility.yul\":25206:25241   */\n      swap1\n      pop\n        /* \"#utility.yul\":25178:25255   */\n    tag_553:\n        /* \"#utility.yul\":25281:25348   */\n      tag_554\n        /* \"#utility.yul\":25341:25347   */\n      dup6\n        /* \"#utility.yul\":25334:25339   */\n      dup3\n        /* \"#utility.yul\":25281:25348   */\n      tag_289\n      jump\t// in\n    tag_554:\n        /* \"#utility.yul\":25275:25279   */\n      dup7\n        /* \"#utility.yul\":25268:25349   */\n      sstore\n        /* \"#utility.yul\":25137:25359   */\n      pop\n        /* \"#utility.yul\":24418:25359   */\n      jump(tag_551)\n        /* \"#utility.yul\":24448:25120   */\n    tag_552:\n        /* \"#utility.yul\":24500:24504   */\n      0x1f\n        /* \"#utility.yul\":24496:24505   */\n      not\n        /* \"#utility.yul\":24488:24494   */\n      dup5\n        /* \"#utility.yul\":24484:24506   */\n      and\n        /* \"#utility.yul\":24526:24562   */\n      tag_555\n        /* \"#utility.yul\":24558:24561   */\n      dup8\n        /* \"#utility.yul\":24526:24562   */\n      tag_275\n      jump\t// in\n    tag_555:\n        /* \"#utility.yul\":24519:24562   */\n      swap7\n      pop\n        /* \"#utility.yul\":24589:24626   */\n      tag_556\n        /* \"#utility.yul\":24621:24625   */\n      dup7\n        /* \"#utility.yul\":24589:24626   */\n      tag_275\n      jump\t// in\n    tag_556:\n        /* \"#utility.yul\":24648:24649   */\n      0x00\n        /* \"#utility.yul\":24662:24869   */\n    tag_557:\n        /* \"#utility.yul\":24676:24683   */\n      dup3\n        /* \"#utility.yul\":24673:24674   */\n      dup2\n        /* \"#utility.yul\":24670:24684   */\n      lt\n        /* \"#utility.yul\":24662:24869   */\n      iszero\n      tag_559\n      jumpi\n        /* \"#utility.yul\":24755:24764   */\n      dup5\n        /* \"#utility.yul\":24750:24753   */\n      dup10\n        /* \"#utility.yul\":24746:24765   */\n      add\n        /* \"#utility.yul\":24740:24766   */\n      sload\n        /* \"#utility.yul\":24732:24738   */\n      dup3\n        /* \"#utility.yul\":24725:24767   */\n      sstore\n        /* \"#utility.yul\":24806:24807   */\n      0x01\n        /* \"#utility.yul\":24798:24804   */\n      dup3\n        /* \"#utility.yul\":24794:24808   */\n      add\n        /* \"#utility.yul\":24784:24808   */\n      swap2\n      pop\n        /* \"#utility.yul\":24853:24854   */\n      0x01\n        /* \"#utility.yul\":24842:24851   */\n      dup6\n        /* \"#utility.yul\":24838:24855   */\n      add\n        /* \"#utility.yul\":24825:24855   */\n      swap5\n      pop\n        /* \"#utility.yul\":24699:24703   */\n      0x20\n        /* \"#utility.yul\":24696:24697   */\n      dup2\n        /* \"#utility.yul\":24692:24704   */\n      add\n        /* \"#utility.yul\":24687:24704   */\n      swap1\n      pop\n        /* \"#utility.yul\":24662:24869   */\n      jump(tag_557)\n    tag_559:\n        /* \"#utility.yul\":24897:24903   */\n      dup7\n        /* \"#utility.yul\":24888:24895   */\n      dup4\n        /* \"#utility.yul\":24885:24904   */\n      lt\n        /* \"#utility.yul\":24882:25061   */\n      iszero\n      tag_560\n      jumpi\n        /* \"#utility.yul\":24955:24964   */\n      dup5\n        /* \"#utility.yul\":24950:24953   */\n      dup10\n        /* \"#utility.yul\":24946:24965   */\n      add\n        /* \"#utility.yul\":24940:24966   */\n      sload\n        /* \"#utility.yul\":24998:25046   */\n      tag_561\n        /* \"#utility.yul\":25040:25044   */\n      0x1f\n        /* \"#utility.yul\":25032:25038   */\n      dup10\n        /* \"#utility.yul\":25028:25045   */\n      and\n        /* \"#utility.yul\":25017:25026   */\n      dup3\n        /* \"#utility.yul\":24998:25046   */\n      tag_288\n      jump\t// in\n    tag_561:\n        /* \"#utility.yul\":24990:24996   */\n      dup4\n        /* \"#utility.yul\":24983:25047   */\n      sstore\n        /* \"#utility.yul\":24905:25061   */\n      pop\n        /* \"#utility.yul\":24882:25061   */\n    tag_560:\n        /* \"#utility.yul\":25107:25108   */\n      0x01\n        /* \"#utility.yul\":25103:25104   */\n      0x02\n        /* \"#utility.yul\":25095:25101   */\n      dup9\n        /* \"#utility.yul\":25091:25105   */\n      mul\n        /* \"#utility.yul\":25087:25109   */\n      add\n        /* \"#utility.yul\":25081:25085   */\n      dup9\n        /* \"#utility.yul\":25074:25110   */\n      sstore\n        /* \"#utility.yul\":24455:25120   */\n      pop\n      pop\n      pop\n        /* \"#utility.yul\":24418:25359   */\n    tag_551:\n      pop\n        /* \"#utility.yul\":24003:25365   */\n      pop\n      pop\n      pop\n        /* \"#utility.yul\":23914:25365   */\n      pop\n      pop\n    tag_544:\n      jump\t// out\n        /* \"#utility.yul\":25371:25534   */\n    tag_304:\n        /* \"#utility.yul\":25511:25526   */\n      0x4e6f2077696e6e65722079657400000000000000000000000000000000000000\n        /* \"#utility.yul\":25507:25508   */\n      0x00\n        /* \"#utility.yul\":25499:25505   */\n      dup3\n        /* \"#utility.yul\":25495:25509   */\n      add\n        /* \"#utility.yul\":25488:25527   */\n      mstore\n        /* \"#utility.yul\":25371:25534   */\n      pop\n      jump\t// out\n        /* \"#utility.yul\":25540:25906   */\n    tag_305:\n        /* \"#utility.yul\":25682:25685   */\n      0x00\n        /* \"#utility.yul\":25703:25770   */\n      tag_564\n        /* \"#utility.yul\":25767:25769   */\n      0x0d\n        /* \"#utility.yul\":25762:25765   */\n      dup4\n        /* \"#utility.yul\":25703:25770   */\n      tag_267\n      jump\t// in\n    tag_564:\n        /* \"#utility.yul\":25696:25770   */\n      swap2\n      pop\n        /* \"#utility.yul\":25779:25872   */\n      tag_565\n        /* \"#utility.yul\":25868:25871   */\n      dup3\n        /* \"#utility.yul\":25779:25872   */\n      tag_304\n      jump\t// in\n    tag_565:\n        /* \"#utility.yul\":25897:25899   */\n      0x20\n        /* \"#utility.yul\":25892:25895   */\n      dup3\n        /* \"#utility.yul\":25888:25900   */\n      add\n        /* \"#utility.yul\":25881:25900   */\n      swap1\n      pop\n        /* \"#utility.yul\":25540:25906   */\n      swap2\n      swap1\n      pop\n      jump\t// out\n        /* \"#utility.yul\":25912:26331   */\n    tag_168:\n        /* \"#utility.yul\":26078:26082   */\n      0x00\n        /* \"#utility.yul\":26116:26118   */\n      0x20\n        /* \"#utility.yul\":26105:26114   */\n      dup3\n        /* \"#utility.yul\":26101:26119   */\n      add\n        /* \"#utility.yul\":26093:26119   */\n      swap1\n      pop\n        /* \"#utility.yul\":26165:26174   */\n      dup2\n        /* \"#utility.yul\":26159:26163   */\n      dup2\n        /* \"#utility.yul\":26155:26175   */\n      sub\n        /* \"#utility.yul\":26151:26152   */\n      0x00\n        /* \"#utility.yul\":26140:26149   */\n      dup4\n        /* \"#utility.yul\":26136:26153   */\n      add\n        /* \"#utility.yul\":26129:26176   */\n      mstore\n        /* \"#utility.yul\":26193:26324   */\n      tag_567\n        /* \"#utility.yul\":26319:26323   */\n      dup2\n        /* \"#utility.yul\":26193:26324   */\n      tag_305\n      jump\t// in\n    tag_567:\n        /* \"#utility.yul\":26185:26324   */\n      swap1\n      pop\n        /* \"#utility.yul\":25912:26331   */\n      swap2\n      swap1\n      pop\n      jump\t// out\n        /* \"#utility.yul\":26337:26565   */\n    tag_306:\n        /* \"#utility.yul\":26477:26511   */\n      0x566f7465732063616e20626520646f6e65206f6e6c7920696e20766f74696e67\n        /* \"#utility.yul\":26473:26474   */\n      0x00\n        /* \"#utility.yul\":26465:26471   */\n      dup3\n        /* \"#utility.yul\":26461:26475   */\n      add\n        /* \"#utility.yul\":26454:26512   */\n      mstore\n        /* \"#utility.yul\":26546:26557   */\n      0x2070686173653a332e0000000000000000000000000000000000000000000000\n        /* \"#utility.yul\":26541:26543   */\n      0x20\n        /* \"#utility.yul\":26533:26539   */\n      dup3\n        /* \"#utility.yul\":26529:26544   */\n      add\n        /* \"#utility.yul\":26522:26558   */\n      mstore\n        /* \"#utility.yul\":26337:26565   */\n      pop\n      jump\t// out\n        /* \"#utility.yul\":26571:26937   */\n    tag_307:\n        /* \"#utility.yul\":26713:26716   */\n      0x00\n        /* \"#utility.yul\":26734:26801   */\n      tag_570\n        /* \"#utility.yul\":26798:26800   */\n      0x29\n        /* \"#utility.yul\":26793:26796   */\n      dup4\n        /* \"#utility.yul\":26734:26801   */\n      tag_267\n      jump\t// in\n    tag_570:\n        /* \"#utility.yul\":26727:26801   */\n      swap2\n      pop\n        /* \"#utility.yul\":26810:26903   */\n      tag_571\n        /* \"#utility.yul\":26899:26902   */\n      dup3\n        /* \"#utility.yul\":26810:26903   */\n      tag_306\n      jump\t// in\n    tag_571:\n        /* \"#utility.yul\":26928:26930   */\n      0x40\n        /* \"#utility.yul\":26923:26926   */\n      dup3\n        /* \"#utility.yul\":26919:26931   */\n      add\n        /* \"#utility.yul\":26912:26931   */\n      swap1\n      pop\n        /* \"#utility.yul\":26571:26937   */\n      swap2\n      swap1\n      pop\n      jump\t// out\n        /* \"#utility.yul\":26943:27362   */\n    tag_185:\n        /* \"#utility.yul\":27109:27113   */\n      0x00\n        /* \"#utility.yul\":27147:27149   */\n      0x20\n        /* \"#utility.yul\":27136:27145   */\n      dup3\n        /* \"#utility.yul\":27132:27150   */\n      add\n        /* \"#utility.yul\":27124:27150   */\n      swap1\n      pop\n        /* \"#utility.yul\":27196:27205   */\n      dup2\n        /* \"#utility.yul\":27190:27194   */\n      dup2\n        /* \"#utility.yul\":27186:27206   */\n      sub\n        /* \"#utility.yul\":27182:27183   */\n      0x00\n        /* \"#utility.yul\":27171:27180   */\n      dup4\n        /* \"#utility.yul\":27167:27184   */\n      add\n        /* \"#utility.yul\":27160:27207   */\n      mstore\n        /* \"#utility.yul\":27224:27355   */\n      tag_573\n        /* \"#utility.yul\":27350:27354   */\n      dup2\n        /* \"#utility.yul\":27224:27355   */\n      tag_307\n      jump\t// in\n    tag_573:\n        /* \"#utility.yul\":27216:27355   */\n      swap1\n      pop\n        /* \"#utility.yul\":26943:27362   */\n      swap2\n      swap1\n      pop\n      jump\t// out\n        /* \"#utility.yul\":27368:27663   */\n    tag_308:\n        /* \"#utility.yul\":27508:27542   */\n      0x596f75206861766520746f20676574206174206c656174206f6e652070726f70\n        /* \"#utility.yul\":27504:27505   */\n      0x00\n        /* \"#utility.yul\":27496:27502   */\n      dup3\n        /* \"#utility.yul\":27492:27506   */\n      add\n        /* \"#utility.yul\":27485:27543   */\n      mstore\n        /* \"#utility.yul\":27577:27611   */\n      0x6f73616c20696e206f7264657220746f2070726f63656564206120766f74696e\n        /* \"#utility.yul\":27572:27574   */\n      0x20\n        /* \"#utility.yul\":27564:27570   */\n      dup3\n        /* \"#utility.yul\":27560:27575   */\n      add\n        /* \"#utility.yul\":27553:27612   */\n      mstore\n        /* \"#utility.yul\":27646:27655   */\n      0x6720706861736500000000000000000000000000000000000000000000000000\n        /* \"#utility.yul\":27641:27643   */\n      0x40\n        /* \"#utility.yul\":27633:27639   */\n      dup3\n        /* \"#utility.yul\":27629:27644   */\n      add\n        /* \"#utility.yul\":27622:27656   */\n      mstore\n        /* \"#utility.yul\":27368:27663   */\n      pop\n      jump\t// out\n        /* \"#utility.yul\":27669:28035   */\n    tag_309:\n        /* \"#utility.yul\":27811:27814   */\n      0x00\n        /* \"#utility.yul\":27832:27899   */\n      tag_576\n        /* \"#utility.yul\":27896:27898   */\n      0x47\n        /* \"#utility.yul\":27891:27894   */\n      dup4\n        /* \"#utility.yul\":27832:27899   */\n      tag_267\n      jump\t// in\n    tag_576:\n        /* \"#utility.yul\":27825:27899   */\n      swap2\n      pop\n        /* \"#utility.yul\":27908:28001   */\n      tag_577\n        /* \"#utility.yul\":27997:28000   */\n      dup3\n        /* \"#utility.yul\":27908:28001   */\n      tag_308\n      jump\t// in\n    tag_577:\n        /* \"#utility.yul\":28026:28028   */\n      0x60\n        /* \"#utility.yul\":28021:28024   */\n      dup3\n        /* \"#utility.yul\":28017:28029   */\n      add\n        /* \"#utility.yul\":28010:28029   */\n      swap1\n      pop\n        /* \"#utility.yul\":27669:28035   */\n      swap2\n      swap1\n      pop\n      jump\t// out\n        /* \"#utility.yul\":28041:28460   */\n    tag_188:\n        /* \"#utility.yul\":28207:28211   */\n      0x00\n        /* \"#utility.yul\":28245:28247   */\n      0x20\n        /* \"#utility.yul\":28234:28243   */\n      dup3\n        /* \"#utility.yul\":28230:28248   */\n      add\n        /* \"#utility.yul\":28222:28248   */\n      swap1\n      pop\n        /* \"#utility.yul\":28294:28303   */\n      dup2\n        /* \"#utility.yul\":28288:28292   */\n      dup2\n        /* \"#utility.yul\":28284:28304   */\n      sub\n        /* \"#utility.yul\":28280:28281   */\n      0x00\n        /* \"#utility.yul\":28269:28278   */\n      dup4\n        /* \"#utility.yul\":28265:28282   */\n      add\n        /* \"#utility.yul\":28258:28305   */\n      mstore\n        /* \"#utility.yul\":28322:28453   */\n      tag_579\n        /* \"#utility.yul\":28448:28452   */\n      dup2\n        /* \"#utility.yul\":28322:28453   */\n      tag_309\n      jump\t// in\n    tag_579:\n        /* \"#utility.yul\":28314:28453   */\n      swap1\n      pop\n        /* \"#utility.yul\":28041:28460   */\n      swap2\n      swap1\n      pop\n      jump\t// out\n        /* \"#utility.yul\":28466:28648   */\n    tag_310:\n        /* \"#utility.yul\":28606:28640   */\n      0x596f75206172206e6f742072656769737465726564206173206120766f746572\n        /* \"#utility.yul\":28602:28603   */\n      0x00\n        /* \"#utility.yul\":28594:28600   */\n      dup3\n        /* \"#utility.yul\":28590:28604   */\n      add\n        /* \"#utility.yul\":28583:28641   */\n      mstore\n        /* \"#utility.yul\":28466:28648   */\n      pop\n      jump\t// out\n        /* \"#utility.yul\":28654:29020   */\n    tag_311:\n        /* \"#utility.yul\":28796:28799   */\n      0x00\n        /* \"#utility.yul\":28817:28884   */\n      tag_582\n        /* \"#utility.yul\":28881:28883   */\n      0x20\n        /* \"#utility.yul\":28876:28879   */\n      dup4\n        /* \"#utility.yul\":28817:28884   */\n      tag_267\n      jump\t// in\n    tag_582:\n        /* \"#utility.yul\":28810:28884   */\n      swap2\n      pop\n        /* \"#utility.yul\":28893:28986   */\n      tag_583\n        /* \"#utility.yul\":28982:28985   */\n      dup3\n        /* \"#utility.yul\":28893:28986   */\n      tag_310\n      jump\t// in\n    tag_583:\n        /* \"#utility.yul\":29011:29013   */\n      0x20\n        /* \"#utility.yul\":29006:29009   */\n      dup3\n        /* \"#utility.yul\":29002:29014   */\n      add\n        /* \"#utility.yul\":28995:29014   */\n      swap1\n      pop\n        /* \"#utility.yul\":28654:29020   */\n      swap2\n      swap1\n      pop\n      jump\t// out\n        /* \"#utility.yul\":29026:29445   */\n    tag_191:\n        /* \"#utility.yul\":29192:29196   */\n      0x00\n        /* \"#utility.yul\":29230:29232   */\n      0x20\n        /* \"#utility.yul\":29219:29228   */\n      dup3\n        /* \"#utility.yul\":29215:29233   */\n      add\n        /* \"#utility.yul\":29207:29233   */\n      swap1\n      pop\n        /* \"#utility.yul\":29279:29288   */\n      dup2\n        /* \"#utility.yul\":29273:29277   */\n      dup2\n        /* \"#utility.yul\":29269:29289   */\n      sub\n        /* \"#utility.yul\":29265:29266   */\n      0x00\n        /* \"#utility.yul\":29254:29263   */\n      dup4\n        /* \"#utility.yul\":29250:29267   */\n      add\n        /* \"#utility.yul\":29243:29290   */\n      mstore\n        /* \"#utility.yul\":29307:29438   */\n      tag_585\n        /* \"#utility.yul\":29433:29437   */\n      dup2\n        /* \"#utility.yul\":29307:29438   */\n      tag_311\n      jump\t// in\n    tag_585:\n        /* \"#utility.yul\":29299:29438   */\n      swap1\n      pop\n        /* \"#utility.yul\":29026:29445   */\n      swap2\n      swap1\n      pop\n      jump\t// out\n        /* \"#utility.yul\":29451:29623   */\n    tag_312:\n        /* \"#utility.yul\":29591:29615   */\n      0x596f75206861766520616c726561647920766f74656400000000000000000000\n        /* \"#utility.yul\":29587:29588   */\n      0x00\n        /* \"#utility.yul\":29579:29585   */\n      dup3\n        /* \"#utility.yul\":29575:29589   */\n      add\n        /* \"#utility.yul\":29568:29616   */\n      mstore\n        /* \"#utility.yul\":29451:29623   */\n      pop\n      jump\t// out\n        /* \"#utility.yul\":29629:29995   */\n    tag_313:\n        /* \"#utility.yul\":29771:29774   */\n      0x00\n        /* \"#utility.yul\":29792:29859   */\n      tag_588\n        /* \"#utility.yul\":29856:29858   */\n      0x16\n        /* \"#utility.yul\":29851:29854   */\n      dup4\n        /* \"#utility.yul\":29792:29859   */\n      tag_267\n      jump\t// in\n    tag_588:\n        /* \"#utility.yul\":29785:29859   */\n      swap2\n      pop\n        /* \"#utility.yul\":29868:29961   */\n      tag_589\n        /* \"#utility.yul\":29957:29960   */\n      dup3\n        /* \"#utility.yul\":29868:29961   */\n      tag_312\n      jump\t// in\n    tag_589:\n        /* \"#utility.yul\":29986:29988   */\n      0x20\n        /* \"#utility.yul\":29981:29984   */\n      dup3\n        /* \"#utility.yul\":29977:29989   */\n      add\n        /* \"#utility.yul\":29970:29989   */\n      swap1\n      pop\n        /* \"#utility.yul\":29629:29995   */\n      swap2\n      swap1\n      pop\n      jump\t// out\n        /* \"#utility.yul\":30001:30420   */\n    tag_194:\n        /* \"#utility.yul\":30167:30171   */\n      0x00\n        /* \"#utility.yul\":30205:30207   */\n      0x20\n        /* \"#utility.yul\":30194:30203   */\n      dup3\n        /* \"#utility.yul\":30190:30208   */\n      add\n        /* \"#utility.yul\":30182:30208   */\n      swap1\n      pop\n        /* \"#utility.yul\":30254:30263   */\n      dup2\n        /* \"#utility.yul\":30248:30252   */\n      dup2\n        /* \"#utility.yul\":30244:30264   */\n      sub\n        /* \"#utility.yul\":30240:30241   */\n      0x00\n        /* \"#utility.yul\":30229:30238   */\n      dup4\n        /* \"#utility.yul\":30225:30242   */\n      add\n        /* \"#utility.yul\":30218:30265   */\n      mstore\n        /* \"#utility.yul\":30282:30413   */\n      tag_591\n        /* \"#utility.yul\":30408:30412   */\n      dup2\n        /* \"#utility.yul\":30282:30413   */\n      tag_313\n      jump\t// in\n    tag_591:\n        /* \"#utility.yul\":30274:30413   */\n      swap1\n      pop\n        /* \"#utility.yul\":30001:30420   */\n      swap2\n      swap1\n      pop\n      jump\t// out\n        /* \"#utility.yul\":30426:30599   */\n    tag_314:\n        /* \"#utility.yul\":30566:30591   */\n      0x496e76616c69642070726f706f73616c2063686f696365000000000000000000\n        /* \"#utility.yul\":30562:30563   */\n      0x00\n        /* \"#utility.yul\":30554:30560   */\n      dup3\n        /* \"#utility.yul\":30550:30564   */\n      add\n        /* \"#utility.yul\":30543:30592   */\n      mstore\n        /* \"#utility.yul\":30426:30599   */\n      pop\n      jump\t// out\n        /* \"#utility.yul\":30605:30971   */\n    tag_315:\n        /* \"#utility.yul\":30747:30750   */\n      0x00\n        /* \"#utility.yul\":30768:30835   */\n      tag_594\n        /* \"#utility.yul\":30832:30834   */\n      0x17\n        /* \"#utility.yul\":30827:30830   */\n      dup4\n        /* \"#utility.yul\":30768:30835   */\n      tag_267\n      jump\t// in\n    tag_594:\n        /* \"#utility.yul\":30761:30835   */\n      swap2\n      pop\n        /* \"#utility.yul\":30844:30937   */\n      tag_595\n        /* \"#utility.yul\":30933:30936   */\n      dup3\n        /* \"#utility.yul\":30844:30937   */\n      tag_314\n      jump\t// in\n    tag_595:\n        /* \"#utility.yul\":30962:30964   */\n      0x20\n        /* \"#utility.yul\":30957:30960   */\n      dup3\n        /* \"#utility.yul\":30953:30965   */\n      add\n        /* \"#utility.yul\":30946:30965   */\n      swap1\n      pop\n        /* \"#utility.yul\":30605:30971   */\n      swap2\n      swap1\n      pop\n      jump\t// out\n        /* \"#utility.yul\":30977:31396   */\n    tag_197:\n        /* \"#utility.yul\":31143:31147   */\n      0x00\n        /* \"#utility.yul\":31181:31183   */\n      0x20\n        /* \"#utility.yul\":31170:31179   */\n      dup3\n        /* \"#utility.yul\":31166:31184   */\n      add\n        /* \"#utility.yul\":31158:31184   */\n      swap1\n      pop\n        /* \"#utility.yul\":31230:31239   */\n      dup2\n        /* \"#utility.yul\":31224:31228   */\n      dup2\n        /* \"#utility.yul\":31220:31240   */\n      sub\n        /* \"#utility.yul\":31216:31217   */\n      0x00\n        /* \"#utility.yul\":31205:31214   */\n      dup4\n        /* \"#utility.yul\":31201:31218   */\n      add\n        /* \"#utility.yul\":31194:31241   */\n      mstore\n        /* \"#utility.yul\":31258:31389   */\n      tag_597\n        /* \"#utility.yul\":31384:31388   */\n      dup2\n        /* \"#utility.yul\":31258:31389   */\n      tag_315\n      jump\t// in\n    tag_597:\n        /* \"#utility.yul\":31250:31389   */\n      swap1\n      pop\n        /* \"#utility.yul\":30977:31396   */\n      swap2\n      swap1\n      pop\n      jump\t// out\n        /* \"#utility.yul\":31402:31734   */\n    tag_203:\n        /* \"#utility.yul\":31523:31527   */\n      0x00\n        /* \"#utility.yul\":31561:31563   */\n      0x40\n        /* \"#utility.yul\":31550:31559   */\n      dup3\n        /* \"#utility.yul\":31546:31564   */\n      add\n        /* \"#utility.yul\":31538:31564   */\n      swap1\n      pop\n        /* \"#utility.yul\":31574:31645   */\n      tag_599\n        /* \"#utility.yul\":31642:31643   */\n      0x00\n        /* \"#utility.yul\":31631:31640   */\n      dup4\n        /* \"#utility.yul\":31627:31644   */\n      add\n        /* \"#utility.yul\":31618:31624   */\n      dup6\n        /* \"#utility.yul\":31574:31645   */\n      tag_263\n      jump\t// in\n    tag_599:\n        /* \"#utility.yul\":31655:31727   */\n      tag_600\n        /* \"#utility.yul\":31723:31725   */\n      0x20\n        /* \"#utility.yul\":31712:31721   */\n      dup4\n        /* \"#utility.yul\":31708:31726   */\n      add\n        /* \"#utility.yul\":31699:31705   */\n      dup5\n        /* \"#utility.yul\":31655:31727   */\n      tag_264\n      jump\t// in\n    tag_600:\n        /* \"#utility.yul\":31402:31734   */\n      swap4\n      swap3\n      pop\n      pop\n      pop\n      jump\t// out\n\n    auxdata: 0xa26469706673582212204f118d7ce74643ea476b57b31262419032727812c3dcc6c5046007b7084111a464736f6c634300081c0033\n}\n",
				"bytecode": {
					"linkReferences": {},
					"object": "608060405234801561000f575f5ffd5b50335f73ffffffffffffffffffffffffffffffffffffffff168173ffffffffffffffffffffffffffffffffffffffff1603610081575f6040517f1e4fbdf700000000000000000000000000000000000000000000000000000000815260040161007891906101c0565b60405180910390fd5b610090816100c060201b60201c565b5060055f60146101000a81548160ff021916908360058111156100b6576100b56101d9565b5b0217905550610206565b5f5f5f9054906101000a900473ffffffffffffffffffffffffffffffffffffffff169050815f5f6101000a81548173ffffffffffffffffffffffffffffffffffffffff021916908373ffffffffffffffffffffffffffffffffffffffff1602179055508173ffffffffffffffffffffffffffffffffffffffff168173ffffffffffffffffffffffffffffffffffffffff167f8be0079c531659141344cd1fd0a4f28419497f9722a3daafe3b4186f6b6457e060405160405180910390a35050565b5f73ffffffffffffffffffffffffffffffffffffffff82169050919050565b5f6101aa82610181565b9050919050565b6101ba816101a0565b82525050565b5f6020820190506101d35f8301846101b1565b92915050565b7f4e487b71000000000000000000000000000000000000000000000000000000005f52602160045260245ffd5b6121b0806102135f395ff3fe608060405234801561000f575f5ffd5b50600436106100a7575f3560e01c80638da5cb5b1161006f5780638da5cb5b146101155780638e7ea5b214610133578063ad38867e1461013d578063c08cc02d1461015b578063dcd6a5cd14610179578063f2fde38b14610195576100a7565b80632fdae3c5146100ab57806343344983146100c75780634ea49925146100e5578063715018a6146100ef578063854cff2f146100f9575b5f5ffd5b6100c560048036038101906100c0919061128c565b6101b1565b005b6100cf6103a0565b6040516100dc9190611440565b60405180910390f35b6100ed610495565b005b6100f76105cd565b005b610113600480360381019061010e91906114ba565b6105e0565b005b61011d610831565b60405161012a91906114f4565b60405180910390f35b61013b610858565b005b610145610a53565b6040516101529190611440565b60405180910390f35b610163610b8f565b604051610170919061151c565b60405180910390f35b610193600480360381019061018e919061155f565b610b9b565b005b6101af60048036038101906101aa91906114ba565b610ec7565b005b600160058111156101c5576101c461158a565b5b5f60149054906101000a900460ff1660058111156101e6576101e561158a565b5b14610226576040517f08c379a000000000000000000000000000000000000000000000000000000000815260040161021d90611637565b60405180910390fd5b5f6004541161026a576040517f08c379a0000000000000000000000000000000000000000000000000000000008152600401610261906116c5565b60405180910390fd5b60015f3373ffffffffffffffffffffffffffffffffffffffff1673ffffffffffffffffffffffffffffffffffffffff1681526020019081526020015f205f9054906101000a900460ff166102f3576040517f08c379a00000000000000000000000000000000000000000000000000000000081526004016102ea9061172d565b60405180910390fd5b600360405180604001604052808381526020015f815250908060018154018082558091505060019003905f5260205f2090600202015f909190919091505f820151815f0190816103439190611948565b506020820151816001015550505f60016003805490506103639190611a44565b90507f92e393e9b54e2f801d3ea4beb0c5e71a21cc34a5d34b77d0fb8a3aa1650dc18f81604051610394919061151c565b60405180910390a15050565b60606003805480602002602001604051908101604052809291908181526020015f905b8282101561048c578382905f5260205f2090600202016040518060400160405290815f820180546103f390611778565b80601f016020809104026020016040519081016040528092919081815260200182805461041f90611778565b801561046a5780601f106104415761010080835404028352916020019161046a565b820191905f5260205f20905b81548152906001019060200180831161044d57829003601f168201915b50505050508152602001600182015481525050815260200190600101906103c3565b50505050905090565b61049d610f4b565b5f5f60149054906101000a900460ff1690506005808111156104c2576104c161158a565b5b5f60149054906101000a900460ff1660058111156104e3576104e261158a565b5b03610516575f5f60146101000a81548160ff0219169083600581111561050c5761050b61158a565b5b021790555061057e565b60015f60149054906101000a900460ff1660058111156105395761053861158a565b5b6105439190611a77565b60058111156105555761055461158a565b5b5f60146101000a81548160ff021916908360058111156105785761057761158a565b5b02179055505b5f5f60149054906101000a900460ff1690507f0a97a4ee45751e2abf3e4fc8946939630b11b371ea8ae39ccdc3056e98f5cc3f82826040516105c1929190611af0565b60405180910390a15050565b6105d5610f4b565b6105de5f610fd2565b565b6105e8610f4b565b5f60058111156105fb576105fa61158a565b5b5f60149054906101000a900460ff16600581111561061c5761061b61158a565b5b1461065c576040517f08c379a000000000000000000000000000000000000000000000000000000000815260040161065390611b87565b60405180910390fd5b60015f8273ffffffffffffffffffffffffffffffffffffffff1673ffffffffffffffffffffffffffffffffffffffff1681526020019081526020015f205f9054906101000a900460ff16156106e6576040517f08c379a00000000000000000000000000000000000000000000000000000000081526004016106dd90611bef565b60405180910390fd5b60405180606001604052806001151581526020015f151581526020015f81525060025f8373ffffffffffffffffffffffffffffffffffffffff1673ffffffffffffffffffffffffffffffffffffffff1681526020019081526020015f205f820151815f015f6101000a81548160ff0219169083151502179055506020820151815f0160016101000a81548160ff021916908315150217905550604082015181600101559050506001805f8373ffffffffffffffffffffffffffffffffffffffff1673ffffffffffffffffffffffffffffffffffffffff1681526020019081526020015f205f6101000a81548160ff02191690831515021790555060045f8154809291906107f290611c0d565b91905055507fb6be2187d059cc2a55fe29e0e503b566e1e0f8c8780096e185429350acffd3dd8160405161082691906114f4565b60405180910390a150565b5f5f5f9054906101000a900473ffffffffffffffffffffffffffffffffffffffff16905090565b610860610f4b565b6005808111156108735761087261158a565b5b5f60149054906101000a900460ff1660058111156108945761089361158a565b5b146108d4576040517f08c379a00000000000000000000000000000000000000000000000000000000081526004016108cb90611cc4565b60405180910390fd5b5f6003805490501161091b576040517f08c379a000000000000000000000000000000000000000000000000000000000815260040161091290611d2c565b60405180910390fd5b5f5f905060055f61092c919061109a565b5f5f90505b60038054905081101561099d57816003828154811061095357610952611d4a565b5b905f5260205f209060020201600101541115610990576003818154811061097d5761097c611d4a565b5b905f5260205f2090600202016001015491505b8080600101915050610931565b505f5f90505b600380549050811015610a4f5781600382815481106109c5576109c4611d4a565b5b905f5260205f2090600202016001015403610a42576005600382815481106109f0576109ef611d4a565b5b905f5260205f209060020201908060018154018082558091505060019003905f5260205f2090600202015f909190919091505f8201815f019081610a349190611d8c565b506001820154816001015550505b80806001019150506109a3565b5050565b60605f60038054905011610a9c576040517f08c379a0000000000000000000000000000000000000000000000000000000008152600401610a9390611ebb565b60405180910390fd5b6005805480602002602001604051908101604052809291908181526020015f905b82821015610b86578382905f5260205f2090600202016040518060400160405290815f82018054610aed90611778565b80601f0160208091040260200160405190810160405280929190818152602001828054610b1990611778565b8015610b645780601f10610b3b57610100808354040283529160200191610b64565b820191905f5260205f20905b815481529060010190602001808311610b4757829003601f168201915b5050505050815260200160018201548152505081526020019060010190610abd565b50505050905090565b5f600380549050905090565b60036005811115610baf57610bae61158a565b5b5f60149054906101000a900460ff166005811115610bd057610bcf61158a565b5b14610c10576040517f08c379a0000000000000000000000000000000000000000000000000000000008152600401610c0790611f49565b60405180910390fd5b5f60038054905011610c57576040517f08c379a0000000000000000000000000000000000000000000000000000000008152600401610c4e90611ffd565b60405180910390fd5b60025f3373ffffffffffffffffffffffffffffffffffffffff1673ffffffffffffffffffffffffffffffffffffffff1681526020019081526020015f205f015f9054906101000a900460ff16610ce2576040517f08c379a0000000000000000000000000000000000000000000000000000000008152600401610cd990612065565b60405180910390fd5b60025f3373ffffffffffffffffffffffffffffffffffffffff1673ffffffffffffffffffffffffffffffffffffffff1681526020019081526020015f205f0160019054906101000a900460ff1615610d6f576040517f08c379a0000000000000000000000000000000000000000000000000000000008152600401610d66906120cd565b60405180910390fd5b6003805490508110610db6576040517f08c379a0000000000000000000000000000000000000000000000000000000008152600401610dad90612135565b60405180910390fd5b600160025f3373ffffffffffffffffffffffffffffffffffffffff1673ffffffffffffffffffffffffffffffffffffffff1681526020019081526020015f205f0160016101000a81548160ff0219169083151502179055508060025f3373ffffffffffffffffffffffffffffffffffffffff1673ffffffffffffffffffffffffffffffffffffffff1681526020019081526020015f206001018190555060038181548110610e6757610e66611d4a565b5b905f5260205f2090600202016001015f815480929190610e8690611c0d565b91905055507f4d99b957a2bc29a30ebd96a7be8e68fe50a3c701db28a91436490b7d53870ca43382604051610ebc929190612153565b60405180910390a150565b610ecf610f4b565b5f73ffffffffffffffffffffffffffffffffffffffff168173ffffffffffffffffffffffffffffffffffffffff1603610f3f575f6040517f1e4fbdf7000000000000000000000000000000000000000000000000000000008152600401610f3691906114f4565b60405180910390fd5b610f4881610fd2565b50565b610f53611093565b73ffffffffffffffffffffffffffffffffffffffff16610f71610831565b73ffffffffffffffffffffffffffffffffffffffff1614610fd057610f94611093565b6040517f118cdaa7000000000000000000000000000000000000000000000000000000008152600401610fc791906114f4565b60405180910390fd5b565b5f5f5f9054906101000a900473ffffffffffffffffffffffffffffffffffffffff169050815f5f6101000a81548173ffffffffffffffffffffffffffffffffffffffff021916908373ffffffffffffffffffffffffffffffffffffffff1602179055508173ffffffffffffffffffffffffffffffffffffffff168173ffffffffffffffffffffffffffffffffffffffff167f8be0079c531659141344cd1fd0a4f28419497f9722a3daafe3b4186f6b6457e060405160405180910390a35050565b5f33905090565b5080545f8255600202905f5260205f20908101906110b891906110bb565b50565b5b808211156110e3575f5f82015f6110d391906110e7565b600182015f9055506002016110bc565b5090565b5080546110f390611778565b5f825580601f106111045750611121565b601f0160209004905f5260205f20908101906111209190611124565b5b50565b5b8082111561113b575f815f905550600101611125565b5090565b5f604051905090565b5f5ffd5b5f5ffd5b5f5ffd5b5f5ffd5b5f601f19601f8301169050919050565b7f4e487b71000000000000000000000000000000000000000000000000000000005f52604160045260245ffd5b61119e82611158565b810181811067ffffffffffffffff821117156111bd576111bc611168565b5b80604052505050565b5f6111cf61113f565b90506111db8282611195565b919050565b5f67ffffffffffffffff8211156111fa576111f9611168565b5b61120382611158565b9050602081019050919050565b828183375f83830152505050565b5f61123061122b846111e0565b6111c6565b90508281526020810184848401111561124c5761124b611154565b5b611257848285611210565b509392505050565b5f82601f83011261127357611272611150565b5b813561128384826020860161121e565b91505092915050565b5f602082840312156112a1576112a0611148565b5b5f82013567ffffffffffffffff8111156112be576112bd61114c565b5b6112ca8482850161125f565b91505092915050565b5f81519050919050565b5f82825260208201905092915050565b5f819050602082019050919050565b5f81519050919050565b5f82825260208201905092915050565b8281835e5f83830152505050565b5f61132e826112fc565b6113388185611306565b9350611348818560208601611316565b61135181611158565b840191505092915050565b5f819050919050565b61136e8161135c565b82525050565b5f604083015f8301518482035f86015261138e8282611324565b91505060208301516113a36020860182611365565b508091505092915050565b5f6113b98383611374565b905092915050565b5f602082019050919050565b5f6113d7826112d3565b6113e181856112dd565b9350836020820285016113f3856112ed565b805f5b8581101561142e578484038952815161140f85826113ae565b945061141a836113c1565b925060208a019950506001810190506113f6565b50829750879550505050505092915050565b5f6020820190508181035f83015261145881846113cd565b905092915050565b5f73ffffffffffffffffffffffffffffffffffffffff82169050919050565b5f61148982611460565b9050919050565b6114998161147f565b81146114a3575f5ffd5b50565b5f813590506114b481611490565b92915050565b5f602082840312156114cf576114ce611148565b5b5f6114dc848285016114a6565b91505092915050565b6114ee8161147f565b82525050565b5f6020820190506115075f8301846114e5565b92915050565b6115168161135c565b82525050565b5f60208201905061152f5f83018461150d565b92915050565b61153e8161135c565b8114611548575f5ffd5b50565b5f8135905061155981611535565b92915050565b5f6020828403121561157457611573611148565b5b5f6115818482850161154b565b91505092915050565b7f4e487b71000000000000000000000000000000000000000000000000000000005f52602160045260245ffd5b5f82825260208201905092915050565b7f50726f706f73616c2063616e206265206164646573206f6e6c7920696e2050725f8201527f6f706f73616c20526567697374726174696f6e2070686173653a312e00000000602082015250565b5f611621603c836115b7565b915061162c826115c7565b604082019050919050565b5f6020820190508181035f83015261164e81611615565b9050919050565b7f57686974656c697374206d75737420636f6e7461696e206174206c65617374205f8201527f6f6e652061646472657373000000000000000000000000000000000000000000602082015250565b5f6116af602b836115b7565b91506116ba82611655565b604082019050919050565b5f6020820190508181035f8301526116dc816116a3565b9050919050565b7f596f757220616472657373206973206e6f742077686974656c697374656400005f82015250565b5f611717601e836115b7565b9150611722826116e3565b602082019050919050565b5f6020820190508181035f8301526117448161170b565b9050919050565b7f4e487b71000000000000000000000000000000000000000000000000000000005f52602260045260245ffd5b5f600282049050600182168061178f57607f821691505b6020821081036117a2576117a161174b565b5b50919050565b5f819050815f5260205f209050919050565b5f6020601f8301049050919050565b5f82821b905092915050565b5f600883026118047fffffffffffffffffffffffffffffffffffffffffffffffffffffffffffffffff826117c9565b61180e86836117c9565b95508019841693508086168417925050509392505050565b5f819050919050565b5f61184961184461183f8461135c565b611826565b61135c565b9050919050565b5f819050919050565b6118628361182f565b61187661186e82611850565b8484546117d5565b825550505050565b5f5f905090565b61188d61187e565b611898818484611859565b505050565b5b818110156118bb576118b05f82611885565b60018101905061189e565b5050565b601f821115611900576118d1816117a8565b6118da846117ba565b810160208510156118e9578190505b6118fd6118f5856117ba565b83018261189d565b50505b505050565b5f82821c905092915050565b5f6119205f1984600802611905565b1980831691505092915050565b5f6119388383611911565b9150826002028217905092915050565b611951826112fc565b67ffffffffffffffff81111561196a57611969611168565b5b6119748254611778565b61197f8282856118bf565b5f60209050601f8311600181146119b0575f841561199e578287015190505b6119a8858261192d565b865550611a0f565b601f1984166119be866117a8565b5f5b828110156119e5578489015182556001820191506020850194506020810190506119c0565b86831015611a0257848901516119fe601f891682611911565b8355505b6001600288020188555050505b505050505050565b7f4e487b71000000000000000000000000000000000000000000000000000000005f52601160045260245ffd5b5f611a4e8261135c565b9150611a598361135c565b9250828203905081811115611a7157611a70611a17565b5b92915050565b5f611a818261135c565b9150611a8c8361135c565b9250828201905080821115611aa457611aa3611a17565b5b92915050565b60068110611abb57611aba61158a565b5b50565b5f819050611acb82611aaa565b919050565b5f611ada82611abe565b9050919050565b611aea81611ad0565b82525050565b5f604082019050611b035f830185611ae1565b611b106020830184611ae1565b9392505050565b7f416464726573732063616e206265206164646564206f6e6c7920696e205265675f8201527f697374726174696f6e2070686173653a302e0000000000000000000000000000602082015250565b5f611b716032836115b7565b9150611b7c82611b17565b604082019050919050565b5f6020820190508181035f830152611b9e81611b65565b9050919050565b7f4164647265737320616c726561647920726567697374657265640000000000005f82015250565b5f611bd9601a836115b7565b9150611be482611ba5565b602082019050919050565b5f6020820190508181035f830152611c0681611bcd565b9050919050565b5f611c178261135c565b91507fffffffffffffffffffffffffffffffffffffffffffffffffffffffffffffffff8203611c4957611c48611a17565b5b600182019050919050565b7f566f746573206d757374206265207461696c6564206265666f726520616e6e6f5f8201527f6e63696e67207468652077696e6e657220696e20506861736520352e00000000602082015250565b5f611cae603c836115b7565b9150611cb982611c54565b604082019050919050565b5f6020820190508181035f830152611cdb81611ca2565b9050919050565b7f4e6f2070726f706f73616c7320617661696c61626c65000000000000000000005f82015250565b5f611d166016836115b7565b9150611d2182611ce2565b602082019050919050565b5f6020820190508181035f830152611d4381611d0a565b9050919050565b7f4e487b71000000000000000000000000000000000000000000000000000000005f52603260045260245ffd5b5f81549050611d8581611778565b9050919050565b818103611d9a575050611e6f565b611da382611d77565b67ffffffffffffffff811115611dbc57611dbb611168565b5b611dc68254611778565b611dd18282856118bf565b5f601f831160018114611dfe575f8415611dec578287015490505b611df6858261192d565b865550611e68565b601f198416611e0c876117a8565b9650611e17866117a8565b5f5b82811015611e3e57848901548255600182019150600185019450602081019050611e19565b86831015611e5b5784890154611e57601f891682611911565b8355505b6001600288020188555050505b5050505050505b565b7f4e6f2077696e6e657220796574000000000000000000000000000000000000005f82015250565b5f611ea5600d836115b7565b9150611eb082611e71565b602082019050919050565b5f6020820190508181035f830152611ed281611e99565b9050919050565b7f566f7465732063616e20626520646f6e65206f6e6c7920696e20766f74696e675f8201527f2070686173653a332e0000000000000000000000000000000000000000000000602082015250565b5f611f336029836115b7565b9150611f3e82611ed9565b604082019050919050565b5f6020820190508181035f830152611f6081611f27565b9050919050565b7f596f75206861766520746f20676574206174206c656174206f6e652070726f705f8201527f6f73616c20696e206f7264657220746f2070726f63656564206120766f74696e60208201527f6720706861736500000000000000000000000000000000000000000000000000604082015250565b5f611fe76047836115b7565b9150611ff282611f67565b606082019050919050565b5f6020820190508181035f83015261201481611fdb565b9050919050565b7f596f75206172206e6f742072656769737465726564206173206120766f7465725f82015250565b5f61204f6020836115b7565b915061205a8261201b565b602082019050919050565b5f6020820190508181035f83015261207c81612043565b9050919050565b7f596f75206861766520616c726561647920766f746564000000000000000000005f82015250565b5f6120b76016836115b7565b91506120c282612083565b602082019050919050565b5f6020820190508181035f8301526120e4816120ab565b9050919050565b7f496e76616c69642070726f706f73616c2063686f6963650000000000000000005f82015250565b5f61211f6017836115b7565b915061212a826120eb565b602082019050919050565b5f6020820190508181035f83015261214c81612113565b9050919050565b5f6040820190506121665f8301856114e5565b612173602083018461150d565b939250505056fea26469706673582212204f118d7ce74643ea476b57b31262419032727812c3dcc6c5046007b7084111a464736f6c634300081c0033",
					"opcodes": "PUSH1 0x80 PUSH1 0x40 MSTORE CALLVALUE DUP1 ISZERO PUSH2 0xF JUMPI PUSH0 PUSH0 REVERT JUMPDEST POP CALLER PUSH0 PUSH20 0xFFFFFFFFFFFFFFFFFFFFFFFFFFFFFFFFFFFFFFFF AND DUP2 PUSH20 0xFFFFFFFFFFFFFFFFFFFFFFFFFFFFFFFFFFFFFFFF AND SUB PUSH2 0x81 JUMPI PUSH0 PUSH1 0x40 MLOAD PUSH32 0x1E4FBDF700000000000000000000000000000000000000000000000000000000 DUP2 MSTORE PUSH1 0x4 ADD PUSH2 0x78 SWAP2 SWAP1 PUSH2 0x1C0 JUMP JUMPDEST PUSH1 0x40 MLOAD DUP1 SWAP2 SUB SWAP1 REVERT JUMPDEST PUSH2 0x90 DUP2 PUSH2 0xC0 PUSH1 0x20 SHL PUSH1 0x20 SHR JUMP JUMPDEST POP PUSH1 0x5 PUSH0 PUSH1 0x14 PUSH2 0x100 EXP DUP2 SLOAD DUP2 PUSH1 0xFF MUL NOT AND SWAP1 DUP4 PUSH1 0x5 DUP2 GT ISZERO PUSH2 0xB6 JUMPI PUSH2 0xB5 PUSH2 0x1D9 JUMP JUMPDEST JUMPDEST MUL OR SWAP1 SSTORE POP PUSH2 0x206 JUMP JUMPDEST PUSH0 PUSH0 PUSH0 SWAP1 SLOAD SWAP1 PUSH2 0x100 EXP SWAP1 DIV PUSH20 0xFFFFFFFFFFFFFFFFFFFFFFFFFFFFFFFFFFFFFFFF AND SWAP1 POP DUP2 PUSH0 PUSH0 PUSH2 0x100 EXP DUP2 SLOAD DUP2 PUSH20 0xFFFFFFFFFFFFFFFFFFFFFFFFFFFFFFFFFFFFFFFF MUL NOT AND SWAP1 DUP4 PUSH20 0xFFFFFFFFFFFFFFFFFFFFFFFFFFFFFFFFFFFFFFFF AND MUL OR SWAP1 SSTORE POP DUP2 PUSH20 0xFFFFFFFFFFFFFFFFFFFFFFFFFFFFFFFFFFFFFFFF AND DUP2 PUSH20 0xFFFFFFFFFFFFFFFFFFFFFFFFFFFFFFFFFFFFFFFF AND PUSH32 0x8BE0079C531659141344CD1FD0A4F28419497F9722A3DAAFE3B4186F6B6457E0 PUSH1 0x40 MLOAD PUSH1 0x40 MLOAD DUP1 SWAP2 SUB SWAP1 LOG3 POP POP JUMP JUMPDEST PUSH0 PUSH20 0xFFFFFFFFFFFFFFFFFFFFFFFFFFFFFFFFFFFFFFFF DUP3 AND SWAP1 POP SWAP2 SWAP1 POP JUMP JUMPDEST PUSH0 PUSH2 0x1AA DUP3 PUSH2 0x181 JUMP JUMPDEST SWAP1 POP SWAP2 SWAP1 POP JUMP JUMPDEST PUSH2 0x1BA DUP2 PUSH2 0x1A0 JUMP JUMPDEST DUP3 MSTORE POP POP JUMP JUMPDEST PUSH0 PUSH1 0x20 DUP3 ADD SWAP1 POP PUSH2 0x1D3 PUSH0 DUP4 ADD DUP5 PUSH2 0x1B1 JUMP JUMPDEST SWAP3 SWAP2 POP POP JUMP JUMPDEST PUSH32 0x4E487B7100000000000000000000000000000000000000000000000000000000 PUSH0 MSTORE PUSH1 0x21 PUSH1 0x4 MSTORE PUSH1 0x24 PUSH0 REVERT JUMPDEST PUSH2 0x21B0 DUP1 PUSH2 0x213 PUSH0 CODECOPY PUSH0 RETURN INVALID PUSH1 0x80 PUSH1 0x40 MSTORE CALLVALUE DUP1 ISZERO PUSH2 0xF JUMPI PUSH0 PUSH0 REVERT JUMPDEST POP PUSH1 0x4 CALLDATASIZE LT PUSH2 0xA7 JUMPI PUSH0 CALLDATALOAD PUSH1 0xE0 SHR DUP1 PUSH4 0x8DA5CB5B GT PUSH2 0x6F JUMPI DUP1 PUSH4 0x8DA5CB5B EQ PUSH2 0x115 JUMPI DUP1 PUSH4 0x8E7EA5B2 EQ PUSH2 0x133 JUMPI DUP1 PUSH4 0xAD38867E EQ PUSH2 0x13D JUMPI DUP1 PUSH4 0xC08CC02D EQ PUSH2 0x15B JUMPI DUP1 PUSH4 0xDCD6A5CD EQ PUSH2 0x179 JUMPI DUP1 PUSH4 0xF2FDE38B EQ PUSH2 0x195 JUMPI PUSH2 0xA7 JUMP JUMPDEST DUP1 PUSH4 0x2FDAE3C5 EQ PUSH2 0xAB JUMPI DUP1 PUSH4 0x43344983 EQ PUSH2 0xC7 JUMPI DUP1 PUSH4 0x4EA49925 EQ PUSH2 0xE5 JUMPI DUP1 PUSH4 0x715018A6 EQ PUSH2 0xEF JUMPI DUP1 PUSH4 0x854CFF2F EQ PUSH2 0xF9 JUMPI JUMPDEST PUSH0 PUSH0 REVERT JUMPDEST PUSH2 0xC5 PUSH1 0x4 DUP1 CALLDATASIZE SUB DUP2 ADD SWAP1 PUSH2 0xC0 SWAP2 SWAP1 PUSH2 0x128C JUMP JUMPDEST PUSH2 0x1B1 JUMP JUMPDEST STOP JUMPDEST PUSH2 0xCF PUSH2 0x3A0 JUMP JUMPDEST PUSH1 0x40 MLOAD PUSH2 0xDC SWAP2 SWAP1 PUSH2 0x1440 JUMP JUMPDEST PUSH1 0x40 MLOAD DUP1 SWAP2 SUB SWAP1 RETURN JUMPDEST PUSH2 0xED PUSH2 0x495 JUMP JUMPDEST STOP JUMPDEST PUSH2 0xF7 PUSH2 0x5CD JUMP JUMPDEST STOP JUMPDEST PUSH2 0x113 PUSH1 0x4 DUP1 CALLDATASIZE SUB DUP2 ADD SWAP1 PUSH2 0x10E SWAP2 SWAP1 PUSH2 0x14BA JUMP JUMPDEST PUSH2 0x5E0 JUMP JUMPDEST STOP JUMPDEST PUSH2 0x11D PUSH2 0x831 JUMP JUMPDEST PUSH1 0x40 MLOAD PUSH2 0x12A SWAP2 SWAP1 PUSH2 0x14F4 JUMP JUMPDEST PUSH1 0x40 MLOAD DUP1 SWAP2 SUB SWAP1 RETURN JUMPDEST PUSH2 0x13B PUSH2 0x858 JUMP JUMPDEST STOP JUMPDEST PUSH2 0x145 PUSH2 0xA53 JUMP JUMPDEST PUSH1 0x40 MLOAD PUSH2 0x152 SWAP2 SWAP1 PUSH2 0x1440 JUMP JUMPDEST PUSH1 0x40 MLOAD DUP1 SWAP2 SUB SWAP1 RETURN JUMPDEST PUSH2 0x163 PUSH2 0xB8F JUMP JUMPDEST PUSH1 0x40 MLOAD PUSH2 0x170 SWAP2 SWAP1 PUSH2 0x151C JUMP JUMPDEST PUSH1 0x40 MLOAD DUP1 SWAP2 SUB SWAP1 RETURN JUMPDEST PUSH2 0x193 PUSH1 0x4 DUP1 CALLDATASIZE SUB DUP2 ADD SWAP1 PUSH2 0x18E SWAP2 SWAP1 PUSH2 0x155F JUMP JUMPDEST PUSH2 0xB9B JUMP JUMPDEST STOP JUMPDEST PUSH2 0x1AF PUSH1 0x4 DUP1 CALLDATASIZE SUB DUP2 ADD SWAP1 PUSH2 0x1AA SWAP2 SWAP1 PUSH2 0x14BA JUMP JUMPDEST PUSH2 0xEC7 JUMP JUMPDEST STOP JUMPDEST PUSH1 0x1 PUSH1 0x5 DUP2 GT ISZERO PUSH2 0x1C5 JUMPI PUSH2 0x1C4 PUSH2 0x158A JUMP JUMPDEST JUMPDEST PUSH0 PUSH1 0x14 SWAP1 SLOAD SWAP1 PUSH2 0x100 EXP SWAP1 DIV PUSH1 0xFF AND PUSH1 0x5 DUP2 GT ISZERO PUSH2 0x1E6 JUMPI PUSH2 0x1E5 PUSH2 0x158A JUMP JUMPDEST JUMPDEST EQ PUSH2 0x226 JUMPI PUSH1 0x40 MLOAD PUSH32 0x8C379A000000000000000000000000000000000000000000000000000000000 DUP2 MSTORE PUSH1 0x4 ADD PUSH2 0x21D SWAP1 PUSH2 0x1637 JUMP JUMPDEST PUSH1 0x40 MLOAD DUP1 SWAP2 SUB SWAP1 REVERT JUMPDEST PUSH0 PUSH1 0x4 SLOAD GT PUSH2 0x26A JUMPI PUSH1 0x40 MLOAD PUSH32 0x8C379A000000000000000000000000000000000000000000000000000000000 DUP2 MSTORE PUSH1 0x4 ADD PUSH2 0x261 SWAP1 PUSH2 0x16C5 JUMP JUMPDEST PUSH1 0x40 MLOAD DUP1 SWAP2 SUB SWAP1 REVERT JUMPDEST PUSH1 0x1 PUSH0 CALLER PUSH20 0xFFFFFFFFFFFFFFFFFFFFFFFFFFFFFFFFFFFFFFFF AND PUSH20 0xFFFFFFFFFFFFFFFFFFFFFFFFFFFFFFFFFFFFFFFF AND DUP2 MSTORE PUSH1 0x20 ADD SWAP1 DUP2 MSTORE PUSH1 0x20 ADD PUSH0 KECCAK256 PUSH0 SWAP1 SLOAD SWAP1 PUSH2 0x100 EXP SWAP1 DIV PUSH1 0xFF AND PUSH2 0x2F3 JUMPI PUSH1 0x40 MLOAD PUSH32 0x8C379A000000000000000000000000000000000000000000000000000000000 DUP2 MSTORE PUSH1 0x4 ADD PUSH2 0x2EA SWAP1 PUSH2 0x172D JUMP JUMPDEST PUSH1 0x40 MLOAD DUP1 SWAP2 SUB SWAP1 REVERT JUMPDEST PUSH1 0x3 PUSH1 0x40 MLOAD DUP1 PUSH1 0x40 ADD PUSH1 0x40 MSTORE DUP1 DUP4 DUP2 MSTORE PUSH1 0x20 ADD PUSH0 DUP2 MSTORE POP SWAP1 DUP1 PUSH1 0x1 DUP2 SLOAD ADD DUP1 DUP3 SSTORE DUP1 SWAP2 POP POP PUSH1 0x1 SWAP1 SUB SWAP1 PUSH0 MSTORE PUSH1 0x20 PUSH0 KECCAK256 SWAP1 PUSH1 0x2 MUL ADD PUSH0 SWAP1 SWAP2 SWAP1 SWAP2 SWAP1 SWAP2 POP PUSH0 DUP3 ADD MLOAD DUP2 PUSH0 ADD SWAP1 DUP2 PUSH2 0x343 SWAP2 SWAP1 PUSH2 0x1948 JUMP JUMPDEST POP PUSH1 0x20 DUP3 ADD MLOAD DUP2 PUSH1 0x1 ADD SSTORE POP POP PUSH0 PUSH1 0x1 PUSH1 0x3 DUP1 SLOAD SWAP1 POP PUSH2 0x363 SWAP2 SWAP1 PUSH2 0x1A44 JUMP JUMPDEST SWAP1 POP PUSH32 0x92E393E9B54E2F801D3EA4BEB0C5E71A21CC34A5D34B77D0FB8A3AA1650DC18F DUP2 PUSH1 0x40 MLOAD PUSH2 0x394 SWAP2 SWAP1 PUSH2 0x151C JUMP JUMPDEST PUSH1 0x40 MLOAD DUP1 SWAP2 SUB SWAP1 LOG1 POP POP JUMP JUMPDEST PUSH1 0x60 PUSH1 0x3 DUP1 SLOAD DUP1 PUSH1 0x20 MUL PUSH1 0x20 ADD PUSH1 0x40 MLOAD SWAP1 DUP2 ADD PUSH1 0x40 MSTORE DUP1 SWAP3 SWAP2 SWAP1 DUP2 DUP2 MSTORE PUSH1 0x20 ADD PUSH0 SWAP1 JUMPDEST DUP3 DUP3 LT ISZERO PUSH2 0x48C JUMPI DUP4 DUP3 SWAP1 PUSH0 MSTORE PUSH1 0x20 PUSH0 KECCAK256 SWAP1 PUSH1 0x2 MUL ADD PUSH1 0x40 MLOAD DUP1 PUSH1 0x40 ADD PUSH1 0x40 MSTORE SWAP1 DUP2 PUSH0 DUP3 ADD DUP1 SLOAD PUSH2 0x3F3 SWAP1 PUSH2 0x1778 JUMP JUMPDEST DUP1 PUSH1 0x1F ADD PUSH1 0x20 DUP1 SWAP2 DIV MUL PUSH1 0x20 ADD PUSH1 0x40 MLOAD SWAP1 DUP2 ADD PUSH1 0x40 MSTORE DUP1 SWAP3 SWAP2 SWAP1 DUP2 DUP2 MSTORE PUSH1 0x20 ADD DUP3 DUP1 SLOAD PUSH2 0x41F SWAP1 PUSH2 0x1778 JUMP JUMPDEST DUP1 ISZERO PUSH2 0x46A JUMPI DUP1 PUSH1 0x1F LT PUSH2 0x441 JUMPI PUSH2 0x100 DUP1 DUP4 SLOAD DIV MUL DUP4 MSTORE SWAP2 PUSH1 0x20 ADD SWAP2 PUSH2 0x46A JUMP JUMPDEST DUP3 ADD SWAP2 SWAP1 PUSH0 MSTORE PUSH1 0x20 PUSH0 KECCAK256 SWAP1 JUMPDEST DUP2 SLOAD DUP2 MSTORE SWAP1 PUSH1 0x1 ADD SWAP1 PUSH1 0x20 ADD DUP1 DUP4 GT PUSH2 0x44D JUMPI DUP3 SWAP1 SUB PUSH1 0x1F AND DUP3 ADD SWAP2 JUMPDEST POP POP POP POP POP DUP2 MSTORE PUSH1 0x20 ADD PUSH1 0x1 DUP3 ADD SLOAD DUP2 MSTORE POP POP DUP2 MSTORE PUSH1 0x20 ADD SWAP1 PUSH1 0x1 ADD SWAP1 PUSH2 0x3C3 JUMP JUMPDEST POP POP POP POP SWAP1 POP SWAP1 JUMP JUMPDEST PUSH2 0x49D PUSH2 0xF4B JUMP JUMPDEST PUSH0 PUSH0 PUSH1 0x14 SWAP1 SLOAD SWAP1 PUSH2 0x100 EXP SWAP1 DIV PUSH1 0xFF AND SWAP1 POP PUSH1 0x5 DUP1 DUP2 GT ISZERO PUSH2 0x4C2 JUMPI PUSH2 0x4C1 PUSH2 0x158A JUMP JUMPDEST JUMPDEST PUSH0 PUSH1 0x14 SWAP1 SLOAD SWAP1 PUSH2 0x100 EXP SWAP1 DIV PUSH1 0xFF AND PUSH1 0x5 DUP2 GT ISZERO PUSH2 0x4E3 JUMPI PUSH2 0x4E2 PUSH2 0x158A JUMP JUMPDEST JUMPDEST SUB PUSH2 0x516 JUMPI PUSH0 PUSH0 PUSH1 0x14 PUSH2 0x100 EXP DUP2 SLOAD DUP2 PUSH1 0xFF MUL NOT AND SWAP1 DUP4 PUSH1 0x5 DUP2 GT ISZERO PUSH2 0x50C JUMPI PUSH2 0x50B PUSH2 0x158A JUMP JUMPDEST JUMPDEST MUL OR SWAP1 SSTORE POP PUSH2 0x57E JUMP JUMPDEST PUSH1 0x1 PUSH0 PUSH1 0x14 SWAP1 SLOAD SWAP1 PUSH2 0x100 EXP SWAP1 DIV PUSH1 0xFF AND PUSH1 0x5 DUP2 GT ISZERO PUSH2 0x539 JUMPI PUSH2 0x538 PUSH2 0x158A JUMP JUMPDEST JUMPDEST PUSH2 0x543 SWAP2 SWAP1 PUSH2 0x1A77 JUMP JUMPDEST PUSH1 0x5 DUP2 GT ISZERO PUSH2 0x555 JUMPI PUSH2 0x554 PUSH2 0x158A JUMP JUMPDEST JUMPDEST PUSH0 PUSH1 0x14 PUSH2 0x100 EXP DUP2 SLOAD DUP2 PUSH1 0xFF MUL NOT AND SWAP1 DUP4 PUSH1 0x5 DUP2 GT ISZERO PUSH2 0x578 JUMPI PUSH2 0x577 PUSH2 0x158A JUMP JUMPDEST JUMPDEST MUL OR SWAP1 SSTORE POP JUMPDEST PUSH0 PUSH0 PUSH1 0x14 SWAP1 SLOAD SWAP1 PUSH2 0x100 EXP SWAP1 DIV PUSH1 0xFF AND SWAP1 POP PUSH32 0xA97A4EE45751E2ABF3E4FC8946939630B11B371EA8AE39CCDC3056E98F5CC3F DUP3 DUP3 PUSH1 0x40 MLOAD PUSH2 0x5C1 SWAP3 SWAP2 SWAP1 PUSH2 0x1AF0 JUMP JUMPDEST PUSH1 0x40 MLOAD DUP1 SWAP2 SUB SWAP1 LOG1 POP POP JUMP JUMPDEST PUSH2 0x5D5 PUSH2 0xF4B JUMP JUMPDEST PUSH2 0x5DE PUSH0 PUSH2 0xFD2 JUMP JUMPDEST JUMP JUMPDEST PUSH2 0x5E8 PUSH2 0xF4B JUMP JUMPDEST PUSH0 PUSH1 0x5 DUP2 GT ISZERO PUSH2 0x5FB JUMPI PUSH2 0x5FA PUSH2 0x158A JUMP JUMPDEST JUMPDEST PUSH0 PUSH1 0x14 SWAP1 SLOAD SWAP1 PUSH2 0x100 EXP SWAP1 DIV PUSH1 0xFF AND PUSH1 0x5 DUP2 GT ISZERO PUSH2 0x61C JUMPI PUSH2 0x61B PUSH2 0x158A JUMP JUMPDEST JUMPDEST EQ PUSH2 0x65C JUMPI PUSH1 0x40 MLOAD PUSH32 0x8C379A000000000000000000000000000000000000000000000000000000000 DUP2 MSTORE PUSH1 0x4 ADD PUSH2 0x653 SWAP1 PUSH2 0x1B87 JUMP JUMPDEST PUSH1 0x40 MLOAD DUP1 SWAP2 SUB SWAP1 REVERT JUMPDEST PUSH1 0x1 PUSH0 DUP3 PUSH20 0xFFFFFFFFFFFFFFFFFFFFFFFFFFFFFFFFFFFFFFFF AND PUSH20 0xFFFFFFFFFFFFFFFFFFFFFFFFFFFFFFFFFFFFFFFF AND DUP2 MSTORE PUSH1 0x20 ADD SWAP1 DUP2 MSTORE PUSH1 0x20 ADD PUSH0 KECCAK256 PUSH0 SWAP1 SLOAD SWAP1 PUSH2 0x100 EXP SWAP1 DIV PUSH1 0xFF AND ISZERO PUSH2 0x6E6 JUMPI PUSH1 0x40 MLOAD PUSH32 0x8C379A000000000000000000000000000000000000000000000000000000000 DUP2 MSTORE PUSH1 0x4 ADD PUSH2 0x6DD SWAP1 PUSH2 0x1BEF JUMP JUMPDEST PUSH1 0x40 MLOAD DUP1 SWAP2 SUB SWAP1 REVERT JUMPDEST PUSH1 0x40 MLOAD DUP1 PUSH1 0x60 ADD PUSH1 0x40 MSTORE DUP1 PUSH1 0x1 ISZERO ISZERO DUP2 MSTORE PUSH1 0x20 ADD PUSH0 ISZERO ISZERO DUP2 MSTORE PUSH1 0x20 ADD PUSH0 DUP2 MSTORE POP PUSH1 0x2 PUSH0 DUP4 PUSH20 0xFFFFFFFFFFFFFFFFFFFFFFFFFFFFFFFFFFFFFFFF AND PUSH20 0xFFFFFFFFFFFFFFFFFFFFFFFFFFFFFFFFFFFFFFFF AND DUP2 MSTORE PUSH1 0x20 ADD SWAP1 DUP2 MSTORE PUSH1 0x20 ADD PUSH0 KECCAK256 PUSH0 DUP3 ADD MLOAD DUP2 PUSH0 ADD PUSH0 PUSH2 0x100 EXP DUP2 SLOAD DUP2 PUSH1 0xFF MUL NOT AND SWAP1 DUP4 ISZERO ISZERO MUL OR SWAP1 SSTORE POP PUSH1 0x20 DUP3 ADD MLOAD DUP2 PUSH0 ADD PUSH1 0x1 PUSH2 0x100 EXP DUP2 SLOAD DUP2 PUSH1 0xFF MUL NOT AND SWAP1 DUP4 ISZERO ISZERO MUL OR SWAP1 SSTORE POP PUSH1 0x40 DUP3 ADD MLOAD DUP2 PUSH1 0x1 ADD SSTORE SWAP1 POP POP PUSH1 0x1 DUP1 PUSH0 DUP4 PUSH20 0xFFFFFFFFFFFFFFFFFFFFFFFFFFFFFFFFFFFFFFFF AND PUSH20 0xFFFFFFFFFFFFFFFFFFFFFFFFFFFFFFFFFFFFFFFF AND DUP2 MSTORE PUSH1 0x20 ADD SWAP1 DUP2 MSTORE PUSH1 0x20 ADD PUSH0 KECCAK256 PUSH0 PUSH2 0x100 EXP DUP2 SLOAD DUP2 PUSH1 0xFF MUL NOT AND SWAP1 DUP4 ISZERO ISZERO MUL OR SWAP1 SSTORE POP PUSH1 0x4 PUSH0 DUP2 SLOAD DUP1 SWAP3 SWAP2 SWAP1 PUSH2 0x7F2 SWAP1 PUSH2 0x1C0D JUMP JUMPDEST SWAP2 SWAP1 POP SSTORE POP PUSH32 0xB6BE2187D059CC2A55FE29E0E503B566E1E0F8C8780096E185429350ACFFD3DD DUP2 PUSH1 0x40 MLOAD PUSH2 0x826 SWAP2 SWAP1 PUSH2 0x14F4 JUMP JUMPDEST PUSH1 0x40 MLOAD DUP1 SWAP2 SUB SWAP1 LOG1 POP JUMP JUMPDEST PUSH0 PUSH0 PUSH0 SWAP1 SLOAD SWAP1 PUSH2 0x100 EXP SWAP1 DIV PUSH20 0xFFFFFFFFFFFFFFFFFFFFFFFFFFFFFFFFFFFFFFFF AND SWAP1 POP SWAP1 JUMP JUMPDEST PUSH2 0x860 PUSH2 0xF4B JUMP JUMPDEST PUSH1 0x5 DUP1 DUP2 GT ISZERO PUSH2 0x873 JUMPI PUSH2 0x872 PUSH2 0x158A JUMP JUMPDEST JUMPDEST PUSH0 PUSH1 0x14 SWAP1 SLOAD SWAP1 PUSH2 0x100 EXP SWAP1 DIV PUSH1 0xFF AND PUSH1 0x5 DUP2 GT ISZERO PUSH2 0x894 JUMPI PUSH2 0x893 PUSH2 0x158A JUMP JUMPDEST JUMPDEST EQ PUSH2 0x8D4 JUMPI PUSH1 0x40 MLOAD PUSH32 0x8C379A000000000000000000000000000000000000000000000000000000000 DUP2 MSTORE PUSH1 0x4 ADD PUSH2 0x8CB SWAP1 PUSH2 0x1CC4 JUMP JUMPDEST PUSH1 0x40 MLOAD DUP1 SWAP2 SUB SWAP1 REVERT JUMPDEST PUSH0 PUSH1 0x3 DUP1 SLOAD SWAP1 POP GT PUSH2 0x91B JUMPI PUSH1 0x40 MLOAD PUSH32 0x8C379A000000000000000000000000000000000000000000000000000000000 DUP2 MSTORE PUSH1 0x4 ADD PUSH2 0x912 SWAP1 PUSH2 0x1D2C JUMP JUMPDEST PUSH1 0x40 MLOAD DUP1 SWAP2 SUB SWAP1 REVERT JUMPDEST PUSH0 PUSH0 SWAP1 POP PUSH1 0x5 PUSH0 PUSH2 0x92C SWAP2 SWAP1 PUSH2 0x109A JUMP JUMPDEST PUSH0 PUSH0 SWAP1 POP JUMPDEST PUSH1 0x3 DUP1 SLOAD SWAP1 POP DUP2 LT ISZERO PUSH2 0x99D JUMPI DUP2 PUSH1 0x3 DUP3 DUP2 SLOAD DUP2 LT PUSH2 0x953 JUMPI PUSH2 0x952 PUSH2 0x1D4A JUMP JUMPDEST JUMPDEST SWAP1 PUSH0 MSTORE PUSH1 0x20 PUSH0 KECCAK256 SWAP1 PUSH1 0x2 MUL ADD PUSH1 0x1 ADD SLOAD GT ISZERO PUSH2 0x990 JUMPI PUSH1 0x3 DUP2 DUP2 SLOAD DUP2 LT PUSH2 0x97D JUMPI PUSH2 0x97C PUSH2 0x1D4A JUMP JUMPDEST JUMPDEST SWAP1 PUSH0 MSTORE PUSH1 0x20 PUSH0 KECCAK256 SWAP1 PUSH1 0x2 MUL ADD PUSH1 0x1 ADD SLOAD SWAP2 POP JUMPDEST DUP1 DUP1 PUSH1 0x1 ADD SWAP2 POP POP PUSH2 0x931 JUMP JUMPDEST POP PUSH0 PUSH0 SWAP1 POP JUMPDEST PUSH1 0x3 DUP1 SLOAD SWAP1 POP DUP2 LT ISZERO PUSH2 0xA4F JUMPI DUP2 PUSH1 0x3 DUP3 DUP2 SLOAD DUP2 LT PUSH2 0x9C5 JUMPI PUSH2 0x9C4 PUSH2 0x1D4A JUMP JUMPDEST JUMPDEST SWAP1 PUSH0 MSTORE PUSH1 0x20 PUSH0 KECCAK256 SWAP1 PUSH1 0x2 MUL ADD PUSH1 0x1 ADD SLOAD SUB PUSH2 0xA42 JUMPI PUSH1 0x5 PUSH1 0x3 DUP3 DUP2 SLOAD DUP2 LT PUSH2 0x9F0 JUMPI PUSH2 0x9EF PUSH2 0x1D4A JUMP JUMPDEST JUMPDEST SWAP1 PUSH0 MSTORE PUSH1 0x20 PUSH0 KECCAK256 SWAP1 PUSH1 0x2 MUL ADD SWAP1 DUP1 PUSH1 0x1 DUP2 SLOAD ADD DUP1 DUP3 SSTORE DUP1 SWAP2 POP POP PUSH1 0x1 SWAP1 SUB SWAP1 PUSH0 MSTORE PUSH1 0x20 PUSH0 KECCAK256 SWAP1 PUSH1 0x2 MUL ADD PUSH0 SWAP1 SWAP2 SWAP1 SWAP2 SWAP1 SWAP2 POP PUSH0 DUP3 ADD DUP2 PUSH0 ADD SWAP1 DUP2 PUSH2 0xA34 SWAP2 SWAP1 PUSH2 0x1D8C JUMP JUMPDEST POP PUSH1 0x1 DUP3 ADD SLOAD DUP2 PUSH1 0x1 ADD SSTORE POP POP JUMPDEST DUP1 DUP1 PUSH1 0x1 ADD SWAP2 POP POP PUSH2 0x9A3 JUMP JUMPDEST POP POP JUMP JUMPDEST PUSH1 0x60 PUSH0 PUSH1 0x3 DUP1 SLOAD SWAP1 POP GT PUSH2 0xA9C JUMPI PUSH1 0x40 MLOAD PUSH32 0x8C379A000000000000000000000000000000000000000000000000000000000 DUP2 MSTORE PUSH1 0x4 ADD PUSH2 0xA93 SWAP1 PUSH2 0x1EBB JUMP JUMPDEST PUSH1 0x40 MLOAD DUP1 SWAP2 SUB SWAP1 REVERT JUMPDEST PUSH1 0x5 DUP1 SLOAD DUP1 PUSH1 0x20 MUL PUSH1 0x20 ADD PUSH1 0x40 MLOAD SWAP1 DUP2 ADD PUSH1 0x40 MSTORE DUP1 SWAP3 SWAP2 SWAP1 DUP2 DUP2 MSTORE PUSH1 0x20 ADD PUSH0 SWAP1 JUMPDEST DUP3 DUP3 LT ISZERO PUSH2 0xB86 JUMPI DUP4 DUP3 SWAP1 PUSH0 MSTORE PUSH1 0x20 PUSH0 KECCAK256 SWAP1 PUSH1 0x2 MUL ADD PUSH1 0x40 MLOAD DUP1 PUSH1 0x40 ADD PUSH1 0x40 MSTORE SWAP1 DUP2 PUSH0 DUP3 ADD DUP1 SLOAD PUSH2 0xAED SWAP1 PUSH2 0x1778 JUMP JUMPDEST DUP1 PUSH1 0x1F ADD PUSH1 0x20 DUP1 SWAP2 DIV MUL PUSH1 0x20 ADD PUSH1 0x40 MLOAD SWAP1 DUP2 ADD PUSH1 0x40 MSTORE DUP1 SWAP3 SWAP2 SWAP1 DUP2 DUP2 MSTORE PUSH1 0x20 ADD DUP3 DUP1 SLOAD PUSH2 0xB19 SWAP1 PUSH2 0x1778 JUMP JUMPDEST DUP1 ISZERO PUSH2 0xB64 JUMPI DUP1 PUSH1 0x1F LT PUSH2 0xB3B JUMPI PUSH2 0x100 DUP1 DUP4 SLOAD DIV MUL DUP4 MSTORE SWAP2 PUSH1 0x20 ADD SWAP2 PUSH2 0xB64 JUMP JUMPDEST DUP3 ADD SWAP2 SWAP1 PUSH0 MSTORE PUSH1 0x20 PUSH0 KECCAK256 SWAP1 JUMPDEST DUP2 SLOAD DUP2 MSTORE SWAP1 PUSH1 0x1 ADD SWAP1 PUSH1 0x20 ADD DUP1 DUP4 GT PUSH2 0xB47 JUMPI DUP3 SWAP1 SUB PUSH1 0x1F AND DUP3 ADD SWAP2 JUMPDEST POP POP POP POP POP DUP2 MSTORE PUSH1 0x20 ADD PUSH1 0x1 DUP3 ADD SLOAD DUP2 MSTORE POP POP DUP2 MSTORE PUSH1 0x20 ADD SWAP1 PUSH1 0x1 ADD SWAP1 PUSH2 0xABD JUMP JUMPDEST POP POP POP POP SWAP1 POP SWAP1 JUMP JUMPDEST PUSH0 PUSH1 0x3 DUP1 SLOAD SWAP1 POP SWAP1 POP SWAP1 JUMP JUMPDEST PUSH1 0x3 PUSH1 0x5 DUP2 GT ISZERO PUSH2 0xBAF JUMPI PUSH2 0xBAE PUSH2 0x158A JUMP JUMPDEST JUMPDEST PUSH0 PUSH1 0x14 SWAP1 SLOAD SWAP1 PUSH2 0x100 EXP SWAP1 DIV PUSH1 0xFF AND PUSH1 0x5 DUP2 GT ISZERO PUSH2 0xBD0 JUMPI PUSH2 0xBCF PUSH2 0x158A JUMP JUMPDEST JUMPDEST EQ PUSH2 0xC10 JUMPI PUSH1 0x40 MLOAD PUSH32 0x8C379A000000000000000000000000000000000000000000000000000000000 DUP2 MSTORE PUSH1 0x4 ADD PUSH2 0xC07 SWAP1 PUSH2 0x1F49 JUMP JUMPDEST PUSH1 0x40 MLOAD DUP1 SWAP2 SUB SWAP1 REVERT JUMPDEST PUSH0 PUSH1 0x3 DUP1 SLOAD SWAP1 POP GT PUSH2 0xC57 JUMPI PUSH1 0x40 MLOAD PUSH32 0x8C379A000000000000000000000000000000000000000000000000000000000 DUP2 MSTORE PUSH1 0x4 ADD PUSH2 0xC4E SWAP1 PUSH2 0x1FFD JUMP JUMPDEST PUSH1 0x40 MLOAD DUP1 SWAP2 SUB SWAP1 REVERT JUMPDEST PUSH1 0x2 PUSH0 CALLER PUSH20 0xFFFFFFFFFFFFFFFFFFFFFFFFFFFFFFFFFFFFFFFF AND PUSH20 0xFFFFFFFFFFFFFFFFFFFFFFFFFFFFFFFFFFFFFFFF AND DUP2 MSTORE PUSH1 0x20 ADD SWAP1 DUP2 MSTORE PUSH1 0x20 ADD PUSH0 KECCAK256 PUSH0 ADD PUSH0 SWAP1 SLOAD SWAP1 PUSH2 0x100 EXP SWAP1 DIV PUSH1 0xFF AND PUSH2 0xCE2 JUMPI PUSH1 0x40 MLOAD PUSH32 0x8C379A000000000000000000000000000000000000000000000000000000000 DUP2 MSTORE PUSH1 0x4 ADD PUSH2 0xCD9 SWAP1 PUSH2 0x2065 JUMP JUMPDEST PUSH1 0x40 MLOAD DUP1 SWAP2 SUB SWAP1 REVERT JUMPDEST PUSH1 0x2 PUSH0 CALLER PUSH20 0xFFFFFFFFFFFFFFFFFFFFFFFFFFFFFFFFFFFFFFFF AND PUSH20 0xFFFFFFFFFFFFFFFFFFFFFFFFFFFFFFFFFFFFFFFF AND DUP2 MSTORE PUSH1 0x20 ADD SWAP1 DUP2 MSTORE PUSH1 0x20 ADD PUSH0 KECCAK256 PUSH0 ADD PUSH1 0x1 SWAP1 SLOAD SWAP1 PUSH2 0x100 EXP SWAP1 DIV PUSH1 0xFF AND ISZERO PUSH2 0xD6F JUMPI PUSH1 0x40 MLOAD PUSH32 0x8C379A000000000000000000000000000000000000000000000000000000000 DUP2 MSTORE PUSH1 0x4 ADD PUSH2 0xD66 SWAP1 PUSH2 0x20CD JUMP JUMPDEST PUSH1 0x40 MLOAD DUP1 SWAP2 SUB SWAP1 REVERT JUMPDEST PUSH1 0x3 DUP1 SLOAD SWAP1 POP DUP2 LT PUSH2 0xDB6 JUMPI PUSH1 0x40 MLOAD PUSH32 0x8C379A000000000000000000000000000000000000000000000000000000000 DUP2 MSTORE PUSH1 0x4 ADD PUSH2 0xDAD SWAP1 PUSH2 0x2135 JUMP JUMPDEST PUSH1 0x40 MLOAD DUP1 SWAP2 SUB SWAP1 REVERT JUMPDEST PUSH1 0x1 PUSH1 0x2 PUSH0 CALLER PUSH20 0xFFFFFFFFFFFFFFFFFFFFFFFFFFFFFFFFFFFFFFFF AND PUSH20 0xFFFFFFFFFFFFFFFFFFFFFFFFFFFFFFFFFFFFFFFF AND DUP2 MSTORE PUSH1 0x20 ADD SWAP1 DUP2 MSTORE PUSH1 0x20 ADD PUSH0 KECCAK256 PUSH0 ADD PUSH1 0x1 PUSH2 0x100 EXP DUP2 SLOAD DUP2 PUSH1 0xFF MUL NOT AND SWAP1 DUP4 ISZERO ISZERO MUL OR SWAP1 SSTORE POP DUP1 PUSH1 0x2 PUSH0 CALLER PUSH20 0xFFFFFFFFFFFFFFFFFFFFFFFFFFFFFFFFFFFFFFFF AND PUSH20 0xFFFFFFFFFFFFFFFFFFFFFFFFFFFFFFFFFFFFFFFF AND DUP2 MSTORE PUSH1 0x20 ADD SWAP1 DUP2 MSTORE PUSH1 0x20 ADD PUSH0 KECCAK256 PUSH1 0x1 ADD DUP2 SWAP1 SSTORE POP PUSH1 0x3 DUP2 DUP2 SLOAD DUP2 LT PUSH2 0xE67 JUMPI PUSH2 0xE66 PUSH2 0x1D4A JUMP JUMPDEST JUMPDEST SWAP1 PUSH0 MSTORE PUSH1 0x20 PUSH0 KECCAK256 SWAP1 PUSH1 0x2 MUL ADD PUSH1 0x1 ADD PUSH0 DUP2 SLOAD DUP1 SWAP3 SWAP2 SWAP1 PUSH2 0xE86 SWAP1 PUSH2 0x1C0D JUMP JUMPDEST SWAP2 SWAP1 POP SSTORE POP PUSH32 0x4D99B957A2BC29A30EBD96A7BE8E68FE50A3C701DB28A91436490B7D53870CA4 CALLER DUP3 PUSH1 0x40 MLOAD PUSH2 0xEBC SWAP3 SWAP2 SWAP1 PUSH2 0x2153 JUMP JUMPDEST PUSH1 0x40 MLOAD DUP1 SWAP2 SUB SWAP1 LOG1 POP JUMP JUMPDEST PUSH2 0xECF PUSH2 0xF4B JUMP JUMPDEST PUSH0 PUSH20 0xFFFFFFFFFFFFFFFFFFFFFFFFFFFFFFFFFFFFFFFF AND DUP2 PUSH20 0xFFFFFFFFFFFFFFFFFFFFFFFFFFFFFFFFFFFFFFFF AND SUB PUSH2 0xF3F JUMPI PUSH0 PUSH1 0x40 MLOAD PUSH32 0x1E4FBDF700000000000000000000000000000000000000000000000000000000 DUP2 MSTORE PUSH1 0x4 ADD PUSH2 0xF36 SWAP2 SWAP1 PUSH2 0x14F4 JUMP JUMPDEST PUSH1 0x40 MLOAD DUP1 SWAP2 SUB SWAP1 REVERT JUMPDEST PUSH2 0xF48 DUP2 PUSH2 0xFD2 JUMP JUMPDEST POP JUMP JUMPDEST PUSH2 0xF53 PUSH2 0x1093 JUMP JUMPDEST PUSH20 0xFFFFFFFFFFFFFFFFFFFFFFFFFFFFFFFFFFFFFFFF AND PUSH2 0xF71 PUSH2 0x831 JUMP JUMPDEST PUSH20 0xFFFFFFFFFFFFFFFFFFFFFFFFFFFFFFFFFFFFFFFF AND EQ PUSH2 0xFD0 JUMPI PUSH2 0xF94 PUSH2 0x1093 JUMP JUMPDEST PUSH1 0x40 MLOAD PUSH32 0x118CDAA700000000000000000000000000000000000000000000000000000000 DUP2 MSTORE PUSH1 0x4 ADD PUSH2 0xFC7 SWAP2 SWAP1 PUSH2 0x14F4 JUMP JUMPDEST PUSH1 0x40 MLOAD DUP1 SWAP2 SUB SWAP1 REVERT JUMPDEST JUMP JUMPDEST PUSH0 PUSH0 PUSH0 SWAP1 SLOAD SWAP1 PUSH2 0x100 EXP SWAP1 DIV PUSH20 0xFFFFFFFFFFFFFFFFFFFFFFFFFFFFFFFFFFFFFFFF AND SWAP1 POP DUP2 PUSH0 PUSH0 PUSH2 0x100 EXP DUP2 SLOAD DUP2 PUSH20 0xFFFFFFFFFFFFFFFFFFFFFFFFFFFFFFFFFFFFFFFF MUL NOT AND SWAP1 DUP4 PUSH20 0xFFFFFFFFFFFFFFFFFFFFFFFFFFFFFFFFFFFFFFFF AND MUL OR SWAP1 SSTORE POP DUP2 PUSH20 0xFFFFFFFFFFFFFFFFFFFFFFFFFFFFFFFFFFFFFFFF AND DUP2 PUSH20 0xFFFFFFFFFFFFFFFFFFFFFFFFFFFFFFFFFFFFFFFF AND PUSH32 0x8BE0079C531659141344CD1FD0A4F28419497F9722A3DAAFE3B4186F6B6457E0 PUSH1 0x40 MLOAD PUSH1 0x40 MLOAD DUP1 SWAP2 SUB SWAP1 LOG3 POP POP JUMP JUMPDEST PUSH0 CALLER SWAP1 POP SWAP1 JUMP JUMPDEST POP DUP1 SLOAD PUSH0 DUP3 SSTORE PUSH1 0x2 MUL SWAP1 PUSH0 MSTORE PUSH1 0x20 PUSH0 KECCAK256 SWAP1 DUP2 ADD SWAP1 PUSH2 0x10B8 SWAP2 SWAP1 PUSH2 0x10BB JUMP JUMPDEST POP JUMP JUMPDEST JUMPDEST DUP1 DUP3 GT ISZERO PUSH2 0x10E3 JUMPI PUSH0 PUSH0 DUP3 ADD PUSH0 PUSH2 0x10D3 SWAP2 SWAP1 PUSH2 0x10E7 JUMP JUMPDEST PUSH1 0x1 DUP3 ADD PUSH0 SWAP1 SSTORE POP PUSH1 0x2 ADD PUSH2 0x10BC JUMP JUMPDEST POP SWAP1 JUMP JUMPDEST POP DUP1 SLOAD PUSH2 0x10F3 SWAP1 PUSH2 0x1778 JUMP JUMPDEST PUSH0 DUP3 SSTORE DUP1 PUSH1 0x1F LT PUSH2 0x1104 JUMPI POP PUSH2 0x1121 JUMP JUMPDEST PUSH1 0x1F ADD PUSH1 0x20 SWAP1 DIV SWAP1 PUSH0 MSTORE PUSH1 0x20 PUSH0 KECCAK256 SWAP1 DUP2 ADD SWAP1 PUSH2 0x1120 SWAP2 SWAP1 PUSH2 0x1124 JUMP JUMPDEST JUMPDEST POP JUMP JUMPDEST JUMPDEST DUP1 DUP3 GT ISZERO PUSH2 0x113B JUMPI PUSH0 DUP2 PUSH0 SWAP1 SSTORE POP PUSH1 0x1 ADD PUSH2 0x1125 JUMP JUMPDEST POP SWAP1 JUMP JUMPDEST PUSH0 PUSH1 0x40 MLOAD SWAP1 POP SWAP1 JUMP JUMPDEST PUSH0 PUSH0 REVERT JUMPDEST PUSH0 PUSH0 REVERT JUMPDEST PUSH0 PUSH0 REVERT JUMPDEST PUSH0 PUSH0 REVERT JUMPDEST PUSH0 PUSH1 0x1F NOT PUSH1 0x1F DUP4 ADD AND SWAP1 POP SWAP2 SWAP1 POP JUMP JUMPDEST PUSH32 0x4E487B7100000000000000000000000000000000000000000000000000000000 PUSH0 MSTORE PUSH1 0x41 PUSH1 0x4 MSTORE PUSH1 0x24 PUSH0 REVERT JUMPDEST PUSH2 0x119E DUP3 PUSH2 0x1158 JUMP JUMPDEST DUP2 ADD DUP2 DUP2 LT PUSH8 0xFFFFFFFFFFFFFFFF DUP3 GT OR ISZERO PUSH2 0x11BD JUMPI PUSH2 0x11BC PUSH2 0x1168 JUMP JUMPDEST JUMPDEST DUP1 PUSH1 0x40 MSTORE POP POP POP JUMP JUMPDEST PUSH0 PUSH2 0x11CF PUSH2 0x113F JUMP JUMPDEST SWAP1 POP PUSH2 0x11DB DUP3 DUP3 PUSH2 0x1195 JUMP JUMPDEST SWAP2 SWAP1 POP JUMP JUMPDEST PUSH0 PUSH8 0xFFFFFFFFFFFFFFFF DUP3 GT ISZERO PUSH2 0x11FA JUMPI PUSH2 0x11F9 PUSH2 0x1168 JUMP JUMPDEST JUMPDEST PUSH2 0x1203 DUP3 PUSH2 0x1158 JUMP JUMPDEST SWAP1 POP PUSH1 0x20 DUP2 ADD SWAP1 POP SWAP2 SWAP1 POP JUMP JUMPDEST DUP3 DUP2 DUP4 CALLDATACOPY PUSH0 DUP4 DUP4 ADD MSTORE POP POP POP JUMP JUMPDEST PUSH0 PUSH2 0x1230 PUSH2 0x122B DUP5 PUSH2 0x11E0 JUMP JUMPDEST PUSH2 0x11C6 JUMP JUMPDEST SWAP1 POP DUP3 DUP2 MSTORE PUSH1 0x20 DUP2 ADD DUP5 DUP5 DUP5 ADD GT ISZERO PUSH2 0x124C JUMPI PUSH2 0x124B PUSH2 0x1154 JUMP JUMPDEST JUMPDEST PUSH2 0x1257 DUP5 DUP3 DUP6 PUSH2 0x1210 JUMP JUMPDEST POP SWAP4 SWAP3 POP POP POP JUMP JUMPDEST PUSH0 DUP3 PUSH1 0x1F DUP4 ADD SLT PUSH2 0x1273 JUMPI PUSH2 0x1272 PUSH2 0x1150 JUMP JUMPDEST JUMPDEST DUP2 CALLDATALOAD PUSH2 0x1283 DUP5 DUP3 PUSH1 0x20 DUP7 ADD PUSH2 0x121E JUMP JUMPDEST SWAP2 POP POP SWAP3 SWAP2 POP POP JUMP JUMPDEST PUSH0 PUSH1 0x20 DUP3 DUP5 SUB SLT ISZERO PUSH2 0x12A1 JUMPI PUSH2 0x12A0 PUSH2 0x1148 JUMP JUMPDEST JUMPDEST PUSH0 DUP3 ADD CALLDATALOAD PUSH8 0xFFFFFFFFFFFFFFFF DUP2 GT ISZERO PUSH2 0x12BE JUMPI PUSH2 0x12BD PUSH2 0x114C JUMP JUMPDEST JUMPDEST PUSH2 0x12CA DUP5 DUP3 DUP6 ADD PUSH2 0x125F JUMP JUMPDEST SWAP2 POP POP SWAP3 SWAP2 POP POP JUMP JUMPDEST PUSH0 DUP2 MLOAD SWAP1 POP SWAP2 SWAP1 POP JUMP JUMPDEST PUSH0 DUP3 DUP3 MSTORE PUSH1 0x20 DUP3 ADD SWAP1 POP SWAP3 SWAP2 POP POP JUMP JUMPDEST PUSH0 DUP2 SWAP1 POP PUSH1 0x20 DUP3 ADD SWAP1 POP SWAP2 SWAP1 POP JUMP JUMPDEST PUSH0 DUP2 MLOAD SWAP1 POP SWAP2 SWAP1 POP JUMP JUMPDEST PUSH0 DUP3 DUP3 MSTORE PUSH1 0x20 DUP3 ADD SWAP1 POP SWAP3 SWAP2 POP POP JUMP JUMPDEST DUP3 DUP2 DUP4 MCOPY PUSH0 DUP4 DUP4 ADD MSTORE POP POP POP JUMP JUMPDEST PUSH0 PUSH2 0x132E DUP3 PUSH2 0x12FC JUMP JUMPDEST PUSH2 0x1338 DUP2 DUP6 PUSH2 0x1306 JUMP JUMPDEST SWAP4 POP PUSH2 0x1348 DUP2 DUP6 PUSH1 0x20 DUP7 ADD PUSH2 0x1316 JUMP JUMPDEST PUSH2 0x1351 DUP2 PUSH2 0x1158 JUMP JUMPDEST DUP5 ADD SWAP2 POP POP SWAP3 SWAP2 POP POP JUMP JUMPDEST PUSH0 DUP2 SWAP1 POP SWAP2 SWAP1 POP JUMP JUMPDEST PUSH2 0x136E DUP2 PUSH2 0x135C JUMP JUMPDEST DUP3 MSTORE POP POP JUMP JUMPDEST PUSH0 PUSH1 0x40 DUP4 ADD PUSH0 DUP4 ADD MLOAD DUP5 DUP3 SUB PUSH0 DUP7 ADD MSTORE PUSH2 0x138E DUP3 DUP3 PUSH2 0x1324 JUMP JUMPDEST SWAP2 POP POP PUSH1 0x20 DUP4 ADD MLOAD PUSH2 0x13A3 PUSH1 0x20 DUP7 ADD DUP3 PUSH2 0x1365 JUMP JUMPDEST POP DUP1 SWAP2 POP POP SWAP3 SWAP2 POP POP JUMP JUMPDEST PUSH0 PUSH2 0x13B9 DUP4 DUP4 PUSH2 0x1374 JUMP JUMPDEST SWAP1 POP SWAP3 SWAP2 POP POP JUMP JUMPDEST PUSH0 PUSH1 0x20 DUP3 ADD SWAP1 POP SWAP2 SWAP1 POP JUMP JUMPDEST PUSH0 PUSH2 0x13D7 DUP3 PUSH2 0x12D3 JUMP JUMPDEST PUSH2 0x13E1 DUP2 DUP6 PUSH2 0x12DD JUMP JUMPDEST SWAP4 POP DUP4 PUSH1 0x20 DUP3 MUL DUP6 ADD PUSH2 0x13F3 DUP6 PUSH2 0x12ED JUMP JUMPDEST DUP1 PUSH0 JUMPDEST DUP6 DUP2 LT ISZERO PUSH2 0x142E JUMPI DUP5 DUP5 SUB DUP10 MSTORE DUP2 MLOAD PUSH2 0x140F DUP6 DUP3 PUSH2 0x13AE JUMP JUMPDEST SWAP5 POP PUSH2 0x141A DUP4 PUSH2 0x13C1 JUMP JUMPDEST SWAP3 POP PUSH1 0x20 DUP11 ADD SWAP10 POP POP PUSH1 0x1 DUP2 ADD SWAP1 POP PUSH2 0x13F6 JUMP JUMPDEST POP DUP3 SWAP8 POP DUP8 SWAP6 POP POP POP POP POP POP SWAP3 SWAP2 POP POP JUMP JUMPDEST PUSH0 PUSH1 0x20 DUP3 ADD SWAP1 POP DUP2 DUP2 SUB PUSH0 DUP4 ADD MSTORE PUSH2 0x1458 DUP2 DUP5 PUSH2 0x13CD JUMP JUMPDEST SWAP1 POP SWAP3 SWAP2 POP POP JUMP JUMPDEST PUSH0 PUSH20 0xFFFFFFFFFFFFFFFFFFFFFFFFFFFFFFFFFFFFFFFF DUP3 AND SWAP1 POP SWAP2 SWAP1 POP JUMP JUMPDEST PUSH0 PUSH2 0x1489 DUP3 PUSH2 0x1460 JUMP JUMPDEST SWAP1 POP SWAP2 SWAP1 POP JUMP JUMPDEST PUSH2 0x1499 DUP2 PUSH2 0x147F JUMP JUMPDEST DUP2 EQ PUSH2 0x14A3 JUMPI PUSH0 PUSH0 REVERT JUMPDEST POP JUMP JUMPDEST PUSH0 DUP2 CALLDATALOAD SWAP1 POP PUSH2 0x14B4 DUP2 PUSH2 0x1490 JUMP JUMPDEST SWAP3 SWAP2 POP POP JUMP JUMPDEST PUSH0 PUSH1 0x20 DUP3 DUP5 SUB SLT ISZERO PUSH2 0x14CF JUMPI PUSH2 0x14CE PUSH2 0x1148 JUMP JUMPDEST JUMPDEST PUSH0 PUSH2 0x14DC DUP5 DUP3 DUP6 ADD PUSH2 0x14A6 JUMP JUMPDEST SWAP2 POP POP SWAP3 SWAP2 POP POP JUMP JUMPDEST PUSH2 0x14EE DUP2 PUSH2 0x147F JUMP JUMPDEST DUP3 MSTORE POP POP JUMP JUMPDEST PUSH0 PUSH1 0x20 DUP3 ADD SWAP1 POP PUSH2 0x1507 PUSH0 DUP4 ADD DUP5 PUSH2 0x14E5 JUMP JUMPDEST SWAP3 SWAP2 POP POP JUMP JUMPDEST PUSH2 0x1516 DUP2 PUSH2 0x135C JUMP JUMPDEST DUP3 MSTORE POP POP JUMP JUMPDEST PUSH0 PUSH1 0x20 DUP3 ADD SWAP1 POP PUSH2 0x152F PUSH0 DUP4 ADD DUP5 PUSH2 0x150D JUMP JUMPDEST SWAP3 SWAP2 POP POP JUMP JUMPDEST PUSH2 0x153E DUP2 PUSH2 0x135C JUMP JUMPDEST DUP2 EQ PUSH2 0x1548 JUMPI PUSH0 PUSH0 REVERT JUMPDEST POP JUMP JUMPDEST PUSH0 DUP2 CALLDATALOAD SWAP1 POP PUSH2 0x1559 DUP2 PUSH2 0x1535 JUMP JUMPDEST SWAP3 SWAP2 POP POP JUMP JUMPDEST PUSH0 PUSH1 0x20 DUP3 DUP5 SUB SLT ISZERO PUSH2 0x1574 JUMPI PUSH2 0x1573 PUSH2 0x1148 JUMP JUMPDEST JUMPDEST PUSH0 PUSH2 0x1581 DUP5 DUP3 DUP6 ADD PUSH2 0x154B JUMP JUMPDEST SWAP2 POP POP SWAP3 SWAP2 POP POP JUMP JUMPDEST PUSH32 0x4E487B7100000000000000000000000000000000000000000000000000000000 PUSH0 MSTORE PUSH1 0x21 PUSH1 0x4 MSTORE PUSH1 0x24 PUSH0 REVERT JUMPDEST PUSH0 DUP3 DUP3 MSTORE PUSH1 0x20 DUP3 ADD SWAP1 POP SWAP3 SWAP2 POP POP JUMP JUMPDEST PUSH32 0x50726F706F73616C2063616E206265206164646573206F6E6C7920696E205072 PUSH0 DUP3 ADD MSTORE PUSH32 0x6F706F73616C20526567697374726174696F6E2070686173653A312E00000000 PUSH1 0x20 DUP3 ADD MSTORE POP JUMP JUMPDEST PUSH0 PUSH2 0x1621 PUSH1 0x3C DUP4 PUSH2 0x15B7 JUMP JUMPDEST SWAP2 POP PUSH2 0x162C DUP3 PUSH2 0x15C7 JUMP JUMPDEST PUSH1 0x40 DUP3 ADD SWAP1 POP SWAP2 SWAP1 POP JUMP JUMPDEST PUSH0 PUSH1 0x20 DUP3 ADD SWAP1 POP DUP2 DUP2 SUB PUSH0 DUP4 ADD MSTORE PUSH2 0x164E DUP2 PUSH2 0x1615 JUMP JUMPDEST SWAP1 POP SWAP2 SWAP1 POP JUMP JUMPDEST PUSH32 0x57686974656C697374206D75737420636F6E7461696E206174206C6561737420 PUSH0 DUP3 ADD MSTORE PUSH32 0x6F6E652061646472657373000000000000000000000000000000000000000000 PUSH1 0x20 DUP3 ADD MSTORE POP JUMP JUMPDEST PUSH0 PUSH2 0x16AF PUSH1 0x2B DUP4 PUSH2 0x15B7 JUMP JUMPDEST SWAP2 POP PUSH2 0x16BA DUP3 PUSH2 0x1655 JUMP JUMPDEST PUSH1 0x40 DUP3 ADD SWAP1 POP SWAP2 SWAP1 POP JUMP JUMPDEST PUSH0 PUSH1 0x20 DUP3 ADD SWAP1 POP DUP2 DUP2 SUB PUSH0 DUP4 ADD MSTORE PUSH2 0x16DC DUP2 PUSH2 0x16A3 JUMP JUMPDEST SWAP1 POP SWAP2 SWAP1 POP JUMP JUMPDEST PUSH32 0x596F757220616472657373206973206E6F742077686974656C69737465640000 PUSH0 DUP3 ADD MSTORE POP JUMP JUMPDEST PUSH0 PUSH2 0x1717 PUSH1 0x1E DUP4 PUSH2 0x15B7 JUMP JUMPDEST SWAP2 POP PUSH2 0x1722 DUP3 PUSH2 0x16E3 JUMP JUMPDEST PUSH1 0x20 DUP3 ADD SWAP1 POP SWAP2 SWAP1 POP JUMP JUMPDEST PUSH0 PUSH1 0x20 DUP3 ADD SWAP1 POP DUP2 DUP2 SUB PUSH0 DUP4 ADD MSTORE PUSH2 0x1744 DUP2 PUSH2 0x170B JUMP JUMPDEST SWAP1 POP SWAP2 SWAP1 POP JUMP JUMPDEST PUSH32 0x4E487B7100000000000000000000000000000000000000000000000000000000 PUSH0 MSTORE PUSH1 0x22 PUSH1 0x4 MSTORE PUSH1 0x24 PUSH0 REVERT JUMPDEST PUSH0 PUSH1 0x2 DUP3 DIV SWAP1 POP PUSH1 0x1 DUP3 AND DUP1 PUSH2 0x178F JUMPI PUSH1 0x7F DUP3 AND SWAP2 POP JUMPDEST PUSH1 0x20 DUP3 LT DUP2 SUB PUSH2 0x17A2 JUMPI PUSH2 0x17A1 PUSH2 0x174B JUMP JUMPDEST JUMPDEST POP SWAP2 SWAP1 POP JUMP JUMPDEST PUSH0 DUP2 SWAP1 POP DUP2 PUSH0 MSTORE PUSH1 0x20 PUSH0 KECCAK256 SWAP1 POP SWAP2 SWAP1 POP JUMP JUMPDEST PUSH0 PUSH1 0x20 PUSH1 0x1F DUP4 ADD DIV SWAP1 POP SWAP2 SWAP1 POP JUMP JUMPDEST PUSH0 DUP3 DUP3 SHL SWAP1 POP SWAP3 SWAP2 POP POP JUMP JUMPDEST PUSH0 PUSH1 0x8 DUP4 MUL PUSH2 0x1804 PUSH32 0xFFFFFFFFFFFFFFFFFFFFFFFFFFFFFFFFFFFFFFFFFFFFFFFFFFFFFFFFFFFFFFFF DUP3 PUSH2 0x17C9 JUMP JUMPDEST PUSH2 0x180E DUP7 DUP4 PUSH2 0x17C9 JUMP JUMPDEST SWAP6 POP DUP1 NOT DUP5 AND SWAP4 POP DUP1 DUP7 AND DUP5 OR SWAP3 POP POP POP SWAP4 SWAP3 POP POP POP JUMP JUMPDEST PUSH0 DUP2 SWAP1 POP SWAP2 SWAP1 POP JUMP JUMPDEST PUSH0 PUSH2 0x1849 PUSH2 0x1844 PUSH2 0x183F DUP5 PUSH2 0x135C JUMP JUMPDEST PUSH2 0x1826 JUMP JUMPDEST PUSH2 0x135C JUMP JUMPDEST SWAP1 POP SWAP2 SWAP1 POP JUMP JUMPDEST PUSH0 DUP2 SWAP1 POP SWAP2 SWAP1 POP JUMP JUMPDEST PUSH2 0x1862 DUP4 PUSH2 0x182F JUMP JUMPDEST PUSH2 0x1876 PUSH2 0x186E DUP3 PUSH2 0x1850 JUMP JUMPDEST DUP5 DUP5 SLOAD PUSH2 0x17D5 JUMP JUMPDEST DUP3 SSTORE POP POP POP POP JUMP JUMPDEST PUSH0 PUSH0 SWAP1 POP SWAP1 JUMP JUMPDEST PUSH2 0x188D PUSH2 0x187E JUMP JUMPDEST PUSH2 0x1898 DUP2 DUP5 DUP5 PUSH2 0x1859 JUMP JUMPDEST POP POP POP JUMP JUMPDEST JUMPDEST DUP2 DUP2 LT ISZERO PUSH2 0x18BB JUMPI PUSH2 0x18B0 PUSH0 DUP3 PUSH2 0x1885 JUMP JUMPDEST PUSH1 0x1 DUP2 ADD SWAP1 POP PUSH2 0x189E JUMP JUMPDEST POP POP JUMP JUMPDEST PUSH1 0x1F DUP3 GT ISZERO PUSH2 0x1900 JUMPI PUSH2 0x18D1 DUP2 PUSH2 0x17A8 JUMP JUMPDEST PUSH2 0x18DA DUP5 PUSH2 0x17BA JUMP JUMPDEST DUP2 ADD PUSH1 0x20 DUP6 LT ISZERO PUSH2 0x18E9 JUMPI DUP2 SWAP1 POP JUMPDEST PUSH2 0x18FD PUSH2 0x18F5 DUP6 PUSH2 0x17BA JUMP JUMPDEST DUP4 ADD DUP3 PUSH2 0x189D JUMP JUMPDEST POP POP JUMPDEST POP POP POP JUMP JUMPDEST PUSH0 DUP3 DUP3 SHR SWAP1 POP SWAP3 SWAP2 POP POP JUMP JUMPDEST PUSH0 PUSH2 0x1920 PUSH0 NOT DUP5 PUSH1 0x8 MUL PUSH2 0x1905 JUMP JUMPDEST NOT DUP1 DUP4 AND SWAP2 POP POP SWAP3 SWAP2 POP POP JUMP JUMPDEST PUSH0 PUSH2 0x1938 DUP4 DUP4 PUSH2 0x1911 JUMP JUMPDEST SWAP2 POP DUP3 PUSH1 0x2 MUL DUP3 OR SWAP1 POP SWAP3 SWAP2 POP POP JUMP JUMPDEST PUSH2 0x1951 DUP3 PUSH2 0x12FC JUMP JUMPDEST PUSH8 0xFFFFFFFFFFFFFFFF DUP2 GT ISZERO PUSH2 0x196A JUMPI PUSH2 0x1969 PUSH2 0x1168 JUMP JUMPDEST JUMPDEST PUSH2 0x1974 DUP3 SLOAD PUSH2 0x1778 JUMP JUMPDEST PUSH2 0x197F DUP3 DUP3 DUP6 PUSH2 0x18BF JUMP JUMPDEST PUSH0 PUSH1 0x20 SWAP1 POP PUSH1 0x1F DUP4 GT PUSH1 0x1 DUP2 EQ PUSH2 0x19B0 JUMPI PUSH0 DUP5 ISZERO PUSH2 0x199E JUMPI DUP3 DUP8 ADD MLOAD SWAP1 POP JUMPDEST PUSH2 0x19A8 DUP6 DUP3 PUSH2 0x192D JUMP JUMPDEST DUP7 SSTORE POP PUSH2 0x1A0F JUMP JUMPDEST PUSH1 0x1F NOT DUP5 AND PUSH2 0x19BE DUP7 PUSH2 0x17A8 JUMP JUMPDEST PUSH0 JUMPDEST DUP3 DUP2 LT ISZERO PUSH2 0x19E5 JUMPI DUP5 DUP10 ADD MLOAD DUP3 SSTORE PUSH1 0x1 DUP3 ADD SWAP2 POP PUSH1 0x20 DUP6 ADD SWAP5 POP PUSH1 0x20 DUP2 ADD SWAP1 POP PUSH2 0x19C0 JUMP JUMPDEST DUP7 DUP4 LT ISZERO PUSH2 0x1A02 JUMPI DUP5 DUP10 ADD MLOAD PUSH2 0x19FE PUSH1 0x1F DUP10 AND DUP3 PUSH2 0x1911 JUMP JUMPDEST DUP4 SSTORE POP JUMPDEST PUSH1 0x1 PUSH1 0x2 DUP9 MUL ADD DUP9 SSTORE POP POP POP JUMPDEST POP POP POP POP POP POP JUMP JUMPDEST PUSH32 0x4E487B7100000000000000000000000000000000000000000000000000000000 PUSH0 MSTORE PUSH1 0x11 PUSH1 0x4 MSTORE PUSH1 0x24 PUSH0 REVERT JUMPDEST PUSH0 PUSH2 0x1A4E DUP3 PUSH2 0x135C JUMP JUMPDEST SWAP2 POP PUSH2 0x1A59 DUP4 PUSH2 0x135C JUMP JUMPDEST SWAP3 POP DUP3 DUP3 SUB SWAP1 POP DUP2 DUP2 GT ISZERO PUSH2 0x1A71 JUMPI PUSH2 0x1A70 PUSH2 0x1A17 JUMP JUMPDEST JUMPDEST SWAP3 SWAP2 POP POP JUMP JUMPDEST PUSH0 PUSH2 0x1A81 DUP3 PUSH2 0x135C JUMP JUMPDEST SWAP2 POP PUSH2 0x1A8C DUP4 PUSH2 0x135C JUMP JUMPDEST SWAP3 POP DUP3 DUP3 ADD SWAP1 POP DUP1 DUP3 GT ISZERO PUSH2 0x1AA4 JUMPI PUSH2 0x1AA3 PUSH2 0x1A17 JUMP JUMPDEST JUMPDEST SWAP3 SWAP2 POP POP JUMP JUMPDEST PUSH1 0x6 DUP2 LT PUSH2 0x1ABB JUMPI PUSH2 0x1ABA PUSH2 0x158A JUMP JUMPDEST JUMPDEST POP JUMP JUMPDEST PUSH0 DUP2 SWAP1 POP PUSH2 0x1ACB DUP3 PUSH2 0x1AAA JUMP JUMPDEST SWAP2 SWAP1 POP JUMP JUMPDEST PUSH0 PUSH2 0x1ADA DUP3 PUSH2 0x1ABE JUMP JUMPDEST SWAP1 POP SWAP2 SWAP1 POP JUMP JUMPDEST PUSH2 0x1AEA DUP2 PUSH2 0x1AD0 JUMP JUMPDEST DUP3 MSTORE POP POP JUMP JUMPDEST PUSH0 PUSH1 0x40 DUP3 ADD SWAP1 POP PUSH2 0x1B03 PUSH0 DUP4 ADD DUP6 PUSH2 0x1AE1 JUMP JUMPDEST PUSH2 0x1B10 PUSH1 0x20 DUP4 ADD DUP5 PUSH2 0x1AE1 JUMP JUMPDEST SWAP4 SWAP3 POP POP POP JUMP JUMPDEST PUSH32 0x416464726573732063616E206265206164646564206F6E6C7920696E20526567 PUSH0 DUP3 ADD MSTORE PUSH32 0x697374726174696F6E2070686173653A302E0000000000000000000000000000 PUSH1 0x20 DUP3 ADD MSTORE POP JUMP JUMPDEST PUSH0 PUSH2 0x1B71 PUSH1 0x32 DUP4 PUSH2 0x15B7 JUMP JUMPDEST SWAP2 POP PUSH2 0x1B7C DUP3 PUSH2 0x1B17 JUMP JUMPDEST PUSH1 0x40 DUP3 ADD SWAP1 POP SWAP2 SWAP1 POP JUMP JUMPDEST PUSH0 PUSH1 0x20 DUP3 ADD SWAP1 POP DUP2 DUP2 SUB PUSH0 DUP4 ADD MSTORE PUSH2 0x1B9E DUP2 PUSH2 0x1B65 JUMP JUMPDEST SWAP1 POP SWAP2 SWAP1 POP JUMP JUMPDEST PUSH32 0x4164647265737320616C72656164792072656769737465726564000000000000 PUSH0 DUP3 ADD MSTORE POP JUMP JUMPDEST PUSH0 PUSH2 0x1BD9 PUSH1 0x1A DUP4 PUSH2 0x15B7 JUMP JUMPDEST SWAP2 POP PUSH2 0x1BE4 DUP3 PUSH2 0x1BA5 JUMP JUMPDEST PUSH1 0x20 DUP3 ADD SWAP1 POP SWAP2 SWAP1 POP JUMP JUMPDEST PUSH0 PUSH1 0x20 DUP3 ADD SWAP1 POP DUP2 DUP2 SUB PUSH0 DUP4 ADD MSTORE PUSH2 0x1C06 DUP2 PUSH2 0x1BCD JUMP JUMPDEST SWAP1 POP SWAP2 SWAP1 POP JUMP JUMPDEST PUSH0 PUSH2 0x1C17 DUP3 PUSH2 0x135C JUMP JUMPDEST SWAP2 POP PUSH32 0xFFFFFFFFFFFFFFFFFFFFFFFFFFFFFFFFFFFFFFFFFFFFFFFFFFFFFFFFFFFFFFFF DUP3 SUB PUSH2 0x1C49 JUMPI PUSH2 0x1C48 PUSH2 0x1A17 JUMP JUMPDEST JUMPDEST PUSH1 0x1 DUP3 ADD SWAP1 POP SWAP2 SWAP1 POP JUMP JUMPDEST PUSH32 0x566F746573206D757374206265207461696C6564206265666F726520616E6E6F PUSH0 DUP3 ADD MSTORE PUSH32 0x6E63696E67207468652077696E6E657220696E20506861736520352E00000000 PUSH1 0x20 DUP3 ADD MSTORE POP JUMP JUMPDEST PUSH0 PUSH2 0x1CAE PUSH1 0x3C DUP4 PUSH2 0x15B7 JUMP JUMPDEST SWAP2 POP PUSH2 0x1CB9 DUP3 PUSH2 0x1C54 JUMP JUMPDEST PUSH1 0x40 DUP3 ADD SWAP1 POP SWAP2 SWAP1 POP JUMP JUMPDEST PUSH0 PUSH1 0x20 DUP3 ADD SWAP1 POP DUP2 DUP2 SUB PUSH0 DUP4 ADD MSTORE PUSH2 0x1CDB DUP2 PUSH2 0x1CA2 JUMP JUMPDEST SWAP1 POP SWAP2 SWAP1 POP JUMP JUMPDEST PUSH32 0x4E6F2070726F706F73616C7320617661696C61626C6500000000000000000000 PUSH0 DUP3 ADD MSTORE POP JUMP JUMPDEST PUSH0 PUSH2 0x1D16 PUSH1 0x16 DUP4 PUSH2 0x15B7 JUMP JUMPDEST SWAP2 POP PUSH2 0x1D21 DUP3 PUSH2 0x1CE2 JUMP JUMPDEST PUSH1 0x20 DUP3 ADD SWAP1 POP SWAP2 SWAP1 POP JUMP JUMPDEST PUSH0 PUSH1 0x20 DUP3 ADD SWAP1 POP DUP2 DUP2 SUB PUSH0 DUP4 ADD MSTORE PUSH2 0x1D43 DUP2 PUSH2 0x1D0A JUMP JUMPDEST SWAP1 POP SWAP2 SWAP1 POP JUMP JUMPDEST PUSH32 0x4E487B7100000000000000000000000000000000000000000000000000000000 PUSH0 MSTORE PUSH1 0x32 PUSH1 0x4 MSTORE PUSH1 0x24 PUSH0 REVERT JUMPDEST PUSH0 DUP2 SLOAD SWAP1 POP PUSH2 0x1D85 DUP2 PUSH2 0x1778 JUMP JUMPDEST SWAP1 POP SWAP2 SWAP1 POP JUMP JUMPDEST DUP2 DUP2 SUB PUSH2 0x1D9A JUMPI POP POP PUSH2 0x1E6F JUMP JUMPDEST PUSH2 0x1DA3 DUP3 PUSH2 0x1D77 JUMP JUMPDEST PUSH8 0xFFFFFFFFFFFFFFFF DUP2 GT ISZERO PUSH2 0x1DBC JUMPI PUSH2 0x1DBB PUSH2 0x1168 JUMP JUMPDEST JUMPDEST PUSH2 0x1DC6 DUP3 SLOAD PUSH2 0x1778 JUMP JUMPDEST PUSH2 0x1DD1 DUP3 DUP3 DUP6 PUSH2 0x18BF JUMP JUMPDEST PUSH0 PUSH1 0x1F DUP4 GT PUSH1 0x1 DUP2 EQ PUSH2 0x1DFE JUMPI PUSH0 DUP5 ISZERO PUSH2 0x1DEC JUMPI DUP3 DUP8 ADD SLOAD SWAP1 POP JUMPDEST PUSH2 0x1DF6 DUP6 DUP3 PUSH2 0x192D JUMP JUMPDEST DUP7 SSTORE POP PUSH2 0x1E68 JUMP JUMPDEST PUSH1 0x1F NOT DUP5 AND PUSH2 0x1E0C DUP8 PUSH2 0x17A8 JUMP JUMPDEST SWAP7 POP PUSH2 0x1E17 DUP7 PUSH2 0x17A8 JUMP JUMPDEST PUSH0 JUMPDEST DUP3 DUP2 LT ISZERO PUSH2 0x1E3E JUMPI DUP5 DUP10 ADD SLOAD DUP3 SSTORE PUSH1 0x1 DUP3 ADD SWAP2 POP PUSH1 0x1 DUP6 ADD SWAP5 POP PUSH1 0x20 DUP2 ADD SWAP1 POP PUSH2 0x1E19 JUMP JUMPDEST DUP7 DUP4 LT ISZERO PUSH2 0x1E5B JUMPI DUP5 DUP10 ADD SLOAD PUSH2 0x1E57 PUSH1 0x1F DUP10 AND DUP3 PUSH2 0x1911 JUMP JUMPDEST DUP4 SSTORE POP JUMPDEST PUSH1 0x1 PUSH1 0x2 DUP9 MUL ADD DUP9 SSTORE POP POP POP JUMPDEST POP POP POP POP POP POP JUMPDEST JUMP JUMPDEST PUSH32 0x4E6F2077696E6E65722079657400000000000000000000000000000000000000 PUSH0 DUP3 ADD MSTORE POP JUMP JUMPDEST PUSH0 PUSH2 0x1EA5 PUSH1 0xD DUP4 PUSH2 0x15B7 JUMP JUMPDEST SWAP2 POP PUSH2 0x1EB0 DUP3 PUSH2 0x1E71 JUMP JUMPDEST PUSH1 0x20 DUP3 ADD SWAP1 POP SWAP2 SWAP1 POP JUMP JUMPDEST PUSH0 PUSH1 0x20 DUP3 ADD SWAP1 POP DUP2 DUP2 SUB PUSH0 DUP4 ADD MSTORE PUSH2 0x1ED2 DUP2 PUSH2 0x1E99 JUMP JUMPDEST SWAP1 POP SWAP2 SWAP1 POP JUMP JUMPDEST PUSH32 0x566F7465732063616E20626520646F6E65206F6E6C7920696E20766F74696E67 PUSH0 DUP3 ADD MSTORE PUSH32 0x2070686173653A332E0000000000000000000000000000000000000000000000 PUSH1 0x20 DUP3 ADD MSTORE POP JUMP JUMPDEST PUSH0 PUSH2 0x1F33 PUSH1 0x29 DUP4 PUSH2 0x15B7 JUMP JUMPDEST SWAP2 POP PUSH2 0x1F3E DUP3 PUSH2 0x1ED9 JUMP JUMPDEST PUSH1 0x40 DUP3 ADD SWAP1 POP SWAP2 SWAP1 POP JUMP JUMPDEST PUSH0 PUSH1 0x20 DUP3 ADD SWAP1 POP DUP2 DUP2 SUB PUSH0 DUP4 ADD MSTORE PUSH2 0x1F60 DUP2 PUSH2 0x1F27 JUMP JUMPDEST SWAP1 POP SWAP2 SWAP1 POP JUMP JUMPDEST PUSH32 0x596F75206861766520746F20676574206174206C656174206F6E652070726F70 PUSH0 DUP3 ADD MSTORE PUSH32 0x6F73616C20696E206F7264657220746F2070726F63656564206120766F74696E PUSH1 0x20 DUP3 ADD MSTORE PUSH32 0x6720706861736500000000000000000000000000000000000000000000000000 PUSH1 0x40 DUP3 ADD MSTORE POP JUMP JUMPDEST PUSH0 PUSH2 0x1FE7 PUSH1 0x47 DUP4 PUSH2 0x15B7 JUMP JUMPDEST SWAP2 POP PUSH2 0x1FF2 DUP3 PUSH2 0x1F67 JUMP JUMPDEST PUSH1 0x60 DUP3 ADD SWAP1 POP SWAP2 SWAP1 POP JUMP JUMPDEST PUSH0 PUSH1 0x20 DUP3 ADD SWAP1 POP DUP2 DUP2 SUB PUSH0 DUP4 ADD MSTORE PUSH2 0x2014 DUP2 PUSH2 0x1FDB JUMP JUMPDEST SWAP1 POP SWAP2 SWAP1 POP JUMP JUMPDEST PUSH32 0x596F75206172206E6F742072656769737465726564206173206120766F746572 PUSH0 DUP3 ADD MSTORE POP JUMP JUMPDEST PUSH0 PUSH2 0x204F PUSH1 0x20 DUP4 PUSH2 0x15B7 JUMP JUMPDEST SWAP2 POP PUSH2 0x205A DUP3 PUSH2 0x201B JUMP JUMPDEST PUSH1 0x20 DUP3 ADD SWAP1 POP SWAP2 SWAP1 POP JUMP JUMPDEST PUSH0 PUSH1 0x20 DUP3 ADD SWAP1 POP DUP2 DUP2 SUB PUSH0 DUP4 ADD MSTORE PUSH2 0x207C DUP2 PUSH2 0x2043 JUMP JUMPDEST SWAP1 POP SWAP2 SWAP1 POP JUMP JUMPDEST PUSH32 0x596F75206861766520616C726561647920766F74656400000000000000000000 PUSH0 DUP3 ADD MSTORE POP JUMP JUMPDEST PUSH0 PUSH2 0x20B7 PUSH1 0x16 DUP4 PUSH2 0x15B7 JUMP JUMPDEST SWAP2 POP PUSH2 0x20C2 DUP3 PUSH2 0x2083 JUMP JUMPDEST PUSH1 0x20 DUP3 ADD SWAP1 POP SWAP2 SWAP1 POP JUMP JUMPDEST PUSH0 PUSH1 0x20 DUP3 ADD SWAP1 POP DUP2 DUP2 SUB PUSH0 DUP4 ADD MSTORE PUSH2 0x20E4 DUP2 PUSH2 0x20AB JUMP JUMPDEST SWAP1 POP SWAP2 SWAP1 POP JUMP JUMPDEST PUSH32 0x496E76616C69642070726F706F73616C2063686F696365000000000000000000 PUSH0 DUP3 ADD MSTORE POP JUMP JUMPDEST PUSH0 PUSH2 0x211F PUSH1 0x17 DUP4 PUSH2 0x15B7 JUMP JUMPDEST SWAP2 POP PUSH2 0x212A DUP3 PUSH2 0x20EB JUMP JUMPDEST PUSH1 0x20 DUP3 ADD SWAP1 POP SWAP2 SWAP1 POP JUMP JUMPDEST PUSH0 PUSH1 0x20 DUP3 ADD SWAP1 POP DUP2 DUP2 SUB PUSH0 DUP4 ADD MSTORE PUSH2 0x214C DUP2 PUSH2 0x2113 JUMP JUMPDEST SWAP1 POP SWAP2 SWAP1 POP JUMP JUMPDEST PUSH0 PUSH1 0x40 DUP3 ADD SWAP1 POP PUSH2 0x2166 PUSH0 DUP4 ADD DUP6 PUSH2 0x14E5 JUMP JUMPDEST PUSH2 0x2173 PUSH1 0x20 DUP4 ADD DUP5 PUSH2 0x150D JUMP JUMPDEST SWAP4 SWAP3 POP POP POP JUMP INVALID LOG2 PUSH5 0x6970667358 0x22 SLT KECCAK256 0x4F GT DUP14 PUSH29 0xE74643EA476B57B31262419032727812C3DCC6C5046007B7084111A464 PUSH20 0x6F6C634300081C00330000000000000000000000 "
				},
				"gasEstimates": {
					"creation": {
						"codeDepositCost": "1724800",
						"executionCost": "infinite",
						"totalCost": "infinite"
					},
					"external": {
						"Vote(uint256)": "infinite",
						"addProposal(string)": "infinite",
						"checkWinner()": "infinite",
						"getAllProposal()": "infinite",
						"getProposalCount()": "2506",
						"getWinner()": "infinite",
						"nextVotingStatus()": "infinite",
						"owner()": "2514",
						"renounceOwnership()": "infinite",
						"setWhitelist(address)": "infinite",
						"transferOwnership(address)": "infinite"
					}
				},
				"methodIdentifiers": {
					"Vote(uint256)": "dcd6a5cd",
					"addProposal(string)": "2fdae3c5",
					"checkWinner()": "ad38867e",
					"getAllProposal()": "43344983",
					"getProposalCount()": "c08cc02d",
					"getWinner()": "8e7ea5b2",
					"nextVotingStatus()": "4ea49925",
					"owner()": "8da5cb5b",
					"renounceOwnership()": "715018a6",
					"setWhitelist(address)": "854cff2f",
					"transferOwnership(address)": "f2fde38b"
				}
			},
			"storageLayout": {
				"storage": [
					{
						"astId": 430,
						"contract": "contracts/Voting.sol:Voting",
						"label": "_owner",
						"offset": 0,
						"slot": "0",
						"type": "t_address"
					},
					{
						"astId": 14,
						"contract": "contracts/Voting.sol:Voting",
						"label": "state",
						"offset": 20,
						"slot": "0",
						"type": "t_enum(WorkflowStatus)11"
					},
					{
						"astId": 65,
						"contract": "contracts/Voting.sol:Voting",
						"label": "whitelist",
						"offset": 0,
						"slot": "1",
						"type": "t_mapping(t_address,t_bool)"
					},
					{
						"astId": 70,
						"contract": "contracts/Voting.sol:Voting",
						"label": "voters",
						"offset": 0,
						"slot": "2",
						"type": "t_mapping(t_address,t_struct(Voter)56_storage)"
					},
					{
						"astId": 74,
						"contract": "contracts/Voting.sol:Voting",
						"label": "proposals",
						"offset": 0,
						"slot": "3",
						"type": "t_array(t_struct(Proposal)61_storage)dyn_storage"
					},
					{
						"astId": 76,
						"contract": "contracts/Voting.sol:Voting",
						"label": "whitelistCount",
						"offset": 0,
						"slot": "4",
						"type": "t_uint256"
					},
					{
						"astId": 80,
						"contract": "contracts/Voting.sol:Voting",
						"label": "winners",
						"offset": 0,
						"slot": "5",
						"type": "t_array(t_struct(Proposal)61_storage)dyn_storage"
					}
				],
				"types": {
					"t_address": {
						"encoding": "inplace",
						"label": "address",
						"numberOfBytes": "20"
					},
					"t_array(t_struct(Proposal)61_storage)dyn_storage": {
						"base": "t_struct(Proposal)61_storage",
						"encoding": "dynamic_array",
						"label": "struct Voting.Proposal[]",
						"numberOfBytes": "32"
					},
					"t_bool": {
						"encoding": "inplace",
						"label": "bool",
						"numberOfBytes": "1"
					},
					"t_enum(WorkflowStatus)11": {
						"encoding": "inplace",
						"label": "enum Voting.WorkflowStatus",
						"numberOfBytes": "1"
					},
					"t_mapping(t_address,t_bool)": {
						"encoding": "mapping",
						"key": "t_address",
						"label": "mapping(address => bool)",
						"numberOfBytes": "32",
						"value": "t_bool"
					},
					"t_mapping(t_address,t_struct(Voter)56_storage)": {
						"encoding": "mapping",
						"key": "t_address",
						"label": "mapping(address => struct Voting.Voter)",
						"numberOfBytes": "32",
						"value": "t_struct(Voter)56_storage"
					},
					"t_string_storage": {
						"encoding": "bytes",
						"label": "string",
						"numberOfBytes": "32"
					},
					"t_struct(Proposal)61_storage": {
						"encoding": "inplace",
						"label": "struct Voting.Proposal",
						"members": [
							{
								"astId": 58,
								"contract": "contracts/Voting.sol:Voting",
								"label": "description",
								"offset": 0,
								"slot": "0",
								"type": "t_string_storage"
							},
							{
								"astId": 60,
								"contract": "contracts/Voting.sol:Voting",
								"label": "voteCount",
								"offset": 0,
								"slot": "1",
								"type": "t_uint256"
							}
						],
						"numberOfBytes": "64"
					},
					"t_struct(Voter)56_storage": {
						"encoding": "inplace",
						"label": "struct Voting.Voter",
						"members": [
							{
								"astId": 51,
								"contract": "contracts/Voting.sol:Voting",
								"label": "isRegistered",
								"offset": 0,
								"slot": "0",
								"type": "t_bool"
							},
							{
								"astId": 53,
								"contract": "contracts/Voting.sol:Voting",
								"label": "hasVoted",
								"offset": 1,
								"slot": "0",
								"type": "t_bool"
							},
							{
								"astId": 55,
								"contract": "contracts/Voting.sol:Voting",
								"label": "votedProposalId",
								"offset": 0,
								"slot": "1",
								"type": "t_uint256"
							}
						],
						"numberOfBytes": "64"
					},
					"t_uint256": {
						"encoding": "inplace",
						"label": "uint256",
						"numberOfBytes": "32"
					}
				}
			},
			"userdoc": {
				"kind": "user",
				"methods": {},
				"version": 1
			}
		}
	}
}